{"abi":[{"inputs":[{"internalType":"string","name":"name","type":"string"},{"internalType":"string","name":"image","type":"string"}],"name":"createBallot","outputs":[],"stateMutability":"nonpayable","type":"function"},{"inputs":[{"internalType":"uint256","name":"","type":"uint256"}],"name":"deployedBallots","outputs":[{"internalType":"contract Ballot","name":"","type":"address"}],"stateMutability":"view","type":"function"},{"inputs":[],"name":"getDeployedBallots","outputs":[{"internalType":"contract Ballot[]","name":"","type":"address[]"}],"stateMutability":"view","type":"function"}],"devdoc":{"kind":"dev","methods":{},"version":1},"evm":{"assembly":"    /* \"Ballot.sol\":167:544  contract BallotFactory {... */\n  mstore(0x40, 0x80)\n  callvalue\n  dup1\n  iszero\n  tag_1\n  jumpi\n  0x00\n  dup1\n  revert\ntag_1:\n  pop\n  dataSize(sub_0)\n  dup1\n  dataOffset(sub_0)\n  0x00\n  codecopy\n  0x00\n  return\nstop\n\nsub_0: assembly {\n        /* \"Ballot.sol\":167:544  contract BallotFactory {... */\n      mstore(0x40, 0x80)\n      callvalue\n      dup1\n      iszero\n      tag_1\n      jumpi\n      0x00\n      dup1\n      revert\n    tag_1:\n      pop\n      jumpi(tag_2, lt(calldatasize, 0x04))\n      shr(0xe0, calldataload(0x00))\n      dup1\n      0x6fa4f103\n      eq\n      tag_3\n      jumpi\n      dup1\n      0x9b935abf\n      eq\n      tag_4\n      jumpi\n      dup1\n      0xcdf74c3e\n      eq\n      tag_5\n      jumpi\n    tag_2:\n      0x00\n      dup1\n      revert\n        /* \"Ballot.sol\":237:424  function createBallot(string memory name , string memory image) public {... */\n    tag_3:\n      tag_6\n      0x04\n      dup1\n      calldatasize\n      sub\n      dup2\n      add\n      swap1\n      tag_7\n      swap2\n      swap1\n      tag_8\n      jump\t// in\n    tag_7:\n      tag_9\n      jump\t// in\n    tag_6:\n      stop\n        /* \"Ballot.sol\":432:541  function getDeployedBallots() public view returns (Ballot[] memory) {... */\n    tag_4:\n      tag_10\n      tag_11\n      jump\t// in\n    tag_10:\n      mload(0x40)\n      tag_12\n      swap2\n      swap1\n      tag_13\n      jump\t// in\n    tag_12:\n      mload(0x40)\n      dup1\n      swap2\n      sub\n      swap1\n      return\n        /* \"Ballot.sol\":197:228  Ballot[] public deployedBallots */\n    tag_5:\n      tag_14\n      0x04\n      dup1\n      calldatasize\n      sub\n      dup2\n      add\n      swap1\n      tag_15\n      swap2\n      swap1\n      tag_16\n      jump\t// in\n    tag_15:\n      tag_17\n      jump\t// in\n    tag_14:\n      mload(0x40)\n      tag_18\n      swap2\n      swap1\n      tag_19\n      jump\t// in\n    tag_18:\n      mload(0x40)\n      dup1\n      swap2\n      sub\n      swap1\n      return\n        /* \"Ballot.sol\":237:424  function createBallot(string memory name , string memory image) public {... */\n    tag_9:\n        /* \"Ballot.sol\":319:335  Ballot newBallot */\n      0x00\n        /* \"Ballot.sol\":349:353  name */\n      dup3\n        /* \"Ballot.sol\":355:365  msg.sender */\n      caller\n        /* \"Ballot.sol\":368:373  image */\n      dup4\n        /* \"Ballot.sol\":338:374  new Ballot(name, msg.sender , image) */\n      mload(0x40)\n      tag_21\n      swap1\n      tag_22\n      jump\t// in\n    tag_21:\n      tag_23\n      swap4\n      swap3\n      swap2\n      swap1\n      tag_24\n      jump\t// in\n    tag_23:\n      mload(0x40)\n      dup1\n      swap2\n      sub\n      swap1\n      0x00\n      create\n      dup1\n      iszero\n      dup1\n      iszero\n      tag_25\n      jumpi\n      returndatasize\n      0x00\n      dup1\n      returndatacopy\n      revert(0x00, returndatasize)\n    tag_25:\n      pop\n        /* \"Ballot.sol\":319:374  Ballot newBallot = new Ballot(name, msg.sender , image) */\n      swap1\n      pop\n        /* \"Ballot.sol\":385:400  deployedBallots */\n      0x00\n        /* \"Ballot.sol\":406:415  newBallot */\n      dup2\n        /* \"Ballot.sol\":385:416  deployedBallots.push(newBallot) */\n      swap1\n      dup1\n      0x01\n      dup2\n      sload\n      add\n      dup1\n      dup3\n      sstore\n      dup1\n      swap2\n      pop\n      pop\n      0x01\n      swap1\n      sub\n      swap1\n      0x00\n      mstore\n      keccak256(0x00, 0x20)\n      add\n      0x00\n      swap1\n      swap2\n      swap1\n      swap2\n      swap1\n      swap2\n      0x0100\n      exp\n      dup2\n      sload\n      dup2\n      0xffffffffffffffffffffffffffffffffffffffff\n      mul\n      not\n      and\n      swap1\n      dup4\n      0xffffffffffffffffffffffffffffffffffffffff\n      and\n      mul\n      or\n      swap1\n      sstore\n      pop\n        /* \"Ballot.sol\":308:424  {... */\n      pop\n        /* \"Ballot.sol\":237:424  function createBallot(string memory name , string memory image) public {... */\n      pop\n      pop\n      jump\t// out\n        /* \"Ballot.sol\":432:541  function getDeployedBallots() public view returns (Ballot[] memory) {... */\n    tag_11:\n        /* \"Ballot.sol\":483:498  Ballot[] memory */\n      0x60\n        /* \"Ballot.sol\":518:533  deployedBallots */\n      0x00\n        /* \"Ballot.sol\":511:533  return deployedBallots */\n      dup1\n      sload\n      dup1\n      0x20\n      mul\n      0x20\n      add\n      mload(0x40)\n      swap1\n      dup2\n      add\n      0x40\n      mstore\n      dup1\n      swap3\n      swap2\n      swap1\n      dup2\n      dup2\n      mstore\n      0x20\n      add\n      dup3\n      dup1\n      sload\n      dup1\n      iszero\n      tag_28\n      jumpi\n      0x20\n      mul\n      dup3\n      add\n      swap2\n      swap1\n      0x00\n      mstore\n      keccak256(0x00, 0x20)\n      swap1\n    tag_29:\n      dup2\n      0x00\n      swap1\n      sload\n      swap1\n      0x0100\n      exp\n      swap1\n      div\n      0xffffffffffffffffffffffffffffffffffffffff\n      and\n      0xffffffffffffffffffffffffffffffffffffffff\n      and\n      dup2\n      mstore\n      0x20\n      add\n      swap1\n      0x01\n      add\n      swap1\n      dup1\n      dup4\n      gt\n      tag_29\n      jumpi\n    tag_28:\n      pop\n      pop\n      pop\n      pop\n      pop\n      swap1\n      pop\n        /* \"Ballot.sol\":432:541  function getDeployedBallots() public view returns (Ballot[] memory) {... */\n      swap1\n      jump\t// out\n        /* \"Ballot.sol\":197:228  Ballot[] public deployedBallots */\n    tag_17:\n      0x00\n      dup2\n      dup2\n      sload\n      dup2\n      lt\n      tag_30\n      jumpi\n      0x00\n      dup1\n      revert\n    tag_30:\n      swap1\n      0x00\n      mstore\n      keccak256(0x00, 0x20)\n      add\n      0x00\n      swap2\n      pop\n      sload\n      swap1\n      0x0100\n      exp\n      swap1\n      div\n      0xffffffffffffffffffffffffffffffffffffffff\n      and\n      dup2\n      jump\t// out\n    tag_22:\n      dataSize(sub_0)\n      dup1\n      dataOffset(sub_0)\n      dup4\n      codecopy\n      add\n      swap1\n      jump\t// out\n        /* \"#utility.yul\":7:82   */\n    tag_32:\n        /* \"#utility.yul\":40:46   */\n      0x00\n        /* \"#utility.yul\":73:75   */\n      0x40\n        /* \"#utility.yul\":67:76   */\n      mload\n        /* \"#utility.yul\":57:76   */\n      swap1\n      pop\n        /* \"#utility.yul\":7:82   */\n      swap1\n      jump\t// out\n        /* \"#utility.yul\":88:205   */\n    tag_33:\n        /* \"#utility.yul\":197:198   */\n      0x00\n        /* \"#utility.yul\":194:195   */\n      dup1\n        /* \"#utility.yul\":187:199   */\n      revert\n        /* \"#utility.yul\":211:328   */\n    tag_34:\n        /* \"#utility.yul\":320:321   */\n      0x00\n        /* \"#utility.yul\":317:318   */\n      dup1\n        /* \"#utility.yul\":310:322   */\n      revert\n        /* \"#utility.yul\":334:451   */\n    tag_35:\n        /* \"#utility.yul\":443:444   */\n      0x00\n        /* \"#utility.yul\":440:441   */\n      dup1\n        /* \"#utility.yul\":433:445   */\n      revert\n        /* \"#utility.yul\":457:574   */\n    tag_36:\n        /* \"#utility.yul\":566:567   */\n      0x00\n        /* \"#utility.yul\":563:564   */\n      dup1\n        /* \"#utility.yul\":556:568   */\n      revert\n        /* \"#utility.yul\":580:682   */\n    tag_37:\n        /* \"#utility.yul\":621:627   */\n      0x00\n        /* \"#utility.yul\":672:674   */\n      0x1f\n        /* \"#utility.yul\":668:675   */\n      not\n        /* \"#utility.yul\":663:665   */\n      0x1f\n        /* \"#utility.yul\":656:661   */\n      dup4\n        /* \"#utility.yul\":652:666   */\n      add\n        /* \"#utility.yul\":648:676   */\n      and\n        /* \"#utility.yul\":638:676   */\n      swap1\n      pop\n        /* \"#utility.yul\":580:682   */\n      swap2\n      swap1\n      pop\n      jump\t// out\n        /* \"#utility.yul\":688:868   */\n    tag_38:\n        /* \"#utility.yul\":736:813   */\n      0x4e487b7100000000000000000000000000000000000000000000000000000000\n        /* \"#utility.yul\":733:734   */\n      0x00\n        /* \"#utility.yul\":726:814   */\n      mstore\n        /* \"#utility.yul\":833:837   */\n      0x41\n        /* \"#utility.yul\":830:831   */\n      0x04\n        /* \"#utility.yul\":823:838   */\n      mstore\n        /* \"#utility.yul\":857:861   */\n      0x24\n        /* \"#utility.yul\":854:855   */\n      0x00\n        /* \"#utility.yul\":847:862   */\n      revert\n        /* \"#utility.yul\":874:1155   */\n    tag_39:\n        /* \"#utility.yul\":957:984   */\n      tag_76\n        /* \"#utility.yul\":979:983   */\n      dup3\n        /* \"#utility.yul\":957:984   */\n      tag_37\n      jump\t// in\n    tag_76:\n        /* \"#utility.yul\":949:955   */\n      dup2\n        /* \"#utility.yul\":945:985   */\n      add\n        /* \"#utility.yul\":1087:1093   */\n      dup2\n        /* \"#utility.yul\":1075:1085   */\n      dup2\n        /* \"#utility.yul\":1072:1094   */\n      lt\n        /* \"#utility.yul\":1051:1069   */\n      0xffffffffffffffff\n        /* \"#utility.yul\":1039:1049   */\n      dup3\n        /* \"#utility.yul\":1036:1070   */\n      gt\n        /* \"#utility.yul\":1033:1095   */\n      or\n        /* \"#utility.yul\":1030:1118   */\n      iszero\n      tag_77\n      jumpi\n        /* \"#utility.yul\":1098:1116   */\n      tag_78\n      tag_38\n      jump\t// in\n    tag_78:\n        /* \"#utility.yul\":1030:1118   */\n    tag_77:\n        /* \"#utility.yul\":1138:1148   */\n      dup1\n        /* \"#utility.yul\":1134:1136   */\n      0x40\n        /* \"#utility.yul\":1127:1149   */\n      mstore\n        /* \"#utility.yul\":917:1155   */\n      pop\n        /* \"#utility.yul\":874:1155   */\n      pop\n      pop\n      jump\t// out\n        /* \"#utility.yul\":1161:1290   */\n    tag_40:\n        /* \"#utility.yul\":1195:1201   */\n      0x00\n        /* \"#utility.yul\":1222:1242   */\n      tag_80\n      tag_32\n      jump\t// in\n    tag_80:\n        /* \"#utility.yul\":1212:1242   */\n      swap1\n      pop\n        /* \"#utility.yul\":1251:1284   */\n      tag_81\n        /* \"#utility.yul\":1279:1283   */\n      dup3\n        /* \"#utility.yul\":1271:1277   */\n      dup3\n        /* \"#utility.yul\":1251:1284   */\n      tag_39\n      jump\t// in\n    tag_81:\n        /* \"#utility.yul\":1161:1290   */\n      swap2\n      swap1\n      pop\n      jump\t// out\n        /* \"#utility.yul\":1296:1604   */\n    tag_41:\n        /* \"#utility.yul\":1358:1362   */\n      0x00\n        /* \"#utility.yul\":1448:1466   */\n      0xffffffffffffffff\n        /* \"#utility.yul\":1440:1446   */\n      dup3\n        /* \"#utility.yul\":1437:1467   */\n      gt\n        /* \"#utility.yul\":1434:1490   */\n      iszero\n      tag_83\n      jumpi\n        /* \"#utility.yul\":1470:1488   */\n      tag_84\n      tag_38\n      jump\t// in\n    tag_84:\n        /* \"#utility.yul\":1434:1490   */\n    tag_83:\n        /* \"#utility.yul\":1508:1537   */\n      tag_85\n        /* \"#utility.yul\":1530:1536   */\n      dup3\n        /* \"#utility.yul\":1508:1537   */\n      tag_37\n      jump\t// in\n    tag_85:\n        /* \"#utility.yul\":1500:1537   */\n      swap1\n      pop\n        /* \"#utility.yul\":1592:1596   */\n      0x20\n        /* \"#utility.yul\":1586:1590   */\n      dup2\n        /* \"#utility.yul\":1582:1597   */\n      add\n        /* \"#utility.yul\":1574:1597   */\n      swap1\n      pop\n        /* \"#utility.yul\":1296:1604   */\n      swap2\n      swap1\n      pop\n      jump\t// out\n        /* \"#utility.yul\":1610:1764   */\n    tag_42:\n        /* \"#utility.yul\":1694:1700   */\n      dup3\n        /* \"#utility.yul\":1689:1692   */\n      dup2\n        /* \"#utility.yul\":1684:1687   */\n      dup4\n        /* \"#utility.yul\":1671:1701   */\n      calldatacopy\n        /* \"#utility.yul\":1756:1757   */\n      0x00\n        /* \"#utility.yul\":1747:1753   */\n      dup4\n        /* \"#utility.yul\":1742:1745   */\n      dup4\n        /* \"#utility.yul\":1738:1754   */\n      add\n        /* \"#utility.yul\":1731:1758   */\n      mstore\n        /* \"#utility.yul\":1610:1764   */\n      pop\n      pop\n      pop\n      jump\t// out\n        /* \"#utility.yul\":1770:2182   */\n    tag_43:\n        /* \"#utility.yul\":1848:1853   */\n      0x00\n        /* \"#utility.yul\":1873:1939   */\n      tag_88\n        /* \"#utility.yul\":1889:1938   */\n      tag_89\n        /* \"#utility.yul\":1931:1937   */\n      dup5\n        /* \"#utility.yul\":1889:1938   */\n      tag_41\n      jump\t// in\n    tag_89:\n        /* \"#utility.yul\":1873:1939   */\n      tag_40\n      jump\t// in\n    tag_88:\n        /* \"#utility.yul\":1864:1939   */\n      swap1\n      pop\n        /* \"#utility.yul\":1962:1968   */\n      dup3\n        /* \"#utility.yul\":1955:1960   */\n      dup2\n        /* \"#utility.yul\":1948:1969   */\n      mstore\n        /* \"#utility.yul\":2000:2004   */\n      0x20\n        /* \"#utility.yul\":1993:1998   */\n      dup2\n        /* \"#utility.yul\":1989:2005   */\n      add\n        /* \"#utility.yul\":2038:2041   */\n      dup5\n        /* \"#utility.yul\":2029:2035   */\n      dup5\n        /* \"#utility.yul\":2024:2027   */\n      dup5\n        /* \"#utility.yul\":2020:2036   */\n      add\n        /* \"#utility.yul\":2017:2042   */\n      gt\n        /* \"#utility.yul\":2014:2126   */\n      iszero\n      tag_90\n      jumpi\n        /* \"#utility.yul\":2045:2124   */\n      tag_91\n      tag_36\n      jump\t// in\n    tag_91:\n        /* \"#utility.yul\":2014:2126   */\n    tag_90:\n        /* \"#utility.yul\":2135:2176   */\n      tag_92\n        /* \"#utility.yul\":2169:2175   */\n      dup5\n        /* \"#utility.yul\":2164:2167   */\n      dup3\n        /* \"#utility.yul\":2159:2162   */\n      dup6\n        /* \"#utility.yul\":2135:2176   */\n      tag_42\n      jump\t// in\n    tag_92:\n        /* \"#utility.yul\":1854:2182   */\n      pop\n        /* \"#utility.yul\":1770:2182   */\n      swap4\n      swap3\n      pop\n      pop\n      pop\n      jump\t// out\n        /* \"#utility.yul\":2202:2542   */\n    tag_44:\n        /* \"#utility.yul\":2258:2263   */\n      0x00\n        /* \"#utility.yul\":2307:2310   */\n      dup3\n        /* \"#utility.yul\":2300:2304   */\n      0x1f\n        /* \"#utility.yul\":2292:2298   */\n      dup4\n        /* \"#utility.yul\":2288:2305   */\n      add\n        /* \"#utility.yul\":2284:2311   */\n      slt\n        /* \"#utility.yul\":2274:2396   */\n      tag_94\n      jumpi\n        /* \"#utility.yul\":2315:2394   */\n      tag_95\n      tag_35\n      jump\t// in\n    tag_95:\n        /* \"#utility.yul\":2274:2396   */\n    tag_94:\n        /* \"#utility.yul\":2432:2438   */\n      dup2\n        /* \"#utility.yul\":2419:2439   */\n      calldataload\n        /* \"#utility.yul\":2457:2536   */\n      tag_96\n        /* \"#utility.yul\":2532:2535   */\n      dup5\n        /* \"#utility.yul\":2524:2530   */\n      dup3\n        /* \"#utility.yul\":2517:2521   */\n      0x20\n        /* \"#utility.yul\":2509:2515   */\n      dup7\n        /* \"#utility.yul\":2505:2522   */\n      add\n        /* \"#utility.yul\":2457:2536   */\n      tag_43\n      jump\t// in\n    tag_96:\n        /* \"#utility.yul\":2448:2536   */\n      swap2\n      pop\n        /* \"#utility.yul\":2264:2542   */\n      pop\n        /* \"#utility.yul\":2202:2542   */\n      swap3\n      swap2\n      pop\n      pop\n      jump\t// out\n        /* \"#utility.yul\":2548:3382   */\n    tag_8:\n        /* \"#utility.yul\":2636:2642   */\n      0x00\n        /* \"#utility.yul\":2644:2650   */\n      dup1\n        /* \"#utility.yul\":2693:2695   */\n      0x40\n        /* \"#utility.yul\":2681:2690   */\n      dup4\n        /* \"#utility.yul\":2672:2679   */\n      dup6\n        /* \"#utility.yul\":2668:2691   */\n      sub\n        /* \"#utility.yul\":2664:2696   */\n      slt\n        /* \"#utility.yul\":2661:2780   */\n      iszero\n      tag_98\n      jumpi\n        /* \"#utility.yul\":2699:2778   */\n      tag_99\n      tag_33\n      jump\t// in\n    tag_99:\n        /* \"#utility.yul\":2661:2780   */\n    tag_98:\n        /* \"#utility.yul\":2847:2848   */\n      0x00\n        /* \"#utility.yul\":2836:2845   */\n      dup4\n        /* \"#utility.yul\":2832:2849   */\n      add\n        /* \"#utility.yul\":2819:2850   */\n      calldataload\n        /* \"#utility.yul\":2877:2895   */\n      0xffffffffffffffff\n        /* \"#utility.yul\":2869:2875   */\n      dup2\n        /* \"#utility.yul\":2866:2896   */\n      gt\n        /* \"#utility.yul\":2863:2980   */\n      iszero\n      tag_100\n      jumpi\n        /* \"#utility.yul\":2899:2978   */\n      tag_101\n      tag_34\n      jump\t// in\n    tag_101:\n        /* \"#utility.yul\":2863:2980   */\n    tag_100:\n        /* \"#utility.yul\":3004:3067   */\n      tag_102\n        /* \"#utility.yul\":3059:3066   */\n      dup6\n        /* \"#utility.yul\":3050:3056   */\n      dup3\n        /* \"#utility.yul\":3039:3048   */\n      dup7\n        /* \"#utility.yul\":3035:3057   */\n      add\n        /* \"#utility.yul\":3004:3067   */\n      tag_44\n      jump\t// in\n    tag_102:\n        /* \"#utility.yul\":2994:3067   */\n      swap3\n      pop\n        /* \"#utility.yul\":2790:3077   */\n      pop\n        /* \"#utility.yul\":3144:3146   */\n      0x20\n        /* \"#utility.yul\":3133:3142   */\n      dup4\n        /* \"#utility.yul\":3129:3147   */\n      add\n        /* \"#utility.yul\":3116:3148   */\n      calldataload\n        /* \"#utility.yul\":3175:3193   */\n      0xffffffffffffffff\n        /* \"#utility.yul\":3167:3173   */\n      dup2\n        /* \"#utility.yul\":3164:3194   */\n      gt\n        /* \"#utility.yul\":3161:3278   */\n      iszero\n      tag_103\n      jumpi\n        /* \"#utility.yul\":3197:3276   */\n      tag_104\n      tag_34\n      jump\t// in\n    tag_104:\n        /* \"#utility.yul\":3161:3278   */\n    tag_103:\n        /* \"#utility.yul\":3302:3365   */\n      tag_105\n        /* \"#utility.yul\":3357:3364   */\n      dup6\n        /* \"#utility.yul\":3348:3354   */\n      dup3\n        /* \"#utility.yul\":3337:3346   */\n      dup7\n        /* \"#utility.yul\":3333:3355   */\n      add\n        /* \"#utility.yul\":3302:3365   */\n      tag_44\n      jump\t// in\n    tag_105:\n        /* \"#utility.yul\":3292:3365   */\n      swap2\n      pop\n        /* \"#utility.yul\":3087:3375   */\n      pop\n        /* \"#utility.yul\":2548:3382   */\n      swap3\n      pop\n      swap3\n      swap1\n      pop\n      jump\t// out\n        /* \"#utility.yul\":3388:3516   */\n    tag_45:\n        /* \"#utility.yul\":3469:3475   */\n      0x00\n        /* \"#utility.yul\":3503:3508   */\n      dup2\n        /* \"#utility.yul\":3497:3509   */\n      mload\n        /* \"#utility.yul\":3487:3509   */\n      swap1\n      pop\n        /* \"#utility.yul\":3388:3516   */\n      swap2\n      swap1\n      pop\n      jump\t// out\n        /* \"#utility.yul\":3522:3706   */\n    tag_46:\n        /* \"#utility.yul\":3621:3632   */\n      0x00\n        /* \"#utility.yul\":3655:3661   */\n      dup3\n        /* \"#utility.yul\":3650:3653   */\n      dup3\n        /* \"#utility.yul\":3643:3662   */\n      mstore\n        /* \"#utility.yul\":3695:3699   */\n      0x20\n        /* \"#utility.yul\":3690:3693   */\n      dup3\n        /* \"#utility.yul\":3686:3700   */\n      add\n        /* \"#utility.yul\":3671:3700   */\n      swap1\n      pop\n        /* \"#utility.yul\":3522:3706   */\n      swap3\n      swap2\n      pop\n      pop\n      jump\t// out\n        /* \"#utility.yul\":3712:3858   */\n    tag_47:\n        /* \"#utility.yul\":3793:3797   */\n      0x00\n        /* \"#utility.yul\":3816:3819   */\n      dup2\n        /* \"#utility.yul\":3808:3819   */\n      swap1\n      pop\n        /* \"#utility.yul\":3846:3850   */\n      0x20\n        /* \"#utility.yul\":3841:3844   */\n      dup3\n        /* \"#utility.yul\":3837:3851   */\n      add\n        /* \"#utility.yul\":3829:3851   */\n      swap1\n      pop\n        /* \"#utility.yul\":3712:3858   */\n      swap2\n      swap1\n      pop\n      jump\t// out\n        /* \"#utility.yul\":3864:3990   */\n    tag_48:\n        /* \"#utility.yul\":3901:3908   */\n      0x00\n        /* \"#utility.yul\":3941:3983   */\n      0xffffffffffffffffffffffffffffffffffffffff\n        /* \"#utility.yul\":3934:3939   */\n      dup3\n        /* \"#utility.yul\":3930:3984   */\n      and\n        /* \"#utility.yul\":3919:3984   */\n      swap1\n      pop\n        /* \"#utility.yul\":3864:3990   */\n      swap2\n      swap1\n      pop\n      jump\t// out\n        /* \"#utility.yul\":3996:4056   */\n    tag_49:\n        /* \"#utility.yul\":4024:4027   */\n      0x00\n        /* \"#utility.yul\":4045:4050   */\n      dup2\n        /* \"#utility.yul\":4038:4050   */\n      swap1\n      pop\n        /* \"#utility.yul\":3996:4056   */\n      swap2\n      swap1\n      pop\n      jump\t// out\n        /* \"#utility.yul\":4062:4204   */\n    tag_50:\n        /* \"#utility.yul\":4112:4121   */\n      0x00\n        /* \"#utility.yul\":4145:4198   */\n      tag_112\n        /* \"#utility.yul\":4163:4197   */\n      tag_113\n        /* \"#utility.yul\":4172:4196   */\n      tag_114\n        /* \"#utility.yul\":4190:4195   */\n      dup5\n        /* \"#utility.yul\":4172:4196   */\n      tag_48\n      jump\t// in\n    tag_114:\n        /* \"#utility.yul\":4163:4197   */\n      tag_49\n      jump\t// in\n    tag_113:\n        /* \"#utility.yul\":4145:4198   */\n      tag_48\n      jump\t// in\n    tag_112:\n        /* \"#utility.yul\":4132:4198   */\n      swap1\n      pop\n        /* \"#utility.yul\":4062:4204   */\n      swap2\n      swap1\n      pop\n      jump\t// out\n        /* \"#utility.yul\":4210:4336   */\n    tag_51:\n        /* \"#utility.yul\":4260:4269   */\n      0x00\n        /* \"#utility.yul\":4293:4330   */\n      tag_116\n        /* \"#utility.yul\":4324:4329   */\n      dup3\n        /* \"#utility.yul\":4293:4330   */\n      tag_50\n      jump\t// in\n    tag_116:\n        /* \"#utility.yul\":4280:4330   */\n      swap1\n      pop\n        /* \"#utility.yul\":4210:4336   */\n      swap2\n      swap1\n      pop\n      jump\t// out\n        /* \"#utility.yul\":4342:4482   */\n    tag_52:\n        /* \"#utility.yul\":4406:4415   */\n      0x00\n        /* \"#utility.yul\":4439:4476   */\n      tag_118\n        /* \"#utility.yul\":4470:4475   */\n      dup3\n        /* \"#utility.yul\":4439:4476   */\n      tag_51\n      jump\t// in\n    tag_118:\n        /* \"#utility.yul\":4426:4476   */\n      swap1\n      pop\n        /* \"#utility.yul\":4342:4482   */\n      swap2\n      swap1\n      pop\n      jump\t// out\n        /* \"#utility.yul\":4488:4637   */\n    tag_53:\n        /* \"#utility.yul\":4579:4630   */\n      tag_120\n        /* \"#utility.yul\":4624:4629   */\n      dup2\n        /* \"#utility.yul\":4579:4630   */\n      tag_52\n      jump\t// in\n    tag_120:\n        /* \"#utility.yul\":4574:4577   */\n      dup3\n        /* \"#utility.yul\":4567:4631   */\n      mstore\n        /* \"#utility.yul\":4488:4637   */\n      pop\n      pop\n      jump\t// out\n        /* \"#utility.yul\":4643:4850   */\n    tag_54:\n        /* \"#utility.yul\":4726:4736   */\n      0x00\n        /* \"#utility.yul\":4747:4807   */\n      tag_122\n        /* \"#utility.yul\":4803:4806   */\n      dup4\n        /* \"#utility.yul\":4795:4801   */\n      dup4\n        /* \"#utility.yul\":4747:4807   */\n      tag_53\n      jump\t// in\n    tag_122:\n        /* \"#utility.yul\":4839:4843   */\n      0x20\n        /* \"#utility.yul\":4834:4837   */\n      dup4\n        /* \"#utility.yul\":4830:4844   */\n      add\n        /* \"#utility.yul\":4816:4844   */\n      swap1\n      pop\n        /* \"#utility.yul\":4643:4850   */\n      swap3\n      swap2\n      pop\n      pop\n      jump\t// out\n        /* \"#utility.yul\":4856:4983   */\n    tag_55:\n        /* \"#utility.yul\":4940:4944   */\n      0x00\n        /* \"#utility.yul\":4972:4976   */\n      0x20\n        /* \"#utility.yul\":4967:4970   */\n      dup3\n        /* \"#utility.yul\":4963:4977   */\n      add\n        /* \"#utility.yul\":4955:4977   */\n      swap1\n      pop\n        /* \"#utility.yul\":4856:4983   */\n      swap2\n      swap1\n      pop\n      jump\t// out\n        /* \"#utility.yul\":5027:5829   */\n    tag_56:\n        /* \"#utility.yul\":5160:5163   */\n      0x00\n        /* \"#utility.yul\":5189:5257   */\n      tag_125\n        /* \"#utility.yul\":5251:5256   */\n      dup3\n        /* \"#utility.yul\":5189:5257   */\n      tag_45\n      jump\t// in\n    tag_125:\n        /* \"#utility.yul\":5273:5359   */\n      tag_126\n        /* \"#utility.yul\":5352:5358   */\n      dup2\n        /* \"#utility.yul\":5347:5350   */\n      dup6\n        /* \"#utility.yul\":5273:5359   */\n      tag_46\n      jump\t// in\n    tag_126:\n        /* \"#utility.yul\":5266:5359   */\n      swap4\n      pop\n        /* \"#utility.yul\":5383:5453   */\n      tag_127\n        /* \"#utility.yul\":5447:5452   */\n      dup4\n        /* \"#utility.yul\":5383:5453   */\n      tag_47\n      jump\t// in\n    tag_127:\n        /* \"#utility.yul\":5476:5483   */\n      dup1\n        /* \"#utility.yul\":5507:5508   */\n      0x00\n        /* \"#utility.yul\":5492:5804   */\n    tag_128:\n        /* \"#utility.yul\":5517:5523   */\n      dup4\n        /* \"#utility.yul\":5514:5515   */\n      dup2\n        /* \"#utility.yul\":5511:5524   */\n      lt\n        /* \"#utility.yul\":5492:5804   */\n      iszero\n      tag_130\n      jumpi\n        /* \"#utility.yul\":5593:5599   */\n      dup2\n        /* \"#utility.yul\":5587:5600   */\n      mload\n        /* \"#utility.yul\":5620:5697   */\n      tag_131\n        /* \"#utility.yul\":5693:5696   */\n      dup9\n        /* \"#utility.yul\":5678:5691   */\n      dup3\n        /* \"#utility.yul\":5620:5697   */\n      tag_54\n      jump\t// in\n    tag_131:\n        /* \"#utility.yul\":5613:5697   */\n      swap8\n      pop\n        /* \"#utility.yul\":5720:5794   */\n      tag_132\n        /* \"#utility.yul\":5787:5793   */\n      dup4\n        /* \"#utility.yul\":5720:5794   */\n      tag_55\n      jump\t// in\n    tag_132:\n        /* \"#utility.yul\":5710:5794   */\n      swap3\n      pop\n        /* \"#utility.yul\":5552:5804   */\n      pop\n        /* \"#utility.yul\":5539:5540   */\n      0x01\n        /* \"#utility.yul\":5536:5537   */\n      dup2\n        /* \"#utility.yul\":5532:5541   */\n      add\n        /* \"#utility.yul\":5527:5541   */\n      swap1\n      pop\n        /* \"#utility.yul\":5492:5804   */\n      jump(tag_128)\n    tag_130:\n        /* \"#utility.yul\":5496:5510   */\n      pop\n        /* \"#utility.yul\":5820:5823   */\n      dup6\n        /* \"#utility.yul\":5813:5823   */\n      swap4\n      pop\n        /* \"#utility.yul\":5165:5829   */\n      pop\n      pop\n      pop\n        /* \"#utility.yul\":5027:5829   */\n      swap3\n      swap2\n      pop\n      pop\n      jump\t// out\n        /* \"#utility.yul\":5835:6236   */\n    tag_13:\n        /* \"#utility.yul\":5992:5996   */\n      0x00\n        /* \"#utility.yul\":6030:6032   */\n      0x20\n        /* \"#utility.yul\":6019:6028   */\n      dup3\n        /* \"#utility.yul\":6015:6033   */\n      add\n        /* \"#utility.yul\":6007:6033   */\n      swap1\n      pop\n        /* \"#utility.yul\":6079:6088   */\n      dup2\n        /* \"#utility.yul\":6073:6077   */\n      dup2\n        /* \"#utility.yul\":6069:6089   */\n      sub\n        /* \"#utility.yul\":6065:6066   */\n      0x00\n        /* \"#utility.yul\":6054:6063   */\n      dup4\n        /* \"#utility.yul\":6050:6067   */\n      add\n        /* \"#utility.yul\":6043:6090   */\n      mstore\n        /* \"#utility.yul\":6107:6229   */\n      tag_134\n        /* \"#utility.yul\":6224:6228   */\n      dup2\n        /* \"#utility.yul\":6215:6221   */\n      dup5\n        /* \"#utility.yul\":6107:6229   */\n      tag_56\n      jump\t// in\n    tag_134:\n        /* \"#utility.yul\":6099:6229   */\n      swap1\n      pop\n        /* \"#utility.yul\":5835:6236   */\n      swap3\n      swap2\n      pop\n      pop\n      jump\t// out\n        /* \"#utility.yul\":6242:6319   */\n    tag_57:\n        /* \"#utility.yul\":6279:6286   */\n      0x00\n        /* \"#utility.yul\":6308:6313   */\n      dup2\n        /* \"#utility.yul\":6297:6313   */\n      swap1\n      pop\n        /* \"#utility.yul\":6242:6319   */\n      swap2\n      swap1\n      pop\n      jump\t// out\n        /* \"#utility.yul\":6325:6447   */\n    tag_58:\n        /* \"#utility.yul\":6398:6422   */\n      tag_137\n        /* \"#utility.yul\":6416:6421   */\n      dup2\n        /* \"#utility.yul\":6398:6422   */\n      tag_57\n      jump\t// in\n    tag_137:\n        /* \"#utility.yul\":6391:6396   */\n      dup2\n        /* \"#utility.yul\":6388:6423   */\n      eq\n        /* \"#utility.yul\":6378:6441   */\n      tag_138\n      jumpi\n        /* \"#utility.yul\":6437:6438   */\n      0x00\n        /* \"#utility.yul\":6434:6435   */\n      dup1\n        /* \"#utility.yul\":6427:6439   */\n      revert\n        /* \"#utility.yul\":6378:6441   */\n    tag_138:\n        /* \"#utility.yul\":6325:6447   */\n      pop\n      jump\t// out\n        /* \"#utility.yul\":6453:6592   */\n    tag_59:\n        /* \"#utility.yul\":6499:6504   */\n      0x00\n        /* \"#utility.yul\":6537:6543   */\n      dup2\n        /* \"#utility.yul\":6524:6544   */\n      calldataload\n        /* \"#utility.yul\":6515:6544   */\n      swap1\n      pop\n        /* \"#utility.yul\":6553:6586   */\n      tag_140\n        /* \"#utility.yul\":6580:6585   */\n      dup2\n        /* \"#utility.yul\":6553:6586   */\n      tag_58\n      jump\t// in\n    tag_140:\n        /* \"#utility.yul\":6453:6592   */\n      swap3\n      swap2\n      pop\n      pop\n      jump\t// out\n        /* \"#utility.yul\":6598:6927   */\n    tag_16:\n        /* \"#utility.yul\":6657:6663   */\n      0x00\n        /* \"#utility.yul\":6706:6708   */\n      0x20\n        /* \"#utility.yul\":6694:6703   */\n      dup3\n        /* \"#utility.yul\":6685:6692   */\n      dup5\n        /* \"#utility.yul\":6681:6704   */\n      sub\n        /* \"#utility.yul\":6677:6709   */\n      slt\n        /* \"#utility.yul\":6674:6793   */\n      iszero\n      tag_142\n      jumpi\n        /* \"#utility.yul\":6712:6791   */\n      tag_143\n      tag_33\n      jump\t// in\n    tag_143:\n        /* \"#utility.yul\":6674:6793   */\n    tag_142:\n        /* \"#utility.yul\":6832:6833   */\n      0x00\n        /* \"#utility.yul\":6857:6910   */\n      tag_144\n        /* \"#utility.yul\":6902:6909   */\n      dup5\n        /* \"#utility.yul\":6893:6899   */\n      dup3\n        /* \"#utility.yul\":6882:6891   */\n      dup6\n        /* \"#utility.yul\":6878:6900   */\n      add\n        /* \"#utility.yul\":6857:6910   */\n      tag_59\n      jump\t// in\n    tag_144:\n        /* \"#utility.yul\":6847:6910   */\n      swap2\n      pop\n        /* \"#utility.yul\":6803:6920   */\n      pop\n        /* \"#utility.yul\":6598:6927   */\n      swap3\n      swap2\n      pop\n      pop\n      jump\t// out\n        /* \"#utility.yul\":6933:7092   */\n    tag_60:\n        /* \"#utility.yul\":7034:7085   */\n      tag_146\n        /* \"#utility.yul\":7079:7084   */\n      dup2\n        /* \"#utility.yul\":7034:7085   */\n      tag_52\n      jump\t// in\n    tag_146:\n        /* \"#utility.yul\":7029:7032   */\n      dup3\n        /* \"#utility.yul\":7022:7086   */\n      mstore\n        /* \"#utility.yul\":6933:7092   */\n      pop\n      pop\n      jump\t// out\n        /* \"#utility.yul\":7098:7348   */\n    tag_19:\n        /* \"#utility.yul\":7205:7209   */\n      0x00\n        /* \"#utility.yul\":7243:7245   */\n      0x20\n        /* \"#utility.yul\":7232:7241   */\n      dup3\n        /* \"#utility.yul\":7228:7246   */\n      add\n        /* \"#utility.yul\":7220:7246   */\n      swap1\n      pop\n        /* \"#utility.yul\":7256:7341   */\n      tag_148\n        /* \"#utility.yul\":7338:7339   */\n      0x00\n        /* \"#utility.yul\":7327:7336   */\n      dup4\n        /* \"#utility.yul\":7323:7340   */\n      add\n        /* \"#utility.yul\":7314:7320   */\n      dup5\n        /* \"#utility.yul\":7256:7341   */\n      tag_60\n      jump\t// in\n    tag_148:\n        /* \"#utility.yul\":7098:7348   */\n      swap3\n      swap2\n      pop\n      pop\n      jump\t// out\n        /* \"#utility.yul\":7354:7453   */\n    tag_61:\n        /* \"#utility.yul\":7406:7412   */\n      0x00\n        /* \"#utility.yul\":7440:7445   */\n      dup2\n        /* \"#utility.yul\":7434:7446   */\n      mload\n        /* \"#utility.yul\":7424:7446   */\n      swap1\n      pop\n        /* \"#utility.yul\":7354:7453   */\n      swap2\n      swap1\n      pop\n      jump\t// out\n        /* \"#utility.yul\":7459:7628   */\n    tag_62:\n        /* \"#utility.yul\":7543:7554   */\n      0x00\n        /* \"#utility.yul\":7577:7583   */\n      dup3\n        /* \"#utility.yul\":7572:7575   */\n      dup3\n        /* \"#utility.yul\":7565:7584   */\n      mstore\n        /* \"#utility.yul\":7617:7621   */\n      0x20\n        /* \"#utility.yul\":7612:7615   */\n      dup3\n        /* \"#utility.yul\":7608:7622   */\n      add\n        /* \"#utility.yul\":7593:7622   */\n      swap1\n      pop\n        /* \"#utility.yul\":7459:7628   */\n      swap3\n      swap2\n      pop\n      pop\n      jump\t// out\n        /* \"#utility.yul\":7634:7941   */\n    tag_63:\n        /* \"#utility.yul\":7702:7703   */\n      0x00\n        /* \"#utility.yul\":7712:7825   */\n    tag_152:\n        /* \"#utility.yul\":7726:7732   */\n      dup4\n        /* \"#utility.yul\":7723:7724   */\n      dup2\n        /* \"#utility.yul\":7720:7733   */\n      lt\n        /* \"#utility.yul\":7712:7825   */\n      iszero\n      tag_154\n      jumpi\n        /* \"#utility.yul\":7811:7812   */\n      dup1\n        /* \"#utility.yul\":7806:7809   */\n      dup3\n        /* \"#utility.yul\":7802:7813   */\n      add\n        /* \"#utility.yul\":7796:7814   */\n      mload\n        /* \"#utility.yul\":7792:7793   */\n      dup2\n        /* \"#utility.yul\":7787:7790   */\n      dup5\n        /* \"#utility.yul\":7783:7794   */\n      add\n        /* \"#utility.yul\":7776:7815   */\n      mstore\n        /* \"#utility.yul\":7748:7750   */\n      0x20\n        /* \"#utility.yul\":7745:7746   */\n      dup2\n        /* \"#utility.yul\":7741:7751   */\n      add\n        /* \"#utility.yul\":7736:7751   */\n      swap1\n      pop\n        /* \"#utility.yul\":7712:7825   */\n      jump(tag_152)\n    tag_154:\n        /* \"#utility.yul\":7843:7849   */\n      dup4\n        /* \"#utility.yul\":7840:7841   */\n      dup2\n        /* \"#utility.yul\":7837:7850   */\n      gt\n        /* \"#utility.yul\":7834:7935   */\n      iszero\n      tag_155\n      jumpi\n        /* \"#utility.yul\":7923:7924   */\n      0x00\n        /* \"#utility.yul\":7914:7920   */\n      dup5\n        /* \"#utility.yul\":7909:7912   */\n      dup5\n        /* \"#utility.yul\":7905:7921   */\n      add\n        /* \"#utility.yul\":7898:7925   */\n      mstore\n        /* \"#utility.yul\":7834:7935   */\n    tag_155:\n        /* \"#utility.yul\":7683:7941   */\n      pop\n        /* \"#utility.yul\":7634:7941   */\n      pop\n      pop\n      pop\n      jump\t// out\n        /* \"#utility.yul\":7947:8311   */\n    tag_64:\n        /* \"#utility.yul\":8035:8038   */\n      0x00\n        /* \"#utility.yul\":8063:8102   */\n      tag_157\n        /* \"#utility.yul\":8096:8101   */\n      dup3\n        /* \"#utility.yul\":8063:8102   */\n      tag_61\n      jump\t// in\n    tag_157:\n        /* \"#utility.yul\":8118:8189   */\n      tag_158\n        /* \"#utility.yul\":8182:8188   */\n      dup2\n        /* \"#utility.yul\":8177:8180   */\n      dup6\n        /* \"#utility.yul\":8118:8189   */\n      tag_62\n      jump\t// in\n    tag_158:\n        /* \"#utility.yul\":8111:8189   */\n      swap4\n      pop\n        /* \"#utility.yul\":8198:8250   */\n      tag_159\n        /* \"#utility.yul\":8243:8249   */\n      dup2\n        /* \"#utility.yul\":8238:8241   */\n      dup6\n        /* \"#utility.yul\":8231:8235   */\n      0x20\n        /* \"#utility.yul\":8224:8229   */\n      dup7\n        /* \"#utility.yul\":8220:8236   */\n      add\n        /* \"#utility.yul\":8198:8250   */\n      tag_63\n      jump\t// in\n    tag_159:\n        /* \"#utility.yul\":8275:8304   */\n      tag_160\n        /* \"#utility.yul\":8297:8303   */\n      dup2\n        /* \"#utility.yul\":8275:8304   */\n      tag_37\n      jump\t// in\n    tag_160:\n        /* \"#utility.yul\":8270:8273   */\n      dup5\n        /* \"#utility.yul\":8266:8305   */\n      add\n        /* \"#utility.yul\":8259:8305   */\n      swap2\n      pop\n        /* \"#utility.yul\":8039:8311   */\n      pop\n        /* \"#utility.yul\":7947:8311   */\n      swap3\n      swap2\n      pop\n      pop\n      jump\t// out\n        /* \"#utility.yul\":8317:8413   */\n    tag_65:\n        /* \"#utility.yul\":8354:8361   */\n      0x00\n        /* \"#utility.yul\":8383:8407   */\n      tag_162\n        /* \"#utility.yul\":8401:8406   */\n      dup3\n        /* \"#utility.yul\":8383:8407   */\n      tag_48\n      jump\t// in\n    tag_162:\n        /* \"#utility.yul\":8372:8407   */\n      swap1\n      pop\n        /* \"#utility.yul\":8317:8413   */\n      swap2\n      swap1\n      pop\n      jump\t// out\n        /* \"#utility.yul\":8419:8537   */\n    tag_66:\n        /* \"#utility.yul\":8506:8530   */\n      tag_164\n        /* \"#utility.yul\":8524:8529   */\n      dup2\n        /* \"#utility.yul\":8506:8530   */\n      tag_65\n      jump\t// in\n    tag_164:\n        /* \"#utility.yul\":8501:8504   */\n      dup3\n        /* \"#utility.yul\":8494:8531   */\n      mstore\n        /* \"#utility.yul\":8419:8537   */\n      pop\n      pop\n      jump\t// out\n        /* \"#utility.yul\":8543:9167   */\n    tag_24:\n        /* \"#utility.yul\":8732:8736   */\n      0x00\n        /* \"#utility.yul\":8770:8772   */\n      0x60\n        /* \"#utility.yul\":8759:8768   */\n      dup3\n        /* \"#utility.yul\":8755:8773   */\n      add\n        /* \"#utility.yul\":8747:8773   */\n      swap1\n      pop\n        /* \"#utility.yul\":8819:8828   */\n      dup2\n        /* \"#utility.yul\":8813:8817   */\n      dup2\n        /* \"#utility.yul\":8809:8829   */\n      sub\n        /* \"#utility.yul\":8805:8806   */\n      0x00\n        /* \"#utility.yul\":8794:8803   */\n      dup4\n        /* \"#utility.yul\":8790:8807   */\n      add\n        /* \"#utility.yul\":8783:8830   */\n      mstore\n        /* \"#utility.yul\":8847:8925   */\n      tag_166\n        /* \"#utility.yul\":8920:8924   */\n      dup2\n        /* \"#utility.yul\":8911:8917   */\n      dup7\n        /* \"#utility.yul\":8847:8925   */\n      tag_64\n      jump\t// in\n    tag_166:\n        /* \"#utility.yul\":8839:8925   */\n      swap1\n      pop\n        /* \"#utility.yul\":8935:9007   */\n      tag_167\n        /* \"#utility.yul\":9003:9005   */\n      0x20\n        /* \"#utility.yul\":8992:9001   */\n      dup4\n        /* \"#utility.yul\":8988:9006   */\n      add\n        /* \"#utility.yul\":8979:8985   */\n      dup6\n        /* \"#utility.yul\":8935:9007   */\n      tag_66\n      jump\t// in\n    tag_167:\n        /* \"#utility.yul\":9054:9063   */\n      dup2\n        /* \"#utility.yul\":9048:9052   */\n      dup2\n        /* \"#utility.yul\":9044:9064   */\n      sub\n        /* \"#utility.yul\":9039:9041   */\n      0x40\n        /* \"#utility.yul\":9028:9037   */\n      dup4\n        /* \"#utility.yul\":9024:9042   */\n      add\n        /* \"#utility.yul\":9017:9065   */\n      mstore\n        /* \"#utility.yul\":9082:9160   */\n      tag_168\n        /* \"#utility.yul\":9155:9159   */\n      dup2\n        /* \"#utility.yul\":9146:9152   */\n      dup5\n        /* \"#utility.yul\":9082:9160   */\n      tag_64\n      jump\t// in\n    tag_168:\n        /* \"#utility.yul\":9074:9160   */\n      swap1\n      pop\n        /* \"#utility.yul\":8543:9167   */\n      swap5\n      swap4\n      pop\n      pop\n      pop\n      pop\n      jump\t// out\n    stop\n\n    sub_0: assembly {\n            /* \"Ballot.sol\":630:3231  contract Ballot{... */\n          mstore(0x40, 0x80)\n            /* \"Ballot.sol\":1238:1243  false */\n          0x00\n            /* \"Ballot.sol\":1217:1243  bool votingStarted = false */\n          0x08\n          exp(0x0100, 0x00)\n          dup2\n          sload\n          dup2\n          0xff\n          mul\n          not\n          and\n          swap1\n          dup4\n          iszero\n          iszero\n          mul\n          or\n          swap1\n          sstore\n          pop\n            /* \"Ballot.sol\":1303:1308  false */\n          0x00\n            /* \"Ballot.sol\":1281:1308  bool votingFinished = false */\n          0x08\n          exp(0x0100, 0x01)\n          dup2\n          sload\n          dup2\n          0xff\n          mul\n          not\n          and\n          swap1\n          dup4\n          iszero\n          iszero\n          mul\n          or\n          swap1\n          sstore\n          pop\n            /* \"Ballot.sol\":1396:1594  constructor(string memory name ,address creator, string memory image){... */\n          callvalue\n          dup1\n          iszero\n          tag_1\n          jumpi\n          0x00\n          dup1\n          revert\n        tag_1:\n          pop\n          mload(0x40)\n          sub(codesize, bytecodeSize)\n          dup1\n          bytecodeSize\n          dup4\n          codecopy\n          dup2\n          dup2\n          add\n          0x40\n          mstore\n          dup2\n          add\n          swap1\n          tag_2\n          swap2\n          swap1\n          tag_3\n          jump\t// in\n        tag_2:\n            /* \"Ballot.sol\":1491:1495  name */\n          dup3\n            /* \"Ballot.sol\":1476:1483  manager */\n          0x00\n            /* \"Ballot.sol\":1476:1488  manager.name */\n          dup1\n          add\n            /* \"Ballot.sol\":1476:1495  manager.name = name */\n          swap1\n          dup1\n          mload\n          swap1\n          0x20\n          add\n          swap1\n          tag_6\n          swap3\n          swap2\n          swap1\n          tag_7\n          jump\t// in\n        tag_6:\n          pop\n            /* \"Ballot.sol\":1519:1526  creator */\n          dup2\n            /* \"Ballot.sol\":1506:1513  manager */\n          0x00\n            /* \"Ballot.sol\":1506:1516  manager.id */\n          0x01\n          add\n          0x00\n            /* \"Ballot.sol\":1506:1526  manager.id = creator */\n          0x0100\n          exp\n          dup2\n          sload\n          dup2\n          0xffffffffffffffffffffffffffffffffffffffff\n          mul\n          not\n          and\n          swap1\n          dup4\n          0xffffffffffffffffffffffffffffffffffffffff\n          and\n          mul\n          or\n          swap1\n          sstore\n          pop\n            /* \"Ballot.sol\":1553:1558  image */\n          dup1\n            /* \"Ballot.sol\":1537:1544  manager */\n          0x00\n            /* \"Ballot.sol\":1537:1550  manager.image */\n          0x02\n          add\n            /* \"Ballot.sol\":1537:1558  manager.image = image */\n          swap1\n          dup1\n          mload\n          swap1\n          0x20\n          add\n          swap1\n          tag_8\n          swap3\n          swap2\n          swap1\n          tag_7\n          jump\t// in\n        tag_8:\n          pop\n            /* \"Ballot.sol\":1585:1586  0 */\n          0x00\n            /* \"Ballot.sol\":1569:1576  manager */\n          dup1\n            /* \"Ballot.sol\":1569:1582  manager.votes */\n          0x03\n          add\n            /* \"Ballot.sol\":1569:1586  manager.votes = 0 */\n          dup2\n          swap1\n          sstore\n          pop\n            /* \"Ballot.sol\":1396:1594  constructor(string memory name ,address creator, string memory image){... */\n          pop\n          pop\n          pop\n            /* \"Ballot.sol\":630:3231  contract Ballot{... */\n          jump(tag_9)\n        tag_7:\n          dup3\n          dup1\n          sload\n          tag_10\n          swap1\n          tag_11\n          jump\t// in\n        tag_10:\n          swap1\n          0x00\n          mstore\n          keccak256(0x00, 0x20)\n          swap1\n          0x1f\n          add\n          0x20\n          swap1\n          div\n          dup2\n          add\n          swap3\n          dup3\n          tag_13\n          jumpi\n          0x00\n          dup6\n          sstore\n          jump(tag_12)\n        tag_13:\n          dup3\n          0x1f\n          lt\n          tag_14\n          jumpi\n          dup1\n          mload\n          not(0xff)\n          and\n          dup4\n          dup1\n          add\n          or\n          dup6\n          sstore\n          jump(tag_12)\n        tag_14:\n          dup3\n          dup1\n          add\n          0x01\n          add\n          dup6\n          sstore\n          dup3\n          iszero\n          tag_12\n          jumpi\n          swap2\n          dup3\n          add\n        tag_15:\n          dup3\n          dup2\n          gt\n          iszero\n          tag_16\n          jumpi\n          dup3\n          mload\n          dup3\n          sstore\n          swap2\n          0x20\n          add\n          swap2\n          swap1\n          0x01\n          add\n          swap1\n          jump(tag_15)\n        tag_16:\n        tag_12:\n          pop\n          swap1\n          pop\n          tag_17\n          swap2\n          swap1\n          tag_18\n          jump\t// in\n        tag_17:\n          pop\n          swap1\n          jump\t// out\n        tag_18:\n        tag_19:\n          dup1\n          dup3\n          gt\n          iszero\n          tag_20\n          jumpi\n          0x00\n          dup2\n          0x00\n          swap1\n          sstore\n          pop\n          0x01\n          add\n          jump(tag_19)\n        tag_20:\n          pop\n          swap1\n          jump\t// out\n            /* \"#utility.yul\":7:82   */\n        tag_21:\n            /* \"#utility.yul\":40:46   */\n          0x00\n            /* \"#utility.yul\":73:75   */\n          0x40\n            /* \"#utility.yul\":67:76   */\n          mload\n            /* \"#utility.yul\":57:76   */\n          swap1\n          pop\n            /* \"#utility.yul\":7:82   */\n          swap1\n          jump\t// out\n            /* \"#utility.yul\":88:205   */\n        tag_22:\n            /* \"#utility.yul\":197:198   */\n          0x00\n            /* \"#utility.yul\":194:195   */\n          dup1\n            /* \"#utility.yul\":187:199   */\n          revert\n            /* \"#utility.yul\":211:328   */\n        tag_23:\n            /* \"#utility.yul\":320:321   */\n          0x00\n            /* \"#utility.yul\":317:318   */\n          dup1\n            /* \"#utility.yul\":310:322   */\n          revert\n            /* \"#utility.yul\":334:451   */\n        tag_24:\n            /* \"#utility.yul\":443:444   */\n          0x00\n            /* \"#utility.yul\":440:441   */\n          dup1\n            /* \"#utility.yul\":433:445   */\n          revert\n            /* \"#utility.yul\":457:574   */\n        tag_25:\n            /* \"#utility.yul\":566:567   */\n          0x00\n            /* \"#utility.yul\":563:564   */\n          dup1\n            /* \"#utility.yul\":556:568   */\n          revert\n            /* \"#utility.yul\":580:682   */\n        tag_26:\n            /* \"#utility.yul\":621:627   */\n          0x00\n            /* \"#utility.yul\":672:674   */\n          0x1f\n            /* \"#utility.yul\":668:675   */\n          not\n            /* \"#utility.yul\":663:665   */\n          0x1f\n            /* \"#utility.yul\":656:661   */\n          dup4\n            /* \"#utility.yul\":652:666   */\n          add\n            /* \"#utility.yul\":648:676   */\n          and\n            /* \"#utility.yul\":638:676   */\n          swap1\n          pop\n            /* \"#utility.yul\":580:682   */\n          swap2\n          swap1\n          pop\n          jump\t// out\n            /* \"#utility.yul\":688:868   */\n        tag_27:\n            /* \"#utility.yul\":736:813   */\n          0x4e487b7100000000000000000000000000000000000000000000000000000000\n            /* \"#utility.yul\":733:734   */\n          0x00\n            /* \"#utility.yul\":726:814   */\n          mstore\n            /* \"#utility.yul\":833:837   */\n          0x41\n            /* \"#utility.yul\":830:831   */\n          0x04\n            /* \"#utility.yul\":823:838   */\n          mstore\n            /* \"#utility.yul\":857:861   */\n          0x24\n            /* \"#utility.yul\":854:855   */\n          0x00\n            /* \"#utility.yul\":847:862   */\n          revert\n            /* \"#utility.yul\":874:1155   */\n        tag_28:\n            /* \"#utility.yul\":957:984   */\n          tag_48\n            /* \"#utility.yul\":979:983   */\n          dup3\n            /* \"#utility.yul\":957:984   */\n          tag_26\n          jump\t// in\n        tag_48:\n            /* \"#utility.yul\":949:955   */\n          dup2\n            /* \"#utility.yul\":945:985   */\n          add\n            /* \"#utility.yul\":1087:1093   */\n          dup2\n            /* \"#utility.yul\":1075:1085   */\n          dup2\n            /* \"#utility.yul\":1072:1094   */\n          lt\n            /* \"#utility.yul\":1051:1069   */\n          0xffffffffffffffff\n            /* \"#utility.yul\":1039:1049   */\n          dup3\n            /* \"#utility.yul\":1036:1070   */\n          gt\n            /* \"#utility.yul\":1033:1095   */\n          or\n            /* \"#utility.yul\":1030:1118   */\n          iszero\n          tag_49\n          jumpi\n            /* \"#utility.yul\":1098:1116   */\n          tag_50\n          tag_27\n          jump\t// in\n        tag_50:\n            /* \"#utility.yul\":1030:1118   */\n        tag_49:\n            /* \"#utility.yul\":1138:1148   */\n          dup1\n            /* \"#utility.yul\":1134:1136   */\n          0x40\n            /* \"#utility.yul\":1127:1149   */\n          mstore\n            /* \"#utility.yul\":917:1155   */\n          pop\n            /* \"#utility.yul\":874:1155   */\n          pop\n          pop\n          jump\t// out\n            /* \"#utility.yul\":1161:1290   */\n        tag_29:\n            /* \"#utility.yul\":1195:1201   */\n          0x00\n            /* \"#utility.yul\":1222:1242   */\n          tag_52\n          tag_21\n          jump\t// in\n        tag_52:\n            /* \"#utility.yul\":1212:1242   */\n          swap1\n          pop\n            /* \"#utility.yul\":1251:1284   */\n          tag_53\n            /* \"#utility.yul\":1279:1283   */\n          dup3\n            /* \"#utility.yul\":1271:1277   */\n          dup3\n            /* \"#utility.yul\":1251:1284   */\n          tag_28\n          jump\t// in\n        tag_53:\n            /* \"#utility.yul\":1161:1290   */\n          swap2\n          swap1\n          pop\n          jump\t// out\n            /* \"#utility.yul\":1296:1604   */\n        tag_30:\n            /* \"#utility.yul\":1358:1362   */\n          0x00\n            /* \"#utility.yul\":1448:1466   */\n          0xffffffffffffffff\n            /* \"#utility.yul\":1440:1446   */\n          dup3\n            /* \"#utility.yul\":1437:1467   */\n          gt\n            /* \"#utility.yul\":1434:1490   */\n          iszero\n          tag_55\n          jumpi\n            /* \"#utility.yul\":1470:1488   */\n          tag_56\n          tag_27\n          jump\t// in\n        tag_56:\n            /* \"#utility.yul\":1434:1490   */\n        tag_55:\n            /* \"#utility.yul\":1508:1537   */\n          tag_57\n            /* \"#utility.yul\":1530:1536   */\n          dup3\n            /* \"#utility.yul\":1508:1537   */\n          tag_26\n          jump\t// in\n        tag_57:\n            /* \"#utility.yul\":1500:1537   */\n          swap1\n          pop\n            /* \"#utility.yul\":1592:1596   */\n          0x20\n            /* \"#utility.yul\":1586:1590   */\n          dup2\n            /* \"#utility.yul\":1582:1597   */\n          add\n            /* \"#utility.yul\":1574:1597   */\n          swap1\n          pop\n            /* \"#utility.yul\":1296:1604   */\n          swap2\n          swap1\n          pop\n          jump\t// out\n            /* \"#utility.yul\":1610:1917   */\n        tag_31:\n            /* \"#utility.yul\":1678:1679   */\n          0x00\n            /* \"#utility.yul\":1688:1801   */\n        tag_59:\n            /* \"#utility.yul\":1702:1708   */\n          dup4\n            /* \"#utility.yul\":1699:1700   */\n          dup2\n            /* \"#utility.yul\":1696:1709   */\n          lt\n            /* \"#utility.yul\":1688:1801   */\n          iszero\n          tag_61\n          jumpi\n            /* \"#utility.yul\":1787:1788   */\n          dup1\n            /* \"#utility.yul\":1782:1785   */\n          dup3\n            /* \"#utility.yul\":1778:1789   */\n          add\n            /* \"#utility.yul\":1772:1790   */\n          mload\n            /* \"#utility.yul\":1768:1769   */\n          dup2\n            /* \"#utility.yul\":1763:1766   */\n          dup5\n            /* \"#utility.yul\":1759:1770   */\n          add\n            /* \"#utility.yul\":1752:1791   */\n          mstore\n            /* \"#utility.yul\":1724:1726   */\n          0x20\n            /* \"#utility.yul\":1721:1722   */\n          dup2\n            /* \"#utility.yul\":1717:1727   */\n          add\n            /* \"#utility.yul\":1712:1727   */\n          swap1\n          pop\n            /* \"#utility.yul\":1688:1801   */\n          jump(tag_59)\n        tag_61:\n            /* \"#utility.yul\":1819:1825   */\n          dup4\n            /* \"#utility.yul\":1816:1817   */\n          dup2\n            /* \"#utility.yul\":1813:1826   */\n          gt\n            /* \"#utility.yul\":1810:1911   */\n          iszero\n          tag_62\n          jumpi\n            /* \"#utility.yul\":1899:1900   */\n          0x00\n            /* \"#utility.yul\":1890:1896   */\n          dup5\n            /* \"#utility.yul\":1885:1888   */\n          dup5\n            /* \"#utility.yul\":1881:1897   */\n          add\n            /* \"#utility.yul\":1874:1901   */\n          mstore\n            /* \"#utility.yul\":1810:1911   */\n        tag_62:\n            /* \"#utility.yul\":1659:1917   */\n          pop\n            /* \"#utility.yul\":1610:1917   */\n          pop\n          pop\n          pop\n          jump\t// out\n            /* \"#utility.yul\":1923:2344   */\n        tag_32:\n            /* \"#utility.yul\":2012:2017   */\n          0x00\n            /* \"#utility.yul\":2037:2103   */\n          tag_64\n            /* \"#utility.yul\":2053:2102   */\n          tag_65\n            /* \"#utility.yul\":2095:2101   */\n          dup5\n            /* \"#utility.yul\":2053:2102   */\n          tag_30\n          jump\t// in\n        tag_65:\n            /* \"#utility.yul\":2037:2103   */\n          tag_29\n          jump\t// in\n        tag_64:\n            /* \"#utility.yul\":2028:2103   */\n          swap1\n          pop\n            /* \"#utility.yul\":2126:2132   */\n          dup3\n            /* \"#utility.yul\":2119:2124   */\n          dup2\n            /* \"#utility.yul\":2112:2133   */\n          mstore\n            /* \"#utility.yul\":2164:2168   */\n          0x20\n            /* \"#utility.yul\":2157:2162   */\n          dup2\n            /* \"#utility.yul\":2153:2169   */\n          add\n            /* \"#utility.yul\":2202:2205   */\n          dup5\n            /* \"#utility.yul\":2193:2199   */\n          dup5\n            /* \"#utility.yul\":2188:2191   */\n          dup5\n            /* \"#utility.yul\":2184:2200   */\n          add\n            /* \"#utility.yul\":2181:2206   */\n          gt\n            /* \"#utility.yul\":2178:2290   */\n          iszero\n          tag_66\n          jumpi\n            /* \"#utility.yul\":2209:2288   */\n          tag_67\n          tag_25\n          jump\t// in\n        tag_67:\n            /* \"#utility.yul\":2178:2290   */\n        tag_66:\n            /* \"#utility.yul\":2299:2338   */\n          tag_68\n            /* \"#utility.yul\":2331:2337   */\n          dup5\n            /* \"#utility.yul\":2326:2329   */\n          dup3\n            /* \"#utility.yul\":2321:2324   */\n          dup6\n            /* \"#utility.yul\":2299:2338   */\n          tag_31\n          jump\t// in\n        tag_68:\n            /* \"#utility.yul\":2018:2344   */\n          pop\n            /* \"#utility.yul\":1923:2344   */\n          swap4\n          swap3\n          pop\n          pop\n          pop\n          jump\t// out\n            /* \"#utility.yul\":2364:2719   */\n        tag_33:\n            /* \"#utility.yul\":2431:2436   */\n          0x00\n            /* \"#utility.yul\":2480:2483   */\n          dup3\n            /* \"#utility.yul\":2473:2477   */\n          0x1f\n            /* \"#utility.yul\":2465:2471   */\n          dup4\n            /* \"#utility.yul\":2461:2478   */\n          add\n            /* \"#utility.yul\":2457:2484   */\n          slt\n            /* \"#utility.yul\":2447:2569   */\n          tag_70\n          jumpi\n            /* \"#utility.yul\":2488:2567   */\n          tag_71\n          tag_24\n          jump\t// in\n        tag_71:\n            /* \"#utility.yul\":2447:2569   */\n        tag_70:\n            /* \"#utility.yul\":2598:2604   */\n          dup2\n            /* \"#utility.yul\":2592:2605   */\n          mload\n            /* \"#utility.yul\":2623:2713   */\n          tag_72\n            /* \"#utility.yul\":2709:2712   */\n          dup5\n            /* \"#utility.yul\":2701:2707   */\n          dup3\n            /* \"#utility.yul\":2694:2698   */\n          0x20\n            /* \"#utility.yul\":2686:2692   */\n          dup7\n            /* \"#utility.yul\":2682:2699   */\n          add\n            /* \"#utility.yul\":2623:2713   */\n          tag_32\n          jump\t// in\n        tag_72:\n            /* \"#utility.yul\":2614:2713   */\n          swap2\n          pop\n            /* \"#utility.yul\":2437:2719   */\n          pop\n            /* \"#utility.yul\":2364:2719   */\n          swap3\n          swap2\n          pop\n          pop\n          jump\t// out\n            /* \"#utility.yul\":2725:2851   */\n        tag_34:\n            /* \"#utility.yul\":2762:2769   */\n          0x00\n            /* \"#utility.yul\":2802:2844   */\n          0xffffffffffffffffffffffffffffffffffffffff\n            /* \"#utility.yul\":2795:2800   */\n          dup3\n            /* \"#utility.yul\":2791:2845   */\n          and\n            /* \"#utility.yul\":2780:2845   */\n          swap1\n          pop\n            /* \"#utility.yul\":2725:2851   */\n          swap2\n          swap1\n          pop\n          jump\t// out\n            /* \"#utility.yul\":2857:2953   */\n        tag_35:\n            /* \"#utility.yul\":2894:2901   */\n          0x00\n            /* \"#utility.yul\":2923:2947   */\n          tag_75\n            /* \"#utility.yul\":2941:2946   */\n          dup3\n            /* \"#utility.yul\":2923:2947   */\n          tag_34\n          jump\t// in\n        tag_75:\n            /* \"#utility.yul\":2912:2947   */\n          swap1\n          pop\n            /* \"#utility.yul\":2857:2953   */\n          swap2\n          swap1\n          pop\n          jump\t// out\n            /* \"#utility.yul\":2959:3081   */\n        tag_36:\n            /* \"#utility.yul\":3032:3056   */\n          tag_77\n            /* \"#utility.yul\":3050:3055   */\n          dup2\n            /* \"#utility.yul\":3032:3056   */\n          tag_35\n          jump\t// in\n        tag_77:\n            /* \"#utility.yul\":3025:3030   */\n          dup2\n            /* \"#utility.yul\":3022:3057   */\n          eq\n            /* \"#utility.yul\":3012:3075   */\n          tag_78\n          jumpi\n            /* \"#utility.yul\":3071:3072   */\n          0x00\n            /* \"#utility.yul\":3068:3069   */\n          dup1\n            /* \"#utility.yul\":3061:3073   */\n          revert\n            /* \"#utility.yul\":3012:3075   */\n        tag_78:\n            /* \"#utility.yul\":2959:3081   */\n          pop\n          jump\t// out\n            /* \"#utility.yul\":3087:3230   */\n        tag_37:\n            /* \"#utility.yul\":3144:3149   */\n          0x00\n            /* \"#utility.yul\":3175:3181   */\n          dup2\n            /* \"#utility.yul\":3169:3182   */\n          mload\n            /* \"#utility.yul\":3160:3182   */\n          swap1\n          pop\n            /* \"#utility.yul\":3191:3224   */\n          tag_80\n            /* \"#utility.yul\":3218:3223   */\n          dup2\n            /* \"#utility.yul\":3191:3224   */\n          tag_36\n          jump\t// in\n        tag_80:\n            /* \"#utility.yul\":3087:3230   */\n          swap3\n          swap2\n          pop\n          pop\n          jump\t// out\n            /* \"#utility.yul\":3236:4245   */\n        tag_3:\n            /* \"#utility.yul\":3344:3350   */\n          0x00\n            /* \"#utility.yul\":3352:3358   */\n          dup1\n            /* \"#utility.yul\":3360:3366   */\n          0x00\n            /* \"#utility.yul\":3409:3411   */\n          0x60\n            /* \"#utility.yul\":3397:3406   */\n          dup5\n            /* \"#utility.yul\":3388:3395   */\n          dup7\n            /* \"#utility.yul\":3384:3407   */\n          sub\n            /* \"#utility.yul\":3380:3412   */\n          slt\n            /* \"#utility.yul\":3377:3496   */\n          iszero\n          tag_82\n          jumpi\n            /* \"#utility.yul\":3415:3494   */\n          tag_83\n          tag_22\n          jump\t// in\n        tag_83:\n            /* \"#utility.yul\":3377:3496   */\n        tag_82:\n            /* \"#utility.yul\":3556:3557   */\n          0x00\n            /* \"#utility.yul\":3545:3554   */\n          dup5\n            /* \"#utility.yul\":3541:3558   */\n          add\n            /* \"#utility.yul\":3535:3559   */\n          mload\n            /* \"#utility.yul\":3586:3604   */\n          0xffffffffffffffff\n            /* \"#utility.yul\":3578:3584   */\n          dup2\n            /* \"#utility.yul\":3575:3605   */\n          gt\n            /* \"#utility.yul\":3572:3689   */\n          iszero\n          tag_84\n          jumpi\n            /* \"#utility.yul\":3608:3687   */\n          tag_85\n          tag_23\n          jump\t// in\n        tag_85:\n            /* \"#utility.yul\":3572:3689   */\n        tag_84:\n            /* \"#utility.yul\":3713:3787   */\n          tag_86\n            /* \"#utility.yul\":3779:3786   */\n          dup7\n            /* \"#utility.yul\":3770:3776   */\n          dup3\n            /* \"#utility.yul\":3759:3768   */\n          dup8\n            /* \"#utility.yul\":3755:3777   */\n          add\n            /* \"#utility.yul\":3713:3787   */\n          tag_33\n          jump\t// in\n        tag_86:\n            /* \"#utility.yul\":3703:3787   */\n          swap4\n          pop\n            /* \"#utility.yul\":3506:3797   */\n          pop\n            /* \"#utility.yul\":3836:3838   */\n          0x20\n            /* \"#utility.yul\":3862:3926   */\n          tag_87\n            /* \"#utility.yul\":3918:3925   */\n          dup7\n            /* \"#utility.yul\":3909:3915   */\n          dup3\n            /* \"#utility.yul\":3898:3907   */\n          dup8\n            /* \"#utility.yul\":3894:3916   */\n          add\n            /* \"#utility.yul\":3862:3926   */\n          tag_37\n          jump\t// in\n        tag_87:\n            /* \"#utility.yul\":3852:3926   */\n          swap3\n          pop\n            /* \"#utility.yul\":3807:3936   */\n          pop\n            /* \"#utility.yul\":3996:3998   */\n          0x40\n            /* \"#utility.yul\":3985:3994   */\n          dup5\n            /* \"#utility.yul\":3981:3999   */\n          add\n            /* \"#utility.yul\":3975:4000   */\n          mload\n            /* \"#utility.yul\":4027:4045   */\n          0xffffffffffffffff\n            /* \"#utility.yul\":4019:4025   */\n          dup2\n            /* \"#utility.yul\":4016:4046   */\n          gt\n            /* \"#utility.yul\":4013:4130   */\n          iszero\n          tag_88\n          jumpi\n            /* \"#utility.yul\":4049:4128   */\n          tag_89\n          tag_23\n          jump\t// in\n        tag_89:\n            /* \"#utility.yul\":4013:4130   */\n        tag_88:\n            /* \"#utility.yul\":4154:4228   */\n          tag_90\n            /* \"#utility.yul\":4220:4227   */\n          dup7\n            /* \"#utility.yul\":4211:4217   */\n          dup3\n            /* \"#utility.yul\":4200:4209   */\n          dup8\n            /* \"#utility.yul\":4196:4218   */\n          add\n            /* \"#utility.yul\":4154:4228   */\n          tag_33\n          jump\t// in\n        tag_90:\n            /* \"#utility.yul\":4144:4228   */\n          swap2\n          pop\n            /* \"#utility.yul\":3946:4238   */\n          pop\n            /* \"#utility.yul\":3236:4245   */\n          swap3\n          pop\n          swap3\n          pop\n          swap3\n          jump\t// out\n            /* \"#utility.yul\":4251:4431   */\n        tag_38:\n            /* \"#utility.yul\":4299:4376   */\n          0x4e487b7100000000000000000000000000000000000000000000000000000000\n            /* \"#utility.yul\":4296:4297   */\n          0x00\n            /* \"#utility.yul\":4289:4377   */\n          mstore\n            /* \"#utility.yul\":4396:4400   */\n          0x22\n            /* \"#utility.yul\":4393:4394   */\n          0x04\n            /* \"#utility.yul\":4386:4401   */\n          mstore\n            /* \"#utility.yul\":4420:4424   */\n          0x24\n            /* \"#utility.yul\":4417:4418   */\n          0x00\n            /* \"#utility.yul\":4410:4425   */\n          revert\n            /* \"#utility.yul\":4437:4757   */\n        tag_11:\n            /* \"#utility.yul\":4481:4487   */\n          0x00\n            /* \"#utility.yul\":4518:4519   */\n          0x02\n            /* \"#utility.yul\":4512:4516   */\n          dup3\n            /* \"#utility.yul\":4508:4520   */\n          div\n            /* \"#utility.yul\":4498:4520   */\n          swap1\n          pop\n            /* \"#utility.yul\":4565:4566   */\n          0x01\n            /* \"#utility.yul\":4559:4563   */\n          dup3\n            /* \"#utility.yul\":4555:4567   */\n          and\n            /* \"#utility.yul\":4586:4604   */\n          dup1\n            /* \"#utility.yul\":4576:4657   */\n          tag_93\n          jumpi\n            /* \"#utility.yul\":4642:4646   */\n          0x7f\n            /* \"#utility.yul\":4634:4640   */\n          dup3\n            /* \"#utility.yul\":4630:4647   */\n          and\n            /* \"#utility.yul\":4620:4647   */\n          swap2\n          pop\n            /* \"#utility.yul\":4576:4657   */\n        tag_93:\n            /* \"#utility.yul\":4704:4706   */\n          0x20\n            /* \"#utility.yul\":4696:4702   */\n          dup3\n            /* \"#utility.yul\":4693:4707   */\n          lt\n            /* \"#utility.yul\":4673:4691   */\n          dup2\n            /* \"#utility.yul\":4670:4708   */\n          sub\n            /* \"#utility.yul\":4667:4751   */\n          tag_94\n          jumpi\n            /* \"#utility.yul\":4723:4741   */\n          tag_95\n          tag_38\n          jump\t// in\n        tag_95:\n            /* \"#utility.yul\":4667:4751   */\n        tag_94:\n            /* \"#utility.yul\":4488:4757   */\n          pop\n            /* \"#utility.yul\":4437:4757   */\n          swap2\n          swap1\n          pop\n          jump\t// out\n            /* \"Ballot.sol\":630:3231  contract Ballot{... */\n        tag_9:\n          dataSize(sub_0)\n          dup1\n          dataOffset(sub_0)\n          0x00\n          codecopy\n          0x00\n          return\n        stop\n\n        sub_0: assembly {\n                /* \"Ballot.sol\":630:3231  contract Ballot{... */\n              mstore(0x40, 0x80)\n              jumpi(tag_1, lt(calldatasize, 0x04))\n              shr(0xe0, calldataload(0x00))\n              dup1\n              0x4901d7ae\n              gt\n              tag_9\n              jumpi\n              dup1\n              0x4901d7ae\n              eq\n              tag_5\n              jumpi\n              dup1\n              0x5a436c06\n              eq\n              tag_6\n              jumpi\n              dup1\n              0x5aa68ac0\n              eq\n              tag_7\n              jumpi\n              dup1\n              0xf9094303\n              eq\n              tag_8\n              jumpi\n              jump(tag_1)\n            tag_9:\n              dup1\n              0x1ec6b60a\n              eq\n              tag_2\n              jumpi\n              dup1\n              0x35c1d349\n              eq\n              tag_3\n              jumpi\n              dup1\n              0x481c6a75\n              eq\n              tag_4\n              jumpi\n            tag_1:\n              0x00\n              dup1\n              revert\n                /* \"Ballot.sol\":3025:3105  function startVoting() public onlyManager{... */\n            tag_2:\n              callvalue\n              dup1\n              iszero\n              tag_10\n              jumpi\n              0x00\n              dup1\n              revert\n            tag_10:\n              pop\n              tag_11\n              tag_12\n              jump\t// in\n            tag_11:\n              stop\n                /* \"Ballot.sol\":1031:1059  Person[] public participants */\n            tag_3:\n              callvalue\n              dup1\n              iszero\n              tag_13\n              jumpi\n              0x00\n              dup1\n              revert\n            tag_13:\n              pop\n              tag_14\n              0x04\n              dup1\n              calldatasize\n              sub\n              dup2\n              add\n              swap1\n              tag_15\n              swap2\n              swap1\n              tag_16\n              jump\t// in\n            tag_15:\n              tag_17\n              jump\t// in\n            tag_14:\n              mload(0x40)\n              tag_18\n              swap5\n              swap4\n              swap3\n              swap2\n              swap1\n              tag_19\n              jump\t// in\n            tag_18:\n              mload(0x40)\n              dup1\n              swap2\n              sub\n              swap1\n              return\n                /* \"Ballot.sol\":927:948  Person public manager */\n            tag_4:\n              callvalue\n              dup1\n              iszero\n              tag_20\n              jumpi\n              0x00\n              dup1\n              revert\n            tag_20:\n              pop\n              tag_21\n              tag_22\n              jump\t// in\n            tag_21:\n              mload(0x40)\n              tag_23\n              swap5\n              swap4\n              swap3\n              swap2\n              swap1\n              tag_19\n              jump\t// in\n            tag_23:\n              mload(0x40)\n              dup1\n              swap2\n              sub\n              swap1\n              return\n                /* \"Ballot.sol\":1834:2164  function addParticipant(string memory name ,address id , string memory image) public payable onlyManager{... */\n            tag_5:\n              tag_24\n              0x04\n              dup1\n              calldatasize\n              sub\n              dup2\n              add\n              swap1\n              tag_25\n              swap2\n              swap1\n              tag_26\n              jump\t// in\n            tag_25:\n              tag_27\n              jump\t// in\n            tag_24:\n              stop\n                /* \"Ballot.sol\":2455:2982  function vote(string memory name ,address participant) public payable canVote{... */\n            tag_6:\n              tag_28\n              0x04\n              dup1\n              calldatasize\n              sub\n              dup2\n              add\n              swap1\n              tag_29\n              swap2\n              swap1\n              tag_30\n              jump\t// in\n            tag_29:\n              tag_31\n              jump\t// in\n            tag_28:\n              stop\n                /* \"Ballot.sol\":2309:2409  function getParticipants()public view returns(Person[] memory){... */\n            tag_7:\n              callvalue\n              dup1\n              iszero\n              tag_32\n              jumpi\n              0x00\n              dup1\n              revert\n            tag_32:\n              pop\n              tag_33\n              tag_34\n              jump\t// in\n            tag_33:\n              mload(0x40)\n              tag_35\n              swap2\n              swap1\n              tag_36\n              jump\t// in\n            tag_35:\n              mload(0x40)\n              dup1\n              swap2\n              sub\n              swap1\n              return\n                /* \"Ballot.sol\":3146:3228  function finishVoting() public onlyManager{... */\n            tag_8:\n              callvalue\n              dup1\n              iszero\n              tag_37\n              jumpi\n              0x00\n              dup1\n              revert\n            tag_37:\n              pop\n              tag_38\n              tag_39\n              jump\t// in\n            tag_38:\n              stop\n                /* \"Ballot.sol\":3025:3105  function startVoting() public onlyManager{... */\n            tag_12:\n                /* \"Ballot.sol\":1657:1664  manager */\n              0x00\n                /* \"Ballot.sol\":1657:1667  manager.id */\n              0x01\n              add\n              0x00\n              swap1\n              sload\n              swap1\n              0x0100\n              exp\n              swap1\n              div\n              0xffffffffffffffffffffffffffffffffffffffff\n              and\n                /* \"Ballot.sol\":1643:1667  msg.sender == manager.id */\n              0xffffffffffffffffffffffffffffffffffffffff\n              and\n                /* \"Ballot.sol\":1643:1653  msg.sender */\n              caller\n                /* \"Ballot.sol\":1643:1667  msg.sender == manager.id */\n              0xffffffffffffffffffffffffffffffffffffffff\n              and\n              eq\n                /* \"Ballot.sol\":1635:1668  require(msg.sender == manager.id) */\n              tag_41\n              jumpi\n              0x00\n              dup1\n              revert\n            tag_41:\n                /* \"Ballot.sol\":3093:3097  true */\n              0x01\n                /* \"Ballot.sol\":3077:3090  votingStarted */\n              0x08\n              0x00\n                /* \"Ballot.sol\":3077:3097  votingStarted = true */\n              0x0100\n              exp\n              dup2\n              sload\n              dup2\n              0xff\n              mul\n              not\n              and\n              swap1\n              dup4\n              iszero\n              iszero\n              mul\n              or\n              swap1\n              sstore\n              pop\n                /* \"Ballot.sol\":3025:3105  function startVoting() public onlyManager{... */\n              jump\t// out\n                /* \"Ballot.sol\":1031:1059  Person[] public participants */\n            tag_17:\n              0x05\n              dup2\n              dup2\n              sload\n              dup2\n              lt\n              tag_43\n              jumpi\n              0x00\n              dup1\n              revert\n            tag_43:\n              swap1\n              0x00\n              mstore\n              keccak256(0x00, 0x20)\n              swap1\n              0x04\n              mul\n              add\n              0x00\n              swap2\n              pop\n              swap1\n              pop\n              dup1\n              0x00\n              add\n              dup1\n              sload\n              tag_45\n              swap1\n              tag_46\n              jump\t// in\n            tag_45:\n              dup1\n              0x1f\n              add\n              0x20\n              dup1\n              swap2\n              div\n              mul\n              0x20\n              add\n              mload(0x40)\n              swap1\n              dup2\n              add\n              0x40\n              mstore\n              dup1\n              swap3\n              swap2\n              swap1\n              dup2\n              dup2\n              mstore\n              0x20\n              add\n              dup3\n              dup1\n              sload\n              tag_47\n              swap1\n              tag_46\n              jump\t// in\n            tag_47:\n              dup1\n              iszero\n              tag_48\n              jumpi\n              dup1\n              0x1f\n              lt\n              tag_49\n              jumpi\n              0x0100\n              dup1\n              dup4\n              sload\n              div\n              mul\n              dup4\n              mstore\n              swap2\n              0x20\n              add\n              swap2\n              jump(tag_48)\n            tag_49:\n              dup3\n              add\n              swap2\n              swap1\n              0x00\n              mstore\n              keccak256(0x00, 0x20)\n              swap1\n            tag_50:\n              dup2\n              sload\n              dup2\n              mstore\n              swap1\n              0x01\n              add\n              swap1\n              0x20\n              add\n              dup1\n              dup4\n              gt\n              tag_50\n              jumpi\n              dup3\n              swap1\n              sub\n              0x1f\n              and\n              dup3\n              add\n              swap2\n            tag_48:\n              pop\n              pop\n              pop\n              pop\n              pop\n              swap1\n              dup1\n              0x01\n              add\n              0x00\n              swap1\n              sload\n              swap1\n              0x0100\n              exp\n              swap1\n              div\n              0xffffffffffffffffffffffffffffffffffffffff\n              and\n              swap1\n              dup1\n              0x02\n              add\n              dup1\n              sload\n              tag_51\n              swap1\n              tag_46\n              jump\t// in\n            tag_51:\n              dup1\n              0x1f\n              add\n              0x20\n              dup1\n              swap2\n              div\n              mul\n              0x20\n              add\n              mload(0x40)\n              swap1\n              dup2\n              add\n              0x40\n              mstore\n              dup1\n              swap3\n              swap2\n              swap1\n              dup2\n              dup2\n              mstore\n              0x20\n              add\n              dup3\n              dup1\n              sload\n              tag_52\n              swap1\n              tag_46\n              jump\t// in\n            tag_52:\n              dup1\n              iszero\n              tag_53\n              jumpi\n              dup1\n              0x1f\n              lt\n              tag_54\n              jumpi\n              0x0100\n              dup1\n              dup4\n              sload\n              div\n              mul\n              dup4\n              mstore\n              swap2\n              0x20\n              add\n              swap2\n              jump(tag_53)\n            tag_54:\n              dup3\n              add\n              swap2\n              swap1\n              0x00\n              mstore\n              keccak256(0x00, 0x20)\n              swap1\n            tag_55:\n              dup2\n              sload\n              dup2\n              mstore\n              swap1\n              0x01\n              add\n              swap1\n              0x20\n              add\n              dup1\n              dup4\n              gt\n              tag_55\n              jumpi\n              dup3\n              swap1\n              sub\n              0x1f\n              and\n              dup3\n              add\n              swap2\n            tag_53:\n              pop\n              pop\n              pop\n              pop\n              pop\n              swap1\n              dup1\n              0x03\n              add\n              sload\n              swap1\n              pop\n              dup5\n              jump\t// out\n                /* \"Ballot.sol\":927:948  Person public manager */\n            tag_22:\n              0x00\n              dup1\n              0x00\n              add\n              dup1\n              sload\n              tag_56\n              swap1\n              tag_46\n              jump\t// in\n            tag_56:\n              dup1\n              0x1f\n              add\n              0x20\n              dup1\n              swap2\n              div\n              mul\n              0x20\n              add\n              mload(0x40)\n              swap1\n              dup2\n              add\n              0x40\n              mstore\n              dup1\n              swap3\n              swap2\n              swap1\n              dup2\n              dup2\n              mstore\n              0x20\n              add\n              dup3\n              dup1\n              sload\n              tag_57\n              swap1\n              tag_46\n              jump\t// in\n            tag_57:\n              dup1\n              iszero\n              tag_58\n              jumpi\n              dup1\n              0x1f\n              lt\n              tag_59\n              jumpi\n              0x0100\n              dup1\n              dup4\n              sload\n              div\n              mul\n              dup4\n              mstore\n              swap2\n              0x20\n              add\n              swap2\n              jump(tag_58)\n            tag_59:\n              dup3\n              add\n              swap2\n              swap1\n              0x00\n              mstore\n              keccak256(0x00, 0x20)\n              swap1\n            tag_60:\n              dup2\n              sload\n              dup2\n              mstore\n              swap1\n              0x01\n              add\n              swap1\n              0x20\n              add\n              dup1\n              dup4\n              gt\n              tag_60\n              jumpi\n              dup3\n              swap1\n              sub\n              0x1f\n              and\n              dup3\n              add\n              swap2\n            tag_58:\n              pop\n              pop\n              pop\n              pop\n              pop\n              swap1\n              dup1\n              0x01\n              add\n              0x00\n              swap1\n              sload\n              swap1\n              0x0100\n              exp\n              swap1\n              div\n              0xffffffffffffffffffffffffffffffffffffffff\n              and\n              swap1\n              dup1\n              0x02\n              add\n              dup1\n              sload\n              tag_61\n              swap1\n              tag_46\n              jump\t// in\n            tag_61:\n              dup1\n              0x1f\n              add\n              0x20\n              dup1\n              swap2\n              div\n              mul\n              0x20\n              add\n              mload(0x40)\n              swap1\n              dup2\n              add\n              0x40\n              mstore\n              dup1\n              swap3\n              swap2\n              swap1\n              dup2\n              dup2\n              mstore\n              0x20\n              add\n              dup3\n              dup1\n              sload\n              tag_62\n              swap1\n              tag_46\n              jump\t// in\n            tag_62:\n              dup1\n              iszero\n              tag_63\n              jumpi\n              dup1\n              0x1f\n              lt\n              tag_64\n              jumpi\n              0x0100\n              dup1\n              dup4\n              sload\n              div\n              mul\n              dup4\n              mstore\n              swap2\n              0x20\n              add\n              swap2\n              jump(tag_63)\n            tag_64:\n              dup3\n              add\n              swap2\n              swap1\n              0x00\n              mstore\n              keccak256(0x00, 0x20)\n              swap1\n            tag_65:\n              dup2\n              sload\n              dup2\n              mstore\n              swap1\n              0x01\n              add\n              swap1\n              0x20\n              add\n              dup1\n              dup4\n              gt\n              tag_65\n              jumpi\n              dup3\n              swap1\n              sub\n              0x1f\n              and\n              dup3\n              add\n              swap2\n            tag_63:\n              pop\n              pop\n              pop\n              pop\n              pop\n              swap1\n              dup1\n              0x03\n              add\n              sload\n              swap1\n              pop\n              dup5\n              jump\t// out\n                /* \"Ballot.sol\":1834:2164  function addParticipant(string memory name ,address id , string memory image) public payable onlyManager{... */\n            tag_27:\n                /* \"Ballot.sol\":1657:1664  manager */\n              0x00\n                /* \"Ballot.sol\":1657:1667  manager.id */\n              0x01\n              add\n              0x00\n              swap1\n              sload\n              swap1\n              0x0100\n              exp\n              swap1\n              div\n              0xffffffffffffffffffffffffffffffffffffffff\n              and\n                /* \"Ballot.sol\":1643:1667  msg.sender == manager.id */\n              0xffffffffffffffffffffffffffffffffffffffff\n              and\n                /* \"Ballot.sol\":1643:1653  msg.sender */\n              caller\n                /* \"Ballot.sol\":1643:1667  msg.sender == manager.id */\n              0xffffffffffffffffffffffffffffffffffffffff\n              and\n              eq\n                /* \"Ballot.sol\":1635:1668  require(msg.sender == manager.id) */\n              tag_67\n              jumpi\n              0x00\n              dup1\n              revert\n            tag_67:\n                /* \"Ballot.sol\":1969:1979  0.90 ether */\n              0x0c7d713b49da0000\n                /* \"Ballot.sol\":1957:1966  msg.value */\n              callvalue\n                /* \"Ballot.sol\":1957:1979  msg.value > 0.90 ether */\n              gt\n                /* \"Ballot.sol\":1949:1980  require(msg.value > 0.90 ether) */\n              tag_69\n              jumpi\n              0x00\n              dup1\n              revert\n            tag_69:\n                /* \"Ballot.sol\":1991:2006  Person memory r */\n              tag_70\n              tag_71\n              jump\t// in\n            tag_70:\n                /* \"Ballot.sol\":2027:2031  name */\n              dup4\n                /* \"Ballot.sol\":2018:2019  r */\n              dup2\n                /* \"Ballot.sol\":2018:2024  r.name */\n              0x00\n              add\n                /* \"Ballot.sol\":2018:2031  r.name = name */\n              dup2\n              swap1\n              mstore\n              pop\n                /* \"Ballot.sol\":2049:2051  id */\n              dup3\n                /* \"Ballot.sol\":2042:2043  r */\n              dup2\n                /* \"Ballot.sol\":2042:2046  r.id */\n              0x20\n              add\n                /* \"Ballot.sol\":2042:2051  r.id = id */\n              swap1\n              0xffffffffffffffffffffffffffffffffffffffff\n              and\n              swap1\n              dup2\n              0xffffffffffffffffffffffffffffffffffffffff\n              and\n              dup2\n              mstore\n              pop\n              pop\n                /* \"Ballot.sol\":2072:2077  image */\n              dup2\n                /* \"Ballot.sol\":2062:2063  r */\n              dup2\n                /* \"Ballot.sol\":2062:2069  r.image */\n              0x40\n              add\n                /* \"Ballot.sol\":2062:2077  r.image = image */\n              dup2\n              swap1\n              mstore\n              pop\n                /* \"Ballot.sol\":2096:2097  0 */\n              0x00\n                /* \"Ballot.sol\":2088:2089  r */\n              dup2\n                /* \"Ballot.sol\":2088:2095  r.votes */\n              0x60\n              add\n                /* \"Ballot.sol\":2088:2097  r.votes=0 */\n              dup2\n              dup2\n              mstore\n              pop\n              pop\n                /* \"Ballot.sol\":2108:2120  participants */\n              0x05\n                /* \"Ballot.sol\":2126:2127  r */\n              dup2\n                /* \"Ballot.sol\":2108:2128  participants.push(r) */\n              swap1\n              dup1\n              0x01\n              dup2\n              sload\n              add\n              dup1\n              dup3\n              sstore\n              dup1\n              swap2\n              pop\n              pop\n              0x01\n              swap1\n              sub\n              swap1\n              0x00\n              mstore\n              keccak256(0x00, 0x20)\n              swap1\n              0x04\n              mul\n              add\n              0x00\n              swap1\n              swap2\n              swap1\n              swap2\n              swap1\n              swap2\n              pop\n              0x00\n              dup3\n              add\n              mload\n              dup2\n              0x00\n              add\n              swap1\n              dup1\n              mload\n              swap1\n              0x20\n              add\n              swap1\n              tag_73\n              swap3\n              swap2\n              swap1\n              tag_74\n              jump\t// in\n            tag_73:\n              pop\n              0x20\n              dup3\n              add\n              mload\n              dup2\n              0x01\n              add\n              exp(0x0100, 0x00)\n              dup2\n              sload\n              dup2\n              0xffffffffffffffffffffffffffffffffffffffff\n              mul\n              not\n              and\n              swap1\n              dup4\n              0xffffffffffffffffffffffffffffffffffffffff\n              and\n              mul\n              or\n              swap1\n              sstore\n              pop\n              0x40\n              dup3\n              add\n              mload\n              dup2\n              0x02\n              add\n              swap1\n              dup1\n              mload\n              swap1\n              0x20\n              add\n              swap1\n              tag_75\n              swap3\n              swap2\n              swap1\n              tag_74\n              jump\t// in\n            tag_75:\n              pop\n              0x60\n              dup3\n              add\n              mload\n              dup2\n              0x03\n              add\n              sstore\n              pop\n              pop\n                /* \"Ballot.sol\":2139:2154  numParticipants */\n              0x04\n              0x00\n                /* \"Ballot.sol\":2139:2156  numParticipants++ */\n              dup2\n              sload\n              dup1\n              swap3\n              swap2\n              swap1\n              tag_76\n              swap1\n              tag_77\n              jump\t// in\n            tag_76:\n              swap2\n              swap1\n              pop\n              sstore\n              pop\n                /* \"Ballot.sol\":1938:2164  {... */\n              pop\n                /* \"Ballot.sol\":1834:2164  function addParticipant(string memory name ,address id , string memory image) public payable onlyManager{... */\n              pop\n              pop\n              pop\n              jump\t// out\n                /* \"Ballot.sol\":2455:2982  function vote(string memory name ,address participant) public payable canVote{... */\n            tag_31:\n                /* \"Ballot.sol\":1733:1746  votingStarted */\n              0x08\n              0x00\n              swap1\n              sload\n              swap1\n              0x0100\n              exp\n              swap1\n              div\n              0xff\n              and\n                /* \"Ballot.sol\":1733:1765  votingStarted && !votingFinished */\n              dup1\n              iszero\n              tag_79\n              jumpi\n              pop\n                /* \"Ballot.sol\":1751:1765  votingFinished */\n              0x08\n              0x01\n              swap1\n              sload\n              swap1\n              0x0100\n              exp\n              swap1\n              div\n              0xff\n              and\n                /* \"Ballot.sol\":1750:1765  !votingFinished */\n              iszero\n                /* \"Ballot.sol\":1733:1765  votingStarted && !votingFinished */\n            tag_79:\n                /* \"Ballot.sol\":1725:1766  require(votingStarted && !votingFinished) */\n              tag_80\n              jumpi\n              0x00\n              dup1\n              revert\n            tag_80:\n                /* \"Ballot.sol\":2563:2573  0.50 ether */\n              0x06f05b59d3b20000\n                /* \"Ballot.sol\":2551:2560  msg.value */\n              callvalue\n                /* \"Ballot.sol\":2551:2573  msg.value > 0.50 ether */\n              gt\n                /* \"Ballot.sol\":2543:2574  require(msg.value > 0.50 ether) */\n              tag_82\n              jumpi\n              0x00\n              dup1\n              revert\n            tag_82:\n                /* \"Ballot.sol\":2587:2602  Vote memory val */\n              tag_83\n              tag_84\n              jump\t// in\n            tag_83:\n                /* \"Ballot.sol\":2625:2629  name */\n              dup3\n                /* \"Ballot.sol\":2614:2617  val */\n              dup2\n                /* \"Ballot.sol\":2614:2622  val.name */\n              0x20\n              add\n                /* \"Ballot.sol\":2614:2629  val.name = name */\n              dup2\n              swap1\n              mstore\n              pop\n                /* \"Ballot.sol\":2654:2664  msg.sender */\n              caller\n                /* \"Ballot.sol\":2640:2643  val */\n              dup2\n                /* \"Ballot.sol\":2640:2651  val.voterId */\n              0x00\n              add\n                /* \"Ballot.sol\":2640:2664  val.voterId = msg.sender */\n              swap1\n              0xffffffffffffffffffffffffffffffffffffffff\n              and\n              swap1\n              dup2\n              0xffffffffffffffffffffffffffffffffffffffff\n              and\n              dup2\n              mstore\n              pop\n              pop\n                /* \"Ballot.sol\":2689:2700  participant */\n              dup2\n                /* \"Ballot.sol\":2675:2678  val */\n              dup2\n                /* \"Ballot.sol\":2675:2686  val.votedTo */\n              0x40\n              add\n                /* \"Ballot.sol\":2675:2700  val.votedTo = participant */\n              swap1\n              0xffffffffffffffffffffffffffffffffffffffff\n              and\n              swap1\n              dup2\n              0xffffffffffffffffffffffffffffffffffffffff\n              and\n              dup2\n              mstore\n              pop\n              pop\n                /* \"Ballot.sol\":2711:2719  VotesMap */\n              0x07\n                /* \"Ballot.sol\":2725:2728  val */\n              dup2\n                /* \"Ballot.sol\":2711:2729  VotesMap.push(val) */\n              swap1\n              dup1\n              0x01\n              dup2\n              sload\n              add\n              dup1\n              dup3\n              sstore\n              dup1\n              swap2\n              pop\n              pop\n              0x01\n              swap1\n              sub\n              swap1\n              0x00\n              mstore\n              keccak256(0x00, 0x20)\n              swap1\n              0x03\n              mul\n              add\n              0x00\n              swap1\n              swap2\n              swap1\n              swap2\n              swap1\n              swap2\n              pop\n              0x00\n              dup3\n              add\n              mload\n              dup2\n              0x00\n              add\n              exp(0x0100, 0x00)\n              dup2\n              sload\n              dup2\n              0xffffffffffffffffffffffffffffffffffffffff\n              mul\n              not\n              and\n              swap1\n              dup4\n              0xffffffffffffffffffffffffffffffffffffffff\n              and\n              mul\n              or\n              swap1\n              sstore\n              pop\n              0x20\n              dup3\n              add\n              mload\n              dup2\n              0x01\n              add\n              swap1\n              dup1\n              mload\n              swap1\n              0x20\n              add\n              swap1\n              tag_86\n              swap3\n              swap2\n              swap1\n              tag_74\n              jump\t// in\n            tag_86:\n              pop\n              0x40\n              dup3\n              add\n              mload\n              dup2\n              0x02\n              add\n              exp(0x0100, 0x00)\n              dup2\n              sload\n              dup2\n              0xffffffffffffffffffffffffffffffffffffffff\n              mul\n              not\n              and\n              swap1\n              dup4\n              0xffffffffffffffffffffffffffffffffffffffff\n              and\n              mul\n              or\n              swap1\n              sstore\n              pop\n              pop\n              pop\n                /* \"Ballot.sol\":2793:2799  uint i */\n              0x00\n                /* \"Ballot.sol\":2789:2975  for(uint i=0; i<participants.length ;i++){... */\n            tag_87:\n                /* \"Ballot.sol\":2805:2817  participants */\n              0x05\n                /* \"Ballot.sol\":2805:2824  participants.length */\n              dup1\n              sload\n              swap1\n              pop\n                /* \"Ballot.sol\":2803:2804  i */\n              dup2\n                /* \"Ballot.sol\":2803:2824  i<participants.length */\n              lt\n                /* \"Ballot.sol\":2789:2975  for(uint i=0; i<participants.length ;i++){... */\n              iszero\n              tag_88\n              jumpi\n                /* \"Ballot.sol\":2870:2881  participant */\n              dup3\n                /* \"Ballot.sol\":2848:2881  participants[i].id == participant */\n              0xffffffffffffffffffffffffffffffffffffffff\n              and\n                /* \"Ballot.sol\":2848:2860  participants */\n              0x05\n                /* \"Ballot.sol\":2861:2862  i */\n              dup3\n                /* \"Ballot.sol\":2848:2863  participants[i] */\n              dup2\n              sload\n              dup2\n              lt\n              tag_90\n              jumpi\n              tag_91\n              tag_92\n              jump\t// in\n            tag_91:\n            tag_90:\n              swap1\n              0x00\n              mstore\n              keccak256(0x00, 0x20)\n              swap1\n              0x04\n              mul\n              add\n                /* \"Ballot.sol\":2848:2866  participants[i].id */\n              0x01\n              add\n              0x00\n              swap1\n              sload\n              swap1\n              0x0100\n              exp\n              swap1\n              div\n              0xffffffffffffffffffffffffffffffffffffffff\n              and\n                /* \"Ballot.sol\":2848:2881  participants[i].id == participant */\n              0xffffffffffffffffffffffffffffffffffffffff\n              and\n              sub\n                /* \"Ballot.sol\":2845:2964  if(participants[i].id == participant){... */\n              tag_94\n              jumpi\n                /* \"Ballot.sol\":2901:2913  participants */\n              0x05\n                /* \"Ballot.sol\":2914:2915  i */\n              dup2\n                /* \"Ballot.sol\":2901:2916  participants[i] */\n              dup2\n              sload\n              dup2\n              lt\n              tag_95\n              jumpi\n              tag_96\n              tag_92\n              jump\t// in\n            tag_96:\n            tag_95:\n              swap1\n              0x00\n              mstore\n              keccak256(0x00, 0x20)\n              swap1\n              0x04\n              mul\n              add\n                /* \"Ballot.sol\":2901:2922  participants[i].votes */\n              0x03\n              add\n              0x00\n                /* \"Ballot.sol\":2901:2924  participants[i].votes++ */\n              dup2\n              sload\n              dup1\n              swap3\n              swap2\n              swap1\n              tag_98\n              swap1\n              tag_77\n              jump\t// in\n            tag_98:\n              swap2\n              swap1\n              pop\n              sstore\n              pop\n                /* \"Ballot.sol\":2943:2948  break */\n              jump(tag_88)\n                /* \"Ballot.sol\":2845:2964  if(participants[i].id == participant){... */\n            tag_94:\n                /* \"Ballot.sol\":2826:2829  i++ */\n              dup1\n              dup1\n              tag_99\n              swap1\n              tag_77\n              jump\t// in\n            tag_99:\n              swap2\n              pop\n              pop\n                /* \"Ballot.sol\":2789:2975  for(uint i=0; i<participants.length ;i++){... */\n              jump(tag_87)\n            tag_88:\n              pop\n                /* \"Ballot.sol\":2532:2982  {... */\n              pop\n                /* \"Ballot.sol\":2455:2982  function vote(string memory name ,address participant) public payable canVote{... */\n              pop\n              pop\n              jump\t// out\n                /* \"Ballot.sol\":2309:2409  function getParticipants()public view returns(Person[] memory){... */\n            tag_34:\n                /* \"Ballot.sol\":2355:2370  Person[] memory */\n              0x60\n                /* \"Ballot.sol\":2389:2401  participants */\n              0x05\n                /* \"Ballot.sol\":2382:2401  return participants */\n              dup1\n              sload\n              dup1\n              0x20\n              mul\n              0x20\n              add\n              mload(0x40)\n              swap1\n              dup2\n              add\n              0x40\n              mstore\n              dup1\n              swap3\n              swap2\n              swap1\n              dup2\n              dup2\n              mstore\n              0x20\n              add\n              0x00\n              swap1\n            tag_101:\n              dup3\n              dup3\n              lt\n              iszero\n              tag_102\n              jumpi\n              dup4\n              dup3\n              swap1\n              0x00\n              mstore\n              keccak256(0x00, 0x20)\n              swap1\n              0x04\n              mul\n              add\n              mload(0x40)\n              dup1\n              0x80\n              add\n              0x40\n              mstore\n              swap1\n              dup2\n              0x00\n              dup3\n              add\n              dup1\n              sload\n              tag_104\n              swap1\n              tag_46\n              jump\t// in\n            tag_104:\n              dup1\n              0x1f\n              add\n              0x20\n              dup1\n              swap2\n              div\n              mul\n              0x20\n              add\n              mload(0x40)\n              swap1\n              dup2\n              add\n              0x40\n              mstore\n              dup1\n              swap3\n              swap2\n              swap1\n              dup2\n              dup2\n              mstore\n              0x20\n              add\n              dup3\n              dup1\n              sload\n              tag_105\n              swap1\n              tag_46\n              jump\t// in\n            tag_105:\n              dup1\n              iszero\n              tag_106\n              jumpi\n              dup1\n              0x1f\n              lt\n              tag_107\n              jumpi\n              0x0100\n              dup1\n              dup4\n              sload\n              div\n              mul\n              dup4\n              mstore\n              swap2\n              0x20\n              add\n              swap2\n              jump(tag_106)\n            tag_107:\n              dup3\n              add\n              swap2\n              swap1\n              0x00\n              mstore\n              keccak256(0x00, 0x20)\n              swap1\n            tag_108:\n              dup2\n              sload\n              dup2\n              mstore\n              swap1\n              0x01\n              add\n              swap1\n              0x20\n              add\n              dup1\n              dup4\n              gt\n              tag_108\n              jumpi\n              dup3\n              swap1\n              sub\n              0x1f\n              and\n              dup3\n              add\n              swap2\n            tag_106:\n              pop\n              pop\n              pop\n              pop\n              pop\n              dup2\n              mstore\n              0x20\n              add\n              0x01\n              dup3\n              add\n              0x00\n              swap1\n              sload\n              swap1\n              0x0100\n              exp\n              swap1\n              div\n              0xffffffffffffffffffffffffffffffffffffffff\n              and\n              0xffffffffffffffffffffffffffffffffffffffff\n              and\n              0xffffffffffffffffffffffffffffffffffffffff\n              and\n              dup2\n              mstore\n              0x20\n              add\n              0x02\n              dup3\n              add\n              dup1\n              sload\n              tag_109\n              swap1\n              tag_46\n              jump\t// in\n            tag_109:\n              dup1\n              0x1f\n              add\n              0x20\n              dup1\n              swap2\n              div\n              mul\n              0x20\n              add\n              mload(0x40)\n              swap1\n              dup2\n              add\n              0x40\n              mstore\n              dup1\n              swap3\n              swap2\n              swap1\n              dup2\n              dup2\n              mstore\n              0x20\n              add\n              dup3\n              dup1\n              sload\n              tag_110\n              swap1\n              tag_46\n              jump\t// in\n            tag_110:\n              dup1\n              iszero\n              tag_111\n              jumpi\n              dup1\n              0x1f\n              lt\n              tag_112\n              jumpi\n              0x0100\n              dup1\n              dup4\n              sload\n              div\n              mul\n              dup4\n              mstore\n              swap2\n              0x20\n              add\n              swap2\n              jump(tag_111)\n            tag_112:\n              dup3\n              add\n              swap2\n              swap1\n              0x00\n              mstore\n              keccak256(0x00, 0x20)\n              swap1\n            tag_113:\n              dup2\n              sload\n              dup2\n              mstore\n              swap1\n              0x01\n              add\n              swap1\n              0x20\n              add\n              dup1\n              dup4\n              gt\n              tag_113\n              jumpi\n              dup3\n              swap1\n              sub\n              0x1f\n              and\n              dup3\n              add\n              swap2\n            tag_111:\n              pop\n              pop\n              pop\n              pop\n              pop\n              dup2\n              mstore\n              0x20\n              add\n              0x03\n              dup3\n              add\n              sload\n              dup2\n              mstore\n              pop\n              pop\n              dup2\n              mstore\n              0x20\n              add\n              swap1\n              0x01\n              add\n              swap1\n              jump(tag_101)\n            tag_102:\n              pop\n              pop\n              pop\n              pop\n              swap1\n              pop\n                /* \"Ballot.sol\":2309:2409  function getParticipants()public view returns(Person[] memory){... */\n              swap1\n              jump\t// out\n                /* \"Ballot.sol\":3146:3228  function finishVoting() public onlyManager{... */\n            tag_39:\n                /* \"Ballot.sol\":1657:1664  manager */\n              0x00\n                /* \"Ballot.sol\":1657:1667  manager.id */\n              0x01\n              add\n              0x00\n              swap1\n              sload\n              swap1\n              0x0100\n              exp\n              swap1\n              div\n              0xffffffffffffffffffffffffffffffffffffffff\n              and\n                /* \"Ballot.sol\":1643:1667  msg.sender == manager.id */\n              0xffffffffffffffffffffffffffffffffffffffff\n              and\n                /* \"Ballot.sol\":1643:1653  msg.sender */\n              caller\n                /* \"Ballot.sol\":1643:1667  msg.sender == manager.id */\n              0xffffffffffffffffffffffffffffffffffffffff\n              and\n              eq\n                /* \"Ballot.sol\":1635:1668  require(msg.sender == manager.id) */\n              tag_115\n              jumpi\n              0x00\n              dup1\n              revert\n            tag_115:\n                /* \"Ballot.sol\":3216:3220  true */\n              0x01\n                /* \"Ballot.sol\":3199:3213  votingFinished */\n              0x08\n              0x01\n                /* \"Ballot.sol\":3199:3220  votingFinished = true */\n              0x0100\n              exp\n              dup2\n              sload\n              dup2\n              0xff\n              mul\n              not\n              and\n              swap1\n              dup4\n              iszero\n              iszero\n              mul\n              or\n              swap1\n              sstore\n              pop\n                /* \"Ballot.sol\":3146:3228  function finishVoting() public onlyManager{... */\n              jump\t// out\n            tag_71:\n              mload(0x40)\n              dup1\n              0x80\n              add\n              0x40\n              mstore\n              dup1\n              0x60\n              dup2\n              mstore\n              0x20\n              add\n              and(0xffffffffffffffffffffffffffffffffffffffff, 0x00)\n              dup2\n              mstore\n              0x20\n              add\n              0x60\n              dup2\n              mstore\n              0x20\n              add\n              0x00\n              dup2\n              mstore\n              pop\n              swap1\n              jump\t// out\n            tag_74:\n              dup3\n              dup1\n              sload\n              tag_117\n              swap1\n              tag_46\n              jump\t// in\n            tag_117:\n              swap1\n              0x00\n              mstore\n              keccak256(0x00, 0x20)\n              swap1\n              0x1f\n              add\n              0x20\n              swap1\n              div\n              dup2\n              add\n              swap3\n              dup3\n              tag_119\n              jumpi\n              0x00\n              dup6\n              sstore\n              jump(tag_118)\n            tag_119:\n              dup3\n              0x1f\n              lt\n              tag_120\n              jumpi\n              dup1\n              mload\n              not(0xff)\n              and\n              dup4\n              dup1\n              add\n              or\n              dup6\n              sstore\n              jump(tag_118)\n            tag_120:\n              dup3\n              dup1\n              add\n              0x01\n              add\n              dup6\n              sstore\n              dup3\n              iszero\n              tag_118\n              jumpi\n              swap2\n              dup3\n              add\n            tag_121:\n              dup3\n              dup2\n              gt\n              iszero\n              tag_122\n              jumpi\n              dup3\n              mload\n              dup3\n              sstore\n              swap2\n              0x20\n              add\n              swap2\n              swap1\n              0x01\n              add\n              swap1\n              jump(tag_121)\n            tag_122:\n            tag_118:\n              pop\n              swap1\n              pop\n              tag_123\n              swap2\n              swap1\n              tag_124\n              jump\t// in\n            tag_123:\n              pop\n              swap1\n              jump\t// out\n            tag_84:\n              mload(0x40)\n              dup1\n              0x60\n              add\n              0x40\n              mstore\n              dup1\n              and(0xffffffffffffffffffffffffffffffffffffffff, 0x00)\n              dup2\n              mstore\n              0x20\n              add\n              0x60\n              dup2\n              mstore\n              0x20\n              add\n              and(0xffffffffffffffffffffffffffffffffffffffff, 0x00)\n              dup2\n              mstore\n              pop\n              swap1\n              jump\t// out\n            tag_124:\n            tag_125:\n              dup1\n              dup3\n              gt\n              iszero\n              tag_126\n              jumpi\n              0x00\n              dup2\n              0x00\n              swap1\n              sstore\n              pop\n              0x01\n              add\n              jump(tag_125)\n            tag_126:\n              pop\n              swap1\n              jump\t// out\n                /* \"#utility.yul\":7:82   */\n            tag_127:\n                /* \"#utility.yul\":40:46   */\n              0x00\n                /* \"#utility.yul\":73:75   */\n              0x40\n                /* \"#utility.yul\":67:76   */\n              mload\n                /* \"#utility.yul\":57:76   */\n              swap1\n              pop\n                /* \"#utility.yul\":7:82   */\n              swap1\n              jump\t// out\n                /* \"#utility.yul\":88:205   */\n            tag_128:\n                /* \"#utility.yul\":197:198   */\n              0x00\n                /* \"#utility.yul\":194:195   */\n              dup1\n                /* \"#utility.yul\":187:199   */\n              revert\n                /* \"#utility.yul\":211:328   */\n            tag_129:\n                /* \"#utility.yul\":320:321   */\n              0x00\n                /* \"#utility.yul\":317:318   */\n              dup1\n                /* \"#utility.yul\":310:322   */\n              revert\n                /* \"#utility.yul\":334:411   */\n            tag_130:\n                /* \"#utility.yul\":371:378   */\n              0x00\n                /* \"#utility.yul\":400:405   */\n              dup2\n                /* \"#utility.yul\":389:405   */\n              swap1\n              pop\n                /* \"#utility.yul\":334:411   */\n              swap2\n              swap1\n              pop\n              jump\t// out\n                /* \"#utility.yul\":417:539   */\n            tag_131:\n                /* \"#utility.yul\":490:514   */\n              tag_172\n                /* \"#utility.yul\":508:513   */\n              dup2\n                /* \"#utility.yul\":490:514   */\n              tag_130\n              jump\t// in\n            tag_172:\n                /* \"#utility.yul\":483:488   */\n              dup2\n                /* \"#utility.yul\":480:515   */\n              eq\n                /* \"#utility.yul\":470:533   */\n              tag_173\n              jumpi\n                /* \"#utility.yul\":529:530   */\n              0x00\n                /* \"#utility.yul\":526:527   */\n              dup1\n                /* \"#utility.yul\":519:531   */\n              revert\n                /* \"#utility.yul\":470:533   */\n            tag_173:\n                /* \"#utility.yul\":417:539   */\n              pop\n              jump\t// out\n                /* \"#utility.yul\":545:684   */\n            tag_132:\n                /* \"#utility.yul\":591:596   */\n              0x00\n                /* \"#utility.yul\":629:635   */\n              dup2\n                /* \"#utility.yul\":616:636   */\n              calldataload\n                /* \"#utility.yul\":607:636   */\n              swap1\n              pop\n                /* \"#utility.yul\":645:678   */\n              tag_175\n                /* \"#utility.yul\":672:677   */\n              dup2\n                /* \"#utility.yul\":645:678   */\n              tag_131\n              jump\t// in\n            tag_175:\n                /* \"#utility.yul\":545:684   */\n              swap3\n              swap2\n              pop\n              pop\n              jump\t// out\n                /* \"#utility.yul\":690:1019   */\n            tag_16:\n                /* \"#utility.yul\":749:755   */\n              0x00\n                /* \"#utility.yul\":798:800   */\n              0x20\n                /* \"#utility.yul\":786:795   */\n              dup3\n                /* \"#utility.yul\":777:784   */\n              dup5\n                /* \"#utility.yul\":773:796   */\n              sub\n                /* \"#utility.yul\":769:801   */\n              slt\n                /* \"#utility.yul\":766:885   */\n              iszero\n              tag_177\n              jumpi\n                /* \"#utility.yul\":804:883   */\n              tag_178\n              tag_128\n              jump\t// in\n            tag_178:\n                /* \"#utility.yul\":766:885   */\n            tag_177:\n                /* \"#utility.yul\":924:925   */\n              0x00\n                /* \"#utility.yul\":949:1002   */\n              tag_179\n                /* \"#utility.yul\":994:1001   */\n              dup5\n                /* \"#utility.yul\":985:991   */\n              dup3\n                /* \"#utility.yul\":974:983   */\n              dup6\n                /* \"#utility.yul\":970:992   */\n              add\n                /* \"#utility.yul\":949:1002   */\n              tag_132\n              jump\t// in\n            tag_179:\n                /* \"#utility.yul\":939:1002   */\n              swap2\n              pop\n                /* \"#utility.yul\":895:1012   */\n              pop\n                /* \"#utility.yul\":690:1019   */\n              swap3\n              swap2\n              pop\n              pop\n              jump\t// out\n                /* \"#utility.yul\":1025:1124   */\n            tag_133:\n                /* \"#utility.yul\":1077:1083   */\n              0x00\n                /* \"#utility.yul\":1111:1116   */\n              dup2\n                /* \"#utility.yul\":1105:1117   */\n              mload\n                /* \"#utility.yul\":1095:1117   */\n              swap1\n              pop\n                /* \"#utility.yul\":1025:1124   */\n              swap2\n              swap1\n              pop\n              jump\t// out\n                /* \"#utility.yul\":1130:1299   */\n            tag_134:\n                /* \"#utility.yul\":1214:1225   */\n              0x00\n                /* \"#utility.yul\":1248:1254   */\n              dup3\n                /* \"#utility.yul\":1243:1246   */\n              dup3\n                /* \"#utility.yul\":1236:1255   */\n              mstore\n                /* \"#utility.yul\":1288:1292   */\n              0x20\n                /* \"#utility.yul\":1283:1286   */\n              dup3\n                /* \"#utility.yul\":1279:1293   */\n              add\n                /* \"#utility.yul\":1264:1293   */\n              swap1\n              pop\n                /* \"#utility.yul\":1130:1299   */\n              swap3\n              swap2\n              pop\n              pop\n              jump\t// out\n                /* \"#utility.yul\":1305:1612   */\n            tag_135:\n                /* \"#utility.yul\":1373:1374   */\n              0x00\n                /* \"#utility.yul\":1383:1496   */\n            tag_183:\n                /* \"#utility.yul\":1397:1403   */\n              dup4\n                /* \"#utility.yul\":1394:1395   */\n              dup2\n                /* \"#utility.yul\":1391:1404   */\n              lt\n                /* \"#utility.yul\":1383:1496   */\n              iszero\n              tag_185\n              jumpi\n                /* \"#utility.yul\":1482:1483   */\n              dup1\n                /* \"#utility.yul\":1477:1480   */\n              dup3\n                /* \"#utility.yul\":1473:1484   */\n              add\n                /* \"#utility.yul\":1467:1485   */\n              mload\n                /* \"#utility.yul\":1463:1464   */\n              dup2\n                /* \"#utility.yul\":1458:1461   */\n              dup5\n                /* \"#utility.yul\":1454:1465   */\n              add\n                /* \"#utility.yul\":1447:1486   */\n              mstore\n                /* \"#utility.yul\":1419:1421   */\n              0x20\n                /* \"#utility.yul\":1416:1417   */\n              dup2\n                /* \"#utility.yul\":1412:1422   */\n              add\n                /* \"#utility.yul\":1407:1422   */\n              swap1\n              pop\n                /* \"#utility.yul\":1383:1496   */\n              jump(tag_183)\n            tag_185:\n                /* \"#utility.yul\":1514:1520   */\n              dup4\n                /* \"#utility.yul\":1511:1512   */\n              dup2\n                /* \"#utility.yul\":1508:1521   */\n              gt\n                /* \"#utility.yul\":1505:1606   */\n              iszero\n              tag_186\n              jumpi\n                /* \"#utility.yul\":1594:1595   */\n              0x00\n                /* \"#utility.yul\":1585:1591   */\n              dup5\n                /* \"#utility.yul\":1580:1583   */\n              dup5\n                /* \"#utility.yul\":1576:1592   */\n              add\n                /* \"#utility.yul\":1569:1596   */\n              mstore\n                /* \"#utility.yul\":1505:1606   */\n            tag_186:\n                /* \"#utility.yul\":1354:1612   */\n              pop\n                /* \"#utility.yul\":1305:1612   */\n              pop\n              pop\n              pop\n              jump\t// out\n                /* \"#utility.yul\":1618:1720   */\n            tag_136:\n                /* \"#utility.yul\":1659:1665   */\n              0x00\n                /* \"#utility.yul\":1710:1712   */\n              0x1f\n                /* \"#utility.yul\":1706:1713   */\n              not\n                /* \"#utility.yul\":1701:1703   */\n              0x1f\n                /* \"#utility.yul\":1694:1699   */\n              dup4\n                /* \"#utility.yul\":1690:1704   */\n              add\n                /* \"#utility.yul\":1686:1714   */\n              and\n                /* \"#utility.yul\":1676:1714   */\n              swap1\n              pop\n                /* \"#utility.yul\":1618:1720   */\n              swap2\n              swap1\n              pop\n              jump\t// out\n                /* \"#utility.yul\":1726:2090   */\n            tag_137:\n                /* \"#utility.yul\":1814:1817   */\n              0x00\n                /* \"#utility.yul\":1842:1881   */\n              tag_189\n                /* \"#utility.yul\":1875:1880   */\n              dup3\n                /* \"#utility.yul\":1842:1881   */\n              tag_133\n              jump\t// in\n            tag_189:\n                /* \"#utility.yul\":1897:1968   */\n              tag_190\n                /* \"#utility.yul\":1961:1967   */\n              dup2\n                /* \"#utility.yul\":1956:1959   */\n              dup6\n                /* \"#utility.yul\":1897:1968   */\n              tag_134\n              jump\t// in\n            tag_190:\n                /* \"#utility.yul\":1890:1968   */\n              swap4\n              pop\n                /* \"#utility.yul\":1977:2029   */\n              tag_191\n                /* \"#utility.yul\":2022:2028   */\n              dup2\n                /* \"#utility.yul\":2017:2020   */\n              dup6\n                /* \"#utility.yul\":2010:2014   */\n              0x20\n                /* \"#utility.yul\":2003:2008   */\n              dup7\n                /* \"#utility.yul\":1999:2015   */\n              add\n                /* \"#utility.yul\":1977:2029   */\n              tag_135\n              jump\t// in\n            tag_191:\n                /* \"#utility.yul\":2054:2083   */\n              tag_192\n                /* \"#utility.yul\":2076:2082   */\n              dup2\n                /* \"#utility.yul\":2054:2083   */\n              tag_136\n              jump\t// in\n            tag_192:\n                /* \"#utility.yul\":2049:2052   */\n              dup5\n                /* \"#utility.yul\":2045:2084   */\n              add\n                /* \"#utility.yul\":2038:2084   */\n              swap2\n              pop\n                /* \"#utility.yul\":1818:2090   */\n              pop\n                /* \"#utility.yul\":1726:2090   */\n              swap3\n              swap2\n              pop\n              pop\n              jump\t// out\n                /* \"#utility.yul\":2096:2222   */\n            tag_138:\n                /* \"#utility.yul\":2133:2140   */\n              0x00\n                /* \"#utility.yul\":2173:2215   */\n              0xffffffffffffffffffffffffffffffffffffffff\n                /* \"#utility.yul\":2166:2171   */\n              dup3\n                /* \"#utility.yul\":2162:2216   */\n              and\n                /* \"#utility.yul\":2151:2216   */\n              swap1\n              pop\n                /* \"#utility.yul\":2096:2222   */\n              swap2\n              swap1\n              pop\n              jump\t// out\n                /* \"#utility.yul\":2228:2324   */\n            tag_139:\n                /* \"#utility.yul\":2265:2272   */\n              0x00\n                /* \"#utility.yul\":2294:2318   */\n              tag_195\n                /* \"#utility.yul\":2312:2317   */\n              dup3\n                /* \"#utility.yul\":2294:2318   */\n              tag_138\n              jump\t// in\n            tag_195:\n                /* \"#utility.yul\":2283:2318   */\n              swap1\n              pop\n                /* \"#utility.yul\":2228:2324   */\n              swap2\n              swap1\n              pop\n              jump\t// out\n                /* \"#utility.yul\":2330:2448   */\n            tag_140:\n                /* \"#utility.yul\":2417:2441   */\n              tag_197\n                /* \"#utility.yul\":2435:2440   */\n              dup2\n                /* \"#utility.yul\":2417:2441   */\n              tag_139\n              jump\t// in\n            tag_197:\n                /* \"#utility.yul\":2412:2415   */\n              dup3\n                /* \"#utility.yul\":2405:2442   */\n              mstore\n                /* \"#utility.yul\":2330:2448   */\n              pop\n              pop\n              jump\t// out\n                /* \"#utility.yul\":2454:2572   */\n            tag_141:\n                /* \"#utility.yul\":2541:2565   */\n              tag_199\n                /* \"#utility.yul\":2559:2564   */\n              dup2\n                /* \"#utility.yul\":2541:2565   */\n              tag_130\n              jump\t// in\n            tag_199:\n                /* \"#utility.yul\":2536:2539   */\n              dup3\n                /* \"#utility.yul\":2529:2566   */\n              mstore\n                /* \"#utility.yul\":2454:2572   */\n              pop\n              pop\n              jump\t// out\n                /* \"#utility.yul\":2578:3313   */\n            tag_19:\n                /* \"#utility.yul\":2795:2799   */\n              0x00\n                /* \"#utility.yul\":2833:2836   */\n              0x80\n                /* \"#utility.yul\":2822:2831   */\n              dup3\n                /* \"#utility.yul\":2818:2837   */\n              add\n                /* \"#utility.yul\":2810:2837   */\n              swap1\n              pop\n                /* \"#utility.yul\":2883:2892   */\n              dup2\n                /* \"#utility.yul\":2877:2881   */\n              dup2\n                /* \"#utility.yul\":2873:2893   */\n              sub\n                /* \"#utility.yul\":2869:2870   */\n              0x00\n                /* \"#utility.yul\":2858:2867   */\n              dup4\n                /* \"#utility.yul\":2854:2871   */\n              add\n                /* \"#utility.yul\":2847:2894   */\n              mstore\n                /* \"#utility.yul\":2911:2989   */\n              tag_201\n                /* \"#utility.yul\":2984:2988   */\n              dup2\n                /* \"#utility.yul\":2975:2981   */\n              dup8\n                /* \"#utility.yul\":2911:2989   */\n              tag_137\n              jump\t// in\n            tag_201:\n                /* \"#utility.yul\":2903:2989   */\n              swap1\n              pop\n                /* \"#utility.yul\":2999:3071   */\n              tag_202\n                /* \"#utility.yul\":3067:3069   */\n              0x20\n                /* \"#utility.yul\":3056:3065   */\n              dup4\n                /* \"#utility.yul\":3052:3070   */\n              add\n                /* \"#utility.yul\":3043:3049   */\n              dup7\n                /* \"#utility.yul\":2999:3071   */\n              tag_140\n              jump\t// in\n            tag_202:\n                /* \"#utility.yul\":3118:3127   */\n              dup2\n                /* \"#utility.yul\":3112:3116   */\n              dup2\n                /* \"#utility.yul\":3108:3128   */\n              sub\n                /* \"#utility.yul\":3103:3105   */\n              0x40\n                /* \"#utility.yul\":3092:3101   */\n              dup4\n                /* \"#utility.yul\":3088:3106   */\n              add\n                /* \"#utility.yul\":3081:3129   */\n              mstore\n                /* \"#utility.yul\":3146:3224   */\n              tag_203\n                /* \"#utility.yul\":3219:3223   */\n              dup2\n                /* \"#utility.yul\":3210:3216   */\n              dup6\n                /* \"#utility.yul\":3146:3224   */\n              tag_137\n              jump\t// in\n            tag_203:\n                /* \"#utility.yul\":3138:3224   */\n              swap1\n              pop\n                /* \"#utility.yul\":3234:3306   */\n              tag_204\n                /* \"#utility.yul\":3302:3304   */\n              0x60\n                /* \"#utility.yul\":3291:3300   */\n              dup4\n                /* \"#utility.yul\":3287:3305   */\n              add\n                /* \"#utility.yul\":3278:3284   */\n              dup5\n                /* \"#utility.yul\":3234:3306   */\n              tag_141\n              jump\t// in\n            tag_204:\n                /* \"#utility.yul\":2578:3313   */\n              swap6\n              swap5\n              pop\n              pop\n              pop\n              pop\n              pop\n              jump\t// out\n                /* \"#utility.yul\":3319:3436   */\n            tag_142:\n                /* \"#utility.yul\":3428:3429   */\n              0x00\n                /* \"#utility.yul\":3425:3426   */\n              dup1\n                /* \"#utility.yul\":3418:3430   */\n              revert\n                /* \"#utility.yul\":3442:3559   */\n            tag_143:\n                /* \"#utility.yul\":3551:3552   */\n              0x00\n                /* \"#utility.yul\":3548:3549   */\n              dup1\n                /* \"#utility.yul\":3541:3553   */\n              revert\n                /* \"#utility.yul\":3565:3745   */\n            tag_144:\n                /* \"#utility.yul\":3613:3690   */\n              0x4e487b7100000000000000000000000000000000000000000000000000000000\n                /* \"#utility.yul\":3610:3611   */\n              0x00\n                /* \"#utility.yul\":3603:3691   */\n              mstore\n                /* \"#utility.yul\":3710:3714   */\n              0x41\n                /* \"#utility.yul\":3707:3708   */\n              0x04\n                /* \"#utility.yul\":3700:3715   */\n              mstore\n                /* \"#utility.yul\":3734:3738   */\n              0x24\n                /* \"#utility.yul\":3731:3732   */\n              0x00\n                /* \"#utility.yul\":3724:3739   */\n              revert\n                /* \"#utility.yul\":3751:4032   */\n            tag_145:\n                /* \"#utility.yul\":3834:3861   */\n              tag_209\n                /* \"#utility.yul\":3856:3860   */\n              dup3\n                /* \"#utility.yul\":3834:3861   */\n              tag_136\n              jump\t// in\n            tag_209:\n                /* \"#utility.yul\":3826:3832   */\n              dup2\n                /* \"#utility.yul\":3822:3862   */\n              add\n                /* \"#utility.yul\":3964:3970   */\n              dup2\n                /* \"#utility.yul\":3952:3962   */\n              dup2\n                /* \"#utility.yul\":3949:3971   */\n              lt\n                /* \"#utility.yul\":3928:3946   */\n              0xffffffffffffffff\n                /* \"#utility.yul\":3916:3926   */\n              dup3\n                /* \"#utility.yul\":3913:3947   */\n              gt\n                /* \"#utility.yul\":3910:3972   */\n              or\n                /* \"#utility.yul\":3907:3995   */\n              iszero\n              tag_210\n              jumpi\n                /* \"#utility.yul\":3975:3993   */\n              tag_211\n              tag_144\n              jump\t// in\n            tag_211:\n                /* \"#utility.yul\":3907:3995   */\n            tag_210:\n                /* \"#utility.yul\":4015:4025   */\n              dup1\n                /* \"#utility.yul\":4011:4013   */\n              0x40\n                /* \"#utility.yul\":4004:4026   */\n              mstore\n                /* \"#utility.yul\":3794:4032   */\n              pop\n                /* \"#utility.yul\":3751:4032   */\n              pop\n              pop\n              jump\t// out\n                /* \"#utility.yul\":4038:4167   */\n            tag_146:\n                /* \"#utility.yul\":4072:4078   */\n              0x00\n                /* \"#utility.yul\":4099:4119   */\n              tag_213\n              tag_127\n              jump\t// in\n            tag_213:\n                /* \"#utility.yul\":4089:4119   */\n              swap1\n              pop\n                /* \"#utility.yul\":4128:4161   */\n              tag_214\n                /* \"#utility.yul\":4156:4160   */\n              dup3\n                /* \"#utility.yul\":4148:4154   */\n              dup3\n                /* \"#utility.yul\":4128:4161   */\n              tag_145\n              jump\t// in\n            tag_214:\n                /* \"#utility.yul\":4038:4167   */\n              swap2\n              swap1\n              pop\n              jump\t// out\n                /* \"#utility.yul\":4173:4481   */\n            tag_147:\n                /* \"#utility.yul\":4235:4239   */\n              0x00\n                /* \"#utility.yul\":4325:4343   */\n              0xffffffffffffffff\n                /* \"#utility.yul\":4317:4323   */\n              dup3\n                /* \"#utility.yul\":4314:4344   */\n              gt\n                /* \"#utility.yul\":4311:4367   */\n              iszero\n              tag_216\n              jumpi\n                /* \"#utility.yul\":4347:4365   */\n              tag_217\n              tag_144\n              jump\t// in\n            tag_217:\n                /* \"#utility.yul\":4311:4367   */\n            tag_216:\n                /* \"#utility.yul\":4385:4414   */\n              tag_218\n                /* \"#utility.yul\":4407:4413   */\n              dup3\n                /* \"#utility.yul\":4385:4414   */\n              tag_136\n              jump\t// in\n            tag_218:\n                /* \"#utility.yul\":4377:4414   */\n              swap1\n              pop\n                /* \"#utility.yul\":4469:4473   */\n              0x20\n                /* \"#utility.yul\":4463:4467   */\n              dup2\n                /* \"#utility.yul\":4459:4474   */\n              add\n                /* \"#utility.yul\":4451:4474   */\n              swap1\n              pop\n                /* \"#utility.yul\":4173:4481   */\n              swap2\n              swap1\n              pop\n              jump\t// out\n                /* \"#utility.yul\":4487:4641   */\n            tag_148:\n                /* \"#utility.yul\":4571:4577   */\n              dup3\n                /* \"#utility.yul\":4566:4569   */\n              dup2\n                /* \"#utility.yul\":4561:4564   */\n              dup4\n                /* \"#utility.yul\":4548:4578   */\n              calldatacopy\n                /* \"#utility.yul\":4633:4634   */\n              0x00\n                /* \"#utility.yul\":4624:4630   */\n              dup4\n                /* \"#utility.yul\":4619:4622   */\n              dup4\n                /* \"#utility.yul\":4615:4631   */\n              add\n                /* \"#utility.yul\":4608:4635   */\n              mstore\n                /* \"#utility.yul\":4487:4641   */\n              pop\n              pop\n              pop\n              jump\t// out\n                /* \"#utility.yul\":4647:5059   */\n            tag_149:\n                /* \"#utility.yul\":4725:4730   */\n              0x00\n                /* \"#utility.yul\":4750:4816   */\n              tag_221\n                /* \"#utility.yul\":4766:4815   */\n              tag_222\n                /* \"#utility.yul\":4808:4814   */\n              dup5\n                /* \"#utility.yul\":4766:4815   */\n              tag_147\n              jump\t// in\n            tag_222:\n                /* \"#utility.yul\":4750:4816   */\n              tag_146\n              jump\t// in\n            tag_221:\n                /* \"#utility.yul\":4741:4816   */\n              swap1\n              pop\n                /* \"#utility.yul\":4839:4845   */\n              dup3\n                /* \"#utility.yul\":4832:4837   */\n              dup2\n                /* \"#utility.yul\":4825:4846   */\n              mstore\n                /* \"#utility.yul\":4877:4881   */\n              0x20\n                /* \"#utility.yul\":4870:4875   */\n              dup2\n                /* \"#utility.yul\":4866:4882   */\n              add\n                /* \"#utility.yul\":4915:4918   */\n              dup5\n                /* \"#utility.yul\":4906:4912   */\n              dup5\n                /* \"#utility.yul\":4901:4904   */\n              dup5\n                /* \"#utility.yul\":4897:4913   */\n              add\n                /* \"#utility.yul\":4894:4919   */\n              gt\n                /* \"#utility.yul\":4891:5003   */\n              iszero\n              tag_223\n              jumpi\n                /* \"#utility.yul\":4922:5001   */\n              tag_224\n              tag_143\n              jump\t// in\n            tag_224:\n                /* \"#utility.yul\":4891:5003   */\n            tag_223:\n                /* \"#utility.yul\":5012:5053   */\n              tag_225\n                /* \"#utility.yul\":5046:5052   */\n              dup5\n                /* \"#utility.yul\":5041:5044   */\n              dup3\n                /* \"#utility.yul\":5036:5039   */\n              dup6\n                /* \"#utility.yul\":5012:5053   */\n              tag_148\n              jump\t// in\n            tag_225:\n                /* \"#utility.yul\":4731:5059   */\n              pop\n                /* \"#utility.yul\":4647:5059   */\n              swap4\n              swap3\n              pop\n              pop\n              pop\n              jump\t// out\n                /* \"#utility.yul\":5079:5419   */\n            tag_150:\n                /* \"#utility.yul\":5135:5140   */\n              0x00\n                /* \"#utility.yul\":5184:5187   */\n              dup3\n                /* \"#utility.yul\":5177:5181   */\n              0x1f\n                /* \"#utility.yul\":5169:5175   */\n              dup4\n                /* \"#utility.yul\":5165:5182   */\n              add\n                /* \"#utility.yul\":5161:5188   */\n              slt\n                /* \"#utility.yul\":5151:5273   */\n              tag_227\n              jumpi\n                /* \"#utility.yul\":5192:5271   */\n              tag_228\n              tag_142\n              jump\t// in\n            tag_228:\n                /* \"#utility.yul\":5151:5273   */\n            tag_227:\n                /* \"#utility.yul\":5309:5315   */\n              dup2\n                /* \"#utility.yul\":5296:5316   */\n              calldataload\n                /* \"#utility.yul\":5334:5413   */\n              tag_229\n                /* \"#utility.yul\":5409:5412   */\n              dup5\n                /* \"#utility.yul\":5401:5407   */\n              dup3\n                /* \"#utility.yul\":5394:5398   */\n              0x20\n                /* \"#utility.yul\":5386:5392   */\n              dup7\n                /* \"#utility.yul\":5382:5399   */\n              add\n                /* \"#utility.yul\":5334:5413   */\n              tag_149\n              jump\t// in\n            tag_229:\n                /* \"#utility.yul\":5325:5413   */\n              swap2\n              pop\n                /* \"#utility.yul\":5141:5419   */\n              pop\n                /* \"#utility.yul\":5079:5419   */\n              swap3\n              swap2\n              pop\n              pop\n              jump\t// out\n                /* \"#utility.yul\":5425:5547   */\n            tag_151:\n                /* \"#utility.yul\":5498:5522   */\n              tag_231\n                /* \"#utility.yul\":5516:5521   */\n              dup2\n                /* \"#utility.yul\":5498:5522   */\n              tag_139\n              jump\t// in\n            tag_231:\n                /* \"#utility.yul\":5491:5496   */\n              dup2\n                /* \"#utility.yul\":5488:5523   */\n              eq\n                /* \"#utility.yul\":5478:5541   */\n              tag_232\n              jumpi\n                /* \"#utility.yul\":5537:5538   */\n              0x00\n                /* \"#utility.yul\":5534:5535   */\n              dup1\n                /* \"#utility.yul\":5527:5539   */\n              revert\n                /* \"#utility.yul\":5478:5541   */\n            tag_232:\n                /* \"#utility.yul\":5425:5547   */\n              pop\n              jump\t// out\n                /* \"#utility.yul\":5553:5692   */\n            tag_152:\n                /* \"#utility.yul\":5599:5604   */\n              0x00\n                /* \"#utility.yul\":5637:5643   */\n              dup2\n                /* \"#utility.yul\":5624:5644   */\n              calldataload\n                /* \"#utility.yul\":5615:5644   */\n              swap1\n              pop\n                /* \"#utility.yul\":5653:5686   */\n              tag_234\n                /* \"#utility.yul\":5680:5685   */\n              dup2\n                /* \"#utility.yul\":5653:5686   */\n              tag_151\n              jump\t// in\n            tag_234:\n                /* \"#utility.yul\":5553:5692   */\n              swap3\n              swap2\n              pop\n              pop\n              jump\t// out\n                /* \"#utility.yul\":5698:6677   */\n            tag_26:\n                /* \"#utility.yul\":5795:5801   */\n              0x00\n                /* \"#utility.yul\":5803:5809   */\n              dup1\n                /* \"#utility.yul\":5811:5817   */\n              0x00\n                /* \"#utility.yul\":5860:5862   */\n              0x60\n                /* \"#utility.yul\":5848:5857   */\n              dup5\n                /* \"#utility.yul\":5839:5846   */\n              dup7\n                /* \"#utility.yul\":5835:5858   */\n              sub\n                /* \"#utility.yul\":5831:5863   */\n              slt\n                /* \"#utility.yul\":5828:5947   */\n              iszero\n              tag_236\n              jumpi\n                /* \"#utility.yul\":5866:5945   */\n              tag_237\n              tag_128\n              jump\t// in\n            tag_237:\n                /* \"#utility.yul\":5828:5947   */\n            tag_236:\n                /* \"#utility.yul\":6014:6015   */\n              0x00\n                /* \"#utility.yul\":6003:6012   */\n              dup5\n                /* \"#utility.yul\":5999:6016   */\n              add\n                /* \"#utility.yul\":5986:6017   */\n              calldataload\n                /* \"#utility.yul\":6044:6062   */\n              0xffffffffffffffff\n                /* \"#utility.yul\":6036:6042   */\n              dup2\n                /* \"#utility.yul\":6033:6063   */\n              gt\n                /* \"#utility.yul\":6030:6147   */\n              iszero\n              tag_238\n              jumpi\n                /* \"#utility.yul\":6066:6145   */\n              tag_239\n              tag_129\n              jump\t// in\n            tag_239:\n                /* \"#utility.yul\":6030:6147   */\n            tag_238:\n                /* \"#utility.yul\":6171:6234   */\n              tag_240\n                /* \"#utility.yul\":6226:6233   */\n              dup7\n                /* \"#utility.yul\":6217:6223   */\n              dup3\n                /* \"#utility.yul\":6206:6215   */\n              dup8\n                /* \"#utility.yul\":6202:6224   */\n              add\n                /* \"#utility.yul\":6171:6234   */\n              tag_150\n              jump\t// in\n            tag_240:\n                /* \"#utility.yul\":6161:6234   */\n              swap4\n              pop\n                /* \"#utility.yul\":5957:6244   */\n              pop\n                /* \"#utility.yul\":6283:6285   */\n              0x20\n                /* \"#utility.yul\":6309:6362   */\n              tag_241\n                /* \"#utility.yul\":6354:6361   */\n              dup7\n                /* \"#utility.yul\":6345:6351   */\n              dup3\n                /* \"#utility.yul\":6334:6343   */\n              dup8\n                /* \"#utility.yul\":6330:6352   */\n              add\n                /* \"#utility.yul\":6309:6362   */\n              tag_152\n              jump\t// in\n            tag_241:\n                /* \"#utility.yul\":6299:6362   */\n              swap3\n              pop\n                /* \"#utility.yul\":6254:6372   */\n              pop\n                /* \"#utility.yul\":6439:6441   */\n              0x40\n                /* \"#utility.yul\":6428:6437   */\n              dup5\n                /* \"#utility.yul\":6424:6442   */\n              add\n                /* \"#utility.yul\":6411:6443   */\n              calldataload\n                /* \"#utility.yul\":6470:6488   */\n              0xffffffffffffffff\n                /* \"#utility.yul\":6462:6468   */\n              dup2\n                /* \"#utility.yul\":6459:6489   */\n              gt\n                /* \"#utility.yul\":6456:6573   */\n              iszero\n              tag_242\n              jumpi\n                /* \"#utility.yul\":6492:6571   */\n              tag_243\n              tag_129\n              jump\t// in\n            tag_243:\n                /* \"#utility.yul\":6456:6573   */\n            tag_242:\n                /* \"#utility.yul\":6597:6660   */\n              tag_244\n                /* \"#utility.yul\":6652:6659   */\n              dup7\n                /* \"#utility.yul\":6643:6649   */\n              dup3\n                /* \"#utility.yul\":6632:6641   */\n              dup8\n                /* \"#utility.yul\":6628:6650   */\n              add\n                /* \"#utility.yul\":6597:6660   */\n              tag_150\n              jump\t// in\n            tag_244:\n                /* \"#utility.yul\":6587:6660   */\n              swap2\n              pop\n                /* \"#utility.yul\":6382:6670   */\n              pop\n                /* \"#utility.yul\":5698:6677   */\n              swap3\n              pop\n              swap3\n              pop\n              swap3\n              jump\t// out\n                /* \"#utility.yul\":6683:7337   */\n            tag_30:\n                /* \"#utility.yul\":6761:6767   */\n              0x00\n                /* \"#utility.yul\":6769:6775   */\n              dup1\n                /* \"#utility.yul\":6818:6820   */\n              0x40\n                /* \"#utility.yul\":6806:6815   */\n              dup4\n                /* \"#utility.yul\":6797:6804   */\n              dup6\n                /* \"#utility.yul\":6793:6816   */\n              sub\n                /* \"#utility.yul\":6789:6821   */\n              slt\n                /* \"#utility.yul\":6786:6905   */\n              iszero\n              tag_246\n              jumpi\n                /* \"#utility.yul\":6824:6903   */\n              tag_247\n              tag_128\n              jump\t// in\n            tag_247:\n                /* \"#utility.yul\":6786:6905   */\n            tag_246:\n                /* \"#utility.yul\":6972:6973   */\n              0x00\n                /* \"#utility.yul\":6961:6970   */\n              dup4\n                /* \"#utility.yul\":6957:6974   */\n              add\n                /* \"#utility.yul\":6944:6975   */\n              calldataload\n                /* \"#utility.yul\":7002:7020   */\n              0xffffffffffffffff\n                /* \"#utility.yul\":6994:7000   */\n              dup2\n                /* \"#utility.yul\":6991:7021   */\n              gt\n                /* \"#utility.yul\":6988:7105   */\n              iszero\n              tag_248\n              jumpi\n                /* \"#utility.yul\":7024:7103   */\n              tag_249\n              tag_129\n              jump\t// in\n            tag_249:\n                /* \"#utility.yul\":6988:7105   */\n            tag_248:\n                /* \"#utility.yul\":7129:7192   */\n              tag_250\n                /* \"#utility.yul\":7184:7191   */\n              dup6\n                /* \"#utility.yul\":7175:7181   */\n              dup3\n                /* \"#utility.yul\":7164:7173   */\n              dup7\n                /* \"#utility.yul\":7160:7182   */\n              add\n                /* \"#utility.yul\":7129:7192   */\n              tag_150\n              jump\t// in\n            tag_250:\n                /* \"#utility.yul\":7119:7192   */\n              swap3\n              pop\n                /* \"#utility.yul\":6915:7202   */\n              pop\n                /* \"#utility.yul\":7241:7243   */\n              0x20\n                /* \"#utility.yul\":7267:7320   */\n              tag_251\n                /* \"#utility.yul\":7312:7319   */\n              dup6\n                /* \"#utility.yul\":7303:7309   */\n              dup3\n                /* \"#utility.yul\":7292:7301   */\n              dup7\n                /* \"#utility.yul\":7288:7310   */\n              add\n                /* \"#utility.yul\":7267:7320   */\n              tag_152\n              jump\t// in\n            tag_251:\n                /* \"#utility.yul\":7257:7320   */\n              swap2\n              pop\n                /* \"#utility.yul\":7212:7330   */\n              pop\n                /* \"#utility.yul\":6683:7337   */\n              swap3\n              pop\n              swap3\n              swap1\n              pop\n              jump\t// out\n                /* \"#utility.yul\":7343:7479   */\n            tag_153:\n                /* \"#utility.yul\":7432:7438   */\n              0x00\n                /* \"#utility.yul\":7466:7471   */\n              dup2\n                /* \"#utility.yul\":7460:7472   */\n              mload\n                /* \"#utility.yul\":7450:7472   */\n              swap1\n              pop\n                /* \"#utility.yul\":7343:7479   */\n              swap2\n              swap1\n              pop\n              jump\t// out\n                /* \"#utility.yul\":7485:7691   */\n            tag_154:\n                /* \"#utility.yul\":7606:7617   */\n              0x00\n                /* \"#utility.yul\":7640:7646   */\n              dup3\n                /* \"#utility.yul\":7635:7638   */\n              dup3\n                /* \"#utility.yul\":7628:7647   */\n              mstore\n                /* \"#utility.yul\":7680:7684   */\n              0x20\n                /* \"#utility.yul\":7675:7678   */\n              dup3\n                /* \"#utility.yul\":7671:7685   */\n              add\n                /* \"#utility.yul\":7656:7685   */\n              swap1\n              pop\n                /* \"#utility.yul\":7485:7691   */\n              swap3\n              swap2\n              pop\n              pop\n              jump\t// out\n                /* \"#utility.yul\":7697:7851   */\n            tag_155:\n                /* \"#utility.yul\":7786:7790   */\n              0x00\n                /* \"#utility.yul\":7809:7812   */\n              dup2\n                /* \"#utility.yul\":7801:7812   */\n              swap1\n              pop\n                /* \"#utility.yul\":7839:7843   */\n              0x20\n                /* \"#utility.yul\":7834:7837   */\n              dup3\n                /* \"#utility.yul\":7830:7844   */\n              add\n                /* \"#utility.yul\":7822:7844   */\n              swap1\n              pop\n                /* \"#utility.yul\":7697:7851   */\n              swap2\n              swap1\n              pop\n              jump\t// out\n                /* \"#utility.yul\":7857:8016   */\n            tag_156:\n                /* \"#utility.yul\":7931:7942   */\n              0x00\n                /* \"#utility.yul\":7965:7971   */\n              dup3\n                /* \"#utility.yul\":7960:7963   */\n              dup3\n                /* \"#utility.yul\":7953:7972   */\n              mstore\n                /* \"#utility.yul\":8005:8009   */\n              0x20\n                /* \"#utility.yul\":8000:8003   */\n              dup3\n                /* \"#utility.yul\":7996:8010   */\n              add\n                /* \"#utility.yul\":7981:8010   */\n              swap1\n              pop\n                /* \"#utility.yul\":7857:8016   */\n              swap3\n              swap2\n              pop\n              pop\n              jump\t// out\n                /* \"#utility.yul\":8022:8366   */\n            tag_157:\n                /* \"#utility.yul\":8100:8103   */\n              0x00\n                /* \"#utility.yul\":8128:8167   */\n              tag_257\n                /* \"#utility.yul\":8161:8166   */\n              dup3\n                /* \"#utility.yul\":8128:8167   */\n              tag_133\n              jump\t// in\n            tag_257:\n                /* \"#utility.yul\":8183:8244   */\n              tag_258\n                /* \"#utility.yul\":8237:8243   */\n              dup2\n                /* \"#utility.yul\":8232:8235   */\n              dup6\n                /* \"#utility.yul\":8183:8244   */\n              tag_156\n              jump\t// in\n            tag_258:\n                /* \"#utility.yul\":8176:8244   */\n              swap4\n              pop\n                /* \"#utility.yul\":8253:8305   */\n              tag_259\n                /* \"#utility.yul\":8298:8304   */\n              dup2\n                /* \"#utility.yul\":8293:8296   */\n              dup6\n                /* \"#utility.yul\":8286:8290   */\n              0x20\n                /* \"#utility.yul\":8279:8284   */\n              dup7\n                /* \"#utility.yul\":8275:8291   */\n              add\n                /* \"#utility.yul\":8253:8305   */\n              tag_135\n              jump\t// in\n            tag_259:\n                /* \"#utility.yul\":8330:8359   */\n              tag_260\n                /* \"#utility.yul\":8352:8358   */\n              dup2\n                /* \"#utility.yul\":8330:8359   */\n              tag_136\n              jump\t// in\n            tag_260:\n                /* \"#utility.yul\":8325:8328   */\n              dup5\n                /* \"#utility.yul\":8321:8360   */\n              add\n                /* \"#utility.yul\":8314:8360   */\n              swap2\n              pop\n                /* \"#utility.yul\":8104:8366   */\n              pop\n                /* \"#utility.yul\":8022:8366   */\n              swap3\n              swap2\n              pop\n              pop\n              jump\t// out\n                /* \"#utility.yul\":8372:8480   */\n            tag_158:\n                /* \"#utility.yul\":8449:8473   */\n              tag_262\n                /* \"#utility.yul\":8467:8472   */\n              dup2\n                /* \"#utility.yul\":8449:8473   */\n              tag_139\n              jump\t// in\n            tag_262:\n                /* \"#utility.yul\":8444:8447   */\n              dup3\n                /* \"#utility.yul\":8437:8474   */\n              mstore\n                /* \"#utility.yul\":8372:8480   */\n              pop\n              pop\n              jump\t// out\n                /* \"#utility.yul\":8486:8594   */\n            tag_159:\n                /* \"#utility.yul\":8563:8587   */\n              tag_264\n                /* \"#utility.yul\":8581:8586   */\n              dup2\n                /* \"#utility.yul\":8563:8587   */\n              tag_130\n              jump\t// in\n            tag_264:\n                /* \"#utility.yul\":8558:8561   */\n              dup3\n                /* \"#utility.yul\":8551:8588   */\n              mstore\n                /* \"#utility.yul\":8486:8594   */\n              pop\n              pop\n              jump\t// out\n                /* \"#utility.yul\":8652:9661   */\n            tag_160:\n                /* \"#utility.yul\":8755:8758   */\n              0x00\n                /* \"#utility.yul\":8791:8795   */\n              0x80\n                /* \"#utility.yul\":8786:8789   */\n              dup4\n                /* \"#utility.yul\":8782:8796   */\n              add\n                /* \"#utility.yul\":8878:8882   */\n              0x00\n                /* \"#utility.yul\":8871:8876   */\n              dup4\n                /* \"#utility.yul\":8867:8883   */\n              add\n                /* \"#utility.yul\":8861:8884   */\n              mload\n                /* \"#utility.yul\":8931:8934   */\n              dup5\n                /* \"#utility.yul\":8925:8929   */\n              dup3\n                /* \"#utility.yul\":8921:8935   */\n              sub\n                /* \"#utility.yul\":8914:8918   */\n              0x00\n                /* \"#utility.yul\":8909:8912   */\n              dup7\n                /* \"#utility.yul\":8905:8919   */\n              add\n                /* \"#utility.yul\":8898:8936   */\n              mstore\n                /* \"#utility.yul\":8957:9030   */\n              tag_266\n                /* \"#utility.yul\":9025:9029   */\n              dup3\n                /* \"#utility.yul\":9011:9023   */\n              dup3\n                /* \"#utility.yul\":8957:9030   */\n              tag_157\n              jump\t// in\n            tag_266:\n                /* \"#utility.yul\":8949:9030   */\n              swap2\n              pop\n                /* \"#utility.yul\":8806:9041   */\n              pop\n                /* \"#utility.yul\":9121:9125   */\n              0x20\n                /* \"#utility.yul\":9114:9119   */\n              dup4\n                /* \"#utility.yul\":9110:9126   */\n              add\n                /* \"#utility.yul\":9104:9127   */\n              mload\n                /* \"#utility.yul\":9140:9203   */\n              tag_267\n                /* \"#utility.yul\":9197:9201   */\n              0x20\n                /* \"#utility.yul\":9192:9195   */\n              dup7\n                /* \"#utility.yul\":9188:9202   */\n              add\n                /* \"#utility.yul\":9174:9186   */\n              dup3\n                /* \"#utility.yul\":9140:9203   */\n              tag_158\n              jump\t// in\n            tag_267:\n                /* \"#utility.yul\":9051:9213   */\n              pop\n                /* \"#utility.yul\":9296:9300   */\n              0x40\n                /* \"#utility.yul\":9289:9294   */\n              dup4\n                /* \"#utility.yul\":9285:9301   */\n              add\n                /* \"#utility.yul\":9279:9302   */\n              mload\n                /* \"#utility.yul\":9349:9352   */\n              dup5\n                /* \"#utility.yul\":9343:9347   */\n              dup3\n                /* \"#utility.yul\":9339:9353   */\n              sub\n                /* \"#utility.yul\":9332:9336   */\n              0x40\n                /* \"#utility.yul\":9327:9330   */\n              dup7\n                /* \"#utility.yul\":9323:9337   */\n              add\n                /* \"#utility.yul\":9316:9354   */\n              mstore\n                /* \"#utility.yul\":9375:9448   */\n              tag_268\n                /* \"#utility.yul\":9443:9447   */\n              dup3\n                /* \"#utility.yul\":9429:9441   */\n              dup3\n                /* \"#utility.yul\":9375:9448   */\n              tag_157\n              jump\t// in\n            tag_268:\n                /* \"#utility.yul\":9367:9448   */\n              swap2\n              pop\n                /* \"#utility.yul\":9223:9459   */\n              pop\n                /* \"#utility.yul\":9542:9546   */\n              0x60\n                /* \"#utility.yul\":9535:9540   */\n              dup4\n                /* \"#utility.yul\":9531:9547   */\n              add\n                /* \"#utility.yul\":9525:9548   */\n              mload\n                /* \"#utility.yul\":9561:9624   */\n              tag_269\n                /* \"#utility.yul\":9618:9622   */\n              0x60\n                /* \"#utility.yul\":9613:9616   */\n              dup7\n                /* \"#utility.yul\":9609:9623   */\n              add\n                /* \"#utility.yul\":9595:9607   */\n              dup3\n                /* \"#utility.yul\":9561:9624   */\n              tag_159\n              jump\t// in\n            tag_269:\n                /* \"#utility.yul\":9469:9634   */\n              pop\n                /* \"#utility.yul\":9651:9655   */\n              dup1\n                /* \"#utility.yul\":9644:9655   */\n              swap2\n              pop\n                /* \"#utility.yul\":8760:9661   */\n              pop\n                /* \"#utility.yul\":8652:9661   */\n              swap3\n              swap2\n              pop\n              pop\n              jump\t// out\n                /* \"#utility.yul\":9667:9911   */\n            tag_161:\n                /* \"#utility.yul\":9780:9790   */\n              0x00\n                /* \"#utility.yul\":9815:9905   */\n              tag_271\n                /* \"#utility.yul\":9901:9904   */\n              dup4\n                /* \"#utility.yul\":9893:9899   */\n              dup4\n                /* \"#utility.yul\":9815:9905   */\n              tag_160\n              jump\t// in\n            tag_271:\n                /* \"#utility.yul\":9801:9905   */\n              swap1\n              pop\n                /* \"#utility.yul\":9667:9911   */\n              swap3\n              swap2\n              pop\n              pop\n              jump\t// out\n                /* \"#utility.yul\":9917:10052   */\n            tag_162:\n                /* \"#utility.yul\":10009:10013   */\n              0x00\n                /* \"#utility.yul\":10041:10045   */\n              0x20\n                /* \"#utility.yul\":10036:10039   */\n              dup3\n                /* \"#utility.yul\":10032:10046   */\n              add\n                /* \"#utility.yul\":10024:10046   */\n              swap1\n              pop\n                /* \"#utility.yul\":9917:10052   */\n              swap2\n              swap1\n              pop\n              jump\t// out\n                /* \"#utility.yul\":10114:11201   */\n            tag_163:\n                /* \"#utility.yul\":10277:10280   */\n              0x00\n                /* \"#utility.yul\":10306:10382   */\n              tag_274\n                /* \"#utility.yul\":10376:10381   */\n              dup3\n                /* \"#utility.yul\":10306:10382   */\n              tag_153\n              jump\t// in\n            tag_274:\n                /* \"#utility.yul\":10398:10506   */\n              tag_275\n                /* \"#utility.yul\":10499:10505   */\n              dup2\n                /* \"#utility.yul\":10494:10497   */\n              dup6\n                /* \"#utility.yul\":10398:10506   */\n              tag_154\n              jump\t// in\n            tag_275:\n                /* \"#utility.yul\":10391:10506   */\n              swap4\n              pop\n                /* \"#utility.yul\":10532:10535   */\n              dup4\n                /* \"#utility.yul\":10577:10581   */\n              0x20\n                /* \"#utility.yul\":10569:10575   */\n              dup3\n                /* \"#utility.yul\":10565:10582   */\n              mul\n                /* \"#utility.yul\":10560:10563   */\n              dup6\n                /* \"#utility.yul\":10556:10583   */\n              add\n                /* \"#utility.yul\":10607:10685   */\n              tag_276\n                /* \"#utility.yul\":10679:10684   */\n              dup6\n                /* \"#utility.yul\":10607:10685   */\n              tag_155\n              jump\t// in\n            tag_276:\n                /* \"#utility.yul\":10708:10715   */\n              dup1\n                /* \"#utility.yul\":10739:10740   */\n              0x00\n                /* \"#utility.yul\":10724:11156   */\n            tag_277:\n                /* \"#utility.yul\":10749:10755   */\n              dup6\n                /* \"#utility.yul\":10746:10747   */\n              dup2\n                /* \"#utility.yul\":10743:10756   */\n              lt\n                /* \"#utility.yul\":10724:11156   */\n              iszero\n              tag_279\n              jumpi\n                /* \"#utility.yul\":10820:10829   */\n              dup5\n                /* \"#utility.yul\":10814:10818   */\n              dup5\n                /* \"#utility.yul\":10810:10830   */\n              sub\n                /* \"#utility.yul\":10805:10808   */\n              dup10\n                /* \"#utility.yul\":10798:10831   */\n              mstore\n                /* \"#utility.yul\":10871:10877   */\n              dup2\n                /* \"#utility.yul\":10865:10878   */\n              mload\n                /* \"#utility.yul\":10899:11007   */\n              tag_280\n                /* \"#utility.yul\":11002:11006   */\n              dup6\n                /* \"#utility.yul\":10987:11000   */\n              dup3\n                /* \"#utility.yul\":10899:11007   */\n              tag_161\n              jump\t// in\n            tag_280:\n                /* \"#utility.yul\":10891:11007   */\n              swap5\n              pop\n                /* \"#utility.yul\":11030:11112   */\n              tag_281\n                /* \"#utility.yul\":11105:11111   */\n              dup4\n                /* \"#utility.yul\":11030:11112   */\n              tag_162\n              jump\t// in\n            tag_281:\n                /* \"#utility.yul\":11020:11112   */\n              swap3\n              pop\n                /* \"#utility.yul\":11141:11145   */\n              0x20\n                /* \"#utility.yul\":11136:11139   */\n              dup11\n                /* \"#utility.yul\":11132:11146   */\n              add\n                /* \"#utility.yul\":11125:11146   */\n              swap10\n              pop\n                /* \"#utility.yul\":10784:11156   */\n              pop\n                /* \"#utility.yul\":10771:10772   */\n              0x01\n                /* \"#utility.yul\":10768:10769   */\n              dup2\n                /* \"#utility.yul\":10764:10773   */\n              add\n                /* \"#utility.yul\":10759:10773   */\n              swap1\n              pop\n                /* \"#utility.yul\":10724:11156   */\n              jump(tag_277)\n            tag_279:\n                /* \"#utility.yul\":10728:10742   */\n              pop\n                /* \"#utility.yul\":11172:11176   */\n              dup3\n                /* \"#utility.yul\":11165:11176   */\n              swap8\n              pop\n                /* \"#utility.yul\":11192:11195   */\n              dup8\n                /* \"#utility.yul\":11185:11195   */\n              swap6\n              pop\n                /* \"#utility.yul\":10282:11201   */\n              pop\n              pop\n              pop\n              pop\n              pop\n                /* \"#utility.yul\":10114:11201   */\n              swap3\n              swap2\n              pop\n              pop\n              jump\t// out\n                /* \"#utility.yul\":11207:11668   */\n            tag_36:\n                /* \"#utility.yul\":11394:11398   */\n              0x00\n                /* \"#utility.yul\":11432:11434   */\n              0x20\n                /* \"#utility.yul\":11421:11430   */\n              dup3\n                /* \"#utility.yul\":11417:11435   */\n              add\n                /* \"#utility.yul\":11409:11435   */\n              swap1\n              pop\n                /* \"#utility.yul\":11481:11490   */\n              dup2\n                /* \"#utility.yul\":11475:11479   */\n              dup2\n                /* \"#utility.yul\":11471:11491   */\n              sub\n                /* \"#utility.yul\":11467:11468   */\n              0x00\n                /* \"#utility.yul\":11456:11465   */\n              dup4\n                /* \"#utility.yul\":11452:11469   */\n              add\n                /* \"#utility.yul\":11445:11492   */\n              mstore\n                /* \"#utility.yul\":11509:11661   */\n              tag_283\n                /* \"#utility.yul\":11656:11660   */\n              dup2\n                /* \"#utility.yul\":11647:11653   */\n              dup5\n                /* \"#utility.yul\":11509:11661   */\n              tag_163\n              jump\t// in\n            tag_283:\n                /* \"#utility.yul\":11501:11661   */\n              swap1\n              pop\n                /* \"#utility.yul\":11207:11668   */\n              swap3\n              swap2\n              pop\n              pop\n              jump\t// out\n                /* \"#utility.yul\":11674:11854   */\n            tag_164:\n                /* \"#utility.yul\":11722:11799   */\n              0x4e487b7100000000000000000000000000000000000000000000000000000000\n                /* \"#utility.yul\":11719:11720   */\n              0x00\n                /* \"#utility.yul\":11712:11800   */\n              mstore\n                /* \"#utility.yul\":11819:11823   */\n              0x22\n                /* \"#utility.yul\":11816:11817   */\n              0x04\n                /* \"#utility.yul\":11809:11824   */\n              mstore\n                /* \"#utility.yul\":11843:11847   */\n              0x24\n                /* \"#utility.yul\":11840:11841   */\n              0x00\n                /* \"#utility.yul\":11833:11848   */\n              revert\n                /* \"#utility.yul\":11860:12180   */\n            tag_46:\n                /* \"#utility.yul\":11904:11910   */\n              0x00\n                /* \"#utility.yul\":11941:11942   */\n              0x02\n                /* \"#utility.yul\":11935:11939   */\n              dup3\n                /* \"#utility.yul\":11931:11943   */\n              div\n                /* \"#utility.yul\":11921:11943   */\n              swap1\n              pop\n                /* \"#utility.yul\":11988:11989   */\n              0x01\n                /* \"#utility.yul\":11982:11986   */\n              dup3\n                /* \"#utility.yul\":11978:11990   */\n              and\n                /* \"#utility.yul\":12009:12027   */\n              dup1\n                /* \"#utility.yul\":11999:12080   */\n              tag_286\n              jumpi\n                /* \"#utility.yul\":12065:12069   */\n              0x7f\n                /* \"#utility.yul\":12057:12063   */\n              dup3\n                /* \"#utility.yul\":12053:12070   */\n              and\n                /* \"#utility.yul\":12043:12070   */\n              swap2\n              pop\n                /* \"#utility.yul\":11999:12080   */\n            tag_286:\n                /* \"#utility.yul\":12127:12129   */\n              0x20\n                /* \"#utility.yul\":12119:12125   */\n              dup3\n                /* \"#utility.yul\":12116:12130   */\n              lt\n                /* \"#utility.yul\":12096:12114   */\n              dup2\n                /* \"#utility.yul\":12093:12131   */\n              sub\n                /* \"#utility.yul\":12090:12174   */\n              tag_287\n              jumpi\n                /* \"#utility.yul\":12146:12164   */\n              tag_288\n              tag_164\n              jump\t// in\n            tag_288:\n                /* \"#utility.yul\":12090:12174   */\n            tag_287:\n                /* \"#utility.yul\":11911:12180   */\n              pop\n                /* \"#utility.yul\":11860:12180   */\n              swap2\n              swap1\n              pop\n              jump\t// out\n                /* \"#utility.yul\":12186:12366   */\n            tag_165:\n                /* \"#utility.yul\":12234:12311   */\n              0x4e487b7100000000000000000000000000000000000000000000000000000000\n                /* \"#utility.yul\":12231:12232   */\n              0x00\n                /* \"#utility.yul\":12224:12312   */\n              mstore\n                /* \"#utility.yul\":12331:12335   */\n              0x11\n                /* \"#utility.yul\":12328:12329   */\n              0x04\n                /* \"#utility.yul\":12321:12336   */\n              mstore\n                /* \"#utility.yul\":12355:12359   */\n              0x24\n                /* \"#utility.yul\":12352:12353   */\n              0x00\n                /* \"#utility.yul\":12345:12360   */\n              revert\n                /* \"#utility.yul\":12372:12605   */\n            tag_77:\n                /* \"#utility.yul\":12411:12414   */\n              0x00\n                /* \"#utility.yul\":12434:12458   */\n              tag_291\n                /* \"#utility.yul\":12452:12457   */\n              dup3\n                /* \"#utility.yul\":12434:12458   */\n              tag_130\n              jump\t// in\n            tag_291:\n                /* \"#utility.yul\":12425:12458   */\n              swap2\n              pop\n                /* \"#utility.yul\":12480:12546   */\n              0xffffffffffffffffffffffffffffffffffffffffffffffffffffffffffffffff\n                /* \"#utility.yul\":12473:12478   */\n              dup3\n                /* \"#utility.yul\":12470:12547   */\n              sub\n                /* \"#utility.yul\":12467:12570   */\n              tag_292\n              jumpi\n                /* \"#utility.yul\":12550:12568   */\n              tag_293\n              tag_165\n              jump\t// in\n            tag_293:\n                /* \"#utility.yul\":12467:12570   */\n            tag_292:\n                /* \"#utility.yul\":12597:12598   */\n              0x01\n                /* \"#utility.yul\":12590:12595   */\n              dup3\n                /* \"#utility.yul\":12586:12599   */\n              add\n                /* \"#utility.yul\":12579:12599   */\n              swap1\n              pop\n                /* \"#utility.yul\":12372:12605   */\n              swap2\n              swap1\n              pop\n              jump\t// out\n                /* \"#utility.yul\":12611:12791   */\n            tag_92:\n                /* \"#utility.yul\":12659:12736   */\n              0x4e487b7100000000000000000000000000000000000000000000000000000000\n                /* \"#utility.yul\":12656:12657   */\n              0x00\n                /* \"#utility.yul\":12649:12737   */\n              mstore\n                /* \"#utility.yul\":12756:12760   */\n              0x32\n                /* \"#utility.yul\":12753:12754   */\n              0x04\n                /* \"#utility.yul\":12746:12761   */\n              mstore\n                /* \"#utility.yul\":12780:12784   */\n              0x24\n                /* \"#utility.yul\":12777:12778   */\n              0x00\n                /* \"#utility.yul\":12770:12785   */\n              revert\n\n            auxdata: 0xa26469706673582212203e506e1ebdeac0e7732a4fd314aae1fc9388490da7ff444ddd50d6e3b278bd8b64736f6c634300080d0033\n        }\n    }\n\n    auxdata: 0xa26469706673582212203173df1c50eb957cc2d02e837b2e941bcb1343cd8f4f1fca5420971a39b1d4e064736f6c634300080d0033\n}\n","bytecode":{"linkReferences":{},"object":"608060405234801561001057600080fd5b50611f8a806100206000396000f3fe60806040523480156200001157600080fd5b5060043610620000465760003560e01c80636fa4f103146200004b5780639b935abf146200006b578063cdf74c3e146200008d575b600080fd5b620000696004803603810190620000639190620003c0565b620000c3565b005b620000756200016c565b6040516200008491906200058d565b60405180910390f35b620000ab6004803603810190620000a59190620005ec565b620001fc565b604051620000ba91906200062f565b60405180910390f35b6000823383604051620000d6906200023c565b620000e49392919062000704565b604051809103906000f08015801562000101573d6000803e3d6000fd5b5090506000819080600181540180825580915050600190039060005260206000200160009091909190916101000a81548173ffffffffffffffffffffffffffffffffffffffff021916908373ffffffffffffffffffffffffffffffffffffffff160217905550505050565b60606000805480602002602001604051908101604052809291908181526020018280548015620001f257602002820191906000526020600020905b8160009054906101000a900473ffffffffffffffffffffffffffffffffffffffff1673ffffffffffffffffffffffffffffffffffffffff1681526020019060010190808311620001a7575b5050505050905090565b600081815481106200020d57600080fd5b906000526020600020016000915054906101000a900473ffffffffffffffffffffffffffffffffffffffff1681565b611805806200075083390190565b6000604051905090565b600080fd5b600080fd5b600080fd5b600080fd5b6000601f19601f8301169050919050565b7f4e487b7100000000000000000000000000000000000000000000000000000000600052604160045260246000fd5b620002b38262000268565b810181811067ffffffffffffffff82111715620002d557620002d462000279565b5b80604052505050565b6000620002ea6200024a565b9050620002f88282620002a8565b919050565b600067ffffffffffffffff8211156200031b576200031a62000279565b5b620003268262000268565b9050602081019050919050565b82818337600083830152505050565b6000620003596200035384620002fd565b620002de565b90508281526020810184848401111562000378576200037762000263565b5b6200038584828562000333565b509392505050565b600082601f830112620003a557620003a46200025e565b5b8135620003b784826020860162000342565b91505092915050565b60008060408385031215620003da57620003d962000254565b5b600083013567ffffffffffffffff811115620003fb57620003fa62000259565b5b62000409858286016200038d565b925050602083013567ffffffffffffffff8111156200042d576200042c62000259565b5b6200043b858286016200038d565b9150509250929050565b600081519050919050565b600082825260208201905092915050565b6000819050602082019050919050565b600073ffffffffffffffffffffffffffffffffffffffff82169050919050565b6000819050919050565b6000620004bc620004b6620004b08462000471565b62000491565b62000471565b9050919050565b6000620004d0826200049b565b9050919050565b6000620004e482620004c3565b9050919050565b620004f681620004d7565b82525050565b60006200050a8383620004eb565b60208301905092915050565b6000602082019050919050565b6000620005308262000445565b6200053c818562000450565b9350620005498362000461565b8060005b8381101562000580578151620005648882620004fc565b9750620005718362000516565b9250506001810190506200054d565b5085935050505092915050565b60006020820190508181036000830152620005a9818462000523565b905092915050565b6000819050919050565b620005c681620005b1565b8114620005d257600080fd5b50565b600081359050620005e681620005bb565b92915050565b60006020828403121562000605576200060462000254565b5b60006200061584828501620005d5565b91505092915050565b6200062981620004d7565b82525050565b60006020820190506200064660008301846200061e565b92915050565b600081519050919050565b600082825260208201905092915050565b60005b83811015620006885780820151818401526020810190506200066b565b8381111562000698576000848401525b50505050565b6000620006ab826200064c565b620006b7818562000657565b9350620006c981856020860162000668565b620006d48162000268565b840191505092915050565b6000620006ec8262000471565b9050919050565b620006fe81620006df565b82525050565b600060608201905081810360008301526200072081866200069e565b9050620007316020830185620006f3565b81810360408301526200074581846200069e565b905094935050505056fe60806040526000600860006101000a81548160ff0219169083151502179055506000600860016101000a81548160ff0219169083151502179055503480156200004757600080fd5b50604051620018053803806200180583398181016040528101906200006d9190620003ad565b8260008001908051906020019062000087929190620000fb565b5081600060010160006101000a81548173ffffffffffffffffffffffffffffffffffffffff021916908373ffffffffffffffffffffffffffffffffffffffff1602179055508060006002019080519060200190620000e7929190620000fb565b5060008060030181905550505050620004ab565b828054620001099062000476565b90600052602060002090601f0160209004810192826200012d576000855562000179565b82601f106200014857805160ff191683800117855562000179565b8280016001018555821562000179579182015b82811115620001785782518255916020019190600101906200015b565b5b5090506200018891906200018c565b5090565b5b80821115620001a75760008160009055506001016200018d565b5090565b6000604051905090565b600080fd5b600080fd5b600080fd5b600080fd5b6000601f19601f8301169050919050565b7f4e487b7100000000000000000000000000000000000000000000000000000000600052604160045260246000fd5b6200021482620001c9565b810181811067ffffffffffffffff82111715620002365762000235620001da565b5b80604052505050565b60006200024b620001ab565b905062000259828262000209565b919050565b600067ffffffffffffffff8211156200027c576200027b620001da565b5b6200028782620001c9565b9050602081019050919050565b60005b83811015620002b457808201518184015260208101905062000297565b83811115620002c4576000848401525b50505050565b6000620002e1620002db846200025e565b6200023f565b9050828152602081018484840111156200030057620002ff620001c4565b5b6200030d84828562000294565b509392505050565b600082601f8301126200032d576200032c620001bf565b5b81516200033f848260208601620002ca565b91505092915050565b600073ffffffffffffffffffffffffffffffffffffffff82169050919050565b6000620003758262000348565b9050919050565b620003878162000368565b81146200039357600080fd5b50565b600081519050620003a7816200037c565b92915050565b600080600060608486031215620003c957620003c8620001b5565b5b600084015167ffffffffffffffff811115620003ea57620003e9620001ba565b5b620003f88682870162000315565b93505060206200040b8682870162000396565b925050604084015167ffffffffffffffff8111156200042f576200042e620001ba565b5b6200043d8682870162000315565b9150509250925092565b7f4e487b7100000000000000000000000000000000000000000000000000000000600052602260045260246000fd5b600060028204905060018216806200048f57607f821691505b602082108103620004a557620004a462000447565b5b50919050565b61134a80620004bb6000396000f3fe6080604052600436106100705760003560e01c80634901d7ae1161004e5780634901d7ae146100fa5780635a436c06146101165780635aa68ac014610132578063f90943031461015d57610070565b80631ec6b60a1461007557806335c1d3491461008c578063481c6a75146100cc575b600080fd5b34801561008157600080fd5b5061008a610174565b005b34801561009857600080fd5b506100b360048036038101906100ae9190610ca7565b6101ee565b6040516100c39493929190610dbd565b60405180910390f35b3480156100d857600080fd5b506100e161035e565b6040516100f19493929190610dbd565b60405180910390f35b610114600480360381019061010f9190610f71565b6104ac565b005b610130600480360381019061012b9190610ffc565b610651565b005b34801561013e57600080fd5b506101476108d2565b60405161015491906111ec565b60405180910390f35b34801561016957600080fd5b50610172610ab5565b005b600060010160009054906101000a900473ffffffffffffffffffffffffffffffffffffffff1673ffffffffffffffffffffffffffffffffffffffff163373ffffffffffffffffffffffffffffffffffffffff16146101d157600080fd5b6001600860006101000a81548160ff021916908315150217905550565b600581815481106101fe57600080fd5b90600052602060002090600402016000915090508060000180546102219061123d565b80601f016020809104026020016040519081016040528092919081815260200182805461024d9061123d565b801561029a5780601f1061026f5761010080835404028352916020019161029a565b820191906000526020600020905b81548152906001019060200180831161027d57829003601f168201915b5050505050908060010160009054906101000a900473ffffffffffffffffffffffffffffffffffffffff16908060020180546102d59061123d565b80601f01602080910402602001604051908101604052809291908181526020018280546103019061123d565b801561034e5780601f106103235761010080835404028352916020019161034e565b820191906000526020600020905b81548152906001019060200180831161033157829003601f168201915b5050505050908060030154905084565b600080600001805461036f9061123d565b80601f016020809104026020016040519081016040528092919081815260200182805461039b9061123d565b80156103e85780601f106103bd576101008083540402835291602001916103e8565b820191906000526020600020905b8154815290600101906020018083116103cb57829003601f168201915b5050505050908060010160009054906101000a900473ffffffffffffffffffffffffffffffffffffffff16908060020180546104239061123d565b80601f016020809104026020016040519081016040528092919081815260200182805461044f9061123d565b801561049c5780601f106104715761010080835404028352916020019161049c565b820191906000526020600020905b81548152906001019060200180831161047f57829003601f168201915b5050505050908060030154905084565b600060010160009054906101000a900473ffffffffffffffffffffffffffffffffffffffff1673ffffffffffffffffffffffffffffffffffffffff163373ffffffffffffffffffffffffffffffffffffffff161461050957600080fd5b670c7d713b49da0000341161051d57600080fd5b610525610b2f565b83816000018190525082816020019073ffffffffffffffffffffffffffffffffffffffff16908173ffffffffffffffffffffffffffffffffffffffff16815250508181604001819052506000816060018181525050600581908060018154018082558091505060019003906000526020600020906004020160009091909190915060008201518160000190805190602001906105c2929190610b6d565b5060208201518160010160006101000a81548173ffffffffffffffffffffffffffffffffffffffff021916908373ffffffffffffffffffffffffffffffffffffffff1602179055506040820151816002019080519060200190610626929190610b6d565b50606082015181600301555050600460008154809291906106469061129d565b919050555050505050565b600860009054906101000a900460ff16801561067a5750600860019054906101000a900460ff16155b61068357600080fd5b6706f05b59d3b20000341161069757600080fd5b61069f610bf3565b82816020018190525033816000019073ffffffffffffffffffffffffffffffffffffffff16908173ffffffffffffffffffffffffffffffffffffffff168152505081816040019073ffffffffffffffffffffffffffffffffffffffff16908173ffffffffffffffffffffffffffffffffffffffff1681525050600781908060018154018082558091505060019003906000526020600020906003020160009091909190915060008201518160000160006101000a81548173ffffffffffffffffffffffffffffffffffffffff021916908373ffffffffffffffffffffffffffffffffffffffff16021790555060208201518160010190805190602001906107a7929190610b6d565b5060408201518160020160006101000a81548173ffffffffffffffffffffffffffffffffffffffff021916908373ffffffffffffffffffffffffffffffffffffffff160217905550505060005b6005805490508110156108cc578273ffffffffffffffffffffffffffffffffffffffff166005828154811061082c5761082b6112e5565b5b906000526020600020906004020160010160009054906101000a900473ffffffffffffffffffffffffffffffffffffffff1673ffffffffffffffffffffffffffffffffffffffff16036108b9576005818154811061088d5761088c6112e5565b5b906000526020600020906004020160030160008154809291906108af9061129d565b91905055506108cc565b80806108c49061129d565b9150506107f4565b50505050565b60606005805480602002602001604051908101604052809291908181526020016000905b82821015610aac57838290600052602060002090600402016040518060800160405290816000820180546109299061123d565b80601f01602080910402602001604051908101604052809291908181526020018280546109559061123d565b80156109a25780601f10610977576101008083540402835291602001916109a2565b820191906000526020600020905b81548152906001019060200180831161098557829003601f168201915b505050505081526020016001820160009054906101000a900473ffffffffffffffffffffffffffffffffffffffff1673ffffffffffffffffffffffffffffffffffffffff1673ffffffffffffffffffffffffffffffffffffffff168152602001600282018054610a119061123d565b80601f0160208091040260200160405190810160405280929190818152602001828054610a3d9061123d565b8015610a8a5780601f10610a5f57610100808354040283529160200191610a8a565b820191906000526020600020905b815481529060010190602001808311610a6d57829003601f168201915b50505050508152602001600382015481525050815260200190600101906108f6565b50505050905090565b600060010160009054906101000a900473ffffffffffffffffffffffffffffffffffffffff1673ffffffffffffffffffffffffffffffffffffffff163373ffffffffffffffffffffffffffffffffffffffff1614610b1257600080fd5b6001600860016101000a81548160ff021916908315150217905550565b604051806080016040528060608152602001600073ffffffffffffffffffffffffffffffffffffffff16815260200160608152602001600081525090565b828054610b799061123d565b90600052602060002090601f016020900481019282610b9b5760008555610be2565b82601f10610bb457805160ff1916838001178555610be2565b82800160010185558215610be2579182015b82811115610be1578251825591602001919060010190610bc6565b5b509050610bef9190610c40565b5090565b6040518060600160405280600073ffffffffffffffffffffffffffffffffffffffff16815260200160608152602001600073ffffffffffffffffffffffffffffffffffffffff1681525090565b5b80821115610c59576000816000905550600101610c41565b5090565b6000604051905090565b600080fd5b600080fd5b6000819050919050565b610c8481610c71565b8114610c8f57600080fd5b50565b600081359050610ca181610c7b565b92915050565b600060208284031215610cbd57610cbc610c67565b5b6000610ccb84828501610c92565b91505092915050565b600081519050919050565b600082825260208201905092915050565b60005b83811015610d0e578082015181840152602081019050610cf3565b83811115610d1d576000848401525b50505050565b6000601f19601f8301169050919050565b6000610d3f82610cd4565b610d498185610cdf565b9350610d59818560208601610cf0565b610d6281610d23565b840191505092915050565b600073ffffffffffffffffffffffffffffffffffffffff82169050919050565b6000610d9882610d6d565b9050919050565b610da881610d8d565b82525050565b610db781610c71565b82525050565b60006080820190508181036000830152610dd78187610d34565b9050610de66020830186610d9f565b8181036040830152610df88185610d34565b9050610e076060830184610dae565b95945050505050565b600080fd5b600080fd5b7f4e487b7100000000000000000000000000000000000000000000000000000000600052604160045260246000fd5b610e5282610d23565b810181811067ffffffffffffffff82111715610e7157610e70610e1a565b5b80604052505050565b6000610e84610c5d565b9050610e908282610e49565b919050565b600067ffffffffffffffff821115610eb057610eaf610e1a565b5b610eb982610d23565b9050602081019050919050565b82818337600083830152505050565b6000610ee8610ee384610e95565b610e7a565b905082815260208101848484011115610f0457610f03610e15565b5b610f0f848285610ec6565b509392505050565b600082601f830112610f2c57610f2b610e10565b5b8135610f3c848260208601610ed5565b91505092915050565b610f4e81610d8d565b8114610f5957600080fd5b50565b600081359050610f6b81610f45565b92915050565b600080600060608486031215610f8a57610f89610c67565b5b600084013567ffffffffffffffff811115610fa857610fa7610c6c565b5b610fb486828701610f17565b9350506020610fc586828701610f5c565b925050604084013567ffffffffffffffff811115610fe657610fe5610c6c565b5b610ff286828701610f17565b9150509250925092565b6000806040838503121561101357611012610c67565b5b600083013567ffffffffffffffff81111561103157611030610c6c565b5b61103d85828601610f17565b925050602061104e85828601610f5c565b9150509250929050565b600081519050919050565b600082825260208201905092915050565b6000819050602082019050919050565b600082825260208201905092915050565b60006110a082610cd4565b6110aa8185611084565b93506110ba818560208601610cf0565b6110c381610d23565b840191505092915050565b6110d781610d8d565b82525050565b6110e681610c71565b82525050565b600060808301600083015184820360008601526111098282611095565b915050602083015161111e60208601826110ce565b50604083015184820360408601526111368282611095565b915050606083015161114b60608601826110dd565b508091505092915050565b600061116283836110ec565b905092915050565b6000602082019050919050565b600061118282611058565b61118c8185611063565b93508360208202850161119e85611074565b8060005b858110156111da57848403895281516111bb8582611156565b94506111c68361116a565b925060208a019950506001810190506111a2565b50829750879550505050505092915050565b600060208201905081810360008301526112068184611177565b905092915050565b7f4e487b7100000000000000000000000000000000000000000000000000000000600052602260045260246000fd5b6000600282049050600182168061125557607f821691505b6020821081036112685761126761120e565b5b50919050565b7f4e487b7100000000000000000000000000000000000000000000000000000000600052601160045260246000fd5b60006112a882610c71565b91507fffffffffffffffffffffffffffffffffffffffffffffffffffffffffffffffff82036112da576112d961126e565b5b600182019050919050565b7f4e487b7100000000000000000000000000000000000000000000000000000000600052603260045260246000fdfea26469706673582212203e506e1ebdeac0e7732a4fd314aae1fc9388490da7ff444ddd50d6e3b278bd8b64736f6c634300080d0033a26469706673582212203173df1c50eb957cc2d02e837b2e941bcb1343cd8f4f1fca5420971a39b1d4e064736f6c634300080d0033","opcodes":"PUSH1 0x80 PUSH1 0x40 MSTORE CALLVALUE DUP1 ISZERO PUSH2 0x10 JUMPI PUSH1 0x0 DUP1 REVERT JUMPDEST POP PUSH2 0x1F8A DUP1 PUSH2 0x20 PUSH1 0x0 CODECOPY PUSH1 0x0 RETURN INVALID PUSH1 0x80 PUSH1 0x40 MSTORE CALLVALUE DUP1 ISZERO PUSH3 0x11 JUMPI PUSH1 0x0 DUP1 REVERT JUMPDEST POP PUSH1 0x4 CALLDATASIZE LT PUSH3 0x46 JUMPI PUSH1 0x0 CALLDATALOAD PUSH1 0xE0 SHR DUP1 PUSH4 0x6FA4F103 EQ PUSH3 0x4B JUMPI DUP1 PUSH4 0x9B935ABF EQ PUSH3 0x6B JUMPI DUP1 PUSH4 0xCDF74C3E EQ PUSH3 0x8D JUMPI JUMPDEST PUSH1 0x0 DUP1 REVERT JUMPDEST PUSH3 0x69 PUSH1 0x4 DUP1 CALLDATASIZE SUB DUP2 ADD SWAP1 PUSH3 0x63 SWAP2 SWAP1 PUSH3 0x3C0 JUMP JUMPDEST PUSH3 0xC3 JUMP JUMPDEST STOP JUMPDEST PUSH3 0x75 PUSH3 0x16C JUMP JUMPDEST PUSH1 0x40 MLOAD PUSH3 0x84 SWAP2 SWAP1 PUSH3 0x58D JUMP JUMPDEST PUSH1 0x40 MLOAD DUP1 SWAP2 SUB SWAP1 RETURN JUMPDEST PUSH3 0xAB PUSH1 0x4 DUP1 CALLDATASIZE SUB DUP2 ADD SWAP1 PUSH3 0xA5 SWAP2 SWAP1 PUSH3 0x5EC JUMP JUMPDEST PUSH3 0x1FC JUMP JUMPDEST PUSH1 0x40 MLOAD PUSH3 0xBA SWAP2 SWAP1 PUSH3 0x62F JUMP JUMPDEST PUSH1 0x40 MLOAD DUP1 SWAP2 SUB SWAP1 RETURN JUMPDEST PUSH1 0x0 DUP3 CALLER DUP4 PUSH1 0x40 MLOAD PUSH3 0xD6 SWAP1 PUSH3 0x23C JUMP JUMPDEST PUSH3 0xE4 SWAP4 SWAP3 SWAP2 SWAP1 PUSH3 0x704 JUMP JUMPDEST PUSH1 0x40 MLOAD DUP1 SWAP2 SUB SWAP1 PUSH1 0x0 CREATE DUP1 ISZERO DUP1 ISZERO PUSH3 0x101 JUMPI RETURNDATASIZE PUSH1 0x0 DUP1 RETURNDATACOPY RETURNDATASIZE PUSH1 0x0 REVERT JUMPDEST POP SWAP1 POP PUSH1 0x0 DUP2 SWAP1 DUP1 PUSH1 0x1 DUP2 SLOAD ADD DUP1 DUP3 SSTORE DUP1 SWAP2 POP POP PUSH1 0x1 SWAP1 SUB SWAP1 PUSH1 0x0 MSTORE PUSH1 0x20 PUSH1 0x0 KECCAK256 ADD PUSH1 0x0 SWAP1 SWAP2 SWAP1 SWAP2 SWAP1 SWAP2 PUSH2 0x100 EXP DUP2 SLOAD DUP2 PUSH20 0xFFFFFFFFFFFFFFFFFFFFFFFFFFFFFFFFFFFFFFFF MUL NOT AND SWAP1 DUP4 PUSH20 0xFFFFFFFFFFFFFFFFFFFFFFFFFFFFFFFFFFFFFFFF AND MUL OR SWAP1 SSTORE POP POP POP POP JUMP JUMPDEST PUSH1 0x60 PUSH1 0x0 DUP1 SLOAD DUP1 PUSH1 0x20 MUL PUSH1 0x20 ADD PUSH1 0x40 MLOAD SWAP1 DUP2 ADD PUSH1 0x40 MSTORE DUP1 SWAP3 SWAP2 SWAP1 DUP2 DUP2 MSTORE PUSH1 0x20 ADD DUP3 DUP1 SLOAD DUP1 ISZERO PUSH3 0x1F2 JUMPI PUSH1 0x20 MUL DUP3 ADD SWAP2 SWAP1 PUSH1 0x0 MSTORE PUSH1 0x20 PUSH1 0x0 KECCAK256 SWAP1 JUMPDEST DUP2 PUSH1 0x0 SWAP1 SLOAD SWAP1 PUSH2 0x100 EXP SWAP1 DIV PUSH20 0xFFFFFFFFFFFFFFFFFFFFFFFFFFFFFFFFFFFFFFFF AND PUSH20 0xFFFFFFFFFFFFFFFFFFFFFFFFFFFFFFFFFFFFFFFF AND DUP2 MSTORE PUSH1 0x20 ADD SWAP1 PUSH1 0x1 ADD SWAP1 DUP1 DUP4 GT PUSH3 0x1A7 JUMPI JUMPDEST POP POP POP POP POP SWAP1 POP SWAP1 JUMP JUMPDEST PUSH1 0x0 DUP2 DUP2 SLOAD DUP2 LT PUSH3 0x20D JUMPI PUSH1 0x0 DUP1 REVERT JUMPDEST SWAP1 PUSH1 0x0 MSTORE PUSH1 0x20 PUSH1 0x0 KECCAK256 ADD PUSH1 0x0 SWAP2 POP SLOAD SWAP1 PUSH2 0x100 EXP SWAP1 DIV PUSH20 0xFFFFFFFFFFFFFFFFFFFFFFFFFFFFFFFFFFFFFFFF AND DUP2 JUMP JUMPDEST PUSH2 0x1805 DUP1 PUSH3 0x750 DUP4 CODECOPY ADD SWAP1 JUMP JUMPDEST PUSH1 0x0 PUSH1 0x40 MLOAD SWAP1 POP SWAP1 JUMP JUMPDEST PUSH1 0x0 DUP1 REVERT JUMPDEST PUSH1 0x0 DUP1 REVERT JUMPDEST PUSH1 0x0 DUP1 REVERT JUMPDEST PUSH1 0x0 DUP1 REVERT JUMPDEST PUSH1 0x0 PUSH1 0x1F NOT PUSH1 0x1F DUP4 ADD AND SWAP1 POP SWAP2 SWAP1 POP JUMP JUMPDEST PUSH32 0x4E487B7100000000000000000000000000000000000000000000000000000000 PUSH1 0x0 MSTORE PUSH1 0x41 PUSH1 0x4 MSTORE PUSH1 0x24 PUSH1 0x0 REVERT JUMPDEST PUSH3 0x2B3 DUP3 PUSH3 0x268 JUMP JUMPDEST DUP2 ADD DUP2 DUP2 LT PUSH8 0xFFFFFFFFFFFFFFFF DUP3 GT OR ISZERO PUSH3 0x2D5 JUMPI PUSH3 0x2D4 PUSH3 0x279 JUMP JUMPDEST JUMPDEST DUP1 PUSH1 0x40 MSTORE POP POP POP JUMP JUMPDEST PUSH1 0x0 PUSH3 0x2EA PUSH3 0x24A JUMP JUMPDEST SWAP1 POP PUSH3 0x2F8 DUP3 DUP3 PUSH3 0x2A8 JUMP JUMPDEST SWAP2 SWAP1 POP JUMP JUMPDEST PUSH1 0x0 PUSH8 0xFFFFFFFFFFFFFFFF DUP3 GT ISZERO PUSH3 0x31B JUMPI PUSH3 0x31A PUSH3 0x279 JUMP JUMPDEST JUMPDEST PUSH3 0x326 DUP3 PUSH3 0x268 JUMP JUMPDEST SWAP1 POP PUSH1 0x20 DUP2 ADD SWAP1 POP SWAP2 SWAP1 POP JUMP JUMPDEST DUP3 DUP2 DUP4 CALLDATACOPY PUSH1 0x0 DUP4 DUP4 ADD MSTORE POP POP POP JUMP JUMPDEST PUSH1 0x0 PUSH3 0x359 PUSH3 0x353 DUP5 PUSH3 0x2FD JUMP JUMPDEST PUSH3 0x2DE JUMP JUMPDEST SWAP1 POP DUP3 DUP2 MSTORE PUSH1 0x20 DUP2 ADD DUP5 DUP5 DUP5 ADD GT ISZERO PUSH3 0x378 JUMPI PUSH3 0x377 PUSH3 0x263 JUMP JUMPDEST JUMPDEST PUSH3 0x385 DUP5 DUP3 DUP6 PUSH3 0x333 JUMP JUMPDEST POP SWAP4 SWAP3 POP POP POP JUMP JUMPDEST PUSH1 0x0 DUP3 PUSH1 0x1F DUP4 ADD SLT PUSH3 0x3A5 JUMPI PUSH3 0x3A4 PUSH3 0x25E JUMP JUMPDEST JUMPDEST DUP2 CALLDATALOAD PUSH3 0x3B7 DUP5 DUP3 PUSH1 0x20 DUP7 ADD PUSH3 0x342 JUMP JUMPDEST SWAP2 POP POP SWAP3 SWAP2 POP POP JUMP JUMPDEST PUSH1 0x0 DUP1 PUSH1 0x40 DUP4 DUP6 SUB SLT ISZERO PUSH3 0x3DA JUMPI PUSH3 0x3D9 PUSH3 0x254 JUMP JUMPDEST JUMPDEST PUSH1 0x0 DUP4 ADD CALLDATALOAD PUSH8 0xFFFFFFFFFFFFFFFF DUP2 GT ISZERO PUSH3 0x3FB JUMPI PUSH3 0x3FA PUSH3 0x259 JUMP JUMPDEST JUMPDEST PUSH3 0x409 DUP6 DUP3 DUP7 ADD PUSH3 0x38D JUMP JUMPDEST SWAP3 POP POP PUSH1 0x20 DUP4 ADD CALLDATALOAD PUSH8 0xFFFFFFFFFFFFFFFF DUP2 GT ISZERO PUSH3 0x42D JUMPI PUSH3 0x42C PUSH3 0x259 JUMP JUMPDEST JUMPDEST PUSH3 0x43B DUP6 DUP3 DUP7 ADD PUSH3 0x38D JUMP JUMPDEST SWAP2 POP POP SWAP3 POP SWAP3 SWAP1 POP JUMP JUMPDEST PUSH1 0x0 DUP2 MLOAD SWAP1 POP SWAP2 SWAP1 POP JUMP JUMPDEST PUSH1 0x0 DUP3 DUP3 MSTORE PUSH1 0x20 DUP3 ADD SWAP1 POP SWAP3 SWAP2 POP POP JUMP JUMPDEST PUSH1 0x0 DUP2 SWAP1 POP PUSH1 0x20 DUP3 ADD SWAP1 POP SWAP2 SWAP1 POP JUMP JUMPDEST PUSH1 0x0 PUSH20 0xFFFFFFFFFFFFFFFFFFFFFFFFFFFFFFFFFFFFFFFF DUP3 AND SWAP1 POP SWAP2 SWAP1 POP JUMP JUMPDEST PUSH1 0x0 DUP2 SWAP1 POP SWAP2 SWAP1 POP JUMP JUMPDEST PUSH1 0x0 PUSH3 0x4BC PUSH3 0x4B6 PUSH3 0x4B0 DUP5 PUSH3 0x471 JUMP JUMPDEST PUSH3 0x491 JUMP JUMPDEST PUSH3 0x471 JUMP JUMPDEST SWAP1 POP SWAP2 SWAP1 POP JUMP JUMPDEST PUSH1 0x0 PUSH3 0x4D0 DUP3 PUSH3 0x49B JUMP JUMPDEST SWAP1 POP SWAP2 SWAP1 POP JUMP JUMPDEST PUSH1 0x0 PUSH3 0x4E4 DUP3 PUSH3 0x4C3 JUMP JUMPDEST SWAP1 POP SWAP2 SWAP1 POP JUMP JUMPDEST PUSH3 0x4F6 DUP2 PUSH3 0x4D7 JUMP JUMPDEST DUP3 MSTORE POP POP JUMP JUMPDEST PUSH1 0x0 PUSH3 0x50A DUP4 DUP4 PUSH3 0x4EB JUMP JUMPDEST PUSH1 0x20 DUP4 ADD SWAP1 POP SWAP3 SWAP2 POP POP JUMP JUMPDEST PUSH1 0x0 PUSH1 0x20 DUP3 ADD SWAP1 POP SWAP2 SWAP1 POP JUMP JUMPDEST PUSH1 0x0 PUSH3 0x530 DUP3 PUSH3 0x445 JUMP JUMPDEST PUSH3 0x53C DUP2 DUP6 PUSH3 0x450 JUMP JUMPDEST SWAP4 POP PUSH3 0x549 DUP4 PUSH3 0x461 JUMP JUMPDEST DUP1 PUSH1 0x0 JUMPDEST DUP4 DUP2 LT ISZERO PUSH3 0x580 JUMPI DUP2 MLOAD PUSH3 0x564 DUP9 DUP3 PUSH3 0x4FC JUMP JUMPDEST SWAP8 POP PUSH3 0x571 DUP4 PUSH3 0x516 JUMP JUMPDEST SWAP3 POP POP PUSH1 0x1 DUP2 ADD SWAP1 POP PUSH3 0x54D JUMP JUMPDEST POP DUP6 SWAP4 POP POP POP POP SWAP3 SWAP2 POP POP JUMP JUMPDEST PUSH1 0x0 PUSH1 0x20 DUP3 ADD SWAP1 POP DUP2 DUP2 SUB PUSH1 0x0 DUP4 ADD MSTORE PUSH3 0x5A9 DUP2 DUP5 PUSH3 0x523 JUMP JUMPDEST SWAP1 POP SWAP3 SWAP2 POP POP JUMP JUMPDEST PUSH1 0x0 DUP2 SWAP1 POP SWAP2 SWAP1 POP JUMP JUMPDEST PUSH3 0x5C6 DUP2 PUSH3 0x5B1 JUMP JUMPDEST DUP2 EQ PUSH3 0x5D2 JUMPI PUSH1 0x0 DUP1 REVERT JUMPDEST POP JUMP JUMPDEST PUSH1 0x0 DUP2 CALLDATALOAD SWAP1 POP PUSH3 0x5E6 DUP2 PUSH3 0x5BB JUMP JUMPDEST SWAP3 SWAP2 POP POP JUMP JUMPDEST PUSH1 0x0 PUSH1 0x20 DUP3 DUP5 SUB SLT ISZERO PUSH3 0x605 JUMPI PUSH3 0x604 PUSH3 0x254 JUMP JUMPDEST JUMPDEST PUSH1 0x0 PUSH3 0x615 DUP5 DUP3 DUP6 ADD PUSH3 0x5D5 JUMP JUMPDEST SWAP2 POP POP SWAP3 SWAP2 POP POP JUMP JUMPDEST PUSH3 0x629 DUP2 PUSH3 0x4D7 JUMP JUMPDEST DUP3 MSTORE POP POP JUMP JUMPDEST PUSH1 0x0 PUSH1 0x20 DUP3 ADD SWAP1 POP PUSH3 0x646 PUSH1 0x0 DUP4 ADD DUP5 PUSH3 0x61E JUMP JUMPDEST SWAP3 SWAP2 POP POP JUMP JUMPDEST PUSH1 0x0 DUP2 MLOAD SWAP1 POP SWAP2 SWAP1 POP JUMP JUMPDEST PUSH1 0x0 DUP3 DUP3 MSTORE PUSH1 0x20 DUP3 ADD SWAP1 POP SWAP3 SWAP2 POP POP JUMP JUMPDEST PUSH1 0x0 JUMPDEST DUP4 DUP2 LT ISZERO PUSH3 0x688 JUMPI DUP1 DUP3 ADD MLOAD DUP2 DUP5 ADD MSTORE PUSH1 0x20 DUP2 ADD SWAP1 POP PUSH3 0x66B JUMP JUMPDEST DUP4 DUP2 GT ISZERO PUSH3 0x698 JUMPI PUSH1 0x0 DUP5 DUP5 ADD MSTORE JUMPDEST POP POP POP POP JUMP JUMPDEST PUSH1 0x0 PUSH3 0x6AB DUP3 PUSH3 0x64C JUMP JUMPDEST PUSH3 0x6B7 DUP2 DUP6 PUSH3 0x657 JUMP JUMPDEST SWAP4 POP PUSH3 0x6C9 DUP2 DUP6 PUSH1 0x20 DUP7 ADD PUSH3 0x668 JUMP JUMPDEST PUSH3 0x6D4 DUP2 PUSH3 0x268 JUMP JUMPDEST DUP5 ADD SWAP2 POP POP SWAP3 SWAP2 POP POP JUMP JUMPDEST PUSH1 0x0 PUSH3 0x6EC DUP3 PUSH3 0x471 JUMP JUMPDEST SWAP1 POP SWAP2 SWAP1 POP JUMP JUMPDEST PUSH3 0x6FE DUP2 PUSH3 0x6DF JUMP JUMPDEST DUP3 MSTORE POP POP JUMP JUMPDEST PUSH1 0x0 PUSH1 0x60 DUP3 ADD SWAP1 POP DUP2 DUP2 SUB PUSH1 0x0 DUP4 ADD MSTORE PUSH3 0x720 DUP2 DUP7 PUSH3 0x69E JUMP JUMPDEST SWAP1 POP PUSH3 0x731 PUSH1 0x20 DUP4 ADD DUP6 PUSH3 0x6F3 JUMP JUMPDEST DUP2 DUP2 SUB PUSH1 0x40 DUP4 ADD MSTORE PUSH3 0x745 DUP2 DUP5 PUSH3 0x69E JUMP JUMPDEST SWAP1 POP SWAP5 SWAP4 POP POP POP POP JUMP INVALID PUSH1 0x80 PUSH1 0x40 MSTORE PUSH1 0x0 PUSH1 0x8 PUSH1 0x0 PUSH2 0x100 EXP DUP2 SLOAD DUP2 PUSH1 0xFF MUL NOT AND SWAP1 DUP4 ISZERO ISZERO MUL OR SWAP1 SSTORE POP PUSH1 0x0 PUSH1 0x8 PUSH1 0x1 PUSH2 0x100 EXP DUP2 SLOAD DUP2 PUSH1 0xFF MUL NOT AND SWAP1 DUP4 ISZERO ISZERO MUL OR SWAP1 SSTORE POP CALLVALUE DUP1 ISZERO PUSH3 0x47 JUMPI PUSH1 0x0 DUP1 REVERT JUMPDEST POP PUSH1 0x40 MLOAD PUSH3 0x1805 CODESIZE SUB DUP1 PUSH3 0x1805 DUP4 CODECOPY DUP2 DUP2 ADD PUSH1 0x40 MSTORE DUP2 ADD SWAP1 PUSH3 0x6D SWAP2 SWAP1 PUSH3 0x3AD JUMP JUMPDEST DUP3 PUSH1 0x0 DUP1 ADD SWAP1 DUP1 MLOAD SWAP1 PUSH1 0x20 ADD SWAP1 PUSH3 0x87 SWAP3 SWAP2 SWAP1 PUSH3 0xFB JUMP JUMPDEST POP DUP2 PUSH1 0x0 PUSH1 0x1 ADD PUSH1 0x0 PUSH2 0x100 EXP DUP2 SLOAD DUP2 PUSH20 0xFFFFFFFFFFFFFFFFFFFFFFFFFFFFFFFFFFFFFFFF MUL NOT AND SWAP1 DUP4 PUSH20 0xFFFFFFFFFFFFFFFFFFFFFFFFFFFFFFFFFFFFFFFF AND MUL OR SWAP1 SSTORE POP DUP1 PUSH1 0x0 PUSH1 0x2 ADD SWAP1 DUP1 MLOAD SWAP1 PUSH1 0x20 ADD SWAP1 PUSH3 0xE7 SWAP3 SWAP2 SWAP1 PUSH3 0xFB JUMP JUMPDEST POP PUSH1 0x0 DUP1 PUSH1 0x3 ADD DUP2 SWAP1 SSTORE POP POP POP POP PUSH3 0x4AB JUMP JUMPDEST DUP3 DUP1 SLOAD PUSH3 0x109 SWAP1 PUSH3 0x476 JUMP JUMPDEST SWAP1 PUSH1 0x0 MSTORE PUSH1 0x20 PUSH1 0x0 KECCAK256 SWAP1 PUSH1 0x1F ADD PUSH1 0x20 SWAP1 DIV DUP2 ADD SWAP3 DUP3 PUSH3 0x12D JUMPI PUSH1 0x0 DUP6 SSTORE PUSH3 0x179 JUMP JUMPDEST DUP3 PUSH1 0x1F LT PUSH3 0x148 JUMPI DUP1 MLOAD PUSH1 0xFF NOT AND DUP4 DUP1 ADD OR DUP6 SSTORE PUSH3 0x179 JUMP JUMPDEST DUP3 DUP1 ADD PUSH1 0x1 ADD DUP6 SSTORE DUP3 ISZERO PUSH3 0x179 JUMPI SWAP2 DUP3 ADD JUMPDEST DUP3 DUP2 GT ISZERO PUSH3 0x178 JUMPI DUP3 MLOAD DUP3 SSTORE SWAP2 PUSH1 0x20 ADD SWAP2 SWAP1 PUSH1 0x1 ADD SWAP1 PUSH3 0x15B JUMP JUMPDEST JUMPDEST POP SWAP1 POP PUSH3 0x188 SWAP2 SWAP1 PUSH3 0x18C JUMP JUMPDEST POP SWAP1 JUMP JUMPDEST JUMPDEST DUP1 DUP3 GT ISZERO PUSH3 0x1A7 JUMPI PUSH1 0x0 DUP2 PUSH1 0x0 SWAP1 SSTORE POP PUSH1 0x1 ADD PUSH3 0x18D JUMP JUMPDEST POP SWAP1 JUMP JUMPDEST PUSH1 0x0 PUSH1 0x40 MLOAD SWAP1 POP SWAP1 JUMP JUMPDEST PUSH1 0x0 DUP1 REVERT JUMPDEST PUSH1 0x0 DUP1 REVERT JUMPDEST PUSH1 0x0 DUP1 REVERT JUMPDEST PUSH1 0x0 DUP1 REVERT JUMPDEST PUSH1 0x0 PUSH1 0x1F NOT PUSH1 0x1F DUP4 ADD AND SWAP1 POP SWAP2 SWAP1 POP JUMP JUMPDEST PUSH32 0x4E487B7100000000000000000000000000000000000000000000000000000000 PUSH1 0x0 MSTORE PUSH1 0x41 PUSH1 0x4 MSTORE PUSH1 0x24 PUSH1 0x0 REVERT JUMPDEST PUSH3 0x214 DUP3 PUSH3 0x1C9 JUMP JUMPDEST DUP2 ADD DUP2 DUP2 LT PUSH8 0xFFFFFFFFFFFFFFFF DUP3 GT OR ISZERO PUSH3 0x236 JUMPI PUSH3 0x235 PUSH3 0x1DA JUMP JUMPDEST JUMPDEST DUP1 PUSH1 0x40 MSTORE POP POP POP JUMP JUMPDEST PUSH1 0x0 PUSH3 0x24B PUSH3 0x1AB JUMP JUMPDEST SWAP1 POP PUSH3 0x259 DUP3 DUP3 PUSH3 0x209 JUMP JUMPDEST SWAP2 SWAP1 POP JUMP JUMPDEST PUSH1 0x0 PUSH8 0xFFFFFFFFFFFFFFFF DUP3 GT ISZERO PUSH3 0x27C JUMPI PUSH3 0x27B PUSH3 0x1DA JUMP JUMPDEST JUMPDEST PUSH3 0x287 DUP3 PUSH3 0x1C9 JUMP JUMPDEST SWAP1 POP PUSH1 0x20 DUP2 ADD SWAP1 POP SWAP2 SWAP1 POP JUMP JUMPDEST PUSH1 0x0 JUMPDEST DUP4 DUP2 LT ISZERO PUSH3 0x2B4 JUMPI DUP1 DUP3 ADD MLOAD DUP2 DUP5 ADD MSTORE PUSH1 0x20 DUP2 ADD SWAP1 POP PUSH3 0x297 JUMP JUMPDEST DUP4 DUP2 GT ISZERO PUSH3 0x2C4 JUMPI PUSH1 0x0 DUP5 DUP5 ADD MSTORE JUMPDEST POP POP POP POP JUMP JUMPDEST PUSH1 0x0 PUSH3 0x2E1 PUSH3 0x2DB DUP5 PUSH3 0x25E JUMP JUMPDEST PUSH3 0x23F JUMP JUMPDEST SWAP1 POP DUP3 DUP2 MSTORE PUSH1 0x20 DUP2 ADD DUP5 DUP5 DUP5 ADD GT ISZERO PUSH3 0x300 JUMPI PUSH3 0x2FF PUSH3 0x1C4 JUMP JUMPDEST JUMPDEST PUSH3 0x30D DUP5 DUP3 DUP6 PUSH3 0x294 JUMP JUMPDEST POP SWAP4 SWAP3 POP POP POP JUMP JUMPDEST PUSH1 0x0 DUP3 PUSH1 0x1F DUP4 ADD SLT PUSH3 0x32D JUMPI PUSH3 0x32C PUSH3 0x1BF JUMP JUMPDEST JUMPDEST DUP2 MLOAD PUSH3 0x33F DUP5 DUP3 PUSH1 0x20 DUP7 ADD PUSH3 0x2CA JUMP JUMPDEST SWAP2 POP POP SWAP3 SWAP2 POP POP JUMP JUMPDEST PUSH1 0x0 PUSH20 0xFFFFFFFFFFFFFFFFFFFFFFFFFFFFFFFFFFFFFFFF DUP3 AND SWAP1 POP SWAP2 SWAP1 POP JUMP JUMPDEST PUSH1 0x0 PUSH3 0x375 DUP3 PUSH3 0x348 JUMP JUMPDEST SWAP1 POP SWAP2 SWAP1 POP JUMP JUMPDEST PUSH3 0x387 DUP2 PUSH3 0x368 JUMP JUMPDEST DUP2 EQ PUSH3 0x393 JUMPI PUSH1 0x0 DUP1 REVERT JUMPDEST POP JUMP JUMPDEST PUSH1 0x0 DUP2 MLOAD SWAP1 POP PUSH3 0x3A7 DUP2 PUSH3 0x37C JUMP JUMPDEST SWAP3 SWAP2 POP POP JUMP JUMPDEST PUSH1 0x0 DUP1 PUSH1 0x0 PUSH1 0x60 DUP5 DUP7 SUB SLT ISZERO PUSH3 0x3C9 JUMPI PUSH3 0x3C8 PUSH3 0x1B5 JUMP JUMPDEST JUMPDEST PUSH1 0x0 DUP5 ADD MLOAD PUSH8 0xFFFFFFFFFFFFFFFF DUP2 GT ISZERO PUSH3 0x3EA JUMPI PUSH3 0x3E9 PUSH3 0x1BA JUMP JUMPDEST JUMPDEST PUSH3 0x3F8 DUP7 DUP3 DUP8 ADD PUSH3 0x315 JUMP JUMPDEST SWAP4 POP POP PUSH1 0x20 PUSH3 0x40B DUP7 DUP3 DUP8 ADD PUSH3 0x396 JUMP JUMPDEST SWAP3 POP POP PUSH1 0x40 DUP5 ADD MLOAD PUSH8 0xFFFFFFFFFFFFFFFF DUP2 GT ISZERO PUSH3 0x42F JUMPI PUSH3 0x42E PUSH3 0x1BA JUMP JUMPDEST JUMPDEST PUSH3 0x43D DUP7 DUP3 DUP8 ADD PUSH3 0x315 JUMP JUMPDEST SWAP2 POP POP SWAP3 POP SWAP3 POP SWAP3 JUMP JUMPDEST PUSH32 0x4E487B7100000000000000000000000000000000000000000000000000000000 PUSH1 0x0 MSTORE PUSH1 0x22 PUSH1 0x4 MSTORE PUSH1 0x24 PUSH1 0x0 REVERT JUMPDEST PUSH1 0x0 PUSH1 0x2 DUP3 DIV SWAP1 POP PUSH1 0x1 DUP3 AND DUP1 PUSH3 0x48F JUMPI PUSH1 0x7F DUP3 AND SWAP2 POP JUMPDEST PUSH1 0x20 DUP3 LT DUP2 SUB PUSH3 0x4A5 JUMPI PUSH3 0x4A4 PUSH3 0x447 JUMP JUMPDEST JUMPDEST POP SWAP2 SWAP1 POP JUMP JUMPDEST PUSH2 0x134A DUP1 PUSH3 0x4BB PUSH1 0x0 CODECOPY PUSH1 0x0 RETURN INVALID PUSH1 0x80 PUSH1 0x40 MSTORE PUSH1 0x4 CALLDATASIZE LT PUSH2 0x70 JUMPI PUSH1 0x0 CALLDATALOAD PUSH1 0xE0 SHR DUP1 PUSH4 0x4901D7AE GT PUSH2 0x4E JUMPI DUP1 PUSH4 0x4901D7AE EQ PUSH2 0xFA JUMPI DUP1 PUSH4 0x5A436C06 EQ PUSH2 0x116 JUMPI DUP1 PUSH4 0x5AA68AC0 EQ PUSH2 0x132 JUMPI DUP1 PUSH4 0xF9094303 EQ PUSH2 0x15D JUMPI PUSH2 0x70 JUMP JUMPDEST DUP1 PUSH4 0x1EC6B60A EQ PUSH2 0x75 JUMPI DUP1 PUSH4 0x35C1D349 EQ PUSH2 0x8C JUMPI DUP1 PUSH4 0x481C6A75 EQ PUSH2 0xCC JUMPI JUMPDEST PUSH1 0x0 DUP1 REVERT JUMPDEST CALLVALUE DUP1 ISZERO PUSH2 0x81 JUMPI PUSH1 0x0 DUP1 REVERT JUMPDEST POP PUSH2 0x8A PUSH2 0x174 JUMP JUMPDEST STOP JUMPDEST CALLVALUE DUP1 ISZERO PUSH2 0x98 JUMPI PUSH1 0x0 DUP1 REVERT JUMPDEST POP PUSH2 0xB3 PUSH1 0x4 DUP1 CALLDATASIZE SUB DUP2 ADD SWAP1 PUSH2 0xAE SWAP2 SWAP1 PUSH2 0xCA7 JUMP JUMPDEST PUSH2 0x1EE JUMP JUMPDEST PUSH1 0x40 MLOAD PUSH2 0xC3 SWAP5 SWAP4 SWAP3 SWAP2 SWAP1 PUSH2 0xDBD JUMP JUMPDEST PUSH1 0x40 MLOAD DUP1 SWAP2 SUB SWAP1 RETURN JUMPDEST CALLVALUE DUP1 ISZERO PUSH2 0xD8 JUMPI PUSH1 0x0 DUP1 REVERT JUMPDEST POP PUSH2 0xE1 PUSH2 0x35E JUMP JUMPDEST PUSH1 0x40 MLOAD PUSH2 0xF1 SWAP5 SWAP4 SWAP3 SWAP2 SWAP1 PUSH2 0xDBD JUMP JUMPDEST PUSH1 0x40 MLOAD DUP1 SWAP2 SUB SWAP1 RETURN JUMPDEST PUSH2 0x114 PUSH1 0x4 DUP1 CALLDATASIZE SUB DUP2 ADD SWAP1 PUSH2 0x10F SWAP2 SWAP1 PUSH2 0xF71 JUMP JUMPDEST PUSH2 0x4AC JUMP JUMPDEST STOP JUMPDEST PUSH2 0x130 PUSH1 0x4 DUP1 CALLDATASIZE SUB DUP2 ADD SWAP1 PUSH2 0x12B SWAP2 SWAP1 PUSH2 0xFFC JUMP JUMPDEST PUSH2 0x651 JUMP JUMPDEST STOP JUMPDEST CALLVALUE DUP1 ISZERO PUSH2 0x13E JUMPI PUSH1 0x0 DUP1 REVERT JUMPDEST POP PUSH2 0x147 PUSH2 0x8D2 JUMP JUMPDEST PUSH1 0x40 MLOAD PUSH2 0x154 SWAP2 SWAP1 PUSH2 0x11EC JUMP JUMPDEST PUSH1 0x40 MLOAD DUP1 SWAP2 SUB SWAP1 RETURN JUMPDEST CALLVALUE DUP1 ISZERO PUSH2 0x169 JUMPI PUSH1 0x0 DUP1 REVERT JUMPDEST POP PUSH2 0x172 PUSH2 0xAB5 JUMP JUMPDEST STOP JUMPDEST PUSH1 0x0 PUSH1 0x1 ADD PUSH1 0x0 SWAP1 SLOAD SWAP1 PUSH2 0x100 EXP SWAP1 DIV PUSH20 0xFFFFFFFFFFFFFFFFFFFFFFFFFFFFFFFFFFFFFFFF AND PUSH20 0xFFFFFFFFFFFFFFFFFFFFFFFFFFFFFFFFFFFFFFFF AND CALLER PUSH20 0xFFFFFFFFFFFFFFFFFFFFFFFFFFFFFFFFFFFFFFFF AND EQ PUSH2 0x1D1 JUMPI PUSH1 0x0 DUP1 REVERT JUMPDEST PUSH1 0x1 PUSH1 0x8 PUSH1 0x0 PUSH2 0x100 EXP DUP2 SLOAD DUP2 PUSH1 0xFF MUL NOT AND SWAP1 DUP4 ISZERO ISZERO MUL OR SWAP1 SSTORE POP JUMP JUMPDEST PUSH1 0x5 DUP2 DUP2 SLOAD DUP2 LT PUSH2 0x1FE JUMPI PUSH1 0x0 DUP1 REVERT JUMPDEST SWAP1 PUSH1 0x0 MSTORE PUSH1 0x20 PUSH1 0x0 KECCAK256 SWAP1 PUSH1 0x4 MUL ADD PUSH1 0x0 SWAP2 POP SWAP1 POP DUP1 PUSH1 0x0 ADD DUP1 SLOAD PUSH2 0x221 SWAP1 PUSH2 0x123D JUMP JUMPDEST DUP1 PUSH1 0x1F ADD PUSH1 0x20 DUP1 SWAP2 DIV MUL PUSH1 0x20 ADD PUSH1 0x40 MLOAD SWAP1 DUP2 ADD PUSH1 0x40 MSTORE DUP1 SWAP3 SWAP2 SWAP1 DUP2 DUP2 MSTORE PUSH1 0x20 ADD DUP3 DUP1 SLOAD PUSH2 0x24D SWAP1 PUSH2 0x123D JUMP JUMPDEST DUP1 ISZERO PUSH2 0x29A JUMPI DUP1 PUSH1 0x1F LT PUSH2 0x26F JUMPI PUSH2 0x100 DUP1 DUP4 SLOAD DIV MUL DUP4 MSTORE SWAP2 PUSH1 0x20 ADD SWAP2 PUSH2 0x29A JUMP JUMPDEST DUP3 ADD SWAP2 SWAP1 PUSH1 0x0 MSTORE PUSH1 0x20 PUSH1 0x0 KECCAK256 SWAP1 JUMPDEST DUP2 SLOAD DUP2 MSTORE SWAP1 PUSH1 0x1 ADD SWAP1 PUSH1 0x20 ADD DUP1 DUP4 GT PUSH2 0x27D JUMPI DUP3 SWAP1 SUB PUSH1 0x1F AND DUP3 ADD SWAP2 JUMPDEST POP POP POP POP POP SWAP1 DUP1 PUSH1 0x1 ADD PUSH1 0x0 SWAP1 SLOAD SWAP1 PUSH2 0x100 EXP SWAP1 DIV PUSH20 0xFFFFFFFFFFFFFFFFFFFFFFFFFFFFFFFFFFFFFFFF AND SWAP1 DUP1 PUSH1 0x2 ADD DUP1 SLOAD PUSH2 0x2D5 SWAP1 PUSH2 0x123D JUMP JUMPDEST DUP1 PUSH1 0x1F ADD PUSH1 0x20 DUP1 SWAP2 DIV MUL PUSH1 0x20 ADD PUSH1 0x40 MLOAD SWAP1 DUP2 ADD PUSH1 0x40 MSTORE DUP1 SWAP3 SWAP2 SWAP1 DUP2 DUP2 MSTORE PUSH1 0x20 ADD DUP3 DUP1 SLOAD PUSH2 0x301 SWAP1 PUSH2 0x123D JUMP JUMPDEST DUP1 ISZERO PUSH2 0x34E JUMPI DUP1 PUSH1 0x1F LT PUSH2 0x323 JUMPI PUSH2 0x100 DUP1 DUP4 SLOAD DIV MUL DUP4 MSTORE SWAP2 PUSH1 0x20 ADD SWAP2 PUSH2 0x34E JUMP JUMPDEST DUP3 ADD SWAP2 SWAP1 PUSH1 0x0 MSTORE PUSH1 0x20 PUSH1 0x0 KECCAK256 SWAP1 JUMPDEST DUP2 SLOAD DUP2 MSTORE SWAP1 PUSH1 0x1 ADD SWAP1 PUSH1 0x20 ADD DUP1 DUP4 GT PUSH2 0x331 JUMPI DUP3 SWAP1 SUB PUSH1 0x1F AND DUP3 ADD SWAP2 JUMPDEST POP POP POP POP POP SWAP1 DUP1 PUSH1 0x3 ADD SLOAD SWAP1 POP DUP5 JUMP JUMPDEST PUSH1 0x0 DUP1 PUSH1 0x0 ADD DUP1 SLOAD PUSH2 0x36F SWAP1 PUSH2 0x123D JUMP JUMPDEST DUP1 PUSH1 0x1F ADD PUSH1 0x20 DUP1 SWAP2 DIV MUL PUSH1 0x20 ADD PUSH1 0x40 MLOAD SWAP1 DUP2 ADD PUSH1 0x40 MSTORE DUP1 SWAP3 SWAP2 SWAP1 DUP2 DUP2 MSTORE PUSH1 0x20 ADD DUP3 DUP1 SLOAD PUSH2 0x39B SWAP1 PUSH2 0x123D JUMP JUMPDEST DUP1 ISZERO PUSH2 0x3E8 JUMPI DUP1 PUSH1 0x1F LT PUSH2 0x3BD JUMPI PUSH2 0x100 DUP1 DUP4 SLOAD DIV MUL DUP4 MSTORE SWAP2 PUSH1 0x20 ADD SWAP2 PUSH2 0x3E8 JUMP JUMPDEST DUP3 ADD SWAP2 SWAP1 PUSH1 0x0 MSTORE PUSH1 0x20 PUSH1 0x0 KECCAK256 SWAP1 JUMPDEST DUP2 SLOAD DUP2 MSTORE SWAP1 PUSH1 0x1 ADD SWAP1 PUSH1 0x20 ADD DUP1 DUP4 GT PUSH2 0x3CB JUMPI DUP3 SWAP1 SUB PUSH1 0x1F AND DUP3 ADD SWAP2 JUMPDEST POP POP POP POP POP SWAP1 DUP1 PUSH1 0x1 ADD PUSH1 0x0 SWAP1 SLOAD SWAP1 PUSH2 0x100 EXP SWAP1 DIV PUSH20 0xFFFFFFFFFFFFFFFFFFFFFFFFFFFFFFFFFFFFFFFF AND SWAP1 DUP1 PUSH1 0x2 ADD DUP1 SLOAD PUSH2 0x423 SWAP1 PUSH2 0x123D JUMP JUMPDEST DUP1 PUSH1 0x1F ADD PUSH1 0x20 DUP1 SWAP2 DIV MUL PUSH1 0x20 ADD PUSH1 0x40 MLOAD SWAP1 DUP2 ADD PUSH1 0x40 MSTORE DUP1 SWAP3 SWAP2 SWAP1 DUP2 DUP2 MSTORE PUSH1 0x20 ADD DUP3 DUP1 SLOAD PUSH2 0x44F SWAP1 PUSH2 0x123D JUMP JUMPDEST DUP1 ISZERO PUSH2 0x49C JUMPI DUP1 PUSH1 0x1F LT PUSH2 0x471 JUMPI PUSH2 0x100 DUP1 DUP4 SLOAD DIV MUL DUP4 MSTORE SWAP2 PUSH1 0x20 ADD SWAP2 PUSH2 0x49C JUMP JUMPDEST DUP3 ADD SWAP2 SWAP1 PUSH1 0x0 MSTORE PUSH1 0x20 PUSH1 0x0 KECCAK256 SWAP1 JUMPDEST DUP2 SLOAD DUP2 MSTORE SWAP1 PUSH1 0x1 ADD SWAP1 PUSH1 0x20 ADD DUP1 DUP4 GT PUSH2 0x47F JUMPI DUP3 SWAP1 SUB PUSH1 0x1F AND DUP3 ADD SWAP2 JUMPDEST POP POP POP POP POP SWAP1 DUP1 PUSH1 0x3 ADD SLOAD SWAP1 POP DUP5 JUMP JUMPDEST PUSH1 0x0 PUSH1 0x1 ADD PUSH1 0x0 SWAP1 SLOAD SWAP1 PUSH2 0x100 EXP SWAP1 DIV PUSH20 0xFFFFFFFFFFFFFFFFFFFFFFFFFFFFFFFFFFFFFFFF AND PUSH20 0xFFFFFFFFFFFFFFFFFFFFFFFFFFFFFFFFFFFFFFFF AND CALLER PUSH20 0xFFFFFFFFFFFFFFFFFFFFFFFFFFFFFFFFFFFFFFFF AND EQ PUSH2 0x509 JUMPI PUSH1 0x0 DUP1 REVERT JUMPDEST PUSH8 0xC7D713B49DA0000 CALLVALUE GT PUSH2 0x51D JUMPI PUSH1 0x0 DUP1 REVERT JUMPDEST PUSH2 0x525 PUSH2 0xB2F JUMP JUMPDEST DUP4 DUP2 PUSH1 0x0 ADD DUP2 SWAP1 MSTORE POP DUP3 DUP2 PUSH1 0x20 ADD SWAP1 PUSH20 0xFFFFFFFFFFFFFFFFFFFFFFFFFFFFFFFFFFFFFFFF AND SWAP1 DUP2 PUSH20 0xFFFFFFFFFFFFFFFFFFFFFFFFFFFFFFFFFFFFFFFF AND DUP2 MSTORE POP POP DUP2 DUP2 PUSH1 0x40 ADD DUP2 SWAP1 MSTORE POP PUSH1 0x0 DUP2 PUSH1 0x60 ADD DUP2 DUP2 MSTORE POP POP PUSH1 0x5 DUP2 SWAP1 DUP1 PUSH1 0x1 DUP2 SLOAD ADD DUP1 DUP3 SSTORE DUP1 SWAP2 POP POP PUSH1 0x1 SWAP1 SUB SWAP1 PUSH1 0x0 MSTORE PUSH1 0x20 PUSH1 0x0 KECCAK256 SWAP1 PUSH1 0x4 MUL ADD PUSH1 0x0 SWAP1 SWAP2 SWAP1 SWAP2 SWAP1 SWAP2 POP PUSH1 0x0 DUP3 ADD MLOAD DUP2 PUSH1 0x0 ADD SWAP1 DUP1 MLOAD SWAP1 PUSH1 0x20 ADD SWAP1 PUSH2 0x5C2 SWAP3 SWAP2 SWAP1 PUSH2 0xB6D JUMP JUMPDEST POP PUSH1 0x20 DUP3 ADD MLOAD DUP2 PUSH1 0x1 ADD PUSH1 0x0 PUSH2 0x100 EXP DUP2 SLOAD DUP2 PUSH20 0xFFFFFFFFFFFFFFFFFFFFFFFFFFFFFFFFFFFFFFFF MUL NOT AND SWAP1 DUP4 PUSH20 0xFFFFFFFFFFFFFFFFFFFFFFFFFFFFFFFFFFFFFFFF AND MUL OR SWAP1 SSTORE POP PUSH1 0x40 DUP3 ADD MLOAD DUP2 PUSH1 0x2 ADD SWAP1 DUP1 MLOAD SWAP1 PUSH1 0x20 ADD SWAP1 PUSH2 0x626 SWAP3 SWAP2 SWAP1 PUSH2 0xB6D JUMP JUMPDEST POP PUSH1 0x60 DUP3 ADD MLOAD DUP2 PUSH1 0x3 ADD SSTORE POP POP PUSH1 0x4 PUSH1 0x0 DUP2 SLOAD DUP1 SWAP3 SWAP2 SWAP1 PUSH2 0x646 SWAP1 PUSH2 0x129D JUMP JUMPDEST SWAP2 SWAP1 POP SSTORE POP POP POP POP POP JUMP JUMPDEST PUSH1 0x8 PUSH1 0x0 SWAP1 SLOAD SWAP1 PUSH2 0x100 EXP SWAP1 DIV PUSH1 0xFF AND DUP1 ISZERO PUSH2 0x67A JUMPI POP PUSH1 0x8 PUSH1 0x1 SWAP1 SLOAD SWAP1 PUSH2 0x100 EXP SWAP1 DIV PUSH1 0xFF AND ISZERO JUMPDEST PUSH2 0x683 JUMPI PUSH1 0x0 DUP1 REVERT JUMPDEST PUSH8 0x6F05B59D3B20000 CALLVALUE GT PUSH2 0x697 JUMPI PUSH1 0x0 DUP1 REVERT JUMPDEST PUSH2 0x69F PUSH2 0xBF3 JUMP JUMPDEST DUP3 DUP2 PUSH1 0x20 ADD DUP2 SWAP1 MSTORE POP CALLER DUP2 PUSH1 0x0 ADD SWAP1 PUSH20 0xFFFFFFFFFFFFFFFFFFFFFFFFFFFFFFFFFFFFFFFF AND SWAP1 DUP2 PUSH20 0xFFFFFFFFFFFFFFFFFFFFFFFFFFFFFFFFFFFFFFFF AND DUP2 MSTORE POP POP DUP2 DUP2 PUSH1 0x40 ADD SWAP1 PUSH20 0xFFFFFFFFFFFFFFFFFFFFFFFFFFFFFFFFFFFFFFFF AND SWAP1 DUP2 PUSH20 0xFFFFFFFFFFFFFFFFFFFFFFFFFFFFFFFFFFFFFFFF AND DUP2 MSTORE POP POP PUSH1 0x7 DUP2 SWAP1 DUP1 PUSH1 0x1 DUP2 SLOAD ADD DUP1 DUP3 SSTORE DUP1 SWAP2 POP POP PUSH1 0x1 SWAP1 SUB SWAP1 PUSH1 0x0 MSTORE PUSH1 0x20 PUSH1 0x0 KECCAK256 SWAP1 PUSH1 0x3 MUL ADD PUSH1 0x0 SWAP1 SWAP2 SWAP1 SWAP2 SWAP1 SWAP2 POP PUSH1 0x0 DUP3 ADD MLOAD DUP2 PUSH1 0x0 ADD PUSH1 0x0 PUSH2 0x100 EXP DUP2 SLOAD DUP2 PUSH20 0xFFFFFFFFFFFFFFFFFFFFFFFFFFFFFFFFFFFFFFFF MUL NOT AND SWAP1 DUP4 PUSH20 0xFFFFFFFFFFFFFFFFFFFFFFFFFFFFFFFFFFFFFFFF AND MUL OR SWAP1 SSTORE POP PUSH1 0x20 DUP3 ADD MLOAD DUP2 PUSH1 0x1 ADD SWAP1 DUP1 MLOAD SWAP1 PUSH1 0x20 ADD SWAP1 PUSH2 0x7A7 SWAP3 SWAP2 SWAP1 PUSH2 0xB6D JUMP JUMPDEST POP PUSH1 0x40 DUP3 ADD MLOAD DUP2 PUSH1 0x2 ADD PUSH1 0x0 PUSH2 0x100 EXP DUP2 SLOAD DUP2 PUSH20 0xFFFFFFFFFFFFFFFFFFFFFFFFFFFFFFFFFFFFFFFF MUL NOT AND SWAP1 DUP4 PUSH20 0xFFFFFFFFFFFFFFFFFFFFFFFFFFFFFFFFFFFFFFFF AND MUL OR SWAP1 SSTORE POP POP POP PUSH1 0x0 JUMPDEST PUSH1 0x5 DUP1 SLOAD SWAP1 POP DUP2 LT ISZERO PUSH2 0x8CC JUMPI DUP3 PUSH20 0xFFFFFFFFFFFFFFFFFFFFFFFFFFFFFFFFFFFFFFFF AND PUSH1 0x5 DUP3 DUP2 SLOAD DUP2 LT PUSH2 0x82C JUMPI PUSH2 0x82B PUSH2 0x12E5 JUMP JUMPDEST JUMPDEST SWAP1 PUSH1 0x0 MSTORE PUSH1 0x20 PUSH1 0x0 KECCAK256 SWAP1 PUSH1 0x4 MUL ADD PUSH1 0x1 ADD PUSH1 0x0 SWAP1 SLOAD SWAP1 PUSH2 0x100 EXP SWAP1 DIV PUSH20 0xFFFFFFFFFFFFFFFFFFFFFFFFFFFFFFFFFFFFFFFF AND PUSH20 0xFFFFFFFFFFFFFFFFFFFFFFFFFFFFFFFFFFFFFFFF AND SUB PUSH2 0x8B9 JUMPI PUSH1 0x5 DUP2 DUP2 SLOAD DUP2 LT PUSH2 0x88D JUMPI PUSH2 0x88C PUSH2 0x12E5 JUMP JUMPDEST JUMPDEST SWAP1 PUSH1 0x0 MSTORE PUSH1 0x20 PUSH1 0x0 KECCAK256 SWAP1 PUSH1 0x4 MUL ADD PUSH1 0x3 ADD PUSH1 0x0 DUP2 SLOAD DUP1 SWAP3 SWAP2 SWAP1 PUSH2 0x8AF SWAP1 PUSH2 0x129D JUMP JUMPDEST SWAP2 SWAP1 POP SSTORE POP PUSH2 0x8CC JUMP JUMPDEST DUP1 DUP1 PUSH2 0x8C4 SWAP1 PUSH2 0x129D JUMP JUMPDEST SWAP2 POP POP PUSH2 0x7F4 JUMP JUMPDEST POP POP POP POP JUMP JUMPDEST PUSH1 0x60 PUSH1 0x5 DUP1 SLOAD DUP1 PUSH1 0x20 MUL PUSH1 0x20 ADD PUSH1 0x40 MLOAD SWAP1 DUP2 ADD PUSH1 0x40 MSTORE DUP1 SWAP3 SWAP2 SWAP1 DUP2 DUP2 MSTORE PUSH1 0x20 ADD PUSH1 0x0 SWAP1 JUMPDEST DUP3 DUP3 LT ISZERO PUSH2 0xAAC JUMPI DUP4 DUP3 SWAP1 PUSH1 0x0 MSTORE PUSH1 0x20 PUSH1 0x0 KECCAK256 SWAP1 PUSH1 0x4 MUL ADD PUSH1 0x40 MLOAD DUP1 PUSH1 0x80 ADD PUSH1 0x40 MSTORE SWAP1 DUP2 PUSH1 0x0 DUP3 ADD DUP1 SLOAD PUSH2 0x929 SWAP1 PUSH2 0x123D JUMP JUMPDEST DUP1 PUSH1 0x1F ADD PUSH1 0x20 DUP1 SWAP2 DIV MUL PUSH1 0x20 ADD PUSH1 0x40 MLOAD SWAP1 DUP2 ADD PUSH1 0x40 MSTORE DUP1 SWAP3 SWAP2 SWAP1 DUP2 DUP2 MSTORE PUSH1 0x20 ADD DUP3 DUP1 SLOAD PUSH2 0x955 SWAP1 PUSH2 0x123D JUMP JUMPDEST DUP1 ISZERO PUSH2 0x9A2 JUMPI DUP1 PUSH1 0x1F LT PUSH2 0x977 JUMPI PUSH2 0x100 DUP1 DUP4 SLOAD DIV MUL DUP4 MSTORE SWAP2 PUSH1 0x20 ADD SWAP2 PUSH2 0x9A2 JUMP JUMPDEST DUP3 ADD SWAP2 SWAP1 PUSH1 0x0 MSTORE PUSH1 0x20 PUSH1 0x0 KECCAK256 SWAP1 JUMPDEST DUP2 SLOAD DUP2 MSTORE SWAP1 PUSH1 0x1 ADD SWAP1 PUSH1 0x20 ADD DUP1 DUP4 GT PUSH2 0x985 JUMPI DUP3 SWAP1 SUB PUSH1 0x1F AND DUP3 ADD SWAP2 JUMPDEST POP POP POP POP POP DUP2 MSTORE PUSH1 0x20 ADD PUSH1 0x1 DUP3 ADD PUSH1 0x0 SWAP1 SLOAD SWAP1 PUSH2 0x100 EXP SWAP1 DIV PUSH20 0xFFFFFFFFFFFFFFFFFFFFFFFFFFFFFFFFFFFFFFFF AND PUSH20 0xFFFFFFFFFFFFFFFFFFFFFFFFFFFFFFFFFFFFFFFF AND PUSH20 0xFFFFFFFFFFFFFFFFFFFFFFFFFFFFFFFFFFFFFFFF AND DUP2 MSTORE PUSH1 0x20 ADD PUSH1 0x2 DUP3 ADD DUP1 SLOAD PUSH2 0xA11 SWAP1 PUSH2 0x123D JUMP JUMPDEST DUP1 PUSH1 0x1F ADD PUSH1 0x20 DUP1 SWAP2 DIV MUL PUSH1 0x20 ADD PUSH1 0x40 MLOAD SWAP1 DUP2 ADD PUSH1 0x40 MSTORE DUP1 SWAP3 SWAP2 SWAP1 DUP2 DUP2 MSTORE PUSH1 0x20 ADD DUP3 DUP1 SLOAD PUSH2 0xA3D SWAP1 PUSH2 0x123D JUMP JUMPDEST DUP1 ISZERO PUSH2 0xA8A JUMPI DUP1 PUSH1 0x1F LT PUSH2 0xA5F JUMPI PUSH2 0x100 DUP1 DUP4 SLOAD DIV MUL DUP4 MSTORE SWAP2 PUSH1 0x20 ADD SWAP2 PUSH2 0xA8A JUMP JUMPDEST DUP3 ADD SWAP2 SWAP1 PUSH1 0x0 MSTORE PUSH1 0x20 PUSH1 0x0 KECCAK256 SWAP1 JUMPDEST DUP2 SLOAD DUP2 MSTORE SWAP1 PUSH1 0x1 ADD SWAP1 PUSH1 0x20 ADD DUP1 DUP4 GT PUSH2 0xA6D JUMPI DUP3 SWAP1 SUB PUSH1 0x1F AND DUP3 ADD SWAP2 JUMPDEST POP POP POP POP POP DUP2 MSTORE PUSH1 0x20 ADD PUSH1 0x3 DUP3 ADD SLOAD DUP2 MSTORE POP POP DUP2 MSTORE PUSH1 0x20 ADD SWAP1 PUSH1 0x1 ADD SWAP1 PUSH2 0x8F6 JUMP JUMPDEST POP POP POP POP SWAP1 POP SWAP1 JUMP JUMPDEST PUSH1 0x0 PUSH1 0x1 ADD PUSH1 0x0 SWAP1 SLOAD SWAP1 PUSH2 0x100 EXP SWAP1 DIV PUSH20 0xFFFFFFFFFFFFFFFFFFFFFFFFFFFFFFFFFFFFFFFF AND PUSH20 0xFFFFFFFFFFFFFFFFFFFFFFFFFFFFFFFFFFFFFFFF AND CALLER PUSH20 0xFFFFFFFFFFFFFFFFFFFFFFFFFFFFFFFFFFFFFFFF AND EQ PUSH2 0xB12 JUMPI PUSH1 0x0 DUP1 REVERT JUMPDEST PUSH1 0x1 PUSH1 0x8 PUSH1 0x1 PUSH2 0x100 EXP DUP2 SLOAD DUP2 PUSH1 0xFF MUL NOT AND SWAP1 DUP4 ISZERO ISZERO MUL OR SWAP1 SSTORE POP JUMP JUMPDEST PUSH1 0x40 MLOAD DUP1 PUSH1 0x80 ADD PUSH1 0x40 MSTORE DUP1 PUSH1 0x60 DUP2 MSTORE PUSH1 0x20 ADD PUSH1 0x0 PUSH20 0xFFFFFFFFFFFFFFFFFFFFFFFFFFFFFFFFFFFFFFFF AND DUP2 MSTORE PUSH1 0x20 ADD PUSH1 0x60 DUP2 MSTORE PUSH1 0x20 ADD PUSH1 0x0 DUP2 MSTORE POP SWAP1 JUMP JUMPDEST DUP3 DUP1 SLOAD PUSH2 0xB79 SWAP1 PUSH2 0x123D JUMP JUMPDEST SWAP1 PUSH1 0x0 MSTORE PUSH1 0x20 PUSH1 0x0 KECCAK256 SWAP1 PUSH1 0x1F ADD PUSH1 0x20 SWAP1 DIV DUP2 ADD SWAP3 DUP3 PUSH2 0xB9B JUMPI PUSH1 0x0 DUP6 SSTORE PUSH2 0xBE2 JUMP JUMPDEST DUP3 PUSH1 0x1F LT PUSH2 0xBB4 JUMPI DUP1 MLOAD PUSH1 0xFF NOT AND DUP4 DUP1 ADD OR DUP6 SSTORE PUSH2 0xBE2 JUMP JUMPDEST DUP3 DUP1 ADD PUSH1 0x1 ADD DUP6 SSTORE DUP3 ISZERO PUSH2 0xBE2 JUMPI SWAP2 DUP3 ADD JUMPDEST DUP3 DUP2 GT ISZERO PUSH2 0xBE1 JUMPI DUP3 MLOAD DUP3 SSTORE SWAP2 PUSH1 0x20 ADD SWAP2 SWAP1 PUSH1 0x1 ADD SWAP1 PUSH2 0xBC6 JUMP JUMPDEST JUMPDEST POP SWAP1 POP PUSH2 0xBEF SWAP2 SWAP1 PUSH2 0xC40 JUMP JUMPDEST POP SWAP1 JUMP JUMPDEST PUSH1 0x40 MLOAD DUP1 PUSH1 0x60 ADD PUSH1 0x40 MSTORE DUP1 PUSH1 0x0 PUSH20 0xFFFFFFFFFFFFFFFFFFFFFFFFFFFFFFFFFFFFFFFF AND DUP2 MSTORE PUSH1 0x20 ADD PUSH1 0x60 DUP2 MSTORE PUSH1 0x20 ADD PUSH1 0x0 PUSH20 0xFFFFFFFFFFFFFFFFFFFFFFFFFFFFFFFFFFFFFFFF AND DUP2 MSTORE POP SWAP1 JUMP JUMPDEST JUMPDEST DUP1 DUP3 GT ISZERO PUSH2 0xC59 JUMPI PUSH1 0x0 DUP2 PUSH1 0x0 SWAP1 SSTORE POP PUSH1 0x1 ADD PUSH2 0xC41 JUMP JUMPDEST POP SWAP1 JUMP JUMPDEST PUSH1 0x0 PUSH1 0x40 MLOAD SWAP1 POP SWAP1 JUMP JUMPDEST PUSH1 0x0 DUP1 REVERT JUMPDEST PUSH1 0x0 DUP1 REVERT JUMPDEST PUSH1 0x0 DUP2 SWAP1 POP SWAP2 SWAP1 POP JUMP JUMPDEST PUSH2 0xC84 DUP2 PUSH2 0xC71 JUMP JUMPDEST DUP2 EQ PUSH2 0xC8F JUMPI PUSH1 0x0 DUP1 REVERT JUMPDEST POP JUMP JUMPDEST PUSH1 0x0 DUP2 CALLDATALOAD SWAP1 POP PUSH2 0xCA1 DUP2 PUSH2 0xC7B JUMP JUMPDEST SWAP3 SWAP2 POP POP JUMP JUMPDEST PUSH1 0x0 PUSH1 0x20 DUP3 DUP5 SUB SLT ISZERO PUSH2 0xCBD JUMPI PUSH2 0xCBC PUSH2 0xC67 JUMP JUMPDEST JUMPDEST PUSH1 0x0 PUSH2 0xCCB DUP5 DUP3 DUP6 ADD PUSH2 0xC92 JUMP JUMPDEST SWAP2 POP POP SWAP3 SWAP2 POP POP JUMP JUMPDEST PUSH1 0x0 DUP2 MLOAD SWAP1 POP SWAP2 SWAP1 POP JUMP JUMPDEST PUSH1 0x0 DUP3 DUP3 MSTORE PUSH1 0x20 DUP3 ADD SWAP1 POP SWAP3 SWAP2 POP POP JUMP JUMPDEST PUSH1 0x0 JUMPDEST DUP4 DUP2 LT ISZERO PUSH2 0xD0E JUMPI DUP1 DUP3 ADD MLOAD DUP2 DUP5 ADD MSTORE PUSH1 0x20 DUP2 ADD SWAP1 POP PUSH2 0xCF3 JUMP JUMPDEST DUP4 DUP2 GT ISZERO PUSH2 0xD1D JUMPI PUSH1 0x0 DUP5 DUP5 ADD MSTORE JUMPDEST POP POP POP POP JUMP JUMPDEST PUSH1 0x0 PUSH1 0x1F NOT PUSH1 0x1F DUP4 ADD AND SWAP1 POP SWAP2 SWAP1 POP JUMP JUMPDEST PUSH1 0x0 PUSH2 0xD3F DUP3 PUSH2 0xCD4 JUMP JUMPDEST PUSH2 0xD49 DUP2 DUP6 PUSH2 0xCDF JUMP JUMPDEST SWAP4 POP PUSH2 0xD59 DUP2 DUP6 PUSH1 0x20 DUP7 ADD PUSH2 0xCF0 JUMP JUMPDEST PUSH2 0xD62 DUP2 PUSH2 0xD23 JUMP JUMPDEST DUP5 ADD SWAP2 POP POP SWAP3 SWAP2 POP POP JUMP JUMPDEST PUSH1 0x0 PUSH20 0xFFFFFFFFFFFFFFFFFFFFFFFFFFFFFFFFFFFFFFFF DUP3 AND SWAP1 POP SWAP2 SWAP1 POP JUMP JUMPDEST PUSH1 0x0 PUSH2 0xD98 DUP3 PUSH2 0xD6D JUMP JUMPDEST SWAP1 POP SWAP2 SWAP1 POP JUMP JUMPDEST PUSH2 0xDA8 DUP2 PUSH2 0xD8D JUMP JUMPDEST DUP3 MSTORE POP POP JUMP JUMPDEST PUSH2 0xDB7 DUP2 PUSH2 0xC71 JUMP JUMPDEST DUP3 MSTORE POP POP JUMP JUMPDEST PUSH1 0x0 PUSH1 0x80 DUP3 ADD SWAP1 POP DUP2 DUP2 SUB PUSH1 0x0 DUP4 ADD MSTORE PUSH2 0xDD7 DUP2 DUP8 PUSH2 0xD34 JUMP JUMPDEST SWAP1 POP PUSH2 0xDE6 PUSH1 0x20 DUP4 ADD DUP7 PUSH2 0xD9F JUMP JUMPDEST DUP2 DUP2 SUB PUSH1 0x40 DUP4 ADD MSTORE PUSH2 0xDF8 DUP2 DUP6 PUSH2 0xD34 JUMP JUMPDEST SWAP1 POP PUSH2 0xE07 PUSH1 0x60 DUP4 ADD DUP5 PUSH2 0xDAE JUMP JUMPDEST SWAP6 SWAP5 POP POP POP POP POP JUMP JUMPDEST PUSH1 0x0 DUP1 REVERT JUMPDEST PUSH1 0x0 DUP1 REVERT JUMPDEST PUSH32 0x4E487B7100000000000000000000000000000000000000000000000000000000 PUSH1 0x0 MSTORE PUSH1 0x41 PUSH1 0x4 MSTORE PUSH1 0x24 PUSH1 0x0 REVERT JUMPDEST PUSH2 0xE52 DUP3 PUSH2 0xD23 JUMP JUMPDEST DUP2 ADD DUP2 DUP2 LT PUSH8 0xFFFFFFFFFFFFFFFF DUP3 GT OR ISZERO PUSH2 0xE71 JUMPI PUSH2 0xE70 PUSH2 0xE1A JUMP JUMPDEST JUMPDEST DUP1 PUSH1 0x40 MSTORE POP POP POP JUMP JUMPDEST PUSH1 0x0 PUSH2 0xE84 PUSH2 0xC5D JUMP JUMPDEST SWAP1 POP PUSH2 0xE90 DUP3 DUP3 PUSH2 0xE49 JUMP JUMPDEST SWAP2 SWAP1 POP JUMP JUMPDEST PUSH1 0x0 PUSH8 0xFFFFFFFFFFFFFFFF DUP3 GT ISZERO PUSH2 0xEB0 JUMPI PUSH2 0xEAF PUSH2 0xE1A JUMP JUMPDEST JUMPDEST PUSH2 0xEB9 DUP3 PUSH2 0xD23 JUMP JUMPDEST SWAP1 POP PUSH1 0x20 DUP2 ADD SWAP1 POP SWAP2 SWAP1 POP JUMP JUMPDEST DUP3 DUP2 DUP4 CALLDATACOPY PUSH1 0x0 DUP4 DUP4 ADD MSTORE POP POP POP JUMP JUMPDEST PUSH1 0x0 PUSH2 0xEE8 PUSH2 0xEE3 DUP5 PUSH2 0xE95 JUMP JUMPDEST PUSH2 0xE7A JUMP JUMPDEST SWAP1 POP DUP3 DUP2 MSTORE PUSH1 0x20 DUP2 ADD DUP5 DUP5 DUP5 ADD GT ISZERO PUSH2 0xF04 JUMPI PUSH2 0xF03 PUSH2 0xE15 JUMP JUMPDEST JUMPDEST PUSH2 0xF0F DUP5 DUP3 DUP6 PUSH2 0xEC6 JUMP JUMPDEST POP SWAP4 SWAP3 POP POP POP JUMP JUMPDEST PUSH1 0x0 DUP3 PUSH1 0x1F DUP4 ADD SLT PUSH2 0xF2C JUMPI PUSH2 0xF2B PUSH2 0xE10 JUMP JUMPDEST JUMPDEST DUP2 CALLDATALOAD PUSH2 0xF3C DUP5 DUP3 PUSH1 0x20 DUP7 ADD PUSH2 0xED5 JUMP JUMPDEST SWAP2 POP POP SWAP3 SWAP2 POP POP JUMP JUMPDEST PUSH2 0xF4E DUP2 PUSH2 0xD8D JUMP JUMPDEST DUP2 EQ PUSH2 0xF59 JUMPI PUSH1 0x0 DUP1 REVERT JUMPDEST POP JUMP JUMPDEST PUSH1 0x0 DUP2 CALLDATALOAD SWAP1 POP PUSH2 0xF6B DUP2 PUSH2 0xF45 JUMP JUMPDEST SWAP3 SWAP2 POP POP JUMP JUMPDEST PUSH1 0x0 DUP1 PUSH1 0x0 PUSH1 0x60 DUP5 DUP7 SUB SLT ISZERO PUSH2 0xF8A JUMPI PUSH2 0xF89 PUSH2 0xC67 JUMP JUMPDEST JUMPDEST PUSH1 0x0 DUP5 ADD CALLDATALOAD PUSH8 0xFFFFFFFFFFFFFFFF DUP2 GT ISZERO PUSH2 0xFA8 JUMPI PUSH2 0xFA7 PUSH2 0xC6C JUMP JUMPDEST JUMPDEST PUSH2 0xFB4 DUP7 DUP3 DUP8 ADD PUSH2 0xF17 JUMP JUMPDEST SWAP4 POP POP PUSH1 0x20 PUSH2 0xFC5 DUP7 DUP3 DUP8 ADD PUSH2 0xF5C JUMP JUMPDEST SWAP3 POP POP PUSH1 0x40 DUP5 ADD CALLDATALOAD PUSH8 0xFFFFFFFFFFFFFFFF DUP2 GT ISZERO PUSH2 0xFE6 JUMPI PUSH2 0xFE5 PUSH2 0xC6C JUMP JUMPDEST JUMPDEST PUSH2 0xFF2 DUP7 DUP3 DUP8 ADD PUSH2 0xF17 JUMP JUMPDEST SWAP2 POP POP SWAP3 POP SWAP3 POP SWAP3 JUMP JUMPDEST PUSH1 0x0 DUP1 PUSH1 0x40 DUP4 DUP6 SUB SLT ISZERO PUSH2 0x1013 JUMPI PUSH2 0x1012 PUSH2 0xC67 JUMP JUMPDEST JUMPDEST PUSH1 0x0 DUP4 ADD CALLDATALOAD PUSH8 0xFFFFFFFFFFFFFFFF DUP2 GT ISZERO PUSH2 0x1031 JUMPI PUSH2 0x1030 PUSH2 0xC6C JUMP JUMPDEST JUMPDEST PUSH2 0x103D DUP6 DUP3 DUP7 ADD PUSH2 0xF17 JUMP JUMPDEST SWAP3 POP POP PUSH1 0x20 PUSH2 0x104E DUP6 DUP3 DUP7 ADD PUSH2 0xF5C JUMP JUMPDEST SWAP2 POP POP SWAP3 POP SWAP3 SWAP1 POP JUMP JUMPDEST PUSH1 0x0 DUP2 MLOAD SWAP1 POP SWAP2 SWAP1 POP JUMP JUMPDEST PUSH1 0x0 DUP3 DUP3 MSTORE PUSH1 0x20 DUP3 ADD SWAP1 POP SWAP3 SWAP2 POP POP JUMP JUMPDEST PUSH1 0x0 DUP2 SWAP1 POP PUSH1 0x20 DUP3 ADD SWAP1 POP SWAP2 SWAP1 POP JUMP JUMPDEST PUSH1 0x0 DUP3 DUP3 MSTORE PUSH1 0x20 DUP3 ADD SWAP1 POP SWAP3 SWAP2 POP POP JUMP JUMPDEST PUSH1 0x0 PUSH2 0x10A0 DUP3 PUSH2 0xCD4 JUMP JUMPDEST PUSH2 0x10AA DUP2 DUP6 PUSH2 0x1084 JUMP JUMPDEST SWAP4 POP PUSH2 0x10BA DUP2 DUP6 PUSH1 0x20 DUP7 ADD PUSH2 0xCF0 JUMP JUMPDEST PUSH2 0x10C3 DUP2 PUSH2 0xD23 JUMP JUMPDEST DUP5 ADD SWAP2 POP POP SWAP3 SWAP2 POP POP JUMP JUMPDEST PUSH2 0x10D7 DUP2 PUSH2 0xD8D JUMP JUMPDEST DUP3 MSTORE POP POP JUMP JUMPDEST PUSH2 0x10E6 DUP2 PUSH2 0xC71 JUMP JUMPDEST DUP3 MSTORE POP POP JUMP JUMPDEST PUSH1 0x0 PUSH1 0x80 DUP4 ADD PUSH1 0x0 DUP4 ADD MLOAD DUP5 DUP3 SUB PUSH1 0x0 DUP7 ADD MSTORE PUSH2 0x1109 DUP3 DUP3 PUSH2 0x1095 JUMP JUMPDEST SWAP2 POP POP PUSH1 0x20 DUP4 ADD MLOAD PUSH2 0x111E PUSH1 0x20 DUP7 ADD DUP3 PUSH2 0x10CE JUMP JUMPDEST POP PUSH1 0x40 DUP4 ADD MLOAD DUP5 DUP3 SUB PUSH1 0x40 DUP7 ADD MSTORE PUSH2 0x1136 DUP3 DUP3 PUSH2 0x1095 JUMP JUMPDEST SWAP2 POP POP PUSH1 0x60 DUP4 ADD MLOAD PUSH2 0x114B PUSH1 0x60 DUP7 ADD DUP3 PUSH2 0x10DD JUMP JUMPDEST POP DUP1 SWAP2 POP POP SWAP3 SWAP2 POP POP JUMP JUMPDEST PUSH1 0x0 PUSH2 0x1162 DUP4 DUP4 PUSH2 0x10EC JUMP JUMPDEST SWAP1 POP SWAP3 SWAP2 POP POP JUMP JUMPDEST PUSH1 0x0 PUSH1 0x20 DUP3 ADD SWAP1 POP SWAP2 SWAP1 POP JUMP JUMPDEST PUSH1 0x0 PUSH2 0x1182 DUP3 PUSH2 0x1058 JUMP JUMPDEST PUSH2 0x118C DUP2 DUP6 PUSH2 0x1063 JUMP JUMPDEST SWAP4 POP DUP4 PUSH1 0x20 DUP3 MUL DUP6 ADD PUSH2 0x119E DUP6 PUSH2 0x1074 JUMP JUMPDEST DUP1 PUSH1 0x0 JUMPDEST DUP6 DUP2 LT ISZERO PUSH2 0x11DA JUMPI DUP5 DUP5 SUB DUP10 MSTORE DUP2 MLOAD PUSH2 0x11BB DUP6 DUP3 PUSH2 0x1156 JUMP JUMPDEST SWAP5 POP PUSH2 0x11C6 DUP4 PUSH2 0x116A JUMP JUMPDEST SWAP3 POP PUSH1 0x20 DUP11 ADD SWAP10 POP POP PUSH1 0x1 DUP2 ADD SWAP1 POP PUSH2 0x11A2 JUMP JUMPDEST POP DUP3 SWAP8 POP DUP8 SWAP6 POP POP POP POP POP POP SWAP3 SWAP2 POP POP JUMP JUMPDEST PUSH1 0x0 PUSH1 0x20 DUP3 ADD SWAP1 POP DUP2 DUP2 SUB PUSH1 0x0 DUP4 ADD MSTORE PUSH2 0x1206 DUP2 DUP5 PUSH2 0x1177 JUMP JUMPDEST SWAP1 POP SWAP3 SWAP2 POP POP JUMP JUMPDEST PUSH32 0x4E487B7100000000000000000000000000000000000000000000000000000000 PUSH1 0x0 MSTORE PUSH1 0x22 PUSH1 0x4 MSTORE PUSH1 0x24 PUSH1 0x0 REVERT JUMPDEST PUSH1 0x0 PUSH1 0x2 DUP3 DIV SWAP1 POP PUSH1 0x1 DUP3 AND DUP1 PUSH2 0x1255 JUMPI PUSH1 0x7F DUP3 AND SWAP2 POP JUMPDEST PUSH1 0x20 DUP3 LT DUP2 SUB PUSH2 0x1268 JUMPI PUSH2 0x1267 PUSH2 0x120E JUMP JUMPDEST JUMPDEST POP SWAP2 SWAP1 POP JUMP JUMPDEST PUSH32 0x4E487B7100000000000000000000000000000000000000000000000000000000 PUSH1 0x0 MSTORE PUSH1 0x11 PUSH1 0x4 MSTORE PUSH1 0x24 PUSH1 0x0 REVERT JUMPDEST PUSH1 0x0 PUSH2 0x12A8 DUP3 PUSH2 0xC71 JUMP JUMPDEST SWAP2 POP PUSH32 0xFFFFFFFFFFFFFFFFFFFFFFFFFFFFFFFFFFFFFFFFFFFFFFFFFFFFFFFFFFFFFFFF DUP3 SUB PUSH2 0x12DA JUMPI PUSH2 0x12D9 PUSH2 0x126E JUMP JUMPDEST JUMPDEST PUSH1 0x1 DUP3 ADD SWAP1 POP SWAP2 SWAP1 POP JUMP JUMPDEST PUSH32 0x4E487B7100000000000000000000000000000000000000000000000000000000 PUSH1 0x0 MSTORE PUSH1 0x32 PUSH1 0x4 MSTORE PUSH1 0x24 PUSH1 0x0 REVERT INVALID LOG2 PUSH5 0x6970667358 0x22 SLT KECCAK256 RETURNDATACOPY POP PUSH15 0x1EBDEAC0E7732A4FD314AAE1FC9388 0x49 0xD 0xA7 SELFDESTRUCT DIFFICULTY 0x4D 0xDD POP 0xD6 0xE3 0xB2 PUSH25 0xBD8B64736F6C634300080D0033A26469706673582212203173 0xDF SHR POP 0xEB SWAP6 PUSH29 0xC2D02E837B2E941BCB1343CD8F4F1FCA5420971A39B1D4E064736F6C63 NUMBER STOP ADDMOD 0xD STOP CALLER "},"gasEstimates":{"creation":{"codeDepositCost":"1614800","executionCost":"1694","totalCost":"1616494"},"external":{"createBallot(string,string)":"infinite","deployedBallots(uint256)":"infinite","getDeployedBallots()":"infinite"}},"methodIdentifiers":{"createBallot(string,string)":"6fa4f103","deployedBallots(uint256)":"cdf74c3e","getDeployedBallots()":"9b935abf"}},"storageLayout":{"storage":[{"astId":5,"contract":"Ballot.sol:BallotFactory","label":"deployedBallots","offset":0,"slot":"0","type":"t_array(t_contract(Ballot)297)dyn_storage"}],"types":{"t_array(t_contract(Ballot)297)dyn_storage":{"base":"t_contract(Ballot)297","encoding":"dynamic_array","label":"contract Ballot[]","numberOfBytes":"32"},"t_contract(Ballot)297":{"encoding":"inplace","label":"contract Ballot","numberOfBytes":"20"}}},"userdoc":{"kind":"user","methods":{},"version":1}}