{"abi":[{"inputs":[{"internalType":"string","name":"creator","type":"string"},{"internalType":"string","name":"image","type":"string"},{"internalType":"string","name":"nameOfBallot","type":"string"},{"internalType":"string","name":"description","type":"string"}],"name":"createBallot","outputs":[],"stateMutability":"nonpayable","type":"function"},{"inputs":[{"internalType":"uint256","name":"","type":"uint256"}],"name":"deployedBallots","outputs":[{"internalType":"contract Ballot","name":"","type":"address"}],"stateMutability":"view","type":"function"},{"inputs":[],"name":"getDeployedBallots","outputs":[{"internalType":"contract Ballot[]","name":"","type":"address[]"}],"stateMutability":"view","type":"function"}],"devdoc":{"kind":"dev","methods":{},"version":1},"evm":{"assembly":"    /* \"Ballot.sol\":167:636  contract BallotFactory {... */\n  mstore(0x40, 0x80)\n  callvalue\n  dup1\n  iszero\n  tag_1\n  jumpi\n  0x00\n  dup1\n  revert\ntag_1:\n  pop\n  dataSize(sub_0)\n  dup1\n  dataOffset(sub_0)\n  0x00\n  codecopy\n  0x00\n  return\nstop\n\nsub_0: assembly {\n        /* \"Ballot.sol\":167:636  contract BallotFactory {... */\n      mstore(0x40, 0x80)\n      callvalue\n      dup1\n      iszero\n      tag_1\n      jumpi\n      0x00\n      dup1\n      revert\n    tag_1:\n      pop\n      jumpi(tag_2, lt(calldatasize, 0x04))\n      shr(0xe0, calldataload(0x00))\n      dup1\n      0x05634063\n      eq\n      tag_3\n      jumpi\n      dup1\n      0x9b935abf\n      eq\n      tag_4\n      jumpi\n      dup1\n      0xcdf74c3e\n      eq\n      tag_5\n      jumpi\n    tag_2:\n      0x00\n      dup1\n      revert\n        /* \"Ballot.sol\":237:516  function createBallot(string memory creator , string memory image , string memory nameOfBallot , string memory description) public {... */\n    tag_3:\n      tag_6\n      0x04\n      dup1\n      calldatasize\n      sub\n      dup2\n      add\n      swap1\n      tag_7\n      swap2\n      swap1\n      tag_8\n      jump\t// in\n    tag_7:\n      tag_9\n      jump\t// in\n    tag_6:\n      stop\n        /* \"Ballot.sol\":524:633  function getDeployedBallots() public view returns (Ballot[] memory) {... */\n    tag_4:\n      tag_10\n      tag_11\n      jump\t// in\n    tag_10:\n      mload(0x40)\n      tag_12\n      swap2\n      swap1\n      tag_13\n      jump\t// in\n    tag_12:\n      mload(0x40)\n      dup1\n      swap2\n      sub\n      swap1\n      return\n        /* \"Ballot.sol\":197:228  Ballot[] public deployedBallots */\n    tag_5:\n      tag_14\n      0x04\n      dup1\n      calldatasize\n      sub\n      dup2\n      add\n      swap1\n      tag_15\n      swap2\n      swap1\n      tag_16\n      jump\t// in\n    tag_15:\n      tag_17\n      jump\t// in\n    tag_14:\n      mload(0x40)\n      tag_18\n      swap2\n      swap1\n      tag_19\n      jump\t// in\n    tag_18:\n      mload(0x40)\n      dup1\n      swap2\n      sub\n      swap1\n      return\n        /* \"Ballot.sol\":237:516  function createBallot(string memory creator , string memory image , string memory nameOfBallot , string memory description) public {... */\n    tag_9:\n        /* \"Ballot.sol\":379:395  Ballot newBallot */\n      0x00\n        /* \"Ballot.sol\":409:416  creator */\n      dup5\n        /* \"Ballot.sol\":418:428  msg.sender */\n      caller\n        /* \"Ballot.sol\":431:436  image */\n      dup6\n        /* \"Ballot.sol\":439:451  nameOfBallot */\n      dup6\n        /* \"Ballot.sol\":454:465  description */\n      dup6\n        /* \"Ballot.sol\":398:466  new Ballot(creator, msg.sender , image , nameOfBallot , description) */\n      mload(0x40)\n      tag_21\n      swap1\n      tag_22\n      jump\t// in\n    tag_21:\n      tag_23\n      swap6\n      swap5\n      swap4\n      swap3\n      swap2\n      swap1\n      tag_24\n      jump\t// in\n    tag_23:\n      mload(0x40)\n      dup1\n      swap2\n      sub\n      swap1\n      0x00\n      create\n      dup1\n      iszero\n      dup1\n      iszero\n      tag_25\n      jumpi\n      returndatasize\n      0x00\n      dup1\n      returndatacopy\n      revert(0x00, returndatasize)\n    tag_25:\n      pop\n        /* \"Ballot.sol\":379:466  Ballot newBallot = new Ballot(creator, msg.sender , image , nameOfBallot , description) */\n      swap1\n      pop\n        /* \"Ballot.sol\":477:492  deployedBallots */\n      0x00\n        /* \"Ballot.sol\":498:507  newBallot */\n      dup2\n        /* \"Ballot.sol\":477:508  deployedBallots.push(newBallot) */\n      swap1\n      dup1\n      0x01\n      dup2\n      sload\n      add\n      dup1\n      dup3\n      sstore\n      dup1\n      swap2\n      pop\n      pop\n      0x01\n      swap1\n      sub\n      swap1\n      0x00\n      mstore\n      keccak256(0x00, 0x20)\n      add\n      0x00\n      swap1\n      swap2\n      swap1\n      swap2\n      swap1\n      swap2\n      0x0100\n      exp\n      dup2\n      sload\n      dup2\n      0xffffffffffffffffffffffffffffffffffffffff\n      mul\n      not\n      and\n      swap1\n      dup4\n      0xffffffffffffffffffffffffffffffffffffffff\n      and\n      mul\n      or\n      swap1\n      sstore\n      pop\n        /* \"Ballot.sol\":368:516  {... */\n      pop\n        /* \"Ballot.sol\":237:516  function createBallot(string memory creator , string memory image , string memory nameOfBallot , string memory description) public {... */\n      pop\n      pop\n      pop\n      pop\n      jump\t// out\n        /* \"Ballot.sol\":524:633  function getDeployedBallots() public view returns (Ballot[] memory) {... */\n    tag_11:\n        /* \"Ballot.sol\":575:590  Ballot[] memory */\n      0x60\n        /* \"Ballot.sol\":610:625  deployedBallots */\n      0x00\n        /* \"Ballot.sol\":603:625  return deployedBallots */\n      dup1\n      sload\n      dup1\n      0x20\n      mul\n      0x20\n      add\n      mload(0x40)\n      swap1\n      dup2\n      add\n      0x40\n      mstore\n      dup1\n      swap3\n      swap2\n      swap1\n      dup2\n      dup2\n      mstore\n      0x20\n      add\n      dup3\n      dup1\n      sload\n      dup1\n      iszero\n      tag_28\n      jumpi\n      0x20\n      mul\n      dup3\n      add\n      swap2\n      swap1\n      0x00\n      mstore\n      keccak256(0x00, 0x20)\n      swap1\n    tag_29:\n      dup2\n      0x00\n      swap1\n      sload\n      swap1\n      0x0100\n      exp\n      swap1\n      div\n      0xffffffffffffffffffffffffffffffffffffffff\n      and\n      0xffffffffffffffffffffffffffffffffffffffff\n      and\n      dup2\n      mstore\n      0x20\n      add\n      swap1\n      0x01\n      add\n      swap1\n      dup1\n      dup4\n      gt\n      tag_29\n      jumpi\n    tag_28:\n      pop\n      pop\n      pop\n      pop\n      pop\n      swap1\n      pop\n        /* \"Ballot.sol\":524:633  function getDeployedBallots() public view returns (Ballot[] memory) {... */\n      swap1\n      jump\t// out\n        /* \"Ballot.sol\":197:228  Ballot[] public deployedBallots */\n    tag_17:\n      0x00\n      dup2\n      dup2\n      sload\n      dup2\n      lt\n      tag_30\n      jumpi\n      0x00\n      dup1\n      revert\n    tag_30:\n      swap1\n      0x00\n      mstore\n      keccak256(0x00, 0x20)\n      add\n      0x00\n      swap2\n      pop\n      sload\n      swap1\n      0x0100\n      exp\n      swap1\n      div\n      0xffffffffffffffffffffffffffffffffffffffff\n      and\n      dup2\n      jump\t// out\n    tag_22:\n      dataSize(sub_0)\n      dup1\n      dataOffset(sub_0)\n      dup4\n      codecopy\n      add\n      swap1\n      jump\t// out\n        /* \"#utility.yul\":7:82   */\n    tag_32:\n        /* \"#utility.yul\":40:46   */\n      0x00\n        /* \"#utility.yul\":73:75   */\n      0x40\n        /* \"#utility.yul\":67:76   */\n      mload\n        /* \"#utility.yul\":57:76   */\n      swap1\n      pop\n        /* \"#utility.yul\":7:82   */\n      swap1\n      jump\t// out\n        /* \"#utility.yul\":88:205   */\n    tag_33:\n        /* \"#utility.yul\":197:198   */\n      0x00\n        /* \"#utility.yul\":194:195   */\n      dup1\n        /* \"#utility.yul\":187:199   */\n      revert\n        /* \"#utility.yul\":211:328   */\n    tag_34:\n        /* \"#utility.yul\":320:321   */\n      0x00\n        /* \"#utility.yul\":317:318   */\n      dup1\n        /* \"#utility.yul\":310:322   */\n      revert\n        /* \"#utility.yul\":334:451   */\n    tag_35:\n        /* \"#utility.yul\":443:444   */\n      0x00\n        /* \"#utility.yul\":440:441   */\n      dup1\n        /* \"#utility.yul\":433:445   */\n      revert\n        /* \"#utility.yul\":457:574   */\n    tag_36:\n        /* \"#utility.yul\":566:567   */\n      0x00\n        /* \"#utility.yul\":563:564   */\n      dup1\n        /* \"#utility.yul\":556:568   */\n      revert\n        /* \"#utility.yul\":580:682   */\n    tag_37:\n        /* \"#utility.yul\":621:627   */\n      0x00\n        /* \"#utility.yul\":672:674   */\n      0x1f\n        /* \"#utility.yul\":668:675   */\n      not\n        /* \"#utility.yul\":663:665   */\n      0x1f\n        /* \"#utility.yul\":656:661   */\n      dup4\n        /* \"#utility.yul\":652:666   */\n      add\n        /* \"#utility.yul\":648:676   */\n      and\n        /* \"#utility.yul\":638:676   */\n      swap1\n      pop\n        /* \"#utility.yul\":580:682   */\n      swap2\n      swap1\n      pop\n      jump\t// out\n        /* \"#utility.yul\":688:868   */\n    tag_38:\n        /* \"#utility.yul\":736:813   */\n      0x4e487b7100000000000000000000000000000000000000000000000000000000\n        /* \"#utility.yul\":733:734   */\n      0x00\n        /* \"#utility.yul\":726:814   */\n      mstore\n        /* \"#utility.yul\":833:837   */\n      0x41\n        /* \"#utility.yul\":830:831   */\n      0x04\n        /* \"#utility.yul\":823:838   */\n      mstore\n        /* \"#utility.yul\":857:861   */\n      0x24\n        /* \"#utility.yul\":854:855   */\n      0x00\n        /* \"#utility.yul\":847:862   */\n      revert\n        /* \"#utility.yul\":874:1155   */\n    tag_39:\n        /* \"#utility.yul\":957:984   */\n      tag_76\n        /* \"#utility.yul\":979:983   */\n      dup3\n        /* \"#utility.yul\":957:984   */\n      tag_37\n      jump\t// in\n    tag_76:\n        /* \"#utility.yul\":949:955   */\n      dup2\n        /* \"#utility.yul\":945:985   */\n      add\n        /* \"#utility.yul\":1087:1093   */\n      dup2\n        /* \"#utility.yul\":1075:1085   */\n      dup2\n        /* \"#utility.yul\":1072:1094   */\n      lt\n        /* \"#utility.yul\":1051:1069   */\n      0xffffffffffffffff\n        /* \"#utility.yul\":1039:1049   */\n      dup3\n        /* \"#utility.yul\":1036:1070   */\n      gt\n        /* \"#utility.yul\":1033:1095   */\n      or\n        /* \"#utility.yul\":1030:1118   */\n      iszero\n      tag_77\n      jumpi\n        /* \"#utility.yul\":1098:1116   */\n      tag_78\n      tag_38\n      jump\t// in\n    tag_78:\n        /* \"#utility.yul\":1030:1118   */\n    tag_77:\n        /* \"#utility.yul\":1138:1148   */\n      dup1\n        /* \"#utility.yul\":1134:1136   */\n      0x40\n        /* \"#utility.yul\":1127:1149   */\n      mstore\n        /* \"#utility.yul\":917:1155   */\n      pop\n        /* \"#utility.yul\":874:1155   */\n      pop\n      pop\n      jump\t// out\n        /* \"#utility.yul\":1161:1290   */\n    tag_40:\n        /* \"#utility.yul\":1195:1201   */\n      0x00\n        /* \"#utility.yul\":1222:1242   */\n      tag_80\n      tag_32\n      jump\t// in\n    tag_80:\n        /* \"#utility.yul\":1212:1242   */\n      swap1\n      pop\n        /* \"#utility.yul\":1251:1284   */\n      tag_81\n        /* \"#utility.yul\":1279:1283   */\n      dup3\n        /* \"#utility.yul\":1271:1277   */\n      dup3\n        /* \"#utility.yul\":1251:1284   */\n      tag_39\n      jump\t// in\n    tag_81:\n        /* \"#utility.yul\":1161:1290   */\n      swap2\n      swap1\n      pop\n      jump\t// out\n        /* \"#utility.yul\":1296:1604   */\n    tag_41:\n        /* \"#utility.yul\":1358:1362   */\n      0x00\n        /* \"#utility.yul\":1448:1466   */\n      0xffffffffffffffff\n        /* \"#utility.yul\":1440:1446   */\n      dup3\n        /* \"#utility.yul\":1437:1467   */\n      gt\n        /* \"#utility.yul\":1434:1490   */\n      iszero\n      tag_83\n      jumpi\n        /* \"#utility.yul\":1470:1488   */\n      tag_84\n      tag_38\n      jump\t// in\n    tag_84:\n        /* \"#utility.yul\":1434:1490   */\n    tag_83:\n        /* \"#utility.yul\":1508:1537   */\n      tag_85\n        /* \"#utility.yul\":1530:1536   */\n      dup3\n        /* \"#utility.yul\":1508:1537   */\n      tag_37\n      jump\t// in\n    tag_85:\n        /* \"#utility.yul\":1500:1537   */\n      swap1\n      pop\n        /* \"#utility.yul\":1592:1596   */\n      0x20\n        /* \"#utility.yul\":1586:1590   */\n      dup2\n        /* \"#utility.yul\":1582:1597   */\n      add\n        /* \"#utility.yul\":1574:1597   */\n      swap1\n      pop\n        /* \"#utility.yul\":1296:1604   */\n      swap2\n      swap1\n      pop\n      jump\t// out\n        /* \"#utility.yul\":1610:1764   */\n    tag_42:\n        /* \"#utility.yul\":1694:1700   */\n      dup3\n        /* \"#utility.yul\":1689:1692   */\n      dup2\n        /* \"#utility.yul\":1684:1687   */\n      dup4\n        /* \"#utility.yul\":1671:1701   */\n      calldatacopy\n        /* \"#utility.yul\":1756:1757   */\n      0x00\n        /* \"#utility.yul\":1747:1753   */\n      dup4\n        /* \"#utility.yul\":1742:1745   */\n      dup4\n        /* \"#utility.yul\":1738:1754   */\n      add\n        /* \"#utility.yul\":1731:1758   */\n      mstore\n        /* \"#utility.yul\":1610:1764   */\n      pop\n      pop\n      pop\n      jump\t// out\n        /* \"#utility.yul\":1770:2182   */\n    tag_43:\n        /* \"#utility.yul\":1848:1853   */\n      0x00\n        /* \"#utility.yul\":1873:1939   */\n      tag_88\n        /* \"#utility.yul\":1889:1938   */\n      tag_89\n        /* \"#utility.yul\":1931:1937   */\n      dup5\n        /* \"#utility.yul\":1889:1938   */\n      tag_41\n      jump\t// in\n    tag_89:\n        /* \"#utility.yul\":1873:1939   */\n      tag_40\n      jump\t// in\n    tag_88:\n        /* \"#utility.yul\":1864:1939   */\n      swap1\n      pop\n        /* \"#utility.yul\":1962:1968   */\n      dup3\n        /* \"#utility.yul\":1955:1960   */\n      dup2\n        /* \"#utility.yul\":1948:1969   */\n      mstore\n        /* \"#utility.yul\":2000:2004   */\n      0x20\n        /* \"#utility.yul\":1993:1998   */\n      dup2\n        /* \"#utility.yul\":1989:2005   */\n      add\n        /* \"#utility.yul\":2038:2041   */\n      dup5\n        /* \"#utility.yul\":2029:2035   */\n      dup5\n        /* \"#utility.yul\":2024:2027   */\n      dup5\n        /* \"#utility.yul\":2020:2036   */\n      add\n        /* \"#utility.yul\":2017:2042   */\n      gt\n        /* \"#utility.yul\":2014:2126   */\n      iszero\n      tag_90\n      jumpi\n        /* \"#utility.yul\":2045:2124   */\n      tag_91\n      tag_36\n      jump\t// in\n    tag_91:\n        /* \"#utility.yul\":2014:2126   */\n    tag_90:\n        /* \"#utility.yul\":2135:2176   */\n      tag_92\n        /* \"#utility.yul\":2169:2175   */\n      dup5\n        /* \"#utility.yul\":2164:2167   */\n      dup3\n        /* \"#utility.yul\":2159:2162   */\n      dup6\n        /* \"#utility.yul\":2135:2176   */\n      tag_42\n      jump\t// in\n    tag_92:\n        /* \"#utility.yul\":1854:2182   */\n      pop\n        /* \"#utility.yul\":1770:2182   */\n      swap4\n      swap3\n      pop\n      pop\n      pop\n      jump\t// out\n        /* \"#utility.yul\":2202:2542   */\n    tag_44:\n        /* \"#utility.yul\":2258:2263   */\n      0x00\n        /* \"#utility.yul\":2307:2310   */\n      dup3\n        /* \"#utility.yul\":2300:2304   */\n      0x1f\n        /* \"#utility.yul\":2292:2298   */\n      dup4\n        /* \"#utility.yul\":2288:2305   */\n      add\n        /* \"#utility.yul\":2284:2311   */\n      slt\n        /* \"#utility.yul\":2274:2396   */\n      tag_94\n      jumpi\n        /* \"#utility.yul\":2315:2394   */\n      tag_95\n      tag_35\n      jump\t// in\n    tag_95:\n        /* \"#utility.yul\":2274:2396   */\n    tag_94:\n        /* \"#utility.yul\":2432:2438   */\n      dup2\n        /* \"#utility.yul\":2419:2439   */\n      calldataload\n        /* \"#utility.yul\":2457:2536   */\n      tag_96\n        /* \"#utility.yul\":2532:2535   */\n      dup5\n        /* \"#utility.yul\":2524:2530   */\n      dup3\n        /* \"#utility.yul\":2517:2521   */\n      0x20\n        /* \"#utility.yul\":2509:2515   */\n      dup7\n        /* \"#utility.yul\":2505:2522   */\n      add\n        /* \"#utility.yul\":2457:2536   */\n      tag_43\n      jump\t// in\n    tag_96:\n        /* \"#utility.yul\":2448:2536   */\n      swap2\n      pop\n        /* \"#utility.yul\":2264:2542   */\n      pop\n        /* \"#utility.yul\":2202:2542   */\n      swap3\n      swap2\n      pop\n      pop\n      jump\t// out\n        /* \"#utility.yul\":2548:4033   */\n    tag_8:\n        /* \"#utility.yul\":2674:2680   */\n      0x00\n        /* \"#utility.yul\":2682:2688   */\n      dup1\n        /* \"#utility.yul\":2690:2696   */\n      0x00\n        /* \"#utility.yul\":2698:2704   */\n      dup1\n        /* \"#utility.yul\":2747:2750   */\n      0x80\n        /* \"#utility.yul\":2735:2744   */\n      dup6\n        /* \"#utility.yul\":2726:2733   */\n      dup8\n        /* \"#utility.yul\":2722:2745   */\n      sub\n        /* \"#utility.yul\":2718:2751   */\n      slt\n        /* \"#utility.yul\":2715:2835   */\n      iszero\n      tag_98\n      jumpi\n        /* \"#utility.yul\":2754:2833   */\n      tag_99\n      tag_33\n      jump\t// in\n    tag_99:\n        /* \"#utility.yul\":2715:2835   */\n    tag_98:\n        /* \"#utility.yul\":2902:2903   */\n      0x00\n        /* \"#utility.yul\":2891:2900   */\n      dup6\n        /* \"#utility.yul\":2887:2904   */\n      add\n        /* \"#utility.yul\":2874:2905   */\n      calldataload\n        /* \"#utility.yul\":2932:2950   */\n      0xffffffffffffffff\n        /* \"#utility.yul\":2924:2930   */\n      dup2\n        /* \"#utility.yul\":2921:2951   */\n      gt\n        /* \"#utility.yul\":2918:3035   */\n      iszero\n      tag_100\n      jumpi\n        /* \"#utility.yul\":2954:3033   */\n      tag_101\n      tag_34\n      jump\t// in\n    tag_101:\n        /* \"#utility.yul\":2918:3035   */\n    tag_100:\n        /* \"#utility.yul\":3059:3122   */\n      tag_102\n        /* \"#utility.yul\":3114:3121   */\n      dup8\n        /* \"#utility.yul\":3105:3111   */\n      dup3\n        /* \"#utility.yul\":3094:3103   */\n      dup9\n        /* \"#utility.yul\":3090:3112   */\n      add\n        /* \"#utility.yul\":3059:3122   */\n      tag_44\n      jump\t// in\n    tag_102:\n        /* \"#utility.yul\":3049:3122   */\n      swap5\n      pop\n        /* \"#utility.yul\":2845:3132   */\n      pop\n        /* \"#utility.yul\":3199:3201   */\n      0x20\n        /* \"#utility.yul\":3188:3197   */\n      dup6\n        /* \"#utility.yul\":3184:3202   */\n      add\n        /* \"#utility.yul\":3171:3203   */\n      calldataload\n        /* \"#utility.yul\":3230:3248   */\n      0xffffffffffffffff\n        /* \"#utility.yul\":3222:3228   */\n      dup2\n        /* \"#utility.yul\":3219:3249   */\n      gt\n        /* \"#utility.yul\":3216:3333   */\n      iszero\n      tag_103\n      jumpi\n        /* \"#utility.yul\":3252:3331   */\n      tag_104\n      tag_34\n      jump\t// in\n    tag_104:\n        /* \"#utility.yul\":3216:3333   */\n    tag_103:\n        /* \"#utility.yul\":3357:3420   */\n      tag_105\n        /* \"#utility.yul\":3412:3419   */\n      dup8\n        /* \"#utility.yul\":3403:3409   */\n      dup3\n        /* \"#utility.yul\":3392:3401   */\n      dup9\n        /* \"#utility.yul\":3388:3410   */\n      add\n        /* \"#utility.yul\":3357:3420   */\n      tag_44\n      jump\t// in\n    tag_105:\n        /* \"#utility.yul\":3347:3420   */\n      swap4\n      pop\n        /* \"#utility.yul\":3142:3430   */\n      pop\n        /* \"#utility.yul\":3497:3499   */\n      0x40\n        /* \"#utility.yul\":3486:3495   */\n      dup6\n        /* \"#utility.yul\":3482:3500   */\n      add\n        /* \"#utility.yul\":3469:3501   */\n      calldataload\n        /* \"#utility.yul\":3528:3546   */\n      0xffffffffffffffff\n        /* \"#utility.yul\":3520:3526   */\n      dup2\n        /* \"#utility.yul\":3517:3547   */\n      gt\n        /* \"#utility.yul\":3514:3631   */\n      iszero\n      tag_106\n      jumpi\n        /* \"#utility.yul\":3550:3629   */\n      tag_107\n      tag_34\n      jump\t// in\n    tag_107:\n        /* \"#utility.yul\":3514:3631   */\n    tag_106:\n        /* \"#utility.yul\":3655:3718   */\n      tag_108\n        /* \"#utility.yul\":3710:3717   */\n      dup8\n        /* \"#utility.yul\":3701:3707   */\n      dup3\n        /* \"#utility.yul\":3690:3699   */\n      dup9\n        /* \"#utility.yul\":3686:3708   */\n      add\n        /* \"#utility.yul\":3655:3718   */\n      tag_44\n      jump\t// in\n    tag_108:\n        /* \"#utility.yul\":3645:3718   */\n      swap3\n      pop\n        /* \"#utility.yul\":3440:3728   */\n      pop\n        /* \"#utility.yul\":3795:3797   */\n      0x60\n        /* \"#utility.yul\":3784:3793   */\n      dup6\n        /* \"#utility.yul\":3780:3798   */\n      add\n        /* \"#utility.yul\":3767:3799   */\n      calldataload\n        /* \"#utility.yul\":3826:3844   */\n      0xffffffffffffffff\n        /* \"#utility.yul\":3818:3824   */\n      dup2\n        /* \"#utility.yul\":3815:3845   */\n      gt\n        /* \"#utility.yul\":3812:3929   */\n      iszero\n      tag_109\n      jumpi\n        /* \"#utility.yul\":3848:3927   */\n      tag_110\n      tag_34\n      jump\t// in\n    tag_110:\n        /* \"#utility.yul\":3812:3929   */\n    tag_109:\n        /* \"#utility.yul\":3953:4016   */\n      tag_111\n        /* \"#utility.yul\":4008:4015   */\n      dup8\n        /* \"#utility.yul\":3999:4005   */\n      dup3\n        /* \"#utility.yul\":3988:3997   */\n      dup9\n        /* \"#utility.yul\":3984:4006   */\n      add\n        /* \"#utility.yul\":3953:4016   */\n      tag_44\n      jump\t// in\n    tag_111:\n        /* \"#utility.yul\":3943:4016   */\n      swap2\n      pop\n        /* \"#utility.yul\":3738:4026   */\n      pop\n        /* \"#utility.yul\":2548:4033   */\n      swap3\n      swap6\n      swap2\n      swap5\n      pop\n      swap3\n      pop\n      jump\t// out\n        /* \"#utility.yul\":4039:4167   */\n    tag_45:\n        /* \"#utility.yul\":4120:4126   */\n      0x00\n        /* \"#utility.yul\":4154:4159   */\n      dup2\n        /* \"#utility.yul\":4148:4160   */\n      mload\n        /* \"#utility.yul\":4138:4160   */\n      swap1\n      pop\n        /* \"#utility.yul\":4039:4167   */\n      swap2\n      swap1\n      pop\n      jump\t// out\n        /* \"#utility.yul\":4173:4357   */\n    tag_46:\n        /* \"#utility.yul\":4272:4283   */\n      0x00\n        /* \"#utility.yul\":4306:4312   */\n      dup3\n        /* \"#utility.yul\":4301:4304   */\n      dup3\n        /* \"#utility.yul\":4294:4313   */\n      mstore\n        /* \"#utility.yul\":4346:4350   */\n      0x20\n        /* \"#utility.yul\":4341:4344   */\n      dup3\n        /* \"#utility.yul\":4337:4351   */\n      add\n        /* \"#utility.yul\":4322:4351   */\n      swap1\n      pop\n        /* \"#utility.yul\":4173:4357   */\n      swap3\n      swap2\n      pop\n      pop\n      jump\t// out\n        /* \"#utility.yul\":4363:4509   */\n    tag_47:\n        /* \"#utility.yul\":4444:4448   */\n      0x00\n        /* \"#utility.yul\":4467:4470   */\n      dup2\n        /* \"#utility.yul\":4459:4470   */\n      swap1\n      pop\n        /* \"#utility.yul\":4497:4501   */\n      0x20\n        /* \"#utility.yul\":4492:4495   */\n      dup3\n        /* \"#utility.yul\":4488:4502   */\n      add\n        /* \"#utility.yul\":4480:4502   */\n      swap1\n      pop\n        /* \"#utility.yul\":4363:4509   */\n      swap2\n      swap1\n      pop\n      jump\t// out\n        /* \"#utility.yul\":4515:4641   */\n    tag_48:\n        /* \"#utility.yul\":4552:4559   */\n      0x00\n        /* \"#utility.yul\":4592:4634   */\n      0xffffffffffffffffffffffffffffffffffffffff\n        /* \"#utility.yul\":4585:4590   */\n      dup3\n        /* \"#utility.yul\":4581:4635   */\n      and\n        /* \"#utility.yul\":4570:4635   */\n      swap1\n      pop\n        /* \"#utility.yul\":4515:4641   */\n      swap2\n      swap1\n      pop\n      jump\t// out\n        /* \"#utility.yul\":4647:4707   */\n    tag_49:\n        /* \"#utility.yul\":4675:4678   */\n      0x00\n        /* \"#utility.yul\":4696:4701   */\n      dup2\n        /* \"#utility.yul\":4689:4701   */\n      swap1\n      pop\n        /* \"#utility.yul\":4647:4707   */\n      swap2\n      swap1\n      pop\n      jump\t// out\n        /* \"#utility.yul\":4713:4855   */\n    tag_50:\n        /* \"#utility.yul\":4763:4772   */\n      0x00\n        /* \"#utility.yul\":4796:4849   */\n      tag_118\n        /* \"#utility.yul\":4814:4848   */\n      tag_119\n        /* \"#utility.yul\":4823:4847   */\n      tag_120\n        /* \"#utility.yul\":4841:4846   */\n      dup5\n        /* \"#utility.yul\":4823:4847   */\n      tag_48\n      jump\t// in\n    tag_120:\n        /* \"#utility.yul\":4814:4848   */\n      tag_49\n      jump\t// in\n    tag_119:\n        /* \"#utility.yul\":4796:4849   */\n      tag_48\n      jump\t// in\n    tag_118:\n        /* \"#utility.yul\":4783:4849   */\n      swap1\n      pop\n        /* \"#utility.yul\":4713:4855   */\n      swap2\n      swap1\n      pop\n      jump\t// out\n        /* \"#utility.yul\":4861:4987   */\n    tag_51:\n        /* \"#utility.yul\":4911:4920   */\n      0x00\n        /* \"#utility.yul\":4944:4981   */\n      tag_122\n        /* \"#utility.yul\":4975:4980   */\n      dup3\n        /* \"#utility.yul\":4944:4981   */\n      tag_50\n      jump\t// in\n    tag_122:\n        /* \"#utility.yul\":4931:4981   */\n      swap1\n      pop\n        /* \"#utility.yul\":4861:4987   */\n      swap2\n      swap1\n      pop\n      jump\t// out\n        /* \"#utility.yul\":4993:5133   */\n    tag_52:\n        /* \"#utility.yul\":5057:5066   */\n      0x00\n        /* \"#utility.yul\":5090:5127   */\n      tag_124\n        /* \"#utility.yul\":5121:5126   */\n      dup3\n        /* \"#utility.yul\":5090:5127   */\n      tag_51\n      jump\t// in\n    tag_124:\n        /* \"#utility.yul\":5077:5127   */\n      swap1\n      pop\n        /* \"#utility.yul\":4993:5133   */\n      swap2\n      swap1\n      pop\n      jump\t// out\n        /* \"#utility.yul\":5139:5288   */\n    tag_53:\n        /* \"#utility.yul\":5230:5281   */\n      tag_126\n        /* \"#utility.yul\":5275:5280   */\n      dup2\n        /* \"#utility.yul\":5230:5281   */\n      tag_52\n      jump\t// in\n    tag_126:\n        /* \"#utility.yul\":5225:5228   */\n      dup3\n        /* \"#utility.yul\":5218:5282   */\n      mstore\n        /* \"#utility.yul\":5139:5288   */\n      pop\n      pop\n      jump\t// out\n        /* \"#utility.yul\":5294:5501   */\n    tag_54:\n        /* \"#utility.yul\":5377:5387   */\n      0x00\n        /* \"#utility.yul\":5398:5458   */\n      tag_128\n        /* \"#utility.yul\":5454:5457   */\n      dup4\n        /* \"#utility.yul\":5446:5452   */\n      dup4\n        /* \"#utility.yul\":5398:5458   */\n      tag_53\n      jump\t// in\n    tag_128:\n        /* \"#utility.yul\":5490:5494   */\n      0x20\n        /* \"#utility.yul\":5485:5488   */\n      dup4\n        /* \"#utility.yul\":5481:5495   */\n      add\n        /* \"#utility.yul\":5467:5495   */\n      swap1\n      pop\n        /* \"#utility.yul\":5294:5501   */\n      swap3\n      swap2\n      pop\n      pop\n      jump\t// out\n        /* \"#utility.yul\":5507:5634   */\n    tag_55:\n        /* \"#utility.yul\":5591:5595   */\n      0x00\n        /* \"#utility.yul\":5623:5627   */\n      0x20\n        /* \"#utility.yul\":5618:5621   */\n      dup3\n        /* \"#utility.yul\":5614:5628   */\n      add\n        /* \"#utility.yul\":5606:5628   */\n      swap1\n      pop\n        /* \"#utility.yul\":5507:5634   */\n      swap2\n      swap1\n      pop\n      jump\t// out\n        /* \"#utility.yul\":5678:6480   */\n    tag_56:\n        /* \"#utility.yul\":5811:5814   */\n      0x00\n        /* \"#utility.yul\":5840:5908   */\n      tag_131\n        /* \"#utility.yul\":5902:5907   */\n      dup3\n        /* \"#utility.yul\":5840:5908   */\n      tag_45\n      jump\t// in\n    tag_131:\n        /* \"#utility.yul\":5924:6010   */\n      tag_132\n        /* \"#utility.yul\":6003:6009   */\n      dup2\n        /* \"#utility.yul\":5998:6001   */\n      dup6\n        /* \"#utility.yul\":5924:6010   */\n      tag_46\n      jump\t// in\n    tag_132:\n        /* \"#utility.yul\":5917:6010   */\n      swap4\n      pop\n        /* \"#utility.yul\":6034:6104   */\n      tag_133\n        /* \"#utility.yul\":6098:6103   */\n      dup4\n        /* \"#utility.yul\":6034:6104   */\n      tag_47\n      jump\t// in\n    tag_133:\n        /* \"#utility.yul\":6127:6134   */\n      dup1\n        /* \"#utility.yul\":6158:6159   */\n      0x00\n        /* \"#utility.yul\":6143:6455   */\n    tag_134:\n        /* \"#utility.yul\":6168:6174   */\n      dup4\n        /* \"#utility.yul\":6165:6166   */\n      dup2\n        /* \"#utility.yul\":6162:6175   */\n      lt\n        /* \"#utility.yul\":6143:6455   */\n      iszero\n      tag_136\n      jumpi\n        /* \"#utility.yul\":6244:6250   */\n      dup2\n        /* \"#utility.yul\":6238:6251   */\n      mload\n        /* \"#utility.yul\":6271:6348   */\n      tag_137\n        /* \"#utility.yul\":6344:6347   */\n      dup9\n        /* \"#utility.yul\":6329:6342   */\n      dup3\n        /* \"#utility.yul\":6271:6348   */\n      tag_54\n      jump\t// in\n    tag_137:\n        /* \"#utility.yul\":6264:6348   */\n      swap8\n      pop\n        /* \"#utility.yul\":6371:6445   */\n      tag_138\n        /* \"#utility.yul\":6438:6444   */\n      dup4\n        /* \"#utility.yul\":6371:6445   */\n      tag_55\n      jump\t// in\n    tag_138:\n        /* \"#utility.yul\":6361:6445   */\n      swap3\n      pop\n        /* \"#utility.yul\":6203:6455   */\n      pop\n        /* \"#utility.yul\":6190:6191   */\n      0x01\n        /* \"#utility.yul\":6187:6188   */\n      dup2\n        /* \"#utility.yul\":6183:6192   */\n      add\n        /* \"#utility.yul\":6178:6192   */\n      swap1\n      pop\n        /* \"#utility.yul\":6143:6455   */\n      jump(tag_134)\n    tag_136:\n        /* \"#utility.yul\":6147:6161   */\n      pop\n        /* \"#utility.yul\":6471:6474   */\n      dup6\n        /* \"#utility.yul\":6464:6474   */\n      swap4\n      pop\n        /* \"#utility.yul\":5816:6480   */\n      pop\n      pop\n      pop\n        /* \"#utility.yul\":5678:6480   */\n      swap3\n      swap2\n      pop\n      pop\n      jump\t// out\n        /* \"#utility.yul\":6486:6887   */\n    tag_13:\n        /* \"#utility.yul\":6643:6647   */\n      0x00\n        /* \"#utility.yul\":6681:6683   */\n      0x20\n        /* \"#utility.yul\":6670:6679   */\n      dup3\n        /* \"#utility.yul\":6666:6684   */\n      add\n        /* \"#utility.yul\":6658:6684   */\n      swap1\n      pop\n        /* \"#utility.yul\":6730:6739   */\n      dup2\n        /* \"#utility.yul\":6724:6728   */\n      dup2\n        /* \"#utility.yul\":6720:6740   */\n      sub\n        /* \"#utility.yul\":6716:6717   */\n      0x00\n        /* \"#utility.yul\":6705:6714   */\n      dup4\n        /* \"#utility.yul\":6701:6718   */\n      add\n        /* \"#utility.yul\":6694:6741   */\n      mstore\n        /* \"#utility.yul\":6758:6880   */\n      tag_140\n        /* \"#utility.yul\":6875:6879   */\n      dup2\n        /* \"#utility.yul\":6866:6872   */\n      dup5\n        /* \"#utility.yul\":6758:6880   */\n      tag_56\n      jump\t// in\n    tag_140:\n        /* \"#utility.yul\":6750:6880   */\n      swap1\n      pop\n        /* \"#utility.yul\":6486:6887   */\n      swap3\n      swap2\n      pop\n      pop\n      jump\t// out\n        /* \"#utility.yul\":6893:6970   */\n    tag_57:\n        /* \"#utility.yul\":6930:6937   */\n      0x00\n        /* \"#utility.yul\":6959:6964   */\n      dup2\n        /* \"#utility.yul\":6948:6964   */\n      swap1\n      pop\n        /* \"#utility.yul\":6893:6970   */\n      swap2\n      swap1\n      pop\n      jump\t// out\n        /* \"#utility.yul\":6976:7098   */\n    tag_58:\n        /* \"#utility.yul\":7049:7073   */\n      tag_143\n        /* \"#utility.yul\":7067:7072   */\n      dup2\n        /* \"#utility.yul\":7049:7073   */\n      tag_57\n      jump\t// in\n    tag_143:\n        /* \"#utility.yul\":7042:7047   */\n      dup2\n        /* \"#utility.yul\":7039:7074   */\n      eq\n        /* \"#utility.yul\":7029:7092   */\n      tag_144\n      jumpi\n        /* \"#utility.yul\":7088:7089   */\n      0x00\n        /* \"#utility.yul\":7085:7086   */\n      dup1\n        /* \"#utility.yul\":7078:7090   */\n      revert\n        /* \"#utility.yul\":7029:7092   */\n    tag_144:\n        /* \"#utility.yul\":6976:7098   */\n      pop\n      jump\t// out\n        /* \"#utility.yul\":7104:7243   */\n    tag_59:\n        /* \"#utility.yul\":7150:7155   */\n      0x00\n        /* \"#utility.yul\":7188:7194   */\n      dup2\n        /* \"#utility.yul\":7175:7195   */\n      calldataload\n        /* \"#utility.yul\":7166:7195   */\n      swap1\n      pop\n        /* \"#utility.yul\":7204:7237   */\n      tag_146\n        /* \"#utility.yul\":7231:7236   */\n      dup2\n        /* \"#utility.yul\":7204:7237   */\n      tag_58\n      jump\t// in\n    tag_146:\n        /* \"#utility.yul\":7104:7243   */\n      swap3\n      swap2\n      pop\n      pop\n      jump\t// out\n        /* \"#utility.yul\":7249:7578   */\n    tag_16:\n        /* \"#utility.yul\":7308:7314   */\n      0x00\n        /* \"#utility.yul\":7357:7359   */\n      0x20\n        /* \"#utility.yul\":7345:7354   */\n      dup3\n        /* \"#utility.yul\":7336:7343   */\n      dup5\n        /* \"#utility.yul\":7332:7355   */\n      sub\n        /* \"#utility.yul\":7328:7360   */\n      slt\n        /* \"#utility.yul\":7325:7444   */\n      iszero\n      tag_148\n      jumpi\n        /* \"#utility.yul\":7363:7442   */\n      tag_149\n      tag_33\n      jump\t// in\n    tag_149:\n        /* \"#utility.yul\":7325:7444   */\n    tag_148:\n        /* \"#utility.yul\":7483:7484   */\n      0x00\n        /* \"#utility.yul\":7508:7561   */\n      tag_150\n        /* \"#utility.yul\":7553:7560   */\n      dup5\n        /* \"#utility.yul\":7544:7550   */\n      dup3\n        /* \"#utility.yul\":7533:7542   */\n      dup6\n        /* \"#utility.yul\":7529:7551   */\n      add\n        /* \"#utility.yul\":7508:7561   */\n      tag_59\n      jump\t// in\n    tag_150:\n        /* \"#utility.yul\":7498:7561   */\n      swap2\n      pop\n        /* \"#utility.yul\":7454:7571   */\n      pop\n        /* \"#utility.yul\":7249:7578   */\n      swap3\n      swap2\n      pop\n      pop\n      jump\t// out\n        /* \"#utility.yul\":7584:7743   */\n    tag_60:\n        /* \"#utility.yul\":7685:7736   */\n      tag_152\n        /* \"#utility.yul\":7730:7735   */\n      dup2\n        /* \"#utility.yul\":7685:7736   */\n      tag_52\n      jump\t// in\n    tag_152:\n        /* \"#utility.yul\":7680:7683   */\n      dup3\n        /* \"#utility.yul\":7673:7737   */\n      mstore\n        /* \"#utility.yul\":7584:7743   */\n      pop\n      pop\n      jump\t// out\n        /* \"#utility.yul\":7749:7999   */\n    tag_19:\n        /* \"#utility.yul\":7856:7860   */\n      0x00\n        /* \"#utility.yul\":7894:7896   */\n      0x20\n        /* \"#utility.yul\":7883:7892   */\n      dup3\n        /* \"#utility.yul\":7879:7897   */\n      add\n        /* \"#utility.yul\":7871:7897   */\n      swap1\n      pop\n        /* \"#utility.yul\":7907:7992   */\n      tag_154\n        /* \"#utility.yul\":7989:7990   */\n      0x00\n        /* \"#utility.yul\":7978:7987   */\n      dup4\n        /* \"#utility.yul\":7974:7991   */\n      add\n        /* \"#utility.yul\":7965:7971   */\n      dup5\n        /* \"#utility.yul\":7907:7992   */\n      tag_60\n      jump\t// in\n    tag_154:\n        /* \"#utility.yul\":7749:7999   */\n      swap3\n      swap2\n      pop\n      pop\n      jump\t// out\n        /* \"#utility.yul\":8005:8104   */\n    tag_61:\n        /* \"#utility.yul\":8057:8063   */\n      0x00\n        /* \"#utility.yul\":8091:8096   */\n      dup2\n        /* \"#utility.yul\":8085:8097   */\n      mload\n        /* \"#utility.yul\":8075:8097   */\n      swap1\n      pop\n        /* \"#utility.yul\":8005:8104   */\n      swap2\n      swap1\n      pop\n      jump\t// out\n        /* \"#utility.yul\":8110:8279   */\n    tag_62:\n        /* \"#utility.yul\":8194:8205   */\n      0x00\n        /* \"#utility.yul\":8228:8234   */\n      dup3\n        /* \"#utility.yul\":8223:8226   */\n      dup3\n        /* \"#utility.yul\":8216:8235   */\n      mstore\n        /* \"#utility.yul\":8268:8272   */\n      0x20\n        /* \"#utility.yul\":8263:8266   */\n      dup3\n        /* \"#utility.yul\":8259:8273   */\n      add\n        /* \"#utility.yul\":8244:8273   */\n      swap1\n      pop\n        /* \"#utility.yul\":8110:8279   */\n      swap3\n      swap2\n      pop\n      pop\n      jump\t// out\n        /* \"#utility.yul\":8285:8592   */\n    tag_63:\n        /* \"#utility.yul\":8353:8354   */\n      0x00\n        /* \"#utility.yul\":8363:8476   */\n    tag_158:\n        /* \"#utility.yul\":8377:8383   */\n      dup4\n        /* \"#utility.yul\":8374:8375   */\n      dup2\n        /* \"#utility.yul\":8371:8384   */\n      lt\n        /* \"#utility.yul\":8363:8476   */\n      iszero\n      tag_160\n      jumpi\n        /* \"#utility.yul\":8462:8463   */\n      dup1\n        /* \"#utility.yul\":8457:8460   */\n      dup3\n        /* \"#utility.yul\":8453:8464   */\n      add\n        /* \"#utility.yul\":8447:8465   */\n      mload\n        /* \"#utility.yul\":8443:8444   */\n      dup2\n        /* \"#utility.yul\":8438:8441   */\n      dup5\n        /* \"#utility.yul\":8434:8445   */\n      add\n        /* \"#utility.yul\":8427:8466   */\n      mstore\n        /* \"#utility.yul\":8399:8401   */\n      0x20\n        /* \"#utility.yul\":8396:8397   */\n      dup2\n        /* \"#utility.yul\":8392:8402   */\n      add\n        /* \"#utility.yul\":8387:8402   */\n      swap1\n      pop\n        /* \"#utility.yul\":8363:8476   */\n      jump(tag_158)\n    tag_160:\n        /* \"#utility.yul\":8494:8500   */\n      dup4\n        /* \"#utility.yul\":8491:8492   */\n      dup2\n        /* \"#utility.yul\":8488:8501   */\n      gt\n        /* \"#utility.yul\":8485:8586   */\n      iszero\n      tag_161\n      jumpi\n        /* \"#utility.yul\":8574:8575   */\n      0x00\n        /* \"#utility.yul\":8565:8571   */\n      dup5\n        /* \"#utility.yul\":8560:8563   */\n      dup5\n        /* \"#utility.yul\":8556:8572   */\n      add\n        /* \"#utility.yul\":8549:8576   */\n      mstore\n        /* \"#utility.yul\":8485:8586   */\n    tag_161:\n        /* \"#utility.yul\":8334:8592   */\n      pop\n        /* \"#utility.yul\":8285:8592   */\n      pop\n      pop\n      pop\n      jump\t// out\n        /* \"#utility.yul\":8598:8962   */\n    tag_64:\n        /* \"#utility.yul\":8686:8689   */\n      0x00\n        /* \"#utility.yul\":8714:8753   */\n      tag_163\n        /* \"#utility.yul\":8747:8752   */\n      dup3\n        /* \"#utility.yul\":8714:8753   */\n      tag_61\n      jump\t// in\n    tag_163:\n        /* \"#utility.yul\":8769:8840   */\n      tag_164\n        /* \"#utility.yul\":8833:8839   */\n      dup2\n        /* \"#utility.yul\":8828:8831   */\n      dup6\n        /* \"#utility.yul\":8769:8840   */\n      tag_62\n      jump\t// in\n    tag_164:\n        /* \"#utility.yul\":8762:8840   */\n      swap4\n      pop\n        /* \"#utility.yul\":8849:8901   */\n      tag_165\n        /* \"#utility.yul\":8894:8900   */\n      dup2\n        /* \"#utility.yul\":8889:8892   */\n      dup6\n        /* \"#utility.yul\":8882:8886   */\n      0x20\n        /* \"#utility.yul\":8875:8880   */\n      dup7\n        /* \"#utility.yul\":8871:8887   */\n      add\n        /* \"#utility.yul\":8849:8901   */\n      tag_63\n      jump\t// in\n    tag_165:\n        /* \"#utility.yul\":8926:8955   */\n      tag_166\n        /* \"#utility.yul\":8948:8954   */\n      dup2\n        /* \"#utility.yul\":8926:8955   */\n      tag_37\n      jump\t// in\n    tag_166:\n        /* \"#utility.yul\":8921:8924   */\n      dup5\n        /* \"#utility.yul\":8917:8956   */\n      add\n        /* \"#utility.yul\":8910:8956   */\n      swap2\n      pop\n        /* \"#utility.yul\":8690:8962   */\n      pop\n        /* \"#utility.yul\":8598:8962   */\n      swap3\n      swap2\n      pop\n      pop\n      jump\t// out\n        /* \"#utility.yul\":8968:9064   */\n    tag_65:\n        /* \"#utility.yul\":9005:9012   */\n      0x00\n        /* \"#utility.yul\":9034:9058   */\n      tag_168\n        /* \"#utility.yul\":9052:9057   */\n      dup3\n        /* \"#utility.yul\":9034:9058   */\n      tag_48\n      jump\t// in\n    tag_168:\n        /* \"#utility.yul\":9023:9058   */\n      swap1\n      pop\n        /* \"#utility.yul\":8968:9064   */\n      swap2\n      swap1\n      pop\n      jump\t// out\n        /* \"#utility.yul\":9070:9188   */\n    tag_66:\n        /* \"#utility.yul\":9157:9181   */\n      tag_170\n        /* \"#utility.yul\":9175:9180   */\n      dup2\n        /* \"#utility.yul\":9157:9181   */\n      tag_65\n      jump\t// in\n    tag_170:\n        /* \"#utility.yul\":9152:9155   */\n      dup3\n        /* \"#utility.yul\":9145:9182   */\n      mstore\n        /* \"#utility.yul\":9070:9188   */\n      pop\n      pop\n      jump\t// out\n        /* \"#utility.yul\":9194:10222   */\n    tag_24:\n        /* \"#utility.yul\":9479:9483   */\n      0x00\n        /* \"#utility.yul\":9517:9520   */\n      0xa0\n        /* \"#utility.yul\":9506:9515   */\n      dup3\n        /* \"#utility.yul\":9502:9521   */\n      add\n        /* \"#utility.yul\":9494:9521   */\n      swap1\n      pop\n        /* \"#utility.yul\":9567:9576   */\n      dup2\n        /* \"#utility.yul\":9561:9565   */\n      dup2\n        /* \"#utility.yul\":9557:9577   */\n      sub\n        /* \"#utility.yul\":9553:9554   */\n      0x00\n        /* \"#utility.yul\":9542:9551   */\n      dup4\n        /* \"#utility.yul\":9538:9555   */\n      add\n        /* \"#utility.yul\":9531:9578   */\n      mstore\n        /* \"#utility.yul\":9595:9673   */\n      tag_172\n        /* \"#utility.yul\":9668:9672   */\n      dup2\n        /* \"#utility.yul\":9659:9665   */\n      dup9\n        /* \"#utility.yul\":9595:9673   */\n      tag_64\n      jump\t// in\n    tag_172:\n        /* \"#utility.yul\":9587:9673   */\n      swap1\n      pop\n        /* \"#utility.yul\":9683:9755   */\n      tag_173\n        /* \"#utility.yul\":9751:9753   */\n      0x20\n        /* \"#utility.yul\":9740:9749   */\n      dup4\n        /* \"#utility.yul\":9736:9754   */\n      add\n        /* \"#utility.yul\":9727:9733   */\n      dup8\n        /* \"#utility.yul\":9683:9755   */\n      tag_66\n      jump\t// in\n    tag_173:\n        /* \"#utility.yul\":9802:9811   */\n      dup2\n        /* \"#utility.yul\":9796:9800   */\n      dup2\n        /* \"#utility.yul\":9792:9812   */\n      sub\n        /* \"#utility.yul\":9787:9789   */\n      0x40\n        /* \"#utility.yul\":9776:9785   */\n      dup4\n        /* \"#utility.yul\":9772:9790   */\n      add\n        /* \"#utility.yul\":9765:9813   */\n      mstore\n        /* \"#utility.yul\":9830:9908   */\n      tag_174\n        /* \"#utility.yul\":9903:9907   */\n      dup2\n        /* \"#utility.yul\":9894:9900   */\n      dup7\n        /* \"#utility.yul\":9830:9908   */\n      tag_64\n      jump\t// in\n    tag_174:\n        /* \"#utility.yul\":9822:9908   */\n      swap1\n      pop\n        /* \"#utility.yul\":9955:9964   */\n      dup2\n        /* \"#utility.yul\":9949:9953   */\n      dup2\n        /* \"#utility.yul\":9945:9965   */\n      sub\n        /* \"#utility.yul\":9940:9942   */\n      0x60\n        /* \"#utility.yul\":9929:9938   */\n      dup4\n        /* \"#utility.yul\":9925:9943   */\n      add\n        /* \"#utility.yul\":9918:9966   */\n      mstore\n        /* \"#utility.yul\":9983:10061   */\n      tag_175\n        /* \"#utility.yul\":10056:10060   */\n      dup2\n        /* \"#utility.yul\":10047:10053   */\n      dup6\n        /* \"#utility.yul\":9983:10061   */\n      tag_64\n      jump\t// in\n    tag_175:\n        /* \"#utility.yul\":9975:10061   */\n      swap1\n      pop\n        /* \"#utility.yul\":10109:10118   */\n      dup2\n        /* \"#utility.yul\":10103:10107   */\n      dup2\n        /* \"#utility.yul\":10099:10119   */\n      sub\n        /* \"#utility.yul\":10093:10096   */\n      0x80\n        /* \"#utility.yul\":10082:10091   */\n      dup4\n        /* \"#utility.yul\":10078:10097   */\n      add\n        /* \"#utility.yul\":10071:10120   */\n      mstore\n        /* \"#utility.yul\":10137:10215   */\n      tag_176\n        /* \"#utility.yul\":10210:10214   */\n      dup2\n        /* \"#utility.yul\":10201:10207   */\n      dup5\n        /* \"#utility.yul\":10137:10215   */\n      tag_64\n      jump\t// in\n    tag_176:\n        /* \"#utility.yul\":10129:10215   */\n      swap1\n      pop\n        /* \"#utility.yul\":9194:10222   */\n      swap7\n      swap6\n      pop\n      pop\n      pop\n      pop\n      pop\n      pop\n      jump\t// out\n    stop\n\n    sub_0: assembly {\n            /* \"Ballot.sol\":722:3863  contract Ballot{... */\n          mstore(0x40, 0x80)\n            /* \"Ballot.sol\":911:916  false */\n          0x00\n            /* \"Ballot.sol\":883:916  bool public votingStarted = false */\n          0x02\n          exp(0x0100, 0x00)\n          dup2\n          sload\n          dup2\n          0xff\n          mul\n          not\n          and\n          swap1\n          dup4\n          iszero\n          iszero\n          mul\n          or\n          swap1\n          sstore\n          pop\n            /* \"Ballot.sol\":983:988  false */\n          0x00\n            /* \"Ballot.sol\":954:988  bool public votingFinished = false */\n          0x02\n          exp(0x0100, 0x01)\n          dup2\n          sload\n          dup2\n          0xff\n          mul\n          not\n          and\n          swap1\n          dup4\n          iszero\n          iszero\n          mul\n          or\n          swap1\n          sstore\n          pop\n            /* \"Ballot.sol\":1710:2032  constructor(string memory creator ,address creatorId, string memory image , string memory nameOfBallot ,string memory desc){... */\n          callvalue\n          dup1\n          iszero\n          tag_1\n          jumpi\n          0x00\n          dup1\n          revert\n        tag_1:\n          pop\n          mload(0x40)\n          sub(codesize, bytecodeSize)\n          dup1\n          bytecodeSize\n          dup4\n          codecopy\n          dup2\n          dup2\n          add\n          0x40\n          mstore\n          dup2\n          add\n          swap1\n          tag_2\n          swap2\n          swap1\n          tag_3\n          jump\t// in\n        tag_2:\n            /* \"Ballot.sol\":1859:1866  creator */\n          dup5\n            /* \"Ballot.sol\":1844:1851  manager */\n          0x03\n            /* \"Ballot.sol\":1844:1856  manager.name */\n          0x00\n          add\n            /* \"Ballot.sol\":1844:1866  manager.name = creator */\n          swap1\n          dup1\n          mload\n          swap1\n          0x20\n          add\n          swap1\n          tag_6\n          swap3\n          swap2\n          swap1\n          tag_7\n          jump\t// in\n        tag_6:\n          pop\n            /* \"Ballot.sol\":1890:1899  creatorId */\n          dup4\n            /* \"Ballot.sol\":1877:1884  manager */\n          0x03\n            /* \"Ballot.sol\":1877:1887  manager.id */\n          0x01\n          add\n          0x00\n            /* \"Ballot.sol\":1877:1899  manager.id = creatorId */\n          0x0100\n          exp\n          dup2\n          sload\n          dup2\n          0xffffffffffffffffffffffffffffffffffffffff\n          mul\n          not\n          and\n          swap1\n          dup4\n          0xffffffffffffffffffffffffffffffffffffffff\n          and\n          mul\n          or\n          swap1\n          sstore\n          pop\n            /* \"Ballot.sol\":1926:1931  image */\n          dup3\n            /* \"Ballot.sol\":1910:1917  manager */\n          0x03\n            /* \"Ballot.sol\":1910:1923  manager.image */\n          0x02\n          add\n            /* \"Ballot.sol\":1910:1931  manager.image = image */\n          swap1\n          dup1\n          mload\n          swap1\n          0x20\n          add\n          swap1\n          tag_8\n          swap3\n          swap2\n          swap1\n          tag_7\n          jump\t// in\n        tag_8:\n          pop\n            /* \"Ballot.sol\":1958:1959  0 */\n          0x00\n            /* \"Ballot.sol\":1942:1949  manager */\n          0x03\n            /* \"Ballot.sol\":1942:1955  manager.votes */\n          dup1\n          add\n            /* \"Ballot.sol\":1942:1959  manager.votes = 0 */\n          dup2\n          swap1\n          sstore\n          pop\n            /* \"Ballot.sol\":1983:1995  nameOfBallot */\n          dup2\n            /* \"Ballot.sol\":1970:1980  ballotName */\n          0x00\n            /* \"Ballot.sol\":1970:1995  ballotName = nameOfBallot */\n          swap1\n          dup1\n          mload\n          swap1\n          0x20\n          add\n          swap1\n          tag_9\n          swap3\n          swap2\n          swap1\n          tag_7\n          jump\t// in\n        tag_9:\n          pop\n            /* \"Ballot.sol\":2020:2024  desc */\n          dup1\n            /* \"Ballot.sol\":2006:2017  description */\n          0x01\n            /* \"Ballot.sol\":2006:2024  description = desc */\n          swap1\n          dup1\n          mload\n          swap1\n          0x20\n          add\n          swap1\n          tag_10\n          swap3\n          swap2\n          swap1\n          tag_7\n          jump\t// in\n        tag_10:\n          pop\n            /* \"Ballot.sol\":1710:2032  constructor(string memory creator ,address creatorId, string memory image , string memory nameOfBallot ,string memory desc){... */\n          pop\n          pop\n          pop\n          pop\n          pop\n            /* \"Ballot.sol\":722:3863  contract Ballot{... */\n          jump(tag_11)\n        tag_7:\n          dup3\n          dup1\n          sload\n          tag_12\n          swap1\n          tag_13\n          jump\t// in\n        tag_12:\n          swap1\n          0x00\n          mstore\n          keccak256(0x00, 0x20)\n          swap1\n          0x1f\n          add\n          0x20\n          swap1\n          div\n          dup2\n          add\n          swap3\n          dup3\n          tag_15\n          jumpi\n          0x00\n          dup6\n          sstore\n          jump(tag_14)\n        tag_15:\n          dup3\n          0x1f\n          lt\n          tag_16\n          jumpi\n          dup1\n          mload\n          not(0xff)\n          and\n          dup4\n          dup1\n          add\n          or\n          dup6\n          sstore\n          jump(tag_14)\n        tag_16:\n          dup3\n          dup1\n          add\n          0x01\n          add\n          dup6\n          sstore\n          dup3\n          iszero\n          tag_14\n          jumpi\n          swap2\n          dup3\n          add\n        tag_17:\n          dup3\n          dup2\n          gt\n          iszero\n          tag_18\n          jumpi\n          dup3\n          mload\n          dup3\n          sstore\n          swap2\n          0x20\n          add\n          swap2\n          swap1\n          0x01\n          add\n          swap1\n          jump(tag_17)\n        tag_18:\n        tag_14:\n          pop\n          swap1\n          pop\n          tag_19\n          swap2\n          swap1\n          tag_20\n          jump\t// in\n        tag_19:\n          pop\n          swap1\n          jump\t// out\n        tag_20:\n        tag_21:\n          dup1\n          dup3\n          gt\n          iszero\n          tag_22\n          jumpi\n          0x00\n          dup2\n          0x00\n          swap1\n          sstore\n          pop\n          0x01\n          add\n          jump(tag_21)\n        tag_22:\n          pop\n          swap1\n          jump\t// out\n            /* \"#utility.yul\":7:82   */\n        tag_23:\n            /* \"#utility.yul\":40:46   */\n          0x00\n            /* \"#utility.yul\":73:75   */\n          0x40\n            /* \"#utility.yul\":67:76   */\n          mload\n            /* \"#utility.yul\":57:76   */\n          swap1\n          pop\n            /* \"#utility.yul\":7:82   */\n          swap1\n          jump\t// out\n            /* \"#utility.yul\":88:205   */\n        tag_24:\n            /* \"#utility.yul\":197:198   */\n          0x00\n            /* \"#utility.yul\":194:195   */\n          dup1\n            /* \"#utility.yul\":187:199   */\n          revert\n            /* \"#utility.yul\":211:328   */\n        tag_25:\n            /* \"#utility.yul\":320:321   */\n          0x00\n            /* \"#utility.yul\":317:318   */\n          dup1\n            /* \"#utility.yul\":310:322   */\n          revert\n            /* \"#utility.yul\":334:451   */\n        tag_26:\n            /* \"#utility.yul\":443:444   */\n          0x00\n            /* \"#utility.yul\":440:441   */\n          dup1\n            /* \"#utility.yul\":433:445   */\n          revert\n            /* \"#utility.yul\":457:574   */\n        tag_27:\n            /* \"#utility.yul\":566:567   */\n          0x00\n            /* \"#utility.yul\":563:564   */\n          dup1\n            /* \"#utility.yul\":556:568   */\n          revert\n            /* \"#utility.yul\":580:682   */\n        tag_28:\n            /* \"#utility.yul\":621:627   */\n          0x00\n            /* \"#utility.yul\":672:674   */\n          0x1f\n            /* \"#utility.yul\":668:675   */\n          not\n            /* \"#utility.yul\":663:665   */\n          0x1f\n            /* \"#utility.yul\":656:661   */\n          dup4\n            /* \"#utility.yul\":652:666   */\n          add\n            /* \"#utility.yul\":648:676   */\n          and\n            /* \"#utility.yul\":638:676   */\n          swap1\n          pop\n            /* \"#utility.yul\":580:682   */\n          swap2\n          swap1\n          pop\n          jump\t// out\n            /* \"#utility.yul\":688:868   */\n        tag_29:\n            /* \"#utility.yul\":736:813   */\n          0x4e487b7100000000000000000000000000000000000000000000000000000000\n            /* \"#utility.yul\":733:734   */\n          0x00\n            /* \"#utility.yul\":726:814   */\n          mstore\n            /* \"#utility.yul\":833:837   */\n          0x41\n            /* \"#utility.yul\":830:831   */\n          0x04\n            /* \"#utility.yul\":823:838   */\n          mstore\n            /* \"#utility.yul\":857:861   */\n          0x24\n            /* \"#utility.yul\":854:855   */\n          0x00\n            /* \"#utility.yul\":847:862   */\n          revert\n            /* \"#utility.yul\":874:1155   */\n        tag_30:\n            /* \"#utility.yul\":957:984   */\n          tag_50\n            /* \"#utility.yul\":979:983   */\n          dup3\n            /* \"#utility.yul\":957:984   */\n          tag_28\n          jump\t// in\n        tag_50:\n            /* \"#utility.yul\":949:955   */\n          dup2\n            /* \"#utility.yul\":945:985   */\n          add\n            /* \"#utility.yul\":1087:1093   */\n          dup2\n            /* \"#utility.yul\":1075:1085   */\n          dup2\n            /* \"#utility.yul\":1072:1094   */\n          lt\n            /* \"#utility.yul\":1051:1069   */\n          0xffffffffffffffff\n            /* \"#utility.yul\":1039:1049   */\n          dup3\n            /* \"#utility.yul\":1036:1070   */\n          gt\n            /* \"#utility.yul\":1033:1095   */\n          or\n            /* \"#utility.yul\":1030:1118   */\n          iszero\n          tag_51\n          jumpi\n            /* \"#utility.yul\":1098:1116   */\n          tag_52\n          tag_29\n          jump\t// in\n        tag_52:\n            /* \"#utility.yul\":1030:1118   */\n        tag_51:\n            /* \"#utility.yul\":1138:1148   */\n          dup1\n            /* \"#utility.yul\":1134:1136   */\n          0x40\n            /* \"#utility.yul\":1127:1149   */\n          mstore\n            /* \"#utility.yul\":917:1155   */\n          pop\n            /* \"#utility.yul\":874:1155   */\n          pop\n          pop\n          jump\t// out\n            /* \"#utility.yul\":1161:1290   */\n        tag_31:\n            /* \"#utility.yul\":1195:1201   */\n          0x00\n            /* \"#utility.yul\":1222:1242   */\n          tag_54\n          tag_23\n          jump\t// in\n        tag_54:\n            /* \"#utility.yul\":1212:1242   */\n          swap1\n          pop\n            /* \"#utility.yul\":1251:1284   */\n          tag_55\n            /* \"#utility.yul\":1279:1283   */\n          dup3\n            /* \"#utility.yul\":1271:1277   */\n          dup3\n            /* \"#utility.yul\":1251:1284   */\n          tag_30\n          jump\t// in\n        tag_55:\n            /* \"#utility.yul\":1161:1290   */\n          swap2\n          swap1\n          pop\n          jump\t// out\n            /* \"#utility.yul\":1296:1604   */\n        tag_32:\n            /* \"#utility.yul\":1358:1362   */\n          0x00\n            /* \"#utility.yul\":1448:1466   */\n          0xffffffffffffffff\n            /* \"#utility.yul\":1440:1446   */\n          dup3\n            /* \"#utility.yul\":1437:1467   */\n          gt\n            /* \"#utility.yul\":1434:1490   */\n          iszero\n          tag_57\n          jumpi\n            /* \"#utility.yul\":1470:1488   */\n          tag_58\n          tag_29\n          jump\t// in\n        tag_58:\n            /* \"#utility.yul\":1434:1490   */\n        tag_57:\n            /* \"#utility.yul\":1508:1537   */\n          tag_59\n            /* \"#utility.yul\":1530:1536   */\n          dup3\n            /* \"#utility.yul\":1508:1537   */\n          tag_28\n          jump\t// in\n        tag_59:\n            /* \"#utility.yul\":1500:1537   */\n          swap1\n          pop\n            /* \"#utility.yul\":1592:1596   */\n          0x20\n            /* \"#utility.yul\":1586:1590   */\n          dup2\n            /* \"#utility.yul\":1582:1597   */\n          add\n            /* \"#utility.yul\":1574:1597   */\n          swap1\n          pop\n            /* \"#utility.yul\":1296:1604   */\n          swap2\n          swap1\n          pop\n          jump\t// out\n            /* \"#utility.yul\":1610:1917   */\n        tag_33:\n            /* \"#utility.yul\":1678:1679   */\n          0x00\n            /* \"#utility.yul\":1688:1801   */\n        tag_61:\n            /* \"#utility.yul\":1702:1708   */\n          dup4\n            /* \"#utility.yul\":1699:1700   */\n          dup2\n            /* \"#utility.yul\":1696:1709   */\n          lt\n            /* \"#utility.yul\":1688:1801   */\n          iszero\n          tag_63\n          jumpi\n            /* \"#utility.yul\":1787:1788   */\n          dup1\n            /* \"#utility.yul\":1782:1785   */\n          dup3\n            /* \"#utility.yul\":1778:1789   */\n          add\n            /* \"#utility.yul\":1772:1790   */\n          mload\n            /* \"#utility.yul\":1768:1769   */\n          dup2\n            /* \"#utility.yul\":1763:1766   */\n          dup5\n            /* \"#utility.yul\":1759:1770   */\n          add\n            /* \"#utility.yul\":1752:1791   */\n          mstore\n            /* \"#utility.yul\":1724:1726   */\n          0x20\n            /* \"#utility.yul\":1721:1722   */\n          dup2\n            /* \"#utility.yul\":1717:1727   */\n          add\n            /* \"#utility.yul\":1712:1727   */\n          swap1\n          pop\n            /* \"#utility.yul\":1688:1801   */\n          jump(tag_61)\n        tag_63:\n            /* \"#utility.yul\":1819:1825   */\n          dup4\n            /* \"#utility.yul\":1816:1817   */\n          dup2\n            /* \"#utility.yul\":1813:1826   */\n          gt\n            /* \"#utility.yul\":1810:1911   */\n          iszero\n          tag_64\n          jumpi\n            /* \"#utility.yul\":1899:1900   */\n          0x00\n            /* \"#utility.yul\":1890:1896   */\n          dup5\n            /* \"#utility.yul\":1885:1888   */\n          dup5\n            /* \"#utility.yul\":1881:1897   */\n          add\n            /* \"#utility.yul\":1874:1901   */\n          mstore\n            /* \"#utility.yul\":1810:1911   */\n        tag_64:\n            /* \"#utility.yul\":1659:1917   */\n          pop\n            /* \"#utility.yul\":1610:1917   */\n          pop\n          pop\n          pop\n          jump\t// out\n            /* \"#utility.yul\":1923:2344   */\n        tag_34:\n            /* \"#utility.yul\":2012:2017   */\n          0x00\n            /* \"#utility.yul\":2037:2103   */\n          tag_66\n            /* \"#utility.yul\":2053:2102   */\n          tag_67\n            /* \"#utility.yul\":2095:2101   */\n          dup5\n            /* \"#utility.yul\":2053:2102   */\n          tag_32\n          jump\t// in\n        tag_67:\n            /* \"#utility.yul\":2037:2103   */\n          tag_31\n          jump\t// in\n        tag_66:\n            /* \"#utility.yul\":2028:2103   */\n          swap1\n          pop\n            /* \"#utility.yul\":2126:2132   */\n          dup3\n            /* \"#utility.yul\":2119:2124   */\n          dup2\n            /* \"#utility.yul\":2112:2133   */\n          mstore\n            /* \"#utility.yul\":2164:2168   */\n          0x20\n            /* \"#utility.yul\":2157:2162   */\n          dup2\n            /* \"#utility.yul\":2153:2169   */\n          add\n            /* \"#utility.yul\":2202:2205   */\n          dup5\n            /* \"#utility.yul\":2193:2199   */\n          dup5\n            /* \"#utility.yul\":2188:2191   */\n          dup5\n            /* \"#utility.yul\":2184:2200   */\n          add\n            /* \"#utility.yul\":2181:2206   */\n          gt\n            /* \"#utility.yul\":2178:2290   */\n          iszero\n          tag_68\n          jumpi\n            /* \"#utility.yul\":2209:2288   */\n          tag_69\n          tag_27\n          jump\t// in\n        tag_69:\n            /* \"#utility.yul\":2178:2290   */\n        tag_68:\n            /* \"#utility.yul\":2299:2338   */\n          tag_70\n            /* \"#utility.yul\":2331:2337   */\n          dup5\n            /* \"#utility.yul\":2326:2329   */\n          dup3\n            /* \"#utility.yul\":2321:2324   */\n          dup6\n            /* \"#utility.yul\":2299:2338   */\n          tag_33\n          jump\t// in\n        tag_70:\n            /* \"#utility.yul\":2018:2344   */\n          pop\n            /* \"#utility.yul\":1923:2344   */\n          swap4\n          swap3\n          pop\n          pop\n          pop\n          jump\t// out\n            /* \"#utility.yul\":2364:2719   */\n        tag_35:\n            /* \"#utility.yul\":2431:2436   */\n          0x00\n            /* \"#utility.yul\":2480:2483   */\n          dup3\n            /* \"#utility.yul\":2473:2477   */\n          0x1f\n            /* \"#utility.yul\":2465:2471   */\n          dup4\n            /* \"#utility.yul\":2461:2478   */\n          add\n            /* \"#utility.yul\":2457:2484   */\n          slt\n            /* \"#utility.yul\":2447:2569   */\n          tag_72\n          jumpi\n            /* \"#utility.yul\":2488:2567   */\n          tag_73\n          tag_26\n          jump\t// in\n        tag_73:\n            /* \"#utility.yul\":2447:2569   */\n        tag_72:\n            /* \"#utility.yul\":2598:2604   */\n          dup2\n            /* \"#utility.yul\":2592:2605   */\n          mload\n            /* \"#utility.yul\":2623:2713   */\n          tag_74\n            /* \"#utility.yul\":2709:2712   */\n          dup5\n            /* \"#utility.yul\":2701:2707   */\n          dup3\n            /* \"#utility.yul\":2694:2698   */\n          0x20\n            /* \"#utility.yul\":2686:2692   */\n          dup7\n            /* \"#utility.yul\":2682:2699   */\n          add\n            /* \"#utility.yul\":2623:2713   */\n          tag_34\n          jump\t// in\n        tag_74:\n            /* \"#utility.yul\":2614:2713   */\n          swap2\n          pop\n            /* \"#utility.yul\":2437:2719   */\n          pop\n            /* \"#utility.yul\":2364:2719   */\n          swap3\n          swap2\n          pop\n          pop\n          jump\t// out\n            /* \"#utility.yul\":2725:2851   */\n        tag_36:\n            /* \"#utility.yul\":2762:2769   */\n          0x00\n            /* \"#utility.yul\":2802:2844   */\n          0xffffffffffffffffffffffffffffffffffffffff\n            /* \"#utility.yul\":2795:2800   */\n          dup3\n            /* \"#utility.yul\":2791:2845   */\n          and\n            /* \"#utility.yul\":2780:2845   */\n          swap1\n          pop\n            /* \"#utility.yul\":2725:2851   */\n          swap2\n          swap1\n          pop\n          jump\t// out\n            /* \"#utility.yul\":2857:2953   */\n        tag_37:\n            /* \"#utility.yul\":2894:2901   */\n          0x00\n            /* \"#utility.yul\":2923:2947   */\n          tag_77\n            /* \"#utility.yul\":2941:2946   */\n          dup3\n            /* \"#utility.yul\":2923:2947   */\n          tag_36\n          jump\t// in\n        tag_77:\n            /* \"#utility.yul\":2912:2947   */\n          swap1\n          pop\n            /* \"#utility.yul\":2857:2953   */\n          swap2\n          swap1\n          pop\n          jump\t// out\n            /* \"#utility.yul\":2959:3081   */\n        tag_38:\n            /* \"#utility.yul\":3032:3056   */\n          tag_79\n            /* \"#utility.yul\":3050:3055   */\n          dup2\n            /* \"#utility.yul\":3032:3056   */\n          tag_37\n          jump\t// in\n        tag_79:\n            /* \"#utility.yul\":3025:3030   */\n          dup2\n            /* \"#utility.yul\":3022:3057   */\n          eq\n            /* \"#utility.yul\":3012:3075   */\n          tag_80\n          jumpi\n            /* \"#utility.yul\":3071:3072   */\n          0x00\n            /* \"#utility.yul\":3068:3069   */\n          dup1\n            /* \"#utility.yul\":3061:3073   */\n          revert\n            /* \"#utility.yul\":3012:3075   */\n        tag_80:\n            /* \"#utility.yul\":2959:3081   */\n          pop\n          jump\t// out\n            /* \"#utility.yul\":3087:3230   */\n        tag_39:\n            /* \"#utility.yul\":3144:3149   */\n          0x00\n            /* \"#utility.yul\":3175:3181   */\n          dup2\n            /* \"#utility.yul\":3169:3182   */\n          mload\n            /* \"#utility.yul\":3160:3182   */\n          swap1\n          pop\n            /* \"#utility.yul\":3191:3224   */\n          tag_82\n            /* \"#utility.yul\":3218:3223   */\n          dup2\n            /* \"#utility.yul\":3191:3224   */\n          tag_38\n          jump\t// in\n        tag_82:\n            /* \"#utility.yul\":3087:3230   */\n          swap3\n          swap2\n          pop\n          pop\n          jump\t// out\n            /* \"#utility.yul\":3236:4905   */\n        tag_3:\n            /* \"#utility.yul\":3382:3388   */\n          0x00\n            /* \"#utility.yul\":3390:3396   */\n          dup1\n            /* \"#utility.yul\":3398:3404   */\n          0x00\n            /* \"#utility.yul\":3406:3412   */\n          dup1\n            /* \"#utility.yul\":3414:3420   */\n          0x00\n            /* \"#utility.yul\":3463:3466   */\n          0xa0\n            /* \"#utility.yul\":3451:3460   */\n          dup7\n            /* \"#utility.yul\":3442:3449   */\n          dup9\n            /* \"#utility.yul\":3438:3461   */\n          sub\n            /* \"#utility.yul\":3434:3467   */\n          slt\n            /* \"#utility.yul\":3431:3551   */\n          iszero\n          tag_84\n          jumpi\n            /* \"#utility.yul\":3470:3549   */\n          tag_85\n          tag_24\n          jump\t// in\n        tag_85:\n            /* \"#utility.yul\":3431:3551   */\n        tag_84:\n            /* \"#utility.yul\":3611:3612   */\n          0x00\n            /* \"#utility.yul\":3600:3609   */\n          dup7\n            /* \"#utility.yul\":3596:3613   */\n          add\n            /* \"#utility.yul\":3590:3614   */\n          mload\n            /* \"#utility.yul\":3641:3659   */\n          0xffffffffffffffff\n            /* \"#utility.yul\":3633:3639   */\n          dup2\n            /* \"#utility.yul\":3630:3660   */\n          gt\n            /* \"#utility.yul\":3627:3744   */\n          iszero\n          tag_86\n          jumpi\n            /* \"#utility.yul\":3663:3742   */\n          tag_87\n          tag_25\n          jump\t// in\n        tag_87:\n            /* \"#utility.yul\":3627:3744   */\n        tag_86:\n            /* \"#utility.yul\":3768:3842   */\n          tag_88\n            /* \"#utility.yul\":3834:3841   */\n          dup9\n            /* \"#utility.yul\":3825:3831   */\n          dup3\n            /* \"#utility.yul\":3814:3823   */\n          dup10\n            /* \"#utility.yul\":3810:3832   */\n          add\n            /* \"#utility.yul\":3768:3842   */\n          tag_35\n          jump\t// in\n        tag_88:\n            /* \"#utility.yul\":3758:3842   */\n          swap6\n          pop\n            /* \"#utility.yul\":3561:3852   */\n          pop\n            /* \"#utility.yul\":3891:3893   */\n          0x20\n            /* \"#utility.yul\":3917:3981   */\n          tag_89\n            /* \"#utility.yul\":3973:3980   */\n          dup9\n            /* \"#utility.yul\":3964:3970   */\n          dup3\n            /* \"#utility.yul\":3953:3962   */\n          dup10\n            /* \"#utility.yul\":3949:3971   */\n          add\n            /* \"#utility.yul\":3917:3981   */\n          tag_39\n          jump\t// in\n        tag_89:\n            /* \"#utility.yul\":3907:3981   */\n          swap5\n          pop\n            /* \"#utility.yul\":3862:3991   */\n          pop\n            /* \"#utility.yul\":4051:4053   */\n          0x40\n            /* \"#utility.yul\":4040:4049   */\n          dup7\n            /* \"#utility.yul\":4036:4054   */\n          add\n            /* \"#utility.yul\":4030:4055   */\n          mload\n            /* \"#utility.yul\":4082:4100   */\n          0xffffffffffffffff\n            /* \"#utility.yul\":4074:4080   */\n          dup2\n            /* \"#utility.yul\":4071:4101   */\n          gt\n            /* \"#utility.yul\":4068:4185   */\n          iszero\n          tag_90\n          jumpi\n            /* \"#utility.yul\":4104:4183   */\n          tag_91\n          tag_25\n          jump\t// in\n        tag_91:\n            /* \"#utility.yul\":4068:4185   */\n        tag_90:\n            /* \"#utility.yul\":4209:4283   */\n          tag_92\n            /* \"#utility.yul\":4275:4282   */\n          dup9\n            /* \"#utility.yul\":4266:4272   */\n          dup3\n            /* \"#utility.yul\":4255:4264   */\n          dup10\n            /* \"#utility.yul\":4251:4273   */\n          add\n            /* \"#utility.yul\":4209:4283   */\n          tag_35\n          jump\t// in\n        tag_92:\n            /* \"#utility.yul\":4199:4283   */\n          swap4\n          pop\n            /* \"#utility.yul\":4001:4293   */\n          pop\n            /* \"#utility.yul\":4353:4355   */\n          0x60\n            /* \"#utility.yul\":4342:4351   */\n          dup7\n            /* \"#utility.yul\":4338:4356   */\n          add\n            /* \"#utility.yul\":4332:4357   */\n          mload\n            /* \"#utility.yul\":4384:4402   */\n          0xffffffffffffffff\n            /* \"#utility.yul\":4376:4382   */\n          dup2\n            /* \"#utility.yul\":4373:4403   */\n          gt\n            /* \"#utility.yul\":4370:4487   */\n          iszero\n          tag_93\n          jumpi\n            /* \"#utility.yul\":4406:4485   */\n          tag_94\n          tag_25\n          jump\t// in\n        tag_94:\n            /* \"#utility.yul\":4370:4487   */\n        tag_93:\n            /* \"#utility.yul\":4511:4585   */\n          tag_95\n            /* \"#utility.yul\":4577:4584   */\n          dup9\n            /* \"#utility.yul\":4568:4574   */\n          dup3\n            /* \"#utility.yul\":4557:4566   */\n          dup10\n            /* \"#utility.yul\":4553:4575   */\n          add\n            /* \"#utility.yul\":4511:4585   */\n          tag_35\n          jump\t// in\n        tag_95:\n            /* \"#utility.yul\":4501:4585   */\n          swap3\n          pop\n            /* \"#utility.yul\":4303:4595   */\n          pop\n            /* \"#utility.yul\":4655:4658   */\n          0x80\n            /* \"#utility.yul\":4644:4653   */\n          dup7\n            /* \"#utility.yul\":4640:4659   */\n          add\n            /* \"#utility.yul\":4634:4660   */\n          mload\n            /* \"#utility.yul\":4687:4705   */\n          0xffffffffffffffff\n            /* \"#utility.yul\":4679:4685   */\n          dup2\n            /* \"#utility.yul\":4676:4706   */\n          gt\n            /* \"#utility.yul\":4673:4790   */\n          iszero\n          tag_96\n          jumpi\n            /* \"#utility.yul\":4709:4788   */\n          tag_97\n          tag_25\n          jump\t// in\n        tag_97:\n            /* \"#utility.yul\":4673:4790   */\n        tag_96:\n            /* \"#utility.yul\":4814:4888   */\n          tag_98\n            /* \"#utility.yul\":4880:4887   */\n          dup9\n            /* \"#utility.yul\":4871:4877   */\n          dup3\n            /* \"#utility.yul\":4860:4869   */\n          dup10\n            /* \"#utility.yul\":4856:4878   */\n          add\n            /* \"#utility.yul\":4814:4888   */\n          tag_35\n          jump\t// in\n        tag_98:\n            /* \"#utility.yul\":4804:4888   */\n          swap2\n          pop\n            /* \"#utility.yul\":4605:4898   */\n          pop\n            /* \"#utility.yul\":3236:4905   */\n          swap3\n          swap6\n          pop\n          swap3\n          swap6\n          swap1\n          swap4\n          pop\n          jump\t// out\n            /* \"#utility.yul\":4911:5091   */\n        tag_40:\n            /* \"#utility.yul\":4959:5036   */\n          0x4e487b7100000000000000000000000000000000000000000000000000000000\n            /* \"#utility.yul\":4956:4957   */\n          0x00\n            /* \"#utility.yul\":4949:5037   */\n          mstore\n            /* \"#utility.yul\":5056:5060   */\n          0x22\n            /* \"#utility.yul\":5053:5054   */\n          0x04\n            /* \"#utility.yul\":5046:5061   */\n          mstore\n            /* \"#utility.yul\":5080:5084   */\n          0x24\n            /* \"#utility.yul\":5077:5078   */\n          0x00\n            /* \"#utility.yul\":5070:5085   */\n          revert\n            /* \"#utility.yul\":5097:5417   */\n        tag_13:\n            /* \"#utility.yul\":5141:5147   */\n          0x00\n            /* \"#utility.yul\":5178:5179   */\n          0x02\n            /* \"#utility.yul\":5172:5176   */\n          dup3\n            /* \"#utility.yul\":5168:5180   */\n          div\n            /* \"#utility.yul\":5158:5180   */\n          swap1\n          pop\n            /* \"#utility.yul\":5225:5226   */\n          0x01\n            /* \"#utility.yul\":5219:5223   */\n          dup3\n            /* \"#utility.yul\":5215:5227   */\n          and\n            /* \"#utility.yul\":5246:5264   */\n          dup1\n            /* \"#utility.yul\":5236:5317   */\n          tag_101\n          jumpi\n            /* \"#utility.yul\":5302:5306   */\n          0x7f\n            /* \"#utility.yul\":5294:5300   */\n          dup3\n            /* \"#utility.yul\":5290:5307   */\n          and\n            /* \"#utility.yul\":5280:5307   */\n          swap2\n          pop\n            /* \"#utility.yul\":5236:5317   */\n        tag_101:\n            /* \"#utility.yul\":5364:5366   */\n          0x20\n            /* \"#utility.yul\":5356:5362   */\n          dup3\n            /* \"#utility.yul\":5353:5367   */\n          lt\n            /* \"#utility.yul\":5333:5351   */\n          dup2\n            /* \"#utility.yul\":5330:5368   */\n          sub\n            /* \"#utility.yul\":5327:5411   */\n          tag_102\n          jumpi\n            /* \"#utility.yul\":5383:5401   */\n          tag_103\n          tag_40\n          jump\t// in\n        tag_103:\n            /* \"#utility.yul\":5327:5411   */\n        tag_102:\n            /* \"#utility.yul\":5148:5417   */\n          pop\n            /* \"#utility.yul\":5097:5417   */\n          swap2\n          swap1\n          pop\n          jump\t// out\n            /* \"Ballot.sol\":722:3863  contract Ballot{... */\n        tag_11:\n          dataSize(sub_0)\n          dup1\n          dataOffset(sub_0)\n          0x00\n          codecopy\n          0x00\n          return\n        stop\n\n        sub_0: assembly {\n                /* \"Ballot.sol\":722:3863  contract Ballot{... */\n              mstore(0x40, 0x80)\n              jumpi(tag_1, lt(calldatasize, 0x04))\n              shr(0xe0, calldataload(0x00))\n              dup1\n              0x5aa68ac0\n              gt\n              tag_15\n              jumpi\n              dup1\n              0x789d9e8a\n              gt\n              tag_16\n              jumpi\n              dup1\n              0x789d9e8a\n              eq\n              tag_11\n              jumpi\n              dup1\n              0x83d948b7\n              eq\n              tag_12\n              jumpi\n              dup1\n              0x9c3bfcf6\n              eq\n              tag_13\n              jumpi\n              dup1\n              0xf9094303\n              eq\n              tag_14\n              jumpi\n              jump(tag_1)\n            tag_16:\n              dup1\n              0x5aa68ac0\n              eq\n              tag_8\n              jumpi\n              dup1\n              0x67f9dd43\n              eq\n              tag_9\n              jumpi\n              dup1\n              0x7284e416\n              eq\n              tag_10\n              jumpi\n              jump(tag_1)\n            tag_15:\n              dup1\n              0x16d8cb70\n              eq\n              tag_2\n              jumpi\n              dup1\n              0x1b26586c\n              eq\n              tag_3\n              jumpi\n              dup1\n              0x1ec6b60a\n              eq\n              tag_4\n              jumpi\n              dup1\n              0x35c1d349\n              eq\n              tag_5\n              jumpi\n              dup1\n              0x481c6a75\n              eq\n              tag_6\n              jumpi\n              dup1\n              0x4901d7ae\n              eq\n              tag_7\n              jumpi\n            tag_1:\n              0x00\n              dup1\n              revert\n                /* \"Ballot.sol\":1497:1527  uint256 public totalNoOfVoters */\n            tag_2:\n              callvalue\n              dup1\n              iszero\n              tag_17\n              jumpi\n              0x00\n              dup1\n              revert\n            tag_17:\n              pop\n              tag_18\n              tag_19\n              jump\t// in\n            tag_18:\n              mload(0x40)\n              tag_20\n              swap2\n              swap1\n              tag_21\n              jump\t// in\n            tag_20:\n              mload(0x40)\n              dup1\n              swap2\n              sub\n              swap1\n              return\n                /* \"Ballot.sol\":769:793  string public ballotName */\n            tag_3:\n              callvalue\n              dup1\n              iszero\n              tag_22\n              jumpi\n              0x00\n              dup1\n              revert\n            tag_22:\n              pop\n              tag_23\n              tag_24\n              jump\t// in\n            tag_23:\n              mload(0x40)\n              tag_25\n              swap2\n              swap1\n              tag_26\n              jump\t// in\n            tag_25:\n              mload(0x40)\n              dup1\n              swap2\n              sub\n              swap1\n              return\n                /* \"Ballot.sol\":3657:3737  function startVoting() public onlyManager{... */\n            tag_4:\n              callvalue\n              dup1\n              iszero\n              tag_27\n              jumpi\n              0x00\n              dup1\n              revert\n            tag_27:\n              pop\n              tag_28\n              tag_29\n              jump\t// in\n            tag_28:\n              stop\n                /* \"Ballot.sol\":1434:1462  Person[] public participants */\n            tag_5:\n              callvalue\n              dup1\n              iszero\n              tag_30\n              jumpi\n              0x00\n              dup1\n              revert\n            tag_30:\n              pop\n              tag_31\n              0x04\n              dup1\n              calldatasize\n              sub\n              dup2\n              add\n              swap1\n              tag_32\n              swap2\n              swap1\n              tag_33\n              jump\t// in\n            tag_32:\n              tag_34\n              jump\t// in\n            tag_31:\n              mload(0x40)\n              tag_35\n              swap5\n              swap4\n              swap3\n              swap2\n              swap1\n              tag_36\n              jump\t// in\n            tag_35:\n              mload(0x40)\n              dup1\n              swap2\n              sub\n              swap1\n              return\n                /* \"Ballot.sol\":1330:1351  Person public manager */\n            tag_6:\n              callvalue\n              dup1\n              iszero\n              tag_37\n              jumpi\n              0x00\n              dup1\n              revert\n            tag_37:\n              pop\n              tag_38\n              tag_39\n              jump\t// in\n            tag_38:\n              mload(0x40)\n              tag_40\n              swap5\n              swap4\n              swap3\n              swap2\n              swap1\n              tag_36\n              jump\t// in\n            tag_40:\n              mload(0x40)\n              dup1\n              swap2\n              sub\n              swap1\n              return\n                /* \"Ballot.sol\":2272:2602  function addParticipant(string memory name ,address id , string memory image) public payable onlyManager{... */\n            tag_7:\n              tag_41\n              0x04\n              dup1\n              calldatasize\n              sub\n              dup2\n              add\n              swap1\n              tag_42\n              swap2\n              swap1\n              tag_43\n              jump\t// in\n            tag_42:\n              tag_44\n              jump\t// in\n            tag_41:\n              stop\n                /* \"Ballot.sol\":2747:2847  function getParticipants()public view returns(Person[] memory){... */\n            tag_8:\n              callvalue\n              dup1\n              iszero\n              tag_45\n              jumpi\n              0x00\n              dup1\n              revert\n            tag_45:\n              pop\n              tag_46\n              tag_47\n              jump\t// in\n            tag_46:\n              mload(0x40)\n              tag_48\n              swap2\n              swap1\n              tag_49\n              jump\t// in\n            tag_48:\n              mload(0x40)\n              dup1\n              swap2\n              sub\n              swap1\n              return\n                /* \"Ballot.sol\":1611:1654  mapping(string => bool) public votedPeoples */\n            tag_9:\n              callvalue\n              dup1\n              iszero\n              tag_50\n              jumpi\n              0x00\n              dup1\n              revert\n            tag_50:\n              pop\n              tag_51\n              0x04\n              dup1\n              calldatasize\n              sub\n              dup2\n              add\n              swap1\n              tag_52\n              swap2\n              swap1\n              tag_53\n              jump\t// in\n            tag_52:\n              tag_54\n              jump\t// in\n            tag_51:\n              mload(0x40)\n              tag_55\n              swap2\n              swap1\n              tag_56\n              jump\t// in\n            tag_55:\n              mload(0x40)\n              dup1\n              swap2\n              sub\n              swap1\n              return\n                /* \"Ballot.sol\":800:825  string public description */\n            tag_10:\n              callvalue\n              dup1\n              iszero\n              tag_57\n              jumpi\n              0x00\n              dup1\n              revert\n            tag_57:\n              pop\n              tag_58\n              tag_59\n              jump\t// in\n            tag_58:\n              mload(0x40)\n              tag_60\n              swap2\n              swap1\n              tag_26\n              jump\t// in\n            tag_60:\n              mload(0x40)\n              dup1\n              swap2\n              sub\n              swap1\n              return\n                /* \"Ballot.sol\":954:988  bool public votingFinished = false */\n            tag_11:\n              callvalue\n              dup1\n              iszero\n              tag_61\n              jumpi\n              0x00\n              dup1\n              revert\n            tag_61:\n              pop\n              tag_62\n              tag_63\n              jump\t// in\n            tag_62:\n              mload(0x40)\n              tag_64\n              swap2\n              swap1\n              tag_56\n              jump\t// in\n            tag_64:\n              mload(0x40)\n              dup1\n              swap2\n              sub\n              swap1\n              return\n                /* \"Ballot.sol\":883:916  bool public votingStarted = false */\n            tag_12:\n              callvalue\n              dup1\n              iszero\n              tag_65\n              jumpi\n              0x00\n              dup1\n              revert\n            tag_65:\n              pop\n              tag_66\n              tag_67\n              jump\t// in\n            tag_66:\n              mload(0x40)\n              tag_68\n              swap2\n              swap1\n              tag_56\n              jump\t// in\n            tag_68:\n              mload(0x40)\n              dup1\n              swap2\n              sub\n              swap1\n              return\n                /* \"Ballot.sol\":2893:3614  function vote(string memory name ,address participant , string memory aadhar) public payable canVote{... */\n            tag_13:\n              tag_69\n              0x04\n              dup1\n              calldatasize\n              sub\n              dup2\n              add\n              swap1\n              tag_70\n              swap2\n              swap1\n              tag_43\n              jump\t// in\n            tag_70:\n              tag_71\n              jump\t// in\n            tag_69:\n              stop\n                /* \"Ballot.sol\":3778:3860  function finishVoting() public onlyManager{... */\n            tag_14:\n              callvalue\n              dup1\n              iszero\n              tag_72\n              jumpi\n              0x00\n              dup1\n              revert\n            tag_72:\n              pop\n              tag_73\n              tag_74\n              jump\t// in\n            tag_73:\n              stop\n                /* \"Ballot.sol\":1497:1527  uint256 public totalNoOfVoters */\n            tag_19:\n              sload(0x09)\n              dup2\n              jump\t// out\n                /* \"Ballot.sol\":769:793  string public ballotName */\n            tag_24:\n              0x00\n              dup1\n              sload\n              tag_75\n              swap1\n              tag_76\n              jump\t// in\n            tag_75:\n              dup1\n              0x1f\n              add\n              0x20\n              dup1\n              swap2\n              div\n              mul\n              0x20\n              add\n              mload(0x40)\n              swap1\n              dup2\n              add\n              0x40\n              mstore\n              dup1\n              swap3\n              swap2\n              swap1\n              dup2\n              dup2\n              mstore\n              0x20\n              add\n              dup3\n              dup1\n              sload\n              tag_77\n              swap1\n              tag_76\n              jump\t// in\n            tag_77:\n              dup1\n              iszero\n              tag_78\n              jumpi\n              dup1\n              0x1f\n              lt\n              tag_79\n              jumpi\n              0x0100\n              dup1\n              dup4\n              sload\n              div\n              mul\n              dup4\n              mstore\n              swap2\n              0x20\n              add\n              swap2\n              jump(tag_78)\n            tag_79:\n              dup3\n              add\n              swap2\n              swap1\n              0x00\n              mstore\n              keccak256(0x00, 0x20)\n              swap1\n            tag_80:\n              dup2\n              sload\n              dup2\n              mstore\n              swap1\n              0x01\n              add\n              swap1\n              0x20\n              add\n              dup1\n              dup4\n              gt\n              tag_80\n              jumpi\n              dup3\n              swap1\n              sub\n              0x1f\n              and\n              dup3\n              add\n              swap2\n            tag_78:\n              pop\n              pop\n              pop\n              pop\n              pop\n              dup2\n              jump\t// out\n                /* \"Ballot.sol\":3657:3737  function startVoting() public onlyManager{... */\n            tag_29:\n                /* \"Ballot.sol\":2095:2102  manager */\n              0x03\n                /* \"Ballot.sol\":2095:2105  manager.id */\n              0x01\n              add\n              0x00\n              swap1\n              sload\n              swap1\n              0x0100\n              exp\n              swap1\n              div\n              0xffffffffffffffffffffffffffffffffffffffff\n              and\n                /* \"Ballot.sol\":2081:2105  msg.sender == manager.id */\n              0xffffffffffffffffffffffffffffffffffffffff\n              and\n                /* \"Ballot.sol\":2081:2091  msg.sender */\n              caller\n                /* \"Ballot.sol\":2081:2105  msg.sender == manager.id */\n              0xffffffffffffffffffffffffffffffffffffffff\n              and\n              eq\n                /* \"Ballot.sol\":2073:2106  require(msg.sender == manager.id) */\n              tag_82\n              jumpi\n              0x00\n              dup1\n              revert\n            tag_82:\n                /* \"Ballot.sol\":3725:3729  true */\n              0x01\n                /* \"Ballot.sol\":3709:3722  votingStarted */\n              0x02\n              0x00\n                /* \"Ballot.sol\":3709:3729  votingStarted = true */\n              0x0100\n              exp\n              dup2\n              sload\n              dup2\n              0xff\n              mul\n              not\n              and\n              swap1\n              dup4\n              iszero\n              iszero\n              mul\n              or\n              swap1\n              sstore\n              pop\n                /* \"Ballot.sol\":3657:3737  function startVoting() public onlyManager{... */\n              jump\t// out\n                /* \"Ballot.sol\":1434:1462  Person[] public participants */\n            tag_34:\n              0x08\n              dup2\n              dup2\n              sload\n              dup2\n              lt\n              tag_84\n              jumpi\n              0x00\n              dup1\n              revert\n            tag_84:\n              swap1\n              0x00\n              mstore\n              keccak256(0x00, 0x20)\n              swap1\n              0x04\n              mul\n              add\n              0x00\n              swap2\n              pop\n              swap1\n              pop\n              dup1\n              0x00\n              add\n              dup1\n              sload\n              tag_86\n              swap1\n              tag_76\n              jump\t// in\n            tag_86:\n              dup1\n              0x1f\n              add\n              0x20\n              dup1\n              swap2\n              div\n              mul\n              0x20\n              add\n              mload(0x40)\n              swap1\n              dup2\n              add\n              0x40\n              mstore\n              dup1\n              swap3\n              swap2\n              swap1\n              dup2\n              dup2\n              mstore\n              0x20\n              add\n              dup3\n              dup1\n              sload\n              tag_87\n              swap1\n              tag_76\n              jump\t// in\n            tag_87:\n              dup1\n              iszero\n              tag_88\n              jumpi\n              dup1\n              0x1f\n              lt\n              tag_89\n              jumpi\n              0x0100\n              dup1\n              dup4\n              sload\n              div\n              mul\n              dup4\n              mstore\n              swap2\n              0x20\n              add\n              swap2\n              jump(tag_88)\n            tag_89:\n              dup3\n              add\n              swap2\n              swap1\n              0x00\n              mstore\n              keccak256(0x00, 0x20)\n              swap1\n            tag_90:\n              dup2\n              sload\n              dup2\n              mstore\n              swap1\n              0x01\n              add\n              swap1\n              0x20\n              add\n              dup1\n              dup4\n              gt\n              tag_90\n              jumpi\n              dup3\n              swap1\n              sub\n              0x1f\n              and\n              dup3\n              add\n              swap2\n            tag_88:\n              pop\n              pop\n              pop\n              pop\n              pop\n              swap1\n              dup1\n              0x01\n              add\n              0x00\n              swap1\n              sload\n              swap1\n              0x0100\n              exp\n              swap1\n              div\n              0xffffffffffffffffffffffffffffffffffffffff\n              and\n              swap1\n              dup1\n              0x02\n              add\n              dup1\n              sload\n              tag_91\n              swap1\n              tag_76\n              jump\t// in\n            tag_91:\n              dup1\n              0x1f\n              add\n              0x20\n              dup1\n              swap2\n              div\n              mul\n              0x20\n              add\n              mload(0x40)\n              swap1\n              dup2\n              add\n              0x40\n              mstore\n              dup1\n              swap3\n              swap2\n              swap1\n              dup2\n              dup2\n              mstore\n              0x20\n              add\n              dup3\n              dup1\n              sload\n              tag_92\n              swap1\n              tag_76\n              jump\t// in\n            tag_92:\n              dup1\n              iszero\n              tag_93\n              jumpi\n              dup1\n              0x1f\n              lt\n              tag_94\n              jumpi\n              0x0100\n              dup1\n              dup4\n              sload\n              div\n              mul\n              dup4\n              mstore\n              swap2\n              0x20\n              add\n              swap2\n              jump(tag_93)\n            tag_94:\n              dup3\n              add\n              swap2\n              swap1\n              0x00\n              mstore\n              keccak256(0x00, 0x20)\n              swap1\n            tag_95:\n              dup2\n              sload\n              dup2\n              mstore\n              swap1\n              0x01\n              add\n              swap1\n              0x20\n              add\n              dup1\n              dup4\n              gt\n              tag_95\n              jumpi\n              dup3\n              swap1\n              sub\n              0x1f\n              and\n              dup3\n              add\n              swap2\n            tag_93:\n              pop\n              pop\n              pop\n              pop\n              pop\n              swap1\n              dup1\n              0x03\n              add\n              sload\n              swap1\n              pop\n              dup5\n              jump\t// out\n                /* \"Ballot.sol\":1330:1351  Person public manager */\n            tag_39:\n              0x03\n              dup1\n              0x00\n              add\n              dup1\n              sload\n              tag_96\n              swap1\n              tag_76\n              jump\t// in\n            tag_96:\n              dup1\n              0x1f\n              add\n              0x20\n              dup1\n              swap2\n              div\n              mul\n              0x20\n              add\n              mload(0x40)\n              swap1\n              dup2\n              add\n              0x40\n              mstore\n              dup1\n              swap3\n              swap2\n              swap1\n              dup2\n              dup2\n              mstore\n              0x20\n              add\n              dup3\n              dup1\n              sload\n              tag_97\n              swap1\n              tag_76\n              jump\t// in\n            tag_97:\n              dup1\n              iszero\n              tag_98\n              jumpi\n              dup1\n              0x1f\n              lt\n              tag_99\n              jumpi\n              0x0100\n              dup1\n              dup4\n              sload\n              div\n              mul\n              dup4\n              mstore\n              swap2\n              0x20\n              add\n              swap2\n              jump(tag_98)\n            tag_99:\n              dup3\n              add\n              swap2\n              swap1\n              0x00\n              mstore\n              keccak256(0x00, 0x20)\n              swap1\n            tag_100:\n              dup2\n              sload\n              dup2\n              mstore\n              swap1\n              0x01\n              add\n              swap1\n              0x20\n              add\n              dup1\n              dup4\n              gt\n              tag_100\n              jumpi\n              dup3\n              swap1\n              sub\n              0x1f\n              and\n              dup3\n              add\n              swap2\n            tag_98:\n              pop\n              pop\n              pop\n              pop\n              pop\n              swap1\n              dup1\n              0x01\n              add\n              0x00\n              swap1\n              sload\n              swap1\n              0x0100\n              exp\n              swap1\n              div\n              0xffffffffffffffffffffffffffffffffffffffff\n              and\n              swap1\n              dup1\n              0x02\n              add\n              dup1\n              sload\n              tag_101\n              swap1\n              tag_76\n              jump\t// in\n            tag_101:\n              dup1\n              0x1f\n              add\n              0x20\n              dup1\n              swap2\n              div\n              mul\n              0x20\n              add\n              mload(0x40)\n              swap1\n              dup2\n              add\n              0x40\n              mstore\n              dup1\n              swap3\n              swap2\n              swap1\n              dup2\n              dup2\n              mstore\n              0x20\n              add\n              dup3\n              dup1\n              sload\n              tag_102\n              swap1\n              tag_76\n              jump\t// in\n            tag_102:\n              dup1\n              iszero\n              tag_103\n              jumpi\n              dup1\n              0x1f\n              lt\n              tag_104\n              jumpi\n              0x0100\n              dup1\n              dup4\n              sload\n              div\n              mul\n              dup4\n              mstore\n              swap2\n              0x20\n              add\n              swap2\n              jump(tag_103)\n            tag_104:\n              dup3\n              add\n              swap2\n              swap1\n              0x00\n              mstore\n              keccak256(0x00, 0x20)\n              swap1\n            tag_105:\n              dup2\n              sload\n              dup2\n              mstore\n              swap1\n              0x01\n              add\n              swap1\n              0x20\n              add\n              dup1\n              dup4\n              gt\n              tag_105\n              jumpi\n              dup3\n              swap1\n              sub\n              0x1f\n              and\n              dup3\n              add\n              swap2\n            tag_103:\n              pop\n              pop\n              pop\n              pop\n              pop\n              swap1\n              dup1\n              0x03\n              add\n              sload\n              swap1\n              pop\n              dup5\n              jump\t// out\n                /* \"Ballot.sol\":2272:2602  function addParticipant(string memory name ,address id , string memory image) public payable onlyManager{... */\n            tag_44:\n                /* \"Ballot.sol\":2095:2102  manager */\n              0x03\n                /* \"Ballot.sol\":2095:2105  manager.id */\n              0x01\n              add\n              0x00\n              swap1\n              sload\n              swap1\n              0x0100\n              exp\n              swap1\n              div\n              0xffffffffffffffffffffffffffffffffffffffff\n              and\n                /* \"Ballot.sol\":2081:2105  msg.sender == manager.id */\n              0xffffffffffffffffffffffffffffffffffffffff\n              and\n                /* \"Ballot.sol\":2081:2091  msg.sender */\n              caller\n                /* \"Ballot.sol\":2081:2105  msg.sender == manager.id */\n              0xffffffffffffffffffffffffffffffffffffffff\n              and\n              eq\n                /* \"Ballot.sol\":2073:2106  require(msg.sender == manager.id) */\n              tag_107\n              jumpi\n              0x00\n              dup1\n              revert\n            tag_107:\n                /* \"Ballot.sol\":2407:2417  0.09 ether */\n              0x013fbe85edc90000\n                /* \"Ballot.sol\":2395:2404  msg.value */\n              callvalue\n                /* \"Ballot.sol\":2395:2417  msg.value > 0.09 ether */\n              gt\n                /* \"Ballot.sol\":2387:2418  require(msg.value > 0.09 ether) */\n              tag_109\n              jumpi\n              0x00\n              dup1\n              revert\n            tag_109:\n                /* \"Ballot.sol\":2429:2444  Person memory r */\n              tag_110\n              tag_111\n              jump\t// in\n            tag_110:\n                /* \"Ballot.sol\":2465:2469  name */\n              dup4\n                /* \"Ballot.sol\":2456:2457  r */\n              dup2\n                /* \"Ballot.sol\":2456:2462  r.name */\n              0x00\n              add\n                /* \"Ballot.sol\":2456:2469  r.name = name */\n              dup2\n              swap1\n              mstore\n              pop\n                /* \"Ballot.sol\":2487:2489  id */\n              dup3\n                /* \"Ballot.sol\":2480:2481  r */\n              dup2\n                /* \"Ballot.sol\":2480:2484  r.id */\n              0x20\n              add\n                /* \"Ballot.sol\":2480:2489  r.id = id */\n              swap1\n              0xffffffffffffffffffffffffffffffffffffffff\n              and\n              swap1\n              dup2\n              0xffffffffffffffffffffffffffffffffffffffff\n              and\n              dup2\n              mstore\n              pop\n              pop\n                /* \"Ballot.sol\":2510:2515  image */\n              dup2\n                /* \"Ballot.sol\":2500:2501  r */\n              dup2\n                /* \"Ballot.sol\":2500:2507  r.image */\n              0x40\n              add\n                /* \"Ballot.sol\":2500:2515  r.image = image */\n              dup2\n              swap1\n              mstore\n              pop\n                /* \"Ballot.sol\":2534:2535  0 */\n              0x00\n                /* \"Ballot.sol\":2526:2527  r */\n              dup2\n                /* \"Ballot.sol\":2526:2533  r.votes */\n              0x60\n              add\n                /* \"Ballot.sol\":2526:2535  r.votes=0 */\n              dup2\n              dup2\n              mstore\n              pop\n              pop\n                /* \"Ballot.sol\":2546:2558  participants */\n              0x08\n                /* \"Ballot.sol\":2564:2565  r */\n              dup2\n                /* \"Ballot.sol\":2546:2566  participants.push(r) */\n              swap1\n              dup1\n              0x01\n              dup2\n              sload\n              add\n              dup1\n              dup3\n              sstore\n              dup1\n              swap2\n              pop\n              pop\n              0x01\n              swap1\n              sub\n              swap1\n              0x00\n              mstore\n              keccak256(0x00, 0x20)\n              swap1\n              0x04\n              mul\n              add\n              0x00\n              swap1\n              swap2\n              swap1\n              swap2\n              swap1\n              swap2\n              pop\n              0x00\n              dup3\n              add\n              mload\n              dup2\n              0x00\n              add\n              swap1\n              dup1\n              mload\n              swap1\n              0x20\n              add\n              swap1\n              tag_113\n              swap3\n              swap2\n              swap1\n              tag_114\n              jump\t// in\n            tag_113:\n              pop\n              0x20\n              dup3\n              add\n              mload\n              dup2\n              0x01\n              add\n              exp(0x0100, 0x00)\n              dup2\n              sload\n              dup2\n              0xffffffffffffffffffffffffffffffffffffffff\n              mul\n              not\n              and\n              swap1\n              dup4\n              0xffffffffffffffffffffffffffffffffffffffff\n              and\n              mul\n              or\n              swap1\n              sstore\n              pop\n              0x40\n              dup3\n              add\n              mload\n              dup2\n              0x02\n              add\n              swap1\n              dup1\n              mload\n              swap1\n              0x20\n              add\n              swap1\n              tag_115\n              swap3\n              swap2\n              swap1\n              tag_114\n              jump\t// in\n            tag_115:\n              pop\n              0x60\n              dup3\n              add\n              mload\n              dup2\n              0x03\n              add\n              sstore\n              pop\n              pop\n                /* \"Ballot.sol\":2577:2592  numParticipants */\n              0x07\n              0x00\n                /* \"Ballot.sol\":2577:2594  numParticipants++ */\n              dup2\n              sload\n              dup1\n              swap3\n              swap2\n              swap1\n              tag_116\n              swap1\n              tag_117\n              jump\t// in\n            tag_116:\n              swap2\n              swap1\n              pop\n              sstore\n              pop\n                /* \"Ballot.sol\":2376:2602  {... */\n              pop\n                /* \"Ballot.sol\":2272:2602  function addParticipant(string memory name ,address id , string memory image) public payable onlyManager{... */\n              pop\n              pop\n              pop\n              jump\t// out\n                /* \"Ballot.sol\":2747:2847  function getParticipants()public view returns(Person[] memory){... */\n            tag_47:\n                /* \"Ballot.sol\":2793:2808  Person[] memory */\n              0x60\n                /* \"Ballot.sol\":2827:2839  participants */\n              0x08\n                /* \"Ballot.sol\":2820:2839  return participants */\n              dup1\n              sload\n              dup1\n              0x20\n              mul\n              0x20\n              add\n              mload(0x40)\n              swap1\n              dup2\n              add\n              0x40\n              mstore\n              dup1\n              swap3\n              swap2\n              swap1\n              dup2\n              dup2\n              mstore\n              0x20\n              add\n              0x00\n              swap1\n            tag_119:\n              dup3\n              dup3\n              lt\n              iszero\n              tag_120\n              jumpi\n              dup4\n              dup3\n              swap1\n              0x00\n              mstore\n              keccak256(0x00, 0x20)\n              swap1\n              0x04\n              mul\n              add\n              mload(0x40)\n              dup1\n              0x80\n              add\n              0x40\n              mstore\n              swap1\n              dup2\n              0x00\n              dup3\n              add\n              dup1\n              sload\n              tag_122\n              swap1\n              tag_76\n              jump\t// in\n            tag_122:\n              dup1\n              0x1f\n              add\n              0x20\n              dup1\n              swap2\n              div\n              mul\n              0x20\n              add\n              mload(0x40)\n              swap1\n              dup2\n              add\n              0x40\n              mstore\n              dup1\n              swap3\n              swap2\n              swap1\n              dup2\n              dup2\n              mstore\n              0x20\n              add\n              dup3\n              dup1\n              sload\n              tag_123\n              swap1\n              tag_76\n              jump\t// in\n            tag_123:\n              dup1\n              iszero\n              tag_124\n              jumpi\n              dup1\n              0x1f\n              lt\n              tag_125\n              jumpi\n              0x0100\n              dup1\n              dup4\n              sload\n              div\n              mul\n              dup4\n              mstore\n              swap2\n              0x20\n              add\n              swap2\n              jump(tag_124)\n            tag_125:\n              dup3\n              add\n              swap2\n              swap1\n              0x00\n              mstore\n              keccak256(0x00, 0x20)\n              swap1\n            tag_126:\n              dup2\n              sload\n              dup2\n              mstore\n              swap1\n              0x01\n              add\n              swap1\n              0x20\n              add\n              dup1\n              dup4\n              gt\n              tag_126\n              jumpi\n              dup3\n              swap1\n              sub\n              0x1f\n              and\n              dup3\n              add\n              swap2\n            tag_124:\n              pop\n              pop\n              pop\n              pop\n              pop\n              dup2\n              mstore\n              0x20\n              add\n              0x01\n              dup3\n              add\n              0x00\n              swap1\n              sload\n              swap1\n              0x0100\n              exp\n              swap1\n              div\n              0xffffffffffffffffffffffffffffffffffffffff\n              and\n              0xffffffffffffffffffffffffffffffffffffffff\n              and\n              0xffffffffffffffffffffffffffffffffffffffff\n              and\n              dup2\n              mstore\n              0x20\n              add\n              0x02\n              dup3\n              add\n              dup1\n              sload\n              tag_127\n              swap1\n              tag_76\n              jump\t// in\n            tag_127:\n              dup1\n              0x1f\n              add\n              0x20\n              dup1\n              swap2\n              div\n              mul\n              0x20\n              add\n              mload(0x40)\n              swap1\n              dup2\n              add\n              0x40\n              mstore\n              dup1\n              swap3\n              swap2\n              swap1\n              dup2\n              dup2\n              mstore\n              0x20\n              add\n              dup3\n              dup1\n              sload\n              tag_128\n              swap1\n              tag_76\n              jump\t// in\n            tag_128:\n              dup1\n              iszero\n              tag_129\n              jumpi\n              dup1\n              0x1f\n              lt\n              tag_130\n              jumpi\n              0x0100\n              dup1\n              dup4\n              sload\n              div\n              mul\n              dup4\n              mstore\n              swap2\n              0x20\n              add\n              swap2\n              jump(tag_129)\n            tag_130:\n              dup3\n              add\n              swap2\n              swap1\n              0x00\n              mstore\n              keccak256(0x00, 0x20)\n              swap1\n            tag_131:\n              dup2\n              sload\n              dup2\n              mstore\n              swap1\n              0x01\n              add\n              swap1\n              0x20\n              add\n              dup1\n              dup4\n              gt\n              tag_131\n              jumpi\n              dup3\n              swap1\n              sub\n              0x1f\n              and\n              dup3\n              add\n              swap2\n            tag_129:\n              pop\n              pop\n              pop\n              pop\n              pop\n              dup2\n              mstore\n              0x20\n              add\n              0x03\n              dup3\n              add\n              sload\n              dup2\n              mstore\n              pop\n              pop\n              dup2\n              mstore\n              0x20\n              add\n              swap1\n              0x01\n              add\n              swap1\n              jump(tag_119)\n            tag_120:\n              pop\n              pop\n              pop\n              pop\n              swap1\n              pop\n                /* \"Ballot.sol\":2747:2847  function getParticipants()public view returns(Person[] memory){... */\n              swap1\n              jump\t// out\n                /* \"Ballot.sol\":1611:1654  mapping(string => bool) public votedPeoples */\n            tag_54:\n              0x0b\n              dup2\n              dup1\n              mload\n              0x20\n              dup2\n              add\n              dup3\n              add\n              dup1\n              mload\n              dup5\n              dup3\n              mstore\n              0x20\n              dup4\n              add\n              0x20\n              dup6\n              add\n              keccak256\n              dup2\n              dup4\n              mstore\n              dup1\n              swap6\n              pop\n              pop\n              pop\n              pop\n              pop\n              pop\n              0x00\n              swap2\n              pop\n              sload\n              swap1\n              0x0100\n              exp\n              swap1\n              div\n              0xff\n              and\n              dup2\n              jump\t// out\n                /* \"Ballot.sol\":800:825  string public description */\n            tag_59:\n              0x01\n              dup1\n              sload\n              tag_132\n              swap1\n              tag_76\n              jump\t// in\n            tag_132:\n              dup1\n              0x1f\n              add\n              0x20\n              dup1\n              swap2\n              div\n              mul\n              0x20\n              add\n              mload(0x40)\n              swap1\n              dup2\n              add\n              0x40\n              mstore\n              dup1\n              swap3\n              swap2\n              swap1\n              dup2\n              dup2\n              mstore\n              0x20\n              add\n              dup3\n              dup1\n              sload\n              tag_133\n              swap1\n              tag_76\n              jump\t// in\n            tag_133:\n              dup1\n              iszero\n              tag_134\n              jumpi\n              dup1\n              0x1f\n              lt\n              tag_135\n              jumpi\n              0x0100\n              dup1\n              dup4\n              sload\n              div\n              mul\n              dup4\n              mstore\n              swap2\n              0x20\n              add\n              swap2\n              jump(tag_134)\n            tag_135:\n              dup3\n              add\n              swap2\n              swap1\n              0x00\n              mstore\n              keccak256(0x00, 0x20)\n              swap1\n            tag_136:\n              dup2\n              sload\n              dup2\n              mstore\n              swap1\n              0x01\n              add\n              swap1\n              0x20\n              add\n              dup1\n              dup4\n              gt\n              tag_136\n              jumpi\n              dup3\n              swap1\n              sub\n              0x1f\n              and\n              dup3\n              add\n              swap2\n            tag_134:\n              pop\n              pop\n              pop\n              pop\n              pop\n              dup2\n              jump\t// out\n                /* \"Ballot.sol\":954:988  bool public votingFinished = false */\n            tag_63:\n              0x02\n              0x01\n              swap1\n              sload\n              swap1\n              0x0100\n              exp\n              swap1\n              div\n              0xff\n              and\n              dup2\n              jump\t// out\n                /* \"Ballot.sol\":883:916  bool public votingStarted = false */\n            tag_67:\n              0x02\n              0x00\n              swap1\n              sload\n              swap1\n              0x0100\n              exp\n              swap1\n              div\n              0xff\n              and\n              dup2\n              jump\t// out\n                /* \"Ballot.sol\":2893:3614  function vote(string memory name ,address participant , string memory aadhar) public payable canVote{... */\n            tag_71:\n                /* \"Ballot.sol\":2171:2184  votingStarted */\n              0x02\n              0x00\n              swap1\n              sload\n              swap1\n              0x0100\n              exp\n              swap1\n              div\n              0xff\n              and\n                /* \"Ballot.sol\":2171:2203  votingStarted && !votingFinished */\n              dup1\n              iszero\n              tag_138\n              jumpi\n              pop\n                /* \"Ballot.sol\":2189:2203  votingFinished */\n              0x02\n              0x01\n              swap1\n              sload\n              swap1\n              0x0100\n              exp\n              swap1\n              div\n              0xff\n              and\n                /* \"Ballot.sol\":2188:2203  !votingFinished */\n              iszero\n                /* \"Ballot.sol\":2171:2203  votingStarted && !votingFinished */\n            tag_138:\n                /* \"Ballot.sol\":2163:2204  require(votingStarted && !votingFinished) */\n              tag_139\n              jumpi\n              0x00\n              dup1\n              revert\n            tag_139:\n                /* \"Ballot.sol\":3013:3025  votedPeoples */\n              0x0b\n                /* \"Ballot.sol\":3026:3032  aadhar */\n              dup2\n                /* \"Ballot.sol\":3013:3033  votedPeoples[aadhar] */\n              mload(0x40)\n              tag_141\n              swap2\n              swap1\n              tag_142\n              jump\t// in\n            tag_141:\n              swap1\n              dup2\n              mstore\n              0x20\n              add\n              mload(0x40)\n              dup1\n              swap2\n              sub\n              swap1\n              keccak256\n              0x00\n              swap1\n              sload\n              swap1\n              0x0100\n              exp\n              swap1\n              div\n              0xff\n              and\n                /* \"Ballot.sol\":3012:3033  !votedPeoples[aadhar] */\n              iszero\n                /* \"Ballot.sol\":3004:3063  require(!votedPeoples[aadhar]  , \"You have already Voted!\") */\n              tag_143\n              jumpi\n              mload(0x40)\n              0x08c379a000000000000000000000000000000000000000000000000000000000\n              dup2\n              mstore\n              0x04\n              add\n              tag_144\n              swap1\n              tag_145\n              jump\t// in\n            tag_144:\n              mload(0x40)\n              dup1\n              swap2\n              sub\n              swap1\n              revert\n            tag_143:\n                /* \"Ballot.sol\":3095:3105  0.50 ether */\n              0x06f05b59d3b20000\n                /* \"Ballot.sol\":3082:3091  msg.value */\n              callvalue\n                /* \"Ballot.sol\":3082:3105  msg.value >= 0.50 ether */\n              lt\n              iszero\n                /* \"Ballot.sol\":3074:3136  require(msg.value >= 0.50 ether , \"Send at least 0.50 ether!\") */\n              tag_146\n              jumpi\n              mload(0x40)\n              0x08c379a000000000000000000000000000000000000000000000000000000000\n              dup2\n              mstore\n              0x04\n              add\n              tag_147\n              swap1\n              tag_148\n              jump\t// in\n            tag_147:\n              mload(0x40)\n              dup1\n              swap2\n              sub\n              swap1\n              revert\n            tag_146:\n                /* \"Ballot.sol\":3149:3164  Vote memory val */\n              tag_149\n              tag_150\n              jump\t// in\n            tag_149:\n                /* \"Ballot.sol\":3187:3191  name */\n              dup4\n                /* \"Ballot.sol\":3176:3179  val */\n              dup2\n                /* \"Ballot.sol\":3176:3184  val.name */\n              0x40\n              add\n                /* \"Ballot.sol\":3176:3191  val.name = name */\n              dup2\n              swap1\n              mstore\n              pop\n                /* \"Ballot.sol\":3216:3226  msg.sender */\n              caller\n                /* \"Ballot.sol\":3202:3205  val */\n              dup2\n                /* \"Ballot.sol\":3202:3213  val.voterId */\n              0x00\n              add\n                /* \"Ballot.sol\":3202:3226  val.voterId = msg.sender */\n              swap1\n              0xffffffffffffffffffffffffffffffffffffffff\n              and\n              swap1\n              dup2\n              0xffffffffffffffffffffffffffffffffffffffff\n              and\n              dup2\n              mstore\n              pop\n              pop\n                /* \"Ballot.sol\":3252:3258  aadhar */\n              dup2\n                /* \"Ballot.sol\":3237:3240  val */\n              dup2\n                /* \"Ballot.sol\":3237:3249  val.aadharId */\n              0x20\n              add\n                /* \"Ballot.sol\":3237:3258  val.aadharId = aadhar */\n              dup2\n              swap1\n              mstore\n              pop\n                /* \"Ballot.sol\":3283:3294  participant */\n              dup3\n                /* \"Ballot.sol\":3269:3272  val */\n              dup2\n                /* \"Ballot.sol\":3269:3280  val.votedTo */\n              0x60\n              add\n                /* \"Ballot.sol\":3269:3294  val.votedTo = participant */\n              swap1\n              0xffffffffffffffffffffffffffffffffffffffff\n              and\n              swap1\n              dup2\n              0xffffffffffffffffffffffffffffffffffffffff\n              and\n              dup2\n              mstore\n              pop\n              pop\n                /* \"Ballot.sol\":3305:3313  VotesMap */\n              0x0a\n                /* \"Ballot.sol\":3319:3322  val */\n              dup2\n                /* \"Ballot.sol\":3305:3323  VotesMap.push(val) */\n              swap1\n              dup1\n              0x01\n              dup2\n              sload\n              add\n              dup1\n              dup3\n              sstore\n              dup1\n              swap2\n              pop\n              pop\n              0x01\n              swap1\n              sub\n              swap1\n              0x00\n              mstore\n              keccak256(0x00, 0x20)\n              swap1\n              0x04\n              mul\n              add\n              0x00\n              swap1\n              swap2\n              swap1\n              swap2\n              swap1\n              swap2\n              pop\n              0x00\n              dup3\n              add\n              mload\n              dup2\n              0x00\n              add\n              exp(0x0100, 0x00)\n              dup2\n              sload\n              dup2\n              0xffffffffffffffffffffffffffffffffffffffff\n              mul\n              not\n              and\n              swap1\n              dup4\n              0xffffffffffffffffffffffffffffffffffffffff\n              and\n              mul\n              or\n              swap1\n              sstore\n              pop\n              0x20\n              dup3\n              add\n              mload\n              dup2\n              0x01\n              add\n              swap1\n              dup1\n              mload\n              swap1\n              0x20\n              add\n              swap1\n              tag_152\n              swap3\n              swap2\n              swap1\n              tag_114\n              jump\t// in\n            tag_152:\n              pop\n              0x40\n              dup3\n              add\n              mload\n              dup2\n              0x02\n              add\n              swap1\n              dup1\n              mload\n              swap1\n              0x20\n              add\n              swap1\n              tag_153\n              swap3\n              swap2\n              swap1\n              tag_114\n              jump\t// in\n            tag_153:\n              pop\n              0x60\n              dup3\n              add\n              mload\n              dup2\n              0x03\n              add\n              exp(0x0100, 0x00)\n              dup2\n              sload\n              dup2\n              0xffffffffffffffffffffffffffffffffffffffff\n              mul\n              not\n              and\n              swap1\n              dup4\n              0xffffffffffffffffffffffffffffffffffffffff\n              and\n              mul\n              or\n              swap1\n              sstore\n              pop\n              pop\n              pop\n                /* \"Ballot.sol\":3387:3393  uint i */\n              0x00\n                /* \"Ballot.sol\":3383:3569  for(uint i=0; i<participants.length ;i++){... */\n            tag_154:\n                /* \"Ballot.sol\":3399:3411  participants */\n              0x08\n                /* \"Ballot.sol\":3399:3418  participants.length */\n              dup1\n              sload\n              swap1\n              pop\n                /* \"Ballot.sol\":3397:3398  i */\n              dup2\n                /* \"Ballot.sol\":3397:3418  i<participants.length */\n              lt\n                /* \"Ballot.sol\":3383:3569  for(uint i=0; i<participants.length ;i++){... */\n              iszero\n              tag_155\n              jumpi\n                /* \"Ballot.sol\":3464:3475  participant */\n              dup4\n                /* \"Ballot.sol\":3442:3475  participants[i].id == participant */\n              0xffffffffffffffffffffffffffffffffffffffff\n              and\n                /* \"Ballot.sol\":3442:3454  participants */\n              0x08\n                /* \"Ballot.sol\":3455:3456  i */\n              dup3\n                /* \"Ballot.sol\":3442:3457  participants[i] */\n              dup2\n              sload\n              dup2\n              lt\n              tag_157\n              jumpi\n              tag_158\n              tag_159\n              jump\t// in\n            tag_158:\n            tag_157:\n              swap1\n              0x00\n              mstore\n              keccak256(0x00, 0x20)\n              swap1\n              0x04\n              mul\n              add\n                /* \"Ballot.sol\":3442:3460  participants[i].id */\n              0x01\n              add\n              0x00\n              swap1\n              sload\n              swap1\n              0x0100\n              exp\n              swap1\n              div\n              0xffffffffffffffffffffffffffffffffffffffff\n              and\n                /* \"Ballot.sol\":3442:3475  participants[i].id == participant */\n              0xffffffffffffffffffffffffffffffffffffffff\n              and\n              sub\n                /* \"Ballot.sol\":3439:3558  if(participants[i].id == participant){... */\n              tag_161\n              jumpi\n                /* \"Ballot.sol\":3495:3507  participants */\n              0x08\n                /* \"Ballot.sol\":3508:3509  i */\n              dup2\n                /* \"Ballot.sol\":3495:3510  participants[i] */\n              dup2\n              sload\n              dup2\n              lt\n              tag_162\n              jumpi\n              tag_163\n              tag_159\n              jump\t// in\n            tag_163:\n            tag_162:\n              swap1\n              0x00\n              mstore\n              keccak256(0x00, 0x20)\n              swap1\n              0x04\n              mul\n              add\n                /* \"Ballot.sol\":3495:3516  participants[i].votes */\n              0x03\n              add\n              0x00\n                /* \"Ballot.sol\":3495:3518  participants[i].votes++ */\n              dup2\n              sload\n              dup1\n              swap3\n              swap2\n              swap1\n              tag_165\n              swap1\n              tag_117\n              jump\t// in\n            tag_165:\n              swap2\n              swap1\n              pop\n              sstore\n              pop\n                /* \"Ballot.sol\":3537:3542  break */\n              jump(tag_155)\n                /* \"Ballot.sol\":3439:3558  if(participants[i].id == participant){... */\n            tag_161:\n                /* \"Ballot.sol\":3420:3423  i++ */\n              dup1\n              dup1\n              tag_166\n              swap1\n              tag_117\n              jump\t// in\n            tag_166:\n              swap2\n              pop\n              pop\n                /* \"Ballot.sol\":3383:3569  for(uint i=0; i<participants.length ;i++){... */\n              jump(tag_154)\n            tag_155:\n              pop\n                /* \"Ballot.sol\":3602:3606  true */\n              0x01\n                /* \"Ballot.sol\":3579:3591  votedPeoples */\n              0x0b\n                /* \"Ballot.sol\":3592:3598  aadhar */\n              dup4\n                /* \"Ballot.sol\":3579:3599  votedPeoples[aadhar] */\n              mload(0x40)\n              tag_167\n              swap2\n              swap1\n              tag_142\n              jump\t// in\n            tag_167:\n              swap1\n              dup2\n              mstore\n              0x20\n              add\n              mload(0x40)\n              dup1\n              swap2\n              sub\n              swap1\n              keccak256\n              0x00\n                /* \"Ballot.sol\":3579:3606  votedPeoples[aadhar] = true */\n              0x0100\n              exp\n              dup2\n              sload\n              dup2\n              0xff\n              mul\n              not\n              and\n              swap1\n              dup4\n              iszero\n              iszero\n              mul\n              or\n              swap1\n              sstore\n              pop\n                /* \"Ballot.sol\":2993:3614  {... */\n              pop\n                /* \"Ballot.sol\":2893:3614  function vote(string memory name ,address participant , string memory aadhar) public payable canVote{... */\n              pop\n              pop\n              pop\n              jump\t// out\n                /* \"Ballot.sol\":3778:3860  function finishVoting() public onlyManager{... */\n            tag_74:\n                /* \"Ballot.sol\":2095:2102  manager */\n              0x03\n                /* \"Ballot.sol\":2095:2105  manager.id */\n              0x01\n              add\n              0x00\n              swap1\n              sload\n              swap1\n              0x0100\n              exp\n              swap1\n              div\n              0xffffffffffffffffffffffffffffffffffffffff\n              and\n                /* \"Ballot.sol\":2081:2105  msg.sender == manager.id */\n              0xffffffffffffffffffffffffffffffffffffffff\n              and\n                /* \"Ballot.sol\":2081:2091  msg.sender */\n              caller\n                /* \"Ballot.sol\":2081:2105  msg.sender == manager.id */\n              0xffffffffffffffffffffffffffffffffffffffff\n              and\n              eq\n                /* \"Ballot.sol\":2073:2106  require(msg.sender == manager.id) */\n              tag_169\n              jumpi\n              0x00\n              dup1\n              revert\n            tag_169:\n                /* \"Ballot.sol\":3848:3852  true */\n              0x01\n                /* \"Ballot.sol\":3831:3845  votingFinished */\n              0x02\n              0x01\n                /* \"Ballot.sol\":3831:3852  votingFinished = true */\n              0x0100\n              exp\n              dup2\n              sload\n              dup2\n              0xff\n              mul\n              not\n              and\n              swap1\n              dup4\n              iszero\n              iszero\n              mul\n              or\n              swap1\n              sstore\n              pop\n                /* \"Ballot.sol\":3778:3860  function finishVoting() public onlyManager{... */\n              jump\t// out\n            tag_111:\n              mload(0x40)\n              dup1\n              0x80\n              add\n              0x40\n              mstore\n              dup1\n              0x60\n              dup2\n              mstore\n              0x20\n              add\n              and(0xffffffffffffffffffffffffffffffffffffffff, 0x00)\n              dup2\n              mstore\n              0x20\n              add\n              0x60\n              dup2\n              mstore\n              0x20\n              add\n              0x00\n              dup2\n              mstore\n              pop\n              swap1\n              jump\t// out\n            tag_114:\n              dup3\n              dup1\n              sload\n              tag_171\n              swap1\n              tag_76\n              jump\t// in\n            tag_171:\n              swap1\n              0x00\n              mstore\n              keccak256(0x00, 0x20)\n              swap1\n              0x1f\n              add\n              0x20\n              swap1\n              div\n              dup2\n              add\n              swap3\n              dup3\n              tag_173\n              jumpi\n              0x00\n              dup6\n              sstore\n              jump(tag_172)\n            tag_173:\n              dup3\n              0x1f\n              lt\n              tag_174\n              jumpi\n              dup1\n              mload\n              not(0xff)\n              and\n              dup4\n              dup1\n              add\n              or\n              dup6\n              sstore\n              jump(tag_172)\n            tag_174:\n              dup3\n              dup1\n              add\n              0x01\n              add\n              dup6\n              sstore\n              dup3\n              iszero\n              tag_172\n              jumpi\n              swap2\n              dup3\n              add\n            tag_175:\n              dup3\n              dup2\n              gt\n              iszero\n              tag_176\n              jumpi\n              dup3\n              mload\n              dup3\n              sstore\n              swap2\n              0x20\n              add\n              swap2\n              swap1\n              0x01\n              add\n              swap1\n              jump(tag_175)\n            tag_176:\n            tag_172:\n              pop\n              swap1\n              pop\n              tag_177\n              swap2\n              swap1\n              tag_178\n              jump\t// in\n            tag_177:\n              pop\n              swap1\n              jump\t// out\n            tag_150:\n              mload(0x40)\n              dup1\n              0x80\n              add\n              0x40\n              mstore\n              dup1\n              and(0xffffffffffffffffffffffffffffffffffffffff, 0x00)\n              dup2\n              mstore\n              0x20\n              add\n              0x60\n              dup2\n              mstore\n              0x20\n              add\n              0x60\n              dup2\n              mstore\n              0x20\n              add\n              and(0xffffffffffffffffffffffffffffffffffffffff, 0x00)\n              dup2\n              mstore\n              pop\n              swap1\n              jump\t// out\n            tag_178:\n            tag_179:\n              dup1\n              dup3\n              gt\n              iszero\n              tag_180\n              jumpi\n              0x00\n              dup2\n              0x00\n              swap1\n              sstore\n              pop\n              0x01\n              add\n              jump(tag_179)\n            tag_180:\n              pop\n              swap1\n              jump\t// out\n                /* \"#utility.yul\":7:84   */\n            tag_181:\n                /* \"#utility.yul\":44:51   */\n              0x00\n                /* \"#utility.yul\":73:78   */\n              dup2\n                /* \"#utility.yul\":62:78   */\n              swap1\n              pop\n                /* \"#utility.yul\":7:84   */\n              swap2\n              swap1\n              pop\n              jump\t// out\n                /* \"#utility.yul\":90:208   */\n            tag_182:\n                /* \"#utility.yul\":177:201   */\n              tag_231\n                /* \"#utility.yul\":195:200   */\n              dup2\n                /* \"#utility.yul\":177:201   */\n              tag_181\n              jump\t// in\n            tag_231:\n                /* \"#utility.yul\":172:175   */\n              dup3\n                /* \"#utility.yul\":165:202   */\n              mstore\n                /* \"#utility.yul\":90:208   */\n              pop\n              pop\n              jump\t// out\n                /* \"#utility.yul\":214:436   */\n            tag_21:\n                /* \"#utility.yul\":307:311   */\n              0x00\n                /* \"#utility.yul\":345:347   */\n              0x20\n                /* \"#utility.yul\":334:343   */\n              dup3\n                /* \"#utility.yul\":330:348   */\n              add\n                /* \"#utility.yul\":322:348   */\n              swap1\n              pop\n                /* \"#utility.yul\":358:429   */\n              tag_233\n                /* \"#utility.yul\":426:427   */\n              0x00\n                /* \"#utility.yul\":415:424   */\n              dup4\n                /* \"#utility.yul\":411:428   */\n              add\n                /* \"#utility.yul\":402:408   */\n              dup5\n                /* \"#utility.yul\":358:429   */\n              tag_182\n              jump\t// in\n            tag_233:\n                /* \"#utility.yul\":214:436   */\n              swap3\n              swap2\n              pop\n              pop\n              jump\t// out\n                /* \"#utility.yul\":442:541   */\n            tag_183:\n                /* \"#utility.yul\":494:500   */\n              0x00\n                /* \"#utility.yul\":528:533   */\n              dup2\n                /* \"#utility.yul\":522:534   */\n              mload\n                /* \"#utility.yul\":512:534   */\n              swap1\n              pop\n                /* \"#utility.yul\":442:541   */\n              swap2\n              swap1\n              pop\n              jump\t// out\n                /* \"#utility.yul\":547:716   */\n            tag_184:\n                /* \"#utility.yul\":631:642   */\n              0x00\n                /* \"#utility.yul\":665:671   */\n              dup3\n                /* \"#utility.yul\":660:663   */\n              dup3\n                /* \"#utility.yul\":653:672   */\n              mstore\n                /* \"#utility.yul\":705:709   */\n              0x20\n                /* \"#utility.yul\":700:703   */\n              dup3\n                /* \"#utility.yul\":696:710   */\n              add\n                /* \"#utility.yul\":681:710   */\n              swap1\n              pop\n                /* \"#utility.yul\":547:716   */\n              swap3\n              swap2\n              pop\n              pop\n              jump\t// out\n                /* \"#utility.yul\":722:1029   */\n            tag_185:\n                /* \"#utility.yul\":790:791   */\n              0x00\n                /* \"#utility.yul\":800:913   */\n            tag_237:\n                /* \"#utility.yul\":814:820   */\n              dup4\n                /* \"#utility.yul\":811:812   */\n              dup2\n                /* \"#utility.yul\":808:821   */\n              lt\n                /* \"#utility.yul\":800:913   */\n              iszero\n              tag_239\n              jumpi\n                /* \"#utility.yul\":899:900   */\n              dup1\n                /* \"#utility.yul\":894:897   */\n              dup3\n                /* \"#utility.yul\":890:901   */\n              add\n                /* \"#utility.yul\":884:902   */\n              mload\n                /* \"#utility.yul\":880:881   */\n              dup2\n                /* \"#utility.yul\":875:878   */\n              dup5\n                /* \"#utility.yul\":871:882   */\n              add\n                /* \"#utility.yul\":864:903   */\n              mstore\n                /* \"#utility.yul\":836:838   */\n              0x20\n                /* \"#utility.yul\":833:834   */\n              dup2\n                /* \"#utility.yul\":829:839   */\n              add\n                /* \"#utility.yul\":824:839   */\n              swap1\n              pop\n                /* \"#utility.yul\":800:913   */\n              jump(tag_237)\n            tag_239:\n                /* \"#utility.yul\":931:937   */\n              dup4\n                /* \"#utility.yul\":928:929   */\n              dup2\n                /* \"#utility.yul\":925:938   */\n              gt\n                /* \"#utility.yul\":922:1023   */\n              iszero\n              tag_240\n              jumpi\n                /* \"#utility.yul\":1011:1012   */\n              0x00\n                /* \"#utility.yul\":1002:1008   */\n              dup5\n                /* \"#utility.yul\":997:1000   */\n              dup5\n                /* \"#utility.yul\":993:1009   */\n              add\n                /* \"#utility.yul\":986:1013   */\n              mstore\n                /* \"#utility.yul\":922:1023   */\n            tag_240:\n                /* \"#utility.yul\":771:1029   */\n              pop\n                /* \"#utility.yul\":722:1029   */\n              pop\n              pop\n              pop\n              jump\t// out\n                /* \"#utility.yul\":1035:1137   */\n            tag_186:\n                /* \"#utility.yul\":1076:1082   */\n              0x00\n                /* \"#utility.yul\":1127:1129   */\n              0x1f\n                /* \"#utility.yul\":1123:1130   */\n              not\n                /* \"#utility.yul\":1118:1120   */\n              0x1f\n                /* \"#utility.yul\":1111:1116   */\n              dup4\n                /* \"#utility.yul\":1107:1121   */\n              add\n                /* \"#utility.yul\":1103:1131   */\n              and\n                /* \"#utility.yul\":1093:1131   */\n              swap1\n              pop\n                /* \"#utility.yul\":1035:1137   */\n              swap2\n              swap1\n              pop\n              jump\t// out\n                /* \"#utility.yul\":1143:1507   */\n            tag_187:\n                /* \"#utility.yul\":1231:1234   */\n              0x00\n                /* \"#utility.yul\":1259:1298   */\n              tag_243\n                /* \"#utility.yul\":1292:1297   */\n              dup3\n                /* \"#utility.yul\":1259:1298   */\n              tag_183\n              jump\t// in\n            tag_243:\n                /* \"#utility.yul\":1314:1385   */\n              tag_244\n                /* \"#utility.yul\":1378:1384   */\n              dup2\n                /* \"#utility.yul\":1373:1376   */\n              dup6\n                /* \"#utility.yul\":1314:1385   */\n              tag_184\n              jump\t// in\n            tag_244:\n                /* \"#utility.yul\":1307:1385   */\n              swap4\n              pop\n                /* \"#utility.yul\":1394:1446   */\n              tag_245\n                /* \"#utility.yul\":1439:1445   */\n              dup2\n                /* \"#utility.yul\":1434:1437   */\n              dup6\n                /* \"#utility.yul\":1427:1431   */\n              0x20\n                /* \"#utility.yul\":1420:1425   */\n              dup7\n                /* \"#utility.yul\":1416:1432   */\n              add\n                /* \"#utility.yul\":1394:1446   */\n              tag_185\n              jump\t// in\n            tag_245:\n                /* \"#utility.yul\":1471:1500   */\n              tag_246\n                /* \"#utility.yul\":1493:1499   */\n              dup2\n                /* \"#utility.yul\":1471:1500   */\n              tag_186\n              jump\t// in\n            tag_246:\n                /* \"#utility.yul\":1466:1469   */\n              dup5\n                /* \"#utility.yul\":1462:1501   */\n              add\n                /* \"#utility.yul\":1455:1501   */\n              swap2\n              pop\n                /* \"#utility.yul\":1235:1507   */\n              pop\n                /* \"#utility.yul\":1143:1507   */\n              swap3\n              swap2\n              pop\n              pop\n              jump\t// out\n                /* \"#utility.yul\":1513:1826   */\n            tag_26:\n                /* \"#utility.yul\":1626:1630   */\n              0x00\n                /* \"#utility.yul\":1664:1666   */\n              0x20\n                /* \"#utility.yul\":1653:1662   */\n              dup3\n                /* \"#utility.yul\":1649:1667   */\n              add\n                /* \"#utility.yul\":1641:1667   */\n              swap1\n              pop\n                /* \"#utility.yul\":1713:1722   */\n              dup2\n                /* \"#utility.yul\":1707:1711   */\n              dup2\n                /* \"#utility.yul\":1703:1723   */\n              sub\n                /* \"#utility.yul\":1699:1700   */\n              0x00\n                /* \"#utility.yul\":1688:1697   */\n              dup4\n                /* \"#utility.yul\":1684:1701   */\n              add\n                /* \"#utility.yul\":1677:1724   */\n              mstore\n                /* \"#utility.yul\":1741:1819   */\n              tag_248\n                /* \"#utility.yul\":1814:1818   */\n              dup2\n                /* \"#utility.yul\":1805:1811   */\n              dup5\n                /* \"#utility.yul\":1741:1819   */\n              tag_187\n              jump\t// in\n            tag_248:\n                /* \"#utility.yul\":1733:1819   */\n              swap1\n              pop\n                /* \"#utility.yul\":1513:1826   */\n              swap3\n              swap2\n              pop\n              pop\n              jump\t// out\n                /* \"#utility.yul\":1832:1907   */\n            tag_188:\n                /* \"#utility.yul\":1865:1871   */\n              0x00\n                /* \"#utility.yul\":1898:1900   */\n              0x40\n                /* \"#utility.yul\":1892:1901   */\n              mload\n                /* \"#utility.yul\":1882:1901   */\n              swap1\n              pop\n                /* \"#utility.yul\":1832:1907   */\n              swap1\n              jump\t// out\n                /* \"#utility.yul\":1913:2030   */\n            tag_189:\n                /* \"#utility.yul\":2022:2023   */\n              0x00\n                /* \"#utility.yul\":2019:2020   */\n              dup1\n                /* \"#utility.yul\":2012:2024   */\n              revert\n                /* \"#utility.yul\":2036:2153   */\n            tag_190:\n                /* \"#utility.yul\":2145:2146   */\n              0x00\n                /* \"#utility.yul\":2142:2143   */\n              dup1\n                /* \"#utility.yul\":2135:2147   */\n              revert\n                /* \"#utility.yul\":2159:2281   */\n            tag_191:\n                /* \"#utility.yul\":2232:2256   */\n              tag_253\n                /* \"#utility.yul\":2250:2255   */\n              dup2\n                /* \"#utility.yul\":2232:2256   */\n              tag_181\n              jump\t// in\n            tag_253:\n                /* \"#utility.yul\":2225:2230   */\n              dup2\n                /* \"#utility.yul\":2222:2257   */\n              eq\n                /* \"#utility.yul\":2212:2275   */\n              tag_254\n              jumpi\n                /* \"#utility.yul\":2271:2272   */\n              0x00\n                /* \"#utility.yul\":2268:2269   */\n              dup1\n                /* \"#utility.yul\":2261:2273   */\n              revert\n                /* \"#utility.yul\":2212:2275   */\n            tag_254:\n                /* \"#utility.yul\":2159:2281   */\n              pop\n              jump\t// out\n                /* \"#utility.yul\":2287:2426   */\n            tag_192:\n                /* \"#utility.yul\":2333:2338   */\n              0x00\n                /* \"#utility.yul\":2371:2377   */\n              dup2\n                /* \"#utility.yul\":2358:2378   */\n              calldataload\n                /* \"#utility.yul\":2349:2378   */\n              swap1\n              pop\n                /* \"#utility.yul\":2387:2420   */\n              tag_256\n                /* \"#utility.yul\":2414:2419   */\n              dup2\n                /* \"#utility.yul\":2387:2420   */\n              tag_191\n              jump\t// in\n            tag_256:\n                /* \"#utility.yul\":2287:2426   */\n              swap3\n              swap2\n              pop\n              pop\n              jump\t// out\n                /* \"#utility.yul\":2432:2761   */\n            tag_33:\n                /* \"#utility.yul\":2491:2497   */\n              0x00\n                /* \"#utility.yul\":2540:2542   */\n              0x20\n                /* \"#utility.yul\":2528:2537   */\n              dup3\n                /* \"#utility.yul\":2519:2526   */\n              dup5\n                /* \"#utility.yul\":2515:2538   */\n              sub\n                /* \"#utility.yul\":2511:2543   */\n              slt\n                /* \"#utility.yul\":2508:2627   */\n              iszero\n              tag_258\n              jumpi\n                /* \"#utility.yul\":2546:2625   */\n              tag_259\n              tag_189\n              jump\t// in\n            tag_259:\n                /* \"#utility.yul\":2508:2627   */\n            tag_258:\n                /* \"#utility.yul\":2666:2667   */\n              0x00\n                /* \"#utility.yul\":2691:2744   */\n              tag_260\n                /* \"#utility.yul\":2736:2743   */\n              dup5\n                /* \"#utility.yul\":2727:2733   */\n              dup3\n                /* \"#utility.yul\":2716:2725   */\n              dup6\n                /* \"#utility.yul\":2712:2734   */\n              add\n                /* \"#utility.yul\":2691:2744   */\n              tag_192\n              jump\t// in\n            tag_260:\n                /* \"#utility.yul\":2681:2744   */\n              swap2\n              pop\n                /* \"#utility.yul\":2637:2754   */\n              pop\n                /* \"#utility.yul\":2432:2761   */\n              swap3\n              swap2\n              pop\n              pop\n              jump\t// out\n                /* \"#utility.yul\":2767:2893   */\n            tag_193:\n                /* \"#utility.yul\":2804:2811   */\n              0x00\n                /* \"#utility.yul\":2844:2886   */\n              0xffffffffffffffffffffffffffffffffffffffff\n                /* \"#utility.yul\":2837:2842   */\n              dup3\n                /* \"#utility.yul\":2833:2887   */\n              and\n                /* \"#utility.yul\":2822:2887   */\n              swap1\n              pop\n                /* \"#utility.yul\":2767:2893   */\n              swap2\n              swap1\n              pop\n              jump\t// out\n                /* \"#utility.yul\":2899:2995   */\n            tag_194:\n                /* \"#utility.yul\":2936:2943   */\n              0x00\n                /* \"#utility.yul\":2965:2989   */\n              tag_263\n                /* \"#utility.yul\":2983:2988   */\n              dup3\n                /* \"#utility.yul\":2965:2989   */\n              tag_193\n              jump\t// in\n            tag_263:\n                /* \"#utility.yul\":2954:2989   */\n              swap1\n              pop\n                /* \"#utility.yul\":2899:2995   */\n              swap2\n              swap1\n              pop\n              jump\t// out\n                /* \"#utility.yul\":3001:3119   */\n            tag_195:\n                /* \"#utility.yul\":3088:3112   */\n              tag_265\n                /* \"#utility.yul\":3106:3111   */\n              dup2\n                /* \"#utility.yul\":3088:3112   */\n              tag_194\n              jump\t// in\n            tag_265:\n                /* \"#utility.yul\":3083:3086   */\n              dup3\n                /* \"#utility.yul\":3076:3113   */\n              mstore\n                /* \"#utility.yul\":3001:3119   */\n              pop\n              pop\n              jump\t// out\n                /* \"#utility.yul\":3125:3860   */\n            tag_36:\n                /* \"#utility.yul\":3342:3346   */\n              0x00\n                /* \"#utility.yul\":3380:3383   */\n              0x80\n                /* \"#utility.yul\":3369:3378   */\n              dup3\n                /* \"#utility.yul\":3365:3384   */\n              add\n                /* \"#utility.yul\":3357:3384   */\n              swap1\n              pop\n                /* \"#utility.yul\":3430:3439   */\n              dup2\n                /* \"#utility.yul\":3424:3428   */\n              dup2\n                /* \"#utility.yul\":3420:3440   */\n              sub\n                /* \"#utility.yul\":3416:3417   */\n              0x00\n                /* \"#utility.yul\":3405:3414   */\n              dup4\n                /* \"#utility.yul\":3401:3418   */\n              add\n                /* \"#utility.yul\":3394:3441   */\n              mstore\n                /* \"#utility.yul\":3458:3536   */\n              tag_267\n                /* \"#utility.yul\":3531:3535   */\n              dup2\n                /* \"#utility.yul\":3522:3528   */\n              dup8\n                /* \"#utility.yul\":3458:3536   */\n              tag_187\n              jump\t// in\n            tag_267:\n                /* \"#utility.yul\":3450:3536   */\n              swap1\n              pop\n                /* \"#utility.yul\":3546:3618   */\n              tag_268\n                /* \"#utility.yul\":3614:3616   */\n              0x20\n                /* \"#utility.yul\":3603:3612   */\n              dup4\n                /* \"#utility.yul\":3599:3617   */\n              add\n                /* \"#utility.yul\":3590:3596   */\n              dup7\n                /* \"#utility.yul\":3546:3618   */\n              tag_195\n              jump\t// in\n            tag_268:\n                /* \"#utility.yul\":3665:3674   */\n              dup2\n                /* \"#utility.yul\":3659:3663   */\n              dup2\n                /* \"#utility.yul\":3655:3675   */\n              sub\n                /* \"#utility.yul\":3650:3652   */\n              0x40\n                /* \"#utility.yul\":3639:3648   */\n              dup4\n                /* \"#utility.yul\":3635:3653   */\n              add\n                /* \"#utility.yul\":3628:3676   */\n              mstore\n                /* \"#utility.yul\":3693:3771   */\n              tag_269\n                /* \"#utility.yul\":3766:3770   */\n              dup2\n                /* \"#utility.yul\":3757:3763   */\n              dup6\n                /* \"#utility.yul\":3693:3771   */\n              tag_187\n              jump\t// in\n            tag_269:\n                /* \"#utility.yul\":3685:3771   */\n              swap1\n              pop\n                /* \"#utility.yul\":3781:3853   */\n              tag_270\n                /* \"#utility.yul\":3849:3851   */\n              0x60\n                /* \"#utility.yul\":3838:3847   */\n              dup4\n                /* \"#utility.yul\":3834:3852   */\n              add\n                /* \"#utility.yul\":3825:3831   */\n              dup5\n                /* \"#utility.yul\":3781:3853   */\n              tag_182\n              jump\t// in\n            tag_270:\n                /* \"#utility.yul\":3125:3860   */\n              swap6\n              swap5\n              pop\n              pop\n              pop\n              pop\n              pop\n              jump\t// out\n                /* \"#utility.yul\":3866:3983   */\n            tag_196:\n                /* \"#utility.yul\":3975:3976   */\n              0x00\n                /* \"#utility.yul\":3972:3973   */\n              dup1\n                /* \"#utility.yul\":3965:3977   */\n              revert\n                /* \"#utility.yul\":3989:4106   */\n            tag_197:\n                /* \"#utility.yul\":4098:4099   */\n              0x00\n                /* \"#utility.yul\":4095:4096   */\n              dup1\n                /* \"#utility.yul\":4088:4100   */\n              revert\n                /* \"#utility.yul\":4112:4292   */\n            tag_198:\n                /* \"#utility.yul\":4160:4237   */\n              0x4e487b7100000000000000000000000000000000000000000000000000000000\n                /* \"#utility.yul\":4157:4158   */\n              0x00\n                /* \"#utility.yul\":4150:4238   */\n              mstore\n                /* \"#utility.yul\":4257:4261   */\n              0x41\n                /* \"#utility.yul\":4254:4255   */\n              0x04\n                /* \"#utility.yul\":4247:4262   */\n              mstore\n                /* \"#utility.yul\":4281:4285   */\n              0x24\n                /* \"#utility.yul\":4278:4279   */\n              0x00\n                /* \"#utility.yul\":4271:4286   */\n              revert\n                /* \"#utility.yul\":4298:4579   */\n            tag_199:\n                /* \"#utility.yul\":4381:4408   */\n              tag_275\n                /* \"#utility.yul\":4403:4407   */\n              dup3\n                /* \"#utility.yul\":4381:4408   */\n              tag_186\n              jump\t// in\n            tag_275:\n                /* \"#utility.yul\":4373:4379   */\n              dup2\n                /* \"#utility.yul\":4369:4409   */\n              add\n                /* \"#utility.yul\":4511:4517   */\n              dup2\n                /* \"#utility.yul\":4499:4509   */\n              dup2\n                /* \"#utility.yul\":4496:4518   */\n              lt\n                /* \"#utility.yul\":4475:4493   */\n              0xffffffffffffffff\n                /* \"#utility.yul\":4463:4473   */\n              dup3\n                /* \"#utility.yul\":4460:4494   */\n              gt\n                /* \"#utility.yul\":4457:4519   */\n              or\n                /* \"#utility.yul\":4454:4542   */\n              iszero\n              tag_276\n              jumpi\n                /* \"#utility.yul\":4522:4540   */\n              tag_277\n              tag_198\n              jump\t// in\n            tag_277:\n                /* \"#utility.yul\":4454:4542   */\n            tag_276:\n                /* \"#utility.yul\":4562:4572   */\n              dup1\n                /* \"#utility.yul\":4558:4560   */\n              0x40\n                /* \"#utility.yul\":4551:4573   */\n              mstore\n                /* \"#utility.yul\":4341:4579   */\n              pop\n                /* \"#utility.yul\":4298:4579   */\n              pop\n              pop\n              jump\t// out\n                /* \"#utility.yul\":4585:4714   */\n            tag_200:\n                /* \"#utility.yul\":4619:4625   */\n              0x00\n                /* \"#utility.yul\":4646:4666   */\n              tag_279\n              tag_188\n              jump\t// in\n            tag_279:\n                /* \"#utility.yul\":4636:4666   */\n              swap1\n              pop\n                /* \"#utility.yul\":4675:4708   */\n              tag_280\n                /* \"#utility.yul\":4703:4707   */\n              dup3\n                /* \"#utility.yul\":4695:4701   */\n              dup3\n                /* \"#utility.yul\":4675:4708   */\n              tag_199\n              jump\t// in\n            tag_280:\n                /* \"#utility.yul\":4585:4714   */\n              swap2\n              swap1\n              pop\n              jump\t// out\n                /* \"#utility.yul\":4720:5028   */\n            tag_201:\n                /* \"#utility.yul\":4782:4786   */\n              0x00\n                /* \"#utility.yul\":4872:4890   */\n              0xffffffffffffffff\n                /* \"#utility.yul\":4864:4870   */\n              dup3\n                /* \"#utility.yul\":4861:4891   */\n              gt\n                /* \"#utility.yul\":4858:4914   */\n              iszero\n              tag_282\n              jumpi\n                /* \"#utility.yul\":4894:4912   */\n              tag_283\n              tag_198\n              jump\t// in\n            tag_283:\n                /* \"#utility.yul\":4858:4914   */\n            tag_282:\n                /* \"#utility.yul\":4932:4961   */\n              tag_284\n                /* \"#utility.yul\":4954:4960   */\n              dup3\n                /* \"#utility.yul\":4932:4961   */\n              tag_186\n              jump\t// in\n            tag_284:\n                /* \"#utility.yul\":4924:4961   */\n              swap1\n              pop\n                /* \"#utility.yul\":5016:5020   */\n              0x20\n                /* \"#utility.yul\":5010:5014   */\n              dup2\n                /* \"#utility.yul\":5006:5021   */\n              add\n                /* \"#utility.yul\":4998:5021   */\n              swap1\n              pop\n                /* \"#utility.yul\":4720:5028   */\n              swap2\n              swap1\n              pop\n              jump\t// out\n                /* \"#utility.yul\":5034:5188   */\n            tag_202:\n                /* \"#utility.yul\":5118:5124   */\n              dup3\n                /* \"#utility.yul\":5113:5116   */\n              dup2\n                /* \"#utility.yul\":5108:5111   */\n              dup4\n                /* \"#utility.yul\":5095:5125   */\n              calldatacopy\n                /* \"#utility.yul\":5180:5181   */\n              0x00\n                /* \"#utility.yul\":5171:5177   */\n              dup4\n                /* \"#utility.yul\":5166:5169   */\n              dup4\n                /* \"#utility.yul\":5162:5178   */\n              add\n                /* \"#utility.yul\":5155:5182   */\n              mstore\n                /* \"#utility.yul\":5034:5188   */\n              pop\n              pop\n              pop\n              jump\t// out\n                /* \"#utility.yul\":5194:5606   */\n            tag_203:\n                /* \"#utility.yul\":5272:5277   */\n              0x00\n                /* \"#utility.yul\":5297:5363   */\n              tag_287\n                /* \"#utility.yul\":5313:5362   */\n              tag_288\n                /* \"#utility.yul\":5355:5361   */\n              dup5\n                /* \"#utility.yul\":5313:5362   */\n              tag_201\n              jump\t// in\n            tag_288:\n                /* \"#utility.yul\":5297:5363   */\n              tag_200\n              jump\t// in\n            tag_287:\n                /* \"#utility.yul\":5288:5363   */\n              swap1\n              pop\n                /* \"#utility.yul\":5386:5392   */\n              dup3\n                /* \"#utility.yul\":5379:5384   */\n              dup2\n                /* \"#utility.yul\":5372:5393   */\n              mstore\n                /* \"#utility.yul\":5424:5428   */\n              0x20\n                /* \"#utility.yul\":5417:5422   */\n              dup2\n                /* \"#utility.yul\":5413:5429   */\n              add\n                /* \"#utility.yul\":5462:5465   */\n              dup5\n                /* \"#utility.yul\":5453:5459   */\n              dup5\n                /* \"#utility.yul\":5448:5451   */\n              dup5\n                /* \"#utility.yul\":5444:5460   */\n              add\n                /* \"#utility.yul\":5441:5466   */\n              gt\n                /* \"#utility.yul\":5438:5550   */\n              iszero\n              tag_289\n              jumpi\n                /* \"#utility.yul\":5469:5548   */\n              tag_290\n              tag_197\n              jump\t// in\n            tag_290:\n                /* \"#utility.yul\":5438:5550   */\n            tag_289:\n                /* \"#utility.yul\":5559:5600   */\n              tag_291\n                /* \"#utility.yul\":5593:5599   */\n              dup5\n                /* \"#utility.yul\":5588:5591   */\n              dup3\n                /* \"#utility.yul\":5583:5586   */\n              dup6\n                /* \"#utility.yul\":5559:5600   */\n              tag_202\n              jump\t// in\n            tag_291:\n                /* \"#utility.yul\":5278:5606   */\n              pop\n                /* \"#utility.yul\":5194:5606   */\n              swap4\n              swap3\n              pop\n              pop\n              pop\n              jump\t// out\n                /* \"#utility.yul\":5626:5966   */\n            tag_204:\n                /* \"#utility.yul\":5682:5687   */\n              0x00\n                /* \"#utility.yul\":5731:5734   */\n              dup3\n                /* \"#utility.yul\":5724:5728   */\n              0x1f\n                /* \"#utility.yul\":5716:5722   */\n              dup4\n                /* \"#utility.yul\":5712:5729   */\n              add\n                /* \"#utility.yul\":5708:5735   */\n              slt\n                /* \"#utility.yul\":5698:5820   */\n              tag_293\n              jumpi\n                /* \"#utility.yul\":5739:5818   */\n              tag_294\n              tag_196\n              jump\t// in\n            tag_294:\n                /* \"#utility.yul\":5698:5820   */\n            tag_293:\n                /* \"#utility.yul\":5856:5862   */\n              dup2\n                /* \"#utility.yul\":5843:5863   */\n              calldataload\n                /* \"#utility.yul\":5881:5960   */\n              tag_295\n                /* \"#utility.yul\":5956:5959   */\n              dup5\n                /* \"#utility.yul\":5948:5954   */\n              dup3\n                /* \"#utility.yul\":5941:5945   */\n              0x20\n                /* \"#utility.yul\":5933:5939   */\n              dup7\n                /* \"#utility.yul\":5929:5946   */\n              add\n                /* \"#utility.yul\":5881:5960   */\n              tag_203\n              jump\t// in\n            tag_295:\n                /* \"#utility.yul\":5872:5960   */\n              swap2\n              pop\n                /* \"#utility.yul\":5688:5966   */\n              pop\n                /* \"#utility.yul\":5626:5966   */\n              swap3\n              swap2\n              pop\n              pop\n              jump\t// out\n                /* \"#utility.yul\":5972:6094   */\n            tag_205:\n                /* \"#utility.yul\":6045:6069   */\n              tag_297\n                /* \"#utility.yul\":6063:6068   */\n              dup2\n                /* \"#utility.yul\":6045:6069   */\n              tag_194\n              jump\t// in\n            tag_297:\n                /* \"#utility.yul\":6038:6043   */\n              dup2\n                /* \"#utility.yul\":6035:6070   */\n              eq\n                /* \"#utility.yul\":6025:6088   */\n              tag_298\n              jumpi\n                /* \"#utility.yul\":6084:6085   */\n              0x00\n                /* \"#utility.yul\":6081:6082   */\n              dup1\n                /* \"#utility.yul\":6074:6086   */\n              revert\n                /* \"#utility.yul\":6025:6088   */\n            tag_298:\n                /* \"#utility.yul\":5972:6094   */\n              pop\n              jump\t// out\n                /* \"#utility.yul\":6100:6239   */\n            tag_206:\n                /* \"#utility.yul\":6146:6151   */\n              0x00\n                /* \"#utility.yul\":6184:6190   */\n              dup2\n                /* \"#utility.yul\":6171:6191   */\n              calldataload\n                /* \"#utility.yul\":6162:6191   */\n              swap1\n              pop\n                /* \"#utility.yul\":6200:6233   */\n              tag_300\n                /* \"#utility.yul\":6227:6232   */\n              dup2\n                /* \"#utility.yul\":6200:6233   */\n              tag_205\n              jump\t// in\n            tag_300:\n                /* \"#utility.yul\":6100:6239   */\n              swap3\n              swap2\n              pop\n              pop\n              jump\t// out\n                /* \"#utility.yul\":6245:7224   */\n            tag_43:\n                /* \"#utility.yul\":6342:6348   */\n              0x00\n                /* \"#utility.yul\":6350:6356   */\n              dup1\n                /* \"#utility.yul\":6358:6364   */\n              0x00\n                /* \"#utility.yul\":6407:6409   */\n              0x60\n                /* \"#utility.yul\":6395:6404   */\n              dup5\n                /* \"#utility.yul\":6386:6393   */\n              dup7\n                /* \"#utility.yul\":6382:6405   */\n              sub\n                /* \"#utility.yul\":6378:6410   */\n              slt\n                /* \"#utility.yul\":6375:6494   */\n              iszero\n              tag_302\n              jumpi\n                /* \"#utility.yul\":6413:6492   */\n              tag_303\n              tag_189\n              jump\t// in\n            tag_303:\n                /* \"#utility.yul\":6375:6494   */\n            tag_302:\n                /* \"#utility.yul\":6561:6562   */\n              0x00\n                /* \"#utility.yul\":6550:6559   */\n              dup5\n                /* \"#utility.yul\":6546:6563   */\n              add\n                /* \"#utility.yul\":6533:6564   */\n              calldataload\n                /* \"#utility.yul\":6591:6609   */\n              0xffffffffffffffff\n                /* \"#utility.yul\":6583:6589   */\n              dup2\n                /* \"#utility.yul\":6580:6610   */\n              gt\n                /* \"#utility.yul\":6577:6694   */\n              iszero\n              tag_304\n              jumpi\n                /* \"#utility.yul\":6613:6692   */\n              tag_305\n              tag_190\n              jump\t// in\n            tag_305:\n                /* \"#utility.yul\":6577:6694   */\n            tag_304:\n                /* \"#utility.yul\":6718:6781   */\n              tag_306\n                /* \"#utility.yul\":6773:6780   */\n              dup7\n                /* \"#utility.yul\":6764:6770   */\n              dup3\n                /* \"#utility.yul\":6753:6762   */\n              dup8\n                /* \"#utility.yul\":6749:6771   */\n              add\n                /* \"#utility.yul\":6718:6781   */\n              tag_204\n              jump\t// in\n            tag_306:\n                /* \"#utility.yul\":6708:6781   */\n              swap4\n              pop\n                /* \"#utility.yul\":6504:6791   */\n              pop\n                /* \"#utility.yul\":6830:6832   */\n              0x20\n                /* \"#utility.yul\":6856:6909   */\n              tag_307\n                /* \"#utility.yul\":6901:6908   */\n              dup7\n                /* \"#utility.yul\":6892:6898   */\n              dup3\n                /* \"#utility.yul\":6881:6890   */\n              dup8\n                /* \"#utility.yul\":6877:6899   */\n              add\n                /* \"#utility.yul\":6856:6909   */\n              tag_206\n              jump\t// in\n            tag_307:\n                /* \"#utility.yul\":6846:6909   */\n              swap3\n              pop\n                /* \"#utility.yul\":6801:6919   */\n              pop\n                /* \"#utility.yul\":6986:6988   */\n              0x40\n                /* \"#utility.yul\":6975:6984   */\n              dup5\n                /* \"#utility.yul\":6971:6989   */\n              add\n                /* \"#utility.yul\":6958:6990   */\n              calldataload\n                /* \"#utility.yul\":7017:7035   */\n              0xffffffffffffffff\n                /* \"#utility.yul\":7009:7015   */\n              dup2\n                /* \"#utility.yul\":7006:7036   */\n              gt\n                /* \"#utility.yul\":7003:7120   */\n              iszero\n              tag_308\n              jumpi\n                /* \"#utility.yul\":7039:7118   */\n              tag_309\n              tag_190\n              jump\t// in\n            tag_309:\n                /* \"#utility.yul\":7003:7120   */\n            tag_308:\n                /* \"#utility.yul\":7144:7207   */\n              tag_310\n                /* \"#utility.yul\":7199:7206   */\n              dup7\n                /* \"#utility.yul\":7190:7196   */\n              dup3\n                /* \"#utility.yul\":7179:7188   */\n              dup8\n                /* \"#utility.yul\":7175:7197   */\n              add\n                /* \"#utility.yul\":7144:7207   */\n              tag_204\n              jump\t// in\n            tag_310:\n                /* \"#utility.yul\":7134:7207   */\n              swap2\n              pop\n                /* \"#utility.yul\":6929:7217   */\n              pop\n                /* \"#utility.yul\":6245:7224   */\n              swap3\n              pop\n              swap3\n              pop\n              swap3\n              jump\t// out\n                /* \"#utility.yul\":7230:7366   */\n            tag_207:\n                /* \"#utility.yul\":7319:7325   */\n              0x00\n                /* \"#utility.yul\":7353:7358   */\n              dup2\n                /* \"#utility.yul\":7347:7359   */\n              mload\n                /* \"#utility.yul\":7337:7359   */\n              swap1\n              pop\n                /* \"#utility.yul\":7230:7366   */\n              swap2\n              swap1\n              pop\n              jump\t// out\n                /* \"#utility.yul\":7372:7578   */\n            tag_208:\n                /* \"#utility.yul\":7493:7504   */\n              0x00\n                /* \"#utility.yul\":7527:7533   */\n              dup3\n                /* \"#utility.yul\":7522:7525   */\n              dup3\n                /* \"#utility.yul\":7515:7534   */\n              mstore\n                /* \"#utility.yul\":7567:7571   */\n              0x20\n                /* \"#utility.yul\":7562:7565   */\n              dup3\n                /* \"#utility.yul\":7558:7572   */\n              add\n                /* \"#utility.yul\":7543:7572   */\n              swap1\n              pop\n                /* \"#utility.yul\":7372:7578   */\n              swap3\n              swap2\n              pop\n              pop\n              jump\t// out\n                /* \"#utility.yul\":7584:7738   */\n            tag_209:\n                /* \"#utility.yul\":7673:7677   */\n              0x00\n                /* \"#utility.yul\":7696:7699   */\n              dup2\n                /* \"#utility.yul\":7688:7699   */\n              swap1\n              pop\n                /* \"#utility.yul\":7726:7730   */\n              0x20\n                /* \"#utility.yul\":7721:7724   */\n              dup3\n                /* \"#utility.yul\":7717:7731   */\n              add\n                /* \"#utility.yul\":7709:7731   */\n              swap1\n              pop\n                /* \"#utility.yul\":7584:7738   */\n              swap2\n              swap1\n              pop\n              jump\t// out\n                /* \"#utility.yul\":7744:7903   */\n            tag_210:\n                /* \"#utility.yul\":7818:7829   */\n              0x00\n                /* \"#utility.yul\":7852:7858   */\n              dup3\n                /* \"#utility.yul\":7847:7850   */\n              dup3\n                /* \"#utility.yul\":7840:7859   */\n              mstore\n                /* \"#utility.yul\":7892:7896   */\n              0x20\n                /* \"#utility.yul\":7887:7890   */\n              dup3\n                /* \"#utility.yul\":7883:7897   */\n              add\n                /* \"#utility.yul\":7868:7897   */\n              swap1\n              pop\n                /* \"#utility.yul\":7744:7903   */\n              swap3\n              swap2\n              pop\n              pop\n              jump\t// out\n                /* \"#utility.yul\":7909:8253   */\n            tag_211:\n                /* \"#utility.yul\":7987:7990   */\n              0x00\n                /* \"#utility.yul\":8015:8054   */\n              tag_316\n                /* \"#utility.yul\":8048:8053   */\n              dup3\n                /* \"#utility.yul\":8015:8054   */\n              tag_183\n              jump\t// in\n            tag_316:\n                /* \"#utility.yul\":8070:8131   */\n              tag_317\n                /* \"#utility.yul\":8124:8130   */\n              dup2\n                /* \"#utility.yul\":8119:8122   */\n              dup6\n                /* \"#utility.yul\":8070:8131   */\n              tag_210\n              jump\t// in\n            tag_317:\n                /* \"#utility.yul\":8063:8131   */\n              swap4\n              pop\n                /* \"#utility.yul\":8140:8192   */\n              tag_318\n                /* \"#utility.yul\":8185:8191   */\n              dup2\n                /* \"#utility.yul\":8180:8183   */\n              dup6\n                /* \"#utility.yul\":8173:8177   */\n              0x20\n                /* \"#utility.yul\":8166:8171   */\n              dup7\n                /* \"#utility.yul\":8162:8178   */\n              add\n                /* \"#utility.yul\":8140:8192   */\n              tag_185\n              jump\t// in\n            tag_318:\n                /* \"#utility.yul\":8217:8246   */\n              tag_319\n                /* \"#utility.yul\":8239:8245   */\n              dup2\n                /* \"#utility.yul\":8217:8246   */\n              tag_186\n              jump\t// in\n            tag_319:\n                /* \"#utility.yul\":8212:8215   */\n              dup5\n                /* \"#utility.yul\":8208:8247   */\n              add\n                /* \"#utility.yul\":8201:8247   */\n              swap2\n              pop\n                /* \"#utility.yul\":7991:8253   */\n              pop\n                /* \"#utility.yul\":7909:8253   */\n              swap3\n              swap2\n              pop\n              pop\n              jump\t// out\n                /* \"#utility.yul\":8259:8367   */\n            tag_212:\n                /* \"#utility.yul\":8336:8360   */\n              tag_321\n                /* \"#utility.yul\":8354:8359   */\n              dup2\n                /* \"#utility.yul\":8336:8360   */\n              tag_194\n              jump\t// in\n            tag_321:\n                /* \"#utility.yul\":8331:8334   */\n              dup3\n                /* \"#utility.yul\":8324:8361   */\n              mstore\n                /* \"#utility.yul\":8259:8367   */\n              pop\n              pop\n              jump\t// out\n                /* \"#utility.yul\":8373:8481   */\n            tag_213:\n                /* \"#utility.yul\":8450:8474   */\n              tag_323\n                /* \"#utility.yul\":8468:8473   */\n              dup2\n                /* \"#utility.yul\":8450:8474   */\n              tag_181\n              jump\t// in\n            tag_323:\n                /* \"#utility.yul\":8445:8448   */\n              dup3\n                /* \"#utility.yul\":8438:8475   */\n              mstore\n                /* \"#utility.yul\":8373:8481   */\n              pop\n              pop\n              jump\t// out\n                /* \"#utility.yul\":8539:9548   */\n            tag_214:\n                /* \"#utility.yul\":8642:8645   */\n              0x00\n                /* \"#utility.yul\":8678:8682   */\n              0x80\n                /* \"#utility.yul\":8673:8676   */\n              dup4\n                /* \"#utility.yul\":8669:8683   */\n              add\n                /* \"#utility.yul\":8765:8769   */\n              0x00\n                /* \"#utility.yul\":8758:8763   */\n              dup4\n                /* \"#utility.yul\":8754:8770   */\n              add\n                /* \"#utility.yul\":8748:8771   */\n              mload\n                /* \"#utility.yul\":8818:8821   */\n              dup5\n                /* \"#utility.yul\":8812:8816   */\n              dup3\n                /* \"#utility.yul\":8808:8822   */\n              sub\n                /* \"#utility.yul\":8801:8805   */\n              0x00\n                /* \"#utility.yul\":8796:8799   */\n              dup7\n                /* \"#utility.yul\":8792:8806   */\n              add\n                /* \"#utility.yul\":8785:8823   */\n              mstore\n                /* \"#utility.yul\":8844:8917   */\n              tag_325\n                /* \"#utility.yul\":8912:8916   */\n              dup3\n                /* \"#utility.yul\":8898:8910   */\n              dup3\n                /* \"#utility.yul\":8844:8917   */\n              tag_211\n              jump\t// in\n            tag_325:\n                /* \"#utility.yul\":8836:8917   */\n              swap2\n              pop\n                /* \"#utility.yul\":8693:8928   */\n              pop\n                /* \"#utility.yul\":9008:9012   */\n              0x20\n                /* \"#utility.yul\":9001:9006   */\n              dup4\n                /* \"#utility.yul\":8997:9013   */\n              add\n                /* \"#utility.yul\":8991:9014   */\n              mload\n                /* \"#utility.yul\":9027:9090   */\n              tag_326\n                /* \"#utility.yul\":9084:9088   */\n              0x20\n                /* \"#utility.yul\":9079:9082   */\n              dup7\n                /* \"#utility.yul\":9075:9089   */\n              add\n                /* \"#utility.yul\":9061:9073   */\n              dup3\n                /* \"#utility.yul\":9027:9090   */\n              tag_212\n              jump\t// in\n            tag_326:\n                /* \"#utility.yul\":8938:9100   */\n              pop\n                /* \"#utility.yul\":9183:9187   */\n              0x40\n                /* \"#utility.yul\":9176:9181   */\n              dup4\n                /* \"#utility.yul\":9172:9188   */\n              add\n                /* \"#utility.yul\":9166:9189   */\n              mload\n                /* \"#utility.yul\":9236:9239   */\n              dup5\n                /* \"#utility.yul\":9230:9234   */\n              dup3\n                /* \"#utility.yul\":9226:9240   */\n              sub\n                /* \"#utility.yul\":9219:9223   */\n              0x40\n                /* \"#utility.yul\":9214:9217   */\n              dup7\n                /* \"#utility.yul\":9210:9224   */\n              add\n                /* \"#utility.yul\":9203:9241   */\n              mstore\n                /* \"#utility.yul\":9262:9335   */\n              tag_327\n                /* \"#utility.yul\":9330:9334   */\n              dup3\n                /* \"#utility.yul\":9316:9328   */\n              dup3\n                /* \"#utility.yul\":9262:9335   */\n              tag_211\n              jump\t// in\n            tag_327:\n                /* \"#utility.yul\":9254:9335   */\n              swap2\n              pop\n                /* \"#utility.yul\":9110:9346   */\n              pop\n                /* \"#utility.yul\":9429:9433   */\n              0x60\n                /* \"#utility.yul\":9422:9427   */\n              dup4\n                /* \"#utility.yul\":9418:9434   */\n              add\n                /* \"#utility.yul\":9412:9435   */\n              mload\n                /* \"#utility.yul\":9448:9511   */\n              tag_328\n                /* \"#utility.yul\":9505:9509   */\n              0x60\n                /* \"#utility.yul\":9500:9503   */\n              dup7\n                /* \"#utility.yul\":9496:9510   */\n              add\n                /* \"#utility.yul\":9482:9494   */\n              dup3\n                /* \"#utility.yul\":9448:9511   */\n              tag_213\n              jump\t// in\n            tag_328:\n                /* \"#utility.yul\":9356:9521   */\n              pop\n                /* \"#utility.yul\":9538:9542   */\n              dup1\n                /* \"#utility.yul\":9531:9542   */\n              swap2\n              pop\n                /* \"#utility.yul\":8647:9548   */\n              pop\n                /* \"#utility.yul\":8539:9548   */\n              swap3\n              swap2\n              pop\n              pop\n              jump\t// out\n                /* \"#utility.yul\":9554:9798   */\n            tag_215:\n                /* \"#utility.yul\":9667:9677   */\n              0x00\n                /* \"#utility.yul\":9702:9792   */\n              tag_330\n                /* \"#utility.yul\":9788:9791   */\n              dup4\n                /* \"#utility.yul\":9780:9786   */\n              dup4\n                /* \"#utility.yul\":9702:9792   */\n              tag_214\n              jump\t// in\n            tag_330:\n                /* \"#utility.yul\":9688:9792   */\n              swap1\n              pop\n                /* \"#utility.yul\":9554:9798   */\n              swap3\n              swap2\n              pop\n              pop\n              jump\t// out\n                /* \"#utility.yul\":9804:9939   */\n            tag_216:\n                /* \"#utility.yul\":9896:9900   */\n              0x00\n                /* \"#utility.yul\":9928:9932   */\n              0x20\n                /* \"#utility.yul\":9923:9926   */\n              dup3\n                /* \"#utility.yul\":9919:9933   */\n              add\n                /* \"#utility.yul\":9911:9933   */\n              swap1\n              pop\n                /* \"#utility.yul\":9804:9939   */\n              swap2\n              swap1\n              pop\n              jump\t// out\n                /* \"#utility.yul\":10001:11088   */\n            tag_217:\n                /* \"#utility.yul\":10164:10167   */\n              0x00\n                /* \"#utility.yul\":10193:10269   */\n              tag_333\n                /* \"#utility.yul\":10263:10268   */\n              dup3\n                /* \"#utility.yul\":10193:10269   */\n              tag_207\n              jump\t// in\n            tag_333:\n                /* \"#utility.yul\":10285:10393   */\n              tag_334\n                /* \"#utility.yul\":10386:10392   */\n              dup2\n                /* \"#utility.yul\":10381:10384   */\n              dup6\n                /* \"#utility.yul\":10285:10393   */\n              tag_208\n              jump\t// in\n            tag_334:\n                /* \"#utility.yul\":10278:10393   */\n              swap4\n              pop\n                /* \"#utility.yul\":10419:10422   */\n              dup4\n                /* \"#utility.yul\":10464:10468   */\n              0x20\n                /* \"#utility.yul\":10456:10462   */\n              dup3\n                /* \"#utility.yul\":10452:10469   */\n              mul\n                /* \"#utility.yul\":10447:10450   */\n              dup6\n                /* \"#utility.yul\":10443:10470   */\n              add\n                /* \"#utility.yul\":10494:10572   */\n              tag_335\n                /* \"#utility.yul\":10566:10571   */\n              dup6\n                /* \"#utility.yul\":10494:10572   */\n              tag_209\n              jump\t// in\n            tag_335:\n                /* \"#utility.yul\":10595:10602   */\n              dup1\n                /* \"#utility.yul\":10626:10627   */\n              0x00\n                /* \"#utility.yul\":10611:11043   */\n            tag_336:\n                /* \"#utility.yul\":10636:10642   */\n              dup6\n                /* \"#utility.yul\":10633:10634   */\n              dup2\n                /* \"#utility.yul\":10630:10643   */\n              lt\n                /* \"#utility.yul\":10611:11043   */\n              iszero\n              tag_338\n              jumpi\n                /* \"#utility.yul\":10707:10716   */\n              dup5\n                /* \"#utility.yul\":10701:10705   */\n              dup5\n                /* \"#utility.yul\":10697:10717   */\n              sub\n                /* \"#utility.yul\":10692:10695   */\n              dup10\n                /* \"#utility.yul\":10685:10718   */\n              mstore\n                /* \"#utility.yul\":10758:10764   */\n              dup2\n                /* \"#utility.yul\":10752:10765   */\n              mload\n                /* \"#utility.yul\":10786:10894   */\n              tag_339\n                /* \"#utility.yul\":10889:10893   */\n              dup6\n                /* \"#utility.yul\":10874:10887   */\n              dup3\n                /* \"#utility.yul\":10786:10894   */\n              tag_215\n              jump\t// in\n            tag_339:\n                /* \"#utility.yul\":10778:10894   */\n              swap5\n              pop\n                /* \"#utility.yul\":10917:10999   */\n              tag_340\n                /* \"#utility.yul\":10992:10998   */\n              dup4\n                /* \"#utility.yul\":10917:10999   */\n              tag_216\n              jump\t// in\n            tag_340:\n                /* \"#utility.yul\":10907:10999   */\n              swap3\n              pop\n                /* \"#utility.yul\":11028:11032   */\n              0x20\n                /* \"#utility.yul\":11023:11026   */\n              dup11\n                /* \"#utility.yul\":11019:11033   */\n              add\n                /* \"#utility.yul\":11012:11033   */\n              swap10\n              pop\n                /* \"#utility.yul\":10671:11043   */\n              pop\n                /* \"#utility.yul\":10658:10659   */\n              0x01\n                /* \"#utility.yul\":10655:10656   */\n              dup2\n                /* \"#utility.yul\":10651:10660   */\n              add\n                /* \"#utility.yul\":10646:10660   */\n              swap1\n              pop\n                /* \"#utility.yul\":10611:11043   */\n              jump(tag_336)\n            tag_338:\n                /* \"#utility.yul\":10615:10629   */\n              pop\n                /* \"#utility.yul\":11059:11063   */\n              dup3\n                /* \"#utility.yul\":11052:11063   */\n              swap8\n              pop\n                /* \"#utility.yul\":11079:11082   */\n              dup8\n                /* \"#utility.yul\":11072:11082   */\n              swap6\n              pop\n                /* \"#utility.yul\":10169:11088   */\n              pop\n              pop\n              pop\n              pop\n              pop\n                /* \"#utility.yul\":10001:11088   */\n              swap3\n              swap2\n              pop\n              pop\n              jump\t// out\n                /* \"#utility.yul\":11094:11555   */\n            tag_49:\n                /* \"#utility.yul\":11281:11285   */\n              0x00\n                /* \"#utility.yul\":11319:11321   */\n              0x20\n                /* \"#utility.yul\":11308:11317   */\n              dup3\n                /* \"#utility.yul\":11304:11322   */\n              add\n                /* \"#utility.yul\":11296:11322   */\n              swap1\n              pop\n                /* \"#utility.yul\":11368:11377   */\n              dup2\n                /* \"#utility.yul\":11362:11366   */\n              dup2\n                /* \"#utility.yul\":11358:11378   */\n              sub\n                /* \"#utility.yul\":11354:11355   */\n              0x00\n                /* \"#utility.yul\":11343:11352   */\n              dup4\n                /* \"#utility.yul\":11339:11356   */\n              add\n                /* \"#utility.yul\":11332:11379   */\n              mstore\n                /* \"#utility.yul\":11396:11548   */\n              tag_342\n                /* \"#utility.yul\":11543:11547   */\n              dup2\n                /* \"#utility.yul\":11534:11540   */\n              dup5\n                /* \"#utility.yul\":11396:11548   */\n              tag_217\n              jump\t// in\n            tag_342:\n                /* \"#utility.yul\":11388:11548   */\n              swap1\n              pop\n                /* \"#utility.yul\":11094:11555   */\n              swap3\n              swap2\n              pop\n              pop\n              jump\t// out\n                /* \"#utility.yul\":11561:12070   */\n            tag_53:\n                /* \"#utility.yul\":11630:11636   */\n              0x00\n                /* \"#utility.yul\":11679:11681   */\n              0x20\n                /* \"#utility.yul\":11667:11676   */\n              dup3\n                /* \"#utility.yul\":11658:11665   */\n              dup5\n                /* \"#utility.yul\":11654:11677   */\n              sub\n                /* \"#utility.yul\":11650:11682   */\n              slt\n                /* \"#utility.yul\":11647:11766   */\n              iszero\n              tag_344\n              jumpi\n                /* \"#utility.yul\":11685:11764   */\n              tag_345\n              tag_189\n              jump\t// in\n            tag_345:\n                /* \"#utility.yul\":11647:11766   */\n            tag_344:\n                /* \"#utility.yul\":11833:11834   */\n              0x00\n                /* \"#utility.yul\":11822:11831   */\n              dup3\n                /* \"#utility.yul\":11818:11835   */\n              add\n                /* \"#utility.yul\":11805:11836   */\n              calldataload\n                /* \"#utility.yul\":11863:11881   */\n              0xffffffffffffffff\n                /* \"#utility.yul\":11855:11861   */\n              dup2\n                /* \"#utility.yul\":11852:11882   */\n              gt\n                /* \"#utility.yul\":11849:11966   */\n              iszero\n              tag_346\n              jumpi\n                /* \"#utility.yul\":11885:11964   */\n              tag_347\n              tag_190\n              jump\t// in\n            tag_347:\n                /* \"#utility.yul\":11849:11966   */\n            tag_346:\n                /* \"#utility.yul\":11990:12053   */\n              tag_348\n                /* \"#utility.yul\":12045:12052   */\n              dup5\n                /* \"#utility.yul\":12036:12042   */\n              dup3\n                /* \"#utility.yul\":12025:12034   */\n              dup6\n                /* \"#utility.yul\":12021:12043   */\n              add\n                /* \"#utility.yul\":11990:12053   */\n              tag_204\n              jump\t// in\n            tag_348:\n                /* \"#utility.yul\":11980:12053   */\n              swap2\n              pop\n                /* \"#utility.yul\":11776:12063   */\n              pop\n                /* \"#utility.yul\":11561:12070   */\n              swap3\n              swap2\n              pop\n              pop\n              jump\t// out\n                /* \"#utility.yul\":12076:12166   */\n            tag_218:\n                /* \"#utility.yul\":12110:12117   */\n              0x00\n                /* \"#utility.yul\":12153:12158   */\n              dup2\n                /* \"#utility.yul\":12146:12159   */\n              iszero\n                /* \"#utility.yul\":12139:12160   */\n              iszero\n                /* \"#utility.yul\":12128:12160   */\n              swap1\n              pop\n                /* \"#utility.yul\":12076:12166   */\n              swap2\n              swap1\n              pop\n              jump\t// out\n                /* \"#utility.yul\":12172:12281   */\n            tag_219:\n                /* \"#utility.yul\":12253:12274   */\n              tag_351\n                /* \"#utility.yul\":12268:12273   */\n              dup2\n                /* \"#utility.yul\":12253:12274   */\n              tag_218\n              jump\t// in\n            tag_351:\n                /* \"#utility.yul\":12248:12251   */\n              dup3\n                /* \"#utility.yul\":12241:12275   */\n              mstore\n                /* \"#utility.yul\":12172:12281   */\n              pop\n              pop\n              jump\t// out\n                /* \"#utility.yul\":12287:12497   */\n            tag_56:\n                /* \"#utility.yul\":12374:12378   */\n              0x00\n                /* \"#utility.yul\":12412:12414   */\n              0x20\n                /* \"#utility.yul\":12401:12410   */\n              dup3\n                /* \"#utility.yul\":12397:12415   */\n              add\n                /* \"#utility.yul\":12389:12415   */\n              swap1\n              pop\n                /* \"#utility.yul\":12425:12490   */\n              tag_353\n                /* \"#utility.yul\":12487:12488   */\n              0x00\n                /* \"#utility.yul\":12476:12485   */\n              dup4\n                /* \"#utility.yul\":12472:12489   */\n              add\n                /* \"#utility.yul\":12463:12469   */\n              dup5\n                /* \"#utility.yul\":12425:12490   */\n              tag_219\n              jump\t// in\n            tag_353:\n                /* \"#utility.yul\":12287:12497   */\n              swap3\n              swap2\n              pop\n              pop\n              jump\t// out\n                /* \"#utility.yul\":12503:12683   */\n            tag_220:\n                /* \"#utility.yul\":12551:12628   */\n              0x4e487b7100000000000000000000000000000000000000000000000000000000\n                /* \"#utility.yul\":12548:12549   */\n              0x00\n                /* \"#utility.yul\":12541:12629   */\n              mstore\n                /* \"#utility.yul\":12648:12652   */\n              0x22\n                /* \"#utility.yul\":12645:12646   */\n              0x04\n                /* \"#utility.yul\":12638:12653   */\n              mstore\n                /* \"#utility.yul\":12672:12676   */\n              0x24\n                /* \"#utility.yul\":12669:12670   */\n              0x00\n                /* \"#utility.yul\":12662:12677   */\n              revert\n                /* \"#utility.yul\":12689:13009   */\n            tag_76:\n                /* \"#utility.yul\":12733:12739   */\n              0x00\n                /* \"#utility.yul\":12770:12771   */\n              0x02\n                /* \"#utility.yul\":12764:12768   */\n              dup3\n                /* \"#utility.yul\":12760:12772   */\n              div\n                /* \"#utility.yul\":12750:12772   */\n              swap1\n              pop\n                /* \"#utility.yul\":12817:12818   */\n              0x01\n                /* \"#utility.yul\":12811:12815   */\n              dup3\n                /* \"#utility.yul\":12807:12819   */\n              and\n                /* \"#utility.yul\":12838:12856   */\n              dup1\n                /* \"#utility.yul\":12828:12909   */\n              tag_356\n              jumpi\n                /* \"#utility.yul\":12894:12898   */\n              0x7f\n                /* \"#utility.yul\":12886:12892   */\n              dup3\n                /* \"#utility.yul\":12882:12899   */\n              and\n                /* \"#utility.yul\":12872:12899   */\n              swap2\n              pop\n                /* \"#utility.yul\":12828:12909   */\n            tag_356:\n                /* \"#utility.yul\":12956:12958   */\n              0x20\n                /* \"#utility.yul\":12948:12954   */\n              dup3\n                /* \"#utility.yul\":12945:12959   */\n              lt\n                /* \"#utility.yul\":12925:12943   */\n              dup2\n                /* \"#utility.yul\":12922:12960   */\n              sub\n                /* \"#utility.yul\":12919:13003   */\n              tag_357\n              jumpi\n                /* \"#utility.yul\":12975:12993   */\n              tag_358\n              tag_220\n              jump\t// in\n            tag_358:\n                /* \"#utility.yul\":12919:13003   */\n            tag_357:\n                /* \"#utility.yul\":12740:13009   */\n              pop\n                /* \"#utility.yul\":12689:13009   */\n              swap2\n              swap1\n              pop\n              jump\t// out\n                /* \"#utility.yul\":13015:13195   */\n            tag_221:\n                /* \"#utility.yul\":13063:13140   */\n              0x4e487b7100000000000000000000000000000000000000000000000000000000\n                /* \"#utility.yul\":13060:13061   */\n              0x00\n                /* \"#utility.yul\":13053:13141   */\n              mstore\n                /* \"#utility.yul\":13160:13164   */\n              0x11\n                /* \"#utility.yul\":13157:13158   */\n              0x04\n                /* \"#utility.yul\":13150:13165   */\n              mstore\n                /* \"#utility.yul\":13184:13188   */\n              0x24\n                /* \"#utility.yul\":13181:13182   */\n              0x00\n                /* \"#utility.yul\":13174:13189   */\n              revert\n                /* \"#utility.yul\":13201:13434   */\n            tag_117:\n                /* \"#utility.yul\":13240:13243   */\n              0x00\n                /* \"#utility.yul\":13263:13287   */\n              tag_361\n                /* \"#utility.yul\":13281:13286   */\n              dup3\n                /* \"#utility.yul\":13263:13287   */\n              tag_181\n              jump\t// in\n            tag_361:\n                /* \"#utility.yul\":13254:13287   */\n              swap2\n              pop\n                /* \"#utility.yul\":13309:13375   */\n              0xffffffffffffffffffffffffffffffffffffffffffffffffffffffffffffffff\n                /* \"#utility.yul\":13302:13307   */\n              dup3\n                /* \"#utility.yul\":13299:13376   */\n              sub\n                /* \"#utility.yul\":13296:13399   */\n              tag_362\n              jumpi\n                /* \"#utility.yul\":13379:13397   */\n              tag_363\n              tag_221\n              jump\t// in\n            tag_363:\n                /* \"#utility.yul\":13296:13399   */\n            tag_362:\n                /* \"#utility.yul\":13426:13427   */\n              0x01\n                /* \"#utility.yul\":13419:13424   */\n              dup3\n                /* \"#utility.yul\":13415:13428   */\n              add\n                /* \"#utility.yul\":13408:13428   */\n              swap1\n              pop\n                /* \"#utility.yul\":13201:13434   */\n              swap2\n              swap1\n              pop\n              jump\t// out\n                /* \"#utility.yul\":13440:13588   */\n            tag_222:\n                /* \"#utility.yul\":13542:13553   */\n              0x00\n                /* \"#utility.yul\":13579:13582   */\n              dup2\n                /* \"#utility.yul\":13564:13582   */\n              swap1\n              pop\n                /* \"#utility.yul\":13440:13588   */\n              swap3\n              swap2\n              pop\n              pop\n              jump\t// out\n                /* \"#utility.yul\":13594:13971   */\n            tag_223:\n                /* \"#utility.yul\":13700:13703   */\n              0x00\n                /* \"#utility.yul\":13728:13767   */\n              tag_366\n                /* \"#utility.yul\":13761:13766   */\n              dup3\n                /* \"#utility.yul\":13728:13767   */\n              tag_183\n              jump\t// in\n            tag_366:\n                /* \"#utility.yul\":13783:13872   */\n              tag_367\n                /* \"#utility.yul\":13865:13871   */\n              dup2\n                /* \"#utility.yul\":13860:13863   */\n              dup6\n                /* \"#utility.yul\":13783:13872   */\n              tag_222\n              jump\t// in\n            tag_367:\n                /* \"#utility.yul\":13776:13872   */\n              swap4\n              pop\n                /* \"#utility.yul\":13881:13933   */\n              tag_368\n                /* \"#utility.yul\":13926:13932   */\n              dup2\n                /* \"#utility.yul\":13921:13924   */\n              dup6\n                /* \"#utility.yul\":13914:13918   */\n              0x20\n                /* \"#utility.yul\":13907:13912   */\n              dup7\n                /* \"#utility.yul\":13903:13919   */\n              add\n                /* \"#utility.yul\":13881:13933   */\n              tag_185\n              jump\t// in\n            tag_368:\n                /* \"#utility.yul\":13958:13964   */\n              dup1\n                /* \"#utility.yul\":13953:13956   */\n              dup5\n                /* \"#utility.yul\":13949:13965   */\n              add\n                /* \"#utility.yul\":13942:13965   */\n              swap2\n              pop\n                /* \"#utility.yul\":13704:13971   */\n              pop\n                /* \"#utility.yul\":13594:13971   */\n              swap3\n              swap2\n              pop\n              pop\n              jump\t// out\n                /* \"#utility.yul\":13977:14252   */\n            tag_142:\n                /* \"#utility.yul\":14109:14112   */\n              0x00\n                /* \"#utility.yul\":14131:14226   */\n              tag_370\n                /* \"#utility.yul\":14222:14225   */\n              dup3\n                /* \"#utility.yul\":14213:14219   */\n              dup5\n                /* \"#utility.yul\":14131:14226   */\n              tag_223\n              jump\t// in\n            tag_370:\n                /* \"#utility.yul\":14124:14226   */\n              swap2\n              pop\n                /* \"#utility.yul\":14243:14246   */\n              dup2\n                /* \"#utility.yul\":14236:14246   */\n              swap1\n              pop\n                /* \"#utility.yul\":13977:14252   */\n              swap3\n              swap2\n              pop\n              pop\n              jump\t// out\n                /* \"#utility.yul\":14258:14431   */\n            tag_224:\n                /* \"#utility.yul\":14398:14423   */\n              0x596f75206861766520616c726561647920566f74656421000000000000000000\n                /* \"#utility.yul\":14394:14395   */\n              0x00\n                /* \"#utility.yul\":14386:14392   */\n              dup3\n                /* \"#utility.yul\":14382:14396   */\n              add\n                /* \"#utility.yul\":14375:14424   */\n              mstore\n                /* \"#utility.yul\":14258:14431   */\n              pop\n              jump\t// out\n                /* \"#utility.yul\":14437:14803   */\n            tag_225:\n                /* \"#utility.yul\":14579:14582   */\n              0x00\n                /* \"#utility.yul\":14600:14667   */\n              tag_373\n                /* \"#utility.yul\":14664:14666   */\n              0x17\n                /* \"#utility.yul\":14659:14662   */\n              dup4\n                /* \"#utility.yul\":14600:14667   */\n              tag_184\n              jump\t// in\n            tag_373:\n                /* \"#utility.yul\":14593:14667   */\n              swap2\n              pop\n                /* \"#utility.yul\":14676:14769   */\n              tag_374\n                /* \"#utility.yul\":14765:14768   */\n              dup3\n                /* \"#utility.yul\":14676:14769   */\n              tag_224\n              jump\t// in\n            tag_374:\n                /* \"#utility.yul\":14794:14796   */\n              0x20\n                /* \"#utility.yul\":14789:14792   */\n              dup3\n                /* \"#utility.yul\":14785:14797   */\n              add\n                /* \"#utility.yul\":14778:14797   */\n              swap1\n              pop\n                /* \"#utility.yul\":14437:14803   */\n              swap2\n              swap1\n              pop\n              jump\t// out\n                /* \"#utility.yul\":14809:15228   */\n            tag_145:\n                /* \"#utility.yul\":14975:14979   */\n              0x00\n                /* \"#utility.yul\":15013:15015   */\n              0x20\n                /* \"#utility.yul\":15002:15011   */\n              dup3\n                /* \"#utility.yul\":14998:15016   */\n              add\n                /* \"#utility.yul\":14990:15016   */\n              swap1\n              pop\n                /* \"#utility.yul\":15062:15071   */\n              dup2\n                /* \"#utility.yul\":15056:15060   */\n              dup2\n                /* \"#utility.yul\":15052:15072   */\n              sub\n                /* \"#utility.yul\":15048:15049   */\n              0x00\n                /* \"#utility.yul\":15037:15046   */\n              dup4\n                /* \"#utility.yul\":15033:15050   */\n              add\n                /* \"#utility.yul\":15026:15073   */\n              mstore\n                /* \"#utility.yul\":15090:15221   */\n              tag_376\n                /* \"#utility.yul\":15216:15220   */\n              dup2\n                /* \"#utility.yul\":15090:15221   */\n              tag_225\n              jump\t// in\n            tag_376:\n                /* \"#utility.yul\":15082:15221   */\n              swap1\n              pop\n                /* \"#utility.yul\":14809:15228   */\n              swap2\n              swap1\n              pop\n              jump\t// out\n                /* \"#utility.yul\":15234:15409   */\n            tag_226:\n                /* \"#utility.yul\":15374:15401   */\n              0x53656e64206174206c6561737420302e35302065746865722100000000000000\n                /* \"#utility.yul\":15370:15371   */\n              0x00\n                /* \"#utility.yul\":15362:15368   */\n              dup3\n                /* \"#utility.yul\":15358:15372   */\n              add\n                /* \"#utility.yul\":15351:15402   */\n              mstore\n                /* \"#utility.yul\":15234:15409   */\n              pop\n              jump\t// out\n                /* \"#utility.yul\":15415:15781   */\n            tag_227:\n                /* \"#utility.yul\":15557:15560   */\n              0x00\n                /* \"#utility.yul\":15578:15645   */\n              tag_379\n                /* \"#utility.yul\":15642:15644   */\n              0x19\n                /* \"#utility.yul\":15637:15640   */\n              dup4\n                /* \"#utility.yul\":15578:15645   */\n              tag_184\n              jump\t// in\n            tag_379:\n                /* \"#utility.yul\":15571:15645   */\n              swap2\n              pop\n                /* \"#utility.yul\":15654:15747   */\n              tag_380\n                /* \"#utility.yul\":15743:15746   */\n              dup3\n                /* \"#utility.yul\":15654:15747   */\n              tag_226\n              jump\t// in\n            tag_380:\n                /* \"#utility.yul\":15772:15774   */\n              0x20\n                /* \"#utility.yul\":15767:15770   */\n              dup3\n                /* \"#utility.yul\":15763:15775   */\n              add\n                /* \"#utility.yul\":15756:15775   */\n              swap1\n              pop\n                /* \"#utility.yul\":15415:15781   */\n              swap2\n              swap1\n              pop\n              jump\t// out\n                /* \"#utility.yul\":15787:16206   */\n            tag_148:\n                /* \"#utility.yul\":15953:15957   */\n              0x00\n                /* \"#utility.yul\":15991:15993   */\n              0x20\n                /* \"#utility.yul\":15980:15989   */\n              dup3\n                /* \"#utility.yul\":15976:15994   */\n              add\n                /* \"#utility.yul\":15968:15994   */\n              swap1\n              pop\n                /* \"#utility.yul\":16040:16049   */\n              dup2\n                /* \"#utility.yul\":16034:16038   */\n              dup2\n                /* \"#utility.yul\":16030:16050   */\n              sub\n                /* \"#utility.yul\":16026:16027   */\n              0x00\n                /* \"#utility.yul\":16015:16024   */\n              dup4\n                /* \"#utility.yul\":16011:16028   */\n              add\n                /* \"#utility.yul\":16004:16051   */\n              mstore\n                /* \"#utility.yul\":16068:16199   */\n              tag_382\n                /* \"#utility.yul\":16194:16198   */\n              dup2\n                /* \"#utility.yul\":16068:16199   */\n              tag_227\n              jump\t// in\n            tag_382:\n                /* \"#utility.yul\":16060:16199   */\n              swap1\n              pop\n                /* \"#utility.yul\":15787:16206   */\n              swap2\n              swap1\n              pop\n              jump\t// out\n                /* \"#utility.yul\":16212:16392   */\n            tag_159:\n                /* \"#utility.yul\":16260:16337   */\n              0x4e487b7100000000000000000000000000000000000000000000000000000000\n                /* \"#utility.yul\":16257:16258   */\n              0x00\n                /* \"#utility.yul\":16250:16338   */\n              mstore\n                /* \"#utility.yul\":16357:16361   */\n              0x32\n                /* \"#utility.yul\":16354:16355   */\n              0x04\n                /* \"#utility.yul\":16347:16362   */\n              mstore\n                /* \"#utility.yul\":16381:16385   */\n              0x24\n                /* \"#utility.yul\":16378:16379   */\n              0x00\n                /* \"#utility.yul\":16371:16386   */\n              revert\n\n            auxdata: 0xa26469706673582212207e37d5cfa5f0ab37b3bcd6766d7c04cf16d69dc264ffd04de6310402d676e24e64736f6c634300080d0033\n        }\n    }\n\n    auxdata: 0xa2646970667358221220c20cb1be7c66656f15916037f8eb9115d1e58fb902f607a20a5d670861eff88564736f6c634300080d0033\n}\n","bytecode":{"linkReferences":{},"object":"608060405234801561001057600080fd5b5061263d806100206000396000f3fe60806040523480156200001157600080fd5b5060043610620000465760003560e01c806305634063146200004b5780639b935abf146200006b578063cdf74c3e146200008d575b600080fd5b620000696004803603810190620000639190620003c6565b620000c3565b005b6200007562000172565b604051620000849190620005fc565b60405180910390f35b620000ab6004803603810190620000a591906200065b565b62000202565b604051620000ba91906200069e565b60405180910390f35b60008433858585604051620000d89062000242565b620000e895949392919062000773565b604051809103906000f08015801562000105573d6000803e3d6000fd5b5090506000819080600181540180825580915050600190039060005260206000200160009091909190916101000a81548173ffffffffffffffffffffffffffffffffffffffff021916908373ffffffffffffffffffffffffffffffffffffffff1602179055505050505050565b60606000805480602002602001604051908101604052809291908181526020018280548015620001f857602002820191906000526020600020905b8160009054906101000a900473ffffffffffffffffffffffffffffffffffffffff1673ffffffffffffffffffffffffffffffffffffffff1681526020019060010190808311620001ad575b5050505050905090565b600081815481106200021357600080fd5b906000526020600020016000915054906101000a900473ffffffffffffffffffffffffffffffffffffffff1681565b611e1b80620007ed83390190565b6000604051905090565b600080fd5b600080fd5b600080fd5b600080fd5b6000601f19601f8301169050919050565b7f4e487b7100000000000000000000000000000000000000000000000000000000600052604160045260246000fd5b620002b9826200026e565b810181811067ffffffffffffffff82111715620002db57620002da6200027f565b5b80604052505050565b6000620002f062000250565b9050620002fe8282620002ae565b919050565b600067ffffffffffffffff8211156200032157620003206200027f565b5b6200032c826200026e565b9050602081019050919050565b82818337600083830152505050565b60006200035f620003598462000303565b620002e4565b9050828152602081018484840111156200037e576200037d62000269565b5b6200038b84828562000339565b509392505050565b600082601f830112620003ab57620003aa62000264565b5b8135620003bd84826020860162000348565b91505092915050565b60008060008060808587031215620003e357620003e26200025a565b5b600085013567ffffffffffffffff8111156200040457620004036200025f565b5b620004128782880162000393565b945050602085013567ffffffffffffffff8111156200043657620004356200025f565b5b620004448782880162000393565b935050604085013567ffffffffffffffff8111156200046857620004676200025f565b5b620004768782880162000393565b925050606085013567ffffffffffffffff8111156200049a57620004996200025f565b5b620004a88782880162000393565b91505092959194509250565b600081519050919050565b600082825260208201905092915050565b6000819050602082019050919050565b600073ffffffffffffffffffffffffffffffffffffffff82169050919050565b6000819050919050565b60006200052b620005256200051f84620004e0565b62000500565b620004e0565b9050919050565b60006200053f826200050a565b9050919050565b6000620005538262000532565b9050919050565b620005658162000546565b82525050565b60006200057983836200055a565b60208301905092915050565b6000602082019050919050565b60006200059f82620004b4565b620005ab8185620004bf565b9350620005b883620004d0565b8060005b83811015620005ef578151620005d388826200056b565b9750620005e08362000585565b925050600181019050620005bc565b5085935050505092915050565b6000602082019050818103600083015262000618818462000592565b905092915050565b6000819050919050565b620006358162000620565b81146200064157600080fd5b50565b60008135905062000655816200062a565b92915050565b6000602082840312156200067457620006736200025a565b5b6000620006848482850162000644565b91505092915050565b620006988162000546565b82525050565b6000602082019050620006b560008301846200068d565b92915050565b600081519050919050565b600082825260208201905092915050565b60005b83811015620006f7578082015181840152602081019050620006da565b8381111562000707576000848401525b50505050565b60006200071a82620006bb565b620007268185620006c6565b935062000738818560208601620006d7565b62000743816200026e565b840191505092915050565b60006200075b82620004e0565b9050919050565b6200076d816200074e565b82525050565b600060a08201905081810360008301526200078f81886200070d565b9050620007a0602083018762000762565b8181036040830152620007b481866200070d565b90508181036060830152620007ca81856200070d565b90508181036080830152620007e081846200070d565b9050969550505050505056fe60806040526000600260006101000a81548160ff0219169083151502179055506000600260016101000a81548160ff0219169083151502179055503480156200004757600080fd5b5060405162001e1b38038062001e1b83398181016040528101906200006d9190620003e2565b84600360000190805190602001906200008892919062000130565b5083600360010160006101000a81548173ffffffffffffffffffffffffffffffffffffffff021916908373ffffffffffffffffffffffffffffffffffffffff1602179055508260036002019080519060200190620000e892919062000130565b506000600380018190555081600090805190602001906200010b92919062000130565b5080600190805190602001906200012492919062000130565b5050505050506200054a565b8280546200013e9062000515565b90600052602060002090601f016020900481019282620001625760008555620001ae565b82601f106200017d57805160ff1916838001178555620001ae565b82800160010185558215620001ae579182015b82811115620001ad57825182559160200191906001019062000190565b5b509050620001bd9190620001c1565b5090565b5b80821115620001dc576000816000905550600101620001c2565b5090565b6000604051905090565b600080fd5b600080fd5b600080fd5b600080fd5b6000601f19601f8301169050919050565b7f4e487b7100000000000000000000000000000000000000000000000000000000600052604160045260246000fd5b6200024982620001fe565b810181811067ffffffffffffffff821117156200026b576200026a6200020f565b5b80604052505050565b600062000280620001e0565b90506200028e82826200023e565b919050565b600067ffffffffffffffff821115620002b157620002b06200020f565b5b620002bc82620001fe565b9050602081019050919050565b60005b83811015620002e9578082015181840152602081019050620002cc565b83811115620002f9576000848401525b50505050565b600062000316620003108462000293565b62000274565b905082815260208101848484011115620003355762000334620001f9565b5b62000342848285620002c9565b509392505050565b600082601f830112620003625762000361620001f4565b5b815162000374848260208601620002ff565b91505092915050565b600073ffffffffffffffffffffffffffffffffffffffff82169050919050565b6000620003aa826200037d565b9050919050565b620003bc816200039d565b8114620003c857600080fd5b50565b600081519050620003dc81620003b1565b92915050565b600080600080600060a08688031215620004015762000400620001ea565b5b600086015167ffffffffffffffff811115620004225762000421620001ef565b5b62000430888289016200034a565b95505060206200044388828901620003cb565b945050604086015167ffffffffffffffff811115620004675762000466620001ef565b5b62000475888289016200034a565b935050606086015167ffffffffffffffff811115620004995762000498620001ef565b5b620004a7888289016200034a565b925050608086015167ffffffffffffffff811115620004cb57620004ca620001ef565b5b620004d9888289016200034a565b9150509295509295909350565b7f4e487b7100000000000000000000000000000000000000000000000000000000600052602260045260246000fd5b600060028204905060018216806200052e57607f821691505b602082108103620005445762000543620004e6565b5b50919050565b6118c1806200055a6000396000f3fe6080604052600436106100c25760003560e01c80635aa68ac01161007f578063789d9e8a11610059578063789d9e8a1461025157806383d948b71461027c5780639c3bfcf6146102a7578063f9094303146102c3576100c2565b80635aa68ac0146101be57806367f9dd43146101e95780637284e41614610226576100c2565b806316d8cb70146100c75780631b26586c146100f25780631ec6b60a1461011d57806335c1d34914610134578063481c6a75146101745780634901d7ae146101a2575b600080fd5b3480156100d357600080fd5b506100dc6102da565b6040516100e99190611062565b60405180910390f35b3480156100fe57600080fd5b506101076102e0565b6040516101149190611116565b60405180910390f35b34801561012957600080fd5b5061013261036e565b005b34801561014057600080fd5b5061015b60048036038101906101569190611178565b6103e8565b60405161016b94939291906111e6565b60405180910390f35b34801561018057600080fd5b50610189610558565b60405161019994939291906111e6565b60405180910390f35b6101bc60048036038101906101b7919061139a565b6106a6565b005b3480156101ca57600080fd5b506101d361084b565b6040516101e091906115b9565b60405180910390f35b3480156101f557600080fd5b50610210600480360381019061020b91906115db565b610a2e565b60405161021d919061163f565b60405180910390f35b34801561023257600080fd5b5061023b610a64565b6040516102489190611116565b60405180910390f35b34801561025d57600080fd5b50610266610af2565b604051610273919061163f565b60405180910390f35b34801561028857600080fd5b50610291610b05565b60405161029e919061163f565b60405180910390f35b6102c160048036038101906102bc919061139a565b610b18565b005b3480156102cf57600080fd5b506102d8610e9a565b005b60095481565b600080546102ed90611689565b80601f016020809104026020016040519081016040528092919081815260200182805461031990611689565b80156103665780601f1061033b57610100808354040283529160200191610366565b820191906000526020600020905b81548152906001019060200180831161034957829003601f168201915b505050505081565b600360010160009054906101000a900473ffffffffffffffffffffffffffffffffffffffff1673ffffffffffffffffffffffffffffffffffffffff163373ffffffffffffffffffffffffffffffffffffffff16146103cb57600080fd5b6001600260006101000a81548160ff021916908315150217905550565b600881815481106103f857600080fd5b906000526020600020906004020160009150905080600001805461041b90611689565b80601f016020809104026020016040519081016040528092919081815260200182805461044790611689565b80156104945780601f1061046957610100808354040283529160200191610494565b820191906000526020600020905b81548152906001019060200180831161047757829003601f168201915b5050505050908060010160009054906101000a900473ffffffffffffffffffffffffffffffffffffffff16908060020180546104cf90611689565b80601f01602080910402602001604051908101604052809291908181526020018280546104fb90611689565b80156105485780601f1061051d57610100808354040283529160200191610548565b820191906000526020600020905b81548152906001019060200180831161052b57829003601f168201915b5050505050908060030154905084565b600380600001805461056990611689565b80601f016020809104026020016040519081016040528092919081815260200182805461059590611689565b80156105e25780601f106105b7576101008083540402835291602001916105e2565b820191906000526020600020905b8154815290600101906020018083116105c557829003601f168201915b5050505050908060010160009054906101000a900473ffffffffffffffffffffffffffffffffffffffff169080600201805461061d90611689565b80601f016020809104026020016040519081016040528092919081815260200182805461064990611689565b80156106965780601f1061066b57610100808354040283529160200191610696565b820191906000526020600020905b81548152906001019060200180831161067957829003601f168201915b5050505050908060030154905084565b600360010160009054906101000a900473ffffffffffffffffffffffffffffffffffffffff1673ffffffffffffffffffffffffffffffffffffffff163373ffffffffffffffffffffffffffffffffffffffff161461070357600080fd5b67013fbe85edc90000341161071757600080fd5b61071f610f14565b83816000018190525082816020019073ffffffffffffffffffffffffffffffffffffffff16908173ffffffffffffffffffffffffffffffffffffffff16815250508181604001819052506000816060018181525050600881908060018154018082558091505060019003906000526020600020906004020160009091909190915060008201518160000190805190602001906107bc929190610f52565b5060208201518160010160006101000a81548173ffffffffffffffffffffffffffffffffffffffff021916908373ffffffffffffffffffffffffffffffffffffffff1602179055506040820151816002019080519060200190610820929190610f52565b5060608201518160030155505060076000815480929190610840906116e9565b919050555050505050565b60606008805480602002602001604051908101604052809291908181526020016000905b82821015610a2557838290600052602060002090600402016040518060800160405290816000820180546108a290611689565b80601f01602080910402602001604051908101604052809291908181526020018280546108ce90611689565b801561091b5780601f106108f05761010080835404028352916020019161091b565b820191906000526020600020905b8154815290600101906020018083116108fe57829003601f168201915b505050505081526020016001820160009054906101000a900473ffffffffffffffffffffffffffffffffffffffff1673ffffffffffffffffffffffffffffffffffffffff1673ffffffffffffffffffffffffffffffffffffffff16815260200160028201805461098a90611689565b80601f01602080910402602001604051908101604052809291908181526020018280546109b690611689565b8015610a035780601f106109d857610100808354040283529160200191610a03565b820191906000526020600020905b8154815290600101906020018083116109e657829003601f168201915b505050505081526020016003820154815250508152602001906001019061086f565b50505050905090565b600b818051602081018201805184825260208301602085012081835280955050505050506000915054906101000a900460ff1681565b60018054610a7190611689565b80601f0160208091040260200160405190810160405280929190818152602001828054610a9d90611689565b8015610aea5780601f10610abf57610100808354040283529160200191610aea565b820191906000526020600020905b815481529060010190602001808311610acd57829003601f168201915b505050505081565b600260019054906101000a900460ff1681565b600260009054906101000a900460ff1681565b600260009054906101000a900460ff168015610b415750600260019054906101000a900460ff16155b610b4a57600080fd5b600b81604051610b5a919061176d565b908152602001604051809103902060009054906101000a900460ff1615610bb6576040517f08c379a0000000000000000000000000000000000000000000000000000000008152600401610bad906117d0565b60405180910390fd5b6706f05b59d3b20000341015610c01576040517f08c379a0000000000000000000000000000000000000000000000000000000008152600401610bf89061183c565b60405180910390fd5b610c09610fd8565b83816040018190525033816000019073ffffffffffffffffffffffffffffffffffffffff16908173ffffffffffffffffffffffffffffffffffffffff168152505081816020018190525082816060019073ffffffffffffffffffffffffffffffffffffffff16908173ffffffffffffffffffffffffffffffffffffffff1681525050600a81908060018154018082558091505060019003906000526020600020906004020160009091909190915060008201518160000160006101000a81548173ffffffffffffffffffffffffffffffffffffffff021916908373ffffffffffffffffffffffffffffffffffffffff1602179055506020820151816001019080519060200190610d1a929190610f52565b506040820151816002019080519060200190610d37929190610f52565b5060608201518160030160006101000a81548173ffffffffffffffffffffffffffffffffffffffff021916908373ffffffffffffffffffffffffffffffffffffffff160217905550505060005b600880549050811015610e5c578373ffffffffffffffffffffffffffffffffffffffff1660088281548110610dbc57610dbb61185c565b5b906000526020600020906004020160010160009054906101000a900473ffffffffffffffffffffffffffffffffffffffff1673ffffffffffffffffffffffffffffffffffffffff1603610e495760088181548110610e1d57610e1c61185c565b5b90600052602060002090600402016003016000815480929190610e3f906116e9565b9190505550610e5c565b8080610e54906116e9565b915050610d84565b506001600b83604051610e6f919061176d565b908152602001604051809103902060006101000a81548160ff02191690831515021790555050505050565b600360010160009054906101000a900473ffffffffffffffffffffffffffffffffffffffff1673ffffffffffffffffffffffffffffffffffffffff163373ffffffffffffffffffffffffffffffffffffffff1614610ef757600080fd5b6001600260016101000a81548160ff021916908315150217905550565b604051806080016040528060608152602001600073ffffffffffffffffffffffffffffffffffffffff16815260200160608152602001600081525090565b828054610f5e90611689565b90600052602060002090601f016020900481019282610f805760008555610fc7565b82601f10610f9957805160ff1916838001178555610fc7565b82800160010185558215610fc7579182015b82811115610fc6578251825591602001919060010190610fab565b5b509050610fd4919061102c565b5090565b6040518060800160405280600073ffffffffffffffffffffffffffffffffffffffff1681526020016060815260200160608152602001600073ffffffffffffffffffffffffffffffffffffffff1681525090565b5b8082111561104557600081600090555060010161102d565b5090565b6000819050919050565b61105c81611049565b82525050565b60006020820190506110776000830184611053565b92915050565b600081519050919050565b600082825260208201905092915050565b60005b838110156110b757808201518184015260208101905061109c565b838111156110c6576000848401525b50505050565b6000601f19601f8301169050919050565b60006110e88261107d565b6110f28185611088565b9350611102818560208601611099565b61110b816110cc565b840191505092915050565b6000602082019050818103600083015261113081846110dd565b905092915050565b6000604051905090565b600080fd5b600080fd5b61115581611049565b811461116057600080fd5b50565b6000813590506111728161114c565b92915050565b60006020828403121561118e5761118d611142565b5b600061119c84828501611163565b91505092915050565b600073ffffffffffffffffffffffffffffffffffffffff82169050919050565b60006111d0826111a5565b9050919050565b6111e0816111c5565b82525050565b6000608082019050818103600083015261120081876110dd565b905061120f60208301866111d7565b818103604083015261122181856110dd565b90506112306060830184611053565b95945050505050565b600080fd5b600080fd5b7f4e487b7100000000000000000000000000000000000000000000000000000000600052604160045260246000fd5b61127b826110cc565b810181811067ffffffffffffffff8211171561129a57611299611243565b5b80604052505050565b60006112ad611138565b90506112b98282611272565b919050565b600067ffffffffffffffff8211156112d9576112d8611243565b5b6112e2826110cc565b9050602081019050919050565b82818337600083830152505050565b600061131161130c846112be565b6112a3565b90508281526020810184848401111561132d5761132c61123e565b5b6113388482856112ef565b509392505050565b600082601f83011261135557611354611239565b5b81356113658482602086016112fe565b91505092915050565b611377816111c5565b811461138257600080fd5b50565b6000813590506113948161136e565b92915050565b6000806000606084860312156113b3576113b2611142565b5b600084013567ffffffffffffffff8111156113d1576113d0611147565b5b6113dd86828701611340565b93505060206113ee86828701611385565b925050604084013567ffffffffffffffff81111561140f5761140e611147565b5b61141b86828701611340565b9150509250925092565b600081519050919050565b600082825260208201905092915050565b6000819050602082019050919050565b600082825260208201905092915050565b600061146d8261107d565b6114778185611451565b9350611487818560208601611099565b611490816110cc565b840191505092915050565b6114a4816111c5565b82525050565b6114b381611049565b82525050565b600060808301600083015184820360008601526114d68282611462565b91505060208301516114eb602086018261149b565b50604083015184820360408601526115038282611462565b915050606083015161151860608601826114aa565b508091505092915050565b600061152f83836114b9565b905092915050565b6000602082019050919050565b600061154f82611425565b6115598185611430565b93508360208202850161156b85611441565b8060005b858110156115a757848403895281516115888582611523565b945061159383611537565b925060208a0199505060018101905061156f565b50829750879550505050505092915050565b600060208201905081810360008301526115d38184611544565b905092915050565b6000602082840312156115f1576115f0611142565b5b600082013567ffffffffffffffff81111561160f5761160e611147565b5b61161b84828501611340565b91505092915050565b60008115159050919050565b61163981611624565b82525050565b60006020820190506116546000830184611630565b92915050565b7f4e487b7100000000000000000000000000000000000000000000000000000000600052602260045260246000fd5b600060028204905060018216806116a157607f821691505b6020821081036116b4576116b361165a565b5b50919050565b7f4e487b7100000000000000000000000000000000000000000000000000000000600052601160045260246000fd5b60006116f482611049565b91507fffffffffffffffffffffffffffffffffffffffffffffffffffffffffffffffff8203611726576117256116ba565b5b600182019050919050565b600081905092915050565b60006117478261107d565b6117518185611731565b9350611761818560208601611099565b80840191505092915050565b6000611779828461173c565b915081905092915050565b7f596f75206861766520616c726561647920566f74656421000000000000000000600082015250565b60006117ba601783611088565b91506117c582611784565b602082019050919050565b600060208201905081810360008301526117e9816117ad565b9050919050565b7f53656e64206174206c6561737420302e35302065746865722100000000000000600082015250565b6000611826601983611088565b9150611831826117f0565b602082019050919050565b6000602082019050818103600083015261185581611819565b9050919050565b7f4e487b7100000000000000000000000000000000000000000000000000000000600052603260045260246000fdfea26469706673582212207e37d5cfa5f0ab37b3bcd6766d7c04cf16d69dc264ffd04de6310402d676e24e64736f6c634300080d0033a2646970667358221220c20cb1be7c66656f15916037f8eb9115d1e58fb902f607a20a5d670861eff88564736f6c634300080d0033","opcodes":"PUSH1 0x80 PUSH1 0x40 MSTORE CALLVALUE DUP1 ISZERO PUSH2 0x10 JUMPI PUSH1 0x0 DUP1 REVERT JUMPDEST POP PUSH2 0x263D DUP1 PUSH2 0x20 PUSH1 0x0 CODECOPY PUSH1 0x0 RETURN INVALID PUSH1 0x80 PUSH1 0x40 MSTORE CALLVALUE DUP1 ISZERO PUSH3 0x11 JUMPI PUSH1 0x0 DUP1 REVERT JUMPDEST POP PUSH1 0x4 CALLDATASIZE LT PUSH3 0x46 JUMPI PUSH1 0x0 CALLDATALOAD PUSH1 0xE0 SHR DUP1 PUSH4 0x5634063 EQ PUSH3 0x4B JUMPI DUP1 PUSH4 0x9B935ABF EQ PUSH3 0x6B JUMPI DUP1 PUSH4 0xCDF74C3E EQ PUSH3 0x8D JUMPI JUMPDEST PUSH1 0x0 DUP1 REVERT JUMPDEST PUSH3 0x69 PUSH1 0x4 DUP1 CALLDATASIZE SUB DUP2 ADD SWAP1 PUSH3 0x63 SWAP2 SWAP1 PUSH3 0x3C6 JUMP JUMPDEST PUSH3 0xC3 JUMP JUMPDEST STOP JUMPDEST PUSH3 0x75 PUSH3 0x172 JUMP JUMPDEST PUSH1 0x40 MLOAD PUSH3 0x84 SWAP2 SWAP1 PUSH3 0x5FC JUMP JUMPDEST PUSH1 0x40 MLOAD DUP1 SWAP2 SUB SWAP1 RETURN JUMPDEST PUSH3 0xAB PUSH1 0x4 DUP1 CALLDATASIZE SUB DUP2 ADD SWAP1 PUSH3 0xA5 SWAP2 SWAP1 PUSH3 0x65B JUMP JUMPDEST PUSH3 0x202 JUMP JUMPDEST PUSH1 0x40 MLOAD PUSH3 0xBA SWAP2 SWAP1 PUSH3 0x69E JUMP JUMPDEST PUSH1 0x40 MLOAD DUP1 SWAP2 SUB SWAP1 RETURN JUMPDEST PUSH1 0x0 DUP5 CALLER DUP6 DUP6 DUP6 PUSH1 0x40 MLOAD PUSH3 0xD8 SWAP1 PUSH3 0x242 JUMP JUMPDEST PUSH3 0xE8 SWAP6 SWAP5 SWAP4 SWAP3 SWAP2 SWAP1 PUSH3 0x773 JUMP JUMPDEST PUSH1 0x40 MLOAD DUP1 SWAP2 SUB SWAP1 PUSH1 0x0 CREATE DUP1 ISZERO DUP1 ISZERO PUSH3 0x105 JUMPI RETURNDATASIZE PUSH1 0x0 DUP1 RETURNDATACOPY RETURNDATASIZE PUSH1 0x0 REVERT JUMPDEST POP SWAP1 POP PUSH1 0x0 DUP2 SWAP1 DUP1 PUSH1 0x1 DUP2 SLOAD ADD DUP1 DUP3 SSTORE DUP1 SWAP2 POP POP PUSH1 0x1 SWAP1 SUB SWAP1 PUSH1 0x0 MSTORE PUSH1 0x20 PUSH1 0x0 KECCAK256 ADD PUSH1 0x0 SWAP1 SWAP2 SWAP1 SWAP2 SWAP1 SWAP2 PUSH2 0x100 EXP DUP2 SLOAD DUP2 PUSH20 0xFFFFFFFFFFFFFFFFFFFFFFFFFFFFFFFFFFFFFFFF MUL NOT AND SWAP1 DUP4 PUSH20 0xFFFFFFFFFFFFFFFFFFFFFFFFFFFFFFFFFFFFFFFF AND MUL OR SWAP1 SSTORE POP POP POP POP POP POP JUMP JUMPDEST PUSH1 0x60 PUSH1 0x0 DUP1 SLOAD DUP1 PUSH1 0x20 MUL PUSH1 0x20 ADD PUSH1 0x40 MLOAD SWAP1 DUP2 ADD PUSH1 0x40 MSTORE DUP1 SWAP3 SWAP2 SWAP1 DUP2 DUP2 MSTORE PUSH1 0x20 ADD DUP3 DUP1 SLOAD DUP1 ISZERO PUSH3 0x1F8 JUMPI PUSH1 0x20 MUL DUP3 ADD SWAP2 SWAP1 PUSH1 0x0 MSTORE PUSH1 0x20 PUSH1 0x0 KECCAK256 SWAP1 JUMPDEST DUP2 PUSH1 0x0 SWAP1 SLOAD SWAP1 PUSH2 0x100 EXP SWAP1 DIV PUSH20 0xFFFFFFFFFFFFFFFFFFFFFFFFFFFFFFFFFFFFFFFF AND PUSH20 0xFFFFFFFFFFFFFFFFFFFFFFFFFFFFFFFFFFFFFFFF AND DUP2 MSTORE PUSH1 0x20 ADD SWAP1 PUSH1 0x1 ADD SWAP1 DUP1 DUP4 GT PUSH3 0x1AD JUMPI JUMPDEST POP POP POP POP POP SWAP1 POP SWAP1 JUMP JUMPDEST PUSH1 0x0 DUP2 DUP2 SLOAD DUP2 LT PUSH3 0x213 JUMPI PUSH1 0x0 DUP1 REVERT JUMPDEST SWAP1 PUSH1 0x0 MSTORE PUSH1 0x20 PUSH1 0x0 KECCAK256 ADD PUSH1 0x0 SWAP2 POP SLOAD SWAP1 PUSH2 0x100 EXP SWAP1 DIV PUSH20 0xFFFFFFFFFFFFFFFFFFFFFFFFFFFFFFFFFFFFFFFF AND DUP2 JUMP JUMPDEST PUSH2 0x1E1B DUP1 PUSH3 0x7ED DUP4 CODECOPY ADD SWAP1 JUMP JUMPDEST PUSH1 0x0 PUSH1 0x40 MLOAD SWAP1 POP SWAP1 JUMP JUMPDEST PUSH1 0x0 DUP1 REVERT JUMPDEST PUSH1 0x0 DUP1 REVERT JUMPDEST PUSH1 0x0 DUP1 REVERT JUMPDEST PUSH1 0x0 DUP1 REVERT JUMPDEST PUSH1 0x0 PUSH1 0x1F NOT PUSH1 0x1F DUP4 ADD AND SWAP1 POP SWAP2 SWAP1 POP JUMP JUMPDEST PUSH32 0x4E487B7100000000000000000000000000000000000000000000000000000000 PUSH1 0x0 MSTORE PUSH1 0x41 PUSH1 0x4 MSTORE PUSH1 0x24 PUSH1 0x0 REVERT JUMPDEST PUSH3 0x2B9 DUP3 PUSH3 0x26E JUMP JUMPDEST DUP2 ADD DUP2 DUP2 LT PUSH8 0xFFFFFFFFFFFFFFFF DUP3 GT OR ISZERO PUSH3 0x2DB JUMPI PUSH3 0x2DA PUSH3 0x27F JUMP JUMPDEST JUMPDEST DUP1 PUSH1 0x40 MSTORE POP POP POP JUMP JUMPDEST PUSH1 0x0 PUSH3 0x2F0 PUSH3 0x250 JUMP JUMPDEST SWAP1 POP PUSH3 0x2FE DUP3 DUP3 PUSH3 0x2AE JUMP JUMPDEST SWAP2 SWAP1 POP JUMP JUMPDEST PUSH1 0x0 PUSH8 0xFFFFFFFFFFFFFFFF DUP3 GT ISZERO PUSH3 0x321 JUMPI PUSH3 0x320 PUSH3 0x27F JUMP JUMPDEST JUMPDEST PUSH3 0x32C DUP3 PUSH3 0x26E JUMP JUMPDEST SWAP1 POP PUSH1 0x20 DUP2 ADD SWAP1 POP SWAP2 SWAP1 POP JUMP JUMPDEST DUP3 DUP2 DUP4 CALLDATACOPY PUSH1 0x0 DUP4 DUP4 ADD MSTORE POP POP POP JUMP JUMPDEST PUSH1 0x0 PUSH3 0x35F PUSH3 0x359 DUP5 PUSH3 0x303 JUMP JUMPDEST PUSH3 0x2E4 JUMP JUMPDEST SWAP1 POP DUP3 DUP2 MSTORE PUSH1 0x20 DUP2 ADD DUP5 DUP5 DUP5 ADD GT ISZERO PUSH3 0x37E JUMPI PUSH3 0x37D PUSH3 0x269 JUMP JUMPDEST JUMPDEST PUSH3 0x38B DUP5 DUP3 DUP6 PUSH3 0x339 JUMP JUMPDEST POP SWAP4 SWAP3 POP POP POP JUMP JUMPDEST PUSH1 0x0 DUP3 PUSH1 0x1F DUP4 ADD SLT PUSH3 0x3AB JUMPI PUSH3 0x3AA PUSH3 0x264 JUMP JUMPDEST JUMPDEST DUP2 CALLDATALOAD PUSH3 0x3BD DUP5 DUP3 PUSH1 0x20 DUP7 ADD PUSH3 0x348 JUMP JUMPDEST SWAP2 POP POP SWAP3 SWAP2 POP POP JUMP JUMPDEST PUSH1 0x0 DUP1 PUSH1 0x0 DUP1 PUSH1 0x80 DUP6 DUP8 SUB SLT ISZERO PUSH3 0x3E3 JUMPI PUSH3 0x3E2 PUSH3 0x25A JUMP JUMPDEST JUMPDEST PUSH1 0x0 DUP6 ADD CALLDATALOAD PUSH8 0xFFFFFFFFFFFFFFFF DUP2 GT ISZERO PUSH3 0x404 JUMPI PUSH3 0x403 PUSH3 0x25F JUMP JUMPDEST JUMPDEST PUSH3 0x412 DUP8 DUP3 DUP9 ADD PUSH3 0x393 JUMP JUMPDEST SWAP5 POP POP PUSH1 0x20 DUP6 ADD CALLDATALOAD PUSH8 0xFFFFFFFFFFFFFFFF DUP2 GT ISZERO PUSH3 0x436 JUMPI PUSH3 0x435 PUSH3 0x25F JUMP JUMPDEST JUMPDEST PUSH3 0x444 DUP8 DUP3 DUP9 ADD PUSH3 0x393 JUMP JUMPDEST SWAP4 POP POP PUSH1 0x40 DUP6 ADD CALLDATALOAD PUSH8 0xFFFFFFFFFFFFFFFF DUP2 GT ISZERO PUSH3 0x468 JUMPI PUSH3 0x467 PUSH3 0x25F JUMP JUMPDEST JUMPDEST PUSH3 0x476 DUP8 DUP3 DUP9 ADD PUSH3 0x393 JUMP JUMPDEST SWAP3 POP POP PUSH1 0x60 DUP6 ADD CALLDATALOAD PUSH8 0xFFFFFFFFFFFFFFFF DUP2 GT ISZERO PUSH3 0x49A JUMPI PUSH3 0x499 PUSH3 0x25F JUMP JUMPDEST JUMPDEST PUSH3 0x4A8 DUP8 DUP3 DUP9 ADD PUSH3 0x393 JUMP JUMPDEST SWAP2 POP POP SWAP3 SWAP6 SWAP2 SWAP5 POP SWAP3 POP JUMP JUMPDEST PUSH1 0x0 DUP2 MLOAD SWAP1 POP SWAP2 SWAP1 POP JUMP JUMPDEST PUSH1 0x0 DUP3 DUP3 MSTORE PUSH1 0x20 DUP3 ADD SWAP1 POP SWAP3 SWAP2 POP POP JUMP JUMPDEST PUSH1 0x0 DUP2 SWAP1 POP PUSH1 0x20 DUP3 ADD SWAP1 POP SWAP2 SWAP1 POP JUMP JUMPDEST PUSH1 0x0 PUSH20 0xFFFFFFFFFFFFFFFFFFFFFFFFFFFFFFFFFFFFFFFF DUP3 AND SWAP1 POP SWAP2 SWAP1 POP JUMP JUMPDEST PUSH1 0x0 DUP2 SWAP1 POP SWAP2 SWAP1 POP JUMP JUMPDEST PUSH1 0x0 PUSH3 0x52B PUSH3 0x525 PUSH3 0x51F DUP5 PUSH3 0x4E0 JUMP JUMPDEST PUSH3 0x500 JUMP JUMPDEST PUSH3 0x4E0 JUMP JUMPDEST SWAP1 POP SWAP2 SWAP1 POP JUMP JUMPDEST PUSH1 0x0 PUSH3 0x53F DUP3 PUSH3 0x50A JUMP JUMPDEST SWAP1 POP SWAP2 SWAP1 POP JUMP JUMPDEST PUSH1 0x0 PUSH3 0x553 DUP3 PUSH3 0x532 JUMP JUMPDEST SWAP1 POP SWAP2 SWAP1 POP JUMP JUMPDEST PUSH3 0x565 DUP2 PUSH3 0x546 JUMP JUMPDEST DUP3 MSTORE POP POP JUMP JUMPDEST PUSH1 0x0 PUSH3 0x579 DUP4 DUP4 PUSH3 0x55A JUMP JUMPDEST PUSH1 0x20 DUP4 ADD SWAP1 POP SWAP3 SWAP2 POP POP JUMP JUMPDEST PUSH1 0x0 PUSH1 0x20 DUP3 ADD SWAP1 POP SWAP2 SWAP1 POP JUMP JUMPDEST PUSH1 0x0 PUSH3 0x59F DUP3 PUSH3 0x4B4 JUMP JUMPDEST PUSH3 0x5AB DUP2 DUP6 PUSH3 0x4BF JUMP JUMPDEST SWAP4 POP PUSH3 0x5B8 DUP4 PUSH3 0x4D0 JUMP JUMPDEST DUP1 PUSH1 0x0 JUMPDEST DUP4 DUP2 LT ISZERO PUSH3 0x5EF JUMPI DUP2 MLOAD PUSH3 0x5D3 DUP9 DUP3 PUSH3 0x56B JUMP JUMPDEST SWAP8 POP PUSH3 0x5E0 DUP4 PUSH3 0x585 JUMP JUMPDEST SWAP3 POP POP PUSH1 0x1 DUP2 ADD SWAP1 POP PUSH3 0x5BC JUMP JUMPDEST POP DUP6 SWAP4 POP POP POP POP SWAP3 SWAP2 POP POP JUMP JUMPDEST PUSH1 0x0 PUSH1 0x20 DUP3 ADD SWAP1 POP DUP2 DUP2 SUB PUSH1 0x0 DUP4 ADD MSTORE PUSH3 0x618 DUP2 DUP5 PUSH3 0x592 JUMP JUMPDEST SWAP1 POP SWAP3 SWAP2 POP POP JUMP JUMPDEST PUSH1 0x0 DUP2 SWAP1 POP SWAP2 SWAP1 POP JUMP JUMPDEST PUSH3 0x635 DUP2 PUSH3 0x620 JUMP JUMPDEST DUP2 EQ PUSH3 0x641 JUMPI PUSH1 0x0 DUP1 REVERT JUMPDEST POP JUMP JUMPDEST PUSH1 0x0 DUP2 CALLDATALOAD SWAP1 POP PUSH3 0x655 DUP2 PUSH3 0x62A JUMP JUMPDEST SWAP3 SWAP2 POP POP JUMP JUMPDEST PUSH1 0x0 PUSH1 0x20 DUP3 DUP5 SUB SLT ISZERO PUSH3 0x674 JUMPI PUSH3 0x673 PUSH3 0x25A JUMP JUMPDEST JUMPDEST PUSH1 0x0 PUSH3 0x684 DUP5 DUP3 DUP6 ADD PUSH3 0x644 JUMP JUMPDEST SWAP2 POP POP SWAP3 SWAP2 POP POP JUMP JUMPDEST PUSH3 0x698 DUP2 PUSH3 0x546 JUMP JUMPDEST DUP3 MSTORE POP POP JUMP JUMPDEST PUSH1 0x0 PUSH1 0x20 DUP3 ADD SWAP1 POP PUSH3 0x6B5 PUSH1 0x0 DUP4 ADD DUP5 PUSH3 0x68D JUMP JUMPDEST SWAP3 SWAP2 POP POP JUMP JUMPDEST PUSH1 0x0 DUP2 MLOAD SWAP1 POP SWAP2 SWAP1 POP JUMP JUMPDEST PUSH1 0x0 DUP3 DUP3 MSTORE PUSH1 0x20 DUP3 ADD SWAP1 POP SWAP3 SWAP2 POP POP JUMP JUMPDEST PUSH1 0x0 JUMPDEST DUP4 DUP2 LT ISZERO PUSH3 0x6F7 JUMPI DUP1 DUP3 ADD MLOAD DUP2 DUP5 ADD MSTORE PUSH1 0x20 DUP2 ADD SWAP1 POP PUSH3 0x6DA JUMP JUMPDEST DUP4 DUP2 GT ISZERO PUSH3 0x707 JUMPI PUSH1 0x0 DUP5 DUP5 ADD MSTORE JUMPDEST POP POP POP POP JUMP JUMPDEST PUSH1 0x0 PUSH3 0x71A DUP3 PUSH3 0x6BB JUMP JUMPDEST PUSH3 0x726 DUP2 DUP6 PUSH3 0x6C6 JUMP JUMPDEST SWAP4 POP PUSH3 0x738 DUP2 DUP6 PUSH1 0x20 DUP7 ADD PUSH3 0x6D7 JUMP JUMPDEST PUSH3 0x743 DUP2 PUSH3 0x26E JUMP JUMPDEST DUP5 ADD SWAP2 POP POP SWAP3 SWAP2 POP POP JUMP JUMPDEST PUSH1 0x0 PUSH3 0x75B DUP3 PUSH3 0x4E0 JUMP JUMPDEST SWAP1 POP SWAP2 SWAP1 POP JUMP JUMPDEST PUSH3 0x76D DUP2 PUSH3 0x74E JUMP JUMPDEST DUP3 MSTORE POP POP JUMP JUMPDEST PUSH1 0x0 PUSH1 0xA0 DUP3 ADD SWAP1 POP DUP2 DUP2 SUB PUSH1 0x0 DUP4 ADD MSTORE PUSH3 0x78F DUP2 DUP9 PUSH3 0x70D JUMP JUMPDEST SWAP1 POP PUSH3 0x7A0 PUSH1 0x20 DUP4 ADD DUP8 PUSH3 0x762 JUMP JUMPDEST DUP2 DUP2 SUB PUSH1 0x40 DUP4 ADD MSTORE PUSH3 0x7B4 DUP2 DUP7 PUSH3 0x70D JUMP JUMPDEST SWAP1 POP DUP2 DUP2 SUB PUSH1 0x60 DUP4 ADD MSTORE PUSH3 0x7CA DUP2 DUP6 PUSH3 0x70D JUMP JUMPDEST SWAP1 POP DUP2 DUP2 SUB PUSH1 0x80 DUP4 ADD MSTORE PUSH3 0x7E0 DUP2 DUP5 PUSH3 0x70D JUMP JUMPDEST SWAP1 POP SWAP7 SWAP6 POP POP POP POP POP POP JUMP INVALID PUSH1 0x80 PUSH1 0x40 MSTORE PUSH1 0x0 PUSH1 0x2 PUSH1 0x0 PUSH2 0x100 EXP DUP2 SLOAD DUP2 PUSH1 0xFF MUL NOT AND SWAP1 DUP4 ISZERO ISZERO MUL OR SWAP1 SSTORE POP PUSH1 0x0 PUSH1 0x2 PUSH1 0x1 PUSH2 0x100 EXP DUP2 SLOAD DUP2 PUSH1 0xFF MUL NOT AND SWAP1 DUP4 ISZERO ISZERO MUL OR SWAP1 SSTORE POP CALLVALUE DUP1 ISZERO PUSH3 0x47 JUMPI PUSH1 0x0 DUP1 REVERT JUMPDEST POP PUSH1 0x40 MLOAD PUSH3 0x1E1B CODESIZE SUB DUP1 PUSH3 0x1E1B DUP4 CODECOPY DUP2 DUP2 ADD PUSH1 0x40 MSTORE DUP2 ADD SWAP1 PUSH3 0x6D SWAP2 SWAP1 PUSH3 0x3E2 JUMP JUMPDEST DUP5 PUSH1 0x3 PUSH1 0x0 ADD SWAP1 DUP1 MLOAD SWAP1 PUSH1 0x20 ADD SWAP1 PUSH3 0x88 SWAP3 SWAP2 SWAP1 PUSH3 0x130 JUMP JUMPDEST POP DUP4 PUSH1 0x3 PUSH1 0x1 ADD PUSH1 0x0 PUSH2 0x100 EXP DUP2 SLOAD DUP2 PUSH20 0xFFFFFFFFFFFFFFFFFFFFFFFFFFFFFFFFFFFFFFFF MUL NOT AND SWAP1 DUP4 PUSH20 0xFFFFFFFFFFFFFFFFFFFFFFFFFFFFFFFFFFFFFFFF AND MUL OR SWAP1 SSTORE POP DUP3 PUSH1 0x3 PUSH1 0x2 ADD SWAP1 DUP1 MLOAD SWAP1 PUSH1 0x20 ADD SWAP1 PUSH3 0xE8 SWAP3 SWAP2 SWAP1 PUSH3 0x130 JUMP JUMPDEST POP PUSH1 0x0 PUSH1 0x3 DUP1 ADD DUP2 SWAP1 SSTORE POP DUP2 PUSH1 0x0 SWAP1 DUP1 MLOAD SWAP1 PUSH1 0x20 ADD SWAP1 PUSH3 0x10B SWAP3 SWAP2 SWAP1 PUSH3 0x130 JUMP JUMPDEST POP DUP1 PUSH1 0x1 SWAP1 DUP1 MLOAD SWAP1 PUSH1 0x20 ADD SWAP1 PUSH3 0x124 SWAP3 SWAP2 SWAP1 PUSH3 0x130 JUMP JUMPDEST POP POP POP POP POP POP PUSH3 0x54A JUMP JUMPDEST DUP3 DUP1 SLOAD PUSH3 0x13E SWAP1 PUSH3 0x515 JUMP JUMPDEST SWAP1 PUSH1 0x0 MSTORE PUSH1 0x20 PUSH1 0x0 KECCAK256 SWAP1 PUSH1 0x1F ADD PUSH1 0x20 SWAP1 DIV DUP2 ADD SWAP3 DUP3 PUSH3 0x162 JUMPI PUSH1 0x0 DUP6 SSTORE PUSH3 0x1AE JUMP JUMPDEST DUP3 PUSH1 0x1F LT PUSH3 0x17D JUMPI DUP1 MLOAD PUSH1 0xFF NOT AND DUP4 DUP1 ADD OR DUP6 SSTORE PUSH3 0x1AE JUMP JUMPDEST DUP3 DUP1 ADD PUSH1 0x1 ADD DUP6 SSTORE DUP3 ISZERO PUSH3 0x1AE JUMPI SWAP2 DUP3 ADD JUMPDEST DUP3 DUP2 GT ISZERO PUSH3 0x1AD JUMPI DUP3 MLOAD DUP3 SSTORE SWAP2 PUSH1 0x20 ADD SWAP2 SWAP1 PUSH1 0x1 ADD SWAP1 PUSH3 0x190 JUMP JUMPDEST JUMPDEST POP SWAP1 POP PUSH3 0x1BD SWAP2 SWAP1 PUSH3 0x1C1 JUMP JUMPDEST POP SWAP1 JUMP JUMPDEST JUMPDEST DUP1 DUP3 GT ISZERO PUSH3 0x1DC JUMPI PUSH1 0x0 DUP2 PUSH1 0x0 SWAP1 SSTORE POP PUSH1 0x1 ADD PUSH3 0x1C2 JUMP JUMPDEST POP SWAP1 JUMP JUMPDEST PUSH1 0x0 PUSH1 0x40 MLOAD SWAP1 POP SWAP1 JUMP JUMPDEST PUSH1 0x0 DUP1 REVERT JUMPDEST PUSH1 0x0 DUP1 REVERT JUMPDEST PUSH1 0x0 DUP1 REVERT JUMPDEST PUSH1 0x0 DUP1 REVERT JUMPDEST PUSH1 0x0 PUSH1 0x1F NOT PUSH1 0x1F DUP4 ADD AND SWAP1 POP SWAP2 SWAP1 POP JUMP JUMPDEST PUSH32 0x4E487B7100000000000000000000000000000000000000000000000000000000 PUSH1 0x0 MSTORE PUSH1 0x41 PUSH1 0x4 MSTORE PUSH1 0x24 PUSH1 0x0 REVERT JUMPDEST PUSH3 0x249 DUP3 PUSH3 0x1FE JUMP JUMPDEST DUP2 ADD DUP2 DUP2 LT PUSH8 0xFFFFFFFFFFFFFFFF DUP3 GT OR ISZERO PUSH3 0x26B JUMPI PUSH3 0x26A PUSH3 0x20F JUMP JUMPDEST JUMPDEST DUP1 PUSH1 0x40 MSTORE POP POP POP JUMP JUMPDEST PUSH1 0x0 PUSH3 0x280 PUSH3 0x1E0 JUMP JUMPDEST SWAP1 POP PUSH3 0x28E DUP3 DUP3 PUSH3 0x23E JUMP JUMPDEST SWAP2 SWAP1 POP JUMP JUMPDEST PUSH1 0x0 PUSH8 0xFFFFFFFFFFFFFFFF DUP3 GT ISZERO PUSH3 0x2B1 JUMPI PUSH3 0x2B0 PUSH3 0x20F JUMP JUMPDEST JUMPDEST PUSH3 0x2BC DUP3 PUSH3 0x1FE JUMP JUMPDEST SWAP1 POP PUSH1 0x20 DUP2 ADD SWAP1 POP SWAP2 SWAP1 POP JUMP JUMPDEST PUSH1 0x0 JUMPDEST DUP4 DUP2 LT ISZERO PUSH3 0x2E9 JUMPI DUP1 DUP3 ADD MLOAD DUP2 DUP5 ADD MSTORE PUSH1 0x20 DUP2 ADD SWAP1 POP PUSH3 0x2CC JUMP JUMPDEST DUP4 DUP2 GT ISZERO PUSH3 0x2F9 JUMPI PUSH1 0x0 DUP5 DUP5 ADD MSTORE JUMPDEST POP POP POP POP JUMP JUMPDEST PUSH1 0x0 PUSH3 0x316 PUSH3 0x310 DUP5 PUSH3 0x293 JUMP JUMPDEST PUSH3 0x274 JUMP JUMPDEST SWAP1 POP DUP3 DUP2 MSTORE PUSH1 0x20 DUP2 ADD DUP5 DUP5 DUP5 ADD GT ISZERO PUSH3 0x335 JUMPI PUSH3 0x334 PUSH3 0x1F9 JUMP JUMPDEST JUMPDEST PUSH3 0x342 DUP5 DUP3 DUP6 PUSH3 0x2C9 JUMP JUMPDEST POP SWAP4 SWAP3 POP POP POP JUMP JUMPDEST PUSH1 0x0 DUP3 PUSH1 0x1F DUP4 ADD SLT PUSH3 0x362 JUMPI PUSH3 0x361 PUSH3 0x1F4 JUMP JUMPDEST JUMPDEST DUP2 MLOAD PUSH3 0x374 DUP5 DUP3 PUSH1 0x20 DUP7 ADD PUSH3 0x2FF JUMP JUMPDEST SWAP2 POP POP SWAP3 SWAP2 POP POP JUMP JUMPDEST PUSH1 0x0 PUSH20 0xFFFFFFFFFFFFFFFFFFFFFFFFFFFFFFFFFFFFFFFF DUP3 AND SWAP1 POP SWAP2 SWAP1 POP JUMP JUMPDEST PUSH1 0x0 PUSH3 0x3AA DUP3 PUSH3 0x37D JUMP JUMPDEST SWAP1 POP SWAP2 SWAP1 POP JUMP JUMPDEST PUSH3 0x3BC DUP2 PUSH3 0x39D JUMP JUMPDEST DUP2 EQ PUSH3 0x3C8 JUMPI PUSH1 0x0 DUP1 REVERT JUMPDEST POP JUMP JUMPDEST PUSH1 0x0 DUP2 MLOAD SWAP1 POP PUSH3 0x3DC DUP2 PUSH3 0x3B1 JUMP JUMPDEST SWAP3 SWAP2 POP POP JUMP JUMPDEST PUSH1 0x0 DUP1 PUSH1 0x0 DUP1 PUSH1 0x0 PUSH1 0xA0 DUP7 DUP9 SUB SLT ISZERO PUSH3 0x401 JUMPI PUSH3 0x400 PUSH3 0x1EA JUMP JUMPDEST JUMPDEST PUSH1 0x0 DUP7 ADD MLOAD PUSH8 0xFFFFFFFFFFFFFFFF DUP2 GT ISZERO PUSH3 0x422 JUMPI PUSH3 0x421 PUSH3 0x1EF JUMP JUMPDEST JUMPDEST PUSH3 0x430 DUP9 DUP3 DUP10 ADD PUSH3 0x34A JUMP JUMPDEST SWAP6 POP POP PUSH1 0x20 PUSH3 0x443 DUP9 DUP3 DUP10 ADD PUSH3 0x3CB JUMP JUMPDEST SWAP5 POP POP PUSH1 0x40 DUP7 ADD MLOAD PUSH8 0xFFFFFFFFFFFFFFFF DUP2 GT ISZERO PUSH3 0x467 JUMPI PUSH3 0x466 PUSH3 0x1EF JUMP JUMPDEST JUMPDEST PUSH3 0x475 DUP9 DUP3 DUP10 ADD PUSH3 0x34A JUMP JUMPDEST SWAP4 POP POP PUSH1 0x60 DUP7 ADD MLOAD PUSH8 0xFFFFFFFFFFFFFFFF DUP2 GT ISZERO PUSH3 0x499 JUMPI PUSH3 0x498 PUSH3 0x1EF JUMP JUMPDEST JUMPDEST PUSH3 0x4A7 DUP9 DUP3 DUP10 ADD PUSH3 0x34A JUMP JUMPDEST SWAP3 POP POP PUSH1 0x80 DUP7 ADD MLOAD PUSH8 0xFFFFFFFFFFFFFFFF DUP2 GT ISZERO PUSH3 0x4CB JUMPI PUSH3 0x4CA PUSH3 0x1EF JUMP JUMPDEST JUMPDEST PUSH3 0x4D9 DUP9 DUP3 DUP10 ADD PUSH3 0x34A JUMP JUMPDEST SWAP2 POP POP SWAP3 SWAP6 POP SWAP3 SWAP6 SWAP1 SWAP4 POP JUMP JUMPDEST PUSH32 0x4E487B7100000000000000000000000000000000000000000000000000000000 PUSH1 0x0 MSTORE PUSH1 0x22 PUSH1 0x4 MSTORE PUSH1 0x24 PUSH1 0x0 REVERT JUMPDEST PUSH1 0x0 PUSH1 0x2 DUP3 DIV SWAP1 POP PUSH1 0x1 DUP3 AND DUP1 PUSH3 0x52E JUMPI PUSH1 0x7F DUP3 AND SWAP2 POP JUMPDEST PUSH1 0x20 DUP3 LT DUP2 SUB PUSH3 0x544 JUMPI PUSH3 0x543 PUSH3 0x4E6 JUMP JUMPDEST JUMPDEST POP SWAP2 SWAP1 POP JUMP JUMPDEST PUSH2 0x18C1 DUP1 PUSH3 0x55A PUSH1 0x0 CODECOPY PUSH1 0x0 RETURN INVALID PUSH1 0x80 PUSH1 0x40 MSTORE PUSH1 0x4 CALLDATASIZE LT PUSH2 0xC2 JUMPI PUSH1 0x0 CALLDATALOAD PUSH1 0xE0 SHR DUP1 PUSH4 0x5AA68AC0 GT PUSH2 0x7F JUMPI DUP1 PUSH4 0x789D9E8A GT PUSH2 0x59 JUMPI DUP1 PUSH4 0x789D9E8A EQ PUSH2 0x251 JUMPI DUP1 PUSH4 0x83D948B7 EQ PUSH2 0x27C JUMPI DUP1 PUSH4 0x9C3BFCF6 EQ PUSH2 0x2A7 JUMPI DUP1 PUSH4 0xF9094303 EQ PUSH2 0x2C3 JUMPI PUSH2 0xC2 JUMP JUMPDEST DUP1 PUSH4 0x5AA68AC0 EQ PUSH2 0x1BE JUMPI DUP1 PUSH4 0x67F9DD43 EQ PUSH2 0x1E9 JUMPI DUP1 PUSH4 0x7284E416 EQ PUSH2 0x226 JUMPI PUSH2 0xC2 JUMP JUMPDEST DUP1 PUSH4 0x16D8CB70 EQ PUSH2 0xC7 JUMPI DUP1 PUSH4 0x1B26586C EQ PUSH2 0xF2 JUMPI DUP1 PUSH4 0x1EC6B60A EQ PUSH2 0x11D JUMPI DUP1 PUSH4 0x35C1D349 EQ PUSH2 0x134 JUMPI DUP1 PUSH4 0x481C6A75 EQ PUSH2 0x174 JUMPI DUP1 PUSH4 0x4901D7AE EQ PUSH2 0x1A2 JUMPI JUMPDEST PUSH1 0x0 DUP1 REVERT JUMPDEST CALLVALUE DUP1 ISZERO PUSH2 0xD3 JUMPI PUSH1 0x0 DUP1 REVERT JUMPDEST POP PUSH2 0xDC PUSH2 0x2DA JUMP JUMPDEST PUSH1 0x40 MLOAD PUSH2 0xE9 SWAP2 SWAP1 PUSH2 0x1062 JUMP JUMPDEST PUSH1 0x40 MLOAD DUP1 SWAP2 SUB SWAP1 RETURN JUMPDEST CALLVALUE DUP1 ISZERO PUSH2 0xFE JUMPI PUSH1 0x0 DUP1 REVERT JUMPDEST POP PUSH2 0x107 PUSH2 0x2E0 JUMP JUMPDEST PUSH1 0x40 MLOAD PUSH2 0x114 SWAP2 SWAP1 PUSH2 0x1116 JUMP JUMPDEST PUSH1 0x40 MLOAD DUP1 SWAP2 SUB SWAP1 RETURN JUMPDEST CALLVALUE DUP1 ISZERO PUSH2 0x129 JUMPI PUSH1 0x0 DUP1 REVERT JUMPDEST POP PUSH2 0x132 PUSH2 0x36E JUMP JUMPDEST STOP JUMPDEST CALLVALUE DUP1 ISZERO PUSH2 0x140 JUMPI PUSH1 0x0 DUP1 REVERT JUMPDEST POP PUSH2 0x15B PUSH1 0x4 DUP1 CALLDATASIZE SUB DUP2 ADD SWAP1 PUSH2 0x156 SWAP2 SWAP1 PUSH2 0x1178 JUMP JUMPDEST PUSH2 0x3E8 JUMP JUMPDEST PUSH1 0x40 MLOAD PUSH2 0x16B SWAP5 SWAP4 SWAP3 SWAP2 SWAP1 PUSH2 0x11E6 JUMP JUMPDEST PUSH1 0x40 MLOAD DUP1 SWAP2 SUB SWAP1 RETURN JUMPDEST CALLVALUE DUP1 ISZERO PUSH2 0x180 JUMPI PUSH1 0x0 DUP1 REVERT JUMPDEST POP PUSH2 0x189 PUSH2 0x558 JUMP JUMPDEST PUSH1 0x40 MLOAD PUSH2 0x199 SWAP5 SWAP4 SWAP3 SWAP2 SWAP1 PUSH2 0x11E6 JUMP JUMPDEST PUSH1 0x40 MLOAD DUP1 SWAP2 SUB SWAP1 RETURN JUMPDEST PUSH2 0x1BC PUSH1 0x4 DUP1 CALLDATASIZE SUB DUP2 ADD SWAP1 PUSH2 0x1B7 SWAP2 SWAP1 PUSH2 0x139A JUMP JUMPDEST PUSH2 0x6A6 JUMP JUMPDEST STOP JUMPDEST CALLVALUE DUP1 ISZERO PUSH2 0x1CA JUMPI PUSH1 0x0 DUP1 REVERT JUMPDEST POP PUSH2 0x1D3 PUSH2 0x84B JUMP JUMPDEST PUSH1 0x40 MLOAD PUSH2 0x1E0 SWAP2 SWAP1 PUSH2 0x15B9 JUMP JUMPDEST PUSH1 0x40 MLOAD DUP1 SWAP2 SUB SWAP1 RETURN JUMPDEST CALLVALUE DUP1 ISZERO PUSH2 0x1F5 JUMPI PUSH1 0x0 DUP1 REVERT JUMPDEST POP PUSH2 0x210 PUSH1 0x4 DUP1 CALLDATASIZE SUB DUP2 ADD SWAP1 PUSH2 0x20B SWAP2 SWAP1 PUSH2 0x15DB JUMP JUMPDEST PUSH2 0xA2E JUMP JUMPDEST PUSH1 0x40 MLOAD PUSH2 0x21D SWAP2 SWAP1 PUSH2 0x163F JUMP JUMPDEST PUSH1 0x40 MLOAD DUP1 SWAP2 SUB SWAP1 RETURN JUMPDEST CALLVALUE DUP1 ISZERO PUSH2 0x232 JUMPI PUSH1 0x0 DUP1 REVERT JUMPDEST POP PUSH2 0x23B PUSH2 0xA64 JUMP JUMPDEST PUSH1 0x40 MLOAD PUSH2 0x248 SWAP2 SWAP1 PUSH2 0x1116 JUMP JUMPDEST PUSH1 0x40 MLOAD DUP1 SWAP2 SUB SWAP1 RETURN JUMPDEST CALLVALUE DUP1 ISZERO PUSH2 0x25D JUMPI PUSH1 0x0 DUP1 REVERT JUMPDEST POP PUSH2 0x266 PUSH2 0xAF2 JUMP JUMPDEST PUSH1 0x40 MLOAD PUSH2 0x273 SWAP2 SWAP1 PUSH2 0x163F JUMP JUMPDEST PUSH1 0x40 MLOAD DUP1 SWAP2 SUB SWAP1 RETURN JUMPDEST CALLVALUE DUP1 ISZERO PUSH2 0x288 JUMPI PUSH1 0x0 DUP1 REVERT JUMPDEST POP PUSH2 0x291 PUSH2 0xB05 JUMP JUMPDEST PUSH1 0x40 MLOAD PUSH2 0x29E SWAP2 SWAP1 PUSH2 0x163F JUMP JUMPDEST PUSH1 0x40 MLOAD DUP1 SWAP2 SUB SWAP1 RETURN JUMPDEST PUSH2 0x2C1 PUSH1 0x4 DUP1 CALLDATASIZE SUB DUP2 ADD SWAP1 PUSH2 0x2BC SWAP2 SWAP1 PUSH2 0x139A JUMP JUMPDEST PUSH2 0xB18 JUMP JUMPDEST STOP JUMPDEST CALLVALUE DUP1 ISZERO PUSH2 0x2CF JUMPI PUSH1 0x0 DUP1 REVERT JUMPDEST POP PUSH2 0x2D8 PUSH2 0xE9A JUMP JUMPDEST STOP JUMPDEST PUSH1 0x9 SLOAD DUP2 JUMP JUMPDEST PUSH1 0x0 DUP1 SLOAD PUSH2 0x2ED SWAP1 PUSH2 0x1689 JUMP JUMPDEST DUP1 PUSH1 0x1F ADD PUSH1 0x20 DUP1 SWAP2 DIV MUL PUSH1 0x20 ADD PUSH1 0x40 MLOAD SWAP1 DUP2 ADD PUSH1 0x40 MSTORE DUP1 SWAP3 SWAP2 SWAP1 DUP2 DUP2 MSTORE PUSH1 0x20 ADD DUP3 DUP1 SLOAD PUSH2 0x319 SWAP1 PUSH2 0x1689 JUMP JUMPDEST DUP1 ISZERO PUSH2 0x366 JUMPI DUP1 PUSH1 0x1F LT PUSH2 0x33B JUMPI PUSH2 0x100 DUP1 DUP4 SLOAD DIV MUL DUP4 MSTORE SWAP2 PUSH1 0x20 ADD SWAP2 PUSH2 0x366 JUMP JUMPDEST DUP3 ADD SWAP2 SWAP1 PUSH1 0x0 MSTORE PUSH1 0x20 PUSH1 0x0 KECCAK256 SWAP1 JUMPDEST DUP2 SLOAD DUP2 MSTORE SWAP1 PUSH1 0x1 ADD SWAP1 PUSH1 0x20 ADD DUP1 DUP4 GT PUSH2 0x349 JUMPI DUP3 SWAP1 SUB PUSH1 0x1F AND DUP3 ADD SWAP2 JUMPDEST POP POP POP POP POP DUP2 JUMP JUMPDEST PUSH1 0x3 PUSH1 0x1 ADD PUSH1 0x0 SWAP1 SLOAD SWAP1 PUSH2 0x100 EXP SWAP1 DIV PUSH20 0xFFFFFFFFFFFFFFFFFFFFFFFFFFFFFFFFFFFFFFFF AND PUSH20 0xFFFFFFFFFFFFFFFFFFFFFFFFFFFFFFFFFFFFFFFF AND CALLER PUSH20 0xFFFFFFFFFFFFFFFFFFFFFFFFFFFFFFFFFFFFFFFF AND EQ PUSH2 0x3CB JUMPI PUSH1 0x0 DUP1 REVERT JUMPDEST PUSH1 0x1 PUSH1 0x2 PUSH1 0x0 PUSH2 0x100 EXP DUP2 SLOAD DUP2 PUSH1 0xFF MUL NOT AND SWAP1 DUP4 ISZERO ISZERO MUL OR SWAP1 SSTORE POP JUMP JUMPDEST PUSH1 0x8 DUP2 DUP2 SLOAD DUP2 LT PUSH2 0x3F8 JUMPI PUSH1 0x0 DUP1 REVERT JUMPDEST SWAP1 PUSH1 0x0 MSTORE PUSH1 0x20 PUSH1 0x0 KECCAK256 SWAP1 PUSH1 0x4 MUL ADD PUSH1 0x0 SWAP2 POP SWAP1 POP DUP1 PUSH1 0x0 ADD DUP1 SLOAD PUSH2 0x41B SWAP1 PUSH2 0x1689 JUMP JUMPDEST DUP1 PUSH1 0x1F ADD PUSH1 0x20 DUP1 SWAP2 DIV MUL PUSH1 0x20 ADD PUSH1 0x40 MLOAD SWAP1 DUP2 ADD PUSH1 0x40 MSTORE DUP1 SWAP3 SWAP2 SWAP1 DUP2 DUP2 MSTORE PUSH1 0x20 ADD DUP3 DUP1 SLOAD PUSH2 0x447 SWAP1 PUSH2 0x1689 JUMP JUMPDEST DUP1 ISZERO PUSH2 0x494 JUMPI DUP1 PUSH1 0x1F LT PUSH2 0x469 JUMPI PUSH2 0x100 DUP1 DUP4 SLOAD DIV MUL DUP4 MSTORE SWAP2 PUSH1 0x20 ADD SWAP2 PUSH2 0x494 JUMP JUMPDEST DUP3 ADD SWAP2 SWAP1 PUSH1 0x0 MSTORE PUSH1 0x20 PUSH1 0x0 KECCAK256 SWAP1 JUMPDEST DUP2 SLOAD DUP2 MSTORE SWAP1 PUSH1 0x1 ADD SWAP1 PUSH1 0x20 ADD DUP1 DUP4 GT PUSH2 0x477 JUMPI DUP3 SWAP1 SUB PUSH1 0x1F AND DUP3 ADD SWAP2 JUMPDEST POP POP POP POP POP SWAP1 DUP1 PUSH1 0x1 ADD PUSH1 0x0 SWAP1 SLOAD SWAP1 PUSH2 0x100 EXP SWAP1 DIV PUSH20 0xFFFFFFFFFFFFFFFFFFFFFFFFFFFFFFFFFFFFFFFF AND SWAP1 DUP1 PUSH1 0x2 ADD DUP1 SLOAD PUSH2 0x4CF SWAP1 PUSH2 0x1689 JUMP JUMPDEST DUP1 PUSH1 0x1F ADD PUSH1 0x20 DUP1 SWAP2 DIV MUL PUSH1 0x20 ADD PUSH1 0x40 MLOAD SWAP1 DUP2 ADD PUSH1 0x40 MSTORE DUP1 SWAP3 SWAP2 SWAP1 DUP2 DUP2 MSTORE PUSH1 0x20 ADD DUP3 DUP1 SLOAD PUSH2 0x4FB SWAP1 PUSH2 0x1689 JUMP JUMPDEST DUP1 ISZERO PUSH2 0x548 JUMPI DUP1 PUSH1 0x1F LT PUSH2 0x51D JUMPI PUSH2 0x100 DUP1 DUP4 SLOAD DIV MUL DUP4 MSTORE SWAP2 PUSH1 0x20 ADD SWAP2 PUSH2 0x548 JUMP JUMPDEST DUP3 ADD SWAP2 SWAP1 PUSH1 0x0 MSTORE PUSH1 0x20 PUSH1 0x0 KECCAK256 SWAP1 JUMPDEST DUP2 SLOAD DUP2 MSTORE SWAP1 PUSH1 0x1 ADD SWAP1 PUSH1 0x20 ADD DUP1 DUP4 GT PUSH2 0x52B JUMPI DUP3 SWAP1 SUB PUSH1 0x1F AND DUP3 ADD SWAP2 JUMPDEST POP POP POP POP POP SWAP1 DUP1 PUSH1 0x3 ADD SLOAD SWAP1 POP DUP5 JUMP JUMPDEST PUSH1 0x3 DUP1 PUSH1 0x0 ADD DUP1 SLOAD PUSH2 0x569 SWAP1 PUSH2 0x1689 JUMP JUMPDEST DUP1 PUSH1 0x1F ADD PUSH1 0x20 DUP1 SWAP2 DIV MUL PUSH1 0x20 ADD PUSH1 0x40 MLOAD SWAP1 DUP2 ADD PUSH1 0x40 MSTORE DUP1 SWAP3 SWAP2 SWAP1 DUP2 DUP2 MSTORE PUSH1 0x20 ADD DUP3 DUP1 SLOAD PUSH2 0x595 SWAP1 PUSH2 0x1689 JUMP JUMPDEST DUP1 ISZERO PUSH2 0x5E2 JUMPI DUP1 PUSH1 0x1F LT PUSH2 0x5B7 JUMPI PUSH2 0x100 DUP1 DUP4 SLOAD DIV MUL DUP4 MSTORE SWAP2 PUSH1 0x20 ADD SWAP2 PUSH2 0x5E2 JUMP JUMPDEST DUP3 ADD SWAP2 SWAP1 PUSH1 0x0 MSTORE PUSH1 0x20 PUSH1 0x0 KECCAK256 SWAP1 JUMPDEST DUP2 SLOAD DUP2 MSTORE SWAP1 PUSH1 0x1 ADD SWAP1 PUSH1 0x20 ADD DUP1 DUP4 GT PUSH2 0x5C5 JUMPI DUP3 SWAP1 SUB PUSH1 0x1F AND DUP3 ADD SWAP2 JUMPDEST POP POP POP POP POP SWAP1 DUP1 PUSH1 0x1 ADD PUSH1 0x0 SWAP1 SLOAD SWAP1 PUSH2 0x100 EXP SWAP1 DIV PUSH20 0xFFFFFFFFFFFFFFFFFFFFFFFFFFFFFFFFFFFFFFFF AND SWAP1 DUP1 PUSH1 0x2 ADD DUP1 SLOAD PUSH2 0x61D SWAP1 PUSH2 0x1689 JUMP JUMPDEST DUP1 PUSH1 0x1F ADD PUSH1 0x20 DUP1 SWAP2 DIV MUL PUSH1 0x20 ADD PUSH1 0x40 MLOAD SWAP1 DUP2 ADD PUSH1 0x40 MSTORE DUP1 SWAP3 SWAP2 SWAP1 DUP2 DUP2 MSTORE PUSH1 0x20 ADD DUP3 DUP1 SLOAD PUSH2 0x649 SWAP1 PUSH2 0x1689 JUMP JUMPDEST DUP1 ISZERO PUSH2 0x696 JUMPI DUP1 PUSH1 0x1F LT PUSH2 0x66B JUMPI PUSH2 0x100 DUP1 DUP4 SLOAD DIV MUL DUP4 MSTORE SWAP2 PUSH1 0x20 ADD SWAP2 PUSH2 0x696 JUMP JUMPDEST DUP3 ADD SWAP2 SWAP1 PUSH1 0x0 MSTORE PUSH1 0x20 PUSH1 0x0 KECCAK256 SWAP1 JUMPDEST DUP2 SLOAD DUP2 MSTORE SWAP1 PUSH1 0x1 ADD SWAP1 PUSH1 0x20 ADD DUP1 DUP4 GT PUSH2 0x679 JUMPI DUP3 SWAP1 SUB PUSH1 0x1F AND DUP3 ADD SWAP2 JUMPDEST POP POP POP POP POP SWAP1 DUP1 PUSH1 0x3 ADD SLOAD SWAP1 POP DUP5 JUMP JUMPDEST PUSH1 0x3 PUSH1 0x1 ADD PUSH1 0x0 SWAP1 SLOAD SWAP1 PUSH2 0x100 EXP SWAP1 DIV PUSH20 0xFFFFFFFFFFFFFFFFFFFFFFFFFFFFFFFFFFFFFFFF AND PUSH20 0xFFFFFFFFFFFFFFFFFFFFFFFFFFFFFFFFFFFFFFFF AND CALLER PUSH20 0xFFFFFFFFFFFFFFFFFFFFFFFFFFFFFFFFFFFFFFFF AND EQ PUSH2 0x703 JUMPI PUSH1 0x0 DUP1 REVERT JUMPDEST PUSH8 0x13FBE85EDC90000 CALLVALUE GT PUSH2 0x717 JUMPI PUSH1 0x0 DUP1 REVERT JUMPDEST PUSH2 0x71F PUSH2 0xF14 JUMP JUMPDEST DUP4 DUP2 PUSH1 0x0 ADD DUP2 SWAP1 MSTORE POP DUP3 DUP2 PUSH1 0x20 ADD SWAP1 PUSH20 0xFFFFFFFFFFFFFFFFFFFFFFFFFFFFFFFFFFFFFFFF AND SWAP1 DUP2 PUSH20 0xFFFFFFFFFFFFFFFFFFFFFFFFFFFFFFFFFFFFFFFF AND DUP2 MSTORE POP POP DUP2 DUP2 PUSH1 0x40 ADD DUP2 SWAP1 MSTORE POP PUSH1 0x0 DUP2 PUSH1 0x60 ADD DUP2 DUP2 MSTORE POP POP PUSH1 0x8 DUP2 SWAP1 DUP1 PUSH1 0x1 DUP2 SLOAD ADD DUP1 DUP3 SSTORE DUP1 SWAP2 POP POP PUSH1 0x1 SWAP1 SUB SWAP1 PUSH1 0x0 MSTORE PUSH1 0x20 PUSH1 0x0 KECCAK256 SWAP1 PUSH1 0x4 MUL ADD PUSH1 0x0 SWAP1 SWAP2 SWAP1 SWAP2 SWAP1 SWAP2 POP PUSH1 0x0 DUP3 ADD MLOAD DUP2 PUSH1 0x0 ADD SWAP1 DUP1 MLOAD SWAP1 PUSH1 0x20 ADD SWAP1 PUSH2 0x7BC SWAP3 SWAP2 SWAP1 PUSH2 0xF52 JUMP JUMPDEST POP PUSH1 0x20 DUP3 ADD MLOAD DUP2 PUSH1 0x1 ADD PUSH1 0x0 PUSH2 0x100 EXP DUP2 SLOAD DUP2 PUSH20 0xFFFFFFFFFFFFFFFFFFFFFFFFFFFFFFFFFFFFFFFF MUL NOT AND SWAP1 DUP4 PUSH20 0xFFFFFFFFFFFFFFFFFFFFFFFFFFFFFFFFFFFFFFFF AND MUL OR SWAP1 SSTORE POP PUSH1 0x40 DUP3 ADD MLOAD DUP2 PUSH1 0x2 ADD SWAP1 DUP1 MLOAD SWAP1 PUSH1 0x20 ADD SWAP1 PUSH2 0x820 SWAP3 SWAP2 SWAP1 PUSH2 0xF52 JUMP JUMPDEST POP PUSH1 0x60 DUP3 ADD MLOAD DUP2 PUSH1 0x3 ADD SSTORE POP POP PUSH1 0x7 PUSH1 0x0 DUP2 SLOAD DUP1 SWAP3 SWAP2 SWAP1 PUSH2 0x840 SWAP1 PUSH2 0x16E9 JUMP JUMPDEST SWAP2 SWAP1 POP SSTORE POP POP POP POP POP JUMP JUMPDEST PUSH1 0x60 PUSH1 0x8 DUP1 SLOAD DUP1 PUSH1 0x20 MUL PUSH1 0x20 ADD PUSH1 0x40 MLOAD SWAP1 DUP2 ADD PUSH1 0x40 MSTORE DUP1 SWAP3 SWAP2 SWAP1 DUP2 DUP2 MSTORE PUSH1 0x20 ADD PUSH1 0x0 SWAP1 JUMPDEST DUP3 DUP3 LT ISZERO PUSH2 0xA25 JUMPI DUP4 DUP3 SWAP1 PUSH1 0x0 MSTORE PUSH1 0x20 PUSH1 0x0 KECCAK256 SWAP1 PUSH1 0x4 MUL ADD PUSH1 0x40 MLOAD DUP1 PUSH1 0x80 ADD PUSH1 0x40 MSTORE SWAP1 DUP2 PUSH1 0x0 DUP3 ADD DUP1 SLOAD PUSH2 0x8A2 SWAP1 PUSH2 0x1689 JUMP JUMPDEST DUP1 PUSH1 0x1F ADD PUSH1 0x20 DUP1 SWAP2 DIV MUL PUSH1 0x20 ADD PUSH1 0x40 MLOAD SWAP1 DUP2 ADD PUSH1 0x40 MSTORE DUP1 SWAP3 SWAP2 SWAP1 DUP2 DUP2 MSTORE PUSH1 0x20 ADD DUP3 DUP1 SLOAD PUSH2 0x8CE SWAP1 PUSH2 0x1689 JUMP JUMPDEST DUP1 ISZERO PUSH2 0x91B JUMPI DUP1 PUSH1 0x1F LT PUSH2 0x8F0 JUMPI PUSH2 0x100 DUP1 DUP4 SLOAD DIV MUL DUP4 MSTORE SWAP2 PUSH1 0x20 ADD SWAP2 PUSH2 0x91B JUMP JUMPDEST DUP3 ADD SWAP2 SWAP1 PUSH1 0x0 MSTORE PUSH1 0x20 PUSH1 0x0 KECCAK256 SWAP1 JUMPDEST DUP2 SLOAD DUP2 MSTORE SWAP1 PUSH1 0x1 ADD SWAP1 PUSH1 0x20 ADD DUP1 DUP4 GT PUSH2 0x8FE JUMPI DUP3 SWAP1 SUB PUSH1 0x1F AND DUP3 ADD SWAP2 JUMPDEST POP POP POP POP POP DUP2 MSTORE PUSH1 0x20 ADD PUSH1 0x1 DUP3 ADD PUSH1 0x0 SWAP1 SLOAD SWAP1 PUSH2 0x100 EXP SWAP1 DIV PUSH20 0xFFFFFFFFFFFFFFFFFFFFFFFFFFFFFFFFFFFFFFFF AND PUSH20 0xFFFFFFFFFFFFFFFFFFFFFFFFFFFFFFFFFFFFFFFF AND PUSH20 0xFFFFFFFFFFFFFFFFFFFFFFFFFFFFFFFFFFFFFFFF AND DUP2 MSTORE PUSH1 0x20 ADD PUSH1 0x2 DUP3 ADD DUP1 SLOAD PUSH2 0x98A SWAP1 PUSH2 0x1689 JUMP JUMPDEST DUP1 PUSH1 0x1F ADD PUSH1 0x20 DUP1 SWAP2 DIV MUL PUSH1 0x20 ADD PUSH1 0x40 MLOAD SWAP1 DUP2 ADD PUSH1 0x40 MSTORE DUP1 SWAP3 SWAP2 SWAP1 DUP2 DUP2 MSTORE PUSH1 0x20 ADD DUP3 DUP1 SLOAD PUSH2 0x9B6 SWAP1 PUSH2 0x1689 JUMP JUMPDEST DUP1 ISZERO PUSH2 0xA03 JUMPI DUP1 PUSH1 0x1F LT PUSH2 0x9D8 JUMPI PUSH2 0x100 DUP1 DUP4 SLOAD DIV MUL DUP4 MSTORE SWAP2 PUSH1 0x20 ADD SWAP2 PUSH2 0xA03 JUMP JUMPDEST DUP3 ADD SWAP2 SWAP1 PUSH1 0x0 MSTORE PUSH1 0x20 PUSH1 0x0 KECCAK256 SWAP1 JUMPDEST DUP2 SLOAD DUP2 MSTORE SWAP1 PUSH1 0x1 ADD SWAP1 PUSH1 0x20 ADD DUP1 DUP4 GT PUSH2 0x9E6 JUMPI DUP3 SWAP1 SUB PUSH1 0x1F AND DUP3 ADD SWAP2 JUMPDEST POP POP POP POP POP DUP2 MSTORE PUSH1 0x20 ADD PUSH1 0x3 DUP3 ADD SLOAD DUP2 MSTORE POP POP DUP2 MSTORE PUSH1 0x20 ADD SWAP1 PUSH1 0x1 ADD SWAP1 PUSH2 0x86F JUMP JUMPDEST POP POP POP POP SWAP1 POP SWAP1 JUMP JUMPDEST PUSH1 0xB DUP2 DUP1 MLOAD PUSH1 0x20 DUP2 ADD DUP3 ADD DUP1 MLOAD DUP5 DUP3 MSTORE PUSH1 0x20 DUP4 ADD PUSH1 0x20 DUP6 ADD KECCAK256 DUP2 DUP4 MSTORE DUP1 SWAP6 POP POP POP POP POP POP PUSH1 0x0 SWAP2 POP SLOAD SWAP1 PUSH2 0x100 EXP SWAP1 DIV PUSH1 0xFF AND DUP2 JUMP JUMPDEST PUSH1 0x1 DUP1 SLOAD PUSH2 0xA71 SWAP1 PUSH2 0x1689 JUMP JUMPDEST DUP1 PUSH1 0x1F ADD PUSH1 0x20 DUP1 SWAP2 DIV MUL PUSH1 0x20 ADD PUSH1 0x40 MLOAD SWAP1 DUP2 ADD PUSH1 0x40 MSTORE DUP1 SWAP3 SWAP2 SWAP1 DUP2 DUP2 MSTORE PUSH1 0x20 ADD DUP3 DUP1 SLOAD PUSH2 0xA9D SWAP1 PUSH2 0x1689 JUMP JUMPDEST DUP1 ISZERO PUSH2 0xAEA JUMPI DUP1 PUSH1 0x1F LT PUSH2 0xABF JUMPI PUSH2 0x100 DUP1 DUP4 SLOAD DIV MUL DUP4 MSTORE SWAP2 PUSH1 0x20 ADD SWAP2 PUSH2 0xAEA JUMP JUMPDEST DUP3 ADD SWAP2 SWAP1 PUSH1 0x0 MSTORE PUSH1 0x20 PUSH1 0x0 KECCAK256 SWAP1 JUMPDEST DUP2 SLOAD DUP2 MSTORE SWAP1 PUSH1 0x1 ADD SWAP1 PUSH1 0x20 ADD DUP1 DUP4 GT PUSH2 0xACD JUMPI DUP3 SWAP1 SUB PUSH1 0x1F AND DUP3 ADD SWAP2 JUMPDEST POP POP POP POP POP DUP2 JUMP JUMPDEST PUSH1 0x2 PUSH1 0x1 SWAP1 SLOAD SWAP1 PUSH2 0x100 EXP SWAP1 DIV PUSH1 0xFF AND DUP2 JUMP JUMPDEST PUSH1 0x2 PUSH1 0x0 SWAP1 SLOAD SWAP1 PUSH2 0x100 EXP SWAP1 DIV PUSH1 0xFF AND DUP2 JUMP JUMPDEST PUSH1 0x2 PUSH1 0x0 SWAP1 SLOAD SWAP1 PUSH2 0x100 EXP SWAP1 DIV PUSH1 0xFF AND DUP1 ISZERO PUSH2 0xB41 JUMPI POP PUSH1 0x2 PUSH1 0x1 SWAP1 SLOAD SWAP1 PUSH2 0x100 EXP SWAP1 DIV PUSH1 0xFF AND ISZERO JUMPDEST PUSH2 0xB4A JUMPI PUSH1 0x0 DUP1 REVERT JUMPDEST PUSH1 0xB DUP2 PUSH1 0x40 MLOAD PUSH2 0xB5A SWAP2 SWAP1 PUSH2 0x176D JUMP JUMPDEST SWAP1 DUP2 MSTORE PUSH1 0x20 ADD PUSH1 0x40 MLOAD DUP1 SWAP2 SUB SWAP1 KECCAK256 PUSH1 0x0 SWAP1 SLOAD SWAP1 PUSH2 0x100 EXP SWAP1 DIV PUSH1 0xFF AND ISZERO PUSH2 0xBB6 JUMPI PUSH1 0x40 MLOAD PUSH32 0x8C379A000000000000000000000000000000000000000000000000000000000 DUP2 MSTORE PUSH1 0x4 ADD PUSH2 0xBAD SWAP1 PUSH2 0x17D0 JUMP JUMPDEST PUSH1 0x40 MLOAD DUP1 SWAP2 SUB SWAP1 REVERT JUMPDEST PUSH8 0x6F05B59D3B20000 CALLVALUE LT ISZERO PUSH2 0xC01 JUMPI PUSH1 0x40 MLOAD PUSH32 0x8C379A000000000000000000000000000000000000000000000000000000000 DUP2 MSTORE PUSH1 0x4 ADD PUSH2 0xBF8 SWAP1 PUSH2 0x183C JUMP JUMPDEST PUSH1 0x40 MLOAD DUP1 SWAP2 SUB SWAP1 REVERT JUMPDEST PUSH2 0xC09 PUSH2 0xFD8 JUMP JUMPDEST DUP4 DUP2 PUSH1 0x40 ADD DUP2 SWAP1 MSTORE POP CALLER DUP2 PUSH1 0x0 ADD SWAP1 PUSH20 0xFFFFFFFFFFFFFFFFFFFFFFFFFFFFFFFFFFFFFFFF AND SWAP1 DUP2 PUSH20 0xFFFFFFFFFFFFFFFFFFFFFFFFFFFFFFFFFFFFFFFF AND DUP2 MSTORE POP POP DUP2 DUP2 PUSH1 0x20 ADD DUP2 SWAP1 MSTORE POP DUP3 DUP2 PUSH1 0x60 ADD SWAP1 PUSH20 0xFFFFFFFFFFFFFFFFFFFFFFFFFFFFFFFFFFFFFFFF AND SWAP1 DUP2 PUSH20 0xFFFFFFFFFFFFFFFFFFFFFFFFFFFFFFFFFFFFFFFF AND DUP2 MSTORE POP POP PUSH1 0xA DUP2 SWAP1 DUP1 PUSH1 0x1 DUP2 SLOAD ADD DUP1 DUP3 SSTORE DUP1 SWAP2 POP POP PUSH1 0x1 SWAP1 SUB SWAP1 PUSH1 0x0 MSTORE PUSH1 0x20 PUSH1 0x0 KECCAK256 SWAP1 PUSH1 0x4 MUL ADD PUSH1 0x0 SWAP1 SWAP2 SWAP1 SWAP2 SWAP1 SWAP2 POP PUSH1 0x0 DUP3 ADD MLOAD DUP2 PUSH1 0x0 ADD PUSH1 0x0 PUSH2 0x100 EXP DUP2 SLOAD DUP2 PUSH20 0xFFFFFFFFFFFFFFFFFFFFFFFFFFFFFFFFFFFFFFFF MUL NOT AND SWAP1 DUP4 PUSH20 0xFFFFFFFFFFFFFFFFFFFFFFFFFFFFFFFFFFFFFFFF AND MUL OR SWAP1 SSTORE POP PUSH1 0x20 DUP3 ADD MLOAD DUP2 PUSH1 0x1 ADD SWAP1 DUP1 MLOAD SWAP1 PUSH1 0x20 ADD SWAP1 PUSH2 0xD1A SWAP3 SWAP2 SWAP1 PUSH2 0xF52 JUMP JUMPDEST POP PUSH1 0x40 DUP3 ADD MLOAD DUP2 PUSH1 0x2 ADD SWAP1 DUP1 MLOAD SWAP1 PUSH1 0x20 ADD SWAP1 PUSH2 0xD37 SWAP3 SWAP2 SWAP1 PUSH2 0xF52 JUMP JUMPDEST POP PUSH1 0x60 DUP3 ADD MLOAD DUP2 PUSH1 0x3 ADD PUSH1 0x0 PUSH2 0x100 EXP DUP2 SLOAD DUP2 PUSH20 0xFFFFFFFFFFFFFFFFFFFFFFFFFFFFFFFFFFFFFFFF MUL NOT AND SWAP1 DUP4 PUSH20 0xFFFFFFFFFFFFFFFFFFFFFFFFFFFFFFFFFFFFFFFF AND MUL OR SWAP1 SSTORE POP POP POP PUSH1 0x0 JUMPDEST PUSH1 0x8 DUP1 SLOAD SWAP1 POP DUP2 LT ISZERO PUSH2 0xE5C JUMPI DUP4 PUSH20 0xFFFFFFFFFFFFFFFFFFFFFFFFFFFFFFFFFFFFFFFF AND PUSH1 0x8 DUP3 DUP2 SLOAD DUP2 LT PUSH2 0xDBC JUMPI PUSH2 0xDBB PUSH2 0x185C JUMP JUMPDEST JUMPDEST SWAP1 PUSH1 0x0 MSTORE PUSH1 0x20 PUSH1 0x0 KECCAK256 SWAP1 PUSH1 0x4 MUL ADD PUSH1 0x1 ADD PUSH1 0x0 SWAP1 SLOAD SWAP1 PUSH2 0x100 EXP SWAP1 DIV PUSH20 0xFFFFFFFFFFFFFFFFFFFFFFFFFFFFFFFFFFFFFFFF AND PUSH20 0xFFFFFFFFFFFFFFFFFFFFFFFFFFFFFFFFFFFFFFFF AND SUB PUSH2 0xE49 JUMPI PUSH1 0x8 DUP2 DUP2 SLOAD DUP2 LT PUSH2 0xE1D JUMPI PUSH2 0xE1C PUSH2 0x185C JUMP JUMPDEST JUMPDEST SWAP1 PUSH1 0x0 MSTORE PUSH1 0x20 PUSH1 0x0 KECCAK256 SWAP1 PUSH1 0x4 MUL ADD PUSH1 0x3 ADD PUSH1 0x0 DUP2 SLOAD DUP1 SWAP3 SWAP2 SWAP1 PUSH2 0xE3F SWAP1 PUSH2 0x16E9 JUMP JUMPDEST SWAP2 SWAP1 POP SSTORE POP PUSH2 0xE5C JUMP JUMPDEST DUP1 DUP1 PUSH2 0xE54 SWAP1 PUSH2 0x16E9 JUMP JUMPDEST SWAP2 POP POP PUSH2 0xD84 JUMP JUMPDEST POP PUSH1 0x1 PUSH1 0xB DUP4 PUSH1 0x40 MLOAD PUSH2 0xE6F SWAP2 SWAP1 PUSH2 0x176D JUMP JUMPDEST SWAP1 DUP2 MSTORE PUSH1 0x20 ADD PUSH1 0x40 MLOAD DUP1 SWAP2 SUB SWAP1 KECCAK256 PUSH1 0x0 PUSH2 0x100 EXP DUP2 SLOAD DUP2 PUSH1 0xFF MUL NOT AND SWAP1 DUP4 ISZERO ISZERO MUL OR SWAP1 SSTORE POP POP POP POP POP JUMP JUMPDEST PUSH1 0x3 PUSH1 0x1 ADD PUSH1 0x0 SWAP1 SLOAD SWAP1 PUSH2 0x100 EXP SWAP1 DIV PUSH20 0xFFFFFFFFFFFFFFFFFFFFFFFFFFFFFFFFFFFFFFFF AND PUSH20 0xFFFFFFFFFFFFFFFFFFFFFFFFFFFFFFFFFFFFFFFF AND CALLER PUSH20 0xFFFFFFFFFFFFFFFFFFFFFFFFFFFFFFFFFFFFFFFF AND EQ PUSH2 0xEF7 JUMPI PUSH1 0x0 DUP1 REVERT JUMPDEST PUSH1 0x1 PUSH1 0x2 PUSH1 0x1 PUSH2 0x100 EXP DUP2 SLOAD DUP2 PUSH1 0xFF MUL NOT AND SWAP1 DUP4 ISZERO ISZERO MUL OR SWAP1 SSTORE POP JUMP JUMPDEST PUSH1 0x40 MLOAD DUP1 PUSH1 0x80 ADD PUSH1 0x40 MSTORE DUP1 PUSH1 0x60 DUP2 MSTORE PUSH1 0x20 ADD PUSH1 0x0 PUSH20 0xFFFFFFFFFFFFFFFFFFFFFFFFFFFFFFFFFFFFFFFF AND DUP2 MSTORE PUSH1 0x20 ADD PUSH1 0x60 DUP2 MSTORE PUSH1 0x20 ADD PUSH1 0x0 DUP2 MSTORE POP SWAP1 JUMP JUMPDEST DUP3 DUP1 SLOAD PUSH2 0xF5E SWAP1 PUSH2 0x1689 JUMP JUMPDEST SWAP1 PUSH1 0x0 MSTORE PUSH1 0x20 PUSH1 0x0 KECCAK256 SWAP1 PUSH1 0x1F ADD PUSH1 0x20 SWAP1 DIV DUP2 ADD SWAP3 DUP3 PUSH2 0xF80 JUMPI PUSH1 0x0 DUP6 SSTORE PUSH2 0xFC7 JUMP JUMPDEST DUP3 PUSH1 0x1F LT PUSH2 0xF99 JUMPI DUP1 MLOAD PUSH1 0xFF NOT AND DUP4 DUP1 ADD OR DUP6 SSTORE PUSH2 0xFC7 JUMP JUMPDEST DUP3 DUP1 ADD PUSH1 0x1 ADD DUP6 SSTORE DUP3 ISZERO PUSH2 0xFC7 JUMPI SWAP2 DUP3 ADD JUMPDEST DUP3 DUP2 GT ISZERO PUSH2 0xFC6 JUMPI DUP3 MLOAD DUP3 SSTORE SWAP2 PUSH1 0x20 ADD SWAP2 SWAP1 PUSH1 0x1 ADD SWAP1 PUSH2 0xFAB JUMP JUMPDEST JUMPDEST POP SWAP1 POP PUSH2 0xFD4 SWAP2 SWAP1 PUSH2 0x102C JUMP JUMPDEST POP SWAP1 JUMP JUMPDEST PUSH1 0x40 MLOAD DUP1 PUSH1 0x80 ADD PUSH1 0x40 MSTORE DUP1 PUSH1 0x0 PUSH20 0xFFFFFFFFFFFFFFFFFFFFFFFFFFFFFFFFFFFFFFFF AND DUP2 MSTORE PUSH1 0x20 ADD PUSH1 0x60 DUP2 MSTORE PUSH1 0x20 ADD PUSH1 0x60 DUP2 MSTORE PUSH1 0x20 ADD PUSH1 0x0 PUSH20 0xFFFFFFFFFFFFFFFFFFFFFFFFFFFFFFFFFFFFFFFF AND DUP2 MSTORE POP SWAP1 JUMP JUMPDEST JUMPDEST DUP1 DUP3 GT ISZERO PUSH2 0x1045 JUMPI PUSH1 0x0 DUP2 PUSH1 0x0 SWAP1 SSTORE POP PUSH1 0x1 ADD PUSH2 0x102D JUMP JUMPDEST POP SWAP1 JUMP JUMPDEST PUSH1 0x0 DUP2 SWAP1 POP SWAP2 SWAP1 POP JUMP JUMPDEST PUSH2 0x105C DUP2 PUSH2 0x1049 JUMP JUMPDEST DUP3 MSTORE POP POP JUMP JUMPDEST PUSH1 0x0 PUSH1 0x20 DUP3 ADD SWAP1 POP PUSH2 0x1077 PUSH1 0x0 DUP4 ADD DUP5 PUSH2 0x1053 JUMP JUMPDEST SWAP3 SWAP2 POP POP JUMP JUMPDEST PUSH1 0x0 DUP2 MLOAD SWAP1 POP SWAP2 SWAP1 POP JUMP JUMPDEST PUSH1 0x0 DUP3 DUP3 MSTORE PUSH1 0x20 DUP3 ADD SWAP1 POP SWAP3 SWAP2 POP POP JUMP JUMPDEST PUSH1 0x0 JUMPDEST DUP4 DUP2 LT ISZERO PUSH2 0x10B7 JUMPI DUP1 DUP3 ADD MLOAD DUP2 DUP5 ADD MSTORE PUSH1 0x20 DUP2 ADD SWAP1 POP PUSH2 0x109C JUMP JUMPDEST DUP4 DUP2 GT ISZERO PUSH2 0x10C6 JUMPI PUSH1 0x0 DUP5 DUP5 ADD MSTORE JUMPDEST POP POP POP POP JUMP JUMPDEST PUSH1 0x0 PUSH1 0x1F NOT PUSH1 0x1F DUP4 ADD AND SWAP1 POP SWAP2 SWAP1 POP JUMP JUMPDEST PUSH1 0x0 PUSH2 0x10E8 DUP3 PUSH2 0x107D JUMP JUMPDEST PUSH2 0x10F2 DUP2 DUP6 PUSH2 0x1088 JUMP JUMPDEST SWAP4 POP PUSH2 0x1102 DUP2 DUP6 PUSH1 0x20 DUP7 ADD PUSH2 0x1099 JUMP JUMPDEST PUSH2 0x110B DUP2 PUSH2 0x10CC JUMP JUMPDEST DUP5 ADD SWAP2 POP POP SWAP3 SWAP2 POP POP JUMP JUMPDEST PUSH1 0x0 PUSH1 0x20 DUP3 ADD SWAP1 POP DUP2 DUP2 SUB PUSH1 0x0 DUP4 ADD MSTORE PUSH2 0x1130 DUP2 DUP5 PUSH2 0x10DD JUMP JUMPDEST SWAP1 POP SWAP3 SWAP2 POP POP JUMP JUMPDEST PUSH1 0x0 PUSH1 0x40 MLOAD SWAP1 POP SWAP1 JUMP JUMPDEST PUSH1 0x0 DUP1 REVERT JUMPDEST PUSH1 0x0 DUP1 REVERT JUMPDEST PUSH2 0x1155 DUP2 PUSH2 0x1049 JUMP JUMPDEST DUP2 EQ PUSH2 0x1160 JUMPI PUSH1 0x0 DUP1 REVERT JUMPDEST POP JUMP JUMPDEST PUSH1 0x0 DUP2 CALLDATALOAD SWAP1 POP PUSH2 0x1172 DUP2 PUSH2 0x114C JUMP JUMPDEST SWAP3 SWAP2 POP POP JUMP JUMPDEST PUSH1 0x0 PUSH1 0x20 DUP3 DUP5 SUB SLT ISZERO PUSH2 0x118E JUMPI PUSH2 0x118D PUSH2 0x1142 JUMP JUMPDEST JUMPDEST PUSH1 0x0 PUSH2 0x119C DUP5 DUP3 DUP6 ADD PUSH2 0x1163 JUMP JUMPDEST SWAP2 POP POP SWAP3 SWAP2 POP POP JUMP JUMPDEST PUSH1 0x0 PUSH20 0xFFFFFFFFFFFFFFFFFFFFFFFFFFFFFFFFFFFFFFFF DUP3 AND SWAP1 POP SWAP2 SWAP1 POP JUMP JUMPDEST PUSH1 0x0 PUSH2 0x11D0 DUP3 PUSH2 0x11A5 JUMP JUMPDEST SWAP1 POP SWAP2 SWAP1 POP JUMP JUMPDEST PUSH2 0x11E0 DUP2 PUSH2 0x11C5 JUMP JUMPDEST DUP3 MSTORE POP POP JUMP JUMPDEST PUSH1 0x0 PUSH1 0x80 DUP3 ADD SWAP1 POP DUP2 DUP2 SUB PUSH1 0x0 DUP4 ADD MSTORE PUSH2 0x1200 DUP2 DUP8 PUSH2 0x10DD JUMP JUMPDEST SWAP1 POP PUSH2 0x120F PUSH1 0x20 DUP4 ADD DUP7 PUSH2 0x11D7 JUMP JUMPDEST DUP2 DUP2 SUB PUSH1 0x40 DUP4 ADD MSTORE PUSH2 0x1221 DUP2 DUP6 PUSH2 0x10DD JUMP JUMPDEST SWAP1 POP PUSH2 0x1230 PUSH1 0x60 DUP4 ADD DUP5 PUSH2 0x1053 JUMP JUMPDEST SWAP6 SWAP5 POP POP POP POP POP JUMP JUMPDEST PUSH1 0x0 DUP1 REVERT JUMPDEST PUSH1 0x0 DUP1 REVERT JUMPDEST PUSH32 0x4E487B7100000000000000000000000000000000000000000000000000000000 PUSH1 0x0 MSTORE PUSH1 0x41 PUSH1 0x4 MSTORE PUSH1 0x24 PUSH1 0x0 REVERT JUMPDEST PUSH2 0x127B DUP3 PUSH2 0x10CC JUMP JUMPDEST DUP2 ADD DUP2 DUP2 LT PUSH8 0xFFFFFFFFFFFFFFFF DUP3 GT OR ISZERO PUSH2 0x129A JUMPI PUSH2 0x1299 PUSH2 0x1243 JUMP JUMPDEST JUMPDEST DUP1 PUSH1 0x40 MSTORE POP POP POP JUMP JUMPDEST PUSH1 0x0 PUSH2 0x12AD PUSH2 0x1138 JUMP JUMPDEST SWAP1 POP PUSH2 0x12B9 DUP3 DUP3 PUSH2 0x1272 JUMP JUMPDEST SWAP2 SWAP1 POP JUMP JUMPDEST PUSH1 0x0 PUSH8 0xFFFFFFFFFFFFFFFF DUP3 GT ISZERO PUSH2 0x12D9 JUMPI PUSH2 0x12D8 PUSH2 0x1243 JUMP JUMPDEST JUMPDEST PUSH2 0x12E2 DUP3 PUSH2 0x10CC JUMP JUMPDEST SWAP1 POP PUSH1 0x20 DUP2 ADD SWAP1 POP SWAP2 SWAP1 POP JUMP JUMPDEST DUP3 DUP2 DUP4 CALLDATACOPY PUSH1 0x0 DUP4 DUP4 ADD MSTORE POP POP POP JUMP JUMPDEST PUSH1 0x0 PUSH2 0x1311 PUSH2 0x130C DUP5 PUSH2 0x12BE JUMP JUMPDEST PUSH2 0x12A3 JUMP JUMPDEST SWAP1 POP DUP3 DUP2 MSTORE PUSH1 0x20 DUP2 ADD DUP5 DUP5 DUP5 ADD GT ISZERO PUSH2 0x132D JUMPI PUSH2 0x132C PUSH2 0x123E JUMP JUMPDEST JUMPDEST PUSH2 0x1338 DUP5 DUP3 DUP6 PUSH2 0x12EF JUMP JUMPDEST POP SWAP4 SWAP3 POP POP POP JUMP JUMPDEST PUSH1 0x0 DUP3 PUSH1 0x1F DUP4 ADD SLT PUSH2 0x1355 JUMPI PUSH2 0x1354 PUSH2 0x1239 JUMP JUMPDEST JUMPDEST DUP2 CALLDATALOAD PUSH2 0x1365 DUP5 DUP3 PUSH1 0x20 DUP7 ADD PUSH2 0x12FE JUMP JUMPDEST SWAP2 POP POP SWAP3 SWAP2 POP POP JUMP JUMPDEST PUSH2 0x1377 DUP2 PUSH2 0x11C5 JUMP JUMPDEST DUP2 EQ PUSH2 0x1382 JUMPI PUSH1 0x0 DUP1 REVERT JUMPDEST POP JUMP JUMPDEST PUSH1 0x0 DUP2 CALLDATALOAD SWAP1 POP PUSH2 0x1394 DUP2 PUSH2 0x136E JUMP JUMPDEST SWAP3 SWAP2 POP POP JUMP JUMPDEST PUSH1 0x0 DUP1 PUSH1 0x0 PUSH1 0x60 DUP5 DUP7 SUB SLT ISZERO PUSH2 0x13B3 JUMPI PUSH2 0x13B2 PUSH2 0x1142 JUMP JUMPDEST JUMPDEST PUSH1 0x0 DUP5 ADD CALLDATALOAD PUSH8 0xFFFFFFFFFFFFFFFF DUP2 GT ISZERO PUSH2 0x13D1 JUMPI PUSH2 0x13D0 PUSH2 0x1147 JUMP JUMPDEST JUMPDEST PUSH2 0x13DD DUP7 DUP3 DUP8 ADD PUSH2 0x1340 JUMP JUMPDEST SWAP4 POP POP PUSH1 0x20 PUSH2 0x13EE DUP7 DUP3 DUP8 ADD PUSH2 0x1385 JUMP JUMPDEST SWAP3 POP POP PUSH1 0x40 DUP5 ADD CALLDATALOAD PUSH8 0xFFFFFFFFFFFFFFFF DUP2 GT ISZERO PUSH2 0x140F JUMPI PUSH2 0x140E PUSH2 0x1147 JUMP JUMPDEST JUMPDEST PUSH2 0x141B DUP7 DUP3 DUP8 ADD PUSH2 0x1340 JUMP JUMPDEST SWAP2 POP POP SWAP3 POP SWAP3 POP SWAP3 JUMP JUMPDEST PUSH1 0x0 DUP2 MLOAD SWAP1 POP SWAP2 SWAP1 POP JUMP JUMPDEST PUSH1 0x0 DUP3 DUP3 MSTORE PUSH1 0x20 DUP3 ADD SWAP1 POP SWAP3 SWAP2 POP POP JUMP JUMPDEST PUSH1 0x0 DUP2 SWAP1 POP PUSH1 0x20 DUP3 ADD SWAP1 POP SWAP2 SWAP1 POP JUMP JUMPDEST PUSH1 0x0 DUP3 DUP3 MSTORE PUSH1 0x20 DUP3 ADD SWAP1 POP SWAP3 SWAP2 POP POP JUMP JUMPDEST PUSH1 0x0 PUSH2 0x146D DUP3 PUSH2 0x107D JUMP JUMPDEST PUSH2 0x1477 DUP2 DUP6 PUSH2 0x1451 JUMP JUMPDEST SWAP4 POP PUSH2 0x1487 DUP2 DUP6 PUSH1 0x20 DUP7 ADD PUSH2 0x1099 JUMP JUMPDEST PUSH2 0x1490 DUP2 PUSH2 0x10CC JUMP JUMPDEST DUP5 ADD SWAP2 POP POP SWAP3 SWAP2 POP POP JUMP JUMPDEST PUSH2 0x14A4 DUP2 PUSH2 0x11C5 JUMP JUMPDEST DUP3 MSTORE POP POP JUMP JUMPDEST PUSH2 0x14B3 DUP2 PUSH2 0x1049 JUMP JUMPDEST DUP3 MSTORE POP POP JUMP JUMPDEST PUSH1 0x0 PUSH1 0x80 DUP4 ADD PUSH1 0x0 DUP4 ADD MLOAD DUP5 DUP3 SUB PUSH1 0x0 DUP7 ADD MSTORE PUSH2 0x14D6 DUP3 DUP3 PUSH2 0x1462 JUMP JUMPDEST SWAP2 POP POP PUSH1 0x20 DUP4 ADD MLOAD PUSH2 0x14EB PUSH1 0x20 DUP7 ADD DUP3 PUSH2 0x149B JUMP JUMPDEST POP PUSH1 0x40 DUP4 ADD MLOAD DUP5 DUP3 SUB PUSH1 0x40 DUP7 ADD MSTORE PUSH2 0x1503 DUP3 DUP3 PUSH2 0x1462 JUMP JUMPDEST SWAP2 POP POP PUSH1 0x60 DUP4 ADD MLOAD PUSH2 0x1518 PUSH1 0x60 DUP7 ADD DUP3 PUSH2 0x14AA JUMP JUMPDEST POP DUP1 SWAP2 POP POP SWAP3 SWAP2 POP POP JUMP JUMPDEST PUSH1 0x0 PUSH2 0x152F DUP4 DUP4 PUSH2 0x14B9 JUMP JUMPDEST SWAP1 POP SWAP3 SWAP2 POP POP JUMP JUMPDEST PUSH1 0x0 PUSH1 0x20 DUP3 ADD SWAP1 POP SWAP2 SWAP1 POP JUMP JUMPDEST PUSH1 0x0 PUSH2 0x154F DUP3 PUSH2 0x1425 JUMP JUMPDEST PUSH2 0x1559 DUP2 DUP6 PUSH2 0x1430 JUMP JUMPDEST SWAP4 POP DUP4 PUSH1 0x20 DUP3 MUL DUP6 ADD PUSH2 0x156B DUP6 PUSH2 0x1441 JUMP JUMPDEST DUP1 PUSH1 0x0 JUMPDEST DUP6 DUP2 LT ISZERO PUSH2 0x15A7 JUMPI DUP5 DUP5 SUB DUP10 MSTORE DUP2 MLOAD PUSH2 0x1588 DUP6 DUP3 PUSH2 0x1523 JUMP JUMPDEST SWAP5 POP PUSH2 0x1593 DUP4 PUSH2 0x1537 JUMP JUMPDEST SWAP3 POP PUSH1 0x20 DUP11 ADD SWAP10 POP POP PUSH1 0x1 DUP2 ADD SWAP1 POP PUSH2 0x156F JUMP JUMPDEST POP DUP3 SWAP8 POP DUP8 SWAP6 POP POP POP POP POP POP SWAP3 SWAP2 POP POP JUMP JUMPDEST PUSH1 0x0 PUSH1 0x20 DUP3 ADD SWAP1 POP DUP2 DUP2 SUB PUSH1 0x0 DUP4 ADD MSTORE PUSH2 0x15D3 DUP2 DUP5 PUSH2 0x1544 JUMP JUMPDEST SWAP1 POP SWAP3 SWAP2 POP POP JUMP JUMPDEST PUSH1 0x0 PUSH1 0x20 DUP3 DUP5 SUB SLT ISZERO PUSH2 0x15F1 JUMPI PUSH2 0x15F0 PUSH2 0x1142 JUMP JUMPDEST JUMPDEST PUSH1 0x0 DUP3 ADD CALLDATALOAD PUSH8 0xFFFFFFFFFFFFFFFF DUP2 GT ISZERO PUSH2 0x160F JUMPI PUSH2 0x160E PUSH2 0x1147 JUMP JUMPDEST JUMPDEST PUSH2 0x161B DUP5 DUP3 DUP6 ADD PUSH2 0x1340 JUMP JUMPDEST SWAP2 POP POP SWAP3 SWAP2 POP POP JUMP JUMPDEST PUSH1 0x0 DUP2 ISZERO ISZERO SWAP1 POP SWAP2 SWAP1 POP JUMP JUMPDEST PUSH2 0x1639 DUP2 PUSH2 0x1624 JUMP JUMPDEST DUP3 MSTORE POP POP JUMP JUMPDEST PUSH1 0x0 PUSH1 0x20 DUP3 ADD SWAP1 POP PUSH2 0x1654 PUSH1 0x0 DUP4 ADD DUP5 PUSH2 0x1630 JUMP JUMPDEST SWAP3 SWAP2 POP POP JUMP JUMPDEST PUSH32 0x4E487B7100000000000000000000000000000000000000000000000000000000 PUSH1 0x0 MSTORE PUSH1 0x22 PUSH1 0x4 MSTORE PUSH1 0x24 PUSH1 0x0 REVERT JUMPDEST PUSH1 0x0 PUSH1 0x2 DUP3 DIV SWAP1 POP PUSH1 0x1 DUP3 AND DUP1 PUSH2 0x16A1 JUMPI PUSH1 0x7F DUP3 AND SWAP2 POP JUMPDEST PUSH1 0x20 DUP3 LT DUP2 SUB PUSH2 0x16B4 JUMPI PUSH2 0x16B3 PUSH2 0x165A JUMP JUMPDEST JUMPDEST POP SWAP2 SWAP1 POP JUMP JUMPDEST PUSH32 0x4E487B7100000000000000000000000000000000000000000000000000000000 PUSH1 0x0 MSTORE PUSH1 0x11 PUSH1 0x4 MSTORE PUSH1 0x24 PUSH1 0x0 REVERT JUMPDEST PUSH1 0x0 PUSH2 0x16F4 DUP3 PUSH2 0x1049 JUMP JUMPDEST SWAP2 POP PUSH32 0xFFFFFFFFFFFFFFFFFFFFFFFFFFFFFFFFFFFFFFFFFFFFFFFFFFFFFFFFFFFFFFFF DUP3 SUB PUSH2 0x1726 JUMPI PUSH2 0x1725 PUSH2 0x16BA JUMP JUMPDEST JUMPDEST PUSH1 0x1 DUP3 ADD SWAP1 POP SWAP2 SWAP1 POP JUMP JUMPDEST PUSH1 0x0 DUP2 SWAP1 POP SWAP3 SWAP2 POP POP JUMP JUMPDEST PUSH1 0x0 PUSH2 0x1747 DUP3 PUSH2 0x107D JUMP JUMPDEST PUSH2 0x1751 DUP2 DUP6 PUSH2 0x1731 JUMP JUMPDEST SWAP4 POP PUSH2 0x1761 DUP2 DUP6 PUSH1 0x20 DUP7 ADD PUSH2 0x1099 JUMP JUMPDEST DUP1 DUP5 ADD SWAP2 POP POP SWAP3 SWAP2 POP POP JUMP JUMPDEST PUSH1 0x0 PUSH2 0x1779 DUP3 DUP5 PUSH2 0x173C JUMP JUMPDEST SWAP2 POP DUP2 SWAP1 POP SWAP3 SWAP2 POP POP JUMP JUMPDEST PUSH32 0x596F75206861766520616C726561647920566F74656421000000000000000000 PUSH1 0x0 DUP3 ADD MSTORE POP JUMP JUMPDEST PUSH1 0x0 PUSH2 0x17BA PUSH1 0x17 DUP4 PUSH2 0x1088 JUMP JUMPDEST SWAP2 POP PUSH2 0x17C5 DUP3 PUSH2 0x1784 JUMP JUMPDEST PUSH1 0x20 DUP3 ADD SWAP1 POP SWAP2 SWAP1 POP JUMP JUMPDEST PUSH1 0x0 PUSH1 0x20 DUP3 ADD SWAP1 POP DUP2 DUP2 SUB PUSH1 0x0 DUP4 ADD MSTORE PUSH2 0x17E9 DUP2 PUSH2 0x17AD JUMP JUMPDEST SWAP1 POP SWAP2 SWAP1 POP JUMP JUMPDEST PUSH32 0x53656E64206174206C6561737420302E35302065746865722100000000000000 PUSH1 0x0 DUP3 ADD MSTORE POP JUMP JUMPDEST PUSH1 0x0 PUSH2 0x1826 PUSH1 0x19 DUP4 PUSH2 0x1088 JUMP JUMPDEST SWAP2 POP PUSH2 0x1831 DUP3 PUSH2 0x17F0 JUMP JUMPDEST PUSH1 0x20 DUP3 ADD SWAP1 POP SWAP2 SWAP1 POP JUMP JUMPDEST PUSH1 0x0 PUSH1 0x20 DUP3 ADD SWAP1 POP DUP2 DUP2 SUB PUSH1 0x0 DUP4 ADD MSTORE PUSH2 0x1855 DUP2 PUSH2 0x1819 JUMP JUMPDEST SWAP1 POP SWAP2 SWAP1 POP JUMP JUMPDEST PUSH32 0x4E487B7100000000000000000000000000000000000000000000000000000000 PUSH1 0x0 MSTORE PUSH1 0x32 PUSH1 0x4 MSTORE PUSH1 0x24 PUSH1 0x0 REVERT INVALID LOG2 PUSH5 0x6970667358 0x22 SLT KECCAK256 PUSH31 0x37D5CFA5F0AB37B3BCD6766D7C04CF16D69DC264FFD04DE6310402D676E24E PUSH5 0x736F6C6343 STOP ADDMOD 0xD STOP CALLER LOG2 PUSH5 0x6970667358 0x22 SLT KECCAK256 0xC2 0xC 0xB1 0xBE PUSH29 0x66656F15916037F8EB9115D1E58FB902F607A20A5D670861EFF8856473 PUSH16 0x6C634300080D00330000000000000000 "},"gasEstimates":{"creation":{"codeDepositCost":"1957800","executionCost":"2069","totalCost":"1959869"},"external":{"createBallot(string,string,string,string)":"infinite","deployedBallots(uint256)":"infinite","getDeployedBallots()":"infinite"}},"methodIdentifiers":{"createBallot(string,string,string,string)":"05634063","deployedBallots(uint256)":"cdf74c3e","getDeployedBallots()":"9b935abf"}},"storageLayout":{"storage":[{"astId":5,"contract":"Ballot.sol:BallotFactory","label":"deployedBallots","offset":0,"slot":"0","type":"t_array(t_contract(Ballot)348)dyn_storage"}],"types":{"t_array(t_contract(Ballot)348)dyn_storage":{"base":"t_contract(Ballot)348","encoding":"dynamic_array","label":"contract Ballot[]","numberOfBytes":"32"},"t_contract(Ballot)348":{"encoding":"inplace","label":"contract Ballot","numberOfBytes":"20"}}},"userdoc":{"kind":"user","methods":{},"version":1}}