{"abi":[{"inputs":[{"internalType":"string","name":"creator","type":"string"},{"internalType":"string","name":"image","type":"string"},{"internalType":"string","name":"nameOfBallot","type":"string"},{"internalType":"string","name":"description","type":"string"}],"name":"createBallot","outputs":[],"stateMutability":"nonpayable","type":"function"},{"inputs":[{"internalType":"uint256","name":"","type":"uint256"}],"name":"deployedBallots","outputs":[{"internalType":"contract Ballot","name":"","type":"address"}],"stateMutability":"view","type":"function"},{"inputs":[],"name":"getDeployedBallots","outputs":[{"internalType":"contract Ballot[]","name":"","type":"address[]"}],"stateMutability":"view","type":"function"}],"devdoc":{"kind":"dev","methods":{},"version":1},"evm":{"assembly":"    /* \"Ballot.sol\":167:636  contract BallotFactory {... */\n  mstore(0x40, 0x80)\n  callvalue\n  dup1\n  iszero\n  tag_1\n  jumpi\n  0x00\n  dup1\n  revert\ntag_1:\n  pop\n  dataSize(sub_0)\n  dup1\n  dataOffset(sub_0)\n  0x00\n  codecopy\n  0x00\n  return\nstop\n\nsub_0: assembly {\n        /* \"Ballot.sol\":167:636  contract BallotFactory {... */\n      mstore(0x40, 0x80)\n      callvalue\n      dup1\n      iszero\n      tag_1\n      jumpi\n      0x00\n      dup1\n      revert\n    tag_1:\n      pop\n      jumpi(tag_2, lt(calldatasize, 0x04))\n      shr(0xe0, calldataload(0x00))\n      dup1\n      0x05634063\n      eq\n      tag_3\n      jumpi\n      dup1\n      0x9b935abf\n      eq\n      tag_4\n      jumpi\n      dup1\n      0xcdf74c3e\n      eq\n      tag_5\n      jumpi\n    tag_2:\n      0x00\n      dup1\n      revert\n        /* \"Ballot.sol\":237:516  function createBallot(string memory creator , string memory image , string memory nameOfBallot , string memory description) public {... */\n    tag_3:\n      tag_6\n      0x04\n      dup1\n      calldatasize\n      sub\n      dup2\n      add\n      swap1\n      tag_7\n      swap2\n      swap1\n      tag_8\n      jump\t// in\n    tag_7:\n      tag_9\n      jump\t// in\n    tag_6:\n      stop\n        /* \"Ballot.sol\":524:633  function getDeployedBallots() public view returns (Ballot[] memory) {... */\n    tag_4:\n      tag_10\n      tag_11\n      jump\t// in\n    tag_10:\n      mload(0x40)\n      tag_12\n      swap2\n      swap1\n      tag_13\n      jump\t// in\n    tag_12:\n      mload(0x40)\n      dup1\n      swap2\n      sub\n      swap1\n      return\n        /* \"Ballot.sol\":197:228  Ballot[] public deployedBallots */\n    tag_5:\n      tag_14\n      0x04\n      dup1\n      calldatasize\n      sub\n      dup2\n      add\n      swap1\n      tag_15\n      swap2\n      swap1\n      tag_16\n      jump\t// in\n    tag_15:\n      tag_17\n      jump\t// in\n    tag_14:\n      mload(0x40)\n      tag_18\n      swap2\n      swap1\n      tag_19\n      jump\t// in\n    tag_18:\n      mload(0x40)\n      dup1\n      swap2\n      sub\n      swap1\n      return\n        /* \"Ballot.sol\":237:516  function createBallot(string memory creator , string memory image , string memory nameOfBallot , string memory description) public {... */\n    tag_9:\n        /* \"Ballot.sol\":379:395  Ballot newBallot */\n      0x00\n        /* \"Ballot.sol\":409:416  creator */\n      dup5\n        /* \"Ballot.sol\":418:428  msg.sender */\n      caller\n        /* \"Ballot.sol\":431:436  image */\n      dup6\n        /* \"Ballot.sol\":439:451  nameOfBallot */\n      dup6\n        /* \"Ballot.sol\":454:465  description */\n      dup6\n        /* \"Ballot.sol\":398:466  new Ballot(creator, msg.sender , image , nameOfBallot , description) */\n      mload(0x40)\n      tag_21\n      swap1\n      tag_22\n      jump\t// in\n    tag_21:\n      tag_23\n      swap6\n      swap5\n      swap4\n      swap3\n      swap2\n      swap1\n      tag_24\n      jump\t// in\n    tag_23:\n      mload(0x40)\n      dup1\n      swap2\n      sub\n      swap1\n      0x00\n      create\n      dup1\n      iszero\n      dup1\n      iszero\n      tag_25\n      jumpi\n      returndatasize\n      0x00\n      dup1\n      returndatacopy\n      revert(0x00, returndatasize)\n    tag_25:\n      pop\n        /* \"Ballot.sol\":379:466  Ballot newBallot = new Ballot(creator, msg.sender , image , nameOfBallot , description) */\n      swap1\n      pop\n        /* \"Ballot.sol\":477:492  deployedBallots */\n      0x00\n        /* \"Ballot.sol\":498:507  newBallot */\n      dup2\n        /* \"Ballot.sol\":477:508  deployedBallots.push(newBallot) */\n      swap1\n      dup1\n      0x01\n      dup2\n      sload\n      add\n      dup1\n      dup3\n      sstore\n      dup1\n      swap2\n      pop\n      pop\n      0x01\n      swap1\n      sub\n      swap1\n      0x00\n      mstore\n      keccak256(0x00, 0x20)\n      add\n      0x00\n      swap1\n      swap2\n      swap1\n      swap2\n      swap1\n      swap2\n      0x0100\n      exp\n      dup2\n      sload\n      dup2\n      0xffffffffffffffffffffffffffffffffffffffff\n      mul\n      not\n      and\n      swap1\n      dup4\n      0xffffffffffffffffffffffffffffffffffffffff\n      and\n      mul\n      or\n      swap1\n      sstore\n      pop\n        /* \"Ballot.sol\":368:516  {... */\n      pop\n        /* \"Ballot.sol\":237:516  function createBallot(string memory creator , string memory image , string memory nameOfBallot , string memory description) public {... */\n      pop\n      pop\n      pop\n      pop\n      jump\t// out\n        /* \"Ballot.sol\":524:633  function getDeployedBallots() public view returns (Ballot[] memory) {... */\n    tag_11:\n        /* \"Ballot.sol\":575:590  Ballot[] memory */\n      0x60\n        /* \"Ballot.sol\":610:625  deployedBallots */\n      0x00\n        /* \"Ballot.sol\":603:625  return deployedBallots */\n      dup1\n      sload\n      dup1\n      0x20\n      mul\n      0x20\n      add\n      mload(0x40)\n      swap1\n      dup2\n      add\n      0x40\n      mstore\n      dup1\n      swap3\n      swap2\n      swap1\n      dup2\n      dup2\n      mstore\n      0x20\n      add\n      dup3\n      dup1\n      sload\n      dup1\n      iszero\n      tag_28\n      jumpi\n      0x20\n      mul\n      dup3\n      add\n      swap2\n      swap1\n      0x00\n      mstore\n      keccak256(0x00, 0x20)\n      swap1\n    tag_29:\n      dup2\n      0x00\n      swap1\n      sload\n      swap1\n      0x0100\n      exp\n      swap1\n      div\n      0xffffffffffffffffffffffffffffffffffffffff\n      and\n      0xffffffffffffffffffffffffffffffffffffffff\n      and\n      dup2\n      mstore\n      0x20\n      add\n      swap1\n      0x01\n      add\n      swap1\n      dup1\n      dup4\n      gt\n      tag_29\n      jumpi\n    tag_28:\n      pop\n      pop\n      pop\n      pop\n      pop\n      swap1\n      pop\n        /* \"Ballot.sol\":524:633  function getDeployedBallots() public view returns (Ballot[] memory) {... */\n      swap1\n      jump\t// out\n        /* \"Ballot.sol\":197:228  Ballot[] public deployedBallots */\n    tag_17:\n      0x00\n      dup2\n      dup2\n      sload\n      dup2\n      lt\n      tag_30\n      jumpi\n      0x00\n      dup1\n      revert\n    tag_30:\n      swap1\n      0x00\n      mstore\n      keccak256(0x00, 0x20)\n      add\n      0x00\n      swap2\n      pop\n      sload\n      swap1\n      0x0100\n      exp\n      swap1\n      div\n      0xffffffffffffffffffffffffffffffffffffffff\n      and\n      dup2\n      jump\t// out\n    tag_22:\n      dataSize(sub_0)\n      dup1\n      dataOffset(sub_0)\n      dup4\n      codecopy\n      add\n      swap1\n      jump\t// out\n        /* \"#utility.yul\":7:82   */\n    tag_32:\n        /* \"#utility.yul\":40:46   */\n      0x00\n        /* \"#utility.yul\":73:75   */\n      0x40\n        /* \"#utility.yul\":67:76   */\n      mload\n        /* \"#utility.yul\":57:76   */\n      swap1\n      pop\n        /* \"#utility.yul\":7:82   */\n      swap1\n      jump\t// out\n        /* \"#utility.yul\":88:205   */\n    tag_33:\n        /* \"#utility.yul\":197:198   */\n      0x00\n        /* \"#utility.yul\":194:195   */\n      dup1\n        /* \"#utility.yul\":187:199   */\n      revert\n        /* \"#utility.yul\":211:328   */\n    tag_34:\n        /* \"#utility.yul\":320:321   */\n      0x00\n        /* \"#utility.yul\":317:318   */\n      dup1\n        /* \"#utility.yul\":310:322   */\n      revert\n        /* \"#utility.yul\":334:451   */\n    tag_35:\n        /* \"#utility.yul\":443:444   */\n      0x00\n        /* \"#utility.yul\":440:441   */\n      dup1\n        /* \"#utility.yul\":433:445   */\n      revert\n        /* \"#utility.yul\":457:574   */\n    tag_36:\n        /* \"#utility.yul\":566:567   */\n      0x00\n        /* \"#utility.yul\":563:564   */\n      dup1\n        /* \"#utility.yul\":556:568   */\n      revert\n        /* \"#utility.yul\":580:682   */\n    tag_37:\n        /* \"#utility.yul\":621:627   */\n      0x00\n        /* \"#utility.yul\":672:674   */\n      0x1f\n        /* \"#utility.yul\":668:675   */\n      not\n        /* \"#utility.yul\":663:665   */\n      0x1f\n        /* \"#utility.yul\":656:661   */\n      dup4\n        /* \"#utility.yul\":652:666   */\n      add\n        /* \"#utility.yul\":648:676   */\n      and\n        /* \"#utility.yul\":638:676   */\n      swap1\n      pop\n        /* \"#utility.yul\":580:682   */\n      swap2\n      swap1\n      pop\n      jump\t// out\n        /* \"#utility.yul\":688:868   */\n    tag_38:\n        /* \"#utility.yul\":736:813   */\n      0x4e487b7100000000000000000000000000000000000000000000000000000000\n        /* \"#utility.yul\":733:734   */\n      0x00\n        /* \"#utility.yul\":726:814   */\n      mstore\n        /* \"#utility.yul\":833:837   */\n      0x41\n        /* \"#utility.yul\":830:831   */\n      0x04\n        /* \"#utility.yul\":823:838   */\n      mstore\n        /* \"#utility.yul\":857:861   */\n      0x24\n        /* \"#utility.yul\":854:855   */\n      0x00\n        /* \"#utility.yul\":847:862   */\n      revert\n        /* \"#utility.yul\":874:1155   */\n    tag_39:\n        /* \"#utility.yul\":957:984   */\n      tag_76\n        /* \"#utility.yul\":979:983   */\n      dup3\n        /* \"#utility.yul\":957:984   */\n      tag_37\n      jump\t// in\n    tag_76:\n        /* \"#utility.yul\":949:955   */\n      dup2\n        /* \"#utility.yul\":945:985   */\n      add\n        /* \"#utility.yul\":1087:1093   */\n      dup2\n        /* \"#utility.yul\":1075:1085   */\n      dup2\n        /* \"#utility.yul\":1072:1094   */\n      lt\n        /* \"#utility.yul\":1051:1069   */\n      0xffffffffffffffff\n        /* \"#utility.yul\":1039:1049   */\n      dup3\n        /* \"#utility.yul\":1036:1070   */\n      gt\n        /* \"#utility.yul\":1033:1095   */\n      or\n        /* \"#utility.yul\":1030:1118   */\n      iszero\n      tag_77\n      jumpi\n        /* \"#utility.yul\":1098:1116   */\n      tag_78\n      tag_38\n      jump\t// in\n    tag_78:\n        /* \"#utility.yul\":1030:1118   */\n    tag_77:\n        /* \"#utility.yul\":1138:1148   */\n      dup1\n        /* \"#utility.yul\":1134:1136   */\n      0x40\n        /* \"#utility.yul\":1127:1149   */\n      mstore\n        /* \"#utility.yul\":917:1155   */\n      pop\n        /* \"#utility.yul\":874:1155   */\n      pop\n      pop\n      jump\t// out\n        /* \"#utility.yul\":1161:1290   */\n    tag_40:\n        /* \"#utility.yul\":1195:1201   */\n      0x00\n        /* \"#utility.yul\":1222:1242   */\n      tag_80\n      tag_32\n      jump\t// in\n    tag_80:\n        /* \"#utility.yul\":1212:1242   */\n      swap1\n      pop\n        /* \"#utility.yul\":1251:1284   */\n      tag_81\n        /* \"#utility.yul\":1279:1283   */\n      dup3\n        /* \"#utility.yul\":1271:1277   */\n      dup3\n        /* \"#utility.yul\":1251:1284   */\n      tag_39\n      jump\t// in\n    tag_81:\n        /* \"#utility.yul\":1161:1290   */\n      swap2\n      swap1\n      pop\n      jump\t// out\n        /* \"#utility.yul\":1296:1604   */\n    tag_41:\n        /* \"#utility.yul\":1358:1362   */\n      0x00\n        /* \"#utility.yul\":1448:1466   */\n      0xffffffffffffffff\n        /* \"#utility.yul\":1440:1446   */\n      dup3\n        /* \"#utility.yul\":1437:1467   */\n      gt\n        /* \"#utility.yul\":1434:1490   */\n      iszero\n      tag_83\n      jumpi\n        /* \"#utility.yul\":1470:1488   */\n      tag_84\n      tag_38\n      jump\t// in\n    tag_84:\n        /* \"#utility.yul\":1434:1490   */\n    tag_83:\n        /* \"#utility.yul\":1508:1537   */\n      tag_85\n        /* \"#utility.yul\":1530:1536   */\n      dup3\n        /* \"#utility.yul\":1508:1537   */\n      tag_37\n      jump\t// in\n    tag_85:\n        /* \"#utility.yul\":1500:1537   */\n      swap1\n      pop\n        /* \"#utility.yul\":1592:1596   */\n      0x20\n        /* \"#utility.yul\":1586:1590   */\n      dup2\n        /* \"#utility.yul\":1582:1597   */\n      add\n        /* \"#utility.yul\":1574:1597   */\n      swap1\n      pop\n        /* \"#utility.yul\":1296:1604   */\n      swap2\n      swap1\n      pop\n      jump\t// out\n        /* \"#utility.yul\":1610:1764   */\n    tag_42:\n        /* \"#utility.yul\":1694:1700   */\n      dup3\n        /* \"#utility.yul\":1689:1692   */\n      dup2\n        /* \"#utility.yul\":1684:1687   */\n      dup4\n        /* \"#utility.yul\":1671:1701   */\n      calldatacopy\n        /* \"#utility.yul\":1756:1757   */\n      0x00\n        /* \"#utility.yul\":1747:1753   */\n      dup4\n        /* \"#utility.yul\":1742:1745   */\n      dup4\n        /* \"#utility.yul\":1738:1754   */\n      add\n        /* \"#utility.yul\":1731:1758   */\n      mstore\n        /* \"#utility.yul\":1610:1764   */\n      pop\n      pop\n      pop\n      jump\t// out\n        /* \"#utility.yul\":1770:2182   */\n    tag_43:\n        /* \"#utility.yul\":1848:1853   */\n      0x00\n        /* \"#utility.yul\":1873:1939   */\n      tag_88\n        /* \"#utility.yul\":1889:1938   */\n      tag_89\n        /* \"#utility.yul\":1931:1937   */\n      dup5\n        /* \"#utility.yul\":1889:1938   */\n      tag_41\n      jump\t// in\n    tag_89:\n        /* \"#utility.yul\":1873:1939   */\n      tag_40\n      jump\t// in\n    tag_88:\n        /* \"#utility.yul\":1864:1939   */\n      swap1\n      pop\n        /* \"#utility.yul\":1962:1968   */\n      dup3\n        /* \"#utility.yul\":1955:1960   */\n      dup2\n        /* \"#utility.yul\":1948:1969   */\n      mstore\n        /* \"#utility.yul\":2000:2004   */\n      0x20\n        /* \"#utility.yul\":1993:1998   */\n      dup2\n        /* \"#utility.yul\":1989:2005   */\n      add\n        /* \"#utility.yul\":2038:2041   */\n      dup5\n        /* \"#utility.yul\":2029:2035   */\n      dup5\n        /* \"#utility.yul\":2024:2027   */\n      dup5\n        /* \"#utility.yul\":2020:2036   */\n      add\n        /* \"#utility.yul\":2017:2042   */\n      gt\n        /* \"#utility.yul\":2014:2126   */\n      iszero\n      tag_90\n      jumpi\n        /* \"#utility.yul\":2045:2124   */\n      tag_91\n      tag_36\n      jump\t// in\n    tag_91:\n        /* \"#utility.yul\":2014:2126   */\n    tag_90:\n        /* \"#utility.yul\":2135:2176   */\n      tag_92\n        /* \"#utility.yul\":2169:2175   */\n      dup5\n        /* \"#utility.yul\":2164:2167   */\n      dup3\n        /* \"#utility.yul\":2159:2162   */\n      dup6\n        /* \"#utility.yul\":2135:2176   */\n      tag_42\n      jump\t// in\n    tag_92:\n        /* \"#utility.yul\":1854:2182   */\n      pop\n        /* \"#utility.yul\":1770:2182   */\n      swap4\n      swap3\n      pop\n      pop\n      pop\n      jump\t// out\n        /* \"#utility.yul\":2202:2542   */\n    tag_44:\n        /* \"#utility.yul\":2258:2263   */\n      0x00\n        /* \"#utility.yul\":2307:2310   */\n      dup3\n        /* \"#utility.yul\":2300:2304   */\n      0x1f\n        /* \"#utility.yul\":2292:2298   */\n      dup4\n        /* \"#utility.yul\":2288:2305   */\n      add\n        /* \"#utility.yul\":2284:2311   */\n      slt\n        /* \"#utility.yul\":2274:2396   */\n      tag_94\n      jumpi\n        /* \"#utility.yul\":2315:2394   */\n      tag_95\n      tag_35\n      jump\t// in\n    tag_95:\n        /* \"#utility.yul\":2274:2396   */\n    tag_94:\n        /* \"#utility.yul\":2432:2438   */\n      dup2\n        /* \"#utility.yul\":2419:2439   */\n      calldataload\n        /* \"#utility.yul\":2457:2536   */\n      tag_96\n        /* \"#utility.yul\":2532:2535   */\n      dup5\n        /* \"#utility.yul\":2524:2530   */\n      dup3\n        /* \"#utility.yul\":2517:2521   */\n      0x20\n        /* \"#utility.yul\":2509:2515   */\n      dup7\n        /* \"#utility.yul\":2505:2522   */\n      add\n        /* \"#utility.yul\":2457:2536   */\n      tag_43\n      jump\t// in\n    tag_96:\n        /* \"#utility.yul\":2448:2536   */\n      swap2\n      pop\n        /* \"#utility.yul\":2264:2542   */\n      pop\n        /* \"#utility.yul\":2202:2542   */\n      swap3\n      swap2\n      pop\n      pop\n      jump\t// out\n        /* \"#utility.yul\":2548:4033   */\n    tag_8:\n        /* \"#utility.yul\":2674:2680   */\n      0x00\n        /* \"#utility.yul\":2682:2688   */\n      dup1\n        /* \"#utility.yul\":2690:2696   */\n      0x00\n        /* \"#utility.yul\":2698:2704   */\n      dup1\n        /* \"#utility.yul\":2747:2750   */\n      0x80\n        /* \"#utility.yul\":2735:2744   */\n      dup6\n        /* \"#utility.yul\":2726:2733   */\n      dup8\n        /* \"#utility.yul\":2722:2745   */\n      sub\n        /* \"#utility.yul\":2718:2751   */\n      slt\n        /* \"#utility.yul\":2715:2835   */\n      iszero\n      tag_98\n      jumpi\n        /* \"#utility.yul\":2754:2833   */\n      tag_99\n      tag_33\n      jump\t// in\n    tag_99:\n        /* \"#utility.yul\":2715:2835   */\n    tag_98:\n        /* \"#utility.yul\":2902:2903   */\n      0x00\n        /* \"#utility.yul\":2891:2900   */\n      dup6\n        /* \"#utility.yul\":2887:2904   */\n      add\n        /* \"#utility.yul\":2874:2905   */\n      calldataload\n        /* \"#utility.yul\":2932:2950   */\n      0xffffffffffffffff\n        /* \"#utility.yul\":2924:2930   */\n      dup2\n        /* \"#utility.yul\":2921:2951   */\n      gt\n        /* \"#utility.yul\":2918:3035   */\n      iszero\n      tag_100\n      jumpi\n        /* \"#utility.yul\":2954:3033   */\n      tag_101\n      tag_34\n      jump\t// in\n    tag_101:\n        /* \"#utility.yul\":2918:3035   */\n    tag_100:\n        /* \"#utility.yul\":3059:3122   */\n      tag_102\n        /* \"#utility.yul\":3114:3121   */\n      dup8\n        /* \"#utility.yul\":3105:3111   */\n      dup3\n        /* \"#utility.yul\":3094:3103   */\n      dup9\n        /* \"#utility.yul\":3090:3112   */\n      add\n        /* \"#utility.yul\":3059:3122   */\n      tag_44\n      jump\t// in\n    tag_102:\n        /* \"#utility.yul\":3049:3122   */\n      swap5\n      pop\n        /* \"#utility.yul\":2845:3132   */\n      pop\n        /* \"#utility.yul\":3199:3201   */\n      0x20\n        /* \"#utility.yul\":3188:3197   */\n      dup6\n        /* \"#utility.yul\":3184:3202   */\n      add\n        /* \"#utility.yul\":3171:3203   */\n      calldataload\n        /* \"#utility.yul\":3230:3248   */\n      0xffffffffffffffff\n        /* \"#utility.yul\":3222:3228   */\n      dup2\n        /* \"#utility.yul\":3219:3249   */\n      gt\n        /* \"#utility.yul\":3216:3333   */\n      iszero\n      tag_103\n      jumpi\n        /* \"#utility.yul\":3252:3331   */\n      tag_104\n      tag_34\n      jump\t// in\n    tag_104:\n        /* \"#utility.yul\":3216:3333   */\n    tag_103:\n        /* \"#utility.yul\":3357:3420   */\n      tag_105\n        /* \"#utility.yul\":3412:3419   */\n      dup8\n        /* \"#utility.yul\":3403:3409   */\n      dup3\n        /* \"#utility.yul\":3392:3401   */\n      dup9\n        /* \"#utility.yul\":3388:3410   */\n      add\n        /* \"#utility.yul\":3357:3420   */\n      tag_44\n      jump\t// in\n    tag_105:\n        /* \"#utility.yul\":3347:3420   */\n      swap4\n      pop\n        /* \"#utility.yul\":3142:3430   */\n      pop\n        /* \"#utility.yul\":3497:3499   */\n      0x40\n        /* \"#utility.yul\":3486:3495   */\n      dup6\n        /* \"#utility.yul\":3482:3500   */\n      add\n        /* \"#utility.yul\":3469:3501   */\n      calldataload\n        /* \"#utility.yul\":3528:3546   */\n      0xffffffffffffffff\n        /* \"#utility.yul\":3520:3526   */\n      dup2\n        /* \"#utility.yul\":3517:3547   */\n      gt\n        /* \"#utility.yul\":3514:3631   */\n      iszero\n      tag_106\n      jumpi\n        /* \"#utility.yul\":3550:3629   */\n      tag_107\n      tag_34\n      jump\t// in\n    tag_107:\n        /* \"#utility.yul\":3514:3631   */\n    tag_106:\n        /* \"#utility.yul\":3655:3718   */\n      tag_108\n        /* \"#utility.yul\":3710:3717   */\n      dup8\n        /* \"#utility.yul\":3701:3707   */\n      dup3\n        /* \"#utility.yul\":3690:3699   */\n      dup9\n        /* \"#utility.yul\":3686:3708   */\n      add\n        /* \"#utility.yul\":3655:3718   */\n      tag_44\n      jump\t// in\n    tag_108:\n        /* \"#utility.yul\":3645:3718   */\n      swap3\n      pop\n        /* \"#utility.yul\":3440:3728   */\n      pop\n        /* \"#utility.yul\":3795:3797   */\n      0x60\n        /* \"#utility.yul\":3784:3793   */\n      dup6\n        /* \"#utility.yul\":3780:3798   */\n      add\n        /* \"#utility.yul\":3767:3799   */\n      calldataload\n        /* \"#utility.yul\":3826:3844   */\n      0xffffffffffffffff\n        /* \"#utility.yul\":3818:3824   */\n      dup2\n        /* \"#utility.yul\":3815:3845   */\n      gt\n        /* \"#utility.yul\":3812:3929   */\n      iszero\n      tag_109\n      jumpi\n        /* \"#utility.yul\":3848:3927   */\n      tag_110\n      tag_34\n      jump\t// in\n    tag_110:\n        /* \"#utility.yul\":3812:3929   */\n    tag_109:\n        /* \"#utility.yul\":3953:4016   */\n      tag_111\n        /* \"#utility.yul\":4008:4015   */\n      dup8\n        /* \"#utility.yul\":3999:4005   */\n      dup3\n        /* \"#utility.yul\":3988:3997   */\n      dup9\n        /* \"#utility.yul\":3984:4006   */\n      add\n        /* \"#utility.yul\":3953:4016   */\n      tag_44\n      jump\t// in\n    tag_111:\n        /* \"#utility.yul\":3943:4016   */\n      swap2\n      pop\n        /* \"#utility.yul\":3738:4026   */\n      pop\n        /* \"#utility.yul\":2548:4033   */\n      swap3\n      swap6\n      swap2\n      swap5\n      pop\n      swap3\n      pop\n      jump\t// out\n        /* \"#utility.yul\":4039:4167   */\n    tag_45:\n        /* \"#utility.yul\":4120:4126   */\n      0x00\n        /* \"#utility.yul\":4154:4159   */\n      dup2\n        /* \"#utility.yul\":4148:4160   */\n      mload\n        /* \"#utility.yul\":4138:4160   */\n      swap1\n      pop\n        /* \"#utility.yul\":4039:4167   */\n      swap2\n      swap1\n      pop\n      jump\t// out\n        /* \"#utility.yul\":4173:4357   */\n    tag_46:\n        /* \"#utility.yul\":4272:4283   */\n      0x00\n        /* \"#utility.yul\":4306:4312   */\n      dup3\n        /* \"#utility.yul\":4301:4304   */\n      dup3\n        /* \"#utility.yul\":4294:4313   */\n      mstore\n        /* \"#utility.yul\":4346:4350   */\n      0x20\n        /* \"#utility.yul\":4341:4344   */\n      dup3\n        /* \"#utility.yul\":4337:4351   */\n      add\n        /* \"#utility.yul\":4322:4351   */\n      swap1\n      pop\n        /* \"#utility.yul\":4173:4357   */\n      swap3\n      swap2\n      pop\n      pop\n      jump\t// out\n        /* \"#utility.yul\":4363:4509   */\n    tag_47:\n        /* \"#utility.yul\":4444:4448   */\n      0x00\n        /* \"#utility.yul\":4467:4470   */\n      dup2\n        /* \"#utility.yul\":4459:4470   */\n      swap1\n      pop\n        /* \"#utility.yul\":4497:4501   */\n      0x20\n        /* \"#utility.yul\":4492:4495   */\n      dup3\n        /* \"#utility.yul\":4488:4502   */\n      add\n        /* \"#utility.yul\":4480:4502   */\n      swap1\n      pop\n        /* \"#utility.yul\":4363:4509   */\n      swap2\n      swap1\n      pop\n      jump\t// out\n        /* \"#utility.yul\":4515:4641   */\n    tag_48:\n        /* \"#utility.yul\":4552:4559   */\n      0x00\n        /* \"#utility.yul\":4592:4634   */\n      0xffffffffffffffffffffffffffffffffffffffff\n        /* \"#utility.yul\":4585:4590   */\n      dup3\n        /* \"#utility.yul\":4581:4635   */\n      and\n        /* \"#utility.yul\":4570:4635   */\n      swap1\n      pop\n        /* \"#utility.yul\":4515:4641   */\n      swap2\n      swap1\n      pop\n      jump\t// out\n        /* \"#utility.yul\":4647:4707   */\n    tag_49:\n        /* \"#utility.yul\":4675:4678   */\n      0x00\n        /* \"#utility.yul\":4696:4701   */\n      dup2\n        /* \"#utility.yul\":4689:4701   */\n      swap1\n      pop\n        /* \"#utility.yul\":4647:4707   */\n      swap2\n      swap1\n      pop\n      jump\t// out\n        /* \"#utility.yul\":4713:4855   */\n    tag_50:\n        /* \"#utility.yul\":4763:4772   */\n      0x00\n        /* \"#utility.yul\":4796:4849   */\n      tag_118\n        /* \"#utility.yul\":4814:4848   */\n      tag_119\n        /* \"#utility.yul\":4823:4847   */\n      tag_120\n        /* \"#utility.yul\":4841:4846   */\n      dup5\n        /* \"#utility.yul\":4823:4847   */\n      tag_48\n      jump\t// in\n    tag_120:\n        /* \"#utility.yul\":4814:4848   */\n      tag_49\n      jump\t// in\n    tag_119:\n        /* \"#utility.yul\":4796:4849   */\n      tag_48\n      jump\t// in\n    tag_118:\n        /* \"#utility.yul\":4783:4849   */\n      swap1\n      pop\n        /* \"#utility.yul\":4713:4855   */\n      swap2\n      swap1\n      pop\n      jump\t// out\n        /* \"#utility.yul\":4861:4987   */\n    tag_51:\n        /* \"#utility.yul\":4911:4920   */\n      0x00\n        /* \"#utility.yul\":4944:4981   */\n      tag_122\n        /* \"#utility.yul\":4975:4980   */\n      dup3\n        /* \"#utility.yul\":4944:4981   */\n      tag_50\n      jump\t// in\n    tag_122:\n        /* \"#utility.yul\":4931:4981   */\n      swap1\n      pop\n        /* \"#utility.yul\":4861:4987   */\n      swap2\n      swap1\n      pop\n      jump\t// out\n        /* \"#utility.yul\":4993:5133   */\n    tag_52:\n        /* \"#utility.yul\":5057:5066   */\n      0x00\n        /* \"#utility.yul\":5090:5127   */\n      tag_124\n        /* \"#utility.yul\":5121:5126   */\n      dup3\n        /* \"#utility.yul\":5090:5127   */\n      tag_51\n      jump\t// in\n    tag_124:\n        /* \"#utility.yul\":5077:5127   */\n      swap1\n      pop\n        /* \"#utility.yul\":4993:5133   */\n      swap2\n      swap1\n      pop\n      jump\t// out\n        /* \"#utility.yul\":5139:5288   */\n    tag_53:\n        /* \"#utility.yul\":5230:5281   */\n      tag_126\n        /* \"#utility.yul\":5275:5280   */\n      dup2\n        /* \"#utility.yul\":5230:5281   */\n      tag_52\n      jump\t// in\n    tag_126:\n        /* \"#utility.yul\":5225:5228   */\n      dup3\n        /* \"#utility.yul\":5218:5282   */\n      mstore\n        /* \"#utility.yul\":5139:5288   */\n      pop\n      pop\n      jump\t// out\n        /* \"#utility.yul\":5294:5501   */\n    tag_54:\n        /* \"#utility.yul\":5377:5387   */\n      0x00\n        /* \"#utility.yul\":5398:5458   */\n      tag_128\n        /* \"#utility.yul\":5454:5457   */\n      dup4\n        /* \"#utility.yul\":5446:5452   */\n      dup4\n        /* \"#utility.yul\":5398:5458   */\n      tag_53\n      jump\t// in\n    tag_128:\n        /* \"#utility.yul\":5490:5494   */\n      0x20\n        /* \"#utility.yul\":5485:5488   */\n      dup4\n        /* \"#utility.yul\":5481:5495   */\n      add\n        /* \"#utility.yul\":5467:5495   */\n      swap1\n      pop\n        /* \"#utility.yul\":5294:5501   */\n      swap3\n      swap2\n      pop\n      pop\n      jump\t// out\n        /* \"#utility.yul\":5507:5634   */\n    tag_55:\n        /* \"#utility.yul\":5591:5595   */\n      0x00\n        /* \"#utility.yul\":5623:5627   */\n      0x20\n        /* \"#utility.yul\":5618:5621   */\n      dup3\n        /* \"#utility.yul\":5614:5628   */\n      add\n        /* \"#utility.yul\":5606:5628   */\n      swap1\n      pop\n        /* \"#utility.yul\":5507:5634   */\n      swap2\n      swap1\n      pop\n      jump\t// out\n        /* \"#utility.yul\":5678:6480   */\n    tag_56:\n        /* \"#utility.yul\":5811:5814   */\n      0x00\n        /* \"#utility.yul\":5840:5908   */\n      tag_131\n        /* \"#utility.yul\":5902:5907   */\n      dup3\n        /* \"#utility.yul\":5840:5908   */\n      tag_45\n      jump\t// in\n    tag_131:\n        /* \"#utility.yul\":5924:6010   */\n      tag_132\n        /* \"#utility.yul\":6003:6009   */\n      dup2\n        /* \"#utility.yul\":5998:6001   */\n      dup6\n        /* \"#utility.yul\":5924:6010   */\n      tag_46\n      jump\t// in\n    tag_132:\n        /* \"#utility.yul\":5917:6010   */\n      swap4\n      pop\n        /* \"#utility.yul\":6034:6104   */\n      tag_133\n        /* \"#utility.yul\":6098:6103   */\n      dup4\n        /* \"#utility.yul\":6034:6104   */\n      tag_47\n      jump\t// in\n    tag_133:\n        /* \"#utility.yul\":6127:6134   */\n      dup1\n        /* \"#utility.yul\":6158:6159   */\n      0x00\n        /* \"#utility.yul\":6143:6455   */\n    tag_134:\n        /* \"#utility.yul\":6168:6174   */\n      dup4\n        /* \"#utility.yul\":6165:6166   */\n      dup2\n        /* \"#utility.yul\":6162:6175   */\n      lt\n        /* \"#utility.yul\":6143:6455   */\n      iszero\n      tag_136\n      jumpi\n        /* \"#utility.yul\":6244:6250   */\n      dup2\n        /* \"#utility.yul\":6238:6251   */\n      mload\n        /* \"#utility.yul\":6271:6348   */\n      tag_137\n        /* \"#utility.yul\":6344:6347   */\n      dup9\n        /* \"#utility.yul\":6329:6342   */\n      dup3\n        /* \"#utility.yul\":6271:6348   */\n      tag_54\n      jump\t// in\n    tag_137:\n        /* \"#utility.yul\":6264:6348   */\n      swap8\n      pop\n        /* \"#utility.yul\":6371:6445   */\n      tag_138\n        /* \"#utility.yul\":6438:6444   */\n      dup4\n        /* \"#utility.yul\":6371:6445   */\n      tag_55\n      jump\t// in\n    tag_138:\n        /* \"#utility.yul\":6361:6445   */\n      swap3\n      pop\n        /* \"#utility.yul\":6203:6455   */\n      pop\n        /* \"#utility.yul\":6190:6191   */\n      0x01\n        /* \"#utility.yul\":6187:6188   */\n      dup2\n        /* \"#utility.yul\":6183:6192   */\n      add\n        /* \"#utility.yul\":6178:6192   */\n      swap1\n      pop\n        /* \"#utility.yul\":6143:6455   */\n      jump(tag_134)\n    tag_136:\n        /* \"#utility.yul\":6147:6161   */\n      pop\n        /* \"#utility.yul\":6471:6474   */\n      dup6\n        /* \"#utility.yul\":6464:6474   */\n      swap4\n      pop\n        /* \"#utility.yul\":5816:6480   */\n      pop\n      pop\n      pop\n        /* \"#utility.yul\":5678:6480   */\n      swap3\n      swap2\n      pop\n      pop\n      jump\t// out\n        /* \"#utility.yul\":6486:6887   */\n    tag_13:\n        /* \"#utility.yul\":6643:6647   */\n      0x00\n        /* \"#utility.yul\":6681:6683   */\n      0x20\n        /* \"#utility.yul\":6670:6679   */\n      dup3\n        /* \"#utility.yul\":6666:6684   */\n      add\n        /* \"#utility.yul\":6658:6684   */\n      swap1\n      pop\n        /* \"#utility.yul\":6730:6739   */\n      dup2\n        /* \"#utility.yul\":6724:6728   */\n      dup2\n        /* \"#utility.yul\":6720:6740   */\n      sub\n        /* \"#utility.yul\":6716:6717   */\n      0x00\n        /* \"#utility.yul\":6705:6714   */\n      dup4\n        /* \"#utility.yul\":6701:6718   */\n      add\n        /* \"#utility.yul\":6694:6741   */\n      mstore\n        /* \"#utility.yul\":6758:6880   */\n      tag_140\n        /* \"#utility.yul\":6875:6879   */\n      dup2\n        /* \"#utility.yul\":6866:6872   */\n      dup5\n        /* \"#utility.yul\":6758:6880   */\n      tag_56\n      jump\t// in\n    tag_140:\n        /* \"#utility.yul\":6750:6880   */\n      swap1\n      pop\n        /* \"#utility.yul\":6486:6887   */\n      swap3\n      swap2\n      pop\n      pop\n      jump\t// out\n        /* \"#utility.yul\":6893:6970   */\n    tag_57:\n        /* \"#utility.yul\":6930:6937   */\n      0x00\n        /* \"#utility.yul\":6959:6964   */\n      dup2\n        /* \"#utility.yul\":6948:6964   */\n      swap1\n      pop\n        /* \"#utility.yul\":6893:6970   */\n      swap2\n      swap1\n      pop\n      jump\t// out\n        /* \"#utility.yul\":6976:7098   */\n    tag_58:\n        /* \"#utility.yul\":7049:7073   */\n      tag_143\n        /* \"#utility.yul\":7067:7072   */\n      dup2\n        /* \"#utility.yul\":7049:7073   */\n      tag_57\n      jump\t// in\n    tag_143:\n        /* \"#utility.yul\":7042:7047   */\n      dup2\n        /* \"#utility.yul\":7039:7074   */\n      eq\n        /* \"#utility.yul\":7029:7092   */\n      tag_144\n      jumpi\n        /* \"#utility.yul\":7088:7089   */\n      0x00\n        /* \"#utility.yul\":7085:7086   */\n      dup1\n        /* \"#utility.yul\":7078:7090   */\n      revert\n        /* \"#utility.yul\":7029:7092   */\n    tag_144:\n        /* \"#utility.yul\":6976:7098   */\n      pop\n      jump\t// out\n        /* \"#utility.yul\":7104:7243   */\n    tag_59:\n        /* \"#utility.yul\":7150:7155   */\n      0x00\n        /* \"#utility.yul\":7188:7194   */\n      dup2\n        /* \"#utility.yul\":7175:7195   */\n      calldataload\n        /* \"#utility.yul\":7166:7195   */\n      swap1\n      pop\n        /* \"#utility.yul\":7204:7237   */\n      tag_146\n        /* \"#utility.yul\":7231:7236   */\n      dup2\n        /* \"#utility.yul\":7204:7237   */\n      tag_58\n      jump\t// in\n    tag_146:\n        /* \"#utility.yul\":7104:7243   */\n      swap3\n      swap2\n      pop\n      pop\n      jump\t// out\n        /* \"#utility.yul\":7249:7578   */\n    tag_16:\n        /* \"#utility.yul\":7308:7314   */\n      0x00\n        /* \"#utility.yul\":7357:7359   */\n      0x20\n        /* \"#utility.yul\":7345:7354   */\n      dup3\n        /* \"#utility.yul\":7336:7343   */\n      dup5\n        /* \"#utility.yul\":7332:7355   */\n      sub\n        /* \"#utility.yul\":7328:7360   */\n      slt\n        /* \"#utility.yul\":7325:7444   */\n      iszero\n      tag_148\n      jumpi\n        /* \"#utility.yul\":7363:7442   */\n      tag_149\n      tag_33\n      jump\t// in\n    tag_149:\n        /* \"#utility.yul\":7325:7444   */\n    tag_148:\n        /* \"#utility.yul\":7483:7484   */\n      0x00\n        /* \"#utility.yul\":7508:7561   */\n      tag_150\n        /* \"#utility.yul\":7553:7560   */\n      dup5\n        /* \"#utility.yul\":7544:7550   */\n      dup3\n        /* \"#utility.yul\":7533:7542   */\n      dup6\n        /* \"#utility.yul\":7529:7551   */\n      add\n        /* \"#utility.yul\":7508:7561   */\n      tag_59\n      jump\t// in\n    tag_150:\n        /* \"#utility.yul\":7498:7561   */\n      swap2\n      pop\n        /* \"#utility.yul\":7454:7571   */\n      pop\n        /* \"#utility.yul\":7249:7578   */\n      swap3\n      swap2\n      pop\n      pop\n      jump\t// out\n        /* \"#utility.yul\":7584:7743   */\n    tag_60:\n        /* \"#utility.yul\":7685:7736   */\n      tag_152\n        /* \"#utility.yul\":7730:7735   */\n      dup2\n        /* \"#utility.yul\":7685:7736   */\n      tag_52\n      jump\t// in\n    tag_152:\n        /* \"#utility.yul\":7680:7683   */\n      dup3\n        /* \"#utility.yul\":7673:7737   */\n      mstore\n        /* \"#utility.yul\":7584:7743   */\n      pop\n      pop\n      jump\t// out\n        /* \"#utility.yul\":7749:7999   */\n    tag_19:\n        /* \"#utility.yul\":7856:7860   */\n      0x00\n        /* \"#utility.yul\":7894:7896   */\n      0x20\n        /* \"#utility.yul\":7883:7892   */\n      dup3\n        /* \"#utility.yul\":7879:7897   */\n      add\n        /* \"#utility.yul\":7871:7897   */\n      swap1\n      pop\n        /* \"#utility.yul\":7907:7992   */\n      tag_154\n        /* \"#utility.yul\":7989:7990   */\n      0x00\n        /* \"#utility.yul\":7978:7987   */\n      dup4\n        /* \"#utility.yul\":7974:7991   */\n      add\n        /* \"#utility.yul\":7965:7971   */\n      dup5\n        /* \"#utility.yul\":7907:7992   */\n      tag_60\n      jump\t// in\n    tag_154:\n        /* \"#utility.yul\":7749:7999   */\n      swap3\n      swap2\n      pop\n      pop\n      jump\t// out\n        /* \"#utility.yul\":8005:8104   */\n    tag_61:\n        /* \"#utility.yul\":8057:8063   */\n      0x00\n        /* \"#utility.yul\":8091:8096   */\n      dup2\n        /* \"#utility.yul\":8085:8097   */\n      mload\n        /* \"#utility.yul\":8075:8097   */\n      swap1\n      pop\n        /* \"#utility.yul\":8005:8104   */\n      swap2\n      swap1\n      pop\n      jump\t// out\n        /* \"#utility.yul\":8110:8279   */\n    tag_62:\n        /* \"#utility.yul\":8194:8205   */\n      0x00\n        /* \"#utility.yul\":8228:8234   */\n      dup3\n        /* \"#utility.yul\":8223:8226   */\n      dup3\n        /* \"#utility.yul\":8216:8235   */\n      mstore\n        /* \"#utility.yul\":8268:8272   */\n      0x20\n        /* \"#utility.yul\":8263:8266   */\n      dup3\n        /* \"#utility.yul\":8259:8273   */\n      add\n        /* \"#utility.yul\":8244:8273   */\n      swap1\n      pop\n        /* \"#utility.yul\":8110:8279   */\n      swap3\n      swap2\n      pop\n      pop\n      jump\t// out\n        /* \"#utility.yul\":8285:8592   */\n    tag_63:\n        /* \"#utility.yul\":8353:8354   */\n      0x00\n        /* \"#utility.yul\":8363:8476   */\n    tag_158:\n        /* \"#utility.yul\":8377:8383   */\n      dup4\n        /* \"#utility.yul\":8374:8375   */\n      dup2\n        /* \"#utility.yul\":8371:8384   */\n      lt\n        /* \"#utility.yul\":8363:8476   */\n      iszero\n      tag_160\n      jumpi\n        /* \"#utility.yul\":8462:8463   */\n      dup1\n        /* \"#utility.yul\":8457:8460   */\n      dup3\n        /* \"#utility.yul\":8453:8464   */\n      add\n        /* \"#utility.yul\":8447:8465   */\n      mload\n        /* \"#utility.yul\":8443:8444   */\n      dup2\n        /* \"#utility.yul\":8438:8441   */\n      dup5\n        /* \"#utility.yul\":8434:8445   */\n      add\n        /* \"#utility.yul\":8427:8466   */\n      mstore\n        /* \"#utility.yul\":8399:8401   */\n      0x20\n        /* \"#utility.yul\":8396:8397   */\n      dup2\n        /* \"#utility.yul\":8392:8402   */\n      add\n        /* \"#utility.yul\":8387:8402   */\n      swap1\n      pop\n        /* \"#utility.yul\":8363:8476   */\n      jump(tag_158)\n    tag_160:\n        /* \"#utility.yul\":8494:8500   */\n      dup4\n        /* \"#utility.yul\":8491:8492   */\n      dup2\n        /* \"#utility.yul\":8488:8501   */\n      gt\n        /* \"#utility.yul\":8485:8586   */\n      iszero\n      tag_161\n      jumpi\n        /* \"#utility.yul\":8574:8575   */\n      0x00\n        /* \"#utility.yul\":8565:8571   */\n      dup5\n        /* \"#utility.yul\":8560:8563   */\n      dup5\n        /* \"#utility.yul\":8556:8572   */\n      add\n        /* \"#utility.yul\":8549:8576   */\n      mstore\n        /* \"#utility.yul\":8485:8586   */\n    tag_161:\n        /* \"#utility.yul\":8334:8592   */\n      pop\n        /* \"#utility.yul\":8285:8592   */\n      pop\n      pop\n      pop\n      jump\t// out\n        /* \"#utility.yul\":8598:8962   */\n    tag_64:\n        /* \"#utility.yul\":8686:8689   */\n      0x00\n        /* \"#utility.yul\":8714:8753   */\n      tag_163\n        /* \"#utility.yul\":8747:8752   */\n      dup3\n        /* \"#utility.yul\":8714:8753   */\n      tag_61\n      jump\t// in\n    tag_163:\n        /* \"#utility.yul\":8769:8840   */\n      tag_164\n        /* \"#utility.yul\":8833:8839   */\n      dup2\n        /* \"#utility.yul\":8828:8831   */\n      dup6\n        /* \"#utility.yul\":8769:8840   */\n      tag_62\n      jump\t// in\n    tag_164:\n        /* \"#utility.yul\":8762:8840   */\n      swap4\n      pop\n        /* \"#utility.yul\":8849:8901   */\n      tag_165\n        /* \"#utility.yul\":8894:8900   */\n      dup2\n        /* \"#utility.yul\":8889:8892   */\n      dup6\n        /* \"#utility.yul\":8882:8886   */\n      0x20\n        /* \"#utility.yul\":8875:8880   */\n      dup7\n        /* \"#utility.yul\":8871:8887   */\n      add\n        /* \"#utility.yul\":8849:8901   */\n      tag_63\n      jump\t// in\n    tag_165:\n        /* \"#utility.yul\":8926:8955   */\n      tag_166\n        /* \"#utility.yul\":8948:8954   */\n      dup2\n        /* \"#utility.yul\":8926:8955   */\n      tag_37\n      jump\t// in\n    tag_166:\n        /* \"#utility.yul\":8921:8924   */\n      dup5\n        /* \"#utility.yul\":8917:8956   */\n      add\n        /* \"#utility.yul\":8910:8956   */\n      swap2\n      pop\n        /* \"#utility.yul\":8690:8962   */\n      pop\n        /* \"#utility.yul\":8598:8962   */\n      swap3\n      swap2\n      pop\n      pop\n      jump\t// out\n        /* \"#utility.yul\":8968:9064   */\n    tag_65:\n        /* \"#utility.yul\":9005:9012   */\n      0x00\n        /* \"#utility.yul\":9034:9058   */\n      tag_168\n        /* \"#utility.yul\":9052:9057   */\n      dup3\n        /* \"#utility.yul\":9034:9058   */\n      tag_48\n      jump\t// in\n    tag_168:\n        /* \"#utility.yul\":9023:9058   */\n      swap1\n      pop\n        /* \"#utility.yul\":8968:9064   */\n      swap2\n      swap1\n      pop\n      jump\t// out\n        /* \"#utility.yul\":9070:9188   */\n    tag_66:\n        /* \"#utility.yul\":9157:9181   */\n      tag_170\n        /* \"#utility.yul\":9175:9180   */\n      dup2\n        /* \"#utility.yul\":9157:9181   */\n      tag_65\n      jump\t// in\n    tag_170:\n        /* \"#utility.yul\":9152:9155   */\n      dup3\n        /* \"#utility.yul\":9145:9182   */\n      mstore\n        /* \"#utility.yul\":9070:9188   */\n      pop\n      pop\n      jump\t// out\n        /* \"#utility.yul\":9194:10222   */\n    tag_24:\n        /* \"#utility.yul\":9479:9483   */\n      0x00\n        /* \"#utility.yul\":9517:9520   */\n      0xa0\n        /* \"#utility.yul\":9506:9515   */\n      dup3\n        /* \"#utility.yul\":9502:9521   */\n      add\n        /* \"#utility.yul\":9494:9521   */\n      swap1\n      pop\n        /* \"#utility.yul\":9567:9576   */\n      dup2\n        /* \"#utility.yul\":9561:9565   */\n      dup2\n        /* \"#utility.yul\":9557:9577   */\n      sub\n        /* \"#utility.yul\":9553:9554   */\n      0x00\n        /* \"#utility.yul\":9542:9551   */\n      dup4\n        /* \"#utility.yul\":9538:9555   */\n      add\n        /* \"#utility.yul\":9531:9578   */\n      mstore\n        /* \"#utility.yul\":9595:9673   */\n      tag_172\n        /* \"#utility.yul\":9668:9672   */\n      dup2\n        /* \"#utility.yul\":9659:9665   */\n      dup9\n        /* \"#utility.yul\":9595:9673   */\n      tag_64\n      jump\t// in\n    tag_172:\n        /* \"#utility.yul\":9587:9673   */\n      swap1\n      pop\n        /* \"#utility.yul\":9683:9755   */\n      tag_173\n        /* \"#utility.yul\":9751:9753   */\n      0x20\n        /* \"#utility.yul\":9740:9749   */\n      dup4\n        /* \"#utility.yul\":9736:9754   */\n      add\n        /* \"#utility.yul\":9727:9733   */\n      dup8\n        /* \"#utility.yul\":9683:9755   */\n      tag_66\n      jump\t// in\n    tag_173:\n        /* \"#utility.yul\":9802:9811   */\n      dup2\n        /* \"#utility.yul\":9796:9800   */\n      dup2\n        /* \"#utility.yul\":9792:9812   */\n      sub\n        /* \"#utility.yul\":9787:9789   */\n      0x40\n        /* \"#utility.yul\":9776:9785   */\n      dup4\n        /* \"#utility.yul\":9772:9790   */\n      add\n        /* \"#utility.yul\":9765:9813   */\n      mstore\n        /* \"#utility.yul\":9830:9908   */\n      tag_174\n        /* \"#utility.yul\":9903:9907   */\n      dup2\n        /* \"#utility.yul\":9894:9900   */\n      dup7\n        /* \"#utility.yul\":9830:9908   */\n      tag_64\n      jump\t// in\n    tag_174:\n        /* \"#utility.yul\":9822:9908   */\n      swap1\n      pop\n        /* \"#utility.yul\":9955:9964   */\n      dup2\n        /* \"#utility.yul\":9949:9953   */\n      dup2\n        /* \"#utility.yul\":9945:9965   */\n      sub\n        /* \"#utility.yul\":9940:9942   */\n      0x60\n        /* \"#utility.yul\":9929:9938   */\n      dup4\n        /* \"#utility.yul\":9925:9943   */\n      add\n        /* \"#utility.yul\":9918:9966   */\n      mstore\n        /* \"#utility.yul\":9983:10061   */\n      tag_175\n        /* \"#utility.yul\":10056:10060   */\n      dup2\n        /* \"#utility.yul\":10047:10053   */\n      dup6\n        /* \"#utility.yul\":9983:10061   */\n      tag_64\n      jump\t// in\n    tag_175:\n        /* \"#utility.yul\":9975:10061   */\n      swap1\n      pop\n        /* \"#utility.yul\":10109:10118   */\n      dup2\n        /* \"#utility.yul\":10103:10107   */\n      dup2\n        /* \"#utility.yul\":10099:10119   */\n      sub\n        /* \"#utility.yul\":10093:10096   */\n      0x80\n        /* \"#utility.yul\":10082:10091   */\n      dup4\n        /* \"#utility.yul\":10078:10097   */\n      add\n        /* \"#utility.yul\":10071:10120   */\n      mstore\n        /* \"#utility.yul\":10137:10215   */\n      tag_176\n        /* \"#utility.yul\":10210:10214   */\n      dup2\n        /* \"#utility.yul\":10201:10207   */\n      dup5\n        /* \"#utility.yul\":10137:10215   */\n      tag_64\n      jump\t// in\n    tag_176:\n        /* \"#utility.yul\":10129:10215   */\n      swap1\n      pop\n        /* \"#utility.yul\":9194:10222   */\n      swap7\n      swap6\n      pop\n      pop\n      pop\n      pop\n      pop\n      pop\n      jump\t// out\n    stop\n\n    sub_0: assembly {\n            /* \"Ballot.sol\":722:3828  contract Ballot{... */\n          mstore(0x40, 0x80)\n            /* \"Ballot.sol\":890:895  false */\n          0x00\n            /* \"Ballot.sol\":869:895  bool votingStarted = false */\n          0x02\n          exp(0x0100, 0x00)\n          dup2\n          sload\n          dup2\n          0xff\n          mul\n          not\n          and\n          swap1\n          dup4\n          iszero\n          iszero\n          mul\n          or\n          swap1\n          sstore\n          pop\n            /* \"Ballot.sol\":955:960  false */\n          0x00\n            /* \"Ballot.sol\":933:960  bool votingFinished = false */\n          0x02\n          exp(0x0100, 0x01)\n          dup2\n          sload\n          dup2\n          0xff\n          mul\n          not\n          and\n          swap1\n          dup4\n          iszero\n          iszero\n          mul\n          or\n          swap1\n          sstore\n          pop\n            /* \"Ballot.sol\":1675:1997  constructor(string memory creator ,address creatorId, string memory image , string memory nameOfBallot ,string memory desc){... */\n          callvalue\n          dup1\n          iszero\n          tag_1\n          jumpi\n          0x00\n          dup1\n          revert\n        tag_1:\n          pop\n          mload(0x40)\n          sub(codesize, bytecodeSize)\n          dup1\n          bytecodeSize\n          dup4\n          codecopy\n          dup2\n          dup2\n          add\n          0x40\n          mstore\n          dup2\n          add\n          swap1\n          tag_2\n          swap2\n          swap1\n          tag_3\n          jump\t// in\n        tag_2:\n            /* \"Ballot.sol\":1824:1831  creator */\n          dup5\n            /* \"Ballot.sol\":1809:1816  manager */\n          0x03\n            /* \"Ballot.sol\":1809:1821  manager.name */\n          0x00\n          add\n            /* \"Ballot.sol\":1809:1831  manager.name = creator */\n          swap1\n          dup1\n          mload\n          swap1\n          0x20\n          add\n          swap1\n          tag_6\n          swap3\n          swap2\n          swap1\n          tag_7\n          jump\t// in\n        tag_6:\n          pop\n            /* \"Ballot.sol\":1855:1864  creatorId */\n          dup4\n            /* \"Ballot.sol\":1842:1849  manager */\n          0x03\n            /* \"Ballot.sol\":1842:1852  manager.id */\n          0x01\n          add\n          0x00\n            /* \"Ballot.sol\":1842:1864  manager.id = creatorId */\n          0x0100\n          exp\n          dup2\n          sload\n          dup2\n          0xffffffffffffffffffffffffffffffffffffffff\n          mul\n          not\n          and\n          swap1\n          dup4\n          0xffffffffffffffffffffffffffffffffffffffff\n          and\n          mul\n          or\n          swap1\n          sstore\n          pop\n            /* \"Ballot.sol\":1891:1896  image */\n          dup3\n            /* \"Ballot.sol\":1875:1882  manager */\n          0x03\n            /* \"Ballot.sol\":1875:1888  manager.image */\n          0x02\n          add\n            /* \"Ballot.sol\":1875:1896  manager.image = image */\n          swap1\n          dup1\n          mload\n          swap1\n          0x20\n          add\n          swap1\n          tag_8\n          swap3\n          swap2\n          swap1\n          tag_7\n          jump\t// in\n        tag_8:\n          pop\n            /* \"Ballot.sol\":1923:1924  0 */\n          0x00\n            /* \"Ballot.sol\":1907:1914  manager */\n          0x03\n            /* \"Ballot.sol\":1907:1920  manager.votes */\n          dup1\n          add\n            /* \"Ballot.sol\":1907:1924  manager.votes = 0 */\n          dup2\n          swap1\n          sstore\n          pop\n            /* \"Ballot.sol\":1948:1960  nameOfBallot */\n          dup2\n            /* \"Ballot.sol\":1935:1945  ballotName */\n          0x00\n            /* \"Ballot.sol\":1935:1960  ballotName = nameOfBallot */\n          swap1\n          dup1\n          mload\n          swap1\n          0x20\n          add\n          swap1\n          tag_9\n          swap3\n          swap2\n          swap1\n          tag_7\n          jump\t// in\n        tag_9:\n          pop\n            /* \"Ballot.sol\":1985:1989  desc */\n          dup1\n            /* \"Ballot.sol\":1971:1982  description */\n          0x01\n            /* \"Ballot.sol\":1971:1989  description = desc */\n          swap1\n          dup1\n          mload\n          swap1\n          0x20\n          add\n          swap1\n          tag_10\n          swap3\n          swap2\n          swap1\n          tag_7\n          jump\t// in\n        tag_10:\n          pop\n            /* \"Ballot.sol\":1675:1997  constructor(string memory creator ,address creatorId, string memory image , string memory nameOfBallot ,string memory desc){... */\n          pop\n          pop\n          pop\n          pop\n          pop\n            /* \"Ballot.sol\":722:3828  contract Ballot{... */\n          jump(tag_11)\n        tag_7:\n          dup3\n          dup1\n          sload\n          tag_12\n          swap1\n          tag_13\n          jump\t// in\n        tag_12:\n          swap1\n          0x00\n          mstore\n          keccak256(0x00, 0x20)\n          swap1\n          0x1f\n          add\n          0x20\n          swap1\n          div\n          dup2\n          add\n          swap3\n          dup3\n          tag_15\n          jumpi\n          0x00\n          dup6\n          sstore\n          jump(tag_14)\n        tag_15:\n          dup3\n          0x1f\n          lt\n          tag_16\n          jumpi\n          dup1\n          mload\n          not(0xff)\n          and\n          dup4\n          dup1\n          add\n          or\n          dup6\n          sstore\n          jump(tag_14)\n        tag_16:\n          dup3\n          dup1\n          add\n          0x01\n          add\n          dup6\n          sstore\n          dup3\n          iszero\n          tag_14\n          jumpi\n          swap2\n          dup3\n          add\n        tag_17:\n          dup3\n          dup2\n          gt\n          iszero\n          tag_18\n          jumpi\n          dup3\n          mload\n          dup3\n          sstore\n          swap2\n          0x20\n          add\n          swap2\n          swap1\n          0x01\n          add\n          swap1\n          jump(tag_17)\n        tag_18:\n        tag_14:\n          pop\n          swap1\n          pop\n          tag_19\n          swap2\n          swap1\n          tag_20\n          jump\t// in\n        tag_19:\n          pop\n          swap1\n          jump\t// out\n        tag_20:\n        tag_21:\n          dup1\n          dup3\n          gt\n          iszero\n          tag_22\n          jumpi\n          0x00\n          dup2\n          0x00\n          swap1\n          sstore\n          pop\n          0x01\n          add\n          jump(tag_21)\n        tag_22:\n          pop\n          swap1\n          jump\t// out\n            /* \"#utility.yul\":7:82   */\n        tag_23:\n            /* \"#utility.yul\":40:46   */\n          0x00\n            /* \"#utility.yul\":73:75   */\n          0x40\n            /* \"#utility.yul\":67:76   */\n          mload\n            /* \"#utility.yul\":57:76   */\n          swap1\n          pop\n            /* \"#utility.yul\":7:82   */\n          swap1\n          jump\t// out\n            /* \"#utility.yul\":88:205   */\n        tag_24:\n            /* \"#utility.yul\":197:198   */\n          0x00\n            /* \"#utility.yul\":194:195   */\n          dup1\n            /* \"#utility.yul\":187:199   */\n          revert\n            /* \"#utility.yul\":211:328   */\n        tag_25:\n            /* \"#utility.yul\":320:321   */\n          0x00\n            /* \"#utility.yul\":317:318   */\n          dup1\n            /* \"#utility.yul\":310:322   */\n          revert\n            /* \"#utility.yul\":334:451   */\n        tag_26:\n            /* \"#utility.yul\":443:444   */\n          0x00\n            /* \"#utility.yul\":440:441   */\n          dup1\n            /* \"#utility.yul\":433:445   */\n          revert\n            /* \"#utility.yul\":457:574   */\n        tag_27:\n            /* \"#utility.yul\":566:567   */\n          0x00\n            /* \"#utility.yul\":563:564   */\n          dup1\n            /* \"#utility.yul\":556:568   */\n          revert\n            /* \"#utility.yul\":580:682   */\n        tag_28:\n            /* \"#utility.yul\":621:627   */\n          0x00\n            /* \"#utility.yul\":672:674   */\n          0x1f\n            /* \"#utility.yul\":668:675   */\n          not\n            /* \"#utility.yul\":663:665   */\n          0x1f\n            /* \"#utility.yul\":656:661   */\n          dup4\n            /* \"#utility.yul\":652:666   */\n          add\n            /* \"#utility.yul\":648:676   */\n          and\n            /* \"#utility.yul\":638:676   */\n          swap1\n          pop\n            /* \"#utility.yul\":580:682   */\n          swap2\n          swap1\n          pop\n          jump\t// out\n            /* \"#utility.yul\":688:868   */\n        tag_29:\n            /* \"#utility.yul\":736:813   */\n          0x4e487b7100000000000000000000000000000000000000000000000000000000\n            /* \"#utility.yul\":733:734   */\n          0x00\n            /* \"#utility.yul\":726:814   */\n          mstore\n            /* \"#utility.yul\":833:837   */\n          0x41\n            /* \"#utility.yul\":830:831   */\n          0x04\n            /* \"#utility.yul\":823:838   */\n          mstore\n            /* \"#utility.yul\":857:861   */\n          0x24\n            /* \"#utility.yul\":854:855   */\n          0x00\n            /* \"#utility.yul\":847:862   */\n          revert\n            /* \"#utility.yul\":874:1155   */\n        tag_30:\n            /* \"#utility.yul\":957:984   */\n          tag_50\n            /* \"#utility.yul\":979:983   */\n          dup3\n            /* \"#utility.yul\":957:984   */\n          tag_28\n          jump\t// in\n        tag_50:\n            /* \"#utility.yul\":949:955   */\n          dup2\n            /* \"#utility.yul\":945:985   */\n          add\n            /* \"#utility.yul\":1087:1093   */\n          dup2\n            /* \"#utility.yul\":1075:1085   */\n          dup2\n            /* \"#utility.yul\":1072:1094   */\n          lt\n            /* \"#utility.yul\":1051:1069   */\n          0xffffffffffffffff\n            /* \"#utility.yul\":1039:1049   */\n          dup3\n            /* \"#utility.yul\":1036:1070   */\n          gt\n            /* \"#utility.yul\":1033:1095   */\n          or\n            /* \"#utility.yul\":1030:1118   */\n          iszero\n          tag_51\n          jumpi\n            /* \"#utility.yul\":1098:1116   */\n          tag_52\n          tag_29\n          jump\t// in\n        tag_52:\n            /* \"#utility.yul\":1030:1118   */\n        tag_51:\n            /* \"#utility.yul\":1138:1148   */\n          dup1\n            /* \"#utility.yul\":1134:1136   */\n          0x40\n            /* \"#utility.yul\":1127:1149   */\n          mstore\n            /* \"#utility.yul\":917:1155   */\n          pop\n            /* \"#utility.yul\":874:1155   */\n          pop\n          pop\n          jump\t// out\n            /* \"#utility.yul\":1161:1290   */\n        tag_31:\n            /* \"#utility.yul\":1195:1201   */\n          0x00\n            /* \"#utility.yul\":1222:1242   */\n          tag_54\n          tag_23\n          jump\t// in\n        tag_54:\n            /* \"#utility.yul\":1212:1242   */\n          swap1\n          pop\n            /* \"#utility.yul\":1251:1284   */\n          tag_55\n            /* \"#utility.yul\":1279:1283   */\n          dup3\n            /* \"#utility.yul\":1271:1277   */\n          dup3\n            /* \"#utility.yul\":1251:1284   */\n          tag_30\n          jump\t// in\n        tag_55:\n            /* \"#utility.yul\":1161:1290   */\n          swap2\n          swap1\n          pop\n          jump\t// out\n            /* \"#utility.yul\":1296:1604   */\n        tag_32:\n            /* \"#utility.yul\":1358:1362   */\n          0x00\n            /* \"#utility.yul\":1448:1466   */\n          0xffffffffffffffff\n            /* \"#utility.yul\":1440:1446   */\n          dup3\n            /* \"#utility.yul\":1437:1467   */\n          gt\n            /* \"#utility.yul\":1434:1490   */\n          iszero\n          tag_57\n          jumpi\n            /* \"#utility.yul\":1470:1488   */\n          tag_58\n          tag_29\n          jump\t// in\n        tag_58:\n            /* \"#utility.yul\":1434:1490   */\n        tag_57:\n            /* \"#utility.yul\":1508:1537   */\n          tag_59\n            /* \"#utility.yul\":1530:1536   */\n          dup3\n            /* \"#utility.yul\":1508:1537   */\n          tag_28\n          jump\t// in\n        tag_59:\n            /* \"#utility.yul\":1500:1537   */\n          swap1\n          pop\n            /* \"#utility.yul\":1592:1596   */\n          0x20\n            /* \"#utility.yul\":1586:1590   */\n          dup2\n            /* \"#utility.yul\":1582:1597   */\n          add\n            /* \"#utility.yul\":1574:1597   */\n          swap1\n          pop\n            /* \"#utility.yul\":1296:1604   */\n          swap2\n          swap1\n          pop\n          jump\t// out\n            /* \"#utility.yul\":1610:1917   */\n        tag_33:\n            /* \"#utility.yul\":1678:1679   */\n          0x00\n            /* \"#utility.yul\":1688:1801   */\n        tag_61:\n            /* \"#utility.yul\":1702:1708   */\n          dup4\n            /* \"#utility.yul\":1699:1700   */\n          dup2\n            /* \"#utility.yul\":1696:1709   */\n          lt\n            /* \"#utility.yul\":1688:1801   */\n          iszero\n          tag_63\n          jumpi\n            /* \"#utility.yul\":1787:1788   */\n          dup1\n            /* \"#utility.yul\":1782:1785   */\n          dup3\n            /* \"#utility.yul\":1778:1789   */\n          add\n            /* \"#utility.yul\":1772:1790   */\n          mload\n            /* \"#utility.yul\":1768:1769   */\n          dup2\n            /* \"#utility.yul\":1763:1766   */\n          dup5\n            /* \"#utility.yul\":1759:1770   */\n          add\n            /* \"#utility.yul\":1752:1791   */\n          mstore\n            /* \"#utility.yul\":1724:1726   */\n          0x20\n            /* \"#utility.yul\":1721:1722   */\n          dup2\n            /* \"#utility.yul\":1717:1727   */\n          add\n            /* \"#utility.yul\":1712:1727   */\n          swap1\n          pop\n            /* \"#utility.yul\":1688:1801   */\n          jump(tag_61)\n        tag_63:\n            /* \"#utility.yul\":1819:1825   */\n          dup4\n            /* \"#utility.yul\":1816:1817   */\n          dup2\n            /* \"#utility.yul\":1813:1826   */\n          gt\n            /* \"#utility.yul\":1810:1911   */\n          iszero\n          tag_64\n          jumpi\n            /* \"#utility.yul\":1899:1900   */\n          0x00\n            /* \"#utility.yul\":1890:1896   */\n          dup5\n            /* \"#utility.yul\":1885:1888   */\n          dup5\n            /* \"#utility.yul\":1881:1897   */\n          add\n            /* \"#utility.yul\":1874:1901   */\n          mstore\n            /* \"#utility.yul\":1810:1911   */\n        tag_64:\n            /* \"#utility.yul\":1659:1917   */\n          pop\n            /* \"#utility.yul\":1610:1917   */\n          pop\n          pop\n          pop\n          jump\t// out\n            /* \"#utility.yul\":1923:2344   */\n        tag_34:\n            /* \"#utility.yul\":2012:2017   */\n          0x00\n            /* \"#utility.yul\":2037:2103   */\n          tag_66\n            /* \"#utility.yul\":2053:2102   */\n          tag_67\n            /* \"#utility.yul\":2095:2101   */\n          dup5\n            /* \"#utility.yul\":2053:2102   */\n          tag_32\n          jump\t// in\n        tag_67:\n            /* \"#utility.yul\":2037:2103   */\n          tag_31\n          jump\t// in\n        tag_66:\n            /* \"#utility.yul\":2028:2103   */\n          swap1\n          pop\n            /* \"#utility.yul\":2126:2132   */\n          dup3\n            /* \"#utility.yul\":2119:2124   */\n          dup2\n            /* \"#utility.yul\":2112:2133   */\n          mstore\n            /* \"#utility.yul\":2164:2168   */\n          0x20\n            /* \"#utility.yul\":2157:2162   */\n          dup2\n            /* \"#utility.yul\":2153:2169   */\n          add\n            /* \"#utility.yul\":2202:2205   */\n          dup5\n            /* \"#utility.yul\":2193:2199   */\n          dup5\n            /* \"#utility.yul\":2188:2191   */\n          dup5\n            /* \"#utility.yul\":2184:2200   */\n          add\n            /* \"#utility.yul\":2181:2206   */\n          gt\n            /* \"#utility.yul\":2178:2290   */\n          iszero\n          tag_68\n          jumpi\n            /* \"#utility.yul\":2209:2288   */\n          tag_69\n          tag_27\n          jump\t// in\n        tag_69:\n            /* \"#utility.yul\":2178:2290   */\n        tag_68:\n            /* \"#utility.yul\":2299:2338   */\n          tag_70\n            /* \"#utility.yul\":2331:2337   */\n          dup5\n            /* \"#utility.yul\":2326:2329   */\n          dup3\n            /* \"#utility.yul\":2321:2324   */\n          dup6\n            /* \"#utility.yul\":2299:2338   */\n          tag_33\n          jump\t// in\n        tag_70:\n            /* \"#utility.yul\":2018:2344   */\n          pop\n            /* \"#utility.yul\":1923:2344   */\n          swap4\n          swap3\n          pop\n          pop\n          pop\n          jump\t// out\n            /* \"#utility.yul\":2364:2719   */\n        tag_35:\n            /* \"#utility.yul\":2431:2436   */\n          0x00\n            /* \"#utility.yul\":2480:2483   */\n          dup3\n            /* \"#utility.yul\":2473:2477   */\n          0x1f\n            /* \"#utility.yul\":2465:2471   */\n          dup4\n            /* \"#utility.yul\":2461:2478   */\n          add\n            /* \"#utility.yul\":2457:2484   */\n          slt\n            /* \"#utility.yul\":2447:2569   */\n          tag_72\n          jumpi\n            /* \"#utility.yul\":2488:2567   */\n          tag_73\n          tag_26\n          jump\t// in\n        tag_73:\n            /* \"#utility.yul\":2447:2569   */\n        tag_72:\n            /* \"#utility.yul\":2598:2604   */\n          dup2\n            /* \"#utility.yul\":2592:2605   */\n          mload\n            /* \"#utility.yul\":2623:2713   */\n          tag_74\n            /* \"#utility.yul\":2709:2712   */\n          dup5\n            /* \"#utility.yul\":2701:2707   */\n          dup3\n            /* \"#utility.yul\":2694:2698   */\n          0x20\n            /* \"#utility.yul\":2686:2692   */\n          dup7\n            /* \"#utility.yul\":2682:2699   */\n          add\n            /* \"#utility.yul\":2623:2713   */\n          tag_34\n          jump\t// in\n        tag_74:\n            /* \"#utility.yul\":2614:2713   */\n          swap2\n          pop\n            /* \"#utility.yul\":2437:2719   */\n          pop\n            /* \"#utility.yul\":2364:2719   */\n          swap3\n          swap2\n          pop\n          pop\n          jump\t// out\n            /* \"#utility.yul\":2725:2851   */\n        tag_36:\n            /* \"#utility.yul\":2762:2769   */\n          0x00\n            /* \"#utility.yul\":2802:2844   */\n          0xffffffffffffffffffffffffffffffffffffffff\n            /* \"#utility.yul\":2795:2800   */\n          dup3\n            /* \"#utility.yul\":2791:2845   */\n          and\n            /* \"#utility.yul\":2780:2845   */\n          swap1\n          pop\n            /* \"#utility.yul\":2725:2851   */\n          swap2\n          swap1\n          pop\n          jump\t// out\n            /* \"#utility.yul\":2857:2953   */\n        tag_37:\n            /* \"#utility.yul\":2894:2901   */\n          0x00\n            /* \"#utility.yul\":2923:2947   */\n          tag_77\n            /* \"#utility.yul\":2941:2946   */\n          dup3\n            /* \"#utility.yul\":2923:2947   */\n          tag_36\n          jump\t// in\n        tag_77:\n            /* \"#utility.yul\":2912:2947   */\n          swap1\n          pop\n            /* \"#utility.yul\":2857:2953   */\n          swap2\n          swap1\n          pop\n          jump\t// out\n            /* \"#utility.yul\":2959:3081   */\n        tag_38:\n            /* \"#utility.yul\":3032:3056   */\n          tag_79\n            /* \"#utility.yul\":3050:3055   */\n          dup2\n            /* \"#utility.yul\":3032:3056   */\n          tag_37\n          jump\t// in\n        tag_79:\n            /* \"#utility.yul\":3025:3030   */\n          dup2\n            /* \"#utility.yul\":3022:3057   */\n          eq\n            /* \"#utility.yul\":3012:3075   */\n          tag_80\n          jumpi\n            /* \"#utility.yul\":3071:3072   */\n          0x00\n            /* \"#utility.yul\":3068:3069   */\n          dup1\n            /* \"#utility.yul\":3061:3073   */\n          revert\n            /* \"#utility.yul\":3012:3075   */\n        tag_80:\n            /* \"#utility.yul\":2959:3081   */\n          pop\n          jump\t// out\n            /* \"#utility.yul\":3087:3230   */\n        tag_39:\n            /* \"#utility.yul\":3144:3149   */\n          0x00\n            /* \"#utility.yul\":3175:3181   */\n          dup2\n            /* \"#utility.yul\":3169:3182   */\n          mload\n            /* \"#utility.yul\":3160:3182   */\n          swap1\n          pop\n            /* \"#utility.yul\":3191:3224   */\n          tag_82\n            /* \"#utility.yul\":3218:3223   */\n          dup2\n            /* \"#utility.yul\":3191:3224   */\n          tag_38\n          jump\t// in\n        tag_82:\n            /* \"#utility.yul\":3087:3230   */\n          swap3\n          swap2\n          pop\n          pop\n          jump\t// out\n            /* \"#utility.yul\":3236:4905   */\n        tag_3:\n            /* \"#utility.yul\":3382:3388   */\n          0x00\n            /* \"#utility.yul\":3390:3396   */\n          dup1\n            /* \"#utility.yul\":3398:3404   */\n          0x00\n            /* \"#utility.yul\":3406:3412   */\n          dup1\n            /* \"#utility.yul\":3414:3420   */\n          0x00\n            /* \"#utility.yul\":3463:3466   */\n          0xa0\n            /* \"#utility.yul\":3451:3460   */\n          dup7\n            /* \"#utility.yul\":3442:3449   */\n          dup9\n            /* \"#utility.yul\":3438:3461   */\n          sub\n            /* \"#utility.yul\":3434:3467   */\n          slt\n            /* \"#utility.yul\":3431:3551   */\n          iszero\n          tag_84\n          jumpi\n            /* \"#utility.yul\":3470:3549   */\n          tag_85\n          tag_24\n          jump\t// in\n        tag_85:\n            /* \"#utility.yul\":3431:3551   */\n        tag_84:\n            /* \"#utility.yul\":3611:3612   */\n          0x00\n            /* \"#utility.yul\":3600:3609   */\n          dup7\n            /* \"#utility.yul\":3596:3613   */\n          add\n            /* \"#utility.yul\":3590:3614   */\n          mload\n            /* \"#utility.yul\":3641:3659   */\n          0xffffffffffffffff\n            /* \"#utility.yul\":3633:3639   */\n          dup2\n            /* \"#utility.yul\":3630:3660   */\n          gt\n            /* \"#utility.yul\":3627:3744   */\n          iszero\n          tag_86\n          jumpi\n            /* \"#utility.yul\":3663:3742   */\n          tag_87\n          tag_25\n          jump\t// in\n        tag_87:\n            /* \"#utility.yul\":3627:3744   */\n        tag_86:\n            /* \"#utility.yul\":3768:3842   */\n          tag_88\n            /* \"#utility.yul\":3834:3841   */\n          dup9\n            /* \"#utility.yul\":3825:3831   */\n          dup3\n            /* \"#utility.yul\":3814:3823   */\n          dup10\n            /* \"#utility.yul\":3810:3832   */\n          add\n            /* \"#utility.yul\":3768:3842   */\n          tag_35\n          jump\t// in\n        tag_88:\n            /* \"#utility.yul\":3758:3842   */\n          swap6\n          pop\n            /* \"#utility.yul\":3561:3852   */\n          pop\n            /* \"#utility.yul\":3891:3893   */\n          0x20\n            /* \"#utility.yul\":3917:3981   */\n          tag_89\n            /* \"#utility.yul\":3973:3980   */\n          dup9\n            /* \"#utility.yul\":3964:3970   */\n          dup3\n            /* \"#utility.yul\":3953:3962   */\n          dup10\n            /* \"#utility.yul\":3949:3971   */\n          add\n            /* \"#utility.yul\":3917:3981   */\n          tag_39\n          jump\t// in\n        tag_89:\n            /* \"#utility.yul\":3907:3981   */\n          swap5\n          pop\n            /* \"#utility.yul\":3862:3991   */\n          pop\n            /* \"#utility.yul\":4051:4053   */\n          0x40\n            /* \"#utility.yul\":4040:4049   */\n          dup7\n            /* \"#utility.yul\":4036:4054   */\n          add\n            /* \"#utility.yul\":4030:4055   */\n          mload\n            /* \"#utility.yul\":4082:4100   */\n          0xffffffffffffffff\n            /* \"#utility.yul\":4074:4080   */\n          dup2\n            /* \"#utility.yul\":4071:4101   */\n          gt\n            /* \"#utility.yul\":4068:4185   */\n          iszero\n          tag_90\n          jumpi\n            /* \"#utility.yul\":4104:4183   */\n          tag_91\n          tag_25\n          jump\t// in\n        tag_91:\n            /* \"#utility.yul\":4068:4185   */\n        tag_90:\n            /* \"#utility.yul\":4209:4283   */\n          tag_92\n            /* \"#utility.yul\":4275:4282   */\n          dup9\n            /* \"#utility.yul\":4266:4272   */\n          dup3\n            /* \"#utility.yul\":4255:4264   */\n          dup10\n            /* \"#utility.yul\":4251:4273   */\n          add\n            /* \"#utility.yul\":4209:4283   */\n          tag_35\n          jump\t// in\n        tag_92:\n            /* \"#utility.yul\":4199:4283   */\n          swap4\n          pop\n            /* \"#utility.yul\":4001:4293   */\n          pop\n            /* \"#utility.yul\":4353:4355   */\n          0x60\n            /* \"#utility.yul\":4342:4351   */\n          dup7\n            /* \"#utility.yul\":4338:4356   */\n          add\n            /* \"#utility.yul\":4332:4357   */\n          mload\n            /* \"#utility.yul\":4384:4402   */\n          0xffffffffffffffff\n            /* \"#utility.yul\":4376:4382   */\n          dup2\n            /* \"#utility.yul\":4373:4403   */\n          gt\n            /* \"#utility.yul\":4370:4487   */\n          iszero\n          tag_93\n          jumpi\n            /* \"#utility.yul\":4406:4485   */\n          tag_94\n          tag_25\n          jump\t// in\n        tag_94:\n            /* \"#utility.yul\":4370:4487   */\n        tag_93:\n            /* \"#utility.yul\":4511:4585   */\n          tag_95\n            /* \"#utility.yul\":4577:4584   */\n          dup9\n            /* \"#utility.yul\":4568:4574   */\n          dup3\n            /* \"#utility.yul\":4557:4566   */\n          dup10\n            /* \"#utility.yul\":4553:4575   */\n          add\n            /* \"#utility.yul\":4511:4585   */\n          tag_35\n          jump\t// in\n        tag_95:\n            /* \"#utility.yul\":4501:4585   */\n          swap3\n          pop\n            /* \"#utility.yul\":4303:4595   */\n          pop\n            /* \"#utility.yul\":4655:4658   */\n          0x80\n            /* \"#utility.yul\":4644:4653   */\n          dup7\n            /* \"#utility.yul\":4640:4659   */\n          add\n            /* \"#utility.yul\":4634:4660   */\n          mload\n            /* \"#utility.yul\":4687:4705   */\n          0xffffffffffffffff\n            /* \"#utility.yul\":4679:4685   */\n          dup2\n            /* \"#utility.yul\":4676:4706   */\n          gt\n            /* \"#utility.yul\":4673:4790   */\n          iszero\n          tag_96\n          jumpi\n            /* \"#utility.yul\":4709:4788   */\n          tag_97\n          tag_25\n          jump\t// in\n        tag_97:\n            /* \"#utility.yul\":4673:4790   */\n        tag_96:\n            /* \"#utility.yul\":4814:4888   */\n          tag_98\n            /* \"#utility.yul\":4880:4887   */\n          dup9\n            /* \"#utility.yul\":4871:4877   */\n          dup3\n            /* \"#utility.yul\":4860:4869   */\n          dup10\n            /* \"#utility.yul\":4856:4878   */\n          add\n            /* \"#utility.yul\":4814:4888   */\n          tag_35\n          jump\t// in\n        tag_98:\n            /* \"#utility.yul\":4804:4888   */\n          swap2\n          pop\n            /* \"#utility.yul\":4605:4898   */\n          pop\n            /* \"#utility.yul\":3236:4905   */\n          swap3\n          swap6\n          pop\n          swap3\n          swap6\n          swap1\n          swap4\n          pop\n          jump\t// out\n            /* \"#utility.yul\":4911:5091   */\n        tag_40:\n            /* \"#utility.yul\":4959:5036   */\n          0x4e487b7100000000000000000000000000000000000000000000000000000000\n            /* \"#utility.yul\":4956:4957   */\n          0x00\n            /* \"#utility.yul\":4949:5037   */\n          mstore\n            /* \"#utility.yul\":5056:5060   */\n          0x22\n            /* \"#utility.yul\":5053:5054   */\n          0x04\n            /* \"#utility.yul\":5046:5061   */\n          mstore\n            /* \"#utility.yul\":5080:5084   */\n          0x24\n            /* \"#utility.yul\":5077:5078   */\n          0x00\n            /* \"#utility.yul\":5070:5085   */\n          revert\n            /* \"#utility.yul\":5097:5417   */\n        tag_13:\n            /* \"#utility.yul\":5141:5147   */\n          0x00\n            /* \"#utility.yul\":5178:5179   */\n          0x02\n            /* \"#utility.yul\":5172:5176   */\n          dup3\n            /* \"#utility.yul\":5168:5180   */\n          div\n            /* \"#utility.yul\":5158:5180   */\n          swap1\n          pop\n            /* \"#utility.yul\":5225:5226   */\n          0x01\n            /* \"#utility.yul\":5219:5223   */\n          dup3\n            /* \"#utility.yul\":5215:5227   */\n          and\n            /* \"#utility.yul\":5246:5264   */\n          dup1\n            /* \"#utility.yul\":5236:5317   */\n          tag_101\n          jumpi\n            /* \"#utility.yul\":5302:5306   */\n          0x7f\n            /* \"#utility.yul\":5294:5300   */\n          dup3\n            /* \"#utility.yul\":5290:5307   */\n          and\n            /* \"#utility.yul\":5280:5307   */\n          swap2\n          pop\n            /* \"#utility.yul\":5236:5317   */\n        tag_101:\n            /* \"#utility.yul\":5364:5366   */\n          0x20\n            /* \"#utility.yul\":5356:5362   */\n          dup3\n            /* \"#utility.yul\":5353:5367   */\n          lt\n            /* \"#utility.yul\":5333:5351   */\n          dup2\n            /* \"#utility.yul\":5330:5368   */\n          sub\n            /* \"#utility.yul\":5327:5411   */\n          tag_102\n          jumpi\n            /* \"#utility.yul\":5383:5401   */\n          tag_103\n          tag_40\n          jump\t// in\n        tag_103:\n            /* \"#utility.yul\":5327:5411   */\n        tag_102:\n            /* \"#utility.yul\":5148:5417   */\n          pop\n            /* \"#utility.yul\":5097:5417   */\n          swap2\n          swap1\n          pop\n          jump\t// out\n            /* \"Ballot.sol\":722:3828  contract Ballot{... */\n        tag_11:\n          dataSize(sub_0)\n          dup1\n          dataOffset(sub_0)\n          0x00\n          codecopy\n          0x00\n          return\n        stop\n\n        sub_0: assembly {\n                /* \"Ballot.sol\":722:3828  contract Ballot{... */\n              mstore(0x40, 0x80)\n              jumpi(tag_1, lt(calldatasize, 0x04))\n              shr(0xe0, calldataload(0x00))\n              dup1\n              0x5aa68ac0\n              gt\n              tag_10\n              jumpi\n              dup1\n              0x5aa68ac0\n              eq\n              tag_6\n              jumpi\n              dup1\n              0x67f9dd43\n              eq\n              tag_7\n              jumpi\n              dup1\n              0x9c3bfcf6\n              eq\n              tag_8\n              jumpi\n              dup1\n              0xf9094303\n              eq\n              tag_9\n              jumpi\n              jump(tag_1)\n            tag_10:\n              dup1\n              0x1ec6b60a\n              eq\n              tag_2\n              jumpi\n              dup1\n              0x35c1d349\n              eq\n              tag_3\n              jumpi\n              dup1\n              0x481c6a75\n              eq\n              tag_4\n              jumpi\n              dup1\n              0x4901d7ae\n              eq\n              tag_5\n              jumpi\n            tag_1:\n              0x00\n              dup1\n              revert\n                /* \"Ballot.sol\":3622:3702  function startVoting() public onlyManager{... */\n            tag_2:\n              callvalue\n              dup1\n              iszero\n              tag_11\n              jumpi\n              0x00\n              dup1\n              revert\n            tag_11:\n              pop\n              tag_12\n              tag_13\n              jump\t// in\n            tag_12:\n              stop\n                /* \"Ballot.sol\":1406:1434  Person[] public participants */\n            tag_3:\n              callvalue\n              dup1\n              iszero\n              tag_14\n              jumpi\n              0x00\n              dup1\n              revert\n            tag_14:\n              pop\n              tag_15\n              0x04\n              dup1\n              calldatasize\n              sub\n              dup2\n              add\n              swap1\n              tag_16\n              swap2\n              swap1\n              tag_17\n              jump\t// in\n            tag_16:\n              tag_18\n              jump\t// in\n            tag_15:\n              mload(0x40)\n              tag_19\n              swap5\n              swap4\n              swap3\n              swap2\n              swap1\n              tag_20\n              jump\t// in\n            tag_19:\n              mload(0x40)\n              dup1\n              swap2\n              sub\n              swap1\n              return\n                /* \"Ballot.sol\":1302:1323  Person public manager */\n            tag_4:\n              callvalue\n              dup1\n              iszero\n              tag_21\n              jumpi\n              0x00\n              dup1\n              revert\n            tag_21:\n              pop\n              tag_22\n              tag_23\n              jump\t// in\n            tag_22:\n              mload(0x40)\n              tag_24\n              swap5\n              swap4\n              swap3\n              swap2\n              swap1\n              tag_20\n              jump\t// in\n            tag_24:\n              mload(0x40)\n              dup1\n              swap2\n              sub\n              swap1\n              return\n                /* \"Ballot.sol\":2237:2567  function addParticipant(string memory name ,address id , string memory image) public payable onlyManager{... */\n            tag_5:\n              tag_25\n              0x04\n              dup1\n              calldatasize\n              sub\n              dup2\n              add\n              swap1\n              tag_26\n              swap2\n              swap1\n              tag_27\n              jump\t// in\n            tag_26:\n              tag_28\n              jump\t// in\n            tag_25:\n              stop\n                /* \"Ballot.sol\":2712:2812  function getParticipants()public view returns(Person[] memory){... */\n            tag_6:\n              callvalue\n              dup1\n              iszero\n              tag_29\n              jumpi\n              0x00\n              dup1\n              revert\n            tag_29:\n              pop\n              tag_30\n              tag_31\n              jump\t// in\n            tag_30:\n              mload(0x40)\n              tag_32\n              swap2\n              swap1\n              tag_33\n              jump\t// in\n            tag_32:\n              mload(0x40)\n              dup1\n              swap2\n              sub\n              swap1\n              return\n                /* \"Ballot.sol\":1576:1619  mapping(string => bool) public votedPeoples */\n            tag_7:\n              callvalue\n              dup1\n              iszero\n              tag_34\n              jumpi\n              0x00\n              dup1\n              revert\n            tag_34:\n              pop\n              tag_35\n              0x04\n              dup1\n              calldatasize\n              sub\n              dup2\n              add\n              swap1\n              tag_36\n              swap2\n              swap1\n              tag_37\n              jump\t// in\n            tag_36:\n              tag_38\n              jump\t// in\n            tag_35:\n              mload(0x40)\n              tag_39\n              swap2\n              swap1\n              tag_40\n              jump\t// in\n            tag_39:\n              mload(0x40)\n              dup1\n              swap2\n              sub\n              swap1\n              return\n                /* \"Ballot.sol\":2858:3579  function vote(string memory name ,address participant , string memory aadhar) public payable canVote{... */\n            tag_8:\n              tag_41\n              0x04\n              dup1\n              calldatasize\n              sub\n              dup2\n              add\n              swap1\n              tag_42\n              swap2\n              swap1\n              tag_27\n              jump\t// in\n            tag_42:\n              tag_43\n              jump\t// in\n            tag_41:\n              stop\n                /* \"Ballot.sol\":3743:3825  function finishVoting() public onlyManager{... */\n            tag_9:\n              callvalue\n              dup1\n              iszero\n              tag_44\n              jumpi\n              0x00\n              dup1\n              revert\n            tag_44:\n              pop\n              tag_45\n              tag_46\n              jump\t// in\n            tag_45:\n              stop\n                /* \"Ballot.sol\":3622:3702  function startVoting() public onlyManager{... */\n            tag_13:\n                /* \"Ballot.sol\":2060:2067  manager */\n              0x03\n                /* \"Ballot.sol\":2060:2070  manager.id */\n              0x01\n              add\n              0x00\n              swap1\n              sload\n              swap1\n              0x0100\n              exp\n              swap1\n              div\n              0xffffffffffffffffffffffffffffffffffffffff\n              and\n                /* \"Ballot.sol\":2046:2070  msg.sender == manager.id */\n              0xffffffffffffffffffffffffffffffffffffffff\n              and\n                /* \"Ballot.sol\":2046:2056  msg.sender */\n              caller\n                /* \"Ballot.sol\":2046:2070  msg.sender == manager.id */\n              0xffffffffffffffffffffffffffffffffffffffff\n              and\n              eq\n                /* \"Ballot.sol\":2038:2071  require(msg.sender == manager.id) */\n              tag_48\n              jumpi\n              0x00\n              dup1\n              revert\n            tag_48:\n                /* \"Ballot.sol\":3690:3694  true */\n              0x01\n                /* \"Ballot.sol\":3674:3687  votingStarted */\n              0x02\n              0x00\n                /* \"Ballot.sol\":3674:3694  votingStarted = true */\n              0x0100\n              exp\n              dup2\n              sload\n              dup2\n              0xff\n              mul\n              not\n              and\n              swap1\n              dup4\n              iszero\n              iszero\n              mul\n              or\n              swap1\n              sstore\n              pop\n                /* \"Ballot.sol\":3622:3702  function startVoting() public onlyManager{... */\n              jump\t// out\n                /* \"Ballot.sol\":1406:1434  Person[] public participants */\n            tag_18:\n              0x08\n              dup2\n              dup2\n              sload\n              dup2\n              lt\n              tag_50\n              jumpi\n              0x00\n              dup1\n              revert\n            tag_50:\n              swap1\n              0x00\n              mstore\n              keccak256(0x00, 0x20)\n              swap1\n              0x04\n              mul\n              add\n              0x00\n              swap2\n              pop\n              swap1\n              pop\n              dup1\n              0x00\n              add\n              dup1\n              sload\n              tag_52\n              swap1\n              tag_53\n              jump\t// in\n            tag_52:\n              dup1\n              0x1f\n              add\n              0x20\n              dup1\n              swap2\n              div\n              mul\n              0x20\n              add\n              mload(0x40)\n              swap1\n              dup2\n              add\n              0x40\n              mstore\n              dup1\n              swap3\n              swap2\n              swap1\n              dup2\n              dup2\n              mstore\n              0x20\n              add\n              dup3\n              dup1\n              sload\n              tag_54\n              swap1\n              tag_53\n              jump\t// in\n            tag_54:\n              dup1\n              iszero\n              tag_55\n              jumpi\n              dup1\n              0x1f\n              lt\n              tag_56\n              jumpi\n              0x0100\n              dup1\n              dup4\n              sload\n              div\n              mul\n              dup4\n              mstore\n              swap2\n              0x20\n              add\n              swap2\n              jump(tag_55)\n            tag_56:\n              dup3\n              add\n              swap2\n              swap1\n              0x00\n              mstore\n              keccak256(0x00, 0x20)\n              swap1\n            tag_57:\n              dup2\n              sload\n              dup2\n              mstore\n              swap1\n              0x01\n              add\n              swap1\n              0x20\n              add\n              dup1\n              dup4\n              gt\n              tag_57\n              jumpi\n              dup3\n              swap1\n              sub\n              0x1f\n              and\n              dup3\n              add\n              swap2\n            tag_55:\n              pop\n              pop\n              pop\n              pop\n              pop\n              swap1\n              dup1\n              0x01\n              add\n              0x00\n              swap1\n              sload\n              swap1\n              0x0100\n              exp\n              swap1\n              div\n              0xffffffffffffffffffffffffffffffffffffffff\n              and\n              swap1\n              dup1\n              0x02\n              add\n              dup1\n              sload\n              tag_58\n              swap1\n              tag_53\n              jump\t// in\n            tag_58:\n              dup1\n              0x1f\n              add\n              0x20\n              dup1\n              swap2\n              div\n              mul\n              0x20\n              add\n              mload(0x40)\n              swap1\n              dup2\n              add\n              0x40\n              mstore\n              dup1\n              swap3\n              swap2\n              swap1\n              dup2\n              dup2\n              mstore\n              0x20\n              add\n              dup3\n              dup1\n              sload\n              tag_59\n              swap1\n              tag_53\n              jump\t// in\n            tag_59:\n              dup1\n              iszero\n              tag_60\n              jumpi\n              dup1\n              0x1f\n              lt\n              tag_61\n              jumpi\n              0x0100\n              dup1\n              dup4\n              sload\n              div\n              mul\n              dup4\n              mstore\n              swap2\n              0x20\n              add\n              swap2\n              jump(tag_60)\n            tag_61:\n              dup3\n              add\n              swap2\n              swap1\n              0x00\n              mstore\n              keccak256(0x00, 0x20)\n              swap1\n            tag_62:\n              dup2\n              sload\n              dup2\n              mstore\n              swap1\n              0x01\n              add\n              swap1\n              0x20\n              add\n              dup1\n              dup4\n              gt\n              tag_62\n              jumpi\n              dup3\n              swap1\n              sub\n              0x1f\n              and\n              dup3\n              add\n              swap2\n            tag_60:\n              pop\n              pop\n              pop\n              pop\n              pop\n              swap1\n              dup1\n              0x03\n              add\n              sload\n              swap1\n              pop\n              dup5\n              jump\t// out\n                /* \"Ballot.sol\":1302:1323  Person public manager */\n            tag_23:\n              0x03\n              dup1\n              0x00\n              add\n              dup1\n              sload\n              tag_63\n              swap1\n              tag_53\n              jump\t// in\n            tag_63:\n              dup1\n              0x1f\n              add\n              0x20\n              dup1\n              swap2\n              div\n              mul\n              0x20\n              add\n              mload(0x40)\n              swap1\n              dup2\n              add\n              0x40\n              mstore\n              dup1\n              swap3\n              swap2\n              swap1\n              dup2\n              dup2\n              mstore\n              0x20\n              add\n              dup3\n              dup1\n              sload\n              tag_64\n              swap1\n              tag_53\n              jump\t// in\n            tag_64:\n              dup1\n              iszero\n              tag_65\n              jumpi\n              dup1\n              0x1f\n              lt\n              tag_66\n              jumpi\n              0x0100\n              dup1\n              dup4\n              sload\n              div\n              mul\n              dup4\n              mstore\n              swap2\n              0x20\n              add\n              swap2\n              jump(tag_65)\n            tag_66:\n              dup3\n              add\n              swap2\n              swap1\n              0x00\n              mstore\n              keccak256(0x00, 0x20)\n              swap1\n            tag_67:\n              dup2\n              sload\n              dup2\n              mstore\n              swap1\n              0x01\n              add\n              swap1\n              0x20\n              add\n              dup1\n              dup4\n              gt\n              tag_67\n              jumpi\n              dup3\n              swap1\n              sub\n              0x1f\n              and\n              dup3\n              add\n              swap2\n            tag_65:\n              pop\n              pop\n              pop\n              pop\n              pop\n              swap1\n              dup1\n              0x01\n              add\n              0x00\n              swap1\n              sload\n              swap1\n              0x0100\n              exp\n              swap1\n              div\n              0xffffffffffffffffffffffffffffffffffffffff\n              and\n              swap1\n              dup1\n              0x02\n              add\n              dup1\n              sload\n              tag_68\n              swap1\n              tag_53\n              jump\t// in\n            tag_68:\n              dup1\n              0x1f\n              add\n              0x20\n              dup1\n              swap2\n              div\n              mul\n              0x20\n              add\n              mload(0x40)\n              swap1\n              dup2\n              add\n              0x40\n              mstore\n              dup1\n              swap3\n              swap2\n              swap1\n              dup2\n              dup2\n              mstore\n              0x20\n              add\n              dup3\n              dup1\n              sload\n              tag_69\n              swap1\n              tag_53\n              jump\t// in\n            tag_69:\n              dup1\n              iszero\n              tag_70\n              jumpi\n              dup1\n              0x1f\n              lt\n              tag_71\n              jumpi\n              0x0100\n              dup1\n              dup4\n              sload\n              div\n              mul\n              dup4\n              mstore\n              swap2\n              0x20\n              add\n              swap2\n              jump(tag_70)\n            tag_71:\n              dup3\n              add\n              swap2\n              swap1\n              0x00\n              mstore\n              keccak256(0x00, 0x20)\n              swap1\n            tag_72:\n              dup2\n              sload\n              dup2\n              mstore\n              swap1\n              0x01\n              add\n              swap1\n              0x20\n              add\n              dup1\n              dup4\n              gt\n              tag_72\n              jumpi\n              dup3\n              swap1\n              sub\n              0x1f\n              and\n              dup3\n              add\n              swap2\n            tag_70:\n              pop\n              pop\n              pop\n              pop\n              pop\n              swap1\n              dup1\n              0x03\n              add\n              sload\n              swap1\n              pop\n              dup5\n              jump\t// out\n                /* \"Ballot.sol\":2237:2567  function addParticipant(string memory name ,address id , string memory image) public payable onlyManager{... */\n            tag_28:\n                /* \"Ballot.sol\":2060:2067  manager */\n              0x03\n                /* \"Ballot.sol\":2060:2070  manager.id */\n              0x01\n              add\n              0x00\n              swap1\n              sload\n              swap1\n              0x0100\n              exp\n              swap1\n              div\n              0xffffffffffffffffffffffffffffffffffffffff\n              and\n                /* \"Ballot.sol\":2046:2070  msg.sender == manager.id */\n              0xffffffffffffffffffffffffffffffffffffffff\n              and\n                /* \"Ballot.sol\":2046:2056  msg.sender */\n              caller\n                /* \"Ballot.sol\":2046:2070  msg.sender == manager.id */\n              0xffffffffffffffffffffffffffffffffffffffff\n              and\n              eq\n                /* \"Ballot.sol\":2038:2071  require(msg.sender == manager.id) */\n              tag_74\n              jumpi\n              0x00\n              dup1\n              revert\n            tag_74:\n                /* \"Ballot.sol\":2372:2382  0.90 ether */\n              0x0c7d713b49da0000\n                /* \"Ballot.sol\":2360:2369  msg.value */\n              callvalue\n                /* \"Ballot.sol\":2360:2382  msg.value > 0.90 ether */\n              gt\n                /* \"Ballot.sol\":2352:2383  require(msg.value > 0.90 ether) */\n              tag_76\n              jumpi\n              0x00\n              dup1\n              revert\n            tag_76:\n                /* \"Ballot.sol\":2394:2409  Person memory r */\n              tag_77\n              tag_78\n              jump\t// in\n            tag_77:\n                /* \"Ballot.sol\":2430:2434  name */\n              dup4\n                /* \"Ballot.sol\":2421:2422  r */\n              dup2\n                /* \"Ballot.sol\":2421:2427  r.name */\n              0x00\n              add\n                /* \"Ballot.sol\":2421:2434  r.name = name */\n              dup2\n              swap1\n              mstore\n              pop\n                /* \"Ballot.sol\":2452:2454  id */\n              dup3\n                /* \"Ballot.sol\":2445:2446  r */\n              dup2\n                /* \"Ballot.sol\":2445:2449  r.id */\n              0x20\n              add\n                /* \"Ballot.sol\":2445:2454  r.id = id */\n              swap1\n              0xffffffffffffffffffffffffffffffffffffffff\n              and\n              swap1\n              dup2\n              0xffffffffffffffffffffffffffffffffffffffff\n              and\n              dup2\n              mstore\n              pop\n              pop\n                /* \"Ballot.sol\":2475:2480  image */\n              dup2\n                /* \"Ballot.sol\":2465:2466  r */\n              dup2\n                /* \"Ballot.sol\":2465:2472  r.image */\n              0x40\n              add\n                /* \"Ballot.sol\":2465:2480  r.image = image */\n              dup2\n              swap1\n              mstore\n              pop\n                /* \"Ballot.sol\":2499:2500  0 */\n              0x00\n                /* \"Ballot.sol\":2491:2492  r */\n              dup2\n                /* \"Ballot.sol\":2491:2498  r.votes */\n              0x60\n              add\n                /* \"Ballot.sol\":2491:2500  r.votes=0 */\n              dup2\n              dup2\n              mstore\n              pop\n              pop\n                /* \"Ballot.sol\":2511:2523  participants */\n              0x08\n                /* \"Ballot.sol\":2529:2530  r */\n              dup2\n                /* \"Ballot.sol\":2511:2531  participants.push(r) */\n              swap1\n              dup1\n              0x01\n              dup2\n              sload\n              add\n              dup1\n              dup3\n              sstore\n              dup1\n              swap2\n              pop\n              pop\n              0x01\n              swap1\n              sub\n              swap1\n              0x00\n              mstore\n              keccak256(0x00, 0x20)\n              swap1\n              0x04\n              mul\n              add\n              0x00\n              swap1\n              swap2\n              swap1\n              swap2\n              swap1\n              swap2\n              pop\n              0x00\n              dup3\n              add\n              mload\n              dup2\n              0x00\n              add\n              swap1\n              dup1\n              mload\n              swap1\n              0x20\n              add\n              swap1\n              tag_80\n              swap3\n              swap2\n              swap1\n              tag_81\n              jump\t// in\n            tag_80:\n              pop\n              0x20\n              dup3\n              add\n              mload\n              dup2\n              0x01\n              add\n              exp(0x0100, 0x00)\n              dup2\n              sload\n              dup2\n              0xffffffffffffffffffffffffffffffffffffffff\n              mul\n              not\n              and\n              swap1\n              dup4\n              0xffffffffffffffffffffffffffffffffffffffff\n              and\n              mul\n              or\n              swap1\n              sstore\n              pop\n              0x40\n              dup3\n              add\n              mload\n              dup2\n              0x02\n              add\n              swap1\n              dup1\n              mload\n              swap1\n              0x20\n              add\n              swap1\n              tag_82\n              swap3\n              swap2\n              swap1\n              tag_81\n              jump\t// in\n            tag_82:\n              pop\n              0x60\n              dup3\n              add\n              mload\n              dup2\n              0x03\n              add\n              sstore\n              pop\n              pop\n                /* \"Ballot.sol\":2542:2557  numParticipants */\n              0x07\n              0x00\n                /* \"Ballot.sol\":2542:2559  numParticipants++ */\n              dup2\n              sload\n              dup1\n              swap3\n              swap2\n              swap1\n              tag_83\n              swap1\n              tag_84\n              jump\t// in\n            tag_83:\n              swap2\n              swap1\n              pop\n              sstore\n              pop\n                /* \"Ballot.sol\":2341:2567  {... */\n              pop\n                /* \"Ballot.sol\":2237:2567  function addParticipant(string memory name ,address id , string memory image) public payable onlyManager{... */\n              pop\n              pop\n              pop\n              jump\t// out\n                /* \"Ballot.sol\":2712:2812  function getParticipants()public view returns(Person[] memory){... */\n            tag_31:\n                /* \"Ballot.sol\":2758:2773  Person[] memory */\n              0x60\n                /* \"Ballot.sol\":2792:2804  participants */\n              0x08\n                /* \"Ballot.sol\":2785:2804  return participants */\n              dup1\n              sload\n              dup1\n              0x20\n              mul\n              0x20\n              add\n              mload(0x40)\n              swap1\n              dup2\n              add\n              0x40\n              mstore\n              dup1\n              swap3\n              swap2\n              swap1\n              dup2\n              dup2\n              mstore\n              0x20\n              add\n              0x00\n              swap1\n            tag_86:\n              dup3\n              dup3\n              lt\n              iszero\n              tag_87\n              jumpi\n              dup4\n              dup3\n              swap1\n              0x00\n              mstore\n              keccak256(0x00, 0x20)\n              swap1\n              0x04\n              mul\n              add\n              mload(0x40)\n              dup1\n              0x80\n              add\n              0x40\n              mstore\n              swap1\n              dup2\n              0x00\n              dup3\n              add\n              dup1\n              sload\n              tag_89\n              swap1\n              tag_53\n              jump\t// in\n            tag_89:\n              dup1\n              0x1f\n              add\n              0x20\n              dup1\n              swap2\n              div\n              mul\n              0x20\n              add\n              mload(0x40)\n              swap1\n              dup2\n              add\n              0x40\n              mstore\n              dup1\n              swap3\n              swap2\n              swap1\n              dup2\n              dup2\n              mstore\n              0x20\n              add\n              dup3\n              dup1\n              sload\n              tag_90\n              swap1\n              tag_53\n              jump\t// in\n            tag_90:\n              dup1\n              iszero\n              tag_91\n              jumpi\n              dup1\n              0x1f\n              lt\n              tag_92\n              jumpi\n              0x0100\n              dup1\n              dup4\n              sload\n              div\n              mul\n              dup4\n              mstore\n              swap2\n              0x20\n              add\n              swap2\n              jump(tag_91)\n            tag_92:\n              dup3\n              add\n              swap2\n              swap1\n              0x00\n              mstore\n              keccak256(0x00, 0x20)\n              swap1\n            tag_93:\n              dup2\n              sload\n              dup2\n              mstore\n              swap1\n              0x01\n              add\n              swap1\n              0x20\n              add\n              dup1\n              dup4\n              gt\n              tag_93\n              jumpi\n              dup3\n              swap1\n              sub\n              0x1f\n              and\n              dup3\n              add\n              swap2\n            tag_91:\n              pop\n              pop\n              pop\n              pop\n              pop\n              dup2\n              mstore\n              0x20\n              add\n              0x01\n              dup3\n              add\n              0x00\n              swap1\n              sload\n              swap1\n              0x0100\n              exp\n              swap1\n              div\n              0xffffffffffffffffffffffffffffffffffffffff\n              and\n              0xffffffffffffffffffffffffffffffffffffffff\n              and\n              0xffffffffffffffffffffffffffffffffffffffff\n              and\n              dup2\n              mstore\n              0x20\n              add\n              0x02\n              dup3\n              add\n              dup1\n              sload\n              tag_94\n              swap1\n              tag_53\n              jump\t// in\n            tag_94:\n              dup1\n              0x1f\n              add\n              0x20\n              dup1\n              swap2\n              div\n              mul\n              0x20\n              add\n              mload(0x40)\n              swap1\n              dup2\n              add\n              0x40\n              mstore\n              dup1\n              swap3\n              swap2\n              swap1\n              dup2\n              dup2\n              mstore\n              0x20\n              add\n              dup3\n              dup1\n              sload\n              tag_95\n              swap1\n              tag_53\n              jump\t// in\n            tag_95:\n              dup1\n              iszero\n              tag_96\n              jumpi\n              dup1\n              0x1f\n              lt\n              tag_97\n              jumpi\n              0x0100\n              dup1\n              dup4\n              sload\n              div\n              mul\n              dup4\n              mstore\n              swap2\n              0x20\n              add\n              swap2\n              jump(tag_96)\n            tag_97:\n              dup3\n              add\n              swap2\n              swap1\n              0x00\n              mstore\n              keccak256(0x00, 0x20)\n              swap1\n            tag_98:\n              dup2\n              sload\n              dup2\n              mstore\n              swap1\n              0x01\n              add\n              swap1\n              0x20\n              add\n              dup1\n              dup4\n              gt\n              tag_98\n              jumpi\n              dup3\n              swap1\n              sub\n              0x1f\n              and\n              dup3\n              add\n              swap2\n            tag_96:\n              pop\n              pop\n              pop\n              pop\n              pop\n              dup2\n              mstore\n              0x20\n              add\n              0x03\n              dup3\n              add\n              sload\n              dup2\n              mstore\n              pop\n              pop\n              dup2\n              mstore\n              0x20\n              add\n              swap1\n              0x01\n              add\n              swap1\n              jump(tag_86)\n            tag_87:\n              pop\n              pop\n              pop\n              pop\n              swap1\n              pop\n                /* \"Ballot.sol\":2712:2812  function getParticipants()public view returns(Person[] memory){... */\n              swap1\n              jump\t// out\n                /* \"Ballot.sol\":1576:1619  mapping(string => bool) public votedPeoples */\n            tag_38:\n              0x0b\n              dup2\n              dup1\n              mload\n              0x20\n              dup2\n              add\n              dup3\n              add\n              dup1\n              mload\n              dup5\n              dup3\n              mstore\n              0x20\n              dup4\n              add\n              0x20\n              dup6\n              add\n              keccak256\n              dup2\n              dup4\n              mstore\n              dup1\n              swap6\n              pop\n              pop\n              pop\n              pop\n              pop\n              pop\n              0x00\n              swap2\n              pop\n              sload\n              swap1\n              0x0100\n              exp\n              swap1\n              div\n              0xff\n              and\n              dup2\n              jump\t// out\n                /* \"Ballot.sol\":2858:3579  function vote(string memory name ,address participant , string memory aadhar) public payable canVote{... */\n            tag_43:\n                /* \"Ballot.sol\":2136:2149  votingStarted */\n              0x02\n              0x00\n              swap1\n              sload\n              swap1\n              0x0100\n              exp\n              swap1\n              div\n              0xff\n              and\n                /* \"Ballot.sol\":2136:2168  votingStarted && !votingFinished */\n              dup1\n              iszero\n              tag_100\n              jumpi\n              pop\n                /* \"Ballot.sol\":2154:2168  votingFinished */\n              0x02\n              0x01\n              swap1\n              sload\n              swap1\n              0x0100\n              exp\n              swap1\n              div\n              0xff\n              and\n                /* \"Ballot.sol\":2153:2168  !votingFinished */\n              iszero\n                /* \"Ballot.sol\":2136:2168  votingStarted && !votingFinished */\n            tag_100:\n                /* \"Ballot.sol\":2128:2169  require(votingStarted && !votingFinished) */\n              tag_101\n              jumpi\n              0x00\n              dup1\n              revert\n            tag_101:\n                /* \"Ballot.sol\":2978:2990  votedPeoples */\n              0x0b\n                /* \"Ballot.sol\":2991:2997  aadhar */\n              dup2\n                /* \"Ballot.sol\":2978:2998  votedPeoples[aadhar] */\n              mload(0x40)\n              tag_103\n              swap2\n              swap1\n              tag_104\n              jump\t// in\n            tag_103:\n              swap1\n              dup2\n              mstore\n              0x20\n              add\n              mload(0x40)\n              dup1\n              swap2\n              sub\n              swap1\n              keccak256\n              0x00\n              swap1\n              sload\n              swap1\n              0x0100\n              exp\n              swap1\n              div\n              0xff\n              and\n                /* \"Ballot.sol\":2977:2998  !votedPeoples[aadhar] */\n              iszero\n                /* \"Ballot.sol\":2969:3028  require(!votedPeoples[aadhar]  , \"You have already Voted!\") */\n              tag_105\n              jumpi\n              mload(0x40)\n              0x08c379a000000000000000000000000000000000000000000000000000000000\n              dup2\n              mstore\n              0x04\n              add\n              tag_106\n              swap1\n              tag_107\n              jump\t// in\n            tag_106:\n              mload(0x40)\n              dup1\n              swap2\n              sub\n              swap1\n              revert\n            tag_105:\n                /* \"Ballot.sol\":3060:3070  0.50 ether */\n              0x06f05b59d3b20000\n                /* \"Ballot.sol\":3047:3056  msg.value */\n              callvalue\n                /* \"Ballot.sol\":3047:3070  msg.value >= 0.50 ether */\n              lt\n              iszero\n                /* \"Ballot.sol\":3039:3101  require(msg.value >= 0.50 ether , \"Send at least 0.50 ether!\") */\n              tag_108\n              jumpi\n              mload(0x40)\n              0x08c379a000000000000000000000000000000000000000000000000000000000\n              dup2\n              mstore\n              0x04\n              add\n              tag_109\n              swap1\n              tag_110\n              jump\t// in\n            tag_109:\n              mload(0x40)\n              dup1\n              swap2\n              sub\n              swap1\n              revert\n            tag_108:\n                /* \"Ballot.sol\":3114:3129  Vote memory val */\n              tag_111\n              tag_112\n              jump\t// in\n            tag_111:\n                /* \"Ballot.sol\":3152:3156  name */\n              dup4\n                /* \"Ballot.sol\":3141:3144  val */\n              dup2\n                /* \"Ballot.sol\":3141:3149  val.name */\n              0x40\n              add\n                /* \"Ballot.sol\":3141:3156  val.name = name */\n              dup2\n              swap1\n              mstore\n              pop\n                /* \"Ballot.sol\":3181:3191  msg.sender */\n              caller\n                /* \"Ballot.sol\":3167:3170  val */\n              dup2\n                /* \"Ballot.sol\":3167:3178  val.voterId */\n              0x00\n              add\n                /* \"Ballot.sol\":3167:3191  val.voterId = msg.sender */\n              swap1\n              0xffffffffffffffffffffffffffffffffffffffff\n              and\n              swap1\n              dup2\n              0xffffffffffffffffffffffffffffffffffffffff\n              and\n              dup2\n              mstore\n              pop\n              pop\n                /* \"Ballot.sol\":3217:3223  aadhar */\n              dup2\n                /* \"Ballot.sol\":3202:3205  val */\n              dup2\n                /* \"Ballot.sol\":3202:3214  val.aadharId */\n              0x20\n              add\n                /* \"Ballot.sol\":3202:3223  val.aadharId = aadhar */\n              dup2\n              swap1\n              mstore\n              pop\n                /* \"Ballot.sol\":3248:3259  participant */\n              dup3\n                /* \"Ballot.sol\":3234:3237  val */\n              dup2\n                /* \"Ballot.sol\":3234:3245  val.votedTo */\n              0x60\n              add\n                /* \"Ballot.sol\":3234:3259  val.votedTo = participant */\n              swap1\n              0xffffffffffffffffffffffffffffffffffffffff\n              and\n              swap1\n              dup2\n              0xffffffffffffffffffffffffffffffffffffffff\n              and\n              dup2\n              mstore\n              pop\n              pop\n                /* \"Ballot.sol\":3270:3278  VotesMap */\n              0x0a\n                /* \"Ballot.sol\":3284:3287  val */\n              dup2\n                /* \"Ballot.sol\":3270:3288  VotesMap.push(val) */\n              swap1\n              dup1\n              0x01\n              dup2\n              sload\n              add\n              dup1\n              dup3\n              sstore\n              dup1\n              swap2\n              pop\n              pop\n              0x01\n              swap1\n              sub\n              swap1\n              0x00\n              mstore\n              keccak256(0x00, 0x20)\n              swap1\n              0x04\n              mul\n              add\n              0x00\n              swap1\n              swap2\n              swap1\n              swap2\n              swap1\n              swap2\n              pop\n              0x00\n              dup3\n              add\n              mload\n              dup2\n              0x00\n              add\n              exp(0x0100, 0x00)\n              dup2\n              sload\n              dup2\n              0xffffffffffffffffffffffffffffffffffffffff\n              mul\n              not\n              and\n              swap1\n              dup4\n              0xffffffffffffffffffffffffffffffffffffffff\n              and\n              mul\n              or\n              swap1\n              sstore\n              pop\n              0x20\n              dup3\n              add\n              mload\n              dup2\n              0x01\n              add\n              swap1\n              dup1\n              mload\n              swap1\n              0x20\n              add\n              swap1\n              tag_114\n              swap3\n              swap2\n              swap1\n              tag_81\n              jump\t// in\n            tag_114:\n              pop\n              0x40\n              dup3\n              add\n              mload\n              dup2\n              0x02\n              add\n              swap1\n              dup1\n              mload\n              swap1\n              0x20\n              add\n              swap1\n              tag_115\n              swap3\n              swap2\n              swap1\n              tag_81\n              jump\t// in\n            tag_115:\n              pop\n              0x60\n              dup3\n              add\n              mload\n              dup2\n              0x03\n              add\n              exp(0x0100, 0x00)\n              dup2\n              sload\n              dup2\n              0xffffffffffffffffffffffffffffffffffffffff\n              mul\n              not\n              and\n              swap1\n              dup4\n              0xffffffffffffffffffffffffffffffffffffffff\n              and\n              mul\n              or\n              swap1\n              sstore\n              pop\n              pop\n              pop\n                /* \"Ballot.sol\":3352:3358  uint i */\n              0x00\n                /* \"Ballot.sol\":3348:3534  for(uint i=0; i<participants.length ;i++){... */\n            tag_116:\n                /* \"Ballot.sol\":3364:3376  participants */\n              0x08\n                /* \"Ballot.sol\":3364:3383  participants.length */\n              dup1\n              sload\n              swap1\n              pop\n                /* \"Ballot.sol\":3362:3363  i */\n              dup2\n                /* \"Ballot.sol\":3362:3383  i<participants.length */\n              lt\n                /* \"Ballot.sol\":3348:3534  for(uint i=0; i<participants.length ;i++){... */\n              iszero\n              tag_117\n              jumpi\n                /* \"Ballot.sol\":3429:3440  participant */\n              dup4\n                /* \"Ballot.sol\":3407:3440  participants[i].id == participant */\n              0xffffffffffffffffffffffffffffffffffffffff\n              and\n                /* \"Ballot.sol\":3407:3419  participants */\n              0x08\n                /* \"Ballot.sol\":3420:3421  i */\n              dup3\n                /* \"Ballot.sol\":3407:3422  participants[i] */\n              dup2\n              sload\n              dup2\n              lt\n              tag_119\n              jumpi\n              tag_120\n              tag_121\n              jump\t// in\n            tag_120:\n            tag_119:\n              swap1\n              0x00\n              mstore\n              keccak256(0x00, 0x20)\n              swap1\n              0x04\n              mul\n              add\n                /* \"Ballot.sol\":3407:3425  participants[i].id */\n              0x01\n              add\n              0x00\n              swap1\n              sload\n              swap1\n              0x0100\n              exp\n              swap1\n              div\n              0xffffffffffffffffffffffffffffffffffffffff\n              and\n                /* \"Ballot.sol\":3407:3440  participants[i].id == participant */\n              0xffffffffffffffffffffffffffffffffffffffff\n              and\n              sub\n                /* \"Ballot.sol\":3404:3523  if(participants[i].id == participant){... */\n              tag_123\n              jumpi\n                /* \"Ballot.sol\":3460:3472  participants */\n              0x08\n                /* \"Ballot.sol\":3473:3474  i */\n              dup2\n                /* \"Ballot.sol\":3460:3475  participants[i] */\n              dup2\n              sload\n              dup2\n              lt\n              tag_124\n              jumpi\n              tag_125\n              tag_121\n              jump\t// in\n            tag_125:\n            tag_124:\n              swap1\n              0x00\n              mstore\n              keccak256(0x00, 0x20)\n              swap1\n              0x04\n              mul\n              add\n                /* \"Ballot.sol\":3460:3481  participants[i].votes */\n              0x03\n              add\n              0x00\n                /* \"Ballot.sol\":3460:3483  participants[i].votes++ */\n              dup2\n              sload\n              dup1\n              swap3\n              swap2\n              swap1\n              tag_127\n              swap1\n              tag_84\n              jump\t// in\n            tag_127:\n              swap2\n              swap1\n              pop\n              sstore\n              pop\n                /* \"Ballot.sol\":3502:3507  break */\n              jump(tag_117)\n                /* \"Ballot.sol\":3404:3523  if(participants[i].id == participant){... */\n            tag_123:\n                /* \"Ballot.sol\":3385:3388  i++ */\n              dup1\n              dup1\n              tag_128\n              swap1\n              tag_84\n              jump\t// in\n            tag_128:\n              swap2\n              pop\n              pop\n                /* \"Ballot.sol\":3348:3534  for(uint i=0; i<participants.length ;i++){... */\n              jump(tag_116)\n            tag_117:\n              pop\n                /* \"Ballot.sol\":3567:3571  true */\n              0x01\n                /* \"Ballot.sol\":3544:3556  votedPeoples */\n              0x0b\n                /* \"Ballot.sol\":3557:3563  aadhar */\n              dup4\n                /* \"Ballot.sol\":3544:3564  votedPeoples[aadhar] */\n              mload(0x40)\n              tag_129\n              swap2\n              swap1\n              tag_104\n              jump\t// in\n            tag_129:\n              swap1\n              dup2\n              mstore\n              0x20\n              add\n              mload(0x40)\n              dup1\n              swap2\n              sub\n              swap1\n              keccak256\n              0x00\n                /* \"Ballot.sol\":3544:3571  votedPeoples[aadhar] = true */\n              0x0100\n              exp\n              dup2\n              sload\n              dup2\n              0xff\n              mul\n              not\n              and\n              swap1\n              dup4\n              iszero\n              iszero\n              mul\n              or\n              swap1\n              sstore\n              pop\n                /* \"Ballot.sol\":2958:3579  {... */\n              pop\n                /* \"Ballot.sol\":2858:3579  function vote(string memory name ,address participant , string memory aadhar) public payable canVote{... */\n              pop\n              pop\n              pop\n              jump\t// out\n                /* \"Ballot.sol\":3743:3825  function finishVoting() public onlyManager{... */\n            tag_46:\n                /* \"Ballot.sol\":2060:2067  manager */\n              0x03\n                /* \"Ballot.sol\":2060:2070  manager.id */\n              0x01\n              add\n              0x00\n              swap1\n              sload\n              swap1\n              0x0100\n              exp\n              swap1\n              div\n              0xffffffffffffffffffffffffffffffffffffffff\n              and\n                /* \"Ballot.sol\":2046:2070  msg.sender == manager.id */\n              0xffffffffffffffffffffffffffffffffffffffff\n              and\n                /* \"Ballot.sol\":2046:2056  msg.sender */\n              caller\n                /* \"Ballot.sol\":2046:2070  msg.sender == manager.id */\n              0xffffffffffffffffffffffffffffffffffffffff\n              and\n              eq\n                /* \"Ballot.sol\":2038:2071  require(msg.sender == manager.id) */\n              tag_131\n              jumpi\n              0x00\n              dup1\n              revert\n            tag_131:\n                /* \"Ballot.sol\":3813:3817  true */\n              0x01\n                /* \"Ballot.sol\":3796:3810  votingFinished */\n              0x02\n              0x01\n                /* \"Ballot.sol\":3796:3817  votingFinished = true */\n              0x0100\n              exp\n              dup2\n              sload\n              dup2\n              0xff\n              mul\n              not\n              and\n              swap1\n              dup4\n              iszero\n              iszero\n              mul\n              or\n              swap1\n              sstore\n              pop\n                /* \"Ballot.sol\":3743:3825  function finishVoting() public onlyManager{... */\n              jump\t// out\n            tag_78:\n              mload(0x40)\n              dup1\n              0x80\n              add\n              0x40\n              mstore\n              dup1\n              0x60\n              dup2\n              mstore\n              0x20\n              add\n              and(0xffffffffffffffffffffffffffffffffffffffff, 0x00)\n              dup2\n              mstore\n              0x20\n              add\n              0x60\n              dup2\n              mstore\n              0x20\n              add\n              0x00\n              dup2\n              mstore\n              pop\n              swap1\n              jump\t// out\n            tag_81:\n              dup3\n              dup1\n              sload\n              tag_133\n              swap1\n              tag_53\n              jump\t// in\n            tag_133:\n              swap1\n              0x00\n              mstore\n              keccak256(0x00, 0x20)\n              swap1\n              0x1f\n              add\n              0x20\n              swap1\n              div\n              dup2\n              add\n              swap3\n              dup3\n              tag_135\n              jumpi\n              0x00\n              dup6\n              sstore\n              jump(tag_134)\n            tag_135:\n              dup3\n              0x1f\n              lt\n              tag_136\n              jumpi\n              dup1\n              mload\n              not(0xff)\n              and\n              dup4\n              dup1\n              add\n              or\n              dup6\n              sstore\n              jump(tag_134)\n            tag_136:\n              dup3\n              dup1\n              add\n              0x01\n              add\n              dup6\n              sstore\n              dup3\n              iszero\n              tag_134\n              jumpi\n              swap2\n              dup3\n              add\n            tag_137:\n              dup3\n              dup2\n              gt\n              iszero\n              tag_138\n              jumpi\n              dup3\n              mload\n              dup3\n              sstore\n              swap2\n              0x20\n              add\n              swap2\n              swap1\n              0x01\n              add\n              swap1\n              jump(tag_137)\n            tag_138:\n            tag_134:\n              pop\n              swap1\n              pop\n              tag_139\n              swap2\n              swap1\n              tag_140\n              jump\t// in\n            tag_139:\n              pop\n              swap1\n              jump\t// out\n            tag_112:\n              mload(0x40)\n              dup1\n              0x80\n              add\n              0x40\n              mstore\n              dup1\n              and(0xffffffffffffffffffffffffffffffffffffffff, 0x00)\n              dup2\n              mstore\n              0x20\n              add\n              0x60\n              dup2\n              mstore\n              0x20\n              add\n              0x60\n              dup2\n              mstore\n              0x20\n              add\n              and(0xffffffffffffffffffffffffffffffffffffffff, 0x00)\n              dup2\n              mstore\n              pop\n              swap1\n              jump\t// out\n            tag_140:\n            tag_141:\n              dup1\n              dup3\n              gt\n              iszero\n              tag_142\n              jumpi\n              0x00\n              dup2\n              0x00\n              swap1\n              sstore\n              pop\n              0x01\n              add\n              jump(tag_141)\n            tag_142:\n              pop\n              swap1\n              jump\t// out\n                /* \"#utility.yul\":7:82   */\n            tag_143:\n                /* \"#utility.yul\":40:46   */\n              0x00\n                /* \"#utility.yul\":73:75   */\n              0x40\n                /* \"#utility.yul\":67:76   */\n              mload\n                /* \"#utility.yul\":57:76   */\n              swap1\n              pop\n                /* \"#utility.yul\":7:82   */\n              swap1\n              jump\t// out\n                /* \"#utility.yul\":88:205   */\n            tag_144:\n                /* \"#utility.yul\":197:198   */\n              0x00\n                /* \"#utility.yul\":194:195   */\n              dup1\n                /* \"#utility.yul\":187:199   */\n              revert\n                /* \"#utility.yul\":211:328   */\n            tag_145:\n                /* \"#utility.yul\":320:321   */\n              0x00\n                /* \"#utility.yul\":317:318   */\n              dup1\n                /* \"#utility.yul\":310:322   */\n              revert\n                /* \"#utility.yul\":334:411   */\n            tag_146:\n                /* \"#utility.yul\":371:378   */\n              0x00\n                /* \"#utility.yul\":400:405   */\n              dup2\n                /* \"#utility.yul\":389:405   */\n              swap1\n              pop\n                /* \"#utility.yul\":334:411   */\n              swap2\n              swap1\n              pop\n              jump\t// out\n                /* \"#utility.yul\":417:539   */\n            tag_147:\n                /* \"#utility.yul\":490:514   */\n              tag_196\n                /* \"#utility.yul\":508:513   */\n              dup2\n                /* \"#utility.yul\":490:514   */\n              tag_146\n              jump\t// in\n            tag_196:\n                /* \"#utility.yul\":483:488   */\n              dup2\n                /* \"#utility.yul\":480:515   */\n              eq\n                /* \"#utility.yul\":470:533   */\n              tag_197\n              jumpi\n                /* \"#utility.yul\":529:530   */\n              0x00\n                /* \"#utility.yul\":526:527   */\n              dup1\n                /* \"#utility.yul\":519:531   */\n              revert\n                /* \"#utility.yul\":470:533   */\n            tag_197:\n                /* \"#utility.yul\":417:539   */\n              pop\n              jump\t// out\n                /* \"#utility.yul\":545:684   */\n            tag_148:\n                /* \"#utility.yul\":591:596   */\n              0x00\n                /* \"#utility.yul\":629:635   */\n              dup2\n                /* \"#utility.yul\":616:636   */\n              calldataload\n                /* \"#utility.yul\":607:636   */\n              swap1\n              pop\n                /* \"#utility.yul\":645:678   */\n              tag_199\n                /* \"#utility.yul\":672:677   */\n              dup2\n                /* \"#utility.yul\":645:678   */\n              tag_147\n              jump\t// in\n            tag_199:\n                /* \"#utility.yul\":545:684   */\n              swap3\n              swap2\n              pop\n              pop\n              jump\t// out\n                /* \"#utility.yul\":690:1019   */\n            tag_17:\n                /* \"#utility.yul\":749:755   */\n              0x00\n                /* \"#utility.yul\":798:800   */\n              0x20\n                /* \"#utility.yul\":786:795   */\n              dup3\n                /* \"#utility.yul\":777:784   */\n              dup5\n                /* \"#utility.yul\":773:796   */\n              sub\n                /* \"#utility.yul\":769:801   */\n              slt\n                /* \"#utility.yul\":766:885   */\n              iszero\n              tag_201\n              jumpi\n                /* \"#utility.yul\":804:883   */\n              tag_202\n              tag_144\n              jump\t// in\n            tag_202:\n                /* \"#utility.yul\":766:885   */\n            tag_201:\n                /* \"#utility.yul\":924:925   */\n              0x00\n                /* \"#utility.yul\":949:1002   */\n              tag_203\n                /* \"#utility.yul\":994:1001   */\n              dup5\n                /* \"#utility.yul\":985:991   */\n              dup3\n                /* \"#utility.yul\":974:983   */\n              dup6\n                /* \"#utility.yul\":970:992   */\n              add\n                /* \"#utility.yul\":949:1002   */\n              tag_148\n              jump\t// in\n            tag_203:\n                /* \"#utility.yul\":939:1002   */\n              swap2\n              pop\n                /* \"#utility.yul\":895:1012   */\n              pop\n                /* \"#utility.yul\":690:1019   */\n              swap3\n              swap2\n              pop\n              pop\n              jump\t// out\n                /* \"#utility.yul\":1025:1124   */\n            tag_149:\n                /* \"#utility.yul\":1077:1083   */\n              0x00\n                /* \"#utility.yul\":1111:1116   */\n              dup2\n                /* \"#utility.yul\":1105:1117   */\n              mload\n                /* \"#utility.yul\":1095:1117   */\n              swap1\n              pop\n                /* \"#utility.yul\":1025:1124   */\n              swap2\n              swap1\n              pop\n              jump\t// out\n                /* \"#utility.yul\":1130:1299   */\n            tag_150:\n                /* \"#utility.yul\":1214:1225   */\n              0x00\n                /* \"#utility.yul\":1248:1254   */\n              dup3\n                /* \"#utility.yul\":1243:1246   */\n              dup3\n                /* \"#utility.yul\":1236:1255   */\n              mstore\n                /* \"#utility.yul\":1288:1292   */\n              0x20\n                /* \"#utility.yul\":1283:1286   */\n              dup3\n                /* \"#utility.yul\":1279:1293   */\n              add\n                /* \"#utility.yul\":1264:1293   */\n              swap1\n              pop\n                /* \"#utility.yul\":1130:1299   */\n              swap3\n              swap2\n              pop\n              pop\n              jump\t// out\n                /* \"#utility.yul\":1305:1612   */\n            tag_151:\n                /* \"#utility.yul\":1373:1374   */\n              0x00\n                /* \"#utility.yul\":1383:1496   */\n            tag_207:\n                /* \"#utility.yul\":1397:1403   */\n              dup4\n                /* \"#utility.yul\":1394:1395   */\n              dup2\n                /* \"#utility.yul\":1391:1404   */\n              lt\n                /* \"#utility.yul\":1383:1496   */\n              iszero\n              tag_209\n              jumpi\n                /* \"#utility.yul\":1482:1483   */\n              dup1\n                /* \"#utility.yul\":1477:1480   */\n              dup3\n                /* \"#utility.yul\":1473:1484   */\n              add\n                /* \"#utility.yul\":1467:1485   */\n              mload\n                /* \"#utility.yul\":1463:1464   */\n              dup2\n                /* \"#utility.yul\":1458:1461   */\n              dup5\n                /* \"#utility.yul\":1454:1465   */\n              add\n                /* \"#utility.yul\":1447:1486   */\n              mstore\n                /* \"#utility.yul\":1419:1421   */\n              0x20\n                /* \"#utility.yul\":1416:1417   */\n              dup2\n                /* \"#utility.yul\":1412:1422   */\n              add\n                /* \"#utility.yul\":1407:1422   */\n              swap1\n              pop\n                /* \"#utility.yul\":1383:1496   */\n              jump(tag_207)\n            tag_209:\n                /* \"#utility.yul\":1514:1520   */\n              dup4\n                /* \"#utility.yul\":1511:1512   */\n              dup2\n                /* \"#utility.yul\":1508:1521   */\n              gt\n                /* \"#utility.yul\":1505:1606   */\n              iszero\n              tag_210\n              jumpi\n                /* \"#utility.yul\":1594:1595   */\n              0x00\n                /* \"#utility.yul\":1585:1591   */\n              dup5\n                /* \"#utility.yul\":1580:1583   */\n              dup5\n                /* \"#utility.yul\":1576:1592   */\n              add\n                /* \"#utility.yul\":1569:1596   */\n              mstore\n                /* \"#utility.yul\":1505:1606   */\n            tag_210:\n                /* \"#utility.yul\":1354:1612   */\n              pop\n                /* \"#utility.yul\":1305:1612   */\n              pop\n              pop\n              pop\n              jump\t// out\n                /* \"#utility.yul\":1618:1720   */\n            tag_152:\n                /* \"#utility.yul\":1659:1665   */\n              0x00\n                /* \"#utility.yul\":1710:1712   */\n              0x1f\n                /* \"#utility.yul\":1706:1713   */\n              not\n                /* \"#utility.yul\":1701:1703   */\n              0x1f\n                /* \"#utility.yul\":1694:1699   */\n              dup4\n                /* \"#utility.yul\":1690:1704   */\n              add\n                /* \"#utility.yul\":1686:1714   */\n              and\n                /* \"#utility.yul\":1676:1714   */\n              swap1\n              pop\n                /* \"#utility.yul\":1618:1720   */\n              swap2\n              swap1\n              pop\n              jump\t// out\n                /* \"#utility.yul\":1726:2090   */\n            tag_153:\n                /* \"#utility.yul\":1814:1817   */\n              0x00\n                /* \"#utility.yul\":1842:1881   */\n              tag_213\n                /* \"#utility.yul\":1875:1880   */\n              dup3\n                /* \"#utility.yul\":1842:1881   */\n              tag_149\n              jump\t// in\n            tag_213:\n                /* \"#utility.yul\":1897:1968   */\n              tag_214\n                /* \"#utility.yul\":1961:1967   */\n              dup2\n                /* \"#utility.yul\":1956:1959   */\n              dup6\n                /* \"#utility.yul\":1897:1968   */\n              tag_150\n              jump\t// in\n            tag_214:\n                /* \"#utility.yul\":1890:1968   */\n              swap4\n              pop\n                /* \"#utility.yul\":1977:2029   */\n              tag_215\n                /* \"#utility.yul\":2022:2028   */\n              dup2\n                /* \"#utility.yul\":2017:2020   */\n              dup6\n                /* \"#utility.yul\":2010:2014   */\n              0x20\n                /* \"#utility.yul\":2003:2008   */\n              dup7\n                /* \"#utility.yul\":1999:2015   */\n              add\n                /* \"#utility.yul\":1977:2029   */\n              tag_151\n              jump\t// in\n            tag_215:\n                /* \"#utility.yul\":2054:2083   */\n              tag_216\n                /* \"#utility.yul\":2076:2082   */\n              dup2\n                /* \"#utility.yul\":2054:2083   */\n              tag_152\n              jump\t// in\n            tag_216:\n                /* \"#utility.yul\":2049:2052   */\n              dup5\n                /* \"#utility.yul\":2045:2084   */\n              add\n                /* \"#utility.yul\":2038:2084   */\n              swap2\n              pop\n                /* \"#utility.yul\":1818:2090   */\n              pop\n                /* \"#utility.yul\":1726:2090   */\n              swap3\n              swap2\n              pop\n              pop\n              jump\t// out\n                /* \"#utility.yul\":2096:2222   */\n            tag_154:\n                /* \"#utility.yul\":2133:2140   */\n              0x00\n                /* \"#utility.yul\":2173:2215   */\n              0xffffffffffffffffffffffffffffffffffffffff\n                /* \"#utility.yul\":2166:2171   */\n              dup3\n                /* \"#utility.yul\":2162:2216   */\n              and\n                /* \"#utility.yul\":2151:2216   */\n              swap1\n              pop\n                /* \"#utility.yul\":2096:2222   */\n              swap2\n              swap1\n              pop\n              jump\t// out\n                /* \"#utility.yul\":2228:2324   */\n            tag_155:\n                /* \"#utility.yul\":2265:2272   */\n              0x00\n                /* \"#utility.yul\":2294:2318   */\n              tag_219\n                /* \"#utility.yul\":2312:2317   */\n              dup3\n                /* \"#utility.yul\":2294:2318   */\n              tag_154\n              jump\t// in\n            tag_219:\n                /* \"#utility.yul\":2283:2318   */\n              swap1\n              pop\n                /* \"#utility.yul\":2228:2324   */\n              swap2\n              swap1\n              pop\n              jump\t// out\n                /* \"#utility.yul\":2330:2448   */\n            tag_156:\n                /* \"#utility.yul\":2417:2441   */\n              tag_221\n                /* \"#utility.yul\":2435:2440   */\n              dup2\n                /* \"#utility.yul\":2417:2441   */\n              tag_155\n              jump\t// in\n            tag_221:\n                /* \"#utility.yul\":2412:2415   */\n              dup3\n                /* \"#utility.yul\":2405:2442   */\n              mstore\n                /* \"#utility.yul\":2330:2448   */\n              pop\n              pop\n              jump\t// out\n                /* \"#utility.yul\":2454:2572   */\n            tag_157:\n                /* \"#utility.yul\":2541:2565   */\n              tag_223\n                /* \"#utility.yul\":2559:2564   */\n              dup2\n                /* \"#utility.yul\":2541:2565   */\n              tag_146\n              jump\t// in\n            tag_223:\n                /* \"#utility.yul\":2536:2539   */\n              dup3\n                /* \"#utility.yul\":2529:2566   */\n              mstore\n                /* \"#utility.yul\":2454:2572   */\n              pop\n              pop\n              jump\t// out\n                /* \"#utility.yul\":2578:3313   */\n            tag_20:\n                /* \"#utility.yul\":2795:2799   */\n              0x00\n                /* \"#utility.yul\":2833:2836   */\n              0x80\n                /* \"#utility.yul\":2822:2831   */\n              dup3\n                /* \"#utility.yul\":2818:2837   */\n              add\n                /* \"#utility.yul\":2810:2837   */\n              swap1\n              pop\n                /* \"#utility.yul\":2883:2892   */\n              dup2\n                /* \"#utility.yul\":2877:2881   */\n              dup2\n                /* \"#utility.yul\":2873:2893   */\n              sub\n                /* \"#utility.yul\":2869:2870   */\n              0x00\n                /* \"#utility.yul\":2858:2867   */\n              dup4\n                /* \"#utility.yul\":2854:2871   */\n              add\n                /* \"#utility.yul\":2847:2894   */\n              mstore\n                /* \"#utility.yul\":2911:2989   */\n              tag_225\n                /* \"#utility.yul\":2984:2988   */\n              dup2\n                /* \"#utility.yul\":2975:2981   */\n              dup8\n                /* \"#utility.yul\":2911:2989   */\n              tag_153\n              jump\t// in\n            tag_225:\n                /* \"#utility.yul\":2903:2989   */\n              swap1\n              pop\n                /* \"#utility.yul\":2999:3071   */\n              tag_226\n                /* \"#utility.yul\":3067:3069   */\n              0x20\n                /* \"#utility.yul\":3056:3065   */\n              dup4\n                /* \"#utility.yul\":3052:3070   */\n              add\n                /* \"#utility.yul\":3043:3049   */\n              dup7\n                /* \"#utility.yul\":2999:3071   */\n              tag_156\n              jump\t// in\n            tag_226:\n                /* \"#utility.yul\":3118:3127   */\n              dup2\n                /* \"#utility.yul\":3112:3116   */\n              dup2\n                /* \"#utility.yul\":3108:3128   */\n              sub\n                /* \"#utility.yul\":3103:3105   */\n              0x40\n                /* \"#utility.yul\":3092:3101   */\n              dup4\n                /* \"#utility.yul\":3088:3106   */\n              add\n                /* \"#utility.yul\":3081:3129   */\n              mstore\n                /* \"#utility.yul\":3146:3224   */\n              tag_227\n                /* \"#utility.yul\":3219:3223   */\n              dup2\n                /* \"#utility.yul\":3210:3216   */\n              dup6\n                /* \"#utility.yul\":3146:3224   */\n              tag_153\n              jump\t// in\n            tag_227:\n                /* \"#utility.yul\":3138:3224   */\n              swap1\n              pop\n                /* \"#utility.yul\":3234:3306   */\n              tag_228\n                /* \"#utility.yul\":3302:3304   */\n              0x60\n                /* \"#utility.yul\":3291:3300   */\n              dup4\n                /* \"#utility.yul\":3287:3305   */\n              add\n                /* \"#utility.yul\":3278:3284   */\n              dup5\n                /* \"#utility.yul\":3234:3306   */\n              tag_157\n              jump\t// in\n            tag_228:\n                /* \"#utility.yul\":2578:3313   */\n              swap6\n              swap5\n              pop\n              pop\n              pop\n              pop\n              pop\n              jump\t// out\n                /* \"#utility.yul\":3319:3436   */\n            tag_158:\n                /* \"#utility.yul\":3428:3429   */\n              0x00\n                /* \"#utility.yul\":3425:3426   */\n              dup1\n                /* \"#utility.yul\":3418:3430   */\n              revert\n                /* \"#utility.yul\":3442:3559   */\n            tag_159:\n                /* \"#utility.yul\":3551:3552   */\n              0x00\n                /* \"#utility.yul\":3548:3549   */\n              dup1\n                /* \"#utility.yul\":3541:3553   */\n              revert\n                /* \"#utility.yul\":3565:3745   */\n            tag_160:\n                /* \"#utility.yul\":3613:3690   */\n              0x4e487b7100000000000000000000000000000000000000000000000000000000\n                /* \"#utility.yul\":3610:3611   */\n              0x00\n                /* \"#utility.yul\":3603:3691   */\n              mstore\n                /* \"#utility.yul\":3710:3714   */\n              0x41\n                /* \"#utility.yul\":3707:3708   */\n              0x04\n                /* \"#utility.yul\":3700:3715   */\n              mstore\n                /* \"#utility.yul\":3734:3738   */\n              0x24\n                /* \"#utility.yul\":3731:3732   */\n              0x00\n                /* \"#utility.yul\":3724:3739   */\n              revert\n                /* \"#utility.yul\":3751:4032   */\n            tag_161:\n                /* \"#utility.yul\":3834:3861   */\n              tag_233\n                /* \"#utility.yul\":3856:3860   */\n              dup3\n                /* \"#utility.yul\":3834:3861   */\n              tag_152\n              jump\t// in\n            tag_233:\n                /* \"#utility.yul\":3826:3832   */\n              dup2\n                /* \"#utility.yul\":3822:3862   */\n              add\n                /* \"#utility.yul\":3964:3970   */\n              dup2\n                /* \"#utility.yul\":3952:3962   */\n              dup2\n                /* \"#utility.yul\":3949:3971   */\n              lt\n                /* \"#utility.yul\":3928:3946   */\n              0xffffffffffffffff\n                /* \"#utility.yul\":3916:3926   */\n              dup3\n                /* \"#utility.yul\":3913:3947   */\n              gt\n                /* \"#utility.yul\":3910:3972   */\n              or\n                /* \"#utility.yul\":3907:3995   */\n              iszero\n              tag_234\n              jumpi\n                /* \"#utility.yul\":3975:3993   */\n              tag_235\n              tag_160\n              jump\t// in\n            tag_235:\n                /* \"#utility.yul\":3907:3995   */\n            tag_234:\n                /* \"#utility.yul\":4015:4025   */\n              dup1\n                /* \"#utility.yul\":4011:4013   */\n              0x40\n                /* \"#utility.yul\":4004:4026   */\n              mstore\n                /* \"#utility.yul\":3794:4032   */\n              pop\n                /* \"#utility.yul\":3751:4032   */\n              pop\n              pop\n              jump\t// out\n                /* \"#utility.yul\":4038:4167   */\n            tag_162:\n                /* \"#utility.yul\":4072:4078   */\n              0x00\n                /* \"#utility.yul\":4099:4119   */\n              tag_237\n              tag_143\n              jump\t// in\n            tag_237:\n                /* \"#utility.yul\":4089:4119   */\n              swap1\n              pop\n                /* \"#utility.yul\":4128:4161   */\n              tag_238\n                /* \"#utility.yul\":4156:4160   */\n              dup3\n                /* \"#utility.yul\":4148:4154   */\n              dup3\n                /* \"#utility.yul\":4128:4161   */\n              tag_161\n              jump\t// in\n            tag_238:\n                /* \"#utility.yul\":4038:4167   */\n              swap2\n              swap1\n              pop\n              jump\t// out\n                /* \"#utility.yul\":4173:4481   */\n            tag_163:\n                /* \"#utility.yul\":4235:4239   */\n              0x00\n                /* \"#utility.yul\":4325:4343   */\n              0xffffffffffffffff\n                /* \"#utility.yul\":4317:4323   */\n              dup3\n                /* \"#utility.yul\":4314:4344   */\n              gt\n                /* \"#utility.yul\":4311:4367   */\n              iszero\n              tag_240\n              jumpi\n                /* \"#utility.yul\":4347:4365   */\n              tag_241\n              tag_160\n              jump\t// in\n            tag_241:\n                /* \"#utility.yul\":4311:4367   */\n            tag_240:\n                /* \"#utility.yul\":4385:4414   */\n              tag_242\n                /* \"#utility.yul\":4407:4413   */\n              dup3\n                /* \"#utility.yul\":4385:4414   */\n              tag_152\n              jump\t// in\n            tag_242:\n                /* \"#utility.yul\":4377:4414   */\n              swap1\n              pop\n                /* \"#utility.yul\":4469:4473   */\n              0x20\n                /* \"#utility.yul\":4463:4467   */\n              dup2\n                /* \"#utility.yul\":4459:4474   */\n              add\n                /* \"#utility.yul\":4451:4474   */\n              swap1\n              pop\n                /* \"#utility.yul\":4173:4481   */\n              swap2\n              swap1\n              pop\n              jump\t// out\n                /* \"#utility.yul\":4487:4641   */\n            tag_164:\n                /* \"#utility.yul\":4571:4577   */\n              dup3\n                /* \"#utility.yul\":4566:4569   */\n              dup2\n                /* \"#utility.yul\":4561:4564   */\n              dup4\n                /* \"#utility.yul\":4548:4578   */\n              calldatacopy\n                /* \"#utility.yul\":4633:4634   */\n              0x00\n                /* \"#utility.yul\":4624:4630   */\n              dup4\n                /* \"#utility.yul\":4619:4622   */\n              dup4\n                /* \"#utility.yul\":4615:4631   */\n              add\n                /* \"#utility.yul\":4608:4635   */\n              mstore\n                /* \"#utility.yul\":4487:4641   */\n              pop\n              pop\n              pop\n              jump\t// out\n                /* \"#utility.yul\":4647:5059   */\n            tag_165:\n                /* \"#utility.yul\":4725:4730   */\n              0x00\n                /* \"#utility.yul\":4750:4816   */\n              tag_245\n                /* \"#utility.yul\":4766:4815   */\n              tag_246\n                /* \"#utility.yul\":4808:4814   */\n              dup5\n                /* \"#utility.yul\":4766:4815   */\n              tag_163\n              jump\t// in\n            tag_246:\n                /* \"#utility.yul\":4750:4816   */\n              tag_162\n              jump\t// in\n            tag_245:\n                /* \"#utility.yul\":4741:4816   */\n              swap1\n              pop\n                /* \"#utility.yul\":4839:4845   */\n              dup3\n                /* \"#utility.yul\":4832:4837   */\n              dup2\n                /* \"#utility.yul\":4825:4846   */\n              mstore\n                /* \"#utility.yul\":4877:4881   */\n              0x20\n                /* \"#utility.yul\":4870:4875   */\n              dup2\n                /* \"#utility.yul\":4866:4882   */\n              add\n                /* \"#utility.yul\":4915:4918   */\n              dup5\n                /* \"#utility.yul\":4906:4912   */\n              dup5\n                /* \"#utility.yul\":4901:4904   */\n              dup5\n                /* \"#utility.yul\":4897:4913   */\n              add\n                /* \"#utility.yul\":4894:4919   */\n              gt\n                /* \"#utility.yul\":4891:5003   */\n              iszero\n              tag_247\n              jumpi\n                /* \"#utility.yul\":4922:5001   */\n              tag_248\n              tag_159\n              jump\t// in\n            tag_248:\n                /* \"#utility.yul\":4891:5003   */\n            tag_247:\n                /* \"#utility.yul\":5012:5053   */\n              tag_249\n                /* \"#utility.yul\":5046:5052   */\n              dup5\n                /* \"#utility.yul\":5041:5044   */\n              dup3\n                /* \"#utility.yul\":5036:5039   */\n              dup6\n                /* \"#utility.yul\":5012:5053   */\n              tag_164\n              jump\t// in\n            tag_249:\n                /* \"#utility.yul\":4731:5059   */\n              pop\n                /* \"#utility.yul\":4647:5059   */\n              swap4\n              swap3\n              pop\n              pop\n              pop\n              jump\t// out\n                /* \"#utility.yul\":5079:5419   */\n            tag_166:\n                /* \"#utility.yul\":5135:5140   */\n              0x00\n                /* \"#utility.yul\":5184:5187   */\n              dup3\n                /* \"#utility.yul\":5177:5181   */\n              0x1f\n                /* \"#utility.yul\":5169:5175   */\n              dup4\n                /* \"#utility.yul\":5165:5182   */\n              add\n                /* \"#utility.yul\":5161:5188   */\n              slt\n                /* \"#utility.yul\":5151:5273   */\n              tag_251\n              jumpi\n                /* \"#utility.yul\":5192:5271   */\n              tag_252\n              tag_158\n              jump\t// in\n            tag_252:\n                /* \"#utility.yul\":5151:5273   */\n            tag_251:\n                /* \"#utility.yul\":5309:5315   */\n              dup2\n                /* \"#utility.yul\":5296:5316   */\n              calldataload\n                /* \"#utility.yul\":5334:5413   */\n              tag_253\n                /* \"#utility.yul\":5409:5412   */\n              dup5\n                /* \"#utility.yul\":5401:5407   */\n              dup3\n                /* \"#utility.yul\":5394:5398   */\n              0x20\n                /* \"#utility.yul\":5386:5392   */\n              dup7\n                /* \"#utility.yul\":5382:5399   */\n              add\n                /* \"#utility.yul\":5334:5413   */\n              tag_165\n              jump\t// in\n            tag_253:\n                /* \"#utility.yul\":5325:5413   */\n              swap2\n              pop\n                /* \"#utility.yul\":5141:5419   */\n              pop\n                /* \"#utility.yul\":5079:5419   */\n              swap3\n              swap2\n              pop\n              pop\n              jump\t// out\n                /* \"#utility.yul\":5425:5547   */\n            tag_167:\n                /* \"#utility.yul\":5498:5522   */\n              tag_255\n                /* \"#utility.yul\":5516:5521   */\n              dup2\n                /* \"#utility.yul\":5498:5522   */\n              tag_155\n              jump\t// in\n            tag_255:\n                /* \"#utility.yul\":5491:5496   */\n              dup2\n                /* \"#utility.yul\":5488:5523   */\n              eq\n                /* \"#utility.yul\":5478:5541   */\n              tag_256\n              jumpi\n                /* \"#utility.yul\":5537:5538   */\n              0x00\n                /* \"#utility.yul\":5534:5535   */\n              dup1\n                /* \"#utility.yul\":5527:5539   */\n              revert\n                /* \"#utility.yul\":5478:5541   */\n            tag_256:\n                /* \"#utility.yul\":5425:5547   */\n              pop\n              jump\t// out\n                /* \"#utility.yul\":5553:5692   */\n            tag_168:\n                /* \"#utility.yul\":5599:5604   */\n              0x00\n                /* \"#utility.yul\":5637:5643   */\n              dup2\n                /* \"#utility.yul\":5624:5644   */\n              calldataload\n                /* \"#utility.yul\":5615:5644   */\n              swap1\n              pop\n                /* \"#utility.yul\":5653:5686   */\n              tag_258\n                /* \"#utility.yul\":5680:5685   */\n              dup2\n                /* \"#utility.yul\":5653:5686   */\n              tag_167\n              jump\t// in\n            tag_258:\n                /* \"#utility.yul\":5553:5692   */\n              swap3\n              swap2\n              pop\n              pop\n              jump\t// out\n                /* \"#utility.yul\":5698:6677   */\n            tag_27:\n                /* \"#utility.yul\":5795:5801   */\n              0x00\n                /* \"#utility.yul\":5803:5809   */\n              dup1\n                /* \"#utility.yul\":5811:5817   */\n              0x00\n                /* \"#utility.yul\":5860:5862   */\n              0x60\n                /* \"#utility.yul\":5848:5857   */\n              dup5\n                /* \"#utility.yul\":5839:5846   */\n              dup7\n                /* \"#utility.yul\":5835:5858   */\n              sub\n                /* \"#utility.yul\":5831:5863   */\n              slt\n                /* \"#utility.yul\":5828:5947   */\n              iszero\n              tag_260\n              jumpi\n                /* \"#utility.yul\":5866:5945   */\n              tag_261\n              tag_144\n              jump\t// in\n            tag_261:\n                /* \"#utility.yul\":5828:5947   */\n            tag_260:\n                /* \"#utility.yul\":6014:6015   */\n              0x00\n                /* \"#utility.yul\":6003:6012   */\n              dup5\n                /* \"#utility.yul\":5999:6016   */\n              add\n                /* \"#utility.yul\":5986:6017   */\n              calldataload\n                /* \"#utility.yul\":6044:6062   */\n              0xffffffffffffffff\n                /* \"#utility.yul\":6036:6042   */\n              dup2\n                /* \"#utility.yul\":6033:6063   */\n              gt\n                /* \"#utility.yul\":6030:6147   */\n              iszero\n              tag_262\n              jumpi\n                /* \"#utility.yul\":6066:6145   */\n              tag_263\n              tag_145\n              jump\t// in\n            tag_263:\n                /* \"#utility.yul\":6030:6147   */\n            tag_262:\n                /* \"#utility.yul\":6171:6234   */\n              tag_264\n                /* \"#utility.yul\":6226:6233   */\n              dup7\n                /* \"#utility.yul\":6217:6223   */\n              dup3\n                /* \"#utility.yul\":6206:6215   */\n              dup8\n                /* \"#utility.yul\":6202:6224   */\n              add\n                /* \"#utility.yul\":6171:6234   */\n              tag_166\n              jump\t// in\n            tag_264:\n                /* \"#utility.yul\":6161:6234   */\n              swap4\n              pop\n                /* \"#utility.yul\":5957:6244   */\n              pop\n                /* \"#utility.yul\":6283:6285   */\n              0x20\n                /* \"#utility.yul\":6309:6362   */\n              tag_265\n                /* \"#utility.yul\":6354:6361   */\n              dup7\n                /* \"#utility.yul\":6345:6351   */\n              dup3\n                /* \"#utility.yul\":6334:6343   */\n              dup8\n                /* \"#utility.yul\":6330:6352   */\n              add\n                /* \"#utility.yul\":6309:6362   */\n              tag_168\n              jump\t// in\n            tag_265:\n                /* \"#utility.yul\":6299:6362   */\n              swap3\n              pop\n                /* \"#utility.yul\":6254:6372   */\n              pop\n                /* \"#utility.yul\":6439:6441   */\n              0x40\n                /* \"#utility.yul\":6428:6437   */\n              dup5\n                /* \"#utility.yul\":6424:6442   */\n              add\n                /* \"#utility.yul\":6411:6443   */\n              calldataload\n                /* \"#utility.yul\":6470:6488   */\n              0xffffffffffffffff\n                /* \"#utility.yul\":6462:6468   */\n              dup2\n                /* \"#utility.yul\":6459:6489   */\n              gt\n                /* \"#utility.yul\":6456:6573   */\n              iszero\n              tag_266\n              jumpi\n                /* \"#utility.yul\":6492:6571   */\n              tag_267\n              tag_145\n              jump\t// in\n            tag_267:\n                /* \"#utility.yul\":6456:6573   */\n            tag_266:\n                /* \"#utility.yul\":6597:6660   */\n              tag_268\n                /* \"#utility.yul\":6652:6659   */\n              dup7\n                /* \"#utility.yul\":6643:6649   */\n              dup3\n                /* \"#utility.yul\":6632:6641   */\n              dup8\n                /* \"#utility.yul\":6628:6650   */\n              add\n                /* \"#utility.yul\":6597:6660   */\n              tag_166\n              jump\t// in\n            tag_268:\n                /* \"#utility.yul\":6587:6660   */\n              swap2\n              pop\n                /* \"#utility.yul\":6382:6670   */\n              pop\n                /* \"#utility.yul\":5698:6677   */\n              swap3\n              pop\n              swap3\n              pop\n              swap3\n              jump\t// out\n                /* \"#utility.yul\":6683:6819   */\n            tag_169:\n                /* \"#utility.yul\":6772:6778   */\n              0x00\n                /* \"#utility.yul\":6806:6811   */\n              dup2\n                /* \"#utility.yul\":6800:6812   */\n              mload\n                /* \"#utility.yul\":6790:6812   */\n              swap1\n              pop\n                /* \"#utility.yul\":6683:6819   */\n              swap2\n              swap1\n              pop\n              jump\t// out\n                /* \"#utility.yul\":6825:7031   */\n            tag_170:\n                /* \"#utility.yul\":6946:6957   */\n              0x00\n                /* \"#utility.yul\":6980:6986   */\n              dup3\n                /* \"#utility.yul\":6975:6978   */\n              dup3\n                /* \"#utility.yul\":6968:6987   */\n              mstore\n                /* \"#utility.yul\":7020:7024   */\n              0x20\n                /* \"#utility.yul\":7015:7018   */\n              dup3\n                /* \"#utility.yul\":7011:7025   */\n              add\n                /* \"#utility.yul\":6996:7025   */\n              swap1\n              pop\n                /* \"#utility.yul\":6825:7031   */\n              swap3\n              swap2\n              pop\n              pop\n              jump\t// out\n                /* \"#utility.yul\":7037:7191   */\n            tag_171:\n                /* \"#utility.yul\":7126:7130   */\n              0x00\n                /* \"#utility.yul\":7149:7152   */\n              dup2\n                /* \"#utility.yul\":7141:7152   */\n              swap1\n              pop\n                /* \"#utility.yul\":7179:7183   */\n              0x20\n                /* \"#utility.yul\":7174:7177   */\n              dup3\n                /* \"#utility.yul\":7170:7184   */\n              add\n                /* \"#utility.yul\":7162:7184   */\n              swap1\n              pop\n                /* \"#utility.yul\":7037:7191   */\n              swap2\n              swap1\n              pop\n              jump\t// out\n                /* \"#utility.yul\":7197:7356   */\n            tag_172:\n                /* \"#utility.yul\":7271:7282   */\n              0x00\n                /* \"#utility.yul\":7305:7311   */\n              dup3\n                /* \"#utility.yul\":7300:7303   */\n              dup3\n                /* \"#utility.yul\":7293:7312   */\n              mstore\n                /* \"#utility.yul\":7345:7349   */\n              0x20\n                /* \"#utility.yul\":7340:7343   */\n              dup3\n                /* \"#utility.yul\":7336:7350   */\n              add\n                /* \"#utility.yul\":7321:7350   */\n              swap1\n              pop\n                /* \"#utility.yul\":7197:7356   */\n              swap3\n              swap2\n              pop\n              pop\n              jump\t// out\n                /* \"#utility.yul\":7362:7706   */\n            tag_173:\n                /* \"#utility.yul\":7440:7443   */\n              0x00\n                /* \"#utility.yul\":7468:7507   */\n              tag_274\n                /* \"#utility.yul\":7501:7506   */\n              dup3\n                /* \"#utility.yul\":7468:7507   */\n              tag_149\n              jump\t// in\n            tag_274:\n                /* \"#utility.yul\":7523:7584   */\n              tag_275\n                /* \"#utility.yul\":7577:7583   */\n              dup2\n                /* \"#utility.yul\":7572:7575   */\n              dup6\n                /* \"#utility.yul\":7523:7584   */\n              tag_172\n              jump\t// in\n            tag_275:\n                /* \"#utility.yul\":7516:7584   */\n              swap4\n              pop\n                /* \"#utility.yul\":7593:7645   */\n              tag_276\n                /* \"#utility.yul\":7638:7644   */\n              dup2\n                /* \"#utility.yul\":7633:7636   */\n              dup6\n                /* \"#utility.yul\":7626:7630   */\n              0x20\n                /* \"#utility.yul\":7619:7624   */\n              dup7\n                /* \"#utility.yul\":7615:7631   */\n              add\n                /* \"#utility.yul\":7593:7645   */\n              tag_151\n              jump\t// in\n            tag_276:\n                /* \"#utility.yul\":7670:7699   */\n              tag_277\n                /* \"#utility.yul\":7692:7698   */\n              dup2\n                /* \"#utility.yul\":7670:7699   */\n              tag_152\n              jump\t// in\n            tag_277:\n                /* \"#utility.yul\":7665:7668   */\n              dup5\n                /* \"#utility.yul\":7661:7700   */\n              add\n                /* \"#utility.yul\":7654:7700   */\n              swap2\n              pop\n                /* \"#utility.yul\":7444:7706   */\n              pop\n                /* \"#utility.yul\":7362:7706   */\n              swap3\n              swap2\n              pop\n              pop\n              jump\t// out\n                /* \"#utility.yul\":7712:7820   */\n            tag_174:\n                /* \"#utility.yul\":7789:7813   */\n              tag_279\n                /* \"#utility.yul\":7807:7812   */\n              dup2\n                /* \"#utility.yul\":7789:7813   */\n              tag_155\n              jump\t// in\n            tag_279:\n                /* \"#utility.yul\":7784:7787   */\n              dup3\n                /* \"#utility.yul\":7777:7814   */\n              mstore\n                /* \"#utility.yul\":7712:7820   */\n              pop\n              pop\n              jump\t// out\n                /* \"#utility.yul\":7826:7934   */\n            tag_175:\n                /* \"#utility.yul\":7903:7927   */\n              tag_281\n                /* \"#utility.yul\":7921:7926   */\n              dup2\n                /* \"#utility.yul\":7903:7927   */\n              tag_146\n              jump\t// in\n            tag_281:\n                /* \"#utility.yul\":7898:7901   */\n              dup3\n                /* \"#utility.yul\":7891:7928   */\n              mstore\n                /* \"#utility.yul\":7826:7934   */\n              pop\n              pop\n              jump\t// out\n                /* \"#utility.yul\":7992:9001   */\n            tag_176:\n                /* \"#utility.yul\":8095:8098   */\n              0x00\n                /* \"#utility.yul\":8131:8135   */\n              0x80\n                /* \"#utility.yul\":8126:8129   */\n              dup4\n                /* \"#utility.yul\":8122:8136   */\n              add\n                /* \"#utility.yul\":8218:8222   */\n              0x00\n                /* \"#utility.yul\":8211:8216   */\n              dup4\n                /* \"#utility.yul\":8207:8223   */\n              add\n                /* \"#utility.yul\":8201:8224   */\n              mload\n                /* \"#utility.yul\":8271:8274   */\n              dup5\n                /* \"#utility.yul\":8265:8269   */\n              dup3\n                /* \"#utility.yul\":8261:8275   */\n              sub\n                /* \"#utility.yul\":8254:8258   */\n              0x00\n                /* \"#utility.yul\":8249:8252   */\n              dup7\n                /* \"#utility.yul\":8245:8259   */\n              add\n                /* \"#utility.yul\":8238:8276   */\n              mstore\n                /* \"#utility.yul\":8297:8370   */\n              tag_283\n                /* \"#utility.yul\":8365:8369   */\n              dup3\n                /* \"#utility.yul\":8351:8363   */\n              dup3\n                /* \"#utility.yul\":8297:8370   */\n              tag_173\n              jump\t// in\n            tag_283:\n                /* \"#utility.yul\":8289:8370   */\n              swap2\n              pop\n                /* \"#utility.yul\":8146:8381   */\n              pop\n                /* \"#utility.yul\":8461:8465   */\n              0x20\n                /* \"#utility.yul\":8454:8459   */\n              dup4\n                /* \"#utility.yul\":8450:8466   */\n              add\n                /* \"#utility.yul\":8444:8467   */\n              mload\n                /* \"#utility.yul\":8480:8543   */\n              tag_284\n                /* \"#utility.yul\":8537:8541   */\n              0x20\n                /* \"#utility.yul\":8532:8535   */\n              dup7\n                /* \"#utility.yul\":8528:8542   */\n              add\n                /* \"#utility.yul\":8514:8526   */\n              dup3\n                /* \"#utility.yul\":8480:8543   */\n              tag_174\n              jump\t// in\n            tag_284:\n                /* \"#utility.yul\":8391:8553   */\n              pop\n                /* \"#utility.yul\":8636:8640   */\n              0x40\n                /* \"#utility.yul\":8629:8634   */\n              dup4\n                /* \"#utility.yul\":8625:8641   */\n              add\n                /* \"#utility.yul\":8619:8642   */\n              mload\n                /* \"#utility.yul\":8689:8692   */\n              dup5\n                /* \"#utility.yul\":8683:8687   */\n              dup3\n                /* \"#utility.yul\":8679:8693   */\n              sub\n                /* \"#utility.yul\":8672:8676   */\n              0x40\n                /* \"#utility.yul\":8667:8670   */\n              dup7\n                /* \"#utility.yul\":8663:8677   */\n              add\n                /* \"#utility.yul\":8656:8694   */\n              mstore\n                /* \"#utility.yul\":8715:8788   */\n              tag_285\n                /* \"#utility.yul\":8783:8787   */\n              dup3\n                /* \"#utility.yul\":8769:8781   */\n              dup3\n                /* \"#utility.yul\":8715:8788   */\n              tag_173\n              jump\t// in\n            tag_285:\n                /* \"#utility.yul\":8707:8788   */\n              swap2\n              pop\n                /* \"#utility.yul\":8563:8799   */\n              pop\n                /* \"#utility.yul\":8882:8886   */\n              0x60\n                /* \"#utility.yul\":8875:8880   */\n              dup4\n                /* \"#utility.yul\":8871:8887   */\n              add\n                /* \"#utility.yul\":8865:8888   */\n              mload\n                /* \"#utility.yul\":8901:8964   */\n              tag_286\n                /* \"#utility.yul\":8958:8962   */\n              0x60\n                /* \"#utility.yul\":8953:8956   */\n              dup7\n                /* \"#utility.yul\":8949:8963   */\n              add\n                /* \"#utility.yul\":8935:8947   */\n              dup3\n                /* \"#utility.yul\":8901:8964   */\n              tag_175\n              jump\t// in\n            tag_286:\n                /* \"#utility.yul\":8809:8974   */\n              pop\n                /* \"#utility.yul\":8991:8995   */\n              dup1\n                /* \"#utility.yul\":8984:8995   */\n              swap2\n              pop\n                /* \"#utility.yul\":8100:9001   */\n              pop\n                /* \"#utility.yul\":7992:9001   */\n              swap3\n              swap2\n              pop\n              pop\n              jump\t// out\n                /* \"#utility.yul\":9007:9251   */\n            tag_177:\n                /* \"#utility.yul\":9120:9130   */\n              0x00\n                /* \"#utility.yul\":9155:9245   */\n              tag_288\n                /* \"#utility.yul\":9241:9244   */\n              dup4\n                /* \"#utility.yul\":9233:9239   */\n              dup4\n                /* \"#utility.yul\":9155:9245   */\n              tag_176\n              jump\t// in\n            tag_288:\n                /* \"#utility.yul\":9141:9245   */\n              swap1\n              pop\n                /* \"#utility.yul\":9007:9251   */\n              swap3\n              swap2\n              pop\n              pop\n              jump\t// out\n                /* \"#utility.yul\":9257:9392   */\n            tag_178:\n                /* \"#utility.yul\":9349:9353   */\n              0x00\n                /* \"#utility.yul\":9381:9385   */\n              0x20\n                /* \"#utility.yul\":9376:9379   */\n              dup3\n                /* \"#utility.yul\":9372:9386   */\n              add\n                /* \"#utility.yul\":9364:9386   */\n              swap1\n              pop\n                /* \"#utility.yul\":9257:9392   */\n              swap2\n              swap1\n              pop\n              jump\t// out\n                /* \"#utility.yul\":9454:10541   */\n            tag_179:\n                /* \"#utility.yul\":9617:9620   */\n              0x00\n                /* \"#utility.yul\":9646:9722   */\n              tag_291\n                /* \"#utility.yul\":9716:9721   */\n              dup3\n                /* \"#utility.yul\":9646:9722   */\n              tag_169\n              jump\t// in\n            tag_291:\n                /* \"#utility.yul\":9738:9846   */\n              tag_292\n                /* \"#utility.yul\":9839:9845   */\n              dup2\n                /* \"#utility.yul\":9834:9837   */\n              dup6\n                /* \"#utility.yul\":9738:9846   */\n              tag_170\n              jump\t// in\n            tag_292:\n                /* \"#utility.yul\":9731:9846   */\n              swap4\n              pop\n                /* \"#utility.yul\":9872:9875   */\n              dup4\n                /* \"#utility.yul\":9917:9921   */\n              0x20\n                /* \"#utility.yul\":9909:9915   */\n              dup3\n                /* \"#utility.yul\":9905:9922   */\n              mul\n                /* \"#utility.yul\":9900:9903   */\n              dup6\n                /* \"#utility.yul\":9896:9923   */\n              add\n                /* \"#utility.yul\":9947:10025   */\n              tag_293\n                /* \"#utility.yul\":10019:10024   */\n              dup6\n                /* \"#utility.yul\":9947:10025   */\n              tag_171\n              jump\t// in\n            tag_293:\n                /* \"#utility.yul\":10048:10055   */\n              dup1\n                /* \"#utility.yul\":10079:10080   */\n              0x00\n                /* \"#utility.yul\":10064:10496   */\n            tag_294:\n                /* \"#utility.yul\":10089:10095   */\n              dup6\n                /* \"#utility.yul\":10086:10087   */\n              dup2\n                /* \"#utility.yul\":10083:10096   */\n              lt\n                /* \"#utility.yul\":10064:10496   */\n              iszero\n              tag_296\n              jumpi\n                /* \"#utility.yul\":10160:10169   */\n              dup5\n                /* \"#utility.yul\":10154:10158   */\n              dup5\n                /* \"#utility.yul\":10150:10170   */\n              sub\n                /* \"#utility.yul\":10145:10148   */\n              dup10\n                /* \"#utility.yul\":10138:10171   */\n              mstore\n                /* \"#utility.yul\":10211:10217   */\n              dup2\n                /* \"#utility.yul\":10205:10218   */\n              mload\n                /* \"#utility.yul\":10239:10347   */\n              tag_297\n                /* \"#utility.yul\":10342:10346   */\n              dup6\n                /* \"#utility.yul\":10327:10340   */\n              dup3\n                /* \"#utility.yul\":10239:10347   */\n              tag_177\n              jump\t// in\n            tag_297:\n                /* \"#utility.yul\":10231:10347   */\n              swap5\n              pop\n                /* \"#utility.yul\":10370:10452   */\n              tag_298\n                /* \"#utility.yul\":10445:10451   */\n              dup4\n                /* \"#utility.yul\":10370:10452   */\n              tag_178\n              jump\t// in\n            tag_298:\n                /* \"#utility.yul\":10360:10452   */\n              swap3\n              pop\n                /* \"#utility.yul\":10481:10485   */\n              0x20\n                /* \"#utility.yul\":10476:10479   */\n              dup11\n                /* \"#utility.yul\":10472:10486   */\n              add\n                /* \"#utility.yul\":10465:10486   */\n              swap10\n              pop\n                /* \"#utility.yul\":10124:10496   */\n              pop\n                /* \"#utility.yul\":10111:10112   */\n              0x01\n                /* \"#utility.yul\":10108:10109   */\n              dup2\n                /* \"#utility.yul\":10104:10113   */\n              add\n                /* \"#utility.yul\":10099:10113   */\n              swap1\n              pop\n                /* \"#utility.yul\":10064:10496   */\n              jump(tag_294)\n            tag_296:\n                /* \"#utility.yul\":10068:10082   */\n              pop\n                /* \"#utility.yul\":10512:10516   */\n              dup3\n                /* \"#utility.yul\":10505:10516   */\n              swap8\n              pop\n                /* \"#utility.yul\":10532:10535   */\n              dup8\n                /* \"#utility.yul\":10525:10535   */\n              swap6\n              pop\n                /* \"#utility.yul\":9622:10541   */\n              pop\n              pop\n              pop\n              pop\n              pop\n                /* \"#utility.yul\":9454:10541   */\n              swap3\n              swap2\n              pop\n              pop\n              jump\t// out\n                /* \"#utility.yul\":10547:11008   */\n            tag_33:\n                /* \"#utility.yul\":10734:10738   */\n              0x00\n                /* \"#utility.yul\":10772:10774   */\n              0x20\n                /* \"#utility.yul\":10761:10770   */\n              dup3\n                /* \"#utility.yul\":10757:10775   */\n              add\n                /* \"#utility.yul\":10749:10775   */\n              swap1\n              pop\n                /* \"#utility.yul\":10821:10830   */\n              dup2\n                /* \"#utility.yul\":10815:10819   */\n              dup2\n                /* \"#utility.yul\":10811:10831   */\n              sub\n                /* \"#utility.yul\":10807:10808   */\n              0x00\n                /* \"#utility.yul\":10796:10805   */\n              dup4\n                /* \"#utility.yul\":10792:10809   */\n              add\n                /* \"#utility.yul\":10785:10832   */\n              mstore\n                /* \"#utility.yul\":10849:11001   */\n              tag_300\n                /* \"#utility.yul\":10996:11000   */\n              dup2\n                /* \"#utility.yul\":10987:10993   */\n              dup5\n                /* \"#utility.yul\":10849:11001   */\n              tag_179\n              jump\t// in\n            tag_300:\n                /* \"#utility.yul\":10841:11001   */\n              swap1\n              pop\n                /* \"#utility.yul\":10547:11008   */\n              swap3\n              swap2\n              pop\n              pop\n              jump\t// out\n                /* \"#utility.yul\":11014:11523   */\n            tag_37:\n                /* \"#utility.yul\":11083:11089   */\n              0x00\n                /* \"#utility.yul\":11132:11134   */\n              0x20\n                /* \"#utility.yul\":11120:11129   */\n              dup3\n                /* \"#utility.yul\":11111:11118   */\n              dup5\n                /* \"#utility.yul\":11107:11130   */\n              sub\n                /* \"#utility.yul\":11103:11135   */\n              slt\n                /* \"#utility.yul\":11100:11219   */\n              iszero\n              tag_302\n              jumpi\n                /* \"#utility.yul\":11138:11217   */\n              tag_303\n              tag_144\n              jump\t// in\n            tag_303:\n                /* \"#utility.yul\":11100:11219   */\n            tag_302:\n                /* \"#utility.yul\":11286:11287   */\n              0x00\n                /* \"#utility.yul\":11275:11284   */\n              dup3\n                /* \"#utility.yul\":11271:11288   */\n              add\n                /* \"#utility.yul\":11258:11289   */\n              calldataload\n                /* \"#utility.yul\":11316:11334   */\n              0xffffffffffffffff\n                /* \"#utility.yul\":11308:11314   */\n              dup2\n                /* \"#utility.yul\":11305:11335   */\n              gt\n                /* \"#utility.yul\":11302:11419   */\n              iszero\n              tag_304\n              jumpi\n                /* \"#utility.yul\":11338:11417   */\n              tag_305\n              tag_145\n              jump\t// in\n            tag_305:\n                /* \"#utility.yul\":11302:11419   */\n            tag_304:\n                /* \"#utility.yul\":11443:11506   */\n              tag_306\n                /* \"#utility.yul\":11498:11505   */\n              dup5\n                /* \"#utility.yul\":11489:11495   */\n              dup3\n                /* \"#utility.yul\":11478:11487   */\n              dup6\n                /* \"#utility.yul\":11474:11496   */\n              add\n                /* \"#utility.yul\":11443:11506   */\n              tag_166\n              jump\t// in\n            tag_306:\n                /* \"#utility.yul\":11433:11506   */\n              swap2\n              pop\n                /* \"#utility.yul\":11229:11516   */\n              pop\n                /* \"#utility.yul\":11014:11523   */\n              swap3\n              swap2\n              pop\n              pop\n              jump\t// out\n                /* \"#utility.yul\":11529:11619   */\n            tag_180:\n                /* \"#utility.yul\":11563:11570   */\n              0x00\n                /* \"#utility.yul\":11606:11611   */\n              dup2\n                /* \"#utility.yul\":11599:11612   */\n              iszero\n                /* \"#utility.yul\":11592:11613   */\n              iszero\n                /* \"#utility.yul\":11581:11613   */\n              swap1\n              pop\n                /* \"#utility.yul\":11529:11619   */\n              swap2\n              swap1\n              pop\n              jump\t// out\n                /* \"#utility.yul\":11625:11734   */\n            tag_181:\n                /* \"#utility.yul\":11706:11727   */\n              tag_309\n                /* \"#utility.yul\":11721:11726   */\n              dup2\n                /* \"#utility.yul\":11706:11727   */\n              tag_180\n              jump\t// in\n            tag_309:\n                /* \"#utility.yul\":11701:11704   */\n              dup3\n                /* \"#utility.yul\":11694:11728   */\n              mstore\n                /* \"#utility.yul\":11625:11734   */\n              pop\n              pop\n              jump\t// out\n                /* \"#utility.yul\":11740:11950   */\n            tag_40:\n                /* \"#utility.yul\":11827:11831   */\n              0x00\n                /* \"#utility.yul\":11865:11867   */\n              0x20\n                /* \"#utility.yul\":11854:11863   */\n              dup3\n                /* \"#utility.yul\":11850:11868   */\n              add\n                /* \"#utility.yul\":11842:11868   */\n              swap1\n              pop\n                /* \"#utility.yul\":11878:11943   */\n              tag_311\n                /* \"#utility.yul\":11940:11941   */\n              0x00\n                /* \"#utility.yul\":11929:11938   */\n              dup4\n                /* \"#utility.yul\":11925:11942   */\n              add\n                /* \"#utility.yul\":11916:11922   */\n              dup5\n                /* \"#utility.yul\":11878:11943   */\n              tag_181\n              jump\t// in\n            tag_311:\n                /* \"#utility.yul\":11740:11950   */\n              swap3\n              swap2\n              pop\n              pop\n              jump\t// out\n                /* \"#utility.yul\":11956:12136   */\n            tag_182:\n                /* \"#utility.yul\":12004:12081   */\n              0x4e487b7100000000000000000000000000000000000000000000000000000000\n                /* \"#utility.yul\":12001:12002   */\n              0x00\n                /* \"#utility.yul\":11994:12082   */\n              mstore\n                /* \"#utility.yul\":12101:12105   */\n              0x22\n                /* \"#utility.yul\":12098:12099   */\n              0x04\n                /* \"#utility.yul\":12091:12106   */\n              mstore\n                /* \"#utility.yul\":12125:12129   */\n              0x24\n                /* \"#utility.yul\":12122:12123   */\n              0x00\n                /* \"#utility.yul\":12115:12130   */\n              revert\n                /* \"#utility.yul\":12142:12462   */\n            tag_53:\n                /* \"#utility.yul\":12186:12192   */\n              0x00\n                /* \"#utility.yul\":12223:12224   */\n              0x02\n                /* \"#utility.yul\":12217:12221   */\n              dup3\n                /* \"#utility.yul\":12213:12225   */\n              div\n                /* \"#utility.yul\":12203:12225   */\n              swap1\n              pop\n                /* \"#utility.yul\":12270:12271   */\n              0x01\n                /* \"#utility.yul\":12264:12268   */\n              dup3\n                /* \"#utility.yul\":12260:12272   */\n              and\n                /* \"#utility.yul\":12291:12309   */\n              dup1\n                /* \"#utility.yul\":12281:12362   */\n              tag_314\n              jumpi\n                /* \"#utility.yul\":12347:12351   */\n              0x7f\n                /* \"#utility.yul\":12339:12345   */\n              dup3\n                /* \"#utility.yul\":12335:12352   */\n              and\n                /* \"#utility.yul\":12325:12352   */\n              swap2\n              pop\n                /* \"#utility.yul\":12281:12362   */\n            tag_314:\n                /* \"#utility.yul\":12409:12411   */\n              0x20\n                /* \"#utility.yul\":12401:12407   */\n              dup3\n                /* \"#utility.yul\":12398:12412   */\n              lt\n                /* \"#utility.yul\":12378:12396   */\n              dup2\n                /* \"#utility.yul\":12375:12413   */\n              sub\n                /* \"#utility.yul\":12372:12456   */\n              tag_315\n              jumpi\n                /* \"#utility.yul\":12428:12446   */\n              tag_316\n              tag_182\n              jump\t// in\n            tag_316:\n                /* \"#utility.yul\":12372:12456   */\n            tag_315:\n                /* \"#utility.yul\":12193:12462   */\n              pop\n                /* \"#utility.yul\":12142:12462   */\n              swap2\n              swap1\n              pop\n              jump\t// out\n                /* \"#utility.yul\":12468:12648   */\n            tag_183:\n                /* \"#utility.yul\":12516:12593   */\n              0x4e487b7100000000000000000000000000000000000000000000000000000000\n                /* \"#utility.yul\":12513:12514   */\n              0x00\n                /* \"#utility.yul\":12506:12594   */\n              mstore\n                /* \"#utility.yul\":12613:12617   */\n              0x11\n                /* \"#utility.yul\":12610:12611   */\n              0x04\n                /* \"#utility.yul\":12603:12618   */\n              mstore\n                /* \"#utility.yul\":12637:12641   */\n              0x24\n                /* \"#utility.yul\":12634:12635   */\n              0x00\n                /* \"#utility.yul\":12627:12642   */\n              revert\n                /* \"#utility.yul\":12654:12887   */\n            tag_84:\n                /* \"#utility.yul\":12693:12696   */\n              0x00\n                /* \"#utility.yul\":12716:12740   */\n              tag_319\n                /* \"#utility.yul\":12734:12739   */\n              dup3\n                /* \"#utility.yul\":12716:12740   */\n              tag_146\n              jump\t// in\n            tag_319:\n                /* \"#utility.yul\":12707:12740   */\n              swap2\n              pop\n                /* \"#utility.yul\":12762:12828   */\n              0xffffffffffffffffffffffffffffffffffffffffffffffffffffffffffffffff\n                /* \"#utility.yul\":12755:12760   */\n              dup3\n                /* \"#utility.yul\":12752:12829   */\n              sub\n                /* \"#utility.yul\":12749:12852   */\n              tag_320\n              jumpi\n                /* \"#utility.yul\":12832:12850   */\n              tag_321\n              tag_183\n              jump\t// in\n            tag_321:\n                /* \"#utility.yul\":12749:12852   */\n            tag_320:\n                /* \"#utility.yul\":12879:12880   */\n              0x01\n                /* \"#utility.yul\":12872:12877   */\n              dup3\n                /* \"#utility.yul\":12868:12881   */\n              add\n                /* \"#utility.yul\":12861:12881   */\n              swap1\n              pop\n                /* \"#utility.yul\":12654:12887   */\n              swap2\n              swap1\n              pop\n              jump\t// out\n                /* \"#utility.yul\":12893:13041   */\n            tag_184:\n                /* \"#utility.yul\":12995:13006   */\n              0x00\n                /* \"#utility.yul\":13032:13035   */\n              dup2\n                /* \"#utility.yul\":13017:13035   */\n              swap1\n              pop\n                /* \"#utility.yul\":12893:13041   */\n              swap3\n              swap2\n              pop\n              pop\n              jump\t// out\n                /* \"#utility.yul\":13047:13424   */\n            tag_185:\n                /* \"#utility.yul\":13153:13156   */\n              0x00\n                /* \"#utility.yul\":13181:13220   */\n              tag_324\n                /* \"#utility.yul\":13214:13219   */\n              dup3\n                /* \"#utility.yul\":13181:13220   */\n              tag_149\n              jump\t// in\n            tag_324:\n                /* \"#utility.yul\":13236:13325   */\n              tag_325\n                /* \"#utility.yul\":13318:13324   */\n              dup2\n                /* \"#utility.yul\":13313:13316   */\n              dup6\n                /* \"#utility.yul\":13236:13325   */\n              tag_184\n              jump\t// in\n            tag_325:\n                /* \"#utility.yul\":13229:13325   */\n              swap4\n              pop\n                /* \"#utility.yul\":13334:13386   */\n              tag_326\n                /* \"#utility.yul\":13379:13385   */\n              dup2\n                /* \"#utility.yul\":13374:13377   */\n              dup6\n                /* \"#utility.yul\":13367:13371   */\n              0x20\n                /* \"#utility.yul\":13360:13365   */\n              dup7\n                /* \"#utility.yul\":13356:13372   */\n              add\n                /* \"#utility.yul\":13334:13386   */\n              tag_151\n              jump\t// in\n            tag_326:\n                /* \"#utility.yul\":13411:13417   */\n              dup1\n                /* \"#utility.yul\":13406:13409   */\n              dup5\n                /* \"#utility.yul\":13402:13418   */\n              add\n                /* \"#utility.yul\":13395:13418   */\n              swap2\n              pop\n                /* \"#utility.yul\":13157:13424   */\n              pop\n                /* \"#utility.yul\":13047:13424   */\n              swap3\n              swap2\n              pop\n              pop\n              jump\t// out\n                /* \"#utility.yul\":13430:13705   */\n            tag_104:\n                /* \"#utility.yul\":13562:13565   */\n              0x00\n                /* \"#utility.yul\":13584:13679   */\n              tag_328\n                /* \"#utility.yul\":13675:13678   */\n              dup3\n                /* \"#utility.yul\":13666:13672   */\n              dup5\n                /* \"#utility.yul\":13584:13679   */\n              tag_185\n              jump\t// in\n            tag_328:\n                /* \"#utility.yul\":13577:13679   */\n              swap2\n              pop\n                /* \"#utility.yul\":13696:13699   */\n              dup2\n                /* \"#utility.yul\":13689:13699   */\n              swap1\n              pop\n                /* \"#utility.yul\":13430:13705   */\n              swap3\n              swap2\n              pop\n              pop\n              jump\t// out\n                /* \"#utility.yul\":13711:13884   */\n            tag_186:\n                /* \"#utility.yul\":13851:13876   */\n              0x596f75206861766520616c726561647920566f74656421000000000000000000\n                /* \"#utility.yul\":13847:13848   */\n              0x00\n                /* \"#utility.yul\":13839:13845   */\n              dup3\n                /* \"#utility.yul\":13835:13849   */\n              add\n                /* \"#utility.yul\":13828:13877   */\n              mstore\n                /* \"#utility.yul\":13711:13884   */\n              pop\n              jump\t// out\n                /* \"#utility.yul\":13890:14256   */\n            tag_187:\n                /* \"#utility.yul\":14032:14035   */\n              0x00\n                /* \"#utility.yul\":14053:14120   */\n              tag_331\n                /* \"#utility.yul\":14117:14119   */\n              0x17\n                /* \"#utility.yul\":14112:14115   */\n              dup4\n                /* \"#utility.yul\":14053:14120   */\n              tag_150\n              jump\t// in\n            tag_331:\n                /* \"#utility.yul\":14046:14120   */\n              swap2\n              pop\n                /* \"#utility.yul\":14129:14222   */\n              tag_332\n                /* \"#utility.yul\":14218:14221   */\n              dup3\n                /* \"#utility.yul\":14129:14222   */\n              tag_186\n              jump\t// in\n            tag_332:\n                /* \"#utility.yul\":14247:14249   */\n              0x20\n                /* \"#utility.yul\":14242:14245   */\n              dup3\n                /* \"#utility.yul\":14238:14250   */\n              add\n                /* \"#utility.yul\":14231:14250   */\n              swap1\n              pop\n                /* \"#utility.yul\":13890:14256   */\n              swap2\n              swap1\n              pop\n              jump\t// out\n                /* \"#utility.yul\":14262:14681   */\n            tag_107:\n                /* \"#utility.yul\":14428:14432   */\n              0x00\n                /* \"#utility.yul\":14466:14468   */\n              0x20\n                /* \"#utility.yul\":14455:14464   */\n              dup3\n                /* \"#utility.yul\":14451:14469   */\n              add\n                /* \"#utility.yul\":14443:14469   */\n              swap1\n              pop\n                /* \"#utility.yul\":14515:14524   */\n              dup2\n                /* \"#utility.yul\":14509:14513   */\n              dup2\n                /* \"#utility.yul\":14505:14525   */\n              sub\n                /* \"#utility.yul\":14501:14502   */\n              0x00\n                /* \"#utility.yul\":14490:14499   */\n              dup4\n                /* \"#utility.yul\":14486:14503   */\n              add\n                /* \"#utility.yul\":14479:14526   */\n              mstore\n                /* \"#utility.yul\":14543:14674   */\n              tag_334\n                /* \"#utility.yul\":14669:14673   */\n              dup2\n                /* \"#utility.yul\":14543:14674   */\n              tag_187\n              jump\t// in\n            tag_334:\n                /* \"#utility.yul\":14535:14674   */\n              swap1\n              pop\n                /* \"#utility.yul\":14262:14681   */\n              swap2\n              swap1\n              pop\n              jump\t// out\n                /* \"#utility.yul\":14687:14862   */\n            tag_188:\n                /* \"#utility.yul\":14827:14854   */\n              0x53656e64206174206c6561737420302e35302065746865722100000000000000\n                /* \"#utility.yul\":14823:14824   */\n              0x00\n                /* \"#utility.yul\":14815:14821   */\n              dup3\n                /* \"#utility.yul\":14811:14825   */\n              add\n                /* \"#utility.yul\":14804:14855   */\n              mstore\n                /* \"#utility.yul\":14687:14862   */\n              pop\n              jump\t// out\n                /* \"#utility.yul\":14868:15234   */\n            tag_189:\n                /* \"#utility.yul\":15010:15013   */\n              0x00\n                /* \"#utility.yul\":15031:15098   */\n              tag_337\n                /* \"#utility.yul\":15095:15097   */\n              0x19\n                /* \"#utility.yul\":15090:15093   */\n              dup4\n                /* \"#utility.yul\":15031:15098   */\n              tag_150\n              jump\t// in\n            tag_337:\n                /* \"#utility.yul\":15024:15098   */\n              swap2\n              pop\n                /* \"#utility.yul\":15107:15200   */\n              tag_338\n                /* \"#utility.yul\":15196:15199   */\n              dup3\n                /* \"#utility.yul\":15107:15200   */\n              tag_188\n              jump\t// in\n            tag_338:\n                /* \"#utility.yul\":15225:15227   */\n              0x20\n                /* \"#utility.yul\":15220:15223   */\n              dup3\n                /* \"#utility.yul\":15216:15228   */\n              add\n                /* \"#utility.yul\":15209:15228   */\n              swap1\n              pop\n                /* \"#utility.yul\":14868:15234   */\n              swap2\n              swap1\n              pop\n              jump\t// out\n                /* \"#utility.yul\":15240:15659   */\n            tag_110:\n                /* \"#utility.yul\":15406:15410   */\n              0x00\n                /* \"#utility.yul\":15444:15446   */\n              0x20\n                /* \"#utility.yul\":15433:15442   */\n              dup3\n                /* \"#utility.yul\":15429:15447   */\n              add\n                /* \"#utility.yul\":15421:15447   */\n              swap1\n              pop\n                /* \"#utility.yul\":15493:15502   */\n              dup2\n                /* \"#utility.yul\":15487:15491   */\n              dup2\n                /* \"#utility.yul\":15483:15503   */\n              sub\n                /* \"#utility.yul\":15479:15480   */\n              0x00\n                /* \"#utility.yul\":15468:15477   */\n              dup4\n                /* \"#utility.yul\":15464:15481   */\n              add\n                /* \"#utility.yul\":15457:15504   */\n              mstore\n                /* \"#utility.yul\":15521:15652   */\n              tag_340\n                /* \"#utility.yul\":15647:15651   */\n              dup2\n                /* \"#utility.yul\":15521:15652   */\n              tag_189\n              jump\t// in\n            tag_340:\n                /* \"#utility.yul\":15513:15652   */\n              swap1\n              pop\n                /* \"#utility.yul\":15240:15659   */\n              swap2\n              swap1\n              pop\n              jump\t// out\n                /* \"#utility.yul\":15665:15845   */\n            tag_121:\n                /* \"#utility.yul\":15713:15790   */\n              0x4e487b7100000000000000000000000000000000000000000000000000000000\n                /* \"#utility.yul\":15710:15711   */\n              0x00\n                /* \"#utility.yul\":15703:15791   */\n              mstore\n                /* \"#utility.yul\":15810:15814   */\n              0x32\n                /* \"#utility.yul\":15807:15808   */\n              0x04\n                /* \"#utility.yul\":15800:15815   */\n              mstore\n                /* \"#utility.yul\":15834:15838   */\n              0x24\n                /* \"#utility.yul\":15831:15832   */\n              0x00\n                /* \"#utility.yul\":15824:15839   */\n              revert\n\n            auxdata: 0xa26469706673582212209abc1c597c637e6da444511dc2a6de9a1eb569370f6f9436f1de499f450e49a164736f6c634300080d0033\n        }\n    }\n\n    auxdata: 0xa264697066735822122055dcfde4883dcab880f914bd2ab1de933e0da9a072417a8cecdd6802830ca51564736f6c634300080d0033\n}\n","bytecode":{"linkReferences":{},"object":"608060405234801561001057600080fd5b5061239a806100206000396000f3fe60806040523480156200001157600080fd5b5060043610620000465760003560e01c806305634063146200004b5780639b935abf146200006b578063cdf74c3e146200008d575b600080fd5b620000696004803603810190620000639190620003c6565b620000c3565b005b6200007562000172565b604051620000849190620005fc565b60405180910390f35b620000ab6004803603810190620000a591906200065b565b62000202565b604051620000ba91906200069e565b60405180910390f35b60008433858585604051620000d89062000242565b620000e895949392919062000773565b604051809103906000f08015801562000105573d6000803e3d6000fd5b5090506000819080600181540180825580915050600190039060005260206000200160009091909190916101000a81548173ffffffffffffffffffffffffffffffffffffffff021916908373ffffffffffffffffffffffffffffffffffffffff1602179055505050505050565b60606000805480602002602001604051908101604052809291908181526020018280548015620001f857602002820191906000526020600020905b8160009054906101000a900473ffffffffffffffffffffffffffffffffffffffff1673ffffffffffffffffffffffffffffffffffffffff1681526020019060010190808311620001ad575b5050505050905090565b600081815481106200021357600080fd5b906000526020600020016000915054906101000a900473ffffffffffffffffffffffffffffffffffffffff1681565b611b7880620007ed83390190565b6000604051905090565b600080fd5b600080fd5b600080fd5b600080fd5b6000601f19601f8301169050919050565b7f4e487b7100000000000000000000000000000000000000000000000000000000600052604160045260246000fd5b620002b9826200026e565b810181811067ffffffffffffffff82111715620002db57620002da6200027f565b5b80604052505050565b6000620002f062000250565b9050620002fe8282620002ae565b919050565b600067ffffffffffffffff8211156200032157620003206200027f565b5b6200032c826200026e565b9050602081019050919050565b82818337600083830152505050565b60006200035f620003598462000303565b620002e4565b9050828152602081018484840111156200037e576200037d62000269565b5b6200038b84828562000339565b509392505050565b600082601f830112620003ab57620003aa62000264565b5b8135620003bd84826020860162000348565b91505092915050565b60008060008060808587031215620003e357620003e26200025a565b5b600085013567ffffffffffffffff8111156200040457620004036200025f565b5b620004128782880162000393565b945050602085013567ffffffffffffffff8111156200043657620004356200025f565b5b620004448782880162000393565b935050604085013567ffffffffffffffff8111156200046857620004676200025f565b5b620004768782880162000393565b925050606085013567ffffffffffffffff8111156200049a57620004996200025f565b5b620004a88782880162000393565b91505092959194509250565b600081519050919050565b600082825260208201905092915050565b6000819050602082019050919050565b600073ffffffffffffffffffffffffffffffffffffffff82169050919050565b6000819050919050565b60006200052b620005256200051f84620004e0565b62000500565b620004e0565b9050919050565b60006200053f826200050a565b9050919050565b6000620005538262000532565b9050919050565b620005658162000546565b82525050565b60006200057983836200055a565b60208301905092915050565b6000602082019050919050565b60006200059f82620004b4565b620005ab8185620004bf565b9350620005b883620004d0565b8060005b83811015620005ef578151620005d388826200056b565b9750620005e08362000585565b925050600181019050620005bc565b5085935050505092915050565b6000602082019050818103600083015262000618818462000592565b905092915050565b6000819050919050565b620006358162000620565b81146200064157600080fd5b50565b60008135905062000655816200062a565b92915050565b6000602082840312156200067457620006736200025a565b5b6000620006848482850162000644565b91505092915050565b620006988162000546565b82525050565b6000602082019050620006b560008301846200068d565b92915050565b600081519050919050565b600082825260208201905092915050565b60005b83811015620006f7578082015181840152602081019050620006da565b8381111562000707576000848401525b50505050565b60006200071a82620006bb565b620007268185620006c6565b935062000738818560208601620006d7565b62000743816200026e565b840191505092915050565b60006200075b82620004e0565b9050919050565b6200076d816200074e565b82525050565b600060a08201905081810360008301526200078f81886200070d565b9050620007a0602083018762000762565b8181036040830152620007b481866200070d565b90508181036060830152620007ca81856200070d565b90508181036080830152620007e081846200070d565b9050969550505050505056fe60806040526000600260006101000a81548160ff0219169083151502179055506000600260016101000a81548160ff0219169083151502179055503480156200004757600080fd5b5060405162001b7838038062001b7883398181016040528101906200006d9190620003e2565b84600360000190805190602001906200008892919062000130565b5083600360010160006101000a81548173ffffffffffffffffffffffffffffffffffffffff021916908373ffffffffffffffffffffffffffffffffffffffff1602179055508260036002019080519060200190620000e892919062000130565b506000600380018190555081600090805190602001906200010b92919062000130565b5080600190805190602001906200012492919062000130565b5050505050506200054a565b8280546200013e9062000515565b90600052602060002090601f016020900481019282620001625760008555620001ae565b82601f106200017d57805160ff1916838001178555620001ae565b82800160010185558215620001ae579182015b82811115620001ad57825182559160200191906001019062000190565b5b509050620001bd9190620001c1565b5090565b5b80821115620001dc576000816000905550600101620001c2565b5090565b6000604051905090565b600080fd5b600080fd5b600080fd5b600080fd5b6000601f19601f8301169050919050565b7f4e487b7100000000000000000000000000000000000000000000000000000000600052604160045260246000fd5b6200024982620001fe565b810181811067ffffffffffffffff821117156200026b576200026a6200020f565b5b80604052505050565b600062000280620001e0565b90506200028e82826200023e565b919050565b600067ffffffffffffffff821115620002b157620002b06200020f565b5b620002bc82620001fe565b9050602081019050919050565b60005b83811015620002e9578082015181840152602081019050620002cc565b83811115620002f9576000848401525b50505050565b600062000316620003108462000293565b62000274565b905082815260208101848484011115620003355762000334620001f9565b5b62000342848285620002c9565b509392505050565b600082601f830112620003625762000361620001f4565b5b815162000374848260208601620002ff565b91505092915050565b600073ffffffffffffffffffffffffffffffffffffffff82169050919050565b6000620003aa826200037d565b9050919050565b620003bc816200039d565b8114620003c857600080fd5b50565b600081519050620003dc81620003b1565b92915050565b600080600080600060a08688031215620004015762000400620001ea565b5b600086015167ffffffffffffffff811115620004225762000421620001ef565b5b62000430888289016200034a565b95505060206200044388828901620003cb565b945050604086015167ffffffffffffffff811115620004675762000466620001ef565b5b62000475888289016200034a565b935050606086015167ffffffffffffffff811115620004995762000498620001ef565b5b620004a7888289016200034a565b925050608086015167ffffffffffffffff811115620004cb57620004ca620001ef565b5b620004d9888289016200034a565b9150509295509295909350565b7f4e487b7100000000000000000000000000000000000000000000000000000000600052602260045260246000fd5b600060028204905060018216806200052e57607f821691505b602082108103620005445762000543620004e6565b5b50919050565b61161e806200055a6000396000f3fe60806040526004361061007b5760003560e01c80635aa68ac01161004e5780635aa68ac01461012157806367f9dd431461014c5780639c3bfcf614610189578063f9094303146101a55761007b565b80631ec6b60a1461008057806335c1d34914610097578063481c6a75146100d75780634901d7ae14610105575b600080fd5b34801561008c57600080fd5b506100956101bc565b005b3480156100a357600080fd5b506100be60048036038101906100b99190610e2d565b610236565b6040516100ce9493929190610f43565b60405180910390f35b3480156100e357600080fd5b506100ec6103a6565b6040516100fc9493929190610f43565b60405180910390f35b61011f600480360381019061011a91906110f7565b6104f4565b005b34801561012d57600080fd5b50610136610699565b6040516101439190611316565b60405180910390f35b34801561015857600080fd5b50610173600480360381019061016e9190611338565b61087c565b604051610180919061139c565b60405180910390f35b6101a3600480360381019061019e91906110f7565b6108b2565b005b3480156101b157600080fd5b506101ba610c34565b005b600360010160009054906101000a900473ffffffffffffffffffffffffffffffffffffffff1673ffffffffffffffffffffffffffffffffffffffff163373ffffffffffffffffffffffffffffffffffffffff161461021957600080fd5b6001600260006101000a81548160ff021916908315150217905550565b6008818154811061024657600080fd5b9060005260206000209060040201600091509050806000018054610269906113e6565b80601f0160208091040260200160405190810160405280929190818152602001828054610295906113e6565b80156102e25780601f106102b7576101008083540402835291602001916102e2565b820191906000526020600020905b8154815290600101906020018083116102c557829003601f168201915b5050505050908060010160009054906101000a900473ffffffffffffffffffffffffffffffffffffffff169080600201805461031d906113e6565b80601f0160208091040260200160405190810160405280929190818152602001828054610349906113e6565b80156103965780601f1061036b57610100808354040283529160200191610396565b820191906000526020600020905b81548152906001019060200180831161037957829003601f168201915b5050505050908060030154905084565b60038060000180546103b7906113e6565b80601f01602080910402602001604051908101604052809291908181526020018280546103e3906113e6565b80156104305780601f1061040557610100808354040283529160200191610430565b820191906000526020600020905b81548152906001019060200180831161041357829003601f168201915b5050505050908060010160009054906101000a900473ffffffffffffffffffffffffffffffffffffffff169080600201805461046b906113e6565b80601f0160208091040260200160405190810160405280929190818152602001828054610497906113e6565b80156104e45780601f106104b9576101008083540402835291602001916104e4565b820191906000526020600020905b8154815290600101906020018083116104c757829003601f168201915b5050505050908060030154905084565b600360010160009054906101000a900473ffffffffffffffffffffffffffffffffffffffff1673ffffffffffffffffffffffffffffffffffffffff163373ffffffffffffffffffffffffffffffffffffffff161461055157600080fd5b670c7d713b49da0000341161056557600080fd5b61056d610cae565b83816000018190525082816020019073ffffffffffffffffffffffffffffffffffffffff16908173ffffffffffffffffffffffffffffffffffffffff168152505081816040018190525060008160600181815250506008819080600181540180825580915050600190039060005260206000209060040201600090919091909150600082015181600001908051906020019061060a929190610cec565b5060208201518160010160006101000a81548173ffffffffffffffffffffffffffffffffffffffff021916908373ffffffffffffffffffffffffffffffffffffffff160217905550604082015181600201908051906020019061066e929190610cec565b506060820151816003015550506007600081548092919061068e90611446565b919050555050505050565b60606008805480602002602001604051908101604052809291908181526020016000905b8282101561087357838290600052602060002090600402016040518060800160405290816000820180546106f0906113e6565b80601f016020809104026020016040519081016040528092919081815260200182805461071c906113e6565b80156107695780601f1061073e57610100808354040283529160200191610769565b820191906000526020600020905b81548152906001019060200180831161074c57829003601f168201915b505050505081526020016001820160009054906101000a900473ffffffffffffffffffffffffffffffffffffffff1673ffffffffffffffffffffffffffffffffffffffff1673ffffffffffffffffffffffffffffffffffffffff1681526020016002820180546107d8906113e6565b80601f0160208091040260200160405190810160405280929190818152602001828054610804906113e6565b80156108515780601f1061082657610100808354040283529160200191610851565b820191906000526020600020905b81548152906001019060200180831161083457829003601f168201915b50505050508152602001600382015481525050815260200190600101906106bd565b50505050905090565b600b818051602081018201805184825260208301602085012081835280955050505050506000915054906101000a900460ff1681565b600260009054906101000a900460ff1680156108db5750600260019054906101000a900460ff16155b6108e457600080fd5b600b816040516108f491906114ca565b908152602001604051809103902060009054906101000a900460ff1615610950576040517f08c379a00000000000000000000000000000000000000000000000000000000081526004016109479061152d565b60405180910390fd5b6706f05b59d3b2000034101561099b576040517f08c379a000000000000000000000000000000000000000000000000000000000815260040161099290611599565b60405180910390fd5b6109a3610d72565b83816040018190525033816000019073ffffffffffffffffffffffffffffffffffffffff16908173ffffffffffffffffffffffffffffffffffffffff168152505081816020018190525082816060019073ffffffffffffffffffffffffffffffffffffffff16908173ffffffffffffffffffffffffffffffffffffffff1681525050600a81908060018154018082558091505060019003906000526020600020906004020160009091909190915060008201518160000160006101000a81548173ffffffffffffffffffffffffffffffffffffffff021916908373ffffffffffffffffffffffffffffffffffffffff1602179055506020820151816001019080519060200190610ab4929190610cec565b506040820151816002019080519060200190610ad1929190610cec565b5060608201518160030160006101000a81548173ffffffffffffffffffffffffffffffffffffffff021916908373ffffffffffffffffffffffffffffffffffffffff160217905550505060005b600880549050811015610bf6578373ffffffffffffffffffffffffffffffffffffffff1660088281548110610b5657610b556115b9565b5b906000526020600020906004020160010160009054906101000a900473ffffffffffffffffffffffffffffffffffffffff1673ffffffffffffffffffffffffffffffffffffffff1603610be35760088181548110610bb757610bb66115b9565b5b90600052602060002090600402016003016000815480929190610bd990611446565b9190505550610bf6565b8080610bee90611446565b915050610b1e565b506001600b83604051610c0991906114ca565b908152602001604051809103902060006101000a81548160ff02191690831515021790555050505050565b600360010160009054906101000a900473ffffffffffffffffffffffffffffffffffffffff1673ffffffffffffffffffffffffffffffffffffffff163373ffffffffffffffffffffffffffffffffffffffff1614610c9157600080fd5b6001600260016101000a81548160ff021916908315150217905550565b604051806080016040528060608152602001600073ffffffffffffffffffffffffffffffffffffffff16815260200160608152602001600081525090565b828054610cf8906113e6565b90600052602060002090601f016020900481019282610d1a5760008555610d61565b82601f10610d3357805160ff1916838001178555610d61565b82800160010185558215610d61579182015b82811115610d60578251825591602001919060010190610d45565b5b509050610d6e9190610dc6565b5090565b6040518060800160405280600073ffffffffffffffffffffffffffffffffffffffff1681526020016060815260200160608152602001600073ffffffffffffffffffffffffffffffffffffffff1681525090565b5b80821115610ddf576000816000905550600101610dc7565b5090565b6000604051905090565b600080fd5b600080fd5b6000819050919050565b610e0a81610df7565b8114610e1557600080fd5b50565b600081359050610e2781610e01565b92915050565b600060208284031215610e4357610e42610ded565b5b6000610e5184828501610e18565b91505092915050565b600081519050919050565b600082825260208201905092915050565b60005b83811015610e94578082015181840152602081019050610e79565b83811115610ea3576000848401525b50505050565b6000601f19601f8301169050919050565b6000610ec582610e5a565b610ecf8185610e65565b9350610edf818560208601610e76565b610ee881610ea9565b840191505092915050565b600073ffffffffffffffffffffffffffffffffffffffff82169050919050565b6000610f1e82610ef3565b9050919050565b610f2e81610f13565b82525050565b610f3d81610df7565b82525050565b60006080820190508181036000830152610f5d8187610eba565b9050610f6c6020830186610f25565b8181036040830152610f7e8185610eba565b9050610f8d6060830184610f34565b95945050505050565b600080fd5b600080fd5b7f4e487b7100000000000000000000000000000000000000000000000000000000600052604160045260246000fd5b610fd882610ea9565b810181811067ffffffffffffffff82111715610ff757610ff6610fa0565b5b80604052505050565b600061100a610de3565b90506110168282610fcf565b919050565b600067ffffffffffffffff82111561103657611035610fa0565b5b61103f82610ea9565b9050602081019050919050565b82818337600083830152505050565b600061106e6110698461101b565b611000565b90508281526020810184848401111561108a57611089610f9b565b5b61109584828561104c565b509392505050565b600082601f8301126110b2576110b1610f96565b5b81356110c284826020860161105b565b91505092915050565b6110d481610f13565b81146110df57600080fd5b50565b6000813590506110f1816110cb565b92915050565b6000806000606084860312156111105761110f610ded565b5b600084013567ffffffffffffffff81111561112e5761112d610df2565b5b61113a8682870161109d565b935050602061114b868287016110e2565b925050604084013567ffffffffffffffff81111561116c5761116b610df2565b5b6111788682870161109d565b9150509250925092565b600081519050919050565b600082825260208201905092915050565b6000819050602082019050919050565b600082825260208201905092915050565b60006111ca82610e5a565b6111d481856111ae565b93506111e4818560208601610e76565b6111ed81610ea9565b840191505092915050565b61120181610f13565b82525050565b61121081610df7565b82525050565b6000608083016000830151848203600086015261123382826111bf565b915050602083015161124860208601826111f8565b506040830151848203604086015261126082826111bf565b91505060608301516112756060860182611207565b508091505092915050565b600061128c8383611216565b905092915050565b6000602082019050919050565b60006112ac82611182565b6112b6818561118d565b9350836020820285016112c88561119e565b8060005b8581101561130457848403895281516112e58582611280565b94506112f083611294565b925060208a019950506001810190506112cc565b50829750879550505050505092915050565b6000602082019050818103600083015261133081846112a1565b905092915050565b60006020828403121561134e5761134d610ded565b5b600082013567ffffffffffffffff81111561136c5761136b610df2565b5b6113788482850161109d565b91505092915050565b60008115159050919050565b61139681611381565b82525050565b60006020820190506113b1600083018461138d565b92915050565b7f4e487b7100000000000000000000000000000000000000000000000000000000600052602260045260246000fd5b600060028204905060018216806113fe57607f821691505b602082108103611411576114106113b7565b5b50919050565b7f4e487b7100000000000000000000000000000000000000000000000000000000600052601160045260246000fd5b600061145182610df7565b91507fffffffffffffffffffffffffffffffffffffffffffffffffffffffffffffffff820361148357611482611417565b5b600182019050919050565b600081905092915050565b60006114a482610e5a565b6114ae818561148e565b93506114be818560208601610e76565b80840191505092915050565b60006114d68284611499565b915081905092915050565b7f596f75206861766520616c726561647920566f74656421000000000000000000600082015250565b6000611517601783610e65565b9150611522826114e1565b602082019050919050565b600060208201905081810360008301526115468161150a565b9050919050565b7f53656e64206174206c6561737420302e35302065746865722100000000000000600082015250565b6000611583601983610e65565b915061158e8261154d565b602082019050919050565b600060208201905081810360008301526115b281611576565b9050919050565b7f4e487b7100000000000000000000000000000000000000000000000000000000600052603260045260246000fdfea26469706673582212209abc1c597c637e6da444511dc2a6de9a1eb569370f6f9436f1de499f450e49a164736f6c634300080d0033a264697066735822122055dcfde4883dcab880f914bd2ab1de933e0da9a072417a8cecdd6802830ca51564736f6c634300080d0033","opcodes":"PUSH1 0x80 PUSH1 0x40 MSTORE CALLVALUE DUP1 ISZERO PUSH2 0x10 JUMPI PUSH1 0x0 DUP1 REVERT JUMPDEST POP PUSH2 0x239A DUP1 PUSH2 0x20 PUSH1 0x0 CODECOPY PUSH1 0x0 RETURN INVALID PUSH1 0x80 PUSH1 0x40 MSTORE CALLVALUE DUP1 ISZERO PUSH3 0x11 JUMPI PUSH1 0x0 DUP1 REVERT JUMPDEST POP PUSH1 0x4 CALLDATASIZE LT PUSH3 0x46 JUMPI PUSH1 0x0 CALLDATALOAD PUSH1 0xE0 SHR DUP1 PUSH4 0x5634063 EQ PUSH3 0x4B JUMPI DUP1 PUSH4 0x9B935ABF EQ PUSH3 0x6B JUMPI DUP1 PUSH4 0xCDF74C3E EQ PUSH3 0x8D JUMPI JUMPDEST PUSH1 0x0 DUP1 REVERT JUMPDEST PUSH3 0x69 PUSH1 0x4 DUP1 CALLDATASIZE SUB DUP2 ADD SWAP1 PUSH3 0x63 SWAP2 SWAP1 PUSH3 0x3C6 JUMP JUMPDEST PUSH3 0xC3 JUMP JUMPDEST STOP JUMPDEST PUSH3 0x75 PUSH3 0x172 JUMP JUMPDEST PUSH1 0x40 MLOAD PUSH3 0x84 SWAP2 SWAP1 PUSH3 0x5FC JUMP JUMPDEST PUSH1 0x40 MLOAD DUP1 SWAP2 SUB SWAP1 RETURN JUMPDEST PUSH3 0xAB PUSH1 0x4 DUP1 CALLDATASIZE SUB DUP2 ADD SWAP1 PUSH3 0xA5 SWAP2 SWAP1 PUSH3 0x65B JUMP JUMPDEST PUSH3 0x202 JUMP JUMPDEST PUSH1 0x40 MLOAD PUSH3 0xBA SWAP2 SWAP1 PUSH3 0x69E JUMP JUMPDEST PUSH1 0x40 MLOAD DUP1 SWAP2 SUB SWAP1 RETURN JUMPDEST PUSH1 0x0 DUP5 CALLER DUP6 DUP6 DUP6 PUSH1 0x40 MLOAD PUSH3 0xD8 SWAP1 PUSH3 0x242 JUMP JUMPDEST PUSH3 0xE8 SWAP6 SWAP5 SWAP4 SWAP3 SWAP2 SWAP1 PUSH3 0x773 JUMP JUMPDEST PUSH1 0x40 MLOAD DUP1 SWAP2 SUB SWAP1 PUSH1 0x0 CREATE DUP1 ISZERO DUP1 ISZERO PUSH3 0x105 JUMPI RETURNDATASIZE PUSH1 0x0 DUP1 RETURNDATACOPY RETURNDATASIZE PUSH1 0x0 REVERT JUMPDEST POP SWAP1 POP PUSH1 0x0 DUP2 SWAP1 DUP1 PUSH1 0x1 DUP2 SLOAD ADD DUP1 DUP3 SSTORE DUP1 SWAP2 POP POP PUSH1 0x1 SWAP1 SUB SWAP1 PUSH1 0x0 MSTORE PUSH1 0x20 PUSH1 0x0 KECCAK256 ADD PUSH1 0x0 SWAP1 SWAP2 SWAP1 SWAP2 SWAP1 SWAP2 PUSH2 0x100 EXP DUP2 SLOAD DUP2 PUSH20 0xFFFFFFFFFFFFFFFFFFFFFFFFFFFFFFFFFFFFFFFF MUL NOT AND SWAP1 DUP4 PUSH20 0xFFFFFFFFFFFFFFFFFFFFFFFFFFFFFFFFFFFFFFFF AND MUL OR SWAP1 SSTORE POP POP POP POP POP POP JUMP JUMPDEST PUSH1 0x60 PUSH1 0x0 DUP1 SLOAD DUP1 PUSH1 0x20 MUL PUSH1 0x20 ADD PUSH1 0x40 MLOAD SWAP1 DUP2 ADD PUSH1 0x40 MSTORE DUP1 SWAP3 SWAP2 SWAP1 DUP2 DUP2 MSTORE PUSH1 0x20 ADD DUP3 DUP1 SLOAD DUP1 ISZERO PUSH3 0x1F8 JUMPI PUSH1 0x20 MUL DUP3 ADD SWAP2 SWAP1 PUSH1 0x0 MSTORE PUSH1 0x20 PUSH1 0x0 KECCAK256 SWAP1 JUMPDEST DUP2 PUSH1 0x0 SWAP1 SLOAD SWAP1 PUSH2 0x100 EXP SWAP1 DIV PUSH20 0xFFFFFFFFFFFFFFFFFFFFFFFFFFFFFFFFFFFFFFFF AND PUSH20 0xFFFFFFFFFFFFFFFFFFFFFFFFFFFFFFFFFFFFFFFF AND DUP2 MSTORE PUSH1 0x20 ADD SWAP1 PUSH1 0x1 ADD SWAP1 DUP1 DUP4 GT PUSH3 0x1AD JUMPI JUMPDEST POP POP POP POP POP SWAP1 POP SWAP1 JUMP JUMPDEST PUSH1 0x0 DUP2 DUP2 SLOAD DUP2 LT PUSH3 0x213 JUMPI PUSH1 0x0 DUP1 REVERT JUMPDEST SWAP1 PUSH1 0x0 MSTORE PUSH1 0x20 PUSH1 0x0 KECCAK256 ADD PUSH1 0x0 SWAP2 POP SLOAD SWAP1 PUSH2 0x100 EXP SWAP1 DIV PUSH20 0xFFFFFFFFFFFFFFFFFFFFFFFFFFFFFFFFFFFFFFFF AND DUP2 JUMP JUMPDEST PUSH2 0x1B78 DUP1 PUSH3 0x7ED DUP4 CODECOPY ADD SWAP1 JUMP JUMPDEST PUSH1 0x0 PUSH1 0x40 MLOAD SWAP1 POP SWAP1 JUMP JUMPDEST PUSH1 0x0 DUP1 REVERT JUMPDEST PUSH1 0x0 DUP1 REVERT JUMPDEST PUSH1 0x0 DUP1 REVERT JUMPDEST PUSH1 0x0 DUP1 REVERT JUMPDEST PUSH1 0x0 PUSH1 0x1F NOT PUSH1 0x1F DUP4 ADD AND SWAP1 POP SWAP2 SWAP1 POP JUMP JUMPDEST PUSH32 0x4E487B7100000000000000000000000000000000000000000000000000000000 PUSH1 0x0 MSTORE PUSH1 0x41 PUSH1 0x4 MSTORE PUSH1 0x24 PUSH1 0x0 REVERT JUMPDEST PUSH3 0x2B9 DUP3 PUSH3 0x26E JUMP JUMPDEST DUP2 ADD DUP2 DUP2 LT PUSH8 0xFFFFFFFFFFFFFFFF DUP3 GT OR ISZERO PUSH3 0x2DB JUMPI PUSH3 0x2DA PUSH3 0x27F JUMP JUMPDEST JUMPDEST DUP1 PUSH1 0x40 MSTORE POP POP POP JUMP JUMPDEST PUSH1 0x0 PUSH3 0x2F0 PUSH3 0x250 JUMP JUMPDEST SWAP1 POP PUSH3 0x2FE DUP3 DUP3 PUSH3 0x2AE JUMP JUMPDEST SWAP2 SWAP1 POP JUMP JUMPDEST PUSH1 0x0 PUSH8 0xFFFFFFFFFFFFFFFF DUP3 GT ISZERO PUSH3 0x321 JUMPI PUSH3 0x320 PUSH3 0x27F JUMP JUMPDEST JUMPDEST PUSH3 0x32C DUP3 PUSH3 0x26E JUMP JUMPDEST SWAP1 POP PUSH1 0x20 DUP2 ADD SWAP1 POP SWAP2 SWAP1 POP JUMP JUMPDEST DUP3 DUP2 DUP4 CALLDATACOPY PUSH1 0x0 DUP4 DUP4 ADD MSTORE POP POP POP JUMP JUMPDEST PUSH1 0x0 PUSH3 0x35F PUSH3 0x359 DUP5 PUSH3 0x303 JUMP JUMPDEST PUSH3 0x2E4 JUMP JUMPDEST SWAP1 POP DUP3 DUP2 MSTORE PUSH1 0x20 DUP2 ADD DUP5 DUP5 DUP5 ADD GT ISZERO PUSH3 0x37E JUMPI PUSH3 0x37D PUSH3 0x269 JUMP JUMPDEST JUMPDEST PUSH3 0x38B DUP5 DUP3 DUP6 PUSH3 0x339 JUMP JUMPDEST POP SWAP4 SWAP3 POP POP POP JUMP JUMPDEST PUSH1 0x0 DUP3 PUSH1 0x1F DUP4 ADD SLT PUSH3 0x3AB JUMPI PUSH3 0x3AA PUSH3 0x264 JUMP JUMPDEST JUMPDEST DUP2 CALLDATALOAD PUSH3 0x3BD DUP5 DUP3 PUSH1 0x20 DUP7 ADD PUSH3 0x348 JUMP JUMPDEST SWAP2 POP POP SWAP3 SWAP2 POP POP JUMP JUMPDEST PUSH1 0x0 DUP1 PUSH1 0x0 DUP1 PUSH1 0x80 DUP6 DUP8 SUB SLT ISZERO PUSH3 0x3E3 JUMPI PUSH3 0x3E2 PUSH3 0x25A JUMP JUMPDEST JUMPDEST PUSH1 0x0 DUP6 ADD CALLDATALOAD PUSH8 0xFFFFFFFFFFFFFFFF DUP2 GT ISZERO PUSH3 0x404 JUMPI PUSH3 0x403 PUSH3 0x25F JUMP JUMPDEST JUMPDEST PUSH3 0x412 DUP8 DUP3 DUP9 ADD PUSH3 0x393 JUMP JUMPDEST SWAP5 POP POP PUSH1 0x20 DUP6 ADD CALLDATALOAD PUSH8 0xFFFFFFFFFFFFFFFF DUP2 GT ISZERO PUSH3 0x436 JUMPI PUSH3 0x435 PUSH3 0x25F JUMP JUMPDEST JUMPDEST PUSH3 0x444 DUP8 DUP3 DUP9 ADD PUSH3 0x393 JUMP JUMPDEST SWAP4 POP POP PUSH1 0x40 DUP6 ADD CALLDATALOAD PUSH8 0xFFFFFFFFFFFFFFFF DUP2 GT ISZERO PUSH3 0x468 JUMPI PUSH3 0x467 PUSH3 0x25F JUMP JUMPDEST JUMPDEST PUSH3 0x476 DUP8 DUP3 DUP9 ADD PUSH3 0x393 JUMP JUMPDEST SWAP3 POP POP PUSH1 0x60 DUP6 ADD CALLDATALOAD PUSH8 0xFFFFFFFFFFFFFFFF DUP2 GT ISZERO PUSH3 0x49A JUMPI PUSH3 0x499 PUSH3 0x25F JUMP JUMPDEST JUMPDEST PUSH3 0x4A8 DUP8 DUP3 DUP9 ADD PUSH3 0x393 JUMP JUMPDEST SWAP2 POP POP SWAP3 SWAP6 SWAP2 SWAP5 POP SWAP3 POP JUMP JUMPDEST PUSH1 0x0 DUP2 MLOAD SWAP1 POP SWAP2 SWAP1 POP JUMP JUMPDEST PUSH1 0x0 DUP3 DUP3 MSTORE PUSH1 0x20 DUP3 ADD SWAP1 POP SWAP3 SWAP2 POP POP JUMP JUMPDEST PUSH1 0x0 DUP2 SWAP1 POP PUSH1 0x20 DUP3 ADD SWAP1 POP SWAP2 SWAP1 POP JUMP JUMPDEST PUSH1 0x0 PUSH20 0xFFFFFFFFFFFFFFFFFFFFFFFFFFFFFFFFFFFFFFFF DUP3 AND SWAP1 POP SWAP2 SWAP1 POP JUMP JUMPDEST PUSH1 0x0 DUP2 SWAP1 POP SWAP2 SWAP1 POP JUMP JUMPDEST PUSH1 0x0 PUSH3 0x52B PUSH3 0x525 PUSH3 0x51F DUP5 PUSH3 0x4E0 JUMP JUMPDEST PUSH3 0x500 JUMP JUMPDEST PUSH3 0x4E0 JUMP JUMPDEST SWAP1 POP SWAP2 SWAP1 POP JUMP JUMPDEST PUSH1 0x0 PUSH3 0x53F DUP3 PUSH3 0x50A JUMP JUMPDEST SWAP1 POP SWAP2 SWAP1 POP JUMP JUMPDEST PUSH1 0x0 PUSH3 0x553 DUP3 PUSH3 0x532 JUMP JUMPDEST SWAP1 POP SWAP2 SWAP1 POP JUMP JUMPDEST PUSH3 0x565 DUP2 PUSH3 0x546 JUMP JUMPDEST DUP3 MSTORE POP POP JUMP JUMPDEST PUSH1 0x0 PUSH3 0x579 DUP4 DUP4 PUSH3 0x55A JUMP JUMPDEST PUSH1 0x20 DUP4 ADD SWAP1 POP SWAP3 SWAP2 POP POP JUMP JUMPDEST PUSH1 0x0 PUSH1 0x20 DUP3 ADD SWAP1 POP SWAP2 SWAP1 POP JUMP JUMPDEST PUSH1 0x0 PUSH3 0x59F DUP3 PUSH3 0x4B4 JUMP JUMPDEST PUSH3 0x5AB DUP2 DUP6 PUSH3 0x4BF JUMP JUMPDEST SWAP4 POP PUSH3 0x5B8 DUP4 PUSH3 0x4D0 JUMP JUMPDEST DUP1 PUSH1 0x0 JUMPDEST DUP4 DUP2 LT ISZERO PUSH3 0x5EF JUMPI DUP2 MLOAD PUSH3 0x5D3 DUP9 DUP3 PUSH3 0x56B JUMP JUMPDEST SWAP8 POP PUSH3 0x5E0 DUP4 PUSH3 0x585 JUMP JUMPDEST SWAP3 POP POP PUSH1 0x1 DUP2 ADD SWAP1 POP PUSH3 0x5BC JUMP JUMPDEST POP DUP6 SWAP4 POP POP POP POP SWAP3 SWAP2 POP POP JUMP JUMPDEST PUSH1 0x0 PUSH1 0x20 DUP3 ADD SWAP1 POP DUP2 DUP2 SUB PUSH1 0x0 DUP4 ADD MSTORE PUSH3 0x618 DUP2 DUP5 PUSH3 0x592 JUMP JUMPDEST SWAP1 POP SWAP3 SWAP2 POP POP JUMP JUMPDEST PUSH1 0x0 DUP2 SWAP1 POP SWAP2 SWAP1 POP JUMP JUMPDEST PUSH3 0x635 DUP2 PUSH3 0x620 JUMP JUMPDEST DUP2 EQ PUSH3 0x641 JUMPI PUSH1 0x0 DUP1 REVERT JUMPDEST POP JUMP JUMPDEST PUSH1 0x0 DUP2 CALLDATALOAD SWAP1 POP PUSH3 0x655 DUP2 PUSH3 0x62A JUMP JUMPDEST SWAP3 SWAP2 POP POP JUMP JUMPDEST PUSH1 0x0 PUSH1 0x20 DUP3 DUP5 SUB SLT ISZERO PUSH3 0x674 JUMPI PUSH3 0x673 PUSH3 0x25A JUMP JUMPDEST JUMPDEST PUSH1 0x0 PUSH3 0x684 DUP5 DUP3 DUP6 ADD PUSH3 0x644 JUMP JUMPDEST SWAP2 POP POP SWAP3 SWAP2 POP POP JUMP JUMPDEST PUSH3 0x698 DUP2 PUSH3 0x546 JUMP JUMPDEST DUP3 MSTORE POP POP JUMP JUMPDEST PUSH1 0x0 PUSH1 0x20 DUP3 ADD SWAP1 POP PUSH3 0x6B5 PUSH1 0x0 DUP4 ADD DUP5 PUSH3 0x68D JUMP JUMPDEST SWAP3 SWAP2 POP POP JUMP JUMPDEST PUSH1 0x0 DUP2 MLOAD SWAP1 POP SWAP2 SWAP1 POP JUMP JUMPDEST PUSH1 0x0 DUP3 DUP3 MSTORE PUSH1 0x20 DUP3 ADD SWAP1 POP SWAP3 SWAP2 POP POP JUMP JUMPDEST PUSH1 0x0 JUMPDEST DUP4 DUP2 LT ISZERO PUSH3 0x6F7 JUMPI DUP1 DUP3 ADD MLOAD DUP2 DUP5 ADD MSTORE PUSH1 0x20 DUP2 ADD SWAP1 POP PUSH3 0x6DA JUMP JUMPDEST DUP4 DUP2 GT ISZERO PUSH3 0x707 JUMPI PUSH1 0x0 DUP5 DUP5 ADD MSTORE JUMPDEST POP POP POP POP JUMP JUMPDEST PUSH1 0x0 PUSH3 0x71A DUP3 PUSH3 0x6BB JUMP JUMPDEST PUSH3 0x726 DUP2 DUP6 PUSH3 0x6C6 JUMP JUMPDEST SWAP4 POP PUSH3 0x738 DUP2 DUP6 PUSH1 0x20 DUP7 ADD PUSH3 0x6D7 JUMP JUMPDEST PUSH3 0x743 DUP2 PUSH3 0x26E JUMP JUMPDEST DUP5 ADD SWAP2 POP POP SWAP3 SWAP2 POP POP JUMP JUMPDEST PUSH1 0x0 PUSH3 0x75B DUP3 PUSH3 0x4E0 JUMP JUMPDEST SWAP1 POP SWAP2 SWAP1 POP JUMP JUMPDEST PUSH3 0x76D DUP2 PUSH3 0x74E JUMP JUMPDEST DUP3 MSTORE POP POP JUMP JUMPDEST PUSH1 0x0 PUSH1 0xA0 DUP3 ADD SWAP1 POP DUP2 DUP2 SUB PUSH1 0x0 DUP4 ADD MSTORE PUSH3 0x78F DUP2 DUP9 PUSH3 0x70D JUMP JUMPDEST SWAP1 POP PUSH3 0x7A0 PUSH1 0x20 DUP4 ADD DUP8 PUSH3 0x762 JUMP JUMPDEST DUP2 DUP2 SUB PUSH1 0x40 DUP4 ADD MSTORE PUSH3 0x7B4 DUP2 DUP7 PUSH3 0x70D JUMP JUMPDEST SWAP1 POP DUP2 DUP2 SUB PUSH1 0x60 DUP4 ADD MSTORE PUSH3 0x7CA DUP2 DUP6 PUSH3 0x70D JUMP JUMPDEST SWAP1 POP DUP2 DUP2 SUB PUSH1 0x80 DUP4 ADD MSTORE PUSH3 0x7E0 DUP2 DUP5 PUSH3 0x70D JUMP JUMPDEST SWAP1 POP SWAP7 SWAP6 POP POP POP POP POP POP JUMP INVALID PUSH1 0x80 PUSH1 0x40 MSTORE PUSH1 0x0 PUSH1 0x2 PUSH1 0x0 PUSH2 0x100 EXP DUP2 SLOAD DUP2 PUSH1 0xFF MUL NOT AND SWAP1 DUP4 ISZERO ISZERO MUL OR SWAP1 SSTORE POP PUSH1 0x0 PUSH1 0x2 PUSH1 0x1 PUSH2 0x100 EXP DUP2 SLOAD DUP2 PUSH1 0xFF MUL NOT AND SWAP1 DUP4 ISZERO ISZERO MUL OR SWAP1 SSTORE POP CALLVALUE DUP1 ISZERO PUSH3 0x47 JUMPI PUSH1 0x0 DUP1 REVERT JUMPDEST POP PUSH1 0x40 MLOAD PUSH3 0x1B78 CODESIZE SUB DUP1 PUSH3 0x1B78 DUP4 CODECOPY DUP2 DUP2 ADD PUSH1 0x40 MSTORE DUP2 ADD SWAP1 PUSH3 0x6D SWAP2 SWAP1 PUSH3 0x3E2 JUMP JUMPDEST DUP5 PUSH1 0x3 PUSH1 0x0 ADD SWAP1 DUP1 MLOAD SWAP1 PUSH1 0x20 ADD SWAP1 PUSH3 0x88 SWAP3 SWAP2 SWAP1 PUSH3 0x130 JUMP JUMPDEST POP DUP4 PUSH1 0x3 PUSH1 0x1 ADD PUSH1 0x0 PUSH2 0x100 EXP DUP2 SLOAD DUP2 PUSH20 0xFFFFFFFFFFFFFFFFFFFFFFFFFFFFFFFFFFFFFFFF MUL NOT AND SWAP1 DUP4 PUSH20 0xFFFFFFFFFFFFFFFFFFFFFFFFFFFFFFFFFFFFFFFF AND MUL OR SWAP1 SSTORE POP DUP3 PUSH1 0x3 PUSH1 0x2 ADD SWAP1 DUP1 MLOAD SWAP1 PUSH1 0x20 ADD SWAP1 PUSH3 0xE8 SWAP3 SWAP2 SWAP1 PUSH3 0x130 JUMP JUMPDEST POP PUSH1 0x0 PUSH1 0x3 DUP1 ADD DUP2 SWAP1 SSTORE POP DUP2 PUSH1 0x0 SWAP1 DUP1 MLOAD SWAP1 PUSH1 0x20 ADD SWAP1 PUSH3 0x10B SWAP3 SWAP2 SWAP1 PUSH3 0x130 JUMP JUMPDEST POP DUP1 PUSH1 0x1 SWAP1 DUP1 MLOAD SWAP1 PUSH1 0x20 ADD SWAP1 PUSH3 0x124 SWAP3 SWAP2 SWAP1 PUSH3 0x130 JUMP JUMPDEST POP POP POP POP POP POP PUSH3 0x54A JUMP JUMPDEST DUP3 DUP1 SLOAD PUSH3 0x13E SWAP1 PUSH3 0x515 JUMP JUMPDEST SWAP1 PUSH1 0x0 MSTORE PUSH1 0x20 PUSH1 0x0 KECCAK256 SWAP1 PUSH1 0x1F ADD PUSH1 0x20 SWAP1 DIV DUP2 ADD SWAP3 DUP3 PUSH3 0x162 JUMPI PUSH1 0x0 DUP6 SSTORE PUSH3 0x1AE JUMP JUMPDEST DUP3 PUSH1 0x1F LT PUSH3 0x17D JUMPI DUP1 MLOAD PUSH1 0xFF NOT AND DUP4 DUP1 ADD OR DUP6 SSTORE PUSH3 0x1AE JUMP JUMPDEST DUP3 DUP1 ADD PUSH1 0x1 ADD DUP6 SSTORE DUP3 ISZERO PUSH3 0x1AE JUMPI SWAP2 DUP3 ADD JUMPDEST DUP3 DUP2 GT ISZERO PUSH3 0x1AD JUMPI DUP3 MLOAD DUP3 SSTORE SWAP2 PUSH1 0x20 ADD SWAP2 SWAP1 PUSH1 0x1 ADD SWAP1 PUSH3 0x190 JUMP JUMPDEST JUMPDEST POP SWAP1 POP PUSH3 0x1BD SWAP2 SWAP1 PUSH3 0x1C1 JUMP JUMPDEST POP SWAP1 JUMP JUMPDEST JUMPDEST DUP1 DUP3 GT ISZERO PUSH3 0x1DC JUMPI PUSH1 0x0 DUP2 PUSH1 0x0 SWAP1 SSTORE POP PUSH1 0x1 ADD PUSH3 0x1C2 JUMP JUMPDEST POP SWAP1 JUMP JUMPDEST PUSH1 0x0 PUSH1 0x40 MLOAD SWAP1 POP SWAP1 JUMP JUMPDEST PUSH1 0x0 DUP1 REVERT JUMPDEST PUSH1 0x0 DUP1 REVERT JUMPDEST PUSH1 0x0 DUP1 REVERT JUMPDEST PUSH1 0x0 DUP1 REVERT JUMPDEST PUSH1 0x0 PUSH1 0x1F NOT PUSH1 0x1F DUP4 ADD AND SWAP1 POP SWAP2 SWAP1 POP JUMP JUMPDEST PUSH32 0x4E487B7100000000000000000000000000000000000000000000000000000000 PUSH1 0x0 MSTORE PUSH1 0x41 PUSH1 0x4 MSTORE PUSH1 0x24 PUSH1 0x0 REVERT JUMPDEST PUSH3 0x249 DUP3 PUSH3 0x1FE JUMP JUMPDEST DUP2 ADD DUP2 DUP2 LT PUSH8 0xFFFFFFFFFFFFFFFF DUP3 GT OR ISZERO PUSH3 0x26B JUMPI PUSH3 0x26A PUSH3 0x20F JUMP JUMPDEST JUMPDEST DUP1 PUSH1 0x40 MSTORE POP POP POP JUMP JUMPDEST PUSH1 0x0 PUSH3 0x280 PUSH3 0x1E0 JUMP JUMPDEST SWAP1 POP PUSH3 0x28E DUP3 DUP3 PUSH3 0x23E JUMP JUMPDEST SWAP2 SWAP1 POP JUMP JUMPDEST PUSH1 0x0 PUSH8 0xFFFFFFFFFFFFFFFF DUP3 GT ISZERO PUSH3 0x2B1 JUMPI PUSH3 0x2B0 PUSH3 0x20F JUMP JUMPDEST JUMPDEST PUSH3 0x2BC DUP3 PUSH3 0x1FE JUMP JUMPDEST SWAP1 POP PUSH1 0x20 DUP2 ADD SWAP1 POP SWAP2 SWAP1 POP JUMP JUMPDEST PUSH1 0x0 JUMPDEST DUP4 DUP2 LT ISZERO PUSH3 0x2E9 JUMPI DUP1 DUP3 ADD MLOAD DUP2 DUP5 ADD MSTORE PUSH1 0x20 DUP2 ADD SWAP1 POP PUSH3 0x2CC JUMP JUMPDEST DUP4 DUP2 GT ISZERO PUSH3 0x2F9 JUMPI PUSH1 0x0 DUP5 DUP5 ADD MSTORE JUMPDEST POP POP POP POP JUMP JUMPDEST PUSH1 0x0 PUSH3 0x316 PUSH3 0x310 DUP5 PUSH3 0x293 JUMP JUMPDEST PUSH3 0x274 JUMP JUMPDEST SWAP1 POP DUP3 DUP2 MSTORE PUSH1 0x20 DUP2 ADD DUP5 DUP5 DUP5 ADD GT ISZERO PUSH3 0x335 JUMPI PUSH3 0x334 PUSH3 0x1F9 JUMP JUMPDEST JUMPDEST PUSH3 0x342 DUP5 DUP3 DUP6 PUSH3 0x2C9 JUMP JUMPDEST POP SWAP4 SWAP3 POP POP POP JUMP JUMPDEST PUSH1 0x0 DUP3 PUSH1 0x1F DUP4 ADD SLT PUSH3 0x362 JUMPI PUSH3 0x361 PUSH3 0x1F4 JUMP JUMPDEST JUMPDEST DUP2 MLOAD PUSH3 0x374 DUP5 DUP3 PUSH1 0x20 DUP7 ADD PUSH3 0x2FF JUMP JUMPDEST SWAP2 POP POP SWAP3 SWAP2 POP POP JUMP JUMPDEST PUSH1 0x0 PUSH20 0xFFFFFFFFFFFFFFFFFFFFFFFFFFFFFFFFFFFFFFFF DUP3 AND SWAP1 POP SWAP2 SWAP1 POP JUMP JUMPDEST PUSH1 0x0 PUSH3 0x3AA DUP3 PUSH3 0x37D JUMP JUMPDEST SWAP1 POP SWAP2 SWAP1 POP JUMP JUMPDEST PUSH3 0x3BC DUP2 PUSH3 0x39D JUMP JUMPDEST DUP2 EQ PUSH3 0x3C8 JUMPI PUSH1 0x0 DUP1 REVERT JUMPDEST POP JUMP JUMPDEST PUSH1 0x0 DUP2 MLOAD SWAP1 POP PUSH3 0x3DC DUP2 PUSH3 0x3B1 JUMP JUMPDEST SWAP3 SWAP2 POP POP JUMP JUMPDEST PUSH1 0x0 DUP1 PUSH1 0x0 DUP1 PUSH1 0x0 PUSH1 0xA0 DUP7 DUP9 SUB SLT ISZERO PUSH3 0x401 JUMPI PUSH3 0x400 PUSH3 0x1EA JUMP JUMPDEST JUMPDEST PUSH1 0x0 DUP7 ADD MLOAD PUSH8 0xFFFFFFFFFFFFFFFF DUP2 GT ISZERO PUSH3 0x422 JUMPI PUSH3 0x421 PUSH3 0x1EF JUMP JUMPDEST JUMPDEST PUSH3 0x430 DUP9 DUP3 DUP10 ADD PUSH3 0x34A JUMP JUMPDEST SWAP6 POP POP PUSH1 0x20 PUSH3 0x443 DUP9 DUP3 DUP10 ADD PUSH3 0x3CB JUMP JUMPDEST SWAP5 POP POP PUSH1 0x40 DUP7 ADD MLOAD PUSH8 0xFFFFFFFFFFFFFFFF DUP2 GT ISZERO PUSH3 0x467 JUMPI PUSH3 0x466 PUSH3 0x1EF JUMP JUMPDEST JUMPDEST PUSH3 0x475 DUP9 DUP3 DUP10 ADD PUSH3 0x34A JUMP JUMPDEST SWAP4 POP POP PUSH1 0x60 DUP7 ADD MLOAD PUSH8 0xFFFFFFFFFFFFFFFF DUP2 GT ISZERO PUSH3 0x499 JUMPI PUSH3 0x498 PUSH3 0x1EF JUMP JUMPDEST JUMPDEST PUSH3 0x4A7 DUP9 DUP3 DUP10 ADD PUSH3 0x34A JUMP JUMPDEST SWAP3 POP POP PUSH1 0x80 DUP7 ADD MLOAD PUSH8 0xFFFFFFFFFFFFFFFF DUP2 GT ISZERO PUSH3 0x4CB JUMPI PUSH3 0x4CA PUSH3 0x1EF JUMP JUMPDEST JUMPDEST PUSH3 0x4D9 DUP9 DUP3 DUP10 ADD PUSH3 0x34A JUMP JUMPDEST SWAP2 POP POP SWAP3 SWAP6 POP SWAP3 SWAP6 SWAP1 SWAP4 POP JUMP JUMPDEST PUSH32 0x4E487B7100000000000000000000000000000000000000000000000000000000 PUSH1 0x0 MSTORE PUSH1 0x22 PUSH1 0x4 MSTORE PUSH1 0x24 PUSH1 0x0 REVERT JUMPDEST PUSH1 0x0 PUSH1 0x2 DUP3 DIV SWAP1 POP PUSH1 0x1 DUP3 AND DUP1 PUSH3 0x52E JUMPI PUSH1 0x7F DUP3 AND SWAP2 POP JUMPDEST PUSH1 0x20 DUP3 LT DUP2 SUB PUSH3 0x544 JUMPI PUSH3 0x543 PUSH3 0x4E6 JUMP JUMPDEST JUMPDEST POP SWAP2 SWAP1 POP JUMP JUMPDEST PUSH2 0x161E DUP1 PUSH3 0x55A PUSH1 0x0 CODECOPY PUSH1 0x0 RETURN INVALID PUSH1 0x80 PUSH1 0x40 MSTORE PUSH1 0x4 CALLDATASIZE LT PUSH2 0x7B JUMPI PUSH1 0x0 CALLDATALOAD PUSH1 0xE0 SHR DUP1 PUSH4 0x5AA68AC0 GT PUSH2 0x4E JUMPI DUP1 PUSH4 0x5AA68AC0 EQ PUSH2 0x121 JUMPI DUP1 PUSH4 0x67F9DD43 EQ PUSH2 0x14C JUMPI DUP1 PUSH4 0x9C3BFCF6 EQ PUSH2 0x189 JUMPI DUP1 PUSH4 0xF9094303 EQ PUSH2 0x1A5 JUMPI PUSH2 0x7B JUMP JUMPDEST DUP1 PUSH4 0x1EC6B60A EQ PUSH2 0x80 JUMPI DUP1 PUSH4 0x35C1D349 EQ PUSH2 0x97 JUMPI DUP1 PUSH4 0x481C6A75 EQ PUSH2 0xD7 JUMPI DUP1 PUSH4 0x4901D7AE EQ PUSH2 0x105 JUMPI JUMPDEST PUSH1 0x0 DUP1 REVERT JUMPDEST CALLVALUE DUP1 ISZERO PUSH2 0x8C JUMPI PUSH1 0x0 DUP1 REVERT JUMPDEST POP PUSH2 0x95 PUSH2 0x1BC JUMP JUMPDEST STOP JUMPDEST CALLVALUE DUP1 ISZERO PUSH2 0xA3 JUMPI PUSH1 0x0 DUP1 REVERT JUMPDEST POP PUSH2 0xBE PUSH1 0x4 DUP1 CALLDATASIZE SUB DUP2 ADD SWAP1 PUSH2 0xB9 SWAP2 SWAP1 PUSH2 0xE2D JUMP JUMPDEST PUSH2 0x236 JUMP JUMPDEST PUSH1 0x40 MLOAD PUSH2 0xCE SWAP5 SWAP4 SWAP3 SWAP2 SWAP1 PUSH2 0xF43 JUMP JUMPDEST PUSH1 0x40 MLOAD DUP1 SWAP2 SUB SWAP1 RETURN JUMPDEST CALLVALUE DUP1 ISZERO PUSH2 0xE3 JUMPI PUSH1 0x0 DUP1 REVERT JUMPDEST POP PUSH2 0xEC PUSH2 0x3A6 JUMP JUMPDEST PUSH1 0x40 MLOAD PUSH2 0xFC SWAP5 SWAP4 SWAP3 SWAP2 SWAP1 PUSH2 0xF43 JUMP JUMPDEST PUSH1 0x40 MLOAD DUP1 SWAP2 SUB SWAP1 RETURN JUMPDEST PUSH2 0x11F PUSH1 0x4 DUP1 CALLDATASIZE SUB DUP2 ADD SWAP1 PUSH2 0x11A SWAP2 SWAP1 PUSH2 0x10F7 JUMP JUMPDEST PUSH2 0x4F4 JUMP JUMPDEST STOP JUMPDEST CALLVALUE DUP1 ISZERO PUSH2 0x12D JUMPI PUSH1 0x0 DUP1 REVERT JUMPDEST POP PUSH2 0x136 PUSH2 0x699 JUMP JUMPDEST PUSH1 0x40 MLOAD PUSH2 0x143 SWAP2 SWAP1 PUSH2 0x1316 JUMP JUMPDEST PUSH1 0x40 MLOAD DUP1 SWAP2 SUB SWAP1 RETURN JUMPDEST CALLVALUE DUP1 ISZERO PUSH2 0x158 JUMPI PUSH1 0x0 DUP1 REVERT JUMPDEST POP PUSH2 0x173 PUSH1 0x4 DUP1 CALLDATASIZE SUB DUP2 ADD SWAP1 PUSH2 0x16E SWAP2 SWAP1 PUSH2 0x1338 JUMP JUMPDEST PUSH2 0x87C JUMP JUMPDEST PUSH1 0x40 MLOAD PUSH2 0x180 SWAP2 SWAP1 PUSH2 0x139C JUMP JUMPDEST PUSH1 0x40 MLOAD DUP1 SWAP2 SUB SWAP1 RETURN JUMPDEST PUSH2 0x1A3 PUSH1 0x4 DUP1 CALLDATASIZE SUB DUP2 ADD SWAP1 PUSH2 0x19E SWAP2 SWAP1 PUSH2 0x10F7 JUMP JUMPDEST PUSH2 0x8B2 JUMP JUMPDEST STOP JUMPDEST CALLVALUE DUP1 ISZERO PUSH2 0x1B1 JUMPI PUSH1 0x0 DUP1 REVERT JUMPDEST POP PUSH2 0x1BA PUSH2 0xC34 JUMP JUMPDEST STOP JUMPDEST PUSH1 0x3 PUSH1 0x1 ADD PUSH1 0x0 SWAP1 SLOAD SWAP1 PUSH2 0x100 EXP SWAP1 DIV PUSH20 0xFFFFFFFFFFFFFFFFFFFFFFFFFFFFFFFFFFFFFFFF AND PUSH20 0xFFFFFFFFFFFFFFFFFFFFFFFFFFFFFFFFFFFFFFFF AND CALLER PUSH20 0xFFFFFFFFFFFFFFFFFFFFFFFFFFFFFFFFFFFFFFFF AND EQ PUSH2 0x219 JUMPI PUSH1 0x0 DUP1 REVERT JUMPDEST PUSH1 0x1 PUSH1 0x2 PUSH1 0x0 PUSH2 0x100 EXP DUP2 SLOAD DUP2 PUSH1 0xFF MUL NOT AND SWAP1 DUP4 ISZERO ISZERO MUL OR SWAP1 SSTORE POP JUMP JUMPDEST PUSH1 0x8 DUP2 DUP2 SLOAD DUP2 LT PUSH2 0x246 JUMPI PUSH1 0x0 DUP1 REVERT JUMPDEST SWAP1 PUSH1 0x0 MSTORE PUSH1 0x20 PUSH1 0x0 KECCAK256 SWAP1 PUSH1 0x4 MUL ADD PUSH1 0x0 SWAP2 POP SWAP1 POP DUP1 PUSH1 0x0 ADD DUP1 SLOAD PUSH2 0x269 SWAP1 PUSH2 0x13E6 JUMP JUMPDEST DUP1 PUSH1 0x1F ADD PUSH1 0x20 DUP1 SWAP2 DIV MUL PUSH1 0x20 ADD PUSH1 0x40 MLOAD SWAP1 DUP2 ADD PUSH1 0x40 MSTORE DUP1 SWAP3 SWAP2 SWAP1 DUP2 DUP2 MSTORE PUSH1 0x20 ADD DUP3 DUP1 SLOAD PUSH2 0x295 SWAP1 PUSH2 0x13E6 JUMP JUMPDEST DUP1 ISZERO PUSH2 0x2E2 JUMPI DUP1 PUSH1 0x1F LT PUSH2 0x2B7 JUMPI PUSH2 0x100 DUP1 DUP4 SLOAD DIV MUL DUP4 MSTORE SWAP2 PUSH1 0x20 ADD SWAP2 PUSH2 0x2E2 JUMP JUMPDEST DUP3 ADD SWAP2 SWAP1 PUSH1 0x0 MSTORE PUSH1 0x20 PUSH1 0x0 KECCAK256 SWAP1 JUMPDEST DUP2 SLOAD DUP2 MSTORE SWAP1 PUSH1 0x1 ADD SWAP1 PUSH1 0x20 ADD DUP1 DUP4 GT PUSH2 0x2C5 JUMPI DUP3 SWAP1 SUB PUSH1 0x1F AND DUP3 ADD SWAP2 JUMPDEST POP POP POP POP POP SWAP1 DUP1 PUSH1 0x1 ADD PUSH1 0x0 SWAP1 SLOAD SWAP1 PUSH2 0x100 EXP SWAP1 DIV PUSH20 0xFFFFFFFFFFFFFFFFFFFFFFFFFFFFFFFFFFFFFFFF AND SWAP1 DUP1 PUSH1 0x2 ADD DUP1 SLOAD PUSH2 0x31D SWAP1 PUSH2 0x13E6 JUMP JUMPDEST DUP1 PUSH1 0x1F ADD PUSH1 0x20 DUP1 SWAP2 DIV MUL PUSH1 0x20 ADD PUSH1 0x40 MLOAD SWAP1 DUP2 ADD PUSH1 0x40 MSTORE DUP1 SWAP3 SWAP2 SWAP1 DUP2 DUP2 MSTORE PUSH1 0x20 ADD DUP3 DUP1 SLOAD PUSH2 0x349 SWAP1 PUSH2 0x13E6 JUMP JUMPDEST DUP1 ISZERO PUSH2 0x396 JUMPI DUP1 PUSH1 0x1F LT PUSH2 0x36B JUMPI PUSH2 0x100 DUP1 DUP4 SLOAD DIV MUL DUP4 MSTORE SWAP2 PUSH1 0x20 ADD SWAP2 PUSH2 0x396 JUMP JUMPDEST DUP3 ADD SWAP2 SWAP1 PUSH1 0x0 MSTORE PUSH1 0x20 PUSH1 0x0 KECCAK256 SWAP1 JUMPDEST DUP2 SLOAD DUP2 MSTORE SWAP1 PUSH1 0x1 ADD SWAP1 PUSH1 0x20 ADD DUP1 DUP4 GT PUSH2 0x379 JUMPI DUP3 SWAP1 SUB PUSH1 0x1F AND DUP3 ADD SWAP2 JUMPDEST POP POP POP POP POP SWAP1 DUP1 PUSH1 0x3 ADD SLOAD SWAP1 POP DUP5 JUMP JUMPDEST PUSH1 0x3 DUP1 PUSH1 0x0 ADD DUP1 SLOAD PUSH2 0x3B7 SWAP1 PUSH2 0x13E6 JUMP JUMPDEST DUP1 PUSH1 0x1F ADD PUSH1 0x20 DUP1 SWAP2 DIV MUL PUSH1 0x20 ADD PUSH1 0x40 MLOAD SWAP1 DUP2 ADD PUSH1 0x40 MSTORE DUP1 SWAP3 SWAP2 SWAP1 DUP2 DUP2 MSTORE PUSH1 0x20 ADD DUP3 DUP1 SLOAD PUSH2 0x3E3 SWAP1 PUSH2 0x13E6 JUMP JUMPDEST DUP1 ISZERO PUSH2 0x430 JUMPI DUP1 PUSH1 0x1F LT PUSH2 0x405 JUMPI PUSH2 0x100 DUP1 DUP4 SLOAD DIV MUL DUP4 MSTORE SWAP2 PUSH1 0x20 ADD SWAP2 PUSH2 0x430 JUMP JUMPDEST DUP3 ADD SWAP2 SWAP1 PUSH1 0x0 MSTORE PUSH1 0x20 PUSH1 0x0 KECCAK256 SWAP1 JUMPDEST DUP2 SLOAD DUP2 MSTORE SWAP1 PUSH1 0x1 ADD SWAP1 PUSH1 0x20 ADD DUP1 DUP4 GT PUSH2 0x413 JUMPI DUP3 SWAP1 SUB PUSH1 0x1F AND DUP3 ADD SWAP2 JUMPDEST POP POP POP POP POP SWAP1 DUP1 PUSH1 0x1 ADD PUSH1 0x0 SWAP1 SLOAD SWAP1 PUSH2 0x100 EXP SWAP1 DIV PUSH20 0xFFFFFFFFFFFFFFFFFFFFFFFFFFFFFFFFFFFFFFFF AND SWAP1 DUP1 PUSH1 0x2 ADD DUP1 SLOAD PUSH2 0x46B SWAP1 PUSH2 0x13E6 JUMP JUMPDEST DUP1 PUSH1 0x1F ADD PUSH1 0x20 DUP1 SWAP2 DIV MUL PUSH1 0x20 ADD PUSH1 0x40 MLOAD SWAP1 DUP2 ADD PUSH1 0x40 MSTORE DUP1 SWAP3 SWAP2 SWAP1 DUP2 DUP2 MSTORE PUSH1 0x20 ADD DUP3 DUP1 SLOAD PUSH2 0x497 SWAP1 PUSH2 0x13E6 JUMP JUMPDEST DUP1 ISZERO PUSH2 0x4E4 JUMPI DUP1 PUSH1 0x1F LT PUSH2 0x4B9 JUMPI PUSH2 0x100 DUP1 DUP4 SLOAD DIV MUL DUP4 MSTORE SWAP2 PUSH1 0x20 ADD SWAP2 PUSH2 0x4E4 JUMP JUMPDEST DUP3 ADD SWAP2 SWAP1 PUSH1 0x0 MSTORE PUSH1 0x20 PUSH1 0x0 KECCAK256 SWAP1 JUMPDEST DUP2 SLOAD DUP2 MSTORE SWAP1 PUSH1 0x1 ADD SWAP1 PUSH1 0x20 ADD DUP1 DUP4 GT PUSH2 0x4C7 JUMPI DUP3 SWAP1 SUB PUSH1 0x1F AND DUP3 ADD SWAP2 JUMPDEST POP POP POP POP POP SWAP1 DUP1 PUSH1 0x3 ADD SLOAD SWAP1 POP DUP5 JUMP JUMPDEST PUSH1 0x3 PUSH1 0x1 ADD PUSH1 0x0 SWAP1 SLOAD SWAP1 PUSH2 0x100 EXP SWAP1 DIV PUSH20 0xFFFFFFFFFFFFFFFFFFFFFFFFFFFFFFFFFFFFFFFF AND PUSH20 0xFFFFFFFFFFFFFFFFFFFFFFFFFFFFFFFFFFFFFFFF AND CALLER PUSH20 0xFFFFFFFFFFFFFFFFFFFFFFFFFFFFFFFFFFFFFFFF AND EQ PUSH2 0x551 JUMPI PUSH1 0x0 DUP1 REVERT JUMPDEST PUSH8 0xC7D713B49DA0000 CALLVALUE GT PUSH2 0x565 JUMPI PUSH1 0x0 DUP1 REVERT JUMPDEST PUSH2 0x56D PUSH2 0xCAE JUMP JUMPDEST DUP4 DUP2 PUSH1 0x0 ADD DUP2 SWAP1 MSTORE POP DUP3 DUP2 PUSH1 0x20 ADD SWAP1 PUSH20 0xFFFFFFFFFFFFFFFFFFFFFFFFFFFFFFFFFFFFFFFF AND SWAP1 DUP2 PUSH20 0xFFFFFFFFFFFFFFFFFFFFFFFFFFFFFFFFFFFFFFFF AND DUP2 MSTORE POP POP DUP2 DUP2 PUSH1 0x40 ADD DUP2 SWAP1 MSTORE POP PUSH1 0x0 DUP2 PUSH1 0x60 ADD DUP2 DUP2 MSTORE POP POP PUSH1 0x8 DUP2 SWAP1 DUP1 PUSH1 0x1 DUP2 SLOAD ADD DUP1 DUP3 SSTORE DUP1 SWAP2 POP POP PUSH1 0x1 SWAP1 SUB SWAP1 PUSH1 0x0 MSTORE PUSH1 0x20 PUSH1 0x0 KECCAK256 SWAP1 PUSH1 0x4 MUL ADD PUSH1 0x0 SWAP1 SWAP2 SWAP1 SWAP2 SWAP1 SWAP2 POP PUSH1 0x0 DUP3 ADD MLOAD DUP2 PUSH1 0x0 ADD SWAP1 DUP1 MLOAD SWAP1 PUSH1 0x20 ADD SWAP1 PUSH2 0x60A SWAP3 SWAP2 SWAP1 PUSH2 0xCEC JUMP JUMPDEST POP PUSH1 0x20 DUP3 ADD MLOAD DUP2 PUSH1 0x1 ADD PUSH1 0x0 PUSH2 0x100 EXP DUP2 SLOAD DUP2 PUSH20 0xFFFFFFFFFFFFFFFFFFFFFFFFFFFFFFFFFFFFFFFF MUL NOT AND SWAP1 DUP4 PUSH20 0xFFFFFFFFFFFFFFFFFFFFFFFFFFFFFFFFFFFFFFFF AND MUL OR SWAP1 SSTORE POP PUSH1 0x40 DUP3 ADD MLOAD DUP2 PUSH1 0x2 ADD SWAP1 DUP1 MLOAD SWAP1 PUSH1 0x20 ADD SWAP1 PUSH2 0x66E SWAP3 SWAP2 SWAP1 PUSH2 0xCEC JUMP JUMPDEST POP PUSH1 0x60 DUP3 ADD MLOAD DUP2 PUSH1 0x3 ADD SSTORE POP POP PUSH1 0x7 PUSH1 0x0 DUP2 SLOAD DUP1 SWAP3 SWAP2 SWAP1 PUSH2 0x68E SWAP1 PUSH2 0x1446 JUMP JUMPDEST SWAP2 SWAP1 POP SSTORE POP POP POP POP POP JUMP JUMPDEST PUSH1 0x60 PUSH1 0x8 DUP1 SLOAD DUP1 PUSH1 0x20 MUL PUSH1 0x20 ADD PUSH1 0x40 MLOAD SWAP1 DUP2 ADD PUSH1 0x40 MSTORE DUP1 SWAP3 SWAP2 SWAP1 DUP2 DUP2 MSTORE PUSH1 0x20 ADD PUSH1 0x0 SWAP1 JUMPDEST DUP3 DUP3 LT ISZERO PUSH2 0x873 JUMPI DUP4 DUP3 SWAP1 PUSH1 0x0 MSTORE PUSH1 0x20 PUSH1 0x0 KECCAK256 SWAP1 PUSH1 0x4 MUL ADD PUSH1 0x40 MLOAD DUP1 PUSH1 0x80 ADD PUSH1 0x40 MSTORE SWAP1 DUP2 PUSH1 0x0 DUP3 ADD DUP1 SLOAD PUSH2 0x6F0 SWAP1 PUSH2 0x13E6 JUMP JUMPDEST DUP1 PUSH1 0x1F ADD PUSH1 0x20 DUP1 SWAP2 DIV MUL PUSH1 0x20 ADD PUSH1 0x40 MLOAD SWAP1 DUP2 ADD PUSH1 0x40 MSTORE DUP1 SWAP3 SWAP2 SWAP1 DUP2 DUP2 MSTORE PUSH1 0x20 ADD DUP3 DUP1 SLOAD PUSH2 0x71C SWAP1 PUSH2 0x13E6 JUMP JUMPDEST DUP1 ISZERO PUSH2 0x769 JUMPI DUP1 PUSH1 0x1F LT PUSH2 0x73E JUMPI PUSH2 0x100 DUP1 DUP4 SLOAD DIV MUL DUP4 MSTORE SWAP2 PUSH1 0x20 ADD SWAP2 PUSH2 0x769 JUMP JUMPDEST DUP3 ADD SWAP2 SWAP1 PUSH1 0x0 MSTORE PUSH1 0x20 PUSH1 0x0 KECCAK256 SWAP1 JUMPDEST DUP2 SLOAD DUP2 MSTORE SWAP1 PUSH1 0x1 ADD SWAP1 PUSH1 0x20 ADD DUP1 DUP4 GT PUSH2 0x74C JUMPI DUP3 SWAP1 SUB PUSH1 0x1F AND DUP3 ADD SWAP2 JUMPDEST POP POP POP POP POP DUP2 MSTORE PUSH1 0x20 ADD PUSH1 0x1 DUP3 ADD PUSH1 0x0 SWAP1 SLOAD SWAP1 PUSH2 0x100 EXP SWAP1 DIV PUSH20 0xFFFFFFFFFFFFFFFFFFFFFFFFFFFFFFFFFFFFFFFF AND PUSH20 0xFFFFFFFFFFFFFFFFFFFFFFFFFFFFFFFFFFFFFFFF AND PUSH20 0xFFFFFFFFFFFFFFFFFFFFFFFFFFFFFFFFFFFFFFFF AND DUP2 MSTORE PUSH1 0x20 ADD PUSH1 0x2 DUP3 ADD DUP1 SLOAD PUSH2 0x7D8 SWAP1 PUSH2 0x13E6 JUMP JUMPDEST DUP1 PUSH1 0x1F ADD PUSH1 0x20 DUP1 SWAP2 DIV MUL PUSH1 0x20 ADD PUSH1 0x40 MLOAD SWAP1 DUP2 ADD PUSH1 0x40 MSTORE DUP1 SWAP3 SWAP2 SWAP1 DUP2 DUP2 MSTORE PUSH1 0x20 ADD DUP3 DUP1 SLOAD PUSH2 0x804 SWAP1 PUSH2 0x13E6 JUMP JUMPDEST DUP1 ISZERO PUSH2 0x851 JUMPI DUP1 PUSH1 0x1F LT PUSH2 0x826 JUMPI PUSH2 0x100 DUP1 DUP4 SLOAD DIV MUL DUP4 MSTORE SWAP2 PUSH1 0x20 ADD SWAP2 PUSH2 0x851 JUMP JUMPDEST DUP3 ADD SWAP2 SWAP1 PUSH1 0x0 MSTORE PUSH1 0x20 PUSH1 0x0 KECCAK256 SWAP1 JUMPDEST DUP2 SLOAD DUP2 MSTORE SWAP1 PUSH1 0x1 ADD SWAP1 PUSH1 0x20 ADD DUP1 DUP4 GT PUSH2 0x834 JUMPI DUP3 SWAP1 SUB PUSH1 0x1F AND DUP3 ADD SWAP2 JUMPDEST POP POP POP POP POP DUP2 MSTORE PUSH1 0x20 ADD PUSH1 0x3 DUP3 ADD SLOAD DUP2 MSTORE POP POP DUP2 MSTORE PUSH1 0x20 ADD SWAP1 PUSH1 0x1 ADD SWAP1 PUSH2 0x6BD JUMP JUMPDEST POP POP POP POP SWAP1 POP SWAP1 JUMP JUMPDEST PUSH1 0xB DUP2 DUP1 MLOAD PUSH1 0x20 DUP2 ADD DUP3 ADD DUP1 MLOAD DUP5 DUP3 MSTORE PUSH1 0x20 DUP4 ADD PUSH1 0x20 DUP6 ADD KECCAK256 DUP2 DUP4 MSTORE DUP1 SWAP6 POP POP POP POP POP POP PUSH1 0x0 SWAP2 POP SLOAD SWAP1 PUSH2 0x100 EXP SWAP1 DIV PUSH1 0xFF AND DUP2 JUMP JUMPDEST PUSH1 0x2 PUSH1 0x0 SWAP1 SLOAD SWAP1 PUSH2 0x100 EXP SWAP1 DIV PUSH1 0xFF AND DUP1 ISZERO PUSH2 0x8DB JUMPI POP PUSH1 0x2 PUSH1 0x1 SWAP1 SLOAD SWAP1 PUSH2 0x100 EXP SWAP1 DIV PUSH1 0xFF AND ISZERO JUMPDEST PUSH2 0x8E4 JUMPI PUSH1 0x0 DUP1 REVERT JUMPDEST PUSH1 0xB DUP2 PUSH1 0x40 MLOAD PUSH2 0x8F4 SWAP2 SWAP1 PUSH2 0x14CA JUMP JUMPDEST SWAP1 DUP2 MSTORE PUSH1 0x20 ADD PUSH1 0x40 MLOAD DUP1 SWAP2 SUB SWAP1 KECCAK256 PUSH1 0x0 SWAP1 SLOAD SWAP1 PUSH2 0x100 EXP SWAP1 DIV PUSH1 0xFF AND ISZERO PUSH2 0x950 JUMPI PUSH1 0x40 MLOAD PUSH32 0x8C379A000000000000000000000000000000000000000000000000000000000 DUP2 MSTORE PUSH1 0x4 ADD PUSH2 0x947 SWAP1 PUSH2 0x152D JUMP JUMPDEST PUSH1 0x40 MLOAD DUP1 SWAP2 SUB SWAP1 REVERT JUMPDEST PUSH8 0x6F05B59D3B20000 CALLVALUE LT ISZERO PUSH2 0x99B JUMPI PUSH1 0x40 MLOAD PUSH32 0x8C379A000000000000000000000000000000000000000000000000000000000 DUP2 MSTORE PUSH1 0x4 ADD PUSH2 0x992 SWAP1 PUSH2 0x1599 JUMP JUMPDEST PUSH1 0x40 MLOAD DUP1 SWAP2 SUB SWAP1 REVERT JUMPDEST PUSH2 0x9A3 PUSH2 0xD72 JUMP JUMPDEST DUP4 DUP2 PUSH1 0x40 ADD DUP2 SWAP1 MSTORE POP CALLER DUP2 PUSH1 0x0 ADD SWAP1 PUSH20 0xFFFFFFFFFFFFFFFFFFFFFFFFFFFFFFFFFFFFFFFF AND SWAP1 DUP2 PUSH20 0xFFFFFFFFFFFFFFFFFFFFFFFFFFFFFFFFFFFFFFFF AND DUP2 MSTORE POP POP DUP2 DUP2 PUSH1 0x20 ADD DUP2 SWAP1 MSTORE POP DUP3 DUP2 PUSH1 0x60 ADD SWAP1 PUSH20 0xFFFFFFFFFFFFFFFFFFFFFFFFFFFFFFFFFFFFFFFF AND SWAP1 DUP2 PUSH20 0xFFFFFFFFFFFFFFFFFFFFFFFFFFFFFFFFFFFFFFFF AND DUP2 MSTORE POP POP PUSH1 0xA DUP2 SWAP1 DUP1 PUSH1 0x1 DUP2 SLOAD ADD DUP1 DUP3 SSTORE DUP1 SWAP2 POP POP PUSH1 0x1 SWAP1 SUB SWAP1 PUSH1 0x0 MSTORE PUSH1 0x20 PUSH1 0x0 KECCAK256 SWAP1 PUSH1 0x4 MUL ADD PUSH1 0x0 SWAP1 SWAP2 SWAP1 SWAP2 SWAP1 SWAP2 POP PUSH1 0x0 DUP3 ADD MLOAD DUP2 PUSH1 0x0 ADD PUSH1 0x0 PUSH2 0x100 EXP DUP2 SLOAD DUP2 PUSH20 0xFFFFFFFFFFFFFFFFFFFFFFFFFFFFFFFFFFFFFFFF MUL NOT AND SWAP1 DUP4 PUSH20 0xFFFFFFFFFFFFFFFFFFFFFFFFFFFFFFFFFFFFFFFF AND MUL OR SWAP1 SSTORE POP PUSH1 0x20 DUP3 ADD MLOAD DUP2 PUSH1 0x1 ADD SWAP1 DUP1 MLOAD SWAP1 PUSH1 0x20 ADD SWAP1 PUSH2 0xAB4 SWAP3 SWAP2 SWAP1 PUSH2 0xCEC JUMP JUMPDEST POP PUSH1 0x40 DUP3 ADD MLOAD DUP2 PUSH1 0x2 ADD SWAP1 DUP1 MLOAD SWAP1 PUSH1 0x20 ADD SWAP1 PUSH2 0xAD1 SWAP3 SWAP2 SWAP1 PUSH2 0xCEC JUMP JUMPDEST POP PUSH1 0x60 DUP3 ADD MLOAD DUP2 PUSH1 0x3 ADD PUSH1 0x0 PUSH2 0x100 EXP DUP2 SLOAD DUP2 PUSH20 0xFFFFFFFFFFFFFFFFFFFFFFFFFFFFFFFFFFFFFFFF MUL NOT AND SWAP1 DUP4 PUSH20 0xFFFFFFFFFFFFFFFFFFFFFFFFFFFFFFFFFFFFFFFF AND MUL OR SWAP1 SSTORE POP POP POP PUSH1 0x0 JUMPDEST PUSH1 0x8 DUP1 SLOAD SWAP1 POP DUP2 LT ISZERO PUSH2 0xBF6 JUMPI DUP4 PUSH20 0xFFFFFFFFFFFFFFFFFFFFFFFFFFFFFFFFFFFFFFFF AND PUSH1 0x8 DUP3 DUP2 SLOAD DUP2 LT PUSH2 0xB56 JUMPI PUSH2 0xB55 PUSH2 0x15B9 JUMP JUMPDEST JUMPDEST SWAP1 PUSH1 0x0 MSTORE PUSH1 0x20 PUSH1 0x0 KECCAK256 SWAP1 PUSH1 0x4 MUL ADD PUSH1 0x1 ADD PUSH1 0x0 SWAP1 SLOAD SWAP1 PUSH2 0x100 EXP SWAP1 DIV PUSH20 0xFFFFFFFFFFFFFFFFFFFFFFFFFFFFFFFFFFFFFFFF AND PUSH20 0xFFFFFFFFFFFFFFFFFFFFFFFFFFFFFFFFFFFFFFFF AND SUB PUSH2 0xBE3 JUMPI PUSH1 0x8 DUP2 DUP2 SLOAD DUP2 LT PUSH2 0xBB7 JUMPI PUSH2 0xBB6 PUSH2 0x15B9 JUMP JUMPDEST JUMPDEST SWAP1 PUSH1 0x0 MSTORE PUSH1 0x20 PUSH1 0x0 KECCAK256 SWAP1 PUSH1 0x4 MUL ADD PUSH1 0x3 ADD PUSH1 0x0 DUP2 SLOAD DUP1 SWAP3 SWAP2 SWAP1 PUSH2 0xBD9 SWAP1 PUSH2 0x1446 JUMP JUMPDEST SWAP2 SWAP1 POP SSTORE POP PUSH2 0xBF6 JUMP JUMPDEST DUP1 DUP1 PUSH2 0xBEE SWAP1 PUSH2 0x1446 JUMP JUMPDEST SWAP2 POP POP PUSH2 0xB1E JUMP JUMPDEST POP PUSH1 0x1 PUSH1 0xB DUP4 PUSH1 0x40 MLOAD PUSH2 0xC09 SWAP2 SWAP1 PUSH2 0x14CA JUMP JUMPDEST SWAP1 DUP2 MSTORE PUSH1 0x20 ADD PUSH1 0x40 MLOAD DUP1 SWAP2 SUB SWAP1 KECCAK256 PUSH1 0x0 PUSH2 0x100 EXP DUP2 SLOAD DUP2 PUSH1 0xFF MUL NOT AND SWAP1 DUP4 ISZERO ISZERO MUL OR SWAP1 SSTORE POP POP POP POP POP JUMP JUMPDEST PUSH1 0x3 PUSH1 0x1 ADD PUSH1 0x0 SWAP1 SLOAD SWAP1 PUSH2 0x100 EXP SWAP1 DIV PUSH20 0xFFFFFFFFFFFFFFFFFFFFFFFFFFFFFFFFFFFFFFFF AND PUSH20 0xFFFFFFFFFFFFFFFFFFFFFFFFFFFFFFFFFFFFFFFF AND CALLER PUSH20 0xFFFFFFFFFFFFFFFFFFFFFFFFFFFFFFFFFFFFFFFF AND EQ PUSH2 0xC91 JUMPI PUSH1 0x0 DUP1 REVERT JUMPDEST PUSH1 0x1 PUSH1 0x2 PUSH1 0x1 PUSH2 0x100 EXP DUP2 SLOAD DUP2 PUSH1 0xFF MUL NOT AND SWAP1 DUP4 ISZERO ISZERO MUL OR SWAP1 SSTORE POP JUMP JUMPDEST PUSH1 0x40 MLOAD DUP1 PUSH1 0x80 ADD PUSH1 0x40 MSTORE DUP1 PUSH1 0x60 DUP2 MSTORE PUSH1 0x20 ADD PUSH1 0x0 PUSH20 0xFFFFFFFFFFFFFFFFFFFFFFFFFFFFFFFFFFFFFFFF AND DUP2 MSTORE PUSH1 0x20 ADD PUSH1 0x60 DUP2 MSTORE PUSH1 0x20 ADD PUSH1 0x0 DUP2 MSTORE POP SWAP1 JUMP JUMPDEST DUP3 DUP1 SLOAD PUSH2 0xCF8 SWAP1 PUSH2 0x13E6 JUMP JUMPDEST SWAP1 PUSH1 0x0 MSTORE PUSH1 0x20 PUSH1 0x0 KECCAK256 SWAP1 PUSH1 0x1F ADD PUSH1 0x20 SWAP1 DIV DUP2 ADD SWAP3 DUP3 PUSH2 0xD1A JUMPI PUSH1 0x0 DUP6 SSTORE PUSH2 0xD61 JUMP JUMPDEST DUP3 PUSH1 0x1F LT PUSH2 0xD33 JUMPI DUP1 MLOAD PUSH1 0xFF NOT AND DUP4 DUP1 ADD OR DUP6 SSTORE PUSH2 0xD61 JUMP JUMPDEST DUP3 DUP1 ADD PUSH1 0x1 ADD DUP6 SSTORE DUP3 ISZERO PUSH2 0xD61 JUMPI SWAP2 DUP3 ADD JUMPDEST DUP3 DUP2 GT ISZERO PUSH2 0xD60 JUMPI DUP3 MLOAD DUP3 SSTORE SWAP2 PUSH1 0x20 ADD SWAP2 SWAP1 PUSH1 0x1 ADD SWAP1 PUSH2 0xD45 JUMP JUMPDEST JUMPDEST POP SWAP1 POP PUSH2 0xD6E SWAP2 SWAP1 PUSH2 0xDC6 JUMP JUMPDEST POP SWAP1 JUMP JUMPDEST PUSH1 0x40 MLOAD DUP1 PUSH1 0x80 ADD PUSH1 0x40 MSTORE DUP1 PUSH1 0x0 PUSH20 0xFFFFFFFFFFFFFFFFFFFFFFFFFFFFFFFFFFFFFFFF AND DUP2 MSTORE PUSH1 0x20 ADD PUSH1 0x60 DUP2 MSTORE PUSH1 0x20 ADD PUSH1 0x60 DUP2 MSTORE PUSH1 0x20 ADD PUSH1 0x0 PUSH20 0xFFFFFFFFFFFFFFFFFFFFFFFFFFFFFFFFFFFFFFFF AND DUP2 MSTORE POP SWAP1 JUMP JUMPDEST JUMPDEST DUP1 DUP3 GT ISZERO PUSH2 0xDDF JUMPI PUSH1 0x0 DUP2 PUSH1 0x0 SWAP1 SSTORE POP PUSH1 0x1 ADD PUSH2 0xDC7 JUMP JUMPDEST POP SWAP1 JUMP JUMPDEST PUSH1 0x0 PUSH1 0x40 MLOAD SWAP1 POP SWAP1 JUMP JUMPDEST PUSH1 0x0 DUP1 REVERT JUMPDEST PUSH1 0x0 DUP1 REVERT JUMPDEST PUSH1 0x0 DUP2 SWAP1 POP SWAP2 SWAP1 POP JUMP JUMPDEST PUSH2 0xE0A DUP2 PUSH2 0xDF7 JUMP JUMPDEST DUP2 EQ PUSH2 0xE15 JUMPI PUSH1 0x0 DUP1 REVERT JUMPDEST POP JUMP JUMPDEST PUSH1 0x0 DUP2 CALLDATALOAD SWAP1 POP PUSH2 0xE27 DUP2 PUSH2 0xE01 JUMP JUMPDEST SWAP3 SWAP2 POP POP JUMP JUMPDEST PUSH1 0x0 PUSH1 0x20 DUP3 DUP5 SUB SLT ISZERO PUSH2 0xE43 JUMPI PUSH2 0xE42 PUSH2 0xDED JUMP JUMPDEST JUMPDEST PUSH1 0x0 PUSH2 0xE51 DUP5 DUP3 DUP6 ADD PUSH2 0xE18 JUMP JUMPDEST SWAP2 POP POP SWAP3 SWAP2 POP POP JUMP JUMPDEST PUSH1 0x0 DUP2 MLOAD SWAP1 POP SWAP2 SWAP1 POP JUMP JUMPDEST PUSH1 0x0 DUP3 DUP3 MSTORE PUSH1 0x20 DUP3 ADD SWAP1 POP SWAP3 SWAP2 POP POP JUMP JUMPDEST PUSH1 0x0 JUMPDEST DUP4 DUP2 LT ISZERO PUSH2 0xE94 JUMPI DUP1 DUP3 ADD MLOAD DUP2 DUP5 ADD MSTORE PUSH1 0x20 DUP2 ADD SWAP1 POP PUSH2 0xE79 JUMP JUMPDEST DUP4 DUP2 GT ISZERO PUSH2 0xEA3 JUMPI PUSH1 0x0 DUP5 DUP5 ADD MSTORE JUMPDEST POP POP POP POP JUMP JUMPDEST PUSH1 0x0 PUSH1 0x1F NOT PUSH1 0x1F DUP4 ADD AND SWAP1 POP SWAP2 SWAP1 POP JUMP JUMPDEST PUSH1 0x0 PUSH2 0xEC5 DUP3 PUSH2 0xE5A JUMP JUMPDEST PUSH2 0xECF DUP2 DUP6 PUSH2 0xE65 JUMP JUMPDEST SWAP4 POP PUSH2 0xEDF DUP2 DUP6 PUSH1 0x20 DUP7 ADD PUSH2 0xE76 JUMP JUMPDEST PUSH2 0xEE8 DUP2 PUSH2 0xEA9 JUMP JUMPDEST DUP5 ADD SWAP2 POP POP SWAP3 SWAP2 POP POP JUMP JUMPDEST PUSH1 0x0 PUSH20 0xFFFFFFFFFFFFFFFFFFFFFFFFFFFFFFFFFFFFFFFF DUP3 AND SWAP1 POP SWAP2 SWAP1 POP JUMP JUMPDEST PUSH1 0x0 PUSH2 0xF1E DUP3 PUSH2 0xEF3 JUMP JUMPDEST SWAP1 POP SWAP2 SWAP1 POP JUMP JUMPDEST PUSH2 0xF2E DUP2 PUSH2 0xF13 JUMP JUMPDEST DUP3 MSTORE POP POP JUMP JUMPDEST PUSH2 0xF3D DUP2 PUSH2 0xDF7 JUMP JUMPDEST DUP3 MSTORE POP POP JUMP JUMPDEST PUSH1 0x0 PUSH1 0x80 DUP3 ADD SWAP1 POP DUP2 DUP2 SUB PUSH1 0x0 DUP4 ADD MSTORE PUSH2 0xF5D DUP2 DUP8 PUSH2 0xEBA JUMP JUMPDEST SWAP1 POP PUSH2 0xF6C PUSH1 0x20 DUP4 ADD DUP7 PUSH2 0xF25 JUMP JUMPDEST DUP2 DUP2 SUB PUSH1 0x40 DUP4 ADD MSTORE PUSH2 0xF7E DUP2 DUP6 PUSH2 0xEBA JUMP JUMPDEST SWAP1 POP PUSH2 0xF8D PUSH1 0x60 DUP4 ADD DUP5 PUSH2 0xF34 JUMP JUMPDEST SWAP6 SWAP5 POP POP POP POP POP JUMP JUMPDEST PUSH1 0x0 DUP1 REVERT JUMPDEST PUSH1 0x0 DUP1 REVERT JUMPDEST PUSH32 0x4E487B7100000000000000000000000000000000000000000000000000000000 PUSH1 0x0 MSTORE PUSH1 0x41 PUSH1 0x4 MSTORE PUSH1 0x24 PUSH1 0x0 REVERT JUMPDEST PUSH2 0xFD8 DUP3 PUSH2 0xEA9 JUMP JUMPDEST DUP2 ADD DUP2 DUP2 LT PUSH8 0xFFFFFFFFFFFFFFFF DUP3 GT OR ISZERO PUSH2 0xFF7 JUMPI PUSH2 0xFF6 PUSH2 0xFA0 JUMP JUMPDEST JUMPDEST DUP1 PUSH1 0x40 MSTORE POP POP POP JUMP JUMPDEST PUSH1 0x0 PUSH2 0x100A PUSH2 0xDE3 JUMP JUMPDEST SWAP1 POP PUSH2 0x1016 DUP3 DUP3 PUSH2 0xFCF JUMP JUMPDEST SWAP2 SWAP1 POP JUMP JUMPDEST PUSH1 0x0 PUSH8 0xFFFFFFFFFFFFFFFF DUP3 GT ISZERO PUSH2 0x1036 JUMPI PUSH2 0x1035 PUSH2 0xFA0 JUMP JUMPDEST JUMPDEST PUSH2 0x103F DUP3 PUSH2 0xEA9 JUMP JUMPDEST SWAP1 POP PUSH1 0x20 DUP2 ADD SWAP1 POP SWAP2 SWAP1 POP JUMP JUMPDEST DUP3 DUP2 DUP4 CALLDATACOPY PUSH1 0x0 DUP4 DUP4 ADD MSTORE POP POP POP JUMP JUMPDEST PUSH1 0x0 PUSH2 0x106E PUSH2 0x1069 DUP5 PUSH2 0x101B JUMP JUMPDEST PUSH2 0x1000 JUMP JUMPDEST SWAP1 POP DUP3 DUP2 MSTORE PUSH1 0x20 DUP2 ADD DUP5 DUP5 DUP5 ADD GT ISZERO PUSH2 0x108A JUMPI PUSH2 0x1089 PUSH2 0xF9B JUMP JUMPDEST JUMPDEST PUSH2 0x1095 DUP5 DUP3 DUP6 PUSH2 0x104C JUMP JUMPDEST POP SWAP4 SWAP3 POP POP POP JUMP JUMPDEST PUSH1 0x0 DUP3 PUSH1 0x1F DUP4 ADD SLT PUSH2 0x10B2 JUMPI PUSH2 0x10B1 PUSH2 0xF96 JUMP JUMPDEST JUMPDEST DUP2 CALLDATALOAD PUSH2 0x10C2 DUP5 DUP3 PUSH1 0x20 DUP7 ADD PUSH2 0x105B JUMP JUMPDEST SWAP2 POP POP SWAP3 SWAP2 POP POP JUMP JUMPDEST PUSH2 0x10D4 DUP2 PUSH2 0xF13 JUMP JUMPDEST DUP2 EQ PUSH2 0x10DF JUMPI PUSH1 0x0 DUP1 REVERT JUMPDEST POP JUMP JUMPDEST PUSH1 0x0 DUP2 CALLDATALOAD SWAP1 POP PUSH2 0x10F1 DUP2 PUSH2 0x10CB JUMP JUMPDEST SWAP3 SWAP2 POP POP JUMP JUMPDEST PUSH1 0x0 DUP1 PUSH1 0x0 PUSH1 0x60 DUP5 DUP7 SUB SLT ISZERO PUSH2 0x1110 JUMPI PUSH2 0x110F PUSH2 0xDED JUMP JUMPDEST JUMPDEST PUSH1 0x0 DUP5 ADD CALLDATALOAD PUSH8 0xFFFFFFFFFFFFFFFF DUP2 GT ISZERO PUSH2 0x112E JUMPI PUSH2 0x112D PUSH2 0xDF2 JUMP JUMPDEST JUMPDEST PUSH2 0x113A DUP7 DUP3 DUP8 ADD PUSH2 0x109D JUMP JUMPDEST SWAP4 POP POP PUSH1 0x20 PUSH2 0x114B DUP7 DUP3 DUP8 ADD PUSH2 0x10E2 JUMP JUMPDEST SWAP3 POP POP PUSH1 0x40 DUP5 ADD CALLDATALOAD PUSH8 0xFFFFFFFFFFFFFFFF DUP2 GT ISZERO PUSH2 0x116C JUMPI PUSH2 0x116B PUSH2 0xDF2 JUMP JUMPDEST JUMPDEST PUSH2 0x1178 DUP7 DUP3 DUP8 ADD PUSH2 0x109D JUMP JUMPDEST SWAP2 POP POP SWAP3 POP SWAP3 POP SWAP3 JUMP JUMPDEST PUSH1 0x0 DUP2 MLOAD SWAP1 POP SWAP2 SWAP1 POP JUMP JUMPDEST PUSH1 0x0 DUP3 DUP3 MSTORE PUSH1 0x20 DUP3 ADD SWAP1 POP SWAP3 SWAP2 POP POP JUMP JUMPDEST PUSH1 0x0 DUP2 SWAP1 POP PUSH1 0x20 DUP3 ADD SWAP1 POP SWAP2 SWAP1 POP JUMP JUMPDEST PUSH1 0x0 DUP3 DUP3 MSTORE PUSH1 0x20 DUP3 ADD SWAP1 POP SWAP3 SWAP2 POP POP JUMP JUMPDEST PUSH1 0x0 PUSH2 0x11CA DUP3 PUSH2 0xE5A JUMP JUMPDEST PUSH2 0x11D4 DUP2 DUP6 PUSH2 0x11AE JUMP JUMPDEST SWAP4 POP PUSH2 0x11E4 DUP2 DUP6 PUSH1 0x20 DUP7 ADD PUSH2 0xE76 JUMP JUMPDEST PUSH2 0x11ED DUP2 PUSH2 0xEA9 JUMP JUMPDEST DUP5 ADD SWAP2 POP POP SWAP3 SWAP2 POP POP JUMP JUMPDEST PUSH2 0x1201 DUP2 PUSH2 0xF13 JUMP JUMPDEST DUP3 MSTORE POP POP JUMP JUMPDEST PUSH2 0x1210 DUP2 PUSH2 0xDF7 JUMP JUMPDEST DUP3 MSTORE POP POP JUMP JUMPDEST PUSH1 0x0 PUSH1 0x80 DUP4 ADD PUSH1 0x0 DUP4 ADD MLOAD DUP5 DUP3 SUB PUSH1 0x0 DUP7 ADD MSTORE PUSH2 0x1233 DUP3 DUP3 PUSH2 0x11BF JUMP JUMPDEST SWAP2 POP POP PUSH1 0x20 DUP4 ADD MLOAD PUSH2 0x1248 PUSH1 0x20 DUP7 ADD DUP3 PUSH2 0x11F8 JUMP JUMPDEST POP PUSH1 0x40 DUP4 ADD MLOAD DUP5 DUP3 SUB PUSH1 0x40 DUP7 ADD MSTORE PUSH2 0x1260 DUP3 DUP3 PUSH2 0x11BF JUMP JUMPDEST SWAP2 POP POP PUSH1 0x60 DUP4 ADD MLOAD PUSH2 0x1275 PUSH1 0x60 DUP7 ADD DUP3 PUSH2 0x1207 JUMP JUMPDEST POP DUP1 SWAP2 POP POP SWAP3 SWAP2 POP POP JUMP JUMPDEST PUSH1 0x0 PUSH2 0x128C DUP4 DUP4 PUSH2 0x1216 JUMP JUMPDEST SWAP1 POP SWAP3 SWAP2 POP POP JUMP JUMPDEST PUSH1 0x0 PUSH1 0x20 DUP3 ADD SWAP1 POP SWAP2 SWAP1 POP JUMP JUMPDEST PUSH1 0x0 PUSH2 0x12AC DUP3 PUSH2 0x1182 JUMP JUMPDEST PUSH2 0x12B6 DUP2 DUP6 PUSH2 0x118D JUMP JUMPDEST SWAP4 POP DUP4 PUSH1 0x20 DUP3 MUL DUP6 ADD PUSH2 0x12C8 DUP6 PUSH2 0x119E JUMP JUMPDEST DUP1 PUSH1 0x0 JUMPDEST DUP6 DUP2 LT ISZERO PUSH2 0x1304 JUMPI DUP5 DUP5 SUB DUP10 MSTORE DUP2 MLOAD PUSH2 0x12E5 DUP6 DUP3 PUSH2 0x1280 JUMP JUMPDEST SWAP5 POP PUSH2 0x12F0 DUP4 PUSH2 0x1294 JUMP JUMPDEST SWAP3 POP PUSH1 0x20 DUP11 ADD SWAP10 POP POP PUSH1 0x1 DUP2 ADD SWAP1 POP PUSH2 0x12CC JUMP JUMPDEST POP DUP3 SWAP8 POP DUP8 SWAP6 POP POP POP POP POP POP SWAP3 SWAP2 POP POP JUMP JUMPDEST PUSH1 0x0 PUSH1 0x20 DUP3 ADD SWAP1 POP DUP2 DUP2 SUB PUSH1 0x0 DUP4 ADD MSTORE PUSH2 0x1330 DUP2 DUP5 PUSH2 0x12A1 JUMP JUMPDEST SWAP1 POP SWAP3 SWAP2 POP POP JUMP JUMPDEST PUSH1 0x0 PUSH1 0x20 DUP3 DUP5 SUB SLT ISZERO PUSH2 0x134E JUMPI PUSH2 0x134D PUSH2 0xDED JUMP JUMPDEST JUMPDEST PUSH1 0x0 DUP3 ADD CALLDATALOAD PUSH8 0xFFFFFFFFFFFFFFFF DUP2 GT ISZERO PUSH2 0x136C JUMPI PUSH2 0x136B PUSH2 0xDF2 JUMP JUMPDEST JUMPDEST PUSH2 0x1378 DUP5 DUP3 DUP6 ADD PUSH2 0x109D JUMP JUMPDEST SWAP2 POP POP SWAP3 SWAP2 POP POP JUMP JUMPDEST PUSH1 0x0 DUP2 ISZERO ISZERO SWAP1 POP SWAP2 SWAP1 POP JUMP JUMPDEST PUSH2 0x1396 DUP2 PUSH2 0x1381 JUMP JUMPDEST DUP3 MSTORE POP POP JUMP JUMPDEST PUSH1 0x0 PUSH1 0x20 DUP3 ADD SWAP1 POP PUSH2 0x13B1 PUSH1 0x0 DUP4 ADD DUP5 PUSH2 0x138D JUMP JUMPDEST SWAP3 SWAP2 POP POP JUMP JUMPDEST PUSH32 0x4E487B7100000000000000000000000000000000000000000000000000000000 PUSH1 0x0 MSTORE PUSH1 0x22 PUSH1 0x4 MSTORE PUSH1 0x24 PUSH1 0x0 REVERT JUMPDEST PUSH1 0x0 PUSH1 0x2 DUP3 DIV SWAP1 POP PUSH1 0x1 DUP3 AND DUP1 PUSH2 0x13FE JUMPI PUSH1 0x7F DUP3 AND SWAP2 POP JUMPDEST PUSH1 0x20 DUP3 LT DUP2 SUB PUSH2 0x1411 JUMPI PUSH2 0x1410 PUSH2 0x13B7 JUMP JUMPDEST JUMPDEST POP SWAP2 SWAP1 POP JUMP JUMPDEST PUSH32 0x4E487B7100000000000000000000000000000000000000000000000000000000 PUSH1 0x0 MSTORE PUSH1 0x11 PUSH1 0x4 MSTORE PUSH1 0x24 PUSH1 0x0 REVERT JUMPDEST PUSH1 0x0 PUSH2 0x1451 DUP3 PUSH2 0xDF7 JUMP JUMPDEST SWAP2 POP PUSH32 0xFFFFFFFFFFFFFFFFFFFFFFFFFFFFFFFFFFFFFFFFFFFFFFFFFFFFFFFFFFFFFFFF DUP3 SUB PUSH2 0x1483 JUMPI PUSH2 0x1482 PUSH2 0x1417 JUMP JUMPDEST JUMPDEST PUSH1 0x1 DUP3 ADD SWAP1 POP SWAP2 SWAP1 POP JUMP JUMPDEST PUSH1 0x0 DUP2 SWAP1 POP SWAP3 SWAP2 POP POP JUMP JUMPDEST PUSH1 0x0 PUSH2 0x14A4 DUP3 PUSH2 0xE5A JUMP JUMPDEST PUSH2 0x14AE DUP2 DUP6 PUSH2 0x148E JUMP JUMPDEST SWAP4 POP PUSH2 0x14BE DUP2 DUP6 PUSH1 0x20 DUP7 ADD PUSH2 0xE76 JUMP JUMPDEST DUP1 DUP5 ADD SWAP2 POP POP SWAP3 SWAP2 POP POP JUMP JUMPDEST PUSH1 0x0 PUSH2 0x14D6 DUP3 DUP5 PUSH2 0x1499 JUMP JUMPDEST SWAP2 POP DUP2 SWAP1 POP SWAP3 SWAP2 POP POP JUMP JUMPDEST PUSH32 0x596F75206861766520616C726561647920566F74656421000000000000000000 PUSH1 0x0 DUP3 ADD MSTORE POP JUMP JUMPDEST PUSH1 0x0 PUSH2 0x1517 PUSH1 0x17 DUP4 PUSH2 0xE65 JUMP JUMPDEST SWAP2 POP PUSH2 0x1522 DUP3 PUSH2 0x14E1 JUMP JUMPDEST PUSH1 0x20 DUP3 ADD SWAP1 POP SWAP2 SWAP1 POP JUMP JUMPDEST PUSH1 0x0 PUSH1 0x20 DUP3 ADD SWAP1 POP DUP2 DUP2 SUB PUSH1 0x0 DUP4 ADD MSTORE PUSH2 0x1546 DUP2 PUSH2 0x150A JUMP JUMPDEST SWAP1 POP SWAP2 SWAP1 POP JUMP JUMPDEST PUSH32 0x53656E64206174206C6561737420302E35302065746865722100000000000000 PUSH1 0x0 DUP3 ADD MSTORE POP JUMP JUMPDEST PUSH1 0x0 PUSH2 0x1583 PUSH1 0x19 DUP4 PUSH2 0xE65 JUMP JUMPDEST SWAP2 POP PUSH2 0x158E DUP3 PUSH2 0x154D JUMP JUMPDEST PUSH1 0x20 DUP3 ADD SWAP1 POP SWAP2 SWAP1 POP JUMP JUMPDEST PUSH1 0x0 PUSH1 0x20 DUP3 ADD SWAP1 POP DUP2 DUP2 SUB PUSH1 0x0 DUP4 ADD MSTORE PUSH2 0x15B2 DUP2 PUSH2 0x1576 JUMP JUMPDEST SWAP1 POP SWAP2 SWAP1 POP JUMP JUMPDEST PUSH32 0x4E487B7100000000000000000000000000000000000000000000000000000000 PUSH1 0x0 MSTORE PUSH1 0x32 PUSH1 0x4 MSTORE PUSH1 0x24 PUSH1 0x0 REVERT INVALID LOG2 PUSH5 0x6970667358 0x22 SLT KECCAK256 SWAP11 0xBC SHR MSIZE PUSH29 0x637E6DA444511DC2A6DE9A1EB569370F6F9436F1DE499F450E49A16473 PUSH16 0x6C634300080D0033A264697066735822 SLT KECCAK256 SSTORE 0xDC REVERT 0xE4 DUP9 RETURNDATASIZE 0xCA 0xB8 DUP1 0xF9 EQ 0xBD 0x2A 0xB1 0xDE SWAP4 RETURNDATACOPY 0xD 0xA9 LOG0 PUSH19 0x417A8CECDD6802830CA51564736F6C63430008 0xD STOP CALLER "},"gasEstimates":{"creation":{"codeDepositCost":"1822800","executionCost":"1919","totalCost":"1824719"},"external":{"createBallot(string,string,string,string)":"infinite","deployedBallots(uint256)":"infinite","getDeployedBallots()":"infinite"}},"methodIdentifiers":{"createBallot(string,string,string,string)":"05634063","deployedBallots(uint256)":"cdf74c3e","getDeployedBallots()":"9b935abf"}},"storageLayout":{"storage":[{"astId":5,"contract":"Ballot.sol:BallotFactory","label":"deployedBallots","offset":0,"slot":"0","type":"t_array(t_contract(Ballot)348)dyn_storage"}],"types":{"t_array(t_contract(Ballot)348)dyn_storage":{"base":"t_contract(Ballot)348","encoding":"dynamic_array","label":"contract Ballot[]","numberOfBytes":"32"},"t_contract(Ballot)348":{"encoding":"inplace","label":"contract Ballot","numberOfBytes":"20"}}},"userdoc":{"kind":"user","methods":{},"version":1}}