{"abi":[{"inputs":[{"internalType":"string","name":"creator","type":"string"},{"internalType":"address","name":"creatorId","type":"address"},{"internalType":"string","name":"image","type":"string"},{"internalType":"string","name":"nameOfBallot","type":"string"},{"internalType":"string","name":"desc","type":"string"}],"stateMutability":"nonpayable","type":"constructor"},{"inputs":[{"internalType":"string","name":"name","type":"string"},{"internalType":"address","name":"id","type":"address"},{"internalType":"string","name":"image","type":"string"}],"name":"addParticipant","outputs":[],"stateMutability":"payable","type":"function"},{"inputs":[],"name":"ballotName","outputs":[{"internalType":"string","name":"","type":"string"}],"stateMutability":"view","type":"function"},{"inputs":[],"name":"description","outputs":[{"internalType":"string","name":"","type":"string"}],"stateMutability":"view","type":"function"},{"inputs":[],"name":"finishVoting","outputs":[],"stateMutability":"nonpayable","type":"function"},{"inputs":[],"name":"getParticipants","outputs":[{"components":[{"internalType":"string","name":"name","type":"string"},{"internalType":"address","name":"id","type":"address"},{"internalType":"string","name":"image","type":"string"},{"internalType":"uint256","name":"votes","type":"uint256"}],"internalType":"struct Ballot.Person[]","name":"","type":"tuple[]"}],"stateMutability":"view","type":"function"},{"inputs":[],"name":"manager","outputs":[{"internalType":"string","name":"name","type":"string"},{"internalType":"address","name":"id","type":"address"},{"internalType":"string","name":"image","type":"string"},{"internalType":"uint256","name":"votes","type":"uint256"}],"stateMutability":"view","type":"function"},{"inputs":[{"internalType":"uint256","name":"","type":"uint256"}],"name":"participants","outputs":[{"internalType":"string","name":"name","type":"string"},{"internalType":"address","name":"id","type":"address"},{"internalType":"string","name":"image","type":"string"},{"internalType":"uint256","name":"votes","type":"uint256"}],"stateMutability":"view","type":"function"},{"inputs":[],"name":"startVoting","outputs":[],"stateMutability":"nonpayable","type":"function"},{"inputs":[],"name":"totalNoOfVoters","outputs":[{"internalType":"uint256","name":"","type":"uint256"}],"stateMutability":"view","type":"function"},{"inputs":[{"internalType":"string","name":"name","type":"string"},{"internalType":"address","name":"participant","type":"address"},{"internalType":"string","name":"aadhar","type":"string"}],"name":"vote","outputs":[],"stateMutability":"payable","type":"function"},{"inputs":[{"internalType":"string","name":"","type":"string"}],"name":"votedPeoplesAadharId","outputs":[{"internalType":"bool","name":"","type":"bool"}],"stateMutability":"view","type":"function"},{"inputs":[{"internalType":"string","name":"","type":"string"}],"name":"votedPeoplesWalletId","outputs":[{"internalType":"bool","name":"","type":"bool"}],"stateMutability":"view","type":"function"},{"inputs":[],"name":"votingFinished","outputs":[{"internalType":"bool","name":"","type":"bool"}],"stateMutability":"view","type":"function"},{"inputs":[],"name":"votingStarted","outputs":[{"internalType":"bool","name":"","type":"bool"}],"stateMutability":"view","type":"function"}],"devdoc":{"kind":"dev","methods":{},"version":1},"evm":{"assembly":"    /* \"Ballot.sol\":722:4164  contract Ballot{... */\n  mstore(0x40, 0x80)\n    /* \"Ballot.sol\":911:916  false */\n  0x00\n    /* \"Ballot.sol\":883:916  bool public votingStarted = false */\n  0x02\n  exp(0x0100, 0x00)\n  dup2\n  sload\n  dup2\n  0xff\n  mul\n  not\n  and\n  swap1\n  dup4\n  iszero\n  iszero\n  mul\n  or\n  swap1\n  sstore\n  pop\n    /* \"Ballot.sol\":983:988  false */\n  0x00\n    /* \"Ballot.sol\":954:988  bool public votingFinished = false */\n  0x02\n  exp(0x0100, 0x01)\n  dup2\n  sload\n  dup2\n  0xff\n  mul\n  not\n  and\n  swap1\n  dup4\n  iszero\n  iszero\n  mul\n  or\n  swap1\n  sstore\n  pop\n    /* \"Ballot.sol\":1809:2131  constructor(string memory creator ,address creatorId, string memory image , string memory nameOfBallot ,string memory desc){... */\n  callvalue\n  dup1\n  iszero\n  tag_1\n  jumpi\n  0x00\n  dup1\n  revert\ntag_1:\n  pop\n  mload(0x40)\n  sub(codesize, bytecodeSize)\n  dup1\n  bytecodeSize\n  dup4\n  codecopy\n  dup2\n  dup2\n  add\n  0x40\n  mstore\n  dup2\n  add\n  swap1\n  tag_2\n  swap2\n  swap1\n  tag_3\n  jump\t// in\ntag_2:\n    /* \"Ballot.sol\":1958:1965  creator */\n  dup5\n    /* \"Ballot.sol\":1943:1950  manager */\n  0x03\n    /* \"Ballot.sol\":1943:1955  manager.name */\n  0x00\n  add\n    /* \"Ballot.sol\":1943:1965  manager.name = creator */\n  swap1\n  dup1\n  mload\n  swap1\n  0x20\n  add\n  swap1\n  tag_6\n  swap3\n  swap2\n  swap1\n  tag_7\n  jump\t// in\ntag_6:\n  pop\n    /* \"Ballot.sol\":1989:1998  creatorId */\n  dup4\n    /* \"Ballot.sol\":1976:1983  manager */\n  0x03\n    /* \"Ballot.sol\":1976:1986  manager.id */\n  0x01\n  add\n  0x00\n    /* \"Ballot.sol\":1976:1998  manager.id = creatorId */\n  0x0100\n  exp\n  dup2\n  sload\n  dup2\n  0xffffffffffffffffffffffffffffffffffffffff\n  mul\n  not\n  and\n  swap1\n  dup4\n  0xffffffffffffffffffffffffffffffffffffffff\n  and\n  mul\n  or\n  swap1\n  sstore\n  pop\n    /* \"Ballot.sol\":2025:2030  image */\n  dup3\n    /* \"Ballot.sol\":2009:2016  manager */\n  0x03\n    /* \"Ballot.sol\":2009:2022  manager.image */\n  0x02\n  add\n    /* \"Ballot.sol\":2009:2030  manager.image = image */\n  swap1\n  dup1\n  mload\n  swap1\n  0x20\n  add\n  swap1\n  tag_8\n  swap3\n  swap2\n  swap1\n  tag_7\n  jump\t// in\ntag_8:\n  pop\n    /* \"Ballot.sol\":2057:2058  0 */\n  0x00\n    /* \"Ballot.sol\":2041:2048  manager */\n  0x03\n    /* \"Ballot.sol\":2041:2054  manager.votes */\n  dup1\n  add\n    /* \"Ballot.sol\":2041:2058  manager.votes = 0 */\n  dup2\n  swap1\n  sstore\n  pop\n    /* \"Ballot.sol\":2082:2094  nameOfBallot */\n  dup2\n    /* \"Ballot.sol\":2069:2079  ballotName */\n  0x00\n    /* \"Ballot.sol\":2069:2094  ballotName = nameOfBallot */\n  swap1\n  dup1\n  mload\n  swap1\n  0x20\n  add\n  swap1\n  tag_9\n  swap3\n  swap2\n  swap1\n  tag_7\n  jump\t// in\ntag_9:\n  pop\n    /* \"Ballot.sol\":2119:2123  desc */\n  dup1\n    /* \"Ballot.sol\":2105:2116  description */\n  0x01\n    /* \"Ballot.sol\":2105:2123  description = desc */\n  swap1\n  dup1\n  mload\n  swap1\n  0x20\n  add\n  swap1\n  tag_10\n  swap3\n  swap2\n  swap1\n  tag_7\n  jump\t// in\ntag_10:\n  pop\n    /* \"Ballot.sol\":1809:2131  constructor(string memory creator ,address creatorId, string memory image , string memory nameOfBallot ,string memory desc){... */\n  pop\n  pop\n  pop\n  pop\n  pop\n    /* \"Ballot.sol\":722:4164  contract Ballot{... */\n  jump(tag_11)\ntag_7:\n  dup3\n  dup1\n  sload\n  tag_12\n  swap1\n  tag_13\n  jump\t// in\ntag_12:\n  swap1\n  0x00\n  mstore\n  keccak256(0x00, 0x20)\n  swap1\n  0x1f\n  add\n  0x20\n  swap1\n  div\n  dup2\n  add\n  swap3\n  dup3\n  tag_15\n  jumpi\n  0x00\n  dup6\n  sstore\n  jump(tag_14)\ntag_15:\n  dup3\n  0x1f\n  lt\n  tag_16\n  jumpi\n  dup1\n  mload\n  not(0xff)\n  and\n  dup4\n  dup1\n  add\n  or\n  dup6\n  sstore\n  jump(tag_14)\ntag_16:\n  dup3\n  dup1\n  add\n  0x01\n  add\n  dup6\n  sstore\n  dup3\n  iszero\n  tag_14\n  jumpi\n  swap2\n  dup3\n  add\ntag_17:\n  dup3\n  dup2\n  gt\n  iszero\n  tag_18\n  jumpi\n  dup3\n  mload\n  dup3\n  sstore\n  swap2\n  0x20\n  add\n  swap2\n  swap1\n  0x01\n  add\n  swap1\n  jump(tag_17)\ntag_18:\ntag_14:\n  pop\n  swap1\n  pop\n  tag_19\n  swap2\n  swap1\n  tag_20\n  jump\t// in\ntag_19:\n  pop\n  swap1\n  jump\t// out\ntag_20:\ntag_21:\n  dup1\n  dup3\n  gt\n  iszero\n  tag_22\n  jumpi\n  0x00\n  dup2\n  0x00\n  swap1\n  sstore\n  pop\n  0x01\n  add\n  jump(tag_21)\ntag_22:\n  pop\n  swap1\n  jump\t// out\n    /* \"#utility.yul\":7:82   */\ntag_23:\n    /* \"#utility.yul\":40:46   */\n  0x00\n    /* \"#utility.yul\":73:75   */\n  0x40\n    /* \"#utility.yul\":67:76   */\n  mload\n    /* \"#utility.yul\":57:76   */\n  swap1\n  pop\n    /* \"#utility.yul\":7:82   */\n  swap1\n  jump\t// out\n    /* \"#utility.yul\":88:205   */\ntag_24:\n    /* \"#utility.yul\":197:198   */\n  0x00\n    /* \"#utility.yul\":194:195   */\n  dup1\n    /* \"#utility.yul\":187:199   */\n  revert\n    /* \"#utility.yul\":211:328   */\ntag_25:\n    /* \"#utility.yul\":320:321   */\n  0x00\n    /* \"#utility.yul\":317:318   */\n  dup1\n    /* \"#utility.yul\":310:322   */\n  revert\n    /* \"#utility.yul\":334:451   */\ntag_26:\n    /* \"#utility.yul\":443:444   */\n  0x00\n    /* \"#utility.yul\":440:441   */\n  dup1\n    /* \"#utility.yul\":433:445   */\n  revert\n    /* \"#utility.yul\":457:574   */\ntag_27:\n    /* \"#utility.yul\":566:567   */\n  0x00\n    /* \"#utility.yul\":563:564   */\n  dup1\n    /* \"#utility.yul\":556:568   */\n  revert\n    /* \"#utility.yul\":580:682   */\ntag_28:\n    /* \"#utility.yul\":621:627   */\n  0x00\n    /* \"#utility.yul\":672:674   */\n  0x1f\n    /* \"#utility.yul\":668:675   */\n  not\n    /* \"#utility.yul\":663:665   */\n  0x1f\n    /* \"#utility.yul\":656:661   */\n  dup4\n    /* \"#utility.yul\":652:666   */\n  add\n    /* \"#utility.yul\":648:676   */\n  and\n    /* \"#utility.yul\":638:676   */\n  swap1\n  pop\n    /* \"#utility.yul\":580:682   */\n  swap2\n  swap1\n  pop\n  jump\t// out\n    /* \"#utility.yul\":688:868   */\ntag_29:\n    /* \"#utility.yul\":736:813   */\n  0x4e487b7100000000000000000000000000000000000000000000000000000000\n    /* \"#utility.yul\":733:734   */\n  0x00\n    /* \"#utility.yul\":726:814   */\n  mstore\n    /* \"#utility.yul\":833:837   */\n  0x41\n    /* \"#utility.yul\":830:831   */\n  0x04\n    /* \"#utility.yul\":823:838   */\n  mstore\n    /* \"#utility.yul\":857:861   */\n  0x24\n    /* \"#utility.yul\":854:855   */\n  0x00\n    /* \"#utility.yul\":847:862   */\n  revert\n    /* \"#utility.yul\":874:1155   */\ntag_30:\n    /* \"#utility.yul\":957:984   */\n  tag_50\n    /* \"#utility.yul\":979:983   */\n  dup3\n    /* \"#utility.yul\":957:984   */\n  tag_28\n  jump\t// in\ntag_50:\n    /* \"#utility.yul\":949:955   */\n  dup2\n    /* \"#utility.yul\":945:985   */\n  add\n    /* \"#utility.yul\":1087:1093   */\n  dup2\n    /* \"#utility.yul\":1075:1085   */\n  dup2\n    /* \"#utility.yul\":1072:1094   */\n  lt\n    /* \"#utility.yul\":1051:1069   */\n  0xffffffffffffffff\n    /* \"#utility.yul\":1039:1049   */\n  dup3\n    /* \"#utility.yul\":1036:1070   */\n  gt\n    /* \"#utility.yul\":1033:1095   */\n  or\n    /* \"#utility.yul\":1030:1118   */\n  iszero\n  tag_51\n  jumpi\n    /* \"#utility.yul\":1098:1116   */\n  tag_52\n  tag_29\n  jump\t// in\ntag_52:\n    /* \"#utility.yul\":1030:1118   */\ntag_51:\n    /* \"#utility.yul\":1138:1148   */\n  dup1\n    /* \"#utility.yul\":1134:1136   */\n  0x40\n    /* \"#utility.yul\":1127:1149   */\n  mstore\n    /* \"#utility.yul\":917:1155   */\n  pop\n    /* \"#utility.yul\":874:1155   */\n  pop\n  pop\n  jump\t// out\n    /* \"#utility.yul\":1161:1290   */\ntag_31:\n    /* \"#utility.yul\":1195:1201   */\n  0x00\n    /* \"#utility.yul\":1222:1242   */\n  tag_54\n  tag_23\n  jump\t// in\ntag_54:\n    /* \"#utility.yul\":1212:1242   */\n  swap1\n  pop\n    /* \"#utility.yul\":1251:1284   */\n  tag_55\n    /* \"#utility.yul\":1279:1283   */\n  dup3\n    /* \"#utility.yul\":1271:1277   */\n  dup3\n    /* \"#utility.yul\":1251:1284   */\n  tag_30\n  jump\t// in\ntag_55:\n    /* \"#utility.yul\":1161:1290   */\n  swap2\n  swap1\n  pop\n  jump\t// out\n    /* \"#utility.yul\":1296:1604   */\ntag_32:\n    /* \"#utility.yul\":1358:1362   */\n  0x00\n    /* \"#utility.yul\":1448:1466   */\n  0xffffffffffffffff\n    /* \"#utility.yul\":1440:1446   */\n  dup3\n    /* \"#utility.yul\":1437:1467   */\n  gt\n    /* \"#utility.yul\":1434:1490   */\n  iszero\n  tag_57\n  jumpi\n    /* \"#utility.yul\":1470:1488   */\n  tag_58\n  tag_29\n  jump\t// in\ntag_58:\n    /* \"#utility.yul\":1434:1490   */\ntag_57:\n    /* \"#utility.yul\":1508:1537   */\n  tag_59\n    /* \"#utility.yul\":1530:1536   */\n  dup3\n    /* \"#utility.yul\":1508:1537   */\n  tag_28\n  jump\t// in\ntag_59:\n    /* \"#utility.yul\":1500:1537   */\n  swap1\n  pop\n    /* \"#utility.yul\":1592:1596   */\n  0x20\n    /* \"#utility.yul\":1586:1590   */\n  dup2\n    /* \"#utility.yul\":1582:1597   */\n  add\n    /* \"#utility.yul\":1574:1597   */\n  swap1\n  pop\n    /* \"#utility.yul\":1296:1604   */\n  swap2\n  swap1\n  pop\n  jump\t// out\n    /* \"#utility.yul\":1610:1917   */\ntag_33:\n    /* \"#utility.yul\":1678:1679   */\n  0x00\n    /* \"#utility.yul\":1688:1801   */\ntag_61:\n    /* \"#utility.yul\":1702:1708   */\n  dup4\n    /* \"#utility.yul\":1699:1700   */\n  dup2\n    /* \"#utility.yul\":1696:1709   */\n  lt\n    /* \"#utility.yul\":1688:1801   */\n  iszero\n  tag_63\n  jumpi\n    /* \"#utility.yul\":1787:1788   */\n  dup1\n    /* \"#utility.yul\":1782:1785   */\n  dup3\n    /* \"#utility.yul\":1778:1789   */\n  add\n    /* \"#utility.yul\":1772:1790   */\n  mload\n    /* \"#utility.yul\":1768:1769   */\n  dup2\n    /* \"#utility.yul\":1763:1766   */\n  dup5\n    /* \"#utility.yul\":1759:1770   */\n  add\n    /* \"#utility.yul\":1752:1791   */\n  mstore\n    /* \"#utility.yul\":1724:1726   */\n  0x20\n    /* \"#utility.yul\":1721:1722   */\n  dup2\n    /* \"#utility.yul\":1717:1727   */\n  add\n    /* \"#utility.yul\":1712:1727   */\n  swap1\n  pop\n    /* \"#utility.yul\":1688:1801   */\n  jump(tag_61)\ntag_63:\n    /* \"#utility.yul\":1819:1825   */\n  dup4\n    /* \"#utility.yul\":1816:1817   */\n  dup2\n    /* \"#utility.yul\":1813:1826   */\n  gt\n    /* \"#utility.yul\":1810:1911   */\n  iszero\n  tag_64\n  jumpi\n    /* \"#utility.yul\":1899:1900   */\n  0x00\n    /* \"#utility.yul\":1890:1896   */\n  dup5\n    /* \"#utility.yul\":1885:1888   */\n  dup5\n    /* \"#utility.yul\":1881:1897   */\n  add\n    /* \"#utility.yul\":1874:1901   */\n  mstore\n    /* \"#utility.yul\":1810:1911   */\ntag_64:\n    /* \"#utility.yul\":1659:1917   */\n  pop\n    /* \"#utility.yul\":1610:1917   */\n  pop\n  pop\n  pop\n  jump\t// out\n    /* \"#utility.yul\":1923:2344   */\ntag_34:\n    /* \"#utility.yul\":2012:2017   */\n  0x00\n    /* \"#utility.yul\":2037:2103   */\n  tag_66\n    /* \"#utility.yul\":2053:2102   */\n  tag_67\n    /* \"#utility.yul\":2095:2101   */\n  dup5\n    /* \"#utility.yul\":2053:2102   */\n  tag_32\n  jump\t// in\ntag_67:\n    /* \"#utility.yul\":2037:2103   */\n  tag_31\n  jump\t// in\ntag_66:\n    /* \"#utility.yul\":2028:2103   */\n  swap1\n  pop\n    /* \"#utility.yul\":2126:2132   */\n  dup3\n    /* \"#utility.yul\":2119:2124   */\n  dup2\n    /* \"#utility.yul\":2112:2133   */\n  mstore\n    /* \"#utility.yul\":2164:2168   */\n  0x20\n    /* \"#utility.yul\":2157:2162   */\n  dup2\n    /* \"#utility.yul\":2153:2169   */\n  add\n    /* \"#utility.yul\":2202:2205   */\n  dup5\n    /* \"#utility.yul\":2193:2199   */\n  dup5\n    /* \"#utility.yul\":2188:2191   */\n  dup5\n    /* \"#utility.yul\":2184:2200   */\n  add\n    /* \"#utility.yul\":2181:2206   */\n  gt\n    /* \"#utility.yul\":2178:2290   */\n  iszero\n  tag_68\n  jumpi\n    /* \"#utility.yul\":2209:2288   */\n  tag_69\n  tag_27\n  jump\t// in\ntag_69:\n    /* \"#utility.yul\":2178:2290   */\ntag_68:\n    /* \"#utility.yul\":2299:2338   */\n  tag_70\n    /* \"#utility.yul\":2331:2337   */\n  dup5\n    /* \"#utility.yul\":2326:2329   */\n  dup3\n    /* \"#utility.yul\":2321:2324   */\n  dup6\n    /* \"#utility.yul\":2299:2338   */\n  tag_33\n  jump\t// in\ntag_70:\n    /* \"#utility.yul\":2018:2344   */\n  pop\n    /* \"#utility.yul\":1923:2344   */\n  swap4\n  swap3\n  pop\n  pop\n  pop\n  jump\t// out\n    /* \"#utility.yul\":2364:2719   */\ntag_35:\n    /* \"#utility.yul\":2431:2436   */\n  0x00\n    /* \"#utility.yul\":2480:2483   */\n  dup3\n    /* \"#utility.yul\":2473:2477   */\n  0x1f\n    /* \"#utility.yul\":2465:2471   */\n  dup4\n    /* \"#utility.yul\":2461:2478   */\n  add\n    /* \"#utility.yul\":2457:2484   */\n  slt\n    /* \"#utility.yul\":2447:2569   */\n  tag_72\n  jumpi\n    /* \"#utility.yul\":2488:2567   */\n  tag_73\n  tag_26\n  jump\t// in\ntag_73:\n    /* \"#utility.yul\":2447:2569   */\ntag_72:\n    /* \"#utility.yul\":2598:2604   */\n  dup2\n    /* \"#utility.yul\":2592:2605   */\n  mload\n    /* \"#utility.yul\":2623:2713   */\n  tag_74\n    /* \"#utility.yul\":2709:2712   */\n  dup5\n    /* \"#utility.yul\":2701:2707   */\n  dup3\n    /* \"#utility.yul\":2694:2698   */\n  0x20\n    /* \"#utility.yul\":2686:2692   */\n  dup7\n    /* \"#utility.yul\":2682:2699   */\n  add\n    /* \"#utility.yul\":2623:2713   */\n  tag_34\n  jump\t// in\ntag_74:\n    /* \"#utility.yul\":2614:2713   */\n  swap2\n  pop\n    /* \"#utility.yul\":2437:2719   */\n  pop\n    /* \"#utility.yul\":2364:2719   */\n  swap3\n  swap2\n  pop\n  pop\n  jump\t// out\n    /* \"#utility.yul\":2725:2851   */\ntag_36:\n    /* \"#utility.yul\":2762:2769   */\n  0x00\n    /* \"#utility.yul\":2802:2844   */\n  0xffffffffffffffffffffffffffffffffffffffff\n    /* \"#utility.yul\":2795:2800   */\n  dup3\n    /* \"#utility.yul\":2791:2845   */\n  and\n    /* \"#utility.yul\":2780:2845   */\n  swap1\n  pop\n    /* \"#utility.yul\":2725:2851   */\n  swap2\n  swap1\n  pop\n  jump\t// out\n    /* \"#utility.yul\":2857:2953   */\ntag_37:\n    /* \"#utility.yul\":2894:2901   */\n  0x00\n    /* \"#utility.yul\":2923:2947   */\n  tag_77\n    /* \"#utility.yul\":2941:2946   */\n  dup3\n    /* \"#utility.yul\":2923:2947   */\n  tag_36\n  jump\t// in\ntag_77:\n    /* \"#utility.yul\":2912:2947   */\n  swap1\n  pop\n    /* \"#utility.yul\":2857:2953   */\n  swap2\n  swap1\n  pop\n  jump\t// out\n    /* \"#utility.yul\":2959:3081   */\ntag_38:\n    /* \"#utility.yul\":3032:3056   */\n  tag_79\n    /* \"#utility.yul\":3050:3055   */\n  dup2\n    /* \"#utility.yul\":3032:3056   */\n  tag_37\n  jump\t// in\ntag_79:\n    /* \"#utility.yul\":3025:3030   */\n  dup2\n    /* \"#utility.yul\":3022:3057   */\n  eq\n    /* \"#utility.yul\":3012:3075   */\n  tag_80\n  jumpi\n    /* \"#utility.yul\":3071:3072   */\n  0x00\n    /* \"#utility.yul\":3068:3069   */\n  dup1\n    /* \"#utility.yul\":3061:3073   */\n  revert\n    /* \"#utility.yul\":3012:3075   */\ntag_80:\n    /* \"#utility.yul\":2959:3081   */\n  pop\n  jump\t// out\n    /* \"#utility.yul\":3087:3230   */\ntag_39:\n    /* \"#utility.yul\":3144:3149   */\n  0x00\n    /* \"#utility.yul\":3175:3181   */\n  dup2\n    /* \"#utility.yul\":3169:3182   */\n  mload\n    /* \"#utility.yul\":3160:3182   */\n  swap1\n  pop\n    /* \"#utility.yul\":3191:3224   */\n  tag_82\n    /* \"#utility.yul\":3218:3223   */\n  dup2\n    /* \"#utility.yul\":3191:3224   */\n  tag_38\n  jump\t// in\ntag_82:\n    /* \"#utility.yul\":3087:3230   */\n  swap3\n  swap2\n  pop\n  pop\n  jump\t// out\n    /* \"#utility.yul\":3236:4905   */\ntag_3:\n    /* \"#utility.yul\":3382:3388   */\n  0x00\n    /* \"#utility.yul\":3390:3396   */\n  dup1\n    /* \"#utility.yul\":3398:3404   */\n  0x00\n    /* \"#utility.yul\":3406:3412   */\n  dup1\n    /* \"#utility.yul\":3414:3420   */\n  0x00\n    /* \"#utility.yul\":3463:3466   */\n  0xa0\n    /* \"#utility.yul\":3451:3460   */\n  dup7\n    /* \"#utility.yul\":3442:3449   */\n  dup9\n    /* \"#utility.yul\":3438:3461   */\n  sub\n    /* \"#utility.yul\":3434:3467   */\n  slt\n    /* \"#utility.yul\":3431:3551   */\n  iszero\n  tag_84\n  jumpi\n    /* \"#utility.yul\":3470:3549   */\n  tag_85\n  tag_24\n  jump\t// in\ntag_85:\n    /* \"#utility.yul\":3431:3551   */\ntag_84:\n    /* \"#utility.yul\":3611:3612   */\n  0x00\n    /* \"#utility.yul\":3600:3609   */\n  dup7\n    /* \"#utility.yul\":3596:3613   */\n  add\n    /* \"#utility.yul\":3590:3614   */\n  mload\n    /* \"#utility.yul\":3641:3659   */\n  0xffffffffffffffff\n    /* \"#utility.yul\":3633:3639   */\n  dup2\n    /* \"#utility.yul\":3630:3660   */\n  gt\n    /* \"#utility.yul\":3627:3744   */\n  iszero\n  tag_86\n  jumpi\n    /* \"#utility.yul\":3663:3742   */\n  tag_87\n  tag_25\n  jump\t// in\ntag_87:\n    /* \"#utility.yul\":3627:3744   */\ntag_86:\n    /* \"#utility.yul\":3768:3842   */\n  tag_88\n    /* \"#utility.yul\":3834:3841   */\n  dup9\n    /* \"#utility.yul\":3825:3831   */\n  dup3\n    /* \"#utility.yul\":3814:3823   */\n  dup10\n    /* \"#utility.yul\":3810:3832   */\n  add\n    /* \"#utility.yul\":3768:3842   */\n  tag_35\n  jump\t// in\ntag_88:\n    /* \"#utility.yul\":3758:3842   */\n  swap6\n  pop\n    /* \"#utility.yul\":3561:3852   */\n  pop\n    /* \"#utility.yul\":3891:3893   */\n  0x20\n    /* \"#utility.yul\":3917:3981   */\n  tag_89\n    /* \"#utility.yul\":3973:3980   */\n  dup9\n    /* \"#utility.yul\":3964:3970   */\n  dup3\n    /* \"#utility.yul\":3953:3962   */\n  dup10\n    /* \"#utility.yul\":3949:3971   */\n  add\n    /* \"#utility.yul\":3917:3981   */\n  tag_39\n  jump\t// in\ntag_89:\n    /* \"#utility.yul\":3907:3981   */\n  swap5\n  pop\n    /* \"#utility.yul\":3862:3991   */\n  pop\n    /* \"#utility.yul\":4051:4053   */\n  0x40\n    /* \"#utility.yul\":4040:4049   */\n  dup7\n    /* \"#utility.yul\":4036:4054   */\n  add\n    /* \"#utility.yul\":4030:4055   */\n  mload\n    /* \"#utility.yul\":4082:4100   */\n  0xffffffffffffffff\n    /* \"#utility.yul\":4074:4080   */\n  dup2\n    /* \"#utility.yul\":4071:4101   */\n  gt\n    /* \"#utility.yul\":4068:4185   */\n  iszero\n  tag_90\n  jumpi\n    /* \"#utility.yul\":4104:4183   */\n  tag_91\n  tag_25\n  jump\t// in\ntag_91:\n    /* \"#utility.yul\":4068:4185   */\ntag_90:\n    /* \"#utility.yul\":4209:4283   */\n  tag_92\n    /* \"#utility.yul\":4275:4282   */\n  dup9\n    /* \"#utility.yul\":4266:4272   */\n  dup3\n    /* \"#utility.yul\":4255:4264   */\n  dup10\n    /* \"#utility.yul\":4251:4273   */\n  add\n    /* \"#utility.yul\":4209:4283   */\n  tag_35\n  jump\t// in\ntag_92:\n    /* \"#utility.yul\":4199:4283   */\n  swap4\n  pop\n    /* \"#utility.yul\":4001:4293   */\n  pop\n    /* \"#utility.yul\":4353:4355   */\n  0x60\n    /* \"#utility.yul\":4342:4351   */\n  dup7\n    /* \"#utility.yul\":4338:4356   */\n  add\n    /* \"#utility.yul\":4332:4357   */\n  mload\n    /* \"#utility.yul\":4384:4402   */\n  0xffffffffffffffff\n    /* \"#utility.yul\":4376:4382   */\n  dup2\n    /* \"#utility.yul\":4373:4403   */\n  gt\n    /* \"#utility.yul\":4370:4487   */\n  iszero\n  tag_93\n  jumpi\n    /* \"#utility.yul\":4406:4485   */\n  tag_94\n  tag_25\n  jump\t// in\ntag_94:\n    /* \"#utility.yul\":4370:4487   */\ntag_93:\n    /* \"#utility.yul\":4511:4585   */\n  tag_95\n    /* \"#utility.yul\":4577:4584   */\n  dup9\n    /* \"#utility.yul\":4568:4574   */\n  dup3\n    /* \"#utility.yul\":4557:4566   */\n  dup10\n    /* \"#utility.yul\":4553:4575   */\n  add\n    /* \"#utility.yul\":4511:4585   */\n  tag_35\n  jump\t// in\ntag_95:\n    /* \"#utility.yul\":4501:4585   */\n  swap3\n  pop\n    /* \"#utility.yul\":4303:4595   */\n  pop\n    /* \"#utility.yul\":4655:4658   */\n  0x80\n    /* \"#utility.yul\":4644:4653   */\n  dup7\n    /* \"#utility.yul\":4640:4659   */\n  add\n    /* \"#utility.yul\":4634:4660   */\n  mload\n    /* \"#utility.yul\":4687:4705   */\n  0xffffffffffffffff\n    /* \"#utility.yul\":4679:4685   */\n  dup2\n    /* \"#utility.yul\":4676:4706   */\n  gt\n    /* \"#utility.yul\":4673:4790   */\n  iszero\n  tag_96\n  jumpi\n    /* \"#utility.yul\":4709:4788   */\n  tag_97\n  tag_25\n  jump\t// in\ntag_97:\n    /* \"#utility.yul\":4673:4790   */\ntag_96:\n    /* \"#utility.yul\":4814:4888   */\n  tag_98\n    /* \"#utility.yul\":4880:4887   */\n  dup9\n    /* \"#utility.yul\":4871:4877   */\n  dup3\n    /* \"#utility.yul\":4860:4869   */\n  dup10\n    /* \"#utility.yul\":4856:4878   */\n  add\n    /* \"#utility.yul\":4814:4888   */\n  tag_35\n  jump\t// in\ntag_98:\n    /* \"#utility.yul\":4804:4888   */\n  swap2\n  pop\n    /* \"#utility.yul\":4605:4898   */\n  pop\n    /* \"#utility.yul\":3236:4905   */\n  swap3\n  swap6\n  pop\n  swap3\n  swap6\n  swap1\n  swap4\n  pop\n  jump\t// out\n    /* \"#utility.yul\":4911:5091   */\ntag_40:\n    /* \"#utility.yul\":4959:5036   */\n  0x4e487b7100000000000000000000000000000000000000000000000000000000\n    /* \"#utility.yul\":4956:4957   */\n  0x00\n    /* \"#utility.yul\":4949:5037   */\n  mstore\n    /* \"#utility.yul\":5056:5060   */\n  0x22\n    /* \"#utility.yul\":5053:5054   */\n  0x04\n    /* \"#utility.yul\":5046:5061   */\n  mstore\n    /* \"#utility.yul\":5080:5084   */\n  0x24\n    /* \"#utility.yul\":5077:5078   */\n  0x00\n    /* \"#utility.yul\":5070:5085   */\n  revert\n    /* \"#utility.yul\":5097:5417   */\ntag_13:\n    /* \"#utility.yul\":5141:5147   */\n  0x00\n    /* \"#utility.yul\":5178:5179   */\n  0x02\n    /* \"#utility.yul\":5172:5176   */\n  dup3\n    /* \"#utility.yul\":5168:5180   */\n  div\n    /* \"#utility.yul\":5158:5180   */\n  swap1\n  pop\n    /* \"#utility.yul\":5225:5226   */\n  0x01\n    /* \"#utility.yul\":5219:5223   */\n  dup3\n    /* \"#utility.yul\":5215:5227   */\n  and\n    /* \"#utility.yul\":5246:5264   */\n  dup1\n    /* \"#utility.yul\":5236:5317   */\n  tag_101\n  jumpi\n    /* \"#utility.yul\":5302:5306   */\n  0x7f\n    /* \"#utility.yul\":5294:5300   */\n  dup3\n    /* \"#utility.yul\":5290:5307   */\n  and\n    /* \"#utility.yul\":5280:5307   */\n  swap2\n  pop\n    /* \"#utility.yul\":5236:5317   */\ntag_101:\n    /* \"#utility.yul\":5364:5366   */\n  0x20\n    /* \"#utility.yul\":5356:5362   */\n  dup3\n    /* \"#utility.yul\":5353:5367   */\n  lt\n    /* \"#utility.yul\":5333:5351   */\n  dup2\n    /* \"#utility.yul\":5330:5368   */\n  sub\n    /* \"#utility.yul\":5327:5411   */\n  tag_102\n  jumpi\n    /* \"#utility.yul\":5383:5401   */\n  tag_103\n  tag_40\n  jump\t// in\ntag_103:\n    /* \"#utility.yul\":5327:5411   */\ntag_102:\n    /* \"#utility.yul\":5148:5417   */\n  pop\n    /* \"#utility.yul\":5097:5417   */\n  swap2\n  swap1\n  pop\n  jump\t// out\n    /* \"Ballot.sol\":722:4164  contract Ballot{... */\ntag_11:\n  dataSize(sub_0)\n  dup1\n  dataOffset(sub_0)\n  0x00\n  codecopy\n  0x00\n  return\nstop\n\nsub_0: assembly {\n        /* \"Ballot.sol\":722:4164  contract Ballot{... */\n      mstore(0x40, 0x80)\n      jumpi(tag_1, lt(calldatasize, 0x04))\n      shr(0xe0, calldataload(0x00))\n      dup1\n      0x7284e416\n      gt\n      tag_16\n      jumpi\n      dup1\n      0x9c3bfcf6\n      gt\n      tag_17\n      jumpi\n      dup1\n      0x9c3bfcf6\n      eq\n      tag_12\n      jumpi\n      dup1\n      0xb8a7a3ab\n      eq\n      tag_13\n      jumpi\n      dup1\n      0xf9094303\n      eq\n      tag_14\n      jumpi\n      dup1\n      0xfb7e92e0\n      eq\n      tag_15\n      jumpi\n      jump(tag_1)\n    tag_17:\n      dup1\n      0x7284e416\n      eq\n      tag_9\n      jumpi\n      dup1\n      0x789d9e8a\n      eq\n      tag_10\n      jumpi\n      dup1\n      0x83d948b7\n      eq\n      tag_11\n      jumpi\n      jump(tag_1)\n    tag_16:\n      dup1\n      0x35c1d349\n      gt\n      tag_18\n      jumpi\n      dup1\n      0x35c1d349\n      eq\n      tag_5\n      jumpi\n      dup1\n      0x481c6a75\n      eq\n      tag_6\n      jumpi\n      dup1\n      0x4901d7ae\n      eq\n      tag_7\n      jumpi\n      dup1\n      0x5aa68ac0\n      eq\n      tag_8\n      jumpi\n      jump(tag_1)\n    tag_18:\n      dup1\n      0x16d8cb70\n      eq\n      tag_2\n      jumpi\n      dup1\n      0x1b26586c\n      eq\n      tag_3\n      jumpi\n      dup1\n      0x1ec6b60a\n      eq\n      tag_4\n      jumpi\n    tag_1:\n      0x00\n      dup1\n      revert\n        /* \"Ballot.sol\":1497:1527  uint256 public totalNoOfVoters */\n    tag_2:\n      callvalue\n      dup1\n      iszero\n      tag_19\n      jumpi\n      0x00\n      dup1\n      revert\n    tag_19:\n      pop\n      tag_20\n      tag_21\n      jump\t// in\n    tag_20:\n      mload(0x40)\n      tag_22\n      swap2\n      swap1\n      tag_23\n      jump\t// in\n    tag_22:\n      mload(0x40)\n      dup1\n      swap2\n      sub\n      swap1\n      return\n        /* \"Ballot.sol\":769:793  string public ballotName */\n    tag_3:\n      callvalue\n      dup1\n      iszero\n      tag_24\n      jumpi\n      0x00\n      dup1\n      revert\n    tag_24:\n      pop\n      tag_25\n      tag_26\n      jump\t// in\n    tag_25:\n      mload(0x40)\n      tag_27\n      swap2\n      swap1\n      tag_28\n      jump\t// in\n    tag_27:\n      mload(0x40)\n      dup1\n      swap2\n      sub\n      swap1\n      return\n        /* \"Ballot.sol\":3958:4038  function startVoting() public onlyManager{... */\n    tag_4:\n      callvalue\n      dup1\n      iszero\n      tag_29\n      jumpi\n      0x00\n      dup1\n      revert\n    tag_29:\n      pop\n      tag_30\n      tag_31\n      jump\t// in\n    tag_30:\n      stop\n        /* \"Ballot.sol\":1434:1462  Person[] public participants */\n    tag_5:\n      callvalue\n      dup1\n      iszero\n      tag_32\n      jumpi\n      0x00\n      dup1\n      revert\n    tag_32:\n      pop\n      tag_33\n      0x04\n      dup1\n      calldatasize\n      sub\n      dup2\n      add\n      swap1\n      tag_34\n      swap2\n      swap1\n      tag_35\n      jump\t// in\n    tag_34:\n      tag_36\n      jump\t// in\n    tag_33:\n      mload(0x40)\n      tag_37\n      swap5\n      swap4\n      swap3\n      swap2\n      swap1\n      tag_38\n      jump\t// in\n    tag_37:\n      mload(0x40)\n      dup1\n      swap2\n      sub\n      swap1\n      return\n        /* \"Ballot.sol\":1330:1351  Person public manager */\n    tag_6:\n      callvalue\n      dup1\n      iszero\n      tag_39\n      jumpi\n      0x00\n      dup1\n      revert\n    tag_39:\n      pop\n      tag_40\n      tag_41\n      jump\t// in\n    tag_40:\n      mload(0x40)\n      tag_42\n      swap5\n      swap4\n      swap3\n      swap2\n      swap1\n      tag_38\n      jump\t// in\n    tag_42:\n      mload(0x40)\n      dup1\n      swap2\n      sub\n      swap1\n      return\n        /* \"Ballot.sol\":2432:2762  function addParticipant(string memory name ,address id , string memory image) public payable onlyManager{... */\n    tag_7:\n      tag_43\n      0x04\n      dup1\n      calldatasize\n      sub\n      dup2\n      add\n      swap1\n      tag_44\n      swap2\n      swap1\n      tag_45\n      jump\t// in\n    tag_44:\n      tag_46\n      jump\t// in\n    tag_43:\n      stop\n        /* \"Ballot.sol\":2907:3007  function getParticipants()public view returns(Person[] memory){... */\n    tag_8:\n      callvalue\n      dup1\n      iszero\n      tag_47\n      jumpi\n      0x00\n      dup1\n      revert\n    tag_47:\n      pop\n      tag_48\n      tag_49\n      jump\t// in\n    tag_48:\n      mload(0x40)\n      tag_50\n      swap2\n      swap1\n      tag_51\n      jump\t// in\n    tag_50:\n      mload(0x40)\n      dup1\n      swap2\n      sub\n      swap1\n      return\n        /* \"Ballot.sol\":800:825  string public description */\n    tag_9:\n      callvalue\n      dup1\n      iszero\n      tag_52\n      jumpi\n      0x00\n      dup1\n      revert\n    tag_52:\n      pop\n      tag_53\n      tag_54\n      jump\t// in\n    tag_53:\n      mload(0x40)\n      tag_55\n      swap2\n      swap1\n      tag_28\n      jump\t// in\n    tag_55:\n      mload(0x40)\n      dup1\n      swap2\n      sub\n      swap1\n      return\n        /* \"Ballot.sol\":954:988  bool public votingFinished = false */\n    tag_10:\n      callvalue\n      dup1\n      iszero\n      tag_56\n      jumpi\n      0x00\n      dup1\n      revert\n    tag_56:\n      pop\n      tag_57\n      tag_58\n      jump\t// in\n    tag_57:\n      mload(0x40)\n      tag_59\n      swap2\n      swap1\n      tag_60\n      jump\t// in\n    tag_59:\n      mload(0x40)\n      dup1\n      swap2\n      sub\n      swap1\n      return\n        /* \"Ballot.sol\":883:916  bool public votingStarted = false */\n    tag_11:\n      callvalue\n      dup1\n      iszero\n      tag_61\n      jumpi\n      0x00\n      dup1\n      revert\n    tag_61:\n      pop\n      tag_62\n      tag_63\n      jump\t// in\n    tag_62:\n      mload(0x40)\n      tag_64\n      swap2\n      swap1\n      tag_60\n      jump\t// in\n    tag_64:\n      mload(0x40)\n      dup1\n      swap2\n      sub\n      swap1\n      return\n        /* \"Ballot.sol\":3053:3915  function vote(string memory name ,address participant , string memory aadhar) public payable canVote{... */\n    tag_12:\n      tag_65\n      0x04\n      dup1\n      calldatasize\n      sub\n      dup2\n      add\n      swap1\n      tag_66\n      swap2\n      swap1\n      tag_45\n      jump\t// in\n    tag_66:\n      tag_67\n      jump\t// in\n    tag_65:\n      stop\n        /* \"Ballot.sol\":1611:1662  mapping(string => bool) public votedPeoplesAadharId */\n    tag_13:\n      callvalue\n      dup1\n      iszero\n      tag_68\n      jumpi\n      0x00\n      dup1\n      revert\n    tag_68:\n      pop\n      tag_69\n      0x04\n      dup1\n      calldatasize\n      sub\n      dup2\n      add\n      swap1\n      tag_70\n      swap2\n      swap1\n      tag_71\n      jump\t// in\n    tag_70:\n      tag_72\n      jump\t// in\n    tag_69:\n      mload(0x40)\n      tag_73\n      swap2\n      swap1\n      tag_60\n      jump\t// in\n    tag_73:\n      mload(0x40)\n      dup1\n      swap2\n      sub\n      swap1\n      return\n        /* \"Ballot.sol\":4079:4161  function finishVoting() public onlyManager{... */\n    tag_14:\n      callvalue\n      dup1\n      iszero\n      tag_74\n      jumpi\n      0x00\n      dup1\n      revert\n    tag_74:\n      pop\n      tag_75\n      tag_76\n      jump\t// in\n    tag_75:\n      stop\n        /* \"Ballot.sol\":1702:1753  mapping(string => bool) public votedPeoplesWalletId */\n    tag_15:\n      callvalue\n      dup1\n      iszero\n      tag_77\n      jumpi\n      0x00\n      dup1\n      revert\n    tag_77:\n      pop\n      tag_78\n      0x04\n      dup1\n      calldatasize\n      sub\n      dup2\n      add\n      swap1\n      tag_79\n      swap2\n      swap1\n      tag_71\n      jump\t// in\n    tag_79:\n      tag_80\n      jump\t// in\n    tag_78:\n      mload(0x40)\n      tag_81\n      swap2\n      swap1\n      tag_60\n      jump\t// in\n    tag_81:\n      mload(0x40)\n      dup1\n      swap2\n      sub\n      swap1\n      return\n        /* \"Ballot.sol\":1497:1527  uint256 public totalNoOfVoters */\n    tag_21:\n      sload(0x09)\n      dup2\n      jump\t// out\n        /* \"Ballot.sol\":769:793  string public ballotName */\n    tag_26:\n      0x00\n      dup1\n      sload\n      tag_82\n      swap1\n      tag_83\n      jump\t// in\n    tag_82:\n      dup1\n      0x1f\n      add\n      0x20\n      dup1\n      swap2\n      div\n      mul\n      0x20\n      add\n      mload(0x40)\n      swap1\n      dup2\n      add\n      0x40\n      mstore\n      dup1\n      swap3\n      swap2\n      swap1\n      dup2\n      dup2\n      mstore\n      0x20\n      add\n      dup3\n      dup1\n      sload\n      tag_84\n      swap1\n      tag_83\n      jump\t// in\n    tag_84:\n      dup1\n      iszero\n      tag_85\n      jumpi\n      dup1\n      0x1f\n      lt\n      tag_86\n      jumpi\n      0x0100\n      dup1\n      dup4\n      sload\n      div\n      mul\n      dup4\n      mstore\n      swap2\n      0x20\n      add\n      swap2\n      jump(tag_85)\n    tag_86:\n      dup3\n      add\n      swap2\n      swap1\n      0x00\n      mstore\n      keccak256(0x00, 0x20)\n      swap1\n    tag_87:\n      dup2\n      sload\n      dup2\n      mstore\n      swap1\n      0x01\n      add\n      swap1\n      0x20\n      add\n      dup1\n      dup4\n      gt\n      tag_87\n      jumpi\n      dup3\n      swap1\n      sub\n      0x1f\n      and\n      dup3\n      add\n      swap2\n    tag_85:\n      pop\n      pop\n      pop\n      pop\n      pop\n      dup2\n      jump\t// out\n        /* \"Ballot.sol\":3958:4038  function startVoting() public onlyManager{... */\n    tag_31:\n        /* \"Ballot.sol\":2194:2201  manager */\n      0x03\n        /* \"Ballot.sol\":2194:2204  manager.id */\n      0x01\n      add\n      0x00\n      swap1\n      sload\n      swap1\n      0x0100\n      exp\n      swap1\n      div\n      0xffffffffffffffffffffffffffffffffffffffff\n      and\n        /* \"Ballot.sol\":2180:2204  msg.sender == manager.id */\n      0xffffffffffffffffffffffffffffffffffffffff\n      and\n        /* \"Ballot.sol\":2180:2190  msg.sender */\n      caller\n        /* \"Ballot.sol\":2180:2204  msg.sender == manager.id */\n      0xffffffffffffffffffffffffffffffffffffffff\n      and\n      eq\n        /* \"Ballot.sol\":2172:2238  require(msg.sender == manager.id, \"Only manager can change this!\") */\n      tag_89\n      jumpi\n      mload(0x40)\n      0x08c379a000000000000000000000000000000000000000000000000000000000\n      dup2\n      mstore\n      0x04\n      add\n      tag_90\n      swap1\n      tag_91\n      jump\t// in\n    tag_90:\n      mload(0x40)\n      dup1\n      swap2\n      sub\n      swap1\n      revert\n    tag_89:\n        /* \"Ballot.sol\":4026:4030  true */\n      0x01\n        /* \"Ballot.sol\":4010:4023  votingStarted */\n      0x02\n      0x00\n        /* \"Ballot.sol\":4010:4030  votingStarted = true */\n      0x0100\n      exp\n      dup2\n      sload\n      dup2\n      0xff\n      mul\n      not\n      and\n      swap1\n      dup4\n      iszero\n      iszero\n      mul\n      or\n      swap1\n      sstore\n      pop\n        /* \"Ballot.sol\":3958:4038  function startVoting() public onlyManager{... */\n      jump\t// out\n        /* \"Ballot.sol\":1434:1462  Person[] public participants */\n    tag_36:\n      0x08\n      dup2\n      dup2\n      sload\n      dup2\n      lt\n      tag_93\n      jumpi\n      0x00\n      dup1\n      revert\n    tag_93:\n      swap1\n      0x00\n      mstore\n      keccak256(0x00, 0x20)\n      swap1\n      0x04\n      mul\n      add\n      0x00\n      swap2\n      pop\n      swap1\n      pop\n      dup1\n      0x00\n      add\n      dup1\n      sload\n      tag_95\n      swap1\n      tag_83\n      jump\t// in\n    tag_95:\n      dup1\n      0x1f\n      add\n      0x20\n      dup1\n      swap2\n      div\n      mul\n      0x20\n      add\n      mload(0x40)\n      swap1\n      dup2\n      add\n      0x40\n      mstore\n      dup1\n      swap3\n      swap2\n      swap1\n      dup2\n      dup2\n      mstore\n      0x20\n      add\n      dup3\n      dup1\n      sload\n      tag_96\n      swap1\n      tag_83\n      jump\t// in\n    tag_96:\n      dup1\n      iszero\n      tag_97\n      jumpi\n      dup1\n      0x1f\n      lt\n      tag_98\n      jumpi\n      0x0100\n      dup1\n      dup4\n      sload\n      div\n      mul\n      dup4\n      mstore\n      swap2\n      0x20\n      add\n      swap2\n      jump(tag_97)\n    tag_98:\n      dup3\n      add\n      swap2\n      swap1\n      0x00\n      mstore\n      keccak256(0x00, 0x20)\n      swap1\n    tag_99:\n      dup2\n      sload\n      dup2\n      mstore\n      swap1\n      0x01\n      add\n      swap1\n      0x20\n      add\n      dup1\n      dup4\n      gt\n      tag_99\n      jumpi\n      dup3\n      swap1\n      sub\n      0x1f\n      and\n      dup3\n      add\n      swap2\n    tag_97:\n      pop\n      pop\n      pop\n      pop\n      pop\n      swap1\n      dup1\n      0x01\n      add\n      0x00\n      swap1\n      sload\n      swap1\n      0x0100\n      exp\n      swap1\n      div\n      0xffffffffffffffffffffffffffffffffffffffff\n      and\n      swap1\n      dup1\n      0x02\n      add\n      dup1\n      sload\n      tag_100\n      swap1\n      tag_83\n      jump\t// in\n    tag_100:\n      dup1\n      0x1f\n      add\n      0x20\n      dup1\n      swap2\n      div\n      mul\n      0x20\n      add\n      mload(0x40)\n      swap1\n      dup2\n      add\n      0x40\n      mstore\n      dup1\n      swap3\n      swap2\n      swap1\n      dup2\n      dup2\n      mstore\n      0x20\n      add\n      dup3\n      dup1\n      sload\n      tag_101\n      swap1\n      tag_83\n      jump\t// in\n    tag_101:\n      dup1\n      iszero\n      tag_102\n      jumpi\n      dup1\n      0x1f\n      lt\n      tag_103\n      jumpi\n      0x0100\n      dup1\n      dup4\n      sload\n      div\n      mul\n      dup4\n      mstore\n      swap2\n      0x20\n      add\n      swap2\n      jump(tag_102)\n    tag_103:\n      dup3\n      add\n      swap2\n      swap1\n      0x00\n      mstore\n      keccak256(0x00, 0x20)\n      swap1\n    tag_104:\n      dup2\n      sload\n      dup2\n      mstore\n      swap1\n      0x01\n      add\n      swap1\n      0x20\n      add\n      dup1\n      dup4\n      gt\n      tag_104\n      jumpi\n      dup3\n      swap1\n      sub\n      0x1f\n      and\n      dup3\n      add\n      swap2\n    tag_102:\n      pop\n      pop\n      pop\n      pop\n      pop\n      swap1\n      dup1\n      0x03\n      add\n      sload\n      swap1\n      pop\n      dup5\n      jump\t// out\n        /* \"Ballot.sol\":1330:1351  Person public manager */\n    tag_41:\n      0x03\n      dup1\n      0x00\n      add\n      dup1\n      sload\n      tag_105\n      swap1\n      tag_83\n      jump\t// in\n    tag_105:\n      dup1\n      0x1f\n      add\n      0x20\n      dup1\n      swap2\n      div\n      mul\n      0x20\n      add\n      mload(0x40)\n      swap1\n      dup2\n      add\n      0x40\n      mstore\n      dup1\n      swap3\n      swap2\n      swap1\n      dup2\n      dup2\n      mstore\n      0x20\n      add\n      dup3\n      dup1\n      sload\n      tag_106\n      swap1\n      tag_83\n      jump\t// in\n    tag_106:\n      dup1\n      iszero\n      tag_107\n      jumpi\n      dup1\n      0x1f\n      lt\n      tag_108\n      jumpi\n      0x0100\n      dup1\n      dup4\n      sload\n      div\n      mul\n      dup4\n      mstore\n      swap2\n      0x20\n      add\n      swap2\n      jump(tag_107)\n    tag_108:\n      dup3\n      add\n      swap2\n      swap1\n      0x00\n      mstore\n      keccak256(0x00, 0x20)\n      swap1\n    tag_109:\n      dup2\n      sload\n      dup2\n      mstore\n      swap1\n      0x01\n      add\n      swap1\n      0x20\n      add\n      dup1\n      dup4\n      gt\n      tag_109\n      jumpi\n      dup3\n      swap1\n      sub\n      0x1f\n      and\n      dup3\n      add\n      swap2\n    tag_107:\n      pop\n      pop\n      pop\n      pop\n      pop\n      swap1\n      dup1\n      0x01\n      add\n      0x00\n      swap1\n      sload\n      swap1\n      0x0100\n      exp\n      swap1\n      div\n      0xffffffffffffffffffffffffffffffffffffffff\n      and\n      swap1\n      dup1\n      0x02\n      add\n      dup1\n      sload\n      tag_110\n      swap1\n      tag_83\n      jump\t// in\n    tag_110:\n      dup1\n      0x1f\n      add\n      0x20\n      dup1\n      swap2\n      div\n      mul\n      0x20\n      add\n      mload(0x40)\n      swap1\n      dup2\n      add\n      0x40\n      mstore\n      dup1\n      swap3\n      swap2\n      swap1\n      dup2\n      dup2\n      mstore\n      0x20\n      add\n      dup3\n      dup1\n      sload\n      tag_111\n      swap1\n      tag_83\n      jump\t// in\n    tag_111:\n      dup1\n      iszero\n      tag_112\n      jumpi\n      dup1\n      0x1f\n      lt\n      tag_113\n      jumpi\n      0x0100\n      dup1\n      dup4\n      sload\n      div\n      mul\n      dup4\n      mstore\n      swap2\n      0x20\n      add\n      swap2\n      jump(tag_112)\n    tag_113:\n      dup3\n      add\n      swap2\n      swap1\n      0x00\n      mstore\n      keccak256(0x00, 0x20)\n      swap1\n    tag_114:\n      dup2\n      sload\n      dup2\n      mstore\n      swap1\n      0x01\n      add\n      swap1\n      0x20\n      add\n      dup1\n      dup4\n      gt\n      tag_114\n      jumpi\n      dup3\n      swap1\n      sub\n      0x1f\n      and\n      dup3\n      add\n      swap2\n    tag_112:\n      pop\n      pop\n      pop\n      pop\n      pop\n      swap1\n      dup1\n      0x03\n      add\n      sload\n      swap1\n      pop\n      dup5\n      jump\t// out\n        /* \"Ballot.sol\":2432:2762  function addParticipant(string memory name ,address id , string memory image) public payable onlyManager{... */\n    tag_46:\n        /* \"Ballot.sol\":2194:2201  manager */\n      0x03\n        /* \"Ballot.sol\":2194:2204  manager.id */\n      0x01\n      add\n      0x00\n      swap1\n      sload\n      swap1\n      0x0100\n      exp\n      swap1\n      div\n      0xffffffffffffffffffffffffffffffffffffffff\n      and\n        /* \"Ballot.sol\":2180:2204  msg.sender == manager.id */\n      0xffffffffffffffffffffffffffffffffffffffff\n      and\n        /* \"Ballot.sol\":2180:2190  msg.sender */\n      caller\n        /* \"Ballot.sol\":2180:2204  msg.sender == manager.id */\n      0xffffffffffffffffffffffffffffffffffffffff\n      and\n      eq\n        /* \"Ballot.sol\":2172:2238  require(msg.sender == manager.id, \"Only manager can change this!\") */\n      tag_116\n      jumpi\n      mload(0x40)\n      0x08c379a000000000000000000000000000000000000000000000000000000000\n      dup2\n      mstore\n      0x04\n      add\n      tag_117\n      swap1\n      tag_91\n      jump\t// in\n    tag_117:\n      mload(0x40)\n      dup1\n      swap2\n      sub\n      swap1\n      revert\n    tag_116:\n        /* \"Ballot.sol\":2567:2577  0.01 ether */\n      0x2386f26fc10000\n        /* \"Ballot.sol\":2555:2564  msg.value */\n      callvalue\n        /* \"Ballot.sol\":2555:2577  msg.value > 0.01 ether */\n      gt\n        /* \"Ballot.sol\":2547:2578  require(msg.value > 0.01 ether) */\n      tag_119\n      jumpi\n      0x00\n      dup1\n      revert\n    tag_119:\n        /* \"Ballot.sol\":2589:2604  Person memory r */\n      tag_120\n      tag_121\n      jump\t// in\n    tag_120:\n        /* \"Ballot.sol\":2625:2629  name */\n      dup4\n        /* \"Ballot.sol\":2616:2617  r */\n      dup2\n        /* \"Ballot.sol\":2616:2622  r.name */\n      0x00\n      add\n        /* \"Ballot.sol\":2616:2629  r.name = name */\n      dup2\n      swap1\n      mstore\n      pop\n        /* \"Ballot.sol\":2647:2649  id */\n      dup3\n        /* \"Ballot.sol\":2640:2641  r */\n      dup2\n        /* \"Ballot.sol\":2640:2644  r.id */\n      0x20\n      add\n        /* \"Ballot.sol\":2640:2649  r.id = id */\n      swap1\n      0xffffffffffffffffffffffffffffffffffffffff\n      and\n      swap1\n      dup2\n      0xffffffffffffffffffffffffffffffffffffffff\n      and\n      dup2\n      mstore\n      pop\n      pop\n        /* \"Ballot.sol\":2670:2675  image */\n      dup2\n        /* \"Ballot.sol\":2660:2661  r */\n      dup2\n        /* \"Ballot.sol\":2660:2667  r.image */\n      0x40\n      add\n        /* \"Ballot.sol\":2660:2675  r.image = image */\n      dup2\n      swap1\n      mstore\n      pop\n        /* \"Ballot.sol\":2694:2695  0 */\n      0x00\n        /* \"Ballot.sol\":2686:2687  r */\n      dup2\n        /* \"Ballot.sol\":2686:2693  r.votes */\n      0x60\n      add\n        /* \"Ballot.sol\":2686:2695  r.votes=0 */\n      dup2\n      dup2\n      mstore\n      pop\n      pop\n        /* \"Ballot.sol\":2706:2718  participants */\n      0x08\n        /* \"Ballot.sol\":2724:2725  r */\n      dup2\n        /* \"Ballot.sol\":2706:2726  participants.push(r) */\n      swap1\n      dup1\n      0x01\n      dup2\n      sload\n      add\n      dup1\n      dup3\n      sstore\n      dup1\n      swap2\n      pop\n      pop\n      0x01\n      swap1\n      sub\n      swap1\n      0x00\n      mstore\n      keccak256(0x00, 0x20)\n      swap1\n      0x04\n      mul\n      add\n      0x00\n      swap1\n      swap2\n      swap1\n      swap2\n      swap1\n      swap2\n      pop\n      0x00\n      dup3\n      add\n      mload\n      dup2\n      0x00\n      add\n      swap1\n      dup1\n      mload\n      swap1\n      0x20\n      add\n      swap1\n      tag_123\n      swap3\n      swap2\n      swap1\n      tag_124\n      jump\t// in\n    tag_123:\n      pop\n      0x20\n      dup3\n      add\n      mload\n      dup2\n      0x01\n      add\n      exp(0x0100, 0x00)\n      dup2\n      sload\n      dup2\n      0xffffffffffffffffffffffffffffffffffffffff\n      mul\n      not\n      and\n      swap1\n      dup4\n      0xffffffffffffffffffffffffffffffffffffffff\n      and\n      mul\n      or\n      swap1\n      sstore\n      pop\n      0x40\n      dup3\n      add\n      mload\n      dup2\n      0x02\n      add\n      swap1\n      dup1\n      mload\n      swap1\n      0x20\n      add\n      swap1\n      tag_125\n      swap3\n      swap2\n      swap1\n      tag_124\n      jump\t// in\n    tag_125:\n      pop\n      0x60\n      dup3\n      add\n      mload\n      dup2\n      0x03\n      add\n      sstore\n      pop\n      pop\n        /* \"Ballot.sol\":2737:2752  numParticipants */\n      0x07\n      0x00\n        /* \"Ballot.sol\":2737:2754  numParticipants++ */\n      dup2\n      sload\n      dup1\n      swap3\n      swap2\n      swap1\n      tag_126\n      swap1\n      tag_127\n      jump\t// in\n    tag_126:\n      swap2\n      swap1\n      pop\n      sstore\n      pop\n        /* \"Ballot.sol\":2536:2762  {... */\n      pop\n        /* \"Ballot.sol\":2432:2762  function addParticipant(string memory name ,address id , string memory image) public payable onlyManager{... */\n      pop\n      pop\n      pop\n      jump\t// out\n        /* \"Ballot.sol\":2907:3007  function getParticipants()public view returns(Person[] memory){... */\n    tag_49:\n        /* \"Ballot.sol\":2953:2968  Person[] memory */\n      0x60\n        /* \"Ballot.sol\":2987:2999  participants */\n      0x08\n        /* \"Ballot.sol\":2980:2999  return participants */\n      dup1\n      sload\n      dup1\n      0x20\n      mul\n      0x20\n      add\n      mload(0x40)\n      swap1\n      dup2\n      add\n      0x40\n      mstore\n      dup1\n      swap3\n      swap2\n      swap1\n      dup2\n      dup2\n      mstore\n      0x20\n      add\n      0x00\n      swap1\n    tag_129:\n      dup3\n      dup3\n      lt\n      iszero\n      tag_130\n      jumpi\n      dup4\n      dup3\n      swap1\n      0x00\n      mstore\n      keccak256(0x00, 0x20)\n      swap1\n      0x04\n      mul\n      add\n      mload(0x40)\n      dup1\n      0x80\n      add\n      0x40\n      mstore\n      swap1\n      dup2\n      0x00\n      dup3\n      add\n      dup1\n      sload\n      tag_132\n      swap1\n      tag_83\n      jump\t// in\n    tag_132:\n      dup1\n      0x1f\n      add\n      0x20\n      dup1\n      swap2\n      div\n      mul\n      0x20\n      add\n      mload(0x40)\n      swap1\n      dup2\n      add\n      0x40\n      mstore\n      dup1\n      swap3\n      swap2\n      swap1\n      dup2\n      dup2\n      mstore\n      0x20\n      add\n      dup3\n      dup1\n      sload\n      tag_133\n      swap1\n      tag_83\n      jump\t// in\n    tag_133:\n      dup1\n      iszero\n      tag_134\n      jumpi\n      dup1\n      0x1f\n      lt\n      tag_135\n      jumpi\n      0x0100\n      dup1\n      dup4\n      sload\n      div\n      mul\n      dup4\n      mstore\n      swap2\n      0x20\n      add\n      swap2\n      jump(tag_134)\n    tag_135:\n      dup3\n      add\n      swap2\n      swap1\n      0x00\n      mstore\n      keccak256(0x00, 0x20)\n      swap1\n    tag_136:\n      dup2\n      sload\n      dup2\n      mstore\n      swap1\n      0x01\n      add\n      swap1\n      0x20\n      add\n      dup1\n      dup4\n      gt\n      tag_136\n      jumpi\n      dup3\n      swap1\n      sub\n      0x1f\n      and\n      dup3\n      add\n      swap2\n    tag_134:\n      pop\n      pop\n      pop\n      pop\n      pop\n      dup2\n      mstore\n      0x20\n      add\n      0x01\n      dup3\n      add\n      0x00\n      swap1\n      sload\n      swap1\n      0x0100\n      exp\n      swap1\n      div\n      0xffffffffffffffffffffffffffffffffffffffff\n      and\n      0xffffffffffffffffffffffffffffffffffffffff\n      and\n      0xffffffffffffffffffffffffffffffffffffffff\n      and\n      dup2\n      mstore\n      0x20\n      add\n      0x02\n      dup3\n      add\n      dup1\n      sload\n      tag_137\n      swap1\n      tag_83\n      jump\t// in\n    tag_137:\n      dup1\n      0x1f\n      add\n      0x20\n      dup1\n      swap2\n      div\n      mul\n      0x20\n      add\n      mload(0x40)\n      swap1\n      dup2\n      add\n      0x40\n      mstore\n      dup1\n      swap3\n      swap2\n      swap1\n      dup2\n      dup2\n      mstore\n      0x20\n      add\n      dup3\n      dup1\n      sload\n      tag_138\n      swap1\n      tag_83\n      jump\t// in\n    tag_138:\n      dup1\n      iszero\n      tag_139\n      jumpi\n      dup1\n      0x1f\n      lt\n      tag_140\n      jumpi\n      0x0100\n      dup1\n      dup4\n      sload\n      div\n      mul\n      dup4\n      mstore\n      swap2\n      0x20\n      add\n      swap2\n      jump(tag_139)\n    tag_140:\n      dup3\n      add\n      swap2\n      swap1\n      0x00\n      mstore\n      keccak256(0x00, 0x20)\n      swap1\n    tag_141:\n      dup2\n      sload\n      dup2\n      mstore\n      swap1\n      0x01\n      add\n      swap1\n      0x20\n      add\n      dup1\n      dup4\n      gt\n      tag_141\n      jumpi\n      dup3\n      swap1\n      sub\n      0x1f\n      and\n      dup3\n      add\n      swap2\n    tag_139:\n      pop\n      pop\n      pop\n      pop\n      pop\n      dup2\n      mstore\n      0x20\n      add\n      0x03\n      dup3\n      add\n      sload\n      dup2\n      mstore\n      pop\n      pop\n      dup2\n      mstore\n      0x20\n      add\n      swap1\n      0x01\n      add\n      swap1\n      jump(tag_129)\n    tag_130:\n      pop\n      pop\n      pop\n      pop\n      swap1\n      pop\n        /* \"Ballot.sol\":2907:3007  function getParticipants()public view returns(Person[] memory){... */\n      swap1\n      jump\t// out\n        /* \"Ballot.sol\":800:825  string public description */\n    tag_54:\n      0x01\n      dup1\n      sload\n      tag_142\n      swap1\n      tag_83\n      jump\t// in\n    tag_142:\n      dup1\n      0x1f\n      add\n      0x20\n      dup1\n      swap2\n      div\n      mul\n      0x20\n      add\n      mload(0x40)\n      swap1\n      dup2\n      add\n      0x40\n      mstore\n      dup1\n      swap3\n      swap2\n      swap1\n      dup2\n      dup2\n      mstore\n      0x20\n      add\n      dup3\n      dup1\n      sload\n      tag_143\n      swap1\n      tag_83\n      jump\t// in\n    tag_143:\n      dup1\n      iszero\n      tag_144\n      jumpi\n      dup1\n      0x1f\n      lt\n      tag_145\n      jumpi\n      0x0100\n      dup1\n      dup4\n      sload\n      div\n      mul\n      dup4\n      mstore\n      swap2\n      0x20\n      add\n      swap2\n      jump(tag_144)\n    tag_145:\n      dup3\n      add\n      swap2\n      swap1\n      0x00\n      mstore\n      keccak256(0x00, 0x20)\n      swap1\n    tag_146:\n      dup2\n      sload\n      dup2\n      mstore\n      swap1\n      0x01\n      add\n      swap1\n      0x20\n      add\n      dup1\n      dup4\n      gt\n      tag_146\n      jumpi\n      dup3\n      swap1\n      sub\n      0x1f\n      and\n      dup3\n      add\n      swap2\n    tag_144:\n      pop\n      pop\n      pop\n      pop\n      pop\n      dup2\n      jump\t// out\n        /* \"Ballot.sol\":954:988  bool public votingFinished = false */\n    tag_58:\n      0x02\n      0x01\n      swap1\n      sload\n      swap1\n      0x0100\n      exp\n      swap1\n      div\n      0xff\n      and\n      dup2\n      jump\t// out\n        /* \"Ballot.sol\":883:916  bool public votingStarted = false */\n    tag_63:\n      0x02\n      0x00\n      swap1\n      sload\n      swap1\n      0x0100\n      exp\n      swap1\n      div\n      0xff\n      and\n      dup2\n      jump\t// out\n        /* \"Ballot.sol\":3053:3915  function vote(string memory name ,address participant , string memory aadhar) public payable canVote{... */\n    tag_67:\n        /* \"Ballot.sol\":2303:2316  votingStarted */\n      0x02\n      0x00\n      swap1\n      sload\n      swap1\n      0x0100\n      exp\n      swap1\n      div\n      0xff\n      and\n        /* \"Ballot.sol\":2303:2335  votingStarted && !votingFinished */\n      dup1\n      iszero\n      tag_148\n      jumpi\n      pop\n        /* \"Ballot.sol\":2321:2335  votingFinished */\n      0x02\n      0x01\n      swap1\n      sload\n      swap1\n      0x0100\n      exp\n      swap1\n      div\n      0xff\n      and\n        /* \"Ballot.sol\":2320:2335  !votingFinished */\n      iszero\n        /* \"Ballot.sol\":2303:2335  votingStarted && !votingFinished */\n    tag_148:\n        /* \"Ballot.sol\":2295:2364  require(votingStarted && !votingFinished , \"Voting not started Yet!\") */\n      tag_149\n      jumpi\n      mload(0x40)\n      0x08c379a000000000000000000000000000000000000000000000000000000000\n      dup2\n      mstore\n      0x04\n      add\n      tag_150\n      swap1\n      tag_151\n      jump\t// in\n    tag_150:\n      mload(0x40)\n      dup1\n      swap2\n      sub\n      swap1\n      revert\n    tag_149:\n        /* \"Ballot.sol\":3173:3193  votedPeoplesAadharId */\n      0x0b\n        /* \"Ballot.sol\":3194:3200  aadhar */\n      dup2\n        /* \"Ballot.sol\":3173:3201  votedPeoplesAadharId[aadhar] */\n      mload(0x40)\n      tag_153\n      swap2\n      swap1\n      tag_154\n      jump\t// in\n    tag_153:\n      swap1\n      dup2\n      mstore\n      0x20\n      add\n      mload(0x40)\n      dup1\n      swap2\n      sub\n      swap1\n      keccak256\n      0x00\n      swap1\n      sload\n      swap1\n      0x0100\n      exp\n      swap1\n      div\n      0xff\n      and\n        /* \"Ballot.sol\":3172:3201  !votedPeoplesAadharId[aadhar] */\n      iszero\n        /* \"Ballot.sol\":3164:3231  require(!votedPeoplesAadharId[aadhar]  , \"You have already Voted!\") */\n      tag_155\n      jumpi\n      mload(0x40)\n      0x08c379a000000000000000000000000000000000000000000000000000000000\n      dup2\n      mstore\n      0x04\n      add\n      tag_156\n      swap1\n      tag_157\n      jump\t// in\n    tag_156:\n      mload(0x40)\n      dup1\n      swap2\n      sub\n      swap1\n      revert\n    tag_155:\n        /* \"Ballot.sol\":3251:3271  votedPeoplesWalletId */\n      0x0c\n        /* \"Ballot.sol\":3272:3278  aadhar */\n      dup2\n        /* \"Ballot.sol\":3251:3279  votedPeoplesWalletId[aadhar] */\n      mload(0x40)\n      tag_158\n      swap2\n      swap1\n      tag_154\n      jump\t// in\n    tag_158:\n      swap1\n      dup2\n      mstore\n      0x20\n      add\n      mload(0x40)\n      dup1\n      swap2\n      sub\n      swap1\n      keccak256\n      0x00\n      swap1\n      sload\n      swap1\n      0x0100\n      exp\n      swap1\n      div\n      0xff\n      and\n        /* \"Ballot.sol\":3250:3279  !votedPeoplesWalletId[aadhar] */\n      iszero\n        /* \"Ballot.sol\":3242:3309  require(!votedPeoplesWalletId[aadhar]  , \"You have already Voted!\") */\n      tag_159\n      jumpi\n      mload(0x40)\n      0x08c379a000000000000000000000000000000000000000000000000000000000\n      dup2\n      mstore\n      0x04\n      add\n      tag_160\n      swap1\n      tag_157\n      jump\t// in\n    tag_160:\n      mload(0x40)\n      dup1\n      swap2\n      sub\n      swap1\n      revert\n    tag_159:\n        /* \"Ballot.sol\":3341:3352  0.005 ether */\n      0x11c37937e08000\n        /* \"Ballot.sol\":3328:3337  msg.value */\n      callvalue\n        /* \"Ballot.sol\":3328:3352  msg.value >= 0.005 ether */\n      lt\n      iszero\n        /* \"Ballot.sol\":3320:3383  require(msg.value >= 0.005 ether , \"Send at least 0.50 ether!\") */\n      tag_161\n      jumpi\n      mload(0x40)\n      0x08c379a000000000000000000000000000000000000000000000000000000000\n      dup2\n      mstore\n      0x04\n      add\n      tag_162\n      swap1\n      tag_163\n      jump\t// in\n    tag_162:\n      mload(0x40)\n      dup1\n      swap2\n      sub\n      swap1\n      revert\n    tag_161:\n        /* \"Ballot.sol\":3396:3411  Vote memory val */\n      tag_164\n      tag_165\n      jump\t// in\n    tag_164:\n        /* \"Ballot.sol\":3434:3438  name */\n      dup4\n        /* \"Ballot.sol\":3423:3426  val */\n      dup2\n        /* \"Ballot.sol\":3423:3431  val.name */\n      0x40\n      add\n        /* \"Ballot.sol\":3423:3438  val.name = name */\n      dup2\n      swap1\n      mstore\n      pop\n        /* \"Ballot.sol\":3463:3473  msg.sender */\n      caller\n        /* \"Ballot.sol\":3449:3452  val */\n      dup2\n        /* \"Ballot.sol\":3449:3460  val.voterId */\n      0x00\n      add\n        /* \"Ballot.sol\":3449:3473  val.voterId = msg.sender */\n      swap1\n      0xffffffffffffffffffffffffffffffffffffffff\n      and\n      swap1\n      dup2\n      0xffffffffffffffffffffffffffffffffffffffff\n      and\n      dup2\n      mstore\n      pop\n      pop\n        /* \"Ballot.sol\":3499:3505  aadhar */\n      dup2\n        /* \"Ballot.sol\":3484:3487  val */\n      dup2\n        /* \"Ballot.sol\":3484:3496  val.aadharId */\n      0x20\n      add\n        /* \"Ballot.sol\":3484:3505  val.aadharId = aadhar */\n      dup2\n      swap1\n      mstore\n      pop\n        /* \"Ballot.sol\":3530:3541  participant */\n      dup3\n        /* \"Ballot.sol\":3516:3519  val */\n      dup2\n        /* \"Ballot.sol\":3516:3527  val.votedTo */\n      0x60\n      add\n        /* \"Ballot.sol\":3516:3541  val.votedTo = participant */\n      swap1\n      0xffffffffffffffffffffffffffffffffffffffff\n      and\n      swap1\n      dup2\n      0xffffffffffffffffffffffffffffffffffffffff\n      and\n      dup2\n      mstore\n      pop\n      pop\n        /* \"Ballot.sol\":3552:3560  VotesMap */\n      0x0a\n        /* \"Ballot.sol\":3566:3569  val */\n      dup2\n        /* \"Ballot.sol\":3552:3570  VotesMap.push(val) */\n      swap1\n      dup1\n      0x01\n      dup2\n      sload\n      add\n      dup1\n      dup3\n      sstore\n      dup1\n      swap2\n      pop\n      pop\n      0x01\n      swap1\n      sub\n      swap1\n      0x00\n      mstore\n      keccak256(0x00, 0x20)\n      swap1\n      0x04\n      mul\n      add\n      0x00\n      swap1\n      swap2\n      swap1\n      swap2\n      swap1\n      swap2\n      pop\n      0x00\n      dup3\n      add\n      mload\n      dup2\n      0x00\n      add\n      exp(0x0100, 0x00)\n      dup2\n      sload\n      dup2\n      0xffffffffffffffffffffffffffffffffffffffff\n      mul\n      not\n      and\n      swap1\n      dup4\n      0xffffffffffffffffffffffffffffffffffffffff\n      and\n      mul\n      or\n      swap1\n      sstore\n      pop\n      0x20\n      dup3\n      add\n      mload\n      dup2\n      0x01\n      add\n      swap1\n      dup1\n      mload\n      swap1\n      0x20\n      add\n      swap1\n      tag_167\n      swap3\n      swap2\n      swap1\n      tag_124\n      jump\t// in\n    tag_167:\n      pop\n      0x40\n      dup3\n      add\n      mload\n      dup2\n      0x02\n      add\n      swap1\n      dup1\n      mload\n      swap1\n      0x20\n      add\n      swap1\n      tag_168\n      swap3\n      swap2\n      swap1\n      tag_124\n      jump\t// in\n    tag_168:\n      pop\n      0x60\n      dup3\n      add\n      mload\n      dup2\n      0x03\n      add\n      exp(0x0100, 0x00)\n      dup2\n      sload\n      dup2\n      0xffffffffffffffffffffffffffffffffffffffff\n      mul\n      not\n      and\n      swap1\n      dup4\n      0xffffffffffffffffffffffffffffffffffffffff\n      and\n      mul\n      or\n      swap1\n      sstore\n      pop\n      pop\n      pop\n        /* \"Ballot.sol\":3634:3640  uint i */\n      0x00\n        /* \"Ballot.sol\":3630:3816  for(uint i=0; i<participants.length ;i++){... */\n    tag_169:\n        /* \"Ballot.sol\":3646:3658  participants */\n      0x08\n        /* \"Ballot.sol\":3646:3665  participants.length */\n      dup1\n      sload\n      swap1\n      pop\n        /* \"Ballot.sol\":3644:3645  i */\n      dup2\n        /* \"Ballot.sol\":3644:3665  i<participants.length */\n      lt\n        /* \"Ballot.sol\":3630:3816  for(uint i=0; i<participants.length ;i++){... */\n      iszero\n      tag_170\n      jumpi\n        /* \"Ballot.sol\":3711:3722  participant */\n      dup4\n        /* \"Ballot.sol\":3689:3722  participants[i].id == participant */\n      0xffffffffffffffffffffffffffffffffffffffff\n      and\n        /* \"Ballot.sol\":3689:3701  participants */\n      0x08\n        /* \"Ballot.sol\":3702:3703  i */\n      dup3\n        /* \"Ballot.sol\":3689:3704  participants[i] */\n      dup2\n      sload\n      dup2\n      lt\n      tag_172\n      jumpi\n      tag_173\n      tag_174\n      jump\t// in\n    tag_173:\n    tag_172:\n      swap1\n      0x00\n      mstore\n      keccak256(0x00, 0x20)\n      swap1\n      0x04\n      mul\n      add\n        /* \"Ballot.sol\":3689:3707  participants[i].id */\n      0x01\n      add\n      0x00\n      swap1\n      sload\n      swap1\n      0x0100\n      exp\n      swap1\n      div\n      0xffffffffffffffffffffffffffffffffffffffff\n      and\n        /* \"Ballot.sol\":3689:3722  participants[i].id == participant */\n      0xffffffffffffffffffffffffffffffffffffffff\n      and\n      sub\n        /* \"Ballot.sol\":3686:3805  if(participants[i].id == participant){... */\n      tag_176\n      jumpi\n        /* \"Ballot.sol\":3742:3754  participants */\n      0x08\n        /* \"Ballot.sol\":3755:3756  i */\n      dup2\n        /* \"Ballot.sol\":3742:3757  participants[i] */\n      dup2\n      sload\n      dup2\n      lt\n      tag_177\n      jumpi\n      tag_178\n      tag_174\n      jump\t// in\n    tag_178:\n    tag_177:\n      swap1\n      0x00\n      mstore\n      keccak256(0x00, 0x20)\n      swap1\n      0x04\n      mul\n      add\n        /* \"Ballot.sol\":3742:3763  participants[i].votes */\n      0x03\n      add\n      0x00\n        /* \"Ballot.sol\":3742:3765  participants[i].votes++ */\n      dup2\n      sload\n      dup1\n      swap3\n      swap2\n      swap1\n      tag_180\n      swap1\n      tag_127\n      jump\t// in\n    tag_180:\n      swap2\n      swap1\n      pop\n      sstore\n      pop\n        /* \"Ballot.sol\":3784:3789  break */\n      jump(tag_170)\n        /* \"Ballot.sol\":3686:3805  if(participants[i].id == participant){... */\n    tag_176:\n        /* \"Ballot.sol\":3667:3670  i++ */\n      dup1\n      dup1\n      tag_181\n      swap1\n      tag_127\n      jump\t// in\n    tag_181:\n      swap2\n      pop\n      pop\n        /* \"Ballot.sol\":3630:3816  for(uint i=0; i<participants.length ;i++){... */\n      jump(tag_169)\n    tag_170:\n      pop\n        /* \"Ballot.sol\":3857:3861  true */\n      0x01\n        /* \"Ballot.sol\":3826:3846  votedPeoplesAadharId */\n      0x0b\n        /* \"Ballot.sol\":3847:3853  aadhar */\n      dup4\n        /* \"Ballot.sol\":3826:3854  votedPeoplesAadharId[aadhar] */\n      mload(0x40)\n      tag_182\n      swap2\n      swap1\n      tag_154\n      jump\t// in\n    tag_182:\n      swap1\n      dup2\n      mstore\n      0x20\n      add\n      mload(0x40)\n      dup1\n      swap2\n      sub\n      swap1\n      keccak256\n      0x00\n        /* \"Ballot.sol\":3826:3861  votedPeoplesAadharId[aadhar] = true */\n      0x0100\n      exp\n      dup2\n      sload\n      dup2\n      0xff\n      mul\n      not\n      and\n      swap1\n      dup4\n      iszero\n      iszero\n      mul\n      or\n      swap1\n      sstore\n      pop\n        /* \"Ballot.sol\":3903:3907  true */\n      0x01\n        /* \"Ballot.sol\":3872:3892  votedPeoplesWalletId */\n      0x0c\n        /* \"Ballot.sol\":3893:3899  aadhar */\n      dup4\n        /* \"Ballot.sol\":3872:3900  votedPeoplesWalletId[aadhar] */\n      mload(0x40)\n      tag_183\n      swap2\n      swap1\n      tag_154\n      jump\t// in\n    tag_183:\n      swap1\n      dup2\n      mstore\n      0x20\n      add\n      mload(0x40)\n      dup1\n      swap2\n      sub\n      swap1\n      keccak256\n      0x00\n        /* \"Ballot.sol\":3872:3907  votedPeoplesWalletId[aadhar] = true */\n      0x0100\n      exp\n      dup2\n      sload\n      dup2\n      0xff\n      mul\n      not\n      and\n      swap1\n      dup4\n      iszero\n      iszero\n      mul\n      or\n      swap1\n      sstore\n      pop\n        /* \"Ballot.sol\":3153:3915  {... */\n      pop\n        /* \"Ballot.sol\":3053:3915  function vote(string memory name ,address participant , string memory aadhar) public payable canVote{... */\n      pop\n      pop\n      pop\n      jump\t// out\n        /* \"Ballot.sol\":1611:1662  mapping(string => bool) public votedPeoplesAadharId */\n    tag_72:\n      0x0b\n      dup2\n      dup1\n      mload\n      0x20\n      dup2\n      add\n      dup3\n      add\n      dup1\n      mload\n      dup5\n      dup3\n      mstore\n      0x20\n      dup4\n      add\n      0x20\n      dup6\n      add\n      keccak256\n      dup2\n      dup4\n      mstore\n      dup1\n      swap6\n      pop\n      pop\n      pop\n      pop\n      pop\n      pop\n      0x00\n      swap2\n      pop\n      sload\n      swap1\n      0x0100\n      exp\n      swap1\n      div\n      0xff\n      and\n      dup2\n      jump\t// out\n        /* \"Ballot.sol\":4079:4161  function finishVoting() public onlyManager{... */\n    tag_76:\n        /* \"Ballot.sol\":2194:2201  manager */\n      0x03\n        /* \"Ballot.sol\":2194:2204  manager.id */\n      0x01\n      add\n      0x00\n      swap1\n      sload\n      swap1\n      0x0100\n      exp\n      swap1\n      div\n      0xffffffffffffffffffffffffffffffffffffffff\n      and\n        /* \"Ballot.sol\":2180:2204  msg.sender == manager.id */\n      0xffffffffffffffffffffffffffffffffffffffff\n      and\n        /* \"Ballot.sol\":2180:2190  msg.sender */\n      caller\n        /* \"Ballot.sol\":2180:2204  msg.sender == manager.id */\n      0xffffffffffffffffffffffffffffffffffffffff\n      and\n      eq\n        /* \"Ballot.sol\":2172:2238  require(msg.sender == manager.id, \"Only manager can change this!\") */\n      tag_185\n      jumpi\n      mload(0x40)\n      0x08c379a000000000000000000000000000000000000000000000000000000000\n      dup2\n      mstore\n      0x04\n      add\n      tag_186\n      swap1\n      tag_91\n      jump\t// in\n    tag_186:\n      mload(0x40)\n      dup1\n      swap2\n      sub\n      swap1\n      revert\n    tag_185:\n        /* \"Ballot.sol\":4149:4153  true */\n      0x01\n        /* \"Ballot.sol\":4132:4146  votingFinished */\n      0x02\n      0x01\n        /* \"Ballot.sol\":4132:4153  votingFinished = true */\n      0x0100\n      exp\n      dup2\n      sload\n      dup2\n      0xff\n      mul\n      not\n      and\n      swap1\n      dup4\n      iszero\n      iszero\n      mul\n      or\n      swap1\n      sstore\n      pop\n        /* \"Ballot.sol\":4079:4161  function finishVoting() public onlyManager{... */\n      jump\t// out\n        /* \"Ballot.sol\":1702:1753  mapping(string => bool) public votedPeoplesWalletId */\n    tag_80:\n      0x0c\n      dup2\n      dup1\n      mload\n      0x20\n      dup2\n      add\n      dup3\n      add\n      dup1\n      mload\n      dup5\n      dup3\n      mstore\n      0x20\n      dup4\n      add\n      0x20\n      dup6\n      add\n      keccak256\n      dup2\n      dup4\n      mstore\n      dup1\n      swap6\n      pop\n      pop\n      pop\n      pop\n      pop\n      pop\n      0x00\n      swap2\n      pop\n      sload\n      swap1\n      0x0100\n      exp\n      swap1\n      div\n      0xff\n      and\n      dup2\n      jump\t// out\n    tag_121:\n      mload(0x40)\n      dup1\n      0x80\n      add\n      0x40\n      mstore\n      dup1\n      0x60\n      dup2\n      mstore\n      0x20\n      add\n      and(0xffffffffffffffffffffffffffffffffffffffff, 0x00)\n      dup2\n      mstore\n      0x20\n      add\n      0x60\n      dup2\n      mstore\n      0x20\n      add\n      0x00\n      dup2\n      mstore\n      pop\n      swap1\n      jump\t// out\n    tag_124:\n      dup3\n      dup1\n      sload\n      tag_188\n      swap1\n      tag_83\n      jump\t// in\n    tag_188:\n      swap1\n      0x00\n      mstore\n      keccak256(0x00, 0x20)\n      swap1\n      0x1f\n      add\n      0x20\n      swap1\n      div\n      dup2\n      add\n      swap3\n      dup3\n      tag_190\n      jumpi\n      0x00\n      dup6\n      sstore\n      jump(tag_189)\n    tag_190:\n      dup3\n      0x1f\n      lt\n      tag_191\n      jumpi\n      dup1\n      mload\n      not(0xff)\n      and\n      dup4\n      dup1\n      add\n      or\n      dup6\n      sstore\n      jump(tag_189)\n    tag_191:\n      dup3\n      dup1\n      add\n      0x01\n      add\n      dup6\n      sstore\n      dup3\n      iszero\n      tag_189\n      jumpi\n      swap2\n      dup3\n      add\n    tag_192:\n      dup3\n      dup2\n      gt\n      iszero\n      tag_193\n      jumpi\n      dup3\n      mload\n      dup3\n      sstore\n      swap2\n      0x20\n      add\n      swap2\n      swap1\n      0x01\n      add\n      swap1\n      jump(tag_192)\n    tag_193:\n    tag_189:\n      pop\n      swap1\n      pop\n      tag_194\n      swap2\n      swap1\n      tag_195\n      jump\t// in\n    tag_194:\n      pop\n      swap1\n      jump\t// out\n    tag_165:\n      mload(0x40)\n      dup1\n      0x80\n      add\n      0x40\n      mstore\n      dup1\n      and(0xffffffffffffffffffffffffffffffffffffffff, 0x00)\n      dup2\n      mstore\n      0x20\n      add\n      0x60\n      dup2\n      mstore\n      0x20\n      add\n      0x60\n      dup2\n      mstore\n      0x20\n      add\n      and(0xffffffffffffffffffffffffffffffffffffffff, 0x00)\n      dup2\n      mstore\n      pop\n      swap1\n      jump\t// out\n    tag_195:\n    tag_196:\n      dup1\n      dup3\n      gt\n      iszero\n      tag_197\n      jumpi\n      0x00\n      dup2\n      0x00\n      swap1\n      sstore\n      pop\n      0x01\n      add\n      jump(tag_196)\n    tag_197:\n      pop\n      swap1\n      jump\t// out\n        /* \"#utility.yul\":7:84   */\n    tag_198:\n        /* \"#utility.yul\":44:51   */\n      0x00\n        /* \"#utility.yul\":73:78   */\n      dup2\n        /* \"#utility.yul\":62:78   */\n      swap1\n      pop\n        /* \"#utility.yul\":7:84   */\n      swap2\n      swap1\n      pop\n      jump\t// out\n        /* \"#utility.yul\":90:208   */\n    tag_199:\n        /* \"#utility.yul\":177:201   */\n      tag_252\n        /* \"#utility.yul\":195:200   */\n      dup2\n        /* \"#utility.yul\":177:201   */\n      tag_198\n      jump\t// in\n    tag_252:\n        /* \"#utility.yul\":172:175   */\n      dup3\n        /* \"#utility.yul\":165:202   */\n      mstore\n        /* \"#utility.yul\":90:208   */\n      pop\n      pop\n      jump\t// out\n        /* \"#utility.yul\":214:436   */\n    tag_23:\n        /* \"#utility.yul\":307:311   */\n      0x00\n        /* \"#utility.yul\":345:347   */\n      0x20\n        /* \"#utility.yul\":334:343   */\n      dup3\n        /* \"#utility.yul\":330:348   */\n      add\n        /* \"#utility.yul\":322:348   */\n      swap1\n      pop\n        /* \"#utility.yul\":358:429   */\n      tag_254\n        /* \"#utility.yul\":426:427   */\n      0x00\n        /* \"#utility.yul\":415:424   */\n      dup4\n        /* \"#utility.yul\":411:428   */\n      add\n        /* \"#utility.yul\":402:408   */\n      dup5\n        /* \"#utility.yul\":358:429   */\n      tag_199\n      jump\t// in\n    tag_254:\n        /* \"#utility.yul\":214:436   */\n      swap3\n      swap2\n      pop\n      pop\n      jump\t// out\n        /* \"#utility.yul\":442:541   */\n    tag_200:\n        /* \"#utility.yul\":494:500   */\n      0x00\n        /* \"#utility.yul\":528:533   */\n      dup2\n        /* \"#utility.yul\":522:534   */\n      mload\n        /* \"#utility.yul\":512:534   */\n      swap1\n      pop\n        /* \"#utility.yul\":442:541   */\n      swap2\n      swap1\n      pop\n      jump\t// out\n        /* \"#utility.yul\":547:716   */\n    tag_201:\n        /* \"#utility.yul\":631:642   */\n      0x00\n        /* \"#utility.yul\":665:671   */\n      dup3\n        /* \"#utility.yul\":660:663   */\n      dup3\n        /* \"#utility.yul\":653:672   */\n      mstore\n        /* \"#utility.yul\":705:709   */\n      0x20\n        /* \"#utility.yul\":700:703   */\n      dup3\n        /* \"#utility.yul\":696:710   */\n      add\n        /* \"#utility.yul\":681:710   */\n      swap1\n      pop\n        /* \"#utility.yul\":547:716   */\n      swap3\n      swap2\n      pop\n      pop\n      jump\t// out\n        /* \"#utility.yul\":722:1029   */\n    tag_202:\n        /* \"#utility.yul\":790:791   */\n      0x00\n        /* \"#utility.yul\":800:913   */\n    tag_258:\n        /* \"#utility.yul\":814:820   */\n      dup4\n        /* \"#utility.yul\":811:812   */\n      dup2\n        /* \"#utility.yul\":808:821   */\n      lt\n        /* \"#utility.yul\":800:913   */\n      iszero\n      tag_260\n      jumpi\n        /* \"#utility.yul\":899:900   */\n      dup1\n        /* \"#utility.yul\":894:897   */\n      dup3\n        /* \"#utility.yul\":890:901   */\n      add\n        /* \"#utility.yul\":884:902   */\n      mload\n        /* \"#utility.yul\":880:881   */\n      dup2\n        /* \"#utility.yul\":875:878   */\n      dup5\n        /* \"#utility.yul\":871:882   */\n      add\n        /* \"#utility.yul\":864:903   */\n      mstore\n        /* \"#utility.yul\":836:838   */\n      0x20\n        /* \"#utility.yul\":833:834   */\n      dup2\n        /* \"#utility.yul\":829:839   */\n      add\n        /* \"#utility.yul\":824:839   */\n      swap1\n      pop\n        /* \"#utility.yul\":800:913   */\n      jump(tag_258)\n    tag_260:\n        /* \"#utility.yul\":931:937   */\n      dup4\n        /* \"#utility.yul\":928:929   */\n      dup2\n        /* \"#utility.yul\":925:938   */\n      gt\n        /* \"#utility.yul\":922:1023   */\n      iszero\n      tag_261\n      jumpi\n        /* \"#utility.yul\":1011:1012   */\n      0x00\n        /* \"#utility.yul\":1002:1008   */\n      dup5\n        /* \"#utility.yul\":997:1000   */\n      dup5\n        /* \"#utility.yul\":993:1009   */\n      add\n        /* \"#utility.yul\":986:1013   */\n      mstore\n        /* \"#utility.yul\":922:1023   */\n    tag_261:\n        /* \"#utility.yul\":771:1029   */\n      pop\n        /* \"#utility.yul\":722:1029   */\n      pop\n      pop\n      pop\n      jump\t// out\n        /* \"#utility.yul\":1035:1137   */\n    tag_203:\n        /* \"#utility.yul\":1076:1082   */\n      0x00\n        /* \"#utility.yul\":1127:1129   */\n      0x1f\n        /* \"#utility.yul\":1123:1130   */\n      not\n        /* \"#utility.yul\":1118:1120   */\n      0x1f\n        /* \"#utility.yul\":1111:1116   */\n      dup4\n        /* \"#utility.yul\":1107:1121   */\n      add\n        /* \"#utility.yul\":1103:1131   */\n      and\n        /* \"#utility.yul\":1093:1131   */\n      swap1\n      pop\n        /* \"#utility.yul\":1035:1137   */\n      swap2\n      swap1\n      pop\n      jump\t// out\n        /* \"#utility.yul\":1143:1507   */\n    tag_204:\n        /* \"#utility.yul\":1231:1234   */\n      0x00\n        /* \"#utility.yul\":1259:1298   */\n      tag_264\n        /* \"#utility.yul\":1292:1297   */\n      dup3\n        /* \"#utility.yul\":1259:1298   */\n      tag_200\n      jump\t// in\n    tag_264:\n        /* \"#utility.yul\":1314:1385   */\n      tag_265\n        /* \"#utility.yul\":1378:1384   */\n      dup2\n        /* \"#utility.yul\":1373:1376   */\n      dup6\n        /* \"#utility.yul\":1314:1385   */\n      tag_201\n      jump\t// in\n    tag_265:\n        /* \"#utility.yul\":1307:1385   */\n      swap4\n      pop\n        /* \"#utility.yul\":1394:1446   */\n      tag_266\n        /* \"#utility.yul\":1439:1445   */\n      dup2\n        /* \"#utility.yul\":1434:1437   */\n      dup6\n        /* \"#utility.yul\":1427:1431   */\n      0x20\n        /* \"#utility.yul\":1420:1425   */\n      dup7\n        /* \"#utility.yul\":1416:1432   */\n      add\n        /* \"#utility.yul\":1394:1446   */\n      tag_202\n      jump\t// in\n    tag_266:\n        /* \"#utility.yul\":1471:1500   */\n      tag_267\n        /* \"#utility.yul\":1493:1499   */\n      dup2\n        /* \"#utility.yul\":1471:1500   */\n      tag_203\n      jump\t// in\n    tag_267:\n        /* \"#utility.yul\":1466:1469   */\n      dup5\n        /* \"#utility.yul\":1462:1501   */\n      add\n        /* \"#utility.yul\":1455:1501   */\n      swap2\n      pop\n        /* \"#utility.yul\":1235:1507   */\n      pop\n        /* \"#utility.yul\":1143:1507   */\n      swap3\n      swap2\n      pop\n      pop\n      jump\t// out\n        /* \"#utility.yul\":1513:1826   */\n    tag_28:\n        /* \"#utility.yul\":1626:1630   */\n      0x00\n        /* \"#utility.yul\":1664:1666   */\n      0x20\n        /* \"#utility.yul\":1653:1662   */\n      dup3\n        /* \"#utility.yul\":1649:1667   */\n      add\n        /* \"#utility.yul\":1641:1667   */\n      swap1\n      pop\n        /* \"#utility.yul\":1713:1722   */\n      dup2\n        /* \"#utility.yul\":1707:1711   */\n      dup2\n        /* \"#utility.yul\":1703:1723   */\n      sub\n        /* \"#utility.yul\":1699:1700   */\n      0x00\n        /* \"#utility.yul\":1688:1697   */\n      dup4\n        /* \"#utility.yul\":1684:1701   */\n      add\n        /* \"#utility.yul\":1677:1724   */\n      mstore\n        /* \"#utility.yul\":1741:1819   */\n      tag_269\n        /* \"#utility.yul\":1814:1818   */\n      dup2\n        /* \"#utility.yul\":1805:1811   */\n      dup5\n        /* \"#utility.yul\":1741:1819   */\n      tag_204\n      jump\t// in\n    tag_269:\n        /* \"#utility.yul\":1733:1819   */\n      swap1\n      pop\n        /* \"#utility.yul\":1513:1826   */\n      swap3\n      swap2\n      pop\n      pop\n      jump\t// out\n        /* \"#utility.yul\":1832:1907   */\n    tag_205:\n        /* \"#utility.yul\":1865:1871   */\n      0x00\n        /* \"#utility.yul\":1898:1900   */\n      0x40\n        /* \"#utility.yul\":1892:1901   */\n      mload\n        /* \"#utility.yul\":1882:1901   */\n      swap1\n      pop\n        /* \"#utility.yul\":1832:1907   */\n      swap1\n      jump\t// out\n        /* \"#utility.yul\":1913:2030   */\n    tag_206:\n        /* \"#utility.yul\":2022:2023   */\n      0x00\n        /* \"#utility.yul\":2019:2020   */\n      dup1\n        /* \"#utility.yul\":2012:2024   */\n      revert\n        /* \"#utility.yul\":2036:2153   */\n    tag_207:\n        /* \"#utility.yul\":2145:2146   */\n      0x00\n        /* \"#utility.yul\":2142:2143   */\n      dup1\n        /* \"#utility.yul\":2135:2147   */\n      revert\n        /* \"#utility.yul\":2159:2281   */\n    tag_208:\n        /* \"#utility.yul\":2232:2256   */\n      tag_274\n        /* \"#utility.yul\":2250:2255   */\n      dup2\n        /* \"#utility.yul\":2232:2256   */\n      tag_198\n      jump\t// in\n    tag_274:\n        /* \"#utility.yul\":2225:2230   */\n      dup2\n        /* \"#utility.yul\":2222:2257   */\n      eq\n        /* \"#utility.yul\":2212:2275   */\n      tag_275\n      jumpi\n        /* \"#utility.yul\":2271:2272   */\n      0x00\n        /* \"#utility.yul\":2268:2269   */\n      dup1\n        /* \"#utility.yul\":2261:2273   */\n      revert\n        /* \"#utility.yul\":2212:2275   */\n    tag_275:\n        /* \"#utility.yul\":2159:2281   */\n      pop\n      jump\t// out\n        /* \"#utility.yul\":2287:2426   */\n    tag_209:\n        /* \"#utility.yul\":2333:2338   */\n      0x00\n        /* \"#utility.yul\":2371:2377   */\n      dup2\n        /* \"#utility.yul\":2358:2378   */\n      calldataload\n        /* \"#utility.yul\":2349:2378   */\n      swap1\n      pop\n        /* \"#utility.yul\":2387:2420   */\n      tag_277\n        /* \"#utility.yul\":2414:2419   */\n      dup2\n        /* \"#utility.yul\":2387:2420   */\n      tag_208\n      jump\t// in\n    tag_277:\n        /* \"#utility.yul\":2287:2426   */\n      swap3\n      swap2\n      pop\n      pop\n      jump\t// out\n        /* \"#utility.yul\":2432:2761   */\n    tag_35:\n        /* \"#utility.yul\":2491:2497   */\n      0x00\n        /* \"#utility.yul\":2540:2542   */\n      0x20\n        /* \"#utility.yul\":2528:2537   */\n      dup3\n        /* \"#utility.yul\":2519:2526   */\n      dup5\n        /* \"#utility.yul\":2515:2538   */\n      sub\n        /* \"#utility.yul\":2511:2543   */\n      slt\n        /* \"#utility.yul\":2508:2627   */\n      iszero\n      tag_279\n      jumpi\n        /* \"#utility.yul\":2546:2625   */\n      tag_280\n      tag_206\n      jump\t// in\n    tag_280:\n        /* \"#utility.yul\":2508:2627   */\n    tag_279:\n        /* \"#utility.yul\":2666:2667   */\n      0x00\n        /* \"#utility.yul\":2691:2744   */\n      tag_281\n        /* \"#utility.yul\":2736:2743   */\n      dup5\n        /* \"#utility.yul\":2727:2733   */\n      dup3\n        /* \"#utility.yul\":2716:2725   */\n      dup6\n        /* \"#utility.yul\":2712:2734   */\n      add\n        /* \"#utility.yul\":2691:2744   */\n      tag_209\n      jump\t// in\n    tag_281:\n        /* \"#utility.yul\":2681:2744   */\n      swap2\n      pop\n        /* \"#utility.yul\":2637:2754   */\n      pop\n        /* \"#utility.yul\":2432:2761   */\n      swap3\n      swap2\n      pop\n      pop\n      jump\t// out\n        /* \"#utility.yul\":2767:2893   */\n    tag_210:\n        /* \"#utility.yul\":2804:2811   */\n      0x00\n        /* \"#utility.yul\":2844:2886   */\n      0xffffffffffffffffffffffffffffffffffffffff\n        /* \"#utility.yul\":2837:2842   */\n      dup3\n        /* \"#utility.yul\":2833:2887   */\n      and\n        /* \"#utility.yul\":2822:2887   */\n      swap1\n      pop\n        /* \"#utility.yul\":2767:2893   */\n      swap2\n      swap1\n      pop\n      jump\t// out\n        /* \"#utility.yul\":2899:2995   */\n    tag_211:\n        /* \"#utility.yul\":2936:2943   */\n      0x00\n        /* \"#utility.yul\":2965:2989   */\n      tag_284\n        /* \"#utility.yul\":2983:2988   */\n      dup3\n        /* \"#utility.yul\":2965:2989   */\n      tag_210\n      jump\t// in\n    tag_284:\n        /* \"#utility.yul\":2954:2989   */\n      swap1\n      pop\n        /* \"#utility.yul\":2899:2995   */\n      swap2\n      swap1\n      pop\n      jump\t// out\n        /* \"#utility.yul\":3001:3119   */\n    tag_212:\n        /* \"#utility.yul\":3088:3112   */\n      tag_286\n        /* \"#utility.yul\":3106:3111   */\n      dup2\n        /* \"#utility.yul\":3088:3112   */\n      tag_211\n      jump\t// in\n    tag_286:\n        /* \"#utility.yul\":3083:3086   */\n      dup3\n        /* \"#utility.yul\":3076:3113   */\n      mstore\n        /* \"#utility.yul\":3001:3119   */\n      pop\n      pop\n      jump\t// out\n        /* \"#utility.yul\":3125:3860   */\n    tag_38:\n        /* \"#utility.yul\":3342:3346   */\n      0x00\n        /* \"#utility.yul\":3380:3383   */\n      0x80\n        /* \"#utility.yul\":3369:3378   */\n      dup3\n        /* \"#utility.yul\":3365:3384   */\n      add\n        /* \"#utility.yul\":3357:3384   */\n      swap1\n      pop\n        /* \"#utility.yul\":3430:3439   */\n      dup2\n        /* \"#utility.yul\":3424:3428   */\n      dup2\n        /* \"#utility.yul\":3420:3440   */\n      sub\n        /* \"#utility.yul\":3416:3417   */\n      0x00\n        /* \"#utility.yul\":3405:3414   */\n      dup4\n        /* \"#utility.yul\":3401:3418   */\n      add\n        /* \"#utility.yul\":3394:3441   */\n      mstore\n        /* \"#utility.yul\":3458:3536   */\n      tag_288\n        /* \"#utility.yul\":3531:3535   */\n      dup2\n        /* \"#utility.yul\":3522:3528   */\n      dup8\n        /* \"#utility.yul\":3458:3536   */\n      tag_204\n      jump\t// in\n    tag_288:\n        /* \"#utility.yul\":3450:3536   */\n      swap1\n      pop\n        /* \"#utility.yul\":3546:3618   */\n      tag_289\n        /* \"#utility.yul\":3614:3616   */\n      0x20\n        /* \"#utility.yul\":3603:3612   */\n      dup4\n        /* \"#utility.yul\":3599:3617   */\n      add\n        /* \"#utility.yul\":3590:3596   */\n      dup7\n        /* \"#utility.yul\":3546:3618   */\n      tag_212\n      jump\t// in\n    tag_289:\n        /* \"#utility.yul\":3665:3674   */\n      dup2\n        /* \"#utility.yul\":3659:3663   */\n      dup2\n        /* \"#utility.yul\":3655:3675   */\n      sub\n        /* \"#utility.yul\":3650:3652   */\n      0x40\n        /* \"#utility.yul\":3639:3648   */\n      dup4\n        /* \"#utility.yul\":3635:3653   */\n      add\n        /* \"#utility.yul\":3628:3676   */\n      mstore\n        /* \"#utility.yul\":3693:3771   */\n      tag_290\n        /* \"#utility.yul\":3766:3770   */\n      dup2\n        /* \"#utility.yul\":3757:3763   */\n      dup6\n        /* \"#utility.yul\":3693:3771   */\n      tag_204\n      jump\t// in\n    tag_290:\n        /* \"#utility.yul\":3685:3771   */\n      swap1\n      pop\n        /* \"#utility.yul\":3781:3853   */\n      tag_291\n        /* \"#utility.yul\":3849:3851   */\n      0x60\n        /* \"#utility.yul\":3838:3847   */\n      dup4\n        /* \"#utility.yul\":3834:3852   */\n      add\n        /* \"#utility.yul\":3825:3831   */\n      dup5\n        /* \"#utility.yul\":3781:3853   */\n      tag_199\n      jump\t// in\n    tag_291:\n        /* \"#utility.yul\":3125:3860   */\n      swap6\n      swap5\n      pop\n      pop\n      pop\n      pop\n      pop\n      jump\t// out\n        /* \"#utility.yul\":3866:3983   */\n    tag_213:\n        /* \"#utility.yul\":3975:3976   */\n      0x00\n        /* \"#utility.yul\":3972:3973   */\n      dup1\n        /* \"#utility.yul\":3965:3977   */\n      revert\n        /* \"#utility.yul\":3989:4106   */\n    tag_214:\n        /* \"#utility.yul\":4098:4099   */\n      0x00\n        /* \"#utility.yul\":4095:4096   */\n      dup1\n        /* \"#utility.yul\":4088:4100   */\n      revert\n        /* \"#utility.yul\":4112:4292   */\n    tag_215:\n        /* \"#utility.yul\":4160:4237   */\n      0x4e487b7100000000000000000000000000000000000000000000000000000000\n        /* \"#utility.yul\":4157:4158   */\n      0x00\n        /* \"#utility.yul\":4150:4238   */\n      mstore\n        /* \"#utility.yul\":4257:4261   */\n      0x41\n        /* \"#utility.yul\":4254:4255   */\n      0x04\n        /* \"#utility.yul\":4247:4262   */\n      mstore\n        /* \"#utility.yul\":4281:4285   */\n      0x24\n        /* \"#utility.yul\":4278:4279   */\n      0x00\n        /* \"#utility.yul\":4271:4286   */\n      revert\n        /* \"#utility.yul\":4298:4579   */\n    tag_216:\n        /* \"#utility.yul\":4381:4408   */\n      tag_296\n        /* \"#utility.yul\":4403:4407   */\n      dup3\n        /* \"#utility.yul\":4381:4408   */\n      tag_203\n      jump\t// in\n    tag_296:\n        /* \"#utility.yul\":4373:4379   */\n      dup2\n        /* \"#utility.yul\":4369:4409   */\n      add\n        /* \"#utility.yul\":4511:4517   */\n      dup2\n        /* \"#utility.yul\":4499:4509   */\n      dup2\n        /* \"#utility.yul\":4496:4518   */\n      lt\n        /* \"#utility.yul\":4475:4493   */\n      0xffffffffffffffff\n        /* \"#utility.yul\":4463:4473   */\n      dup3\n        /* \"#utility.yul\":4460:4494   */\n      gt\n        /* \"#utility.yul\":4457:4519   */\n      or\n        /* \"#utility.yul\":4454:4542   */\n      iszero\n      tag_297\n      jumpi\n        /* \"#utility.yul\":4522:4540   */\n      tag_298\n      tag_215\n      jump\t// in\n    tag_298:\n        /* \"#utility.yul\":4454:4542   */\n    tag_297:\n        /* \"#utility.yul\":4562:4572   */\n      dup1\n        /* \"#utility.yul\":4558:4560   */\n      0x40\n        /* \"#utility.yul\":4551:4573   */\n      mstore\n        /* \"#utility.yul\":4341:4579   */\n      pop\n        /* \"#utility.yul\":4298:4579   */\n      pop\n      pop\n      jump\t// out\n        /* \"#utility.yul\":4585:4714   */\n    tag_217:\n        /* \"#utility.yul\":4619:4625   */\n      0x00\n        /* \"#utility.yul\":4646:4666   */\n      tag_300\n      tag_205\n      jump\t// in\n    tag_300:\n        /* \"#utility.yul\":4636:4666   */\n      swap1\n      pop\n        /* \"#utility.yul\":4675:4708   */\n      tag_301\n        /* \"#utility.yul\":4703:4707   */\n      dup3\n        /* \"#utility.yul\":4695:4701   */\n      dup3\n        /* \"#utility.yul\":4675:4708   */\n      tag_216\n      jump\t// in\n    tag_301:\n        /* \"#utility.yul\":4585:4714   */\n      swap2\n      swap1\n      pop\n      jump\t// out\n        /* \"#utility.yul\":4720:5028   */\n    tag_218:\n        /* \"#utility.yul\":4782:4786   */\n      0x00\n        /* \"#utility.yul\":4872:4890   */\n      0xffffffffffffffff\n        /* \"#utility.yul\":4864:4870   */\n      dup3\n        /* \"#utility.yul\":4861:4891   */\n      gt\n        /* \"#utility.yul\":4858:4914   */\n      iszero\n      tag_303\n      jumpi\n        /* \"#utility.yul\":4894:4912   */\n      tag_304\n      tag_215\n      jump\t// in\n    tag_304:\n        /* \"#utility.yul\":4858:4914   */\n    tag_303:\n        /* \"#utility.yul\":4932:4961   */\n      tag_305\n        /* \"#utility.yul\":4954:4960   */\n      dup3\n        /* \"#utility.yul\":4932:4961   */\n      tag_203\n      jump\t// in\n    tag_305:\n        /* \"#utility.yul\":4924:4961   */\n      swap1\n      pop\n        /* \"#utility.yul\":5016:5020   */\n      0x20\n        /* \"#utility.yul\":5010:5014   */\n      dup2\n        /* \"#utility.yul\":5006:5021   */\n      add\n        /* \"#utility.yul\":4998:5021   */\n      swap1\n      pop\n        /* \"#utility.yul\":4720:5028   */\n      swap2\n      swap1\n      pop\n      jump\t// out\n        /* \"#utility.yul\":5034:5188   */\n    tag_219:\n        /* \"#utility.yul\":5118:5124   */\n      dup3\n        /* \"#utility.yul\":5113:5116   */\n      dup2\n        /* \"#utility.yul\":5108:5111   */\n      dup4\n        /* \"#utility.yul\":5095:5125   */\n      calldatacopy\n        /* \"#utility.yul\":5180:5181   */\n      0x00\n        /* \"#utility.yul\":5171:5177   */\n      dup4\n        /* \"#utility.yul\":5166:5169   */\n      dup4\n        /* \"#utility.yul\":5162:5178   */\n      add\n        /* \"#utility.yul\":5155:5182   */\n      mstore\n        /* \"#utility.yul\":5034:5188   */\n      pop\n      pop\n      pop\n      jump\t// out\n        /* \"#utility.yul\":5194:5606   */\n    tag_220:\n        /* \"#utility.yul\":5272:5277   */\n      0x00\n        /* \"#utility.yul\":5297:5363   */\n      tag_308\n        /* \"#utility.yul\":5313:5362   */\n      tag_309\n        /* \"#utility.yul\":5355:5361   */\n      dup5\n        /* \"#utility.yul\":5313:5362   */\n      tag_218\n      jump\t// in\n    tag_309:\n        /* \"#utility.yul\":5297:5363   */\n      tag_217\n      jump\t// in\n    tag_308:\n        /* \"#utility.yul\":5288:5363   */\n      swap1\n      pop\n        /* \"#utility.yul\":5386:5392   */\n      dup3\n        /* \"#utility.yul\":5379:5384   */\n      dup2\n        /* \"#utility.yul\":5372:5393   */\n      mstore\n        /* \"#utility.yul\":5424:5428   */\n      0x20\n        /* \"#utility.yul\":5417:5422   */\n      dup2\n        /* \"#utility.yul\":5413:5429   */\n      add\n        /* \"#utility.yul\":5462:5465   */\n      dup5\n        /* \"#utility.yul\":5453:5459   */\n      dup5\n        /* \"#utility.yul\":5448:5451   */\n      dup5\n        /* \"#utility.yul\":5444:5460   */\n      add\n        /* \"#utility.yul\":5441:5466   */\n      gt\n        /* \"#utility.yul\":5438:5550   */\n      iszero\n      tag_310\n      jumpi\n        /* \"#utility.yul\":5469:5548   */\n      tag_311\n      tag_214\n      jump\t// in\n    tag_311:\n        /* \"#utility.yul\":5438:5550   */\n    tag_310:\n        /* \"#utility.yul\":5559:5600   */\n      tag_312\n        /* \"#utility.yul\":5593:5599   */\n      dup5\n        /* \"#utility.yul\":5588:5591   */\n      dup3\n        /* \"#utility.yul\":5583:5586   */\n      dup6\n        /* \"#utility.yul\":5559:5600   */\n      tag_219\n      jump\t// in\n    tag_312:\n        /* \"#utility.yul\":5278:5606   */\n      pop\n        /* \"#utility.yul\":5194:5606   */\n      swap4\n      swap3\n      pop\n      pop\n      pop\n      jump\t// out\n        /* \"#utility.yul\":5626:5966   */\n    tag_221:\n        /* \"#utility.yul\":5682:5687   */\n      0x00\n        /* \"#utility.yul\":5731:5734   */\n      dup3\n        /* \"#utility.yul\":5724:5728   */\n      0x1f\n        /* \"#utility.yul\":5716:5722   */\n      dup4\n        /* \"#utility.yul\":5712:5729   */\n      add\n        /* \"#utility.yul\":5708:5735   */\n      slt\n        /* \"#utility.yul\":5698:5820   */\n      tag_314\n      jumpi\n        /* \"#utility.yul\":5739:5818   */\n      tag_315\n      tag_213\n      jump\t// in\n    tag_315:\n        /* \"#utility.yul\":5698:5820   */\n    tag_314:\n        /* \"#utility.yul\":5856:5862   */\n      dup2\n        /* \"#utility.yul\":5843:5863   */\n      calldataload\n        /* \"#utility.yul\":5881:5960   */\n      tag_316\n        /* \"#utility.yul\":5956:5959   */\n      dup5\n        /* \"#utility.yul\":5948:5954   */\n      dup3\n        /* \"#utility.yul\":5941:5945   */\n      0x20\n        /* \"#utility.yul\":5933:5939   */\n      dup7\n        /* \"#utility.yul\":5929:5946   */\n      add\n        /* \"#utility.yul\":5881:5960   */\n      tag_220\n      jump\t// in\n    tag_316:\n        /* \"#utility.yul\":5872:5960   */\n      swap2\n      pop\n        /* \"#utility.yul\":5688:5966   */\n      pop\n        /* \"#utility.yul\":5626:5966   */\n      swap3\n      swap2\n      pop\n      pop\n      jump\t// out\n        /* \"#utility.yul\":5972:6094   */\n    tag_222:\n        /* \"#utility.yul\":6045:6069   */\n      tag_318\n        /* \"#utility.yul\":6063:6068   */\n      dup2\n        /* \"#utility.yul\":6045:6069   */\n      tag_211\n      jump\t// in\n    tag_318:\n        /* \"#utility.yul\":6038:6043   */\n      dup2\n        /* \"#utility.yul\":6035:6070   */\n      eq\n        /* \"#utility.yul\":6025:6088   */\n      tag_319\n      jumpi\n        /* \"#utility.yul\":6084:6085   */\n      0x00\n        /* \"#utility.yul\":6081:6082   */\n      dup1\n        /* \"#utility.yul\":6074:6086   */\n      revert\n        /* \"#utility.yul\":6025:6088   */\n    tag_319:\n        /* \"#utility.yul\":5972:6094   */\n      pop\n      jump\t// out\n        /* \"#utility.yul\":6100:6239   */\n    tag_223:\n        /* \"#utility.yul\":6146:6151   */\n      0x00\n        /* \"#utility.yul\":6184:6190   */\n      dup2\n        /* \"#utility.yul\":6171:6191   */\n      calldataload\n        /* \"#utility.yul\":6162:6191   */\n      swap1\n      pop\n        /* \"#utility.yul\":6200:6233   */\n      tag_321\n        /* \"#utility.yul\":6227:6232   */\n      dup2\n        /* \"#utility.yul\":6200:6233   */\n      tag_222\n      jump\t// in\n    tag_321:\n        /* \"#utility.yul\":6100:6239   */\n      swap3\n      swap2\n      pop\n      pop\n      jump\t// out\n        /* \"#utility.yul\":6245:7224   */\n    tag_45:\n        /* \"#utility.yul\":6342:6348   */\n      0x00\n        /* \"#utility.yul\":6350:6356   */\n      dup1\n        /* \"#utility.yul\":6358:6364   */\n      0x00\n        /* \"#utility.yul\":6407:6409   */\n      0x60\n        /* \"#utility.yul\":6395:6404   */\n      dup5\n        /* \"#utility.yul\":6386:6393   */\n      dup7\n        /* \"#utility.yul\":6382:6405   */\n      sub\n        /* \"#utility.yul\":6378:6410   */\n      slt\n        /* \"#utility.yul\":6375:6494   */\n      iszero\n      tag_323\n      jumpi\n        /* \"#utility.yul\":6413:6492   */\n      tag_324\n      tag_206\n      jump\t// in\n    tag_324:\n        /* \"#utility.yul\":6375:6494   */\n    tag_323:\n        /* \"#utility.yul\":6561:6562   */\n      0x00\n        /* \"#utility.yul\":6550:6559   */\n      dup5\n        /* \"#utility.yul\":6546:6563   */\n      add\n        /* \"#utility.yul\":6533:6564   */\n      calldataload\n        /* \"#utility.yul\":6591:6609   */\n      0xffffffffffffffff\n        /* \"#utility.yul\":6583:6589   */\n      dup2\n        /* \"#utility.yul\":6580:6610   */\n      gt\n        /* \"#utility.yul\":6577:6694   */\n      iszero\n      tag_325\n      jumpi\n        /* \"#utility.yul\":6613:6692   */\n      tag_326\n      tag_207\n      jump\t// in\n    tag_326:\n        /* \"#utility.yul\":6577:6694   */\n    tag_325:\n        /* \"#utility.yul\":6718:6781   */\n      tag_327\n        /* \"#utility.yul\":6773:6780   */\n      dup7\n        /* \"#utility.yul\":6764:6770   */\n      dup3\n        /* \"#utility.yul\":6753:6762   */\n      dup8\n        /* \"#utility.yul\":6749:6771   */\n      add\n        /* \"#utility.yul\":6718:6781   */\n      tag_221\n      jump\t// in\n    tag_327:\n        /* \"#utility.yul\":6708:6781   */\n      swap4\n      pop\n        /* \"#utility.yul\":6504:6791   */\n      pop\n        /* \"#utility.yul\":6830:6832   */\n      0x20\n        /* \"#utility.yul\":6856:6909   */\n      tag_328\n        /* \"#utility.yul\":6901:6908   */\n      dup7\n        /* \"#utility.yul\":6892:6898   */\n      dup3\n        /* \"#utility.yul\":6881:6890   */\n      dup8\n        /* \"#utility.yul\":6877:6899   */\n      add\n        /* \"#utility.yul\":6856:6909   */\n      tag_223\n      jump\t// in\n    tag_328:\n        /* \"#utility.yul\":6846:6909   */\n      swap3\n      pop\n        /* \"#utility.yul\":6801:6919   */\n      pop\n        /* \"#utility.yul\":6986:6988   */\n      0x40\n        /* \"#utility.yul\":6975:6984   */\n      dup5\n        /* \"#utility.yul\":6971:6989   */\n      add\n        /* \"#utility.yul\":6958:6990   */\n      calldataload\n        /* \"#utility.yul\":7017:7035   */\n      0xffffffffffffffff\n        /* \"#utility.yul\":7009:7015   */\n      dup2\n        /* \"#utility.yul\":7006:7036   */\n      gt\n        /* \"#utility.yul\":7003:7120   */\n      iszero\n      tag_329\n      jumpi\n        /* \"#utility.yul\":7039:7118   */\n      tag_330\n      tag_207\n      jump\t// in\n    tag_330:\n        /* \"#utility.yul\":7003:7120   */\n    tag_329:\n        /* \"#utility.yul\":7144:7207   */\n      tag_331\n        /* \"#utility.yul\":7199:7206   */\n      dup7\n        /* \"#utility.yul\":7190:7196   */\n      dup3\n        /* \"#utility.yul\":7179:7188   */\n      dup8\n        /* \"#utility.yul\":7175:7197   */\n      add\n        /* \"#utility.yul\":7144:7207   */\n      tag_221\n      jump\t// in\n    tag_331:\n        /* \"#utility.yul\":7134:7207   */\n      swap2\n      pop\n        /* \"#utility.yul\":6929:7217   */\n      pop\n        /* \"#utility.yul\":6245:7224   */\n      swap3\n      pop\n      swap3\n      pop\n      swap3\n      jump\t// out\n        /* \"#utility.yul\":7230:7366   */\n    tag_224:\n        /* \"#utility.yul\":7319:7325   */\n      0x00\n        /* \"#utility.yul\":7353:7358   */\n      dup2\n        /* \"#utility.yul\":7347:7359   */\n      mload\n        /* \"#utility.yul\":7337:7359   */\n      swap1\n      pop\n        /* \"#utility.yul\":7230:7366   */\n      swap2\n      swap1\n      pop\n      jump\t// out\n        /* \"#utility.yul\":7372:7578   */\n    tag_225:\n        /* \"#utility.yul\":7493:7504   */\n      0x00\n        /* \"#utility.yul\":7527:7533   */\n      dup3\n        /* \"#utility.yul\":7522:7525   */\n      dup3\n        /* \"#utility.yul\":7515:7534   */\n      mstore\n        /* \"#utility.yul\":7567:7571   */\n      0x20\n        /* \"#utility.yul\":7562:7565   */\n      dup3\n        /* \"#utility.yul\":7558:7572   */\n      add\n        /* \"#utility.yul\":7543:7572   */\n      swap1\n      pop\n        /* \"#utility.yul\":7372:7578   */\n      swap3\n      swap2\n      pop\n      pop\n      jump\t// out\n        /* \"#utility.yul\":7584:7738   */\n    tag_226:\n        /* \"#utility.yul\":7673:7677   */\n      0x00\n        /* \"#utility.yul\":7696:7699   */\n      dup2\n        /* \"#utility.yul\":7688:7699   */\n      swap1\n      pop\n        /* \"#utility.yul\":7726:7730   */\n      0x20\n        /* \"#utility.yul\":7721:7724   */\n      dup3\n        /* \"#utility.yul\":7717:7731   */\n      add\n        /* \"#utility.yul\":7709:7731   */\n      swap1\n      pop\n        /* \"#utility.yul\":7584:7738   */\n      swap2\n      swap1\n      pop\n      jump\t// out\n        /* \"#utility.yul\":7744:7903   */\n    tag_227:\n        /* \"#utility.yul\":7818:7829   */\n      0x00\n        /* \"#utility.yul\":7852:7858   */\n      dup3\n        /* \"#utility.yul\":7847:7850   */\n      dup3\n        /* \"#utility.yul\":7840:7859   */\n      mstore\n        /* \"#utility.yul\":7892:7896   */\n      0x20\n        /* \"#utility.yul\":7887:7890   */\n      dup3\n        /* \"#utility.yul\":7883:7897   */\n      add\n        /* \"#utility.yul\":7868:7897   */\n      swap1\n      pop\n        /* \"#utility.yul\":7744:7903   */\n      swap3\n      swap2\n      pop\n      pop\n      jump\t// out\n        /* \"#utility.yul\":7909:8253   */\n    tag_228:\n        /* \"#utility.yul\":7987:7990   */\n      0x00\n        /* \"#utility.yul\":8015:8054   */\n      tag_337\n        /* \"#utility.yul\":8048:8053   */\n      dup3\n        /* \"#utility.yul\":8015:8054   */\n      tag_200\n      jump\t// in\n    tag_337:\n        /* \"#utility.yul\":8070:8131   */\n      tag_338\n        /* \"#utility.yul\":8124:8130   */\n      dup2\n        /* \"#utility.yul\":8119:8122   */\n      dup6\n        /* \"#utility.yul\":8070:8131   */\n      tag_227\n      jump\t// in\n    tag_338:\n        /* \"#utility.yul\":8063:8131   */\n      swap4\n      pop\n        /* \"#utility.yul\":8140:8192   */\n      tag_339\n        /* \"#utility.yul\":8185:8191   */\n      dup2\n        /* \"#utility.yul\":8180:8183   */\n      dup6\n        /* \"#utility.yul\":8173:8177   */\n      0x20\n        /* \"#utility.yul\":8166:8171   */\n      dup7\n        /* \"#utility.yul\":8162:8178   */\n      add\n        /* \"#utility.yul\":8140:8192   */\n      tag_202\n      jump\t// in\n    tag_339:\n        /* \"#utility.yul\":8217:8246   */\n      tag_340\n        /* \"#utility.yul\":8239:8245   */\n      dup2\n        /* \"#utility.yul\":8217:8246   */\n      tag_203\n      jump\t// in\n    tag_340:\n        /* \"#utility.yul\":8212:8215   */\n      dup5\n        /* \"#utility.yul\":8208:8247   */\n      add\n        /* \"#utility.yul\":8201:8247   */\n      swap2\n      pop\n        /* \"#utility.yul\":7991:8253   */\n      pop\n        /* \"#utility.yul\":7909:8253   */\n      swap3\n      swap2\n      pop\n      pop\n      jump\t// out\n        /* \"#utility.yul\":8259:8367   */\n    tag_229:\n        /* \"#utility.yul\":8336:8360   */\n      tag_342\n        /* \"#utility.yul\":8354:8359   */\n      dup2\n        /* \"#utility.yul\":8336:8360   */\n      tag_211\n      jump\t// in\n    tag_342:\n        /* \"#utility.yul\":8331:8334   */\n      dup3\n        /* \"#utility.yul\":8324:8361   */\n      mstore\n        /* \"#utility.yul\":8259:8367   */\n      pop\n      pop\n      jump\t// out\n        /* \"#utility.yul\":8373:8481   */\n    tag_230:\n        /* \"#utility.yul\":8450:8474   */\n      tag_344\n        /* \"#utility.yul\":8468:8473   */\n      dup2\n        /* \"#utility.yul\":8450:8474   */\n      tag_198\n      jump\t// in\n    tag_344:\n        /* \"#utility.yul\":8445:8448   */\n      dup3\n        /* \"#utility.yul\":8438:8475   */\n      mstore\n        /* \"#utility.yul\":8373:8481   */\n      pop\n      pop\n      jump\t// out\n        /* \"#utility.yul\":8539:9548   */\n    tag_231:\n        /* \"#utility.yul\":8642:8645   */\n      0x00\n        /* \"#utility.yul\":8678:8682   */\n      0x80\n        /* \"#utility.yul\":8673:8676   */\n      dup4\n        /* \"#utility.yul\":8669:8683   */\n      add\n        /* \"#utility.yul\":8765:8769   */\n      0x00\n        /* \"#utility.yul\":8758:8763   */\n      dup4\n        /* \"#utility.yul\":8754:8770   */\n      add\n        /* \"#utility.yul\":8748:8771   */\n      mload\n        /* \"#utility.yul\":8818:8821   */\n      dup5\n        /* \"#utility.yul\":8812:8816   */\n      dup3\n        /* \"#utility.yul\":8808:8822   */\n      sub\n        /* \"#utility.yul\":8801:8805   */\n      0x00\n        /* \"#utility.yul\":8796:8799   */\n      dup7\n        /* \"#utility.yul\":8792:8806   */\n      add\n        /* \"#utility.yul\":8785:8823   */\n      mstore\n        /* \"#utility.yul\":8844:8917   */\n      tag_346\n        /* \"#utility.yul\":8912:8916   */\n      dup3\n        /* \"#utility.yul\":8898:8910   */\n      dup3\n        /* \"#utility.yul\":8844:8917   */\n      tag_228\n      jump\t// in\n    tag_346:\n        /* \"#utility.yul\":8836:8917   */\n      swap2\n      pop\n        /* \"#utility.yul\":8693:8928   */\n      pop\n        /* \"#utility.yul\":9008:9012   */\n      0x20\n        /* \"#utility.yul\":9001:9006   */\n      dup4\n        /* \"#utility.yul\":8997:9013   */\n      add\n        /* \"#utility.yul\":8991:9014   */\n      mload\n        /* \"#utility.yul\":9027:9090   */\n      tag_347\n        /* \"#utility.yul\":9084:9088   */\n      0x20\n        /* \"#utility.yul\":9079:9082   */\n      dup7\n        /* \"#utility.yul\":9075:9089   */\n      add\n        /* \"#utility.yul\":9061:9073   */\n      dup3\n        /* \"#utility.yul\":9027:9090   */\n      tag_229\n      jump\t// in\n    tag_347:\n        /* \"#utility.yul\":8938:9100   */\n      pop\n        /* \"#utility.yul\":9183:9187   */\n      0x40\n        /* \"#utility.yul\":9176:9181   */\n      dup4\n        /* \"#utility.yul\":9172:9188   */\n      add\n        /* \"#utility.yul\":9166:9189   */\n      mload\n        /* \"#utility.yul\":9236:9239   */\n      dup5\n        /* \"#utility.yul\":9230:9234   */\n      dup3\n        /* \"#utility.yul\":9226:9240   */\n      sub\n        /* \"#utility.yul\":9219:9223   */\n      0x40\n        /* \"#utility.yul\":9214:9217   */\n      dup7\n        /* \"#utility.yul\":9210:9224   */\n      add\n        /* \"#utility.yul\":9203:9241   */\n      mstore\n        /* \"#utility.yul\":9262:9335   */\n      tag_348\n        /* \"#utility.yul\":9330:9334   */\n      dup3\n        /* \"#utility.yul\":9316:9328   */\n      dup3\n        /* \"#utility.yul\":9262:9335   */\n      tag_228\n      jump\t// in\n    tag_348:\n        /* \"#utility.yul\":9254:9335   */\n      swap2\n      pop\n        /* \"#utility.yul\":9110:9346   */\n      pop\n        /* \"#utility.yul\":9429:9433   */\n      0x60\n        /* \"#utility.yul\":9422:9427   */\n      dup4\n        /* \"#utility.yul\":9418:9434   */\n      add\n        /* \"#utility.yul\":9412:9435   */\n      mload\n        /* \"#utility.yul\":9448:9511   */\n      tag_349\n        /* \"#utility.yul\":9505:9509   */\n      0x60\n        /* \"#utility.yul\":9500:9503   */\n      dup7\n        /* \"#utility.yul\":9496:9510   */\n      add\n        /* \"#utility.yul\":9482:9494   */\n      dup3\n        /* \"#utility.yul\":9448:9511   */\n      tag_230\n      jump\t// in\n    tag_349:\n        /* \"#utility.yul\":9356:9521   */\n      pop\n        /* \"#utility.yul\":9538:9542   */\n      dup1\n        /* \"#utility.yul\":9531:9542   */\n      swap2\n      pop\n        /* \"#utility.yul\":8647:9548   */\n      pop\n        /* \"#utility.yul\":8539:9548   */\n      swap3\n      swap2\n      pop\n      pop\n      jump\t// out\n        /* \"#utility.yul\":9554:9798   */\n    tag_232:\n        /* \"#utility.yul\":9667:9677   */\n      0x00\n        /* \"#utility.yul\":9702:9792   */\n      tag_351\n        /* \"#utility.yul\":9788:9791   */\n      dup4\n        /* \"#utility.yul\":9780:9786   */\n      dup4\n        /* \"#utility.yul\":9702:9792   */\n      tag_231\n      jump\t// in\n    tag_351:\n        /* \"#utility.yul\":9688:9792   */\n      swap1\n      pop\n        /* \"#utility.yul\":9554:9798   */\n      swap3\n      swap2\n      pop\n      pop\n      jump\t// out\n        /* \"#utility.yul\":9804:9939   */\n    tag_233:\n        /* \"#utility.yul\":9896:9900   */\n      0x00\n        /* \"#utility.yul\":9928:9932   */\n      0x20\n        /* \"#utility.yul\":9923:9926   */\n      dup3\n        /* \"#utility.yul\":9919:9933   */\n      add\n        /* \"#utility.yul\":9911:9933   */\n      swap1\n      pop\n        /* \"#utility.yul\":9804:9939   */\n      swap2\n      swap1\n      pop\n      jump\t// out\n        /* \"#utility.yul\":10001:11088   */\n    tag_234:\n        /* \"#utility.yul\":10164:10167   */\n      0x00\n        /* \"#utility.yul\":10193:10269   */\n      tag_354\n        /* \"#utility.yul\":10263:10268   */\n      dup3\n        /* \"#utility.yul\":10193:10269   */\n      tag_224\n      jump\t// in\n    tag_354:\n        /* \"#utility.yul\":10285:10393   */\n      tag_355\n        /* \"#utility.yul\":10386:10392   */\n      dup2\n        /* \"#utility.yul\":10381:10384   */\n      dup6\n        /* \"#utility.yul\":10285:10393   */\n      tag_225\n      jump\t// in\n    tag_355:\n        /* \"#utility.yul\":10278:10393   */\n      swap4\n      pop\n        /* \"#utility.yul\":10419:10422   */\n      dup4\n        /* \"#utility.yul\":10464:10468   */\n      0x20\n        /* \"#utility.yul\":10456:10462   */\n      dup3\n        /* \"#utility.yul\":10452:10469   */\n      mul\n        /* \"#utility.yul\":10447:10450   */\n      dup6\n        /* \"#utility.yul\":10443:10470   */\n      add\n        /* \"#utility.yul\":10494:10572   */\n      tag_356\n        /* \"#utility.yul\":10566:10571   */\n      dup6\n        /* \"#utility.yul\":10494:10572   */\n      tag_226\n      jump\t// in\n    tag_356:\n        /* \"#utility.yul\":10595:10602   */\n      dup1\n        /* \"#utility.yul\":10626:10627   */\n      0x00\n        /* \"#utility.yul\":10611:11043   */\n    tag_357:\n        /* \"#utility.yul\":10636:10642   */\n      dup6\n        /* \"#utility.yul\":10633:10634   */\n      dup2\n        /* \"#utility.yul\":10630:10643   */\n      lt\n        /* \"#utility.yul\":10611:11043   */\n      iszero\n      tag_359\n      jumpi\n        /* \"#utility.yul\":10707:10716   */\n      dup5\n        /* \"#utility.yul\":10701:10705   */\n      dup5\n        /* \"#utility.yul\":10697:10717   */\n      sub\n        /* \"#utility.yul\":10692:10695   */\n      dup10\n        /* \"#utility.yul\":10685:10718   */\n      mstore\n        /* \"#utility.yul\":10758:10764   */\n      dup2\n        /* \"#utility.yul\":10752:10765   */\n      mload\n        /* \"#utility.yul\":10786:10894   */\n      tag_360\n        /* \"#utility.yul\":10889:10893   */\n      dup6\n        /* \"#utility.yul\":10874:10887   */\n      dup3\n        /* \"#utility.yul\":10786:10894   */\n      tag_232\n      jump\t// in\n    tag_360:\n        /* \"#utility.yul\":10778:10894   */\n      swap5\n      pop\n        /* \"#utility.yul\":10917:10999   */\n      tag_361\n        /* \"#utility.yul\":10992:10998   */\n      dup4\n        /* \"#utility.yul\":10917:10999   */\n      tag_233\n      jump\t// in\n    tag_361:\n        /* \"#utility.yul\":10907:10999   */\n      swap3\n      pop\n        /* \"#utility.yul\":11028:11032   */\n      0x20\n        /* \"#utility.yul\":11023:11026   */\n      dup11\n        /* \"#utility.yul\":11019:11033   */\n      add\n        /* \"#utility.yul\":11012:11033   */\n      swap10\n      pop\n        /* \"#utility.yul\":10671:11043   */\n      pop\n        /* \"#utility.yul\":10658:10659   */\n      0x01\n        /* \"#utility.yul\":10655:10656   */\n      dup2\n        /* \"#utility.yul\":10651:10660   */\n      add\n        /* \"#utility.yul\":10646:10660   */\n      swap1\n      pop\n        /* \"#utility.yul\":10611:11043   */\n      jump(tag_357)\n    tag_359:\n        /* \"#utility.yul\":10615:10629   */\n      pop\n        /* \"#utility.yul\":11059:11063   */\n      dup3\n        /* \"#utility.yul\":11052:11063   */\n      swap8\n      pop\n        /* \"#utility.yul\":11079:11082   */\n      dup8\n        /* \"#utility.yul\":11072:11082   */\n      swap6\n      pop\n        /* \"#utility.yul\":10169:11088   */\n      pop\n      pop\n      pop\n      pop\n      pop\n        /* \"#utility.yul\":10001:11088   */\n      swap3\n      swap2\n      pop\n      pop\n      jump\t// out\n        /* \"#utility.yul\":11094:11555   */\n    tag_51:\n        /* \"#utility.yul\":11281:11285   */\n      0x00\n        /* \"#utility.yul\":11319:11321   */\n      0x20\n        /* \"#utility.yul\":11308:11317   */\n      dup3\n        /* \"#utility.yul\":11304:11322   */\n      add\n        /* \"#utility.yul\":11296:11322   */\n      swap1\n      pop\n        /* \"#utility.yul\":11368:11377   */\n      dup2\n        /* \"#utility.yul\":11362:11366   */\n      dup2\n        /* \"#utility.yul\":11358:11378   */\n      sub\n        /* \"#utility.yul\":11354:11355   */\n      0x00\n        /* \"#utility.yul\":11343:11352   */\n      dup4\n        /* \"#utility.yul\":11339:11356   */\n      add\n        /* \"#utility.yul\":11332:11379   */\n      mstore\n        /* \"#utility.yul\":11396:11548   */\n      tag_363\n        /* \"#utility.yul\":11543:11547   */\n      dup2\n        /* \"#utility.yul\":11534:11540   */\n      dup5\n        /* \"#utility.yul\":11396:11548   */\n      tag_234\n      jump\t// in\n    tag_363:\n        /* \"#utility.yul\":11388:11548   */\n      swap1\n      pop\n        /* \"#utility.yul\":11094:11555   */\n      swap3\n      swap2\n      pop\n      pop\n      jump\t// out\n        /* \"#utility.yul\":11561:11651   */\n    tag_235:\n        /* \"#utility.yul\":11595:11602   */\n      0x00\n        /* \"#utility.yul\":11638:11643   */\n      dup2\n        /* \"#utility.yul\":11631:11644   */\n      iszero\n        /* \"#utility.yul\":11624:11645   */\n      iszero\n        /* \"#utility.yul\":11613:11645   */\n      swap1\n      pop\n        /* \"#utility.yul\":11561:11651   */\n      swap2\n      swap1\n      pop\n      jump\t// out\n        /* \"#utility.yul\":11657:11766   */\n    tag_236:\n        /* \"#utility.yul\":11738:11759   */\n      tag_366\n        /* \"#utility.yul\":11753:11758   */\n      dup2\n        /* \"#utility.yul\":11738:11759   */\n      tag_235\n      jump\t// in\n    tag_366:\n        /* \"#utility.yul\":11733:11736   */\n      dup3\n        /* \"#utility.yul\":11726:11760   */\n      mstore\n        /* \"#utility.yul\":11657:11766   */\n      pop\n      pop\n      jump\t// out\n        /* \"#utility.yul\":11772:11982   */\n    tag_60:\n        /* \"#utility.yul\":11859:11863   */\n      0x00\n        /* \"#utility.yul\":11897:11899   */\n      0x20\n        /* \"#utility.yul\":11886:11895   */\n      dup3\n        /* \"#utility.yul\":11882:11900   */\n      add\n        /* \"#utility.yul\":11874:11900   */\n      swap1\n      pop\n        /* \"#utility.yul\":11910:11975   */\n      tag_368\n        /* \"#utility.yul\":11972:11973   */\n      0x00\n        /* \"#utility.yul\":11961:11970   */\n      dup4\n        /* \"#utility.yul\":11957:11974   */\n      add\n        /* \"#utility.yul\":11948:11954   */\n      dup5\n        /* \"#utility.yul\":11910:11975   */\n      tag_236\n      jump\t// in\n    tag_368:\n        /* \"#utility.yul\":11772:11982   */\n      swap3\n      swap2\n      pop\n      pop\n      jump\t// out\n        /* \"#utility.yul\":11988:12497   */\n    tag_71:\n        /* \"#utility.yul\":12057:12063   */\n      0x00\n        /* \"#utility.yul\":12106:12108   */\n      0x20\n        /* \"#utility.yul\":12094:12103   */\n      dup3\n        /* \"#utility.yul\":12085:12092   */\n      dup5\n        /* \"#utility.yul\":12081:12104   */\n      sub\n        /* \"#utility.yul\":12077:12109   */\n      slt\n        /* \"#utility.yul\":12074:12193   */\n      iszero\n      tag_370\n      jumpi\n        /* \"#utility.yul\":12112:12191   */\n      tag_371\n      tag_206\n      jump\t// in\n    tag_371:\n        /* \"#utility.yul\":12074:12193   */\n    tag_370:\n        /* \"#utility.yul\":12260:12261   */\n      0x00\n        /* \"#utility.yul\":12249:12258   */\n      dup3\n        /* \"#utility.yul\":12245:12262   */\n      add\n        /* \"#utility.yul\":12232:12263   */\n      calldataload\n        /* \"#utility.yul\":12290:12308   */\n      0xffffffffffffffff\n        /* \"#utility.yul\":12282:12288   */\n      dup2\n        /* \"#utility.yul\":12279:12309   */\n      gt\n        /* \"#utility.yul\":12276:12393   */\n      iszero\n      tag_372\n      jumpi\n        /* \"#utility.yul\":12312:12391   */\n      tag_373\n      tag_207\n      jump\t// in\n    tag_373:\n        /* \"#utility.yul\":12276:12393   */\n    tag_372:\n        /* \"#utility.yul\":12417:12480   */\n      tag_374\n        /* \"#utility.yul\":12472:12479   */\n      dup5\n        /* \"#utility.yul\":12463:12469   */\n      dup3\n        /* \"#utility.yul\":12452:12461   */\n      dup6\n        /* \"#utility.yul\":12448:12470   */\n      add\n        /* \"#utility.yul\":12417:12480   */\n      tag_221\n      jump\t// in\n    tag_374:\n        /* \"#utility.yul\":12407:12480   */\n      swap2\n      pop\n        /* \"#utility.yul\":12203:12490   */\n      pop\n        /* \"#utility.yul\":11988:12497   */\n      swap3\n      swap2\n      pop\n      pop\n      jump\t// out\n        /* \"#utility.yul\":12503:12683   */\n    tag_237:\n        /* \"#utility.yul\":12551:12628   */\n      0x4e487b7100000000000000000000000000000000000000000000000000000000\n        /* \"#utility.yul\":12548:12549   */\n      0x00\n        /* \"#utility.yul\":12541:12629   */\n      mstore\n        /* \"#utility.yul\":12648:12652   */\n      0x22\n        /* \"#utility.yul\":12645:12646   */\n      0x04\n        /* \"#utility.yul\":12638:12653   */\n      mstore\n        /* \"#utility.yul\":12672:12676   */\n      0x24\n        /* \"#utility.yul\":12669:12670   */\n      0x00\n        /* \"#utility.yul\":12662:12677   */\n      revert\n        /* \"#utility.yul\":12689:13009   */\n    tag_83:\n        /* \"#utility.yul\":12733:12739   */\n      0x00\n        /* \"#utility.yul\":12770:12771   */\n      0x02\n        /* \"#utility.yul\":12764:12768   */\n      dup3\n        /* \"#utility.yul\":12760:12772   */\n      div\n        /* \"#utility.yul\":12750:12772   */\n      swap1\n      pop\n        /* \"#utility.yul\":12817:12818   */\n      0x01\n        /* \"#utility.yul\":12811:12815   */\n      dup3\n        /* \"#utility.yul\":12807:12819   */\n      and\n        /* \"#utility.yul\":12838:12856   */\n      dup1\n        /* \"#utility.yul\":12828:12909   */\n      tag_377\n      jumpi\n        /* \"#utility.yul\":12894:12898   */\n      0x7f\n        /* \"#utility.yul\":12886:12892   */\n      dup3\n        /* \"#utility.yul\":12882:12899   */\n      and\n        /* \"#utility.yul\":12872:12899   */\n      swap2\n      pop\n        /* \"#utility.yul\":12828:12909   */\n    tag_377:\n        /* \"#utility.yul\":12956:12958   */\n      0x20\n        /* \"#utility.yul\":12948:12954   */\n      dup3\n        /* \"#utility.yul\":12945:12959   */\n      lt\n        /* \"#utility.yul\":12925:12943   */\n      dup2\n        /* \"#utility.yul\":12922:12960   */\n      sub\n        /* \"#utility.yul\":12919:13003   */\n      tag_378\n      jumpi\n        /* \"#utility.yul\":12975:12993   */\n      tag_379\n      tag_237\n      jump\t// in\n    tag_379:\n        /* \"#utility.yul\":12919:13003   */\n    tag_378:\n        /* \"#utility.yul\":12740:13009   */\n      pop\n        /* \"#utility.yul\":12689:13009   */\n      swap2\n      swap1\n      pop\n      jump\t// out\n        /* \"#utility.yul\":13015:13194   */\n    tag_238:\n        /* \"#utility.yul\":13155:13186   */\n      0x4f6e6c79206d616e616765722063616e206368616e6765207468697321000000\n        /* \"#utility.yul\":13151:13152   */\n      0x00\n        /* \"#utility.yul\":13143:13149   */\n      dup3\n        /* \"#utility.yul\":13139:13153   */\n      add\n        /* \"#utility.yul\":13132:13187   */\n      mstore\n        /* \"#utility.yul\":13015:13194   */\n      pop\n      jump\t// out\n        /* \"#utility.yul\":13200:13566   */\n    tag_239:\n        /* \"#utility.yul\":13342:13345   */\n      0x00\n        /* \"#utility.yul\":13363:13430   */\n      tag_382\n        /* \"#utility.yul\":13427:13429   */\n      0x1d\n        /* \"#utility.yul\":13422:13425   */\n      dup4\n        /* \"#utility.yul\":13363:13430   */\n      tag_201\n      jump\t// in\n    tag_382:\n        /* \"#utility.yul\":13356:13430   */\n      swap2\n      pop\n        /* \"#utility.yul\":13439:13532   */\n      tag_383\n        /* \"#utility.yul\":13528:13531   */\n      dup3\n        /* \"#utility.yul\":13439:13532   */\n      tag_238\n      jump\t// in\n    tag_383:\n        /* \"#utility.yul\":13557:13559   */\n      0x20\n        /* \"#utility.yul\":13552:13555   */\n      dup3\n        /* \"#utility.yul\":13548:13560   */\n      add\n        /* \"#utility.yul\":13541:13560   */\n      swap1\n      pop\n        /* \"#utility.yul\":13200:13566   */\n      swap2\n      swap1\n      pop\n      jump\t// out\n        /* \"#utility.yul\":13572:13991   */\n    tag_91:\n        /* \"#utility.yul\":13738:13742   */\n      0x00\n        /* \"#utility.yul\":13776:13778   */\n      0x20\n        /* \"#utility.yul\":13765:13774   */\n      dup3\n        /* \"#utility.yul\":13761:13779   */\n      add\n        /* \"#utility.yul\":13753:13779   */\n      swap1\n      pop\n        /* \"#utility.yul\":13825:13834   */\n      dup2\n        /* \"#utility.yul\":13819:13823   */\n      dup2\n        /* \"#utility.yul\":13815:13835   */\n      sub\n        /* \"#utility.yul\":13811:13812   */\n      0x00\n        /* \"#utility.yul\":13800:13809   */\n      dup4\n        /* \"#utility.yul\":13796:13813   */\n      add\n        /* \"#utility.yul\":13789:13836   */\n      mstore\n        /* \"#utility.yul\":13853:13984   */\n      tag_385\n        /* \"#utility.yul\":13979:13983   */\n      dup2\n        /* \"#utility.yul\":13853:13984   */\n      tag_239\n      jump\t// in\n    tag_385:\n        /* \"#utility.yul\":13845:13984   */\n      swap1\n      pop\n        /* \"#utility.yul\":13572:13991   */\n      swap2\n      swap1\n      pop\n      jump\t// out\n        /* \"#utility.yul\":13997:14177   */\n    tag_240:\n        /* \"#utility.yul\":14045:14122   */\n      0x4e487b7100000000000000000000000000000000000000000000000000000000\n        /* \"#utility.yul\":14042:14043   */\n      0x00\n        /* \"#utility.yul\":14035:14123   */\n      mstore\n        /* \"#utility.yul\":14142:14146   */\n      0x11\n        /* \"#utility.yul\":14139:14140   */\n      0x04\n        /* \"#utility.yul\":14132:14147   */\n      mstore\n        /* \"#utility.yul\":14166:14170   */\n      0x24\n        /* \"#utility.yul\":14163:14164   */\n      0x00\n        /* \"#utility.yul\":14156:14171   */\n      revert\n        /* \"#utility.yul\":14183:14416   */\n    tag_127:\n        /* \"#utility.yul\":14222:14225   */\n      0x00\n        /* \"#utility.yul\":14245:14269   */\n      tag_388\n        /* \"#utility.yul\":14263:14268   */\n      dup3\n        /* \"#utility.yul\":14245:14269   */\n      tag_198\n      jump\t// in\n    tag_388:\n        /* \"#utility.yul\":14236:14269   */\n      swap2\n      pop\n        /* \"#utility.yul\":14291:14357   */\n      0xffffffffffffffffffffffffffffffffffffffffffffffffffffffffffffffff\n        /* \"#utility.yul\":14284:14289   */\n      dup3\n        /* \"#utility.yul\":14281:14358   */\n      sub\n        /* \"#utility.yul\":14278:14381   */\n      tag_389\n      jumpi\n        /* \"#utility.yul\":14361:14379   */\n      tag_390\n      tag_240\n      jump\t// in\n    tag_390:\n        /* \"#utility.yul\":14278:14381   */\n    tag_389:\n        /* \"#utility.yul\":14408:14409   */\n      0x01\n        /* \"#utility.yul\":14401:14406   */\n      dup3\n        /* \"#utility.yul\":14397:14410   */\n      add\n        /* \"#utility.yul\":14390:14410   */\n      swap1\n      pop\n        /* \"#utility.yul\":14183:14416   */\n      swap2\n      swap1\n      pop\n      jump\t// out\n        /* \"#utility.yul\":14422:14595   */\n    tag_241:\n        /* \"#utility.yul\":14562:14587   */\n      0x566f74696e67206e6f7420737461727465642059657421000000000000000000\n        /* \"#utility.yul\":14558:14559   */\n      0x00\n        /* \"#utility.yul\":14550:14556   */\n      dup3\n        /* \"#utility.yul\":14546:14560   */\n      add\n        /* \"#utility.yul\":14539:14588   */\n      mstore\n        /* \"#utility.yul\":14422:14595   */\n      pop\n      jump\t// out\n        /* \"#utility.yul\":14601:14967   */\n    tag_242:\n        /* \"#utility.yul\":14743:14746   */\n      0x00\n        /* \"#utility.yul\":14764:14831   */\n      tag_393\n        /* \"#utility.yul\":14828:14830   */\n      0x17\n        /* \"#utility.yul\":14823:14826   */\n      dup4\n        /* \"#utility.yul\":14764:14831   */\n      tag_201\n      jump\t// in\n    tag_393:\n        /* \"#utility.yul\":14757:14831   */\n      swap2\n      pop\n        /* \"#utility.yul\":14840:14933   */\n      tag_394\n        /* \"#utility.yul\":14929:14932   */\n      dup3\n        /* \"#utility.yul\":14840:14933   */\n      tag_241\n      jump\t// in\n    tag_394:\n        /* \"#utility.yul\":14958:14960   */\n      0x20\n        /* \"#utility.yul\":14953:14956   */\n      dup3\n        /* \"#utility.yul\":14949:14961   */\n      add\n        /* \"#utility.yul\":14942:14961   */\n      swap1\n      pop\n        /* \"#utility.yul\":14601:14967   */\n      swap2\n      swap1\n      pop\n      jump\t// out\n        /* \"#utility.yul\":14973:15392   */\n    tag_151:\n        /* \"#utility.yul\":15139:15143   */\n      0x00\n        /* \"#utility.yul\":15177:15179   */\n      0x20\n        /* \"#utility.yul\":15166:15175   */\n      dup3\n        /* \"#utility.yul\":15162:15180   */\n      add\n        /* \"#utility.yul\":15154:15180   */\n      swap1\n      pop\n        /* \"#utility.yul\":15226:15235   */\n      dup2\n        /* \"#utility.yul\":15220:15224   */\n      dup2\n        /* \"#utility.yul\":15216:15236   */\n      sub\n        /* \"#utility.yul\":15212:15213   */\n      0x00\n        /* \"#utility.yul\":15201:15210   */\n      dup4\n        /* \"#utility.yul\":15197:15214   */\n      add\n        /* \"#utility.yul\":15190:15237   */\n      mstore\n        /* \"#utility.yul\":15254:15385   */\n      tag_396\n        /* \"#utility.yul\":15380:15384   */\n      dup2\n        /* \"#utility.yul\":15254:15385   */\n      tag_242\n      jump\t// in\n    tag_396:\n        /* \"#utility.yul\":15246:15385   */\n      swap1\n      pop\n        /* \"#utility.yul\":14973:15392   */\n      swap2\n      swap1\n      pop\n      jump\t// out\n        /* \"#utility.yul\":15398:15546   */\n    tag_243:\n        /* \"#utility.yul\":15500:15511   */\n      0x00\n        /* \"#utility.yul\":15537:15540   */\n      dup2\n        /* \"#utility.yul\":15522:15540   */\n      swap1\n      pop\n        /* \"#utility.yul\":15398:15546   */\n      swap3\n      swap2\n      pop\n      pop\n      jump\t// out\n        /* \"#utility.yul\":15552:15929   */\n    tag_244:\n        /* \"#utility.yul\":15658:15661   */\n      0x00\n        /* \"#utility.yul\":15686:15725   */\n      tag_399\n        /* \"#utility.yul\":15719:15724   */\n      dup3\n        /* \"#utility.yul\":15686:15725   */\n      tag_200\n      jump\t// in\n    tag_399:\n        /* \"#utility.yul\":15741:15830   */\n      tag_400\n        /* \"#utility.yul\":15823:15829   */\n      dup2\n        /* \"#utility.yul\":15818:15821   */\n      dup6\n        /* \"#utility.yul\":15741:15830   */\n      tag_243\n      jump\t// in\n    tag_400:\n        /* \"#utility.yul\":15734:15830   */\n      swap4\n      pop\n        /* \"#utility.yul\":15839:15891   */\n      tag_401\n        /* \"#utility.yul\":15884:15890   */\n      dup2\n        /* \"#utility.yul\":15879:15882   */\n      dup6\n        /* \"#utility.yul\":15872:15876   */\n      0x20\n        /* \"#utility.yul\":15865:15870   */\n      dup7\n        /* \"#utility.yul\":15861:15877   */\n      add\n        /* \"#utility.yul\":15839:15891   */\n      tag_202\n      jump\t// in\n    tag_401:\n        /* \"#utility.yul\":15916:15922   */\n      dup1\n        /* \"#utility.yul\":15911:15914   */\n      dup5\n        /* \"#utility.yul\":15907:15923   */\n      add\n        /* \"#utility.yul\":15900:15923   */\n      swap2\n      pop\n        /* \"#utility.yul\":15662:15929   */\n      pop\n        /* \"#utility.yul\":15552:15929   */\n      swap3\n      swap2\n      pop\n      pop\n      jump\t// out\n        /* \"#utility.yul\":15935:16210   */\n    tag_154:\n        /* \"#utility.yul\":16067:16070   */\n      0x00\n        /* \"#utility.yul\":16089:16184   */\n      tag_403\n        /* \"#utility.yul\":16180:16183   */\n      dup3\n        /* \"#utility.yul\":16171:16177   */\n      dup5\n        /* \"#utility.yul\":16089:16184   */\n      tag_244\n      jump\t// in\n    tag_403:\n        /* \"#utility.yul\":16082:16184   */\n      swap2\n      pop\n        /* \"#utility.yul\":16201:16204   */\n      dup2\n        /* \"#utility.yul\":16194:16204   */\n      swap1\n      pop\n        /* \"#utility.yul\":15935:16210   */\n      swap3\n      swap2\n      pop\n      pop\n      jump\t// out\n        /* \"#utility.yul\":16216:16389   */\n    tag_245:\n        /* \"#utility.yul\":16356:16381   */\n      0x596f75206861766520616c726561647920566f74656421000000000000000000\n        /* \"#utility.yul\":16352:16353   */\n      0x00\n        /* \"#utility.yul\":16344:16350   */\n      dup3\n        /* \"#utility.yul\":16340:16354   */\n      add\n        /* \"#utility.yul\":16333:16382   */\n      mstore\n        /* \"#utility.yul\":16216:16389   */\n      pop\n      jump\t// out\n        /* \"#utility.yul\":16395:16761   */\n    tag_246:\n        /* \"#utility.yul\":16537:16540   */\n      0x00\n        /* \"#utility.yul\":16558:16625   */\n      tag_406\n        /* \"#utility.yul\":16622:16624   */\n      0x17\n        /* \"#utility.yul\":16617:16620   */\n      dup4\n        /* \"#utility.yul\":16558:16625   */\n      tag_201\n      jump\t// in\n    tag_406:\n        /* \"#utility.yul\":16551:16625   */\n      swap2\n      pop\n        /* \"#utility.yul\":16634:16727   */\n      tag_407\n        /* \"#utility.yul\":16723:16726   */\n      dup3\n        /* \"#utility.yul\":16634:16727   */\n      tag_245\n      jump\t// in\n    tag_407:\n        /* \"#utility.yul\":16752:16754   */\n      0x20\n        /* \"#utility.yul\":16747:16750   */\n      dup3\n        /* \"#utility.yul\":16743:16755   */\n      add\n        /* \"#utility.yul\":16736:16755   */\n      swap1\n      pop\n        /* \"#utility.yul\":16395:16761   */\n      swap2\n      swap1\n      pop\n      jump\t// out\n        /* \"#utility.yul\":16767:17186   */\n    tag_157:\n        /* \"#utility.yul\":16933:16937   */\n      0x00\n        /* \"#utility.yul\":16971:16973   */\n      0x20\n        /* \"#utility.yul\":16960:16969   */\n      dup3\n        /* \"#utility.yul\":16956:16974   */\n      add\n        /* \"#utility.yul\":16948:16974   */\n      swap1\n      pop\n        /* \"#utility.yul\":17020:17029   */\n      dup2\n        /* \"#utility.yul\":17014:17018   */\n      dup2\n        /* \"#utility.yul\":17010:17030   */\n      sub\n        /* \"#utility.yul\":17006:17007   */\n      0x00\n        /* \"#utility.yul\":16995:17004   */\n      dup4\n        /* \"#utility.yul\":16991:17008   */\n      add\n        /* \"#utility.yul\":16984:17031   */\n      mstore\n        /* \"#utility.yul\":17048:17179   */\n      tag_409\n        /* \"#utility.yul\":17174:17178   */\n      dup2\n        /* \"#utility.yul\":17048:17179   */\n      tag_246\n      jump\t// in\n    tag_409:\n        /* \"#utility.yul\":17040:17179   */\n      swap1\n      pop\n        /* \"#utility.yul\":16767:17186   */\n      swap2\n      swap1\n      pop\n      jump\t// out\n        /* \"#utility.yul\":17192:17367   */\n    tag_247:\n        /* \"#utility.yul\":17332:17359   */\n      0x53656e64206174206c6561737420302e35302065746865722100000000000000\n        /* \"#utility.yul\":17328:17329   */\n      0x00\n        /* \"#utility.yul\":17320:17326   */\n      dup3\n        /* \"#utility.yul\":17316:17330   */\n      add\n        /* \"#utility.yul\":17309:17360   */\n      mstore\n        /* \"#utility.yul\":17192:17367   */\n      pop\n      jump\t// out\n        /* \"#utility.yul\":17373:17739   */\n    tag_248:\n        /* \"#utility.yul\":17515:17518   */\n      0x00\n        /* \"#utility.yul\":17536:17603   */\n      tag_412\n        /* \"#utility.yul\":17600:17602   */\n      0x19\n        /* \"#utility.yul\":17595:17598   */\n      dup4\n        /* \"#utility.yul\":17536:17603   */\n      tag_201\n      jump\t// in\n    tag_412:\n        /* \"#utility.yul\":17529:17603   */\n      swap2\n      pop\n        /* \"#utility.yul\":17612:17705   */\n      tag_413\n        /* \"#utility.yul\":17701:17704   */\n      dup3\n        /* \"#utility.yul\":17612:17705   */\n      tag_247\n      jump\t// in\n    tag_413:\n        /* \"#utility.yul\":17730:17732   */\n      0x20\n        /* \"#utility.yul\":17725:17728   */\n      dup3\n        /* \"#utility.yul\":17721:17733   */\n      add\n        /* \"#utility.yul\":17714:17733   */\n      swap1\n      pop\n        /* \"#utility.yul\":17373:17739   */\n      swap2\n      swap1\n      pop\n      jump\t// out\n        /* \"#utility.yul\":17745:18164   */\n    tag_163:\n        /* \"#utility.yul\":17911:17915   */\n      0x00\n        /* \"#utility.yul\":17949:17951   */\n      0x20\n        /* \"#utility.yul\":17938:17947   */\n      dup3\n        /* \"#utility.yul\":17934:17952   */\n      add\n        /* \"#utility.yul\":17926:17952   */\n      swap1\n      pop\n        /* \"#utility.yul\":17998:18007   */\n      dup2\n        /* \"#utility.yul\":17992:17996   */\n      dup2\n        /* \"#utility.yul\":17988:18008   */\n      sub\n        /* \"#utility.yul\":17984:17985   */\n      0x00\n        /* \"#utility.yul\":17973:17982   */\n      dup4\n        /* \"#utility.yul\":17969:17986   */\n      add\n        /* \"#utility.yul\":17962:18009   */\n      mstore\n        /* \"#utility.yul\":18026:18157   */\n      tag_415\n        /* \"#utility.yul\":18152:18156   */\n      dup2\n        /* \"#utility.yul\":18026:18157   */\n      tag_248\n      jump\t// in\n    tag_415:\n        /* \"#utility.yul\":18018:18157   */\n      swap1\n      pop\n        /* \"#utility.yul\":17745:18164   */\n      swap2\n      swap1\n      pop\n      jump\t// out\n        /* \"#utility.yul\":18170:18350   */\n    tag_174:\n        /* \"#utility.yul\":18218:18295   */\n      0x4e487b7100000000000000000000000000000000000000000000000000000000\n        /* \"#utility.yul\":18215:18216   */\n      0x00\n        /* \"#utility.yul\":18208:18296   */\n      mstore\n        /* \"#utility.yul\":18315:18319   */\n      0x32\n        /* \"#utility.yul\":18312:18313   */\n      0x04\n        /* \"#utility.yul\":18305:18320   */\n      mstore\n        /* \"#utility.yul\":18339:18343   */\n      0x24\n        /* \"#utility.yul\":18336:18337   */\n      0x00\n        /* \"#utility.yul\":18329:18344   */\n      revert\n\n    auxdata: 0xa2646970667358221220ba62f1c47b242224c876fda84461ac09fffed6402c5a6c4397e1a16081eabcb664736f6c634300080d0033\n}\n","bytecode":{"linkReferences":{},"object":"60806040526000600260006101000a81548160ff0219169083151502179055506000600260016101000a81548160ff0219169083151502179055503480156200004757600080fd5b50604051620020fa380380620020fa83398181016040528101906200006d9190620003e2565b84600360000190805190602001906200008892919062000130565b5083600360010160006101000a81548173ffffffffffffffffffffffffffffffffffffffff021916908373ffffffffffffffffffffffffffffffffffffffff1602179055508260036002019080519060200190620000e892919062000130565b506000600380018190555081600090805190602001906200010b92919062000130565b5080600190805190602001906200012492919062000130565b5050505050506200054a565b8280546200013e9062000515565b90600052602060002090601f016020900481019282620001625760008555620001ae565b82601f106200017d57805160ff1916838001178555620001ae565b82800160010185558215620001ae579182015b82811115620001ad57825182559160200191906001019062000190565b5b509050620001bd9190620001c1565b5090565b5b80821115620001dc576000816000905550600101620001c2565b5090565b6000604051905090565b600080fd5b600080fd5b600080fd5b600080fd5b6000601f19601f8301169050919050565b7f4e487b7100000000000000000000000000000000000000000000000000000000600052604160045260246000fd5b6200024982620001fe565b810181811067ffffffffffffffff821117156200026b576200026a6200020f565b5b80604052505050565b600062000280620001e0565b90506200028e82826200023e565b919050565b600067ffffffffffffffff821115620002b157620002b06200020f565b5b620002bc82620001fe565b9050602081019050919050565b60005b83811015620002e9578082015181840152602081019050620002cc565b83811115620002f9576000848401525b50505050565b600062000316620003108462000293565b62000274565b905082815260208101848484011115620003355762000334620001f9565b5b62000342848285620002c9565b509392505050565b600082601f830112620003625762000361620001f4565b5b815162000374848260208601620002ff565b91505092915050565b600073ffffffffffffffffffffffffffffffffffffffff82169050919050565b6000620003aa826200037d565b9050919050565b620003bc816200039d565b8114620003c857600080fd5b50565b600081519050620003dc81620003b1565b92915050565b600080600080600060a08688031215620004015762000400620001ea565b5b600086015167ffffffffffffffff811115620004225762000421620001ef565b5b62000430888289016200034a565b95505060206200044388828901620003cb565b945050604086015167ffffffffffffffff811115620004675762000466620001ef565b5b62000475888289016200034a565b935050606086015167ffffffffffffffff811115620004995762000498620001ef565b5b620004a7888289016200034a565b925050608086015167ffffffffffffffff811115620004cb57620004ca620001ef565b5b620004d9888289016200034a565b9150509295509295909350565b7f4e487b7100000000000000000000000000000000000000000000000000000000600052602260045260246000fd5b600060028204905060018216806200052e57607f821691505b602082108103620005445762000543620004e6565b5b50919050565b611ba0806200055a6000396000f3fe6080604052600436106100dd5760003560e01c80637284e4161161007f5780639c3bfcf6116100595780639c3bfcf614610285578063b8a7a3ab146102a1578063f9094303146102de578063fb7e92e0146102f5576100dd565b80637284e41614610204578063789d9e8a1461022f57806383d948b71461025a576100dd565b806335c1d349116100bb57806335c1d3491461014f578063481c6a751461018f5780634901d7ae146101bd5780635aa68ac0146101d9576100dd565b806316d8cb70146100e25780631b26586c1461010d5780631ec6b60a14610138575b600080fd5b3480156100ee57600080fd5b506100f7610332565b6040516101049190611269565b60405180910390f35b34801561011957600080fd5b50610122610338565b60405161012f919061131d565b60405180910390f35b34801561014457600080fd5b5061014d6103c6565b005b34801561015b57600080fd5b506101766004803603810190610171919061137f565b610476565b60405161018694939291906113ed565b60405180910390f35b34801561019b57600080fd5b506101a46105e6565b6040516101b494939291906113ed565b60405180910390f35b6101d760048036038101906101d291906115a1565b610734565b005b3480156101e557600080fd5b506101ee61090e565b6040516101fb91906117c0565b60405180910390f35b34801561021057600080fd5b50610219610af1565b604051610226919061131d565b60405180910390f35b34801561023b57600080fd5b50610244610b7f565b60405161025191906117fd565b60405180910390f35b34801561026657600080fd5b5061026f610b92565b60405161027c91906117fd565b60405180910390f35b61029f600480360381019061029a91906115a1565b610ba5565b005b3480156102ad57600080fd5b506102c860048036038101906102c39190611818565b610fff565b6040516102d591906117fd565b60405180910390f35b3480156102ea57600080fd5b506102f3611035565b005b34801561030157600080fd5b5061031c60048036038101906103179190611818565b6110e5565b60405161032991906117fd565b60405180910390f35b60095481565b6000805461034590611890565b80601f016020809104026020016040519081016040528092919081815260200182805461037190611890565b80156103be5780601f10610393576101008083540402835291602001916103be565b820191906000526020600020905b8154815290600101906020018083116103a157829003601f168201915b505050505081565b600360010160009054906101000a900473ffffffffffffffffffffffffffffffffffffffff1673ffffffffffffffffffffffffffffffffffffffff163373ffffffffffffffffffffffffffffffffffffffff1614610459576040517f08c379a00000000000000000000000000000000000000000000000000000000081526004016104509061190d565b60405180910390fd5b6001600260006101000a81548160ff021916908315150217905550565b6008818154811061048657600080fd5b90600052602060002090600402016000915090508060000180546104a990611890565b80601f01602080910402602001604051908101604052809291908181526020018280546104d590611890565b80156105225780601f106104f757610100808354040283529160200191610522565b820191906000526020600020905b81548152906001019060200180831161050557829003601f168201915b5050505050908060010160009054906101000a900473ffffffffffffffffffffffffffffffffffffffff169080600201805461055d90611890565b80601f016020809104026020016040519081016040528092919081815260200182805461058990611890565b80156105d65780601f106105ab576101008083540402835291602001916105d6565b820191906000526020600020905b8154815290600101906020018083116105b957829003601f168201915b5050505050908060030154905084565b60038060000180546105f790611890565b80601f016020809104026020016040519081016040528092919081815260200182805461062390611890565b80156106705780601f1061064557610100808354040283529160200191610670565b820191906000526020600020905b81548152906001019060200180831161065357829003601f168201915b5050505050908060010160009054906101000a900473ffffffffffffffffffffffffffffffffffffffff16908060020180546106ab90611890565b80601f01602080910402602001604051908101604052809291908181526020018280546106d790611890565b80156107245780601f106106f957610100808354040283529160200191610724565b820191906000526020600020905b81548152906001019060200180831161070757829003601f168201915b5050505050908060030154905084565b600360010160009054906101000a900473ffffffffffffffffffffffffffffffffffffffff1673ffffffffffffffffffffffffffffffffffffffff163373ffffffffffffffffffffffffffffffffffffffff16146107c7576040517f08c379a00000000000000000000000000000000000000000000000000000000081526004016107be9061190d565b60405180910390fd5b662386f26fc1000034116107da57600080fd5b6107e261111b565b83816000018190525082816020019073ffffffffffffffffffffffffffffffffffffffff16908173ffffffffffffffffffffffffffffffffffffffff168152505081816040018190525060008160600181815250506008819080600181540180825580915050600190039060005260206000209060040201600090919091909150600082015181600001908051906020019061087f929190611159565b5060208201518160010160006101000a81548173ffffffffffffffffffffffffffffffffffffffff021916908373ffffffffffffffffffffffffffffffffffffffff16021790555060408201518160020190805190602001906108e3929190611159565b50606082015181600301555050600760008154809291906109039061195c565b919050555050505050565b60606008805480602002602001604051908101604052809291908181526020016000905b82821015610ae8578382906000526020600020906004020160405180608001604052908160008201805461096590611890565b80601f016020809104026020016040519081016040528092919081815260200182805461099190611890565b80156109de5780601f106109b3576101008083540402835291602001916109de565b820191906000526020600020905b8154815290600101906020018083116109c157829003601f168201915b505050505081526020016001820160009054906101000a900473ffffffffffffffffffffffffffffffffffffffff1673ffffffffffffffffffffffffffffffffffffffff1673ffffffffffffffffffffffffffffffffffffffff168152602001600282018054610a4d90611890565b80601f0160208091040260200160405190810160405280929190818152602001828054610a7990611890565b8015610ac65780601f10610a9b57610100808354040283529160200191610ac6565b820191906000526020600020905b815481529060010190602001808311610aa957829003601f168201915b5050505050815260200160038201548152505081526020019060010190610932565b50505050905090565b60018054610afe90611890565b80601f0160208091040260200160405190810160405280929190818152602001828054610b2a90611890565b8015610b775780601f10610b4c57610100808354040283529160200191610b77565b820191906000526020600020905b815481529060010190602001808311610b5a57829003601f168201915b505050505081565b600260019054906101000a900460ff1681565b600260009054906101000a900460ff1681565b600260009054906101000a900460ff168015610bce5750600260019054906101000a900460ff16155b610c0d576040517f08c379a0000000000000000000000000000000000000000000000000000000008152600401610c04906119f0565b60405180910390fd5b600b81604051610c1d9190611a4c565b908152602001604051809103902060009054906101000a900460ff1615610c79576040517f08c379a0000000000000000000000000000000000000000000000000000000008152600401610c7090611aaf565b60405180910390fd5b600c81604051610c899190611a4c565b908152602001604051809103902060009054906101000a900460ff1615610ce5576040517f08c379a0000000000000000000000000000000000000000000000000000000008152600401610cdc90611aaf565b60405180910390fd5b6611c37937e08000341015610d2f576040517f08c379a0000000000000000000000000000000000000000000000000000000008152600401610d2690611b1b565b60405180910390fd5b610d376111df565b83816040018190525033816000019073ffffffffffffffffffffffffffffffffffffffff16908173ffffffffffffffffffffffffffffffffffffffff168152505081816020018190525082816060019073ffffffffffffffffffffffffffffffffffffffff16908173ffffffffffffffffffffffffffffffffffffffff1681525050600a81908060018154018082558091505060019003906000526020600020906004020160009091909190915060008201518160000160006101000a81548173ffffffffffffffffffffffffffffffffffffffff021916908373ffffffffffffffffffffffffffffffffffffffff1602179055506020820151816001019080519060200190610e48929190611159565b506040820151816002019080519060200190610e65929190611159565b5060608201518160030160006101000a81548173ffffffffffffffffffffffffffffffffffffffff021916908373ffffffffffffffffffffffffffffffffffffffff160217905550505060005b600880549050811015610f8a578373ffffffffffffffffffffffffffffffffffffffff1660088281548110610eea57610ee9611b3b565b5b906000526020600020906004020160010160009054906101000a900473ffffffffffffffffffffffffffffffffffffffff1673ffffffffffffffffffffffffffffffffffffffff1603610f775760088181548110610f4b57610f4a611b3b565b5b90600052602060002090600402016003016000815480929190610f6d9061195c565b9190505550610f8a565b8080610f829061195c565b915050610eb2565b506001600b83604051610f9d9190611a4c565b908152602001604051809103902060006101000a81548160ff0219169083151502179055506001600c83604051610fd49190611a4c565b908152602001604051809103902060006101000a81548160ff02191690831515021790555050505050565b600b818051602081018201805184825260208301602085012081835280955050505050506000915054906101000a900460ff1681565b600360010160009054906101000a900473ffffffffffffffffffffffffffffffffffffffff1673ffffffffffffffffffffffffffffffffffffffff163373ffffffffffffffffffffffffffffffffffffffff16146110c8576040517f08c379a00000000000000000000000000000000000000000000000000000000081526004016110bf9061190d565b60405180910390fd5b6001600260016101000a81548160ff021916908315150217905550565b600c818051602081018201805184825260208301602085012081835280955050505050506000915054906101000a900460ff1681565b604051806080016040528060608152602001600073ffffffffffffffffffffffffffffffffffffffff16815260200160608152602001600081525090565b82805461116590611890565b90600052602060002090601f01602090048101928261118757600085556111ce565b82601f106111a057805160ff19168380011785556111ce565b828001600101855582156111ce579182015b828111156111cd5782518255916020019190600101906111b2565b5b5090506111db9190611233565b5090565b6040518060800160405280600073ffffffffffffffffffffffffffffffffffffffff1681526020016060815260200160608152602001600073ffffffffffffffffffffffffffffffffffffffff1681525090565b5b8082111561124c576000816000905550600101611234565b5090565b6000819050919050565b61126381611250565b82525050565b600060208201905061127e600083018461125a565b92915050565b600081519050919050565b600082825260208201905092915050565b60005b838110156112be5780820151818401526020810190506112a3565b838111156112cd576000848401525b50505050565b6000601f19601f8301169050919050565b60006112ef82611284565b6112f9818561128f565b93506113098185602086016112a0565b611312816112d3565b840191505092915050565b6000602082019050818103600083015261133781846112e4565b905092915050565b6000604051905090565b600080fd5b600080fd5b61135c81611250565b811461136757600080fd5b50565b60008135905061137981611353565b92915050565b60006020828403121561139557611394611349565b5b60006113a38482850161136a565b91505092915050565b600073ffffffffffffffffffffffffffffffffffffffff82169050919050565b60006113d7826113ac565b9050919050565b6113e7816113cc565b82525050565b6000608082019050818103600083015261140781876112e4565b905061141660208301866113de565b818103604083015261142881856112e4565b9050611437606083018461125a565b95945050505050565b600080fd5b600080fd5b7f4e487b7100000000000000000000000000000000000000000000000000000000600052604160045260246000fd5b611482826112d3565b810181811067ffffffffffffffff821117156114a1576114a061144a565b5b80604052505050565b60006114b461133f565b90506114c08282611479565b919050565b600067ffffffffffffffff8211156114e0576114df61144a565b5b6114e9826112d3565b9050602081019050919050565b82818337600083830152505050565b6000611518611513846114c5565b6114aa565b90508281526020810184848401111561153457611533611445565b5b61153f8482856114f6565b509392505050565b600082601f83011261155c5761155b611440565b5b813561156c848260208601611505565b91505092915050565b61157e816113cc565b811461158957600080fd5b50565b60008135905061159b81611575565b92915050565b6000806000606084860312156115ba576115b9611349565b5b600084013567ffffffffffffffff8111156115d8576115d761134e565b5b6115e486828701611547565b93505060206115f58682870161158c565b925050604084013567ffffffffffffffff8111156116165761161561134e565b5b61162286828701611547565b9150509250925092565b600081519050919050565b600082825260208201905092915050565b6000819050602082019050919050565b600082825260208201905092915050565b600061167482611284565b61167e8185611658565b935061168e8185602086016112a0565b611697816112d3565b840191505092915050565b6116ab816113cc565b82525050565b6116ba81611250565b82525050565b600060808301600083015184820360008601526116dd8282611669565b91505060208301516116f260208601826116a2565b506040830151848203604086015261170a8282611669565b915050606083015161171f60608601826116b1565b508091505092915050565b600061173683836116c0565b905092915050565b6000602082019050919050565b60006117568261162c565b6117608185611637565b93508360208202850161177285611648565b8060005b858110156117ae578484038952815161178f858261172a565b945061179a8361173e565b925060208a01995050600181019050611776565b50829750879550505050505092915050565b600060208201905081810360008301526117da818461174b565b905092915050565b60008115159050919050565b6117f7816117e2565b82525050565b600060208201905061181260008301846117ee565b92915050565b60006020828403121561182e5761182d611349565b5b600082013567ffffffffffffffff81111561184c5761184b61134e565b5b61185884828501611547565b91505092915050565b7f4e487b7100000000000000000000000000000000000000000000000000000000600052602260045260246000fd5b600060028204905060018216806118a857607f821691505b6020821081036118bb576118ba611861565b5b50919050565b7f4f6e6c79206d616e616765722063616e206368616e6765207468697321000000600082015250565b60006118f7601d8361128f565b9150611902826118c1565b602082019050919050565b60006020820190508181036000830152611926816118ea565b9050919050565b7f4e487b7100000000000000000000000000000000000000000000000000000000600052601160045260246000fd5b600061196782611250565b91507fffffffffffffffffffffffffffffffffffffffffffffffffffffffffffffffff82036119995761199861192d565b5b600182019050919050565b7f566f74696e67206e6f7420737461727465642059657421000000000000000000600082015250565b60006119da60178361128f565b91506119e5826119a4565b602082019050919050565b60006020820190508181036000830152611a09816119cd565b9050919050565b600081905092915050565b6000611a2682611284565b611a308185611a10565b9350611a408185602086016112a0565b80840191505092915050565b6000611a588284611a1b565b915081905092915050565b7f596f75206861766520616c726561647920566f74656421000000000000000000600082015250565b6000611a9960178361128f565b9150611aa482611a63565b602082019050919050565b60006020820190508181036000830152611ac881611a8c565b9050919050565b7f53656e64206174206c6561737420302e35302065746865722100000000000000600082015250565b6000611b0560198361128f565b9150611b1082611acf565b602082019050919050565b60006020820190508181036000830152611b3481611af8565b9050919050565b7f4e487b7100000000000000000000000000000000000000000000000000000000600052603260045260246000fdfea2646970667358221220ba62f1c47b242224c876fda84461ac09fffed6402c5a6c4397e1a16081eabcb664736f6c634300080d0033","opcodes":"PUSH1 0x80 PUSH1 0x40 MSTORE PUSH1 0x0 PUSH1 0x2 PUSH1 0x0 PUSH2 0x100 EXP DUP2 SLOAD DUP2 PUSH1 0xFF MUL NOT AND SWAP1 DUP4 ISZERO ISZERO MUL OR SWAP1 SSTORE POP PUSH1 0x0 PUSH1 0x2 PUSH1 0x1 PUSH2 0x100 EXP DUP2 SLOAD DUP2 PUSH1 0xFF MUL NOT AND SWAP1 DUP4 ISZERO ISZERO MUL OR SWAP1 SSTORE POP CALLVALUE DUP1 ISZERO PUSH3 0x47 JUMPI PUSH1 0x0 DUP1 REVERT JUMPDEST POP PUSH1 0x40 MLOAD PUSH3 0x20FA CODESIZE SUB DUP1 PUSH3 0x20FA DUP4 CODECOPY DUP2 DUP2 ADD PUSH1 0x40 MSTORE DUP2 ADD SWAP1 PUSH3 0x6D SWAP2 SWAP1 PUSH3 0x3E2 JUMP JUMPDEST DUP5 PUSH1 0x3 PUSH1 0x0 ADD SWAP1 DUP1 MLOAD SWAP1 PUSH1 0x20 ADD SWAP1 PUSH3 0x88 SWAP3 SWAP2 SWAP1 PUSH3 0x130 JUMP JUMPDEST POP DUP4 PUSH1 0x3 PUSH1 0x1 ADD PUSH1 0x0 PUSH2 0x100 EXP DUP2 SLOAD DUP2 PUSH20 0xFFFFFFFFFFFFFFFFFFFFFFFFFFFFFFFFFFFFFFFF MUL NOT AND SWAP1 DUP4 PUSH20 0xFFFFFFFFFFFFFFFFFFFFFFFFFFFFFFFFFFFFFFFF AND MUL OR SWAP1 SSTORE POP DUP3 PUSH1 0x3 PUSH1 0x2 ADD SWAP1 DUP1 MLOAD SWAP1 PUSH1 0x20 ADD SWAP1 PUSH3 0xE8 SWAP3 SWAP2 SWAP1 PUSH3 0x130 JUMP JUMPDEST POP PUSH1 0x0 PUSH1 0x3 DUP1 ADD DUP2 SWAP1 SSTORE POP DUP2 PUSH1 0x0 SWAP1 DUP1 MLOAD SWAP1 PUSH1 0x20 ADD SWAP1 PUSH3 0x10B SWAP3 SWAP2 SWAP1 PUSH3 0x130 JUMP JUMPDEST POP DUP1 PUSH1 0x1 SWAP1 DUP1 MLOAD SWAP1 PUSH1 0x20 ADD SWAP1 PUSH3 0x124 SWAP3 SWAP2 SWAP1 PUSH3 0x130 JUMP JUMPDEST POP POP POP POP POP POP PUSH3 0x54A JUMP JUMPDEST DUP3 DUP1 SLOAD PUSH3 0x13E SWAP1 PUSH3 0x515 JUMP JUMPDEST SWAP1 PUSH1 0x0 MSTORE PUSH1 0x20 PUSH1 0x0 KECCAK256 SWAP1 PUSH1 0x1F ADD PUSH1 0x20 SWAP1 DIV DUP2 ADD SWAP3 DUP3 PUSH3 0x162 JUMPI PUSH1 0x0 DUP6 SSTORE PUSH3 0x1AE JUMP JUMPDEST DUP3 PUSH1 0x1F LT PUSH3 0x17D JUMPI DUP1 MLOAD PUSH1 0xFF NOT AND DUP4 DUP1 ADD OR DUP6 SSTORE PUSH3 0x1AE JUMP JUMPDEST DUP3 DUP1 ADD PUSH1 0x1 ADD DUP6 SSTORE DUP3 ISZERO PUSH3 0x1AE JUMPI SWAP2 DUP3 ADD JUMPDEST DUP3 DUP2 GT ISZERO PUSH3 0x1AD JUMPI DUP3 MLOAD DUP3 SSTORE SWAP2 PUSH1 0x20 ADD SWAP2 SWAP1 PUSH1 0x1 ADD SWAP1 PUSH3 0x190 JUMP JUMPDEST JUMPDEST POP SWAP1 POP PUSH3 0x1BD SWAP2 SWAP1 PUSH3 0x1C1 JUMP JUMPDEST POP SWAP1 JUMP JUMPDEST JUMPDEST DUP1 DUP3 GT ISZERO PUSH3 0x1DC JUMPI PUSH1 0x0 DUP2 PUSH1 0x0 SWAP1 SSTORE POP PUSH1 0x1 ADD PUSH3 0x1C2 JUMP JUMPDEST POP SWAP1 JUMP JUMPDEST PUSH1 0x0 PUSH1 0x40 MLOAD SWAP1 POP SWAP1 JUMP JUMPDEST PUSH1 0x0 DUP1 REVERT JUMPDEST PUSH1 0x0 DUP1 REVERT JUMPDEST PUSH1 0x0 DUP1 REVERT JUMPDEST PUSH1 0x0 DUP1 REVERT JUMPDEST PUSH1 0x0 PUSH1 0x1F NOT PUSH1 0x1F DUP4 ADD AND SWAP1 POP SWAP2 SWAP1 POP JUMP JUMPDEST PUSH32 0x4E487B7100000000000000000000000000000000000000000000000000000000 PUSH1 0x0 MSTORE PUSH1 0x41 PUSH1 0x4 MSTORE PUSH1 0x24 PUSH1 0x0 REVERT JUMPDEST PUSH3 0x249 DUP3 PUSH3 0x1FE JUMP JUMPDEST DUP2 ADD DUP2 DUP2 LT PUSH8 0xFFFFFFFFFFFFFFFF DUP3 GT OR ISZERO PUSH3 0x26B JUMPI PUSH3 0x26A PUSH3 0x20F JUMP JUMPDEST JUMPDEST DUP1 PUSH1 0x40 MSTORE POP POP POP JUMP JUMPDEST PUSH1 0x0 PUSH3 0x280 PUSH3 0x1E0 JUMP JUMPDEST SWAP1 POP PUSH3 0x28E DUP3 DUP3 PUSH3 0x23E JUMP JUMPDEST SWAP2 SWAP1 POP JUMP JUMPDEST PUSH1 0x0 PUSH8 0xFFFFFFFFFFFFFFFF DUP3 GT ISZERO PUSH3 0x2B1 JUMPI PUSH3 0x2B0 PUSH3 0x20F JUMP JUMPDEST JUMPDEST PUSH3 0x2BC DUP3 PUSH3 0x1FE JUMP JUMPDEST SWAP1 POP PUSH1 0x20 DUP2 ADD SWAP1 POP SWAP2 SWAP1 POP JUMP JUMPDEST PUSH1 0x0 JUMPDEST DUP4 DUP2 LT ISZERO PUSH3 0x2E9 JUMPI DUP1 DUP3 ADD MLOAD DUP2 DUP5 ADD MSTORE PUSH1 0x20 DUP2 ADD SWAP1 POP PUSH3 0x2CC JUMP JUMPDEST DUP4 DUP2 GT ISZERO PUSH3 0x2F9 JUMPI PUSH1 0x0 DUP5 DUP5 ADD MSTORE JUMPDEST POP POP POP POP JUMP JUMPDEST PUSH1 0x0 PUSH3 0x316 PUSH3 0x310 DUP5 PUSH3 0x293 JUMP JUMPDEST PUSH3 0x274 JUMP JUMPDEST SWAP1 POP DUP3 DUP2 MSTORE PUSH1 0x20 DUP2 ADD DUP5 DUP5 DUP5 ADD GT ISZERO PUSH3 0x335 JUMPI PUSH3 0x334 PUSH3 0x1F9 JUMP JUMPDEST JUMPDEST PUSH3 0x342 DUP5 DUP3 DUP6 PUSH3 0x2C9 JUMP JUMPDEST POP SWAP4 SWAP3 POP POP POP JUMP JUMPDEST PUSH1 0x0 DUP3 PUSH1 0x1F DUP4 ADD SLT PUSH3 0x362 JUMPI PUSH3 0x361 PUSH3 0x1F4 JUMP JUMPDEST JUMPDEST DUP2 MLOAD PUSH3 0x374 DUP5 DUP3 PUSH1 0x20 DUP7 ADD PUSH3 0x2FF JUMP JUMPDEST SWAP2 POP POP SWAP3 SWAP2 POP POP JUMP JUMPDEST PUSH1 0x0 PUSH20 0xFFFFFFFFFFFFFFFFFFFFFFFFFFFFFFFFFFFFFFFF DUP3 AND SWAP1 POP SWAP2 SWAP1 POP JUMP JUMPDEST PUSH1 0x0 PUSH3 0x3AA DUP3 PUSH3 0x37D JUMP JUMPDEST SWAP1 POP SWAP2 SWAP1 POP JUMP JUMPDEST PUSH3 0x3BC DUP2 PUSH3 0x39D JUMP JUMPDEST DUP2 EQ PUSH3 0x3C8 JUMPI PUSH1 0x0 DUP1 REVERT JUMPDEST POP JUMP JUMPDEST PUSH1 0x0 DUP2 MLOAD SWAP1 POP PUSH3 0x3DC DUP2 PUSH3 0x3B1 JUMP JUMPDEST SWAP3 SWAP2 POP POP JUMP JUMPDEST PUSH1 0x0 DUP1 PUSH1 0x0 DUP1 PUSH1 0x0 PUSH1 0xA0 DUP7 DUP9 SUB SLT ISZERO PUSH3 0x401 JUMPI PUSH3 0x400 PUSH3 0x1EA JUMP JUMPDEST JUMPDEST PUSH1 0x0 DUP7 ADD MLOAD PUSH8 0xFFFFFFFFFFFFFFFF DUP2 GT ISZERO PUSH3 0x422 JUMPI PUSH3 0x421 PUSH3 0x1EF JUMP JUMPDEST JUMPDEST PUSH3 0x430 DUP9 DUP3 DUP10 ADD PUSH3 0x34A JUMP JUMPDEST SWAP6 POP POP PUSH1 0x20 PUSH3 0x443 DUP9 DUP3 DUP10 ADD PUSH3 0x3CB JUMP JUMPDEST SWAP5 POP POP PUSH1 0x40 DUP7 ADD MLOAD PUSH8 0xFFFFFFFFFFFFFFFF DUP2 GT ISZERO PUSH3 0x467 JUMPI PUSH3 0x466 PUSH3 0x1EF JUMP JUMPDEST JUMPDEST PUSH3 0x475 DUP9 DUP3 DUP10 ADD PUSH3 0x34A JUMP JUMPDEST SWAP4 POP POP PUSH1 0x60 DUP7 ADD MLOAD PUSH8 0xFFFFFFFFFFFFFFFF DUP2 GT ISZERO PUSH3 0x499 JUMPI PUSH3 0x498 PUSH3 0x1EF JUMP JUMPDEST JUMPDEST PUSH3 0x4A7 DUP9 DUP3 DUP10 ADD PUSH3 0x34A JUMP JUMPDEST SWAP3 POP POP PUSH1 0x80 DUP7 ADD MLOAD PUSH8 0xFFFFFFFFFFFFFFFF DUP2 GT ISZERO PUSH3 0x4CB JUMPI PUSH3 0x4CA PUSH3 0x1EF JUMP JUMPDEST JUMPDEST PUSH3 0x4D9 DUP9 DUP3 DUP10 ADD PUSH3 0x34A JUMP JUMPDEST SWAP2 POP POP SWAP3 SWAP6 POP SWAP3 SWAP6 SWAP1 SWAP4 POP JUMP JUMPDEST PUSH32 0x4E487B7100000000000000000000000000000000000000000000000000000000 PUSH1 0x0 MSTORE PUSH1 0x22 PUSH1 0x4 MSTORE PUSH1 0x24 PUSH1 0x0 REVERT JUMPDEST PUSH1 0x0 PUSH1 0x2 DUP3 DIV SWAP1 POP PUSH1 0x1 DUP3 AND DUP1 PUSH3 0x52E JUMPI PUSH1 0x7F DUP3 AND SWAP2 POP JUMPDEST PUSH1 0x20 DUP3 LT DUP2 SUB PUSH3 0x544 JUMPI PUSH3 0x543 PUSH3 0x4E6 JUMP JUMPDEST JUMPDEST POP SWAP2 SWAP1 POP JUMP JUMPDEST PUSH2 0x1BA0 DUP1 PUSH3 0x55A PUSH1 0x0 CODECOPY PUSH1 0x0 RETURN INVALID PUSH1 0x80 PUSH1 0x40 MSTORE PUSH1 0x4 CALLDATASIZE LT PUSH2 0xDD JUMPI PUSH1 0x0 CALLDATALOAD PUSH1 0xE0 SHR DUP1 PUSH4 0x7284E416 GT PUSH2 0x7F JUMPI DUP1 PUSH4 0x9C3BFCF6 GT PUSH2 0x59 JUMPI DUP1 PUSH4 0x9C3BFCF6 EQ PUSH2 0x285 JUMPI DUP1 PUSH4 0xB8A7A3AB EQ PUSH2 0x2A1 JUMPI DUP1 PUSH4 0xF9094303 EQ PUSH2 0x2DE JUMPI DUP1 PUSH4 0xFB7E92E0 EQ PUSH2 0x2F5 JUMPI PUSH2 0xDD JUMP JUMPDEST DUP1 PUSH4 0x7284E416 EQ PUSH2 0x204 JUMPI DUP1 PUSH4 0x789D9E8A EQ PUSH2 0x22F JUMPI DUP1 PUSH4 0x83D948B7 EQ PUSH2 0x25A JUMPI PUSH2 0xDD JUMP JUMPDEST DUP1 PUSH4 0x35C1D349 GT PUSH2 0xBB JUMPI DUP1 PUSH4 0x35C1D349 EQ PUSH2 0x14F JUMPI DUP1 PUSH4 0x481C6A75 EQ PUSH2 0x18F JUMPI DUP1 PUSH4 0x4901D7AE EQ PUSH2 0x1BD JUMPI DUP1 PUSH4 0x5AA68AC0 EQ PUSH2 0x1D9 JUMPI PUSH2 0xDD JUMP JUMPDEST DUP1 PUSH4 0x16D8CB70 EQ PUSH2 0xE2 JUMPI DUP1 PUSH4 0x1B26586C EQ PUSH2 0x10D JUMPI DUP1 PUSH4 0x1EC6B60A EQ PUSH2 0x138 JUMPI JUMPDEST PUSH1 0x0 DUP1 REVERT JUMPDEST CALLVALUE DUP1 ISZERO PUSH2 0xEE JUMPI PUSH1 0x0 DUP1 REVERT JUMPDEST POP PUSH2 0xF7 PUSH2 0x332 JUMP JUMPDEST PUSH1 0x40 MLOAD PUSH2 0x104 SWAP2 SWAP1 PUSH2 0x1269 JUMP JUMPDEST PUSH1 0x40 MLOAD DUP1 SWAP2 SUB SWAP1 RETURN JUMPDEST CALLVALUE DUP1 ISZERO PUSH2 0x119 JUMPI PUSH1 0x0 DUP1 REVERT JUMPDEST POP PUSH2 0x122 PUSH2 0x338 JUMP JUMPDEST PUSH1 0x40 MLOAD PUSH2 0x12F SWAP2 SWAP1 PUSH2 0x131D JUMP JUMPDEST PUSH1 0x40 MLOAD DUP1 SWAP2 SUB SWAP1 RETURN JUMPDEST CALLVALUE DUP1 ISZERO PUSH2 0x144 JUMPI PUSH1 0x0 DUP1 REVERT JUMPDEST POP PUSH2 0x14D PUSH2 0x3C6 JUMP JUMPDEST STOP JUMPDEST CALLVALUE DUP1 ISZERO PUSH2 0x15B JUMPI PUSH1 0x0 DUP1 REVERT JUMPDEST POP PUSH2 0x176 PUSH1 0x4 DUP1 CALLDATASIZE SUB DUP2 ADD SWAP1 PUSH2 0x171 SWAP2 SWAP1 PUSH2 0x137F JUMP JUMPDEST PUSH2 0x476 JUMP JUMPDEST PUSH1 0x40 MLOAD PUSH2 0x186 SWAP5 SWAP4 SWAP3 SWAP2 SWAP1 PUSH2 0x13ED JUMP JUMPDEST PUSH1 0x40 MLOAD DUP1 SWAP2 SUB SWAP1 RETURN JUMPDEST CALLVALUE DUP1 ISZERO PUSH2 0x19B JUMPI PUSH1 0x0 DUP1 REVERT JUMPDEST POP PUSH2 0x1A4 PUSH2 0x5E6 JUMP JUMPDEST PUSH1 0x40 MLOAD PUSH2 0x1B4 SWAP5 SWAP4 SWAP3 SWAP2 SWAP1 PUSH2 0x13ED JUMP JUMPDEST PUSH1 0x40 MLOAD DUP1 SWAP2 SUB SWAP1 RETURN JUMPDEST PUSH2 0x1D7 PUSH1 0x4 DUP1 CALLDATASIZE SUB DUP2 ADD SWAP1 PUSH2 0x1D2 SWAP2 SWAP1 PUSH2 0x15A1 JUMP JUMPDEST PUSH2 0x734 JUMP JUMPDEST STOP JUMPDEST CALLVALUE DUP1 ISZERO PUSH2 0x1E5 JUMPI PUSH1 0x0 DUP1 REVERT JUMPDEST POP PUSH2 0x1EE PUSH2 0x90E JUMP JUMPDEST PUSH1 0x40 MLOAD PUSH2 0x1FB SWAP2 SWAP1 PUSH2 0x17C0 JUMP JUMPDEST PUSH1 0x40 MLOAD DUP1 SWAP2 SUB SWAP1 RETURN JUMPDEST CALLVALUE DUP1 ISZERO PUSH2 0x210 JUMPI PUSH1 0x0 DUP1 REVERT JUMPDEST POP PUSH2 0x219 PUSH2 0xAF1 JUMP JUMPDEST PUSH1 0x40 MLOAD PUSH2 0x226 SWAP2 SWAP1 PUSH2 0x131D JUMP JUMPDEST PUSH1 0x40 MLOAD DUP1 SWAP2 SUB SWAP1 RETURN JUMPDEST CALLVALUE DUP1 ISZERO PUSH2 0x23B JUMPI PUSH1 0x0 DUP1 REVERT JUMPDEST POP PUSH2 0x244 PUSH2 0xB7F JUMP JUMPDEST PUSH1 0x40 MLOAD PUSH2 0x251 SWAP2 SWAP1 PUSH2 0x17FD JUMP JUMPDEST PUSH1 0x40 MLOAD DUP1 SWAP2 SUB SWAP1 RETURN JUMPDEST CALLVALUE DUP1 ISZERO PUSH2 0x266 JUMPI PUSH1 0x0 DUP1 REVERT JUMPDEST POP PUSH2 0x26F PUSH2 0xB92 JUMP JUMPDEST PUSH1 0x40 MLOAD PUSH2 0x27C SWAP2 SWAP1 PUSH2 0x17FD JUMP JUMPDEST PUSH1 0x40 MLOAD DUP1 SWAP2 SUB SWAP1 RETURN JUMPDEST PUSH2 0x29F PUSH1 0x4 DUP1 CALLDATASIZE SUB DUP2 ADD SWAP1 PUSH2 0x29A SWAP2 SWAP1 PUSH2 0x15A1 JUMP JUMPDEST PUSH2 0xBA5 JUMP JUMPDEST STOP JUMPDEST CALLVALUE DUP1 ISZERO PUSH2 0x2AD JUMPI PUSH1 0x0 DUP1 REVERT JUMPDEST POP PUSH2 0x2C8 PUSH1 0x4 DUP1 CALLDATASIZE SUB DUP2 ADD SWAP1 PUSH2 0x2C3 SWAP2 SWAP1 PUSH2 0x1818 JUMP JUMPDEST PUSH2 0xFFF JUMP JUMPDEST PUSH1 0x40 MLOAD PUSH2 0x2D5 SWAP2 SWAP1 PUSH2 0x17FD JUMP JUMPDEST PUSH1 0x40 MLOAD DUP1 SWAP2 SUB SWAP1 RETURN JUMPDEST CALLVALUE DUP1 ISZERO PUSH2 0x2EA JUMPI PUSH1 0x0 DUP1 REVERT JUMPDEST POP PUSH2 0x2F3 PUSH2 0x1035 JUMP JUMPDEST STOP JUMPDEST CALLVALUE DUP1 ISZERO PUSH2 0x301 JUMPI PUSH1 0x0 DUP1 REVERT JUMPDEST POP PUSH2 0x31C PUSH1 0x4 DUP1 CALLDATASIZE SUB DUP2 ADD SWAP1 PUSH2 0x317 SWAP2 SWAP1 PUSH2 0x1818 JUMP JUMPDEST PUSH2 0x10E5 JUMP JUMPDEST PUSH1 0x40 MLOAD PUSH2 0x329 SWAP2 SWAP1 PUSH2 0x17FD JUMP JUMPDEST PUSH1 0x40 MLOAD DUP1 SWAP2 SUB SWAP1 RETURN JUMPDEST PUSH1 0x9 SLOAD DUP2 JUMP JUMPDEST PUSH1 0x0 DUP1 SLOAD PUSH2 0x345 SWAP1 PUSH2 0x1890 JUMP JUMPDEST DUP1 PUSH1 0x1F ADD PUSH1 0x20 DUP1 SWAP2 DIV MUL PUSH1 0x20 ADD PUSH1 0x40 MLOAD SWAP1 DUP2 ADD PUSH1 0x40 MSTORE DUP1 SWAP3 SWAP2 SWAP1 DUP2 DUP2 MSTORE PUSH1 0x20 ADD DUP3 DUP1 SLOAD PUSH2 0x371 SWAP1 PUSH2 0x1890 JUMP JUMPDEST DUP1 ISZERO PUSH2 0x3BE JUMPI DUP1 PUSH1 0x1F LT PUSH2 0x393 JUMPI PUSH2 0x100 DUP1 DUP4 SLOAD DIV MUL DUP4 MSTORE SWAP2 PUSH1 0x20 ADD SWAP2 PUSH2 0x3BE JUMP JUMPDEST DUP3 ADD SWAP2 SWAP1 PUSH1 0x0 MSTORE PUSH1 0x20 PUSH1 0x0 KECCAK256 SWAP1 JUMPDEST DUP2 SLOAD DUP2 MSTORE SWAP1 PUSH1 0x1 ADD SWAP1 PUSH1 0x20 ADD DUP1 DUP4 GT PUSH2 0x3A1 JUMPI DUP3 SWAP1 SUB PUSH1 0x1F AND DUP3 ADD SWAP2 JUMPDEST POP POP POP POP POP DUP2 JUMP JUMPDEST PUSH1 0x3 PUSH1 0x1 ADD PUSH1 0x0 SWAP1 SLOAD SWAP1 PUSH2 0x100 EXP SWAP1 DIV PUSH20 0xFFFFFFFFFFFFFFFFFFFFFFFFFFFFFFFFFFFFFFFF AND PUSH20 0xFFFFFFFFFFFFFFFFFFFFFFFFFFFFFFFFFFFFFFFF AND CALLER PUSH20 0xFFFFFFFFFFFFFFFFFFFFFFFFFFFFFFFFFFFFFFFF AND EQ PUSH2 0x459 JUMPI PUSH1 0x40 MLOAD PUSH32 0x8C379A000000000000000000000000000000000000000000000000000000000 DUP2 MSTORE PUSH1 0x4 ADD PUSH2 0x450 SWAP1 PUSH2 0x190D JUMP JUMPDEST PUSH1 0x40 MLOAD DUP1 SWAP2 SUB SWAP1 REVERT JUMPDEST PUSH1 0x1 PUSH1 0x2 PUSH1 0x0 PUSH2 0x100 EXP DUP2 SLOAD DUP2 PUSH1 0xFF MUL NOT AND SWAP1 DUP4 ISZERO ISZERO MUL OR SWAP1 SSTORE POP JUMP JUMPDEST PUSH1 0x8 DUP2 DUP2 SLOAD DUP2 LT PUSH2 0x486 JUMPI PUSH1 0x0 DUP1 REVERT JUMPDEST SWAP1 PUSH1 0x0 MSTORE PUSH1 0x20 PUSH1 0x0 KECCAK256 SWAP1 PUSH1 0x4 MUL ADD PUSH1 0x0 SWAP2 POP SWAP1 POP DUP1 PUSH1 0x0 ADD DUP1 SLOAD PUSH2 0x4A9 SWAP1 PUSH2 0x1890 JUMP JUMPDEST DUP1 PUSH1 0x1F ADD PUSH1 0x20 DUP1 SWAP2 DIV MUL PUSH1 0x20 ADD PUSH1 0x40 MLOAD SWAP1 DUP2 ADD PUSH1 0x40 MSTORE DUP1 SWAP3 SWAP2 SWAP1 DUP2 DUP2 MSTORE PUSH1 0x20 ADD DUP3 DUP1 SLOAD PUSH2 0x4D5 SWAP1 PUSH2 0x1890 JUMP JUMPDEST DUP1 ISZERO PUSH2 0x522 JUMPI DUP1 PUSH1 0x1F LT PUSH2 0x4F7 JUMPI PUSH2 0x100 DUP1 DUP4 SLOAD DIV MUL DUP4 MSTORE SWAP2 PUSH1 0x20 ADD SWAP2 PUSH2 0x522 JUMP JUMPDEST DUP3 ADD SWAP2 SWAP1 PUSH1 0x0 MSTORE PUSH1 0x20 PUSH1 0x0 KECCAK256 SWAP1 JUMPDEST DUP2 SLOAD DUP2 MSTORE SWAP1 PUSH1 0x1 ADD SWAP1 PUSH1 0x20 ADD DUP1 DUP4 GT PUSH2 0x505 JUMPI DUP3 SWAP1 SUB PUSH1 0x1F AND DUP3 ADD SWAP2 JUMPDEST POP POP POP POP POP SWAP1 DUP1 PUSH1 0x1 ADD PUSH1 0x0 SWAP1 SLOAD SWAP1 PUSH2 0x100 EXP SWAP1 DIV PUSH20 0xFFFFFFFFFFFFFFFFFFFFFFFFFFFFFFFFFFFFFFFF AND SWAP1 DUP1 PUSH1 0x2 ADD DUP1 SLOAD PUSH2 0x55D SWAP1 PUSH2 0x1890 JUMP JUMPDEST DUP1 PUSH1 0x1F ADD PUSH1 0x20 DUP1 SWAP2 DIV MUL PUSH1 0x20 ADD PUSH1 0x40 MLOAD SWAP1 DUP2 ADD PUSH1 0x40 MSTORE DUP1 SWAP3 SWAP2 SWAP1 DUP2 DUP2 MSTORE PUSH1 0x20 ADD DUP3 DUP1 SLOAD PUSH2 0x589 SWAP1 PUSH2 0x1890 JUMP JUMPDEST DUP1 ISZERO PUSH2 0x5D6 JUMPI DUP1 PUSH1 0x1F LT PUSH2 0x5AB JUMPI PUSH2 0x100 DUP1 DUP4 SLOAD DIV MUL DUP4 MSTORE SWAP2 PUSH1 0x20 ADD SWAP2 PUSH2 0x5D6 JUMP JUMPDEST DUP3 ADD SWAP2 SWAP1 PUSH1 0x0 MSTORE PUSH1 0x20 PUSH1 0x0 KECCAK256 SWAP1 JUMPDEST DUP2 SLOAD DUP2 MSTORE SWAP1 PUSH1 0x1 ADD SWAP1 PUSH1 0x20 ADD DUP1 DUP4 GT PUSH2 0x5B9 JUMPI DUP3 SWAP1 SUB PUSH1 0x1F AND DUP3 ADD SWAP2 JUMPDEST POP POP POP POP POP SWAP1 DUP1 PUSH1 0x3 ADD SLOAD SWAP1 POP DUP5 JUMP JUMPDEST PUSH1 0x3 DUP1 PUSH1 0x0 ADD DUP1 SLOAD PUSH2 0x5F7 SWAP1 PUSH2 0x1890 JUMP JUMPDEST DUP1 PUSH1 0x1F ADD PUSH1 0x20 DUP1 SWAP2 DIV MUL PUSH1 0x20 ADD PUSH1 0x40 MLOAD SWAP1 DUP2 ADD PUSH1 0x40 MSTORE DUP1 SWAP3 SWAP2 SWAP1 DUP2 DUP2 MSTORE PUSH1 0x20 ADD DUP3 DUP1 SLOAD PUSH2 0x623 SWAP1 PUSH2 0x1890 JUMP JUMPDEST DUP1 ISZERO PUSH2 0x670 JUMPI DUP1 PUSH1 0x1F LT PUSH2 0x645 JUMPI PUSH2 0x100 DUP1 DUP4 SLOAD DIV MUL DUP4 MSTORE SWAP2 PUSH1 0x20 ADD SWAP2 PUSH2 0x670 JUMP JUMPDEST DUP3 ADD SWAP2 SWAP1 PUSH1 0x0 MSTORE PUSH1 0x20 PUSH1 0x0 KECCAK256 SWAP1 JUMPDEST DUP2 SLOAD DUP2 MSTORE SWAP1 PUSH1 0x1 ADD SWAP1 PUSH1 0x20 ADD DUP1 DUP4 GT PUSH2 0x653 JUMPI DUP3 SWAP1 SUB PUSH1 0x1F AND DUP3 ADD SWAP2 JUMPDEST POP POP POP POP POP SWAP1 DUP1 PUSH1 0x1 ADD PUSH1 0x0 SWAP1 SLOAD SWAP1 PUSH2 0x100 EXP SWAP1 DIV PUSH20 0xFFFFFFFFFFFFFFFFFFFFFFFFFFFFFFFFFFFFFFFF AND SWAP1 DUP1 PUSH1 0x2 ADD DUP1 SLOAD PUSH2 0x6AB SWAP1 PUSH2 0x1890 JUMP JUMPDEST DUP1 PUSH1 0x1F ADD PUSH1 0x20 DUP1 SWAP2 DIV MUL PUSH1 0x20 ADD PUSH1 0x40 MLOAD SWAP1 DUP2 ADD PUSH1 0x40 MSTORE DUP1 SWAP3 SWAP2 SWAP1 DUP2 DUP2 MSTORE PUSH1 0x20 ADD DUP3 DUP1 SLOAD PUSH2 0x6D7 SWAP1 PUSH2 0x1890 JUMP JUMPDEST DUP1 ISZERO PUSH2 0x724 JUMPI DUP1 PUSH1 0x1F LT PUSH2 0x6F9 JUMPI PUSH2 0x100 DUP1 DUP4 SLOAD DIV MUL DUP4 MSTORE SWAP2 PUSH1 0x20 ADD SWAP2 PUSH2 0x724 JUMP JUMPDEST DUP3 ADD SWAP2 SWAP1 PUSH1 0x0 MSTORE PUSH1 0x20 PUSH1 0x0 KECCAK256 SWAP1 JUMPDEST DUP2 SLOAD DUP2 MSTORE SWAP1 PUSH1 0x1 ADD SWAP1 PUSH1 0x20 ADD DUP1 DUP4 GT PUSH2 0x707 JUMPI DUP3 SWAP1 SUB PUSH1 0x1F AND DUP3 ADD SWAP2 JUMPDEST POP POP POP POP POP SWAP1 DUP1 PUSH1 0x3 ADD SLOAD SWAP1 POP DUP5 JUMP JUMPDEST PUSH1 0x3 PUSH1 0x1 ADD PUSH1 0x0 SWAP1 SLOAD SWAP1 PUSH2 0x100 EXP SWAP1 DIV PUSH20 0xFFFFFFFFFFFFFFFFFFFFFFFFFFFFFFFFFFFFFFFF AND PUSH20 0xFFFFFFFFFFFFFFFFFFFFFFFFFFFFFFFFFFFFFFFF AND CALLER PUSH20 0xFFFFFFFFFFFFFFFFFFFFFFFFFFFFFFFFFFFFFFFF AND EQ PUSH2 0x7C7 JUMPI PUSH1 0x40 MLOAD PUSH32 0x8C379A000000000000000000000000000000000000000000000000000000000 DUP2 MSTORE PUSH1 0x4 ADD PUSH2 0x7BE SWAP1 PUSH2 0x190D JUMP JUMPDEST PUSH1 0x40 MLOAD DUP1 SWAP2 SUB SWAP1 REVERT JUMPDEST PUSH7 0x2386F26FC10000 CALLVALUE GT PUSH2 0x7DA JUMPI PUSH1 0x0 DUP1 REVERT JUMPDEST PUSH2 0x7E2 PUSH2 0x111B JUMP JUMPDEST DUP4 DUP2 PUSH1 0x0 ADD DUP2 SWAP1 MSTORE POP DUP3 DUP2 PUSH1 0x20 ADD SWAP1 PUSH20 0xFFFFFFFFFFFFFFFFFFFFFFFFFFFFFFFFFFFFFFFF AND SWAP1 DUP2 PUSH20 0xFFFFFFFFFFFFFFFFFFFFFFFFFFFFFFFFFFFFFFFF AND DUP2 MSTORE POP POP DUP2 DUP2 PUSH1 0x40 ADD DUP2 SWAP1 MSTORE POP PUSH1 0x0 DUP2 PUSH1 0x60 ADD DUP2 DUP2 MSTORE POP POP PUSH1 0x8 DUP2 SWAP1 DUP1 PUSH1 0x1 DUP2 SLOAD ADD DUP1 DUP3 SSTORE DUP1 SWAP2 POP POP PUSH1 0x1 SWAP1 SUB SWAP1 PUSH1 0x0 MSTORE PUSH1 0x20 PUSH1 0x0 KECCAK256 SWAP1 PUSH1 0x4 MUL ADD PUSH1 0x0 SWAP1 SWAP2 SWAP1 SWAP2 SWAP1 SWAP2 POP PUSH1 0x0 DUP3 ADD MLOAD DUP2 PUSH1 0x0 ADD SWAP1 DUP1 MLOAD SWAP1 PUSH1 0x20 ADD SWAP1 PUSH2 0x87F SWAP3 SWAP2 SWAP1 PUSH2 0x1159 JUMP JUMPDEST POP PUSH1 0x20 DUP3 ADD MLOAD DUP2 PUSH1 0x1 ADD PUSH1 0x0 PUSH2 0x100 EXP DUP2 SLOAD DUP2 PUSH20 0xFFFFFFFFFFFFFFFFFFFFFFFFFFFFFFFFFFFFFFFF MUL NOT AND SWAP1 DUP4 PUSH20 0xFFFFFFFFFFFFFFFFFFFFFFFFFFFFFFFFFFFFFFFF AND MUL OR SWAP1 SSTORE POP PUSH1 0x40 DUP3 ADD MLOAD DUP2 PUSH1 0x2 ADD SWAP1 DUP1 MLOAD SWAP1 PUSH1 0x20 ADD SWAP1 PUSH2 0x8E3 SWAP3 SWAP2 SWAP1 PUSH2 0x1159 JUMP JUMPDEST POP PUSH1 0x60 DUP3 ADD MLOAD DUP2 PUSH1 0x3 ADD SSTORE POP POP PUSH1 0x7 PUSH1 0x0 DUP2 SLOAD DUP1 SWAP3 SWAP2 SWAP1 PUSH2 0x903 SWAP1 PUSH2 0x195C JUMP JUMPDEST SWAP2 SWAP1 POP SSTORE POP POP POP POP POP JUMP JUMPDEST PUSH1 0x60 PUSH1 0x8 DUP1 SLOAD DUP1 PUSH1 0x20 MUL PUSH1 0x20 ADD PUSH1 0x40 MLOAD SWAP1 DUP2 ADD PUSH1 0x40 MSTORE DUP1 SWAP3 SWAP2 SWAP1 DUP2 DUP2 MSTORE PUSH1 0x20 ADD PUSH1 0x0 SWAP1 JUMPDEST DUP3 DUP3 LT ISZERO PUSH2 0xAE8 JUMPI DUP4 DUP3 SWAP1 PUSH1 0x0 MSTORE PUSH1 0x20 PUSH1 0x0 KECCAK256 SWAP1 PUSH1 0x4 MUL ADD PUSH1 0x40 MLOAD DUP1 PUSH1 0x80 ADD PUSH1 0x40 MSTORE SWAP1 DUP2 PUSH1 0x0 DUP3 ADD DUP1 SLOAD PUSH2 0x965 SWAP1 PUSH2 0x1890 JUMP JUMPDEST DUP1 PUSH1 0x1F ADD PUSH1 0x20 DUP1 SWAP2 DIV MUL PUSH1 0x20 ADD PUSH1 0x40 MLOAD SWAP1 DUP2 ADD PUSH1 0x40 MSTORE DUP1 SWAP3 SWAP2 SWAP1 DUP2 DUP2 MSTORE PUSH1 0x20 ADD DUP3 DUP1 SLOAD PUSH2 0x991 SWAP1 PUSH2 0x1890 JUMP JUMPDEST DUP1 ISZERO PUSH2 0x9DE JUMPI DUP1 PUSH1 0x1F LT PUSH2 0x9B3 JUMPI PUSH2 0x100 DUP1 DUP4 SLOAD DIV MUL DUP4 MSTORE SWAP2 PUSH1 0x20 ADD SWAP2 PUSH2 0x9DE JUMP JUMPDEST DUP3 ADD SWAP2 SWAP1 PUSH1 0x0 MSTORE PUSH1 0x20 PUSH1 0x0 KECCAK256 SWAP1 JUMPDEST DUP2 SLOAD DUP2 MSTORE SWAP1 PUSH1 0x1 ADD SWAP1 PUSH1 0x20 ADD DUP1 DUP4 GT PUSH2 0x9C1 JUMPI DUP3 SWAP1 SUB PUSH1 0x1F AND DUP3 ADD SWAP2 JUMPDEST POP POP POP POP POP DUP2 MSTORE PUSH1 0x20 ADD PUSH1 0x1 DUP3 ADD PUSH1 0x0 SWAP1 SLOAD SWAP1 PUSH2 0x100 EXP SWAP1 DIV PUSH20 0xFFFFFFFFFFFFFFFFFFFFFFFFFFFFFFFFFFFFFFFF AND PUSH20 0xFFFFFFFFFFFFFFFFFFFFFFFFFFFFFFFFFFFFFFFF AND PUSH20 0xFFFFFFFFFFFFFFFFFFFFFFFFFFFFFFFFFFFFFFFF AND DUP2 MSTORE PUSH1 0x20 ADD PUSH1 0x2 DUP3 ADD DUP1 SLOAD PUSH2 0xA4D SWAP1 PUSH2 0x1890 JUMP JUMPDEST DUP1 PUSH1 0x1F ADD PUSH1 0x20 DUP1 SWAP2 DIV MUL PUSH1 0x20 ADD PUSH1 0x40 MLOAD SWAP1 DUP2 ADD PUSH1 0x40 MSTORE DUP1 SWAP3 SWAP2 SWAP1 DUP2 DUP2 MSTORE PUSH1 0x20 ADD DUP3 DUP1 SLOAD PUSH2 0xA79 SWAP1 PUSH2 0x1890 JUMP JUMPDEST DUP1 ISZERO PUSH2 0xAC6 JUMPI DUP1 PUSH1 0x1F LT PUSH2 0xA9B JUMPI PUSH2 0x100 DUP1 DUP4 SLOAD DIV MUL DUP4 MSTORE SWAP2 PUSH1 0x20 ADD SWAP2 PUSH2 0xAC6 JUMP JUMPDEST DUP3 ADD SWAP2 SWAP1 PUSH1 0x0 MSTORE PUSH1 0x20 PUSH1 0x0 KECCAK256 SWAP1 JUMPDEST DUP2 SLOAD DUP2 MSTORE SWAP1 PUSH1 0x1 ADD SWAP1 PUSH1 0x20 ADD DUP1 DUP4 GT PUSH2 0xAA9 JUMPI DUP3 SWAP1 SUB PUSH1 0x1F AND DUP3 ADD SWAP2 JUMPDEST POP POP POP POP POP DUP2 MSTORE PUSH1 0x20 ADD PUSH1 0x3 DUP3 ADD SLOAD DUP2 MSTORE POP POP DUP2 MSTORE PUSH1 0x20 ADD SWAP1 PUSH1 0x1 ADD SWAP1 PUSH2 0x932 JUMP JUMPDEST POP POP POP POP SWAP1 POP SWAP1 JUMP JUMPDEST PUSH1 0x1 DUP1 SLOAD PUSH2 0xAFE SWAP1 PUSH2 0x1890 JUMP JUMPDEST DUP1 PUSH1 0x1F ADD PUSH1 0x20 DUP1 SWAP2 DIV MUL PUSH1 0x20 ADD PUSH1 0x40 MLOAD SWAP1 DUP2 ADD PUSH1 0x40 MSTORE DUP1 SWAP3 SWAP2 SWAP1 DUP2 DUP2 MSTORE PUSH1 0x20 ADD DUP3 DUP1 SLOAD PUSH2 0xB2A SWAP1 PUSH2 0x1890 JUMP JUMPDEST DUP1 ISZERO PUSH2 0xB77 JUMPI DUP1 PUSH1 0x1F LT PUSH2 0xB4C JUMPI PUSH2 0x100 DUP1 DUP4 SLOAD DIV MUL DUP4 MSTORE SWAP2 PUSH1 0x20 ADD SWAP2 PUSH2 0xB77 JUMP JUMPDEST DUP3 ADD SWAP2 SWAP1 PUSH1 0x0 MSTORE PUSH1 0x20 PUSH1 0x0 KECCAK256 SWAP1 JUMPDEST DUP2 SLOAD DUP2 MSTORE SWAP1 PUSH1 0x1 ADD SWAP1 PUSH1 0x20 ADD DUP1 DUP4 GT PUSH2 0xB5A JUMPI DUP3 SWAP1 SUB PUSH1 0x1F AND DUP3 ADD SWAP2 JUMPDEST POP POP POP POP POP DUP2 JUMP JUMPDEST PUSH1 0x2 PUSH1 0x1 SWAP1 SLOAD SWAP1 PUSH2 0x100 EXP SWAP1 DIV PUSH1 0xFF AND DUP2 JUMP JUMPDEST PUSH1 0x2 PUSH1 0x0 SWAP1 SLOAD SWAP1 PUSH2 0x100 EXP SWAP1 DIV PUSH1 0xFF AND DUP2 JUMP JUMPDEST PUSH1 0x2 PUSH1 0x0 SWAP1 SLOAD SWAP1 PUSH2 0x100 EXP SWAP1 DIV PUSH1 0xFF AND DUP1 ISZERO PUSH2 0xBCE JUMPI POP PUSH1 0x2 PUSH1 0x1 SWAP1 SLOAD SWAP1 PUSH2 0x100 EXP SWAP1 DIV PUSH1 0xFF AND ISZERO JUMPDEST PUSH2 0xC0D JUMPI PUSH1 0x40 MLOAD PUSH32 0x8C379A000000000000000000000000000000000000000000000000000000000 DUP2 MSTORE PUSH1 0x4 ADD PUSH2 0xC04 SWAP1 PUSH2 0x19F0 JUMP JUMPDEST PUSH1 0x40 MLOAD DUP1 SWAP2 SUB SWAP1 REVERT JUMPDEST PUSH1 0xB DUP2 PUSH1 0x40 MLOAD PUSH2 0xC1D SWAP2 SWAP1 PUSH2 0x1A4C JUMP JUMPDEST SWAP1 DUP2 MSTORE PUSH1 0x20 ADD PUSH1 0x40 MLOAD DUP1 SWAP2 SUB SWAP1 KECCAK256 PUSH1 0x0 SWAP1 SLOAD SWAP1 PUSH2 0x100 EXP SWAP1 DIV PUSH1 0xFF AND ISZERO PUSH2 0xC79 JUMPI PUSH1 0x40 MLOAD PUSH32 0x8C379A000000000000000000000000000000000000000000000000000000000 DUP2 MSTORE PUSH1 0x4 ADD PUSH2 0xC70 SWAP1 PUSH2 0x1AAF JUMP JUMPDEST PUSH1 0x40 MLOAD DUP1 SWAP2 SUB SWAP1 REVERT JUMPDEST PUSH1 0xC DUP2 PUSH1 0x40 MLOAD PUSH2 0xC89 SWAP2 SWAP1 PUSH2 0x1A4C JUMP JUMPDEST SWAP1 DUP2 MSTORE PUSH1 0x20 ADD PUSH1 0x40 MLOAD DUP1 SWAP2 SUB SWAP1 KECCAK256 PUSH1 0x0 SWAP1 SLOAD SWAP1 PUSH2 0x100 EXP SWAP1 DIV PUSH1 0xFF AND ISZERO PUSH2 0xCE5 JUMPI PUSH1 0x40 MLOAD PUSH32 0x8C379A000000000000000000000000000000000000000000000000000000000 DUP2 MSTORE PUSH1 0x4 ADD PUSH2 0xCDC SWAP1 PUSH2 0x1AAF JUMP JUMPDEST PUSH1 0x40 MLOAD DUP1 SWAP2 SUB SWAP1 REVERT JUMPDEST PUSH7 0x11C37937E08000 CALLVALUE LT ISZERO PUSH2 0xD2F JUMPI PUSH1 0x40 MLOAD PUSH32 0x8C379A000000000000000000000000000000000000000000000000000000000 DUP2 MSTORE PUSH1 0x4 ADD PUSH2 0xD26 SWAP1 PUSH2 0x1B1B JUMP JUMPDEST PUSH1 0x40 MLOAD DUP1 SWAP2 SUB SWAP1 REVERT JUMPDEST PUSH2 0xD37 PUSH2 0x11DF JUMP JUMPDEST DUP4 DUP2 PUSH1 0x40 ADD DUP2 SWAP1 MSTORE POP CALLER DUP2 PUSH1 0x0 ADD SWAP1 PUSH20 0xFFFFFFFFFFFFFFFFFFFFFFFFFFFFFFFFFFFFFFFF AND SWAP1 DUP2 PUSH20 0xFFFFFFFFFFFFFFFFFFFFFFFFFFFFFFFFFFFFFFFF AND DUP2 MSTORE POP POP DUP2 DUP2 PUSH1 0x20 ADD DUP2 SWAP1 MSTORE POP DUP3 DUP2 PUSH1 0x60 ADD SWAP1 PUSH20 0xFFFFFFFFFFFFFFFFFFFFFFFFFFFFFFFFFFFFFFFF AND SWAP1 DUP2 PUSH20 0xFFFFFFFFFFFFFFFFFFFFFFFFFFFFFFFFFFFFFFFF AND DUP2 MSTORE POP POP PUSH1 0xA DUP2 SWAP1 DUP1 PUSH1 0x1 DUP2 SLOAD ADD DUP1 DUP3 SSTORE DUP1 SWAP2 POP POP PUSH1 0x1 SWAP1 SUB SWAP1 PUSH1 0x0 MSTORE PUSH1 0x20 PUSH1 0x0 KECCAK256 SWAP1 PUSH1 0x4 MUL ADD PUSH1 0x0 SWAP1 SWAP2 SWAP1 SWAP2 SWAP1 SWAP2 POP PUSH1 0x0 DUP3 ADD MLOAD DUP2 PUSH1 0x0 ADD PUSH1 0x0 PUSH2 0x100 EXP DUP2 SLOAD DUP2 PUSH20 0xFFFFFFFFFFFFFFFFFFFFFFFFFFFFFFFFFFFFFFFF MUL NOT AND SWAP1 DUP4 PUSH20 0xFFFFFFFFFFFFFFFFFFFFFFFFFFFFFFFFFFFFFFFF AND MUL OR SWAP1 SSTORE POP PUSH1 0x20 DUP3 ADD MLOAD DUP2 PUSH1 0x1 ADD SWAP1 DUP1 MLOAD SWAP1 PUSH1 0x20 ADD SWAP1 PUSH2 0xE48 SWAP3 SWAP2 SWAP1 PUSH2 0x1159 JUMP JUMPDEST POP PUSH1 0x40 DUP3 ADD MLOAD DUP2 PUSH1 0x2 ADD SWAP1 DUP1 MLOAD SWAP1 PUSH1 0x20 ADD SWAP1 PUSH2 0xE65 SWAP3 SWAP2 SWAP1 PUSH2 0x1159 JUMP JUMPDEST POP PUSH1 0x60 DUP3 ADD MLOAD DUP2 PUSH1 0x3 ADD PUSH1 0x0 PUSH2 0x100 EXP DUP2 SLOAD DUP2 PUSH20 0xFFFFFFFFFFFFFFFFFFFFFFFFFFFFFFFFFFFFFFFF MUL NOT AND SWAP1 DUP4 PUSH20 0xFFFFFFFFFFFFFFFFFFFFFFFFFFFFFFFFFFFFFFFF AND MUL OR SWAP1 SSTORE POP POP POP PUSH1 0x0 JUMPDEST PUSH1 0x8 DUP1 SLOAD SWAP1 POP DUP2 LT ISZERO PUSH2 0xF8A JUMPI DUP4 PUSH20 0xFFFFFFFFFFFFFFFFFFFFFFFFFFFFFFFFFFFFFFFF AND PUSH1 0x8 DUP3 DUP2 SLOAD DUP2 LT PUSH2 0xEEA JUMPI PUSH2 0xEE9 PUSH2 0x1B3B JUMP JUMPDEST JUMPDEST SWAP1 PUSH1 0x0 MSTORE PUSH1 0x20 PUSH1 0x0 KECCAK256 SWAP1 PUSH1 0x4 MUL ADD PUSH1 0x1 ADD PUSH1 0x0 SWAP1 SLOAD SWAP1 PUSH2 0x100 EXP SWAP1 DIV PUSH20 0xFFFFFFFFFFFFFFFFFFFFFFFFFFFFFFFFFFFFFFFF AND PUSH20 0xFFFFFFFFFFFFFFFFFFFFFFFFFFFFFFFFFFFFFFFF AND SUB PUSH2 0xF77 JUMPI PUSH1 0x8 DUP2 DUP2 SLOAD DUP2 LT PUSH2 0xF4B JUMPI PUSH2 0xF4A PUSH2 0x1B3B JUMP JUMPDEST JUMPDEST SWAP1 PUSH1 0x0 MSTORE PUSH1 0x20 PUSH1 0x0 KECCAK256 SWAP1 PUSH1 0x4 MUL ADD PUSH1 0x3 ADD PUSH1 0x0 DUP2 SLOAD DUP1 SWAP3 SWAP2 SWAP1 PUSH2 0xF6D SWAP1 PUSH2 0x195C JUMP JUMPDEST SWAP2 SWAP1 POP SSTORE POP PUSH2 0xF8A JUMP JUMPDEST DUP1 DUP1 PUSH2 0xF82 SWAP1 PUSH2 0x195C JUMP JUMPDEST SWAP2 POP POP PUSH2 0xEB2 JUMP JUMPDEST POP PUSH1 0x1 PUSH1 0xB DUP4 PUSH1 0x40 MLOAD PUSH2 0xF9D SWAP2 SWAP1 PUSH2 0x1A4C JUMP JUMPDEST SWAP1 DUP2 MSTORE PUSH1 0x20 ADD PUSH1 0x40 MLOAD DUP1 SWAP2 SUB SWAP1 KECCAK256 PUSH1 0x0 PUSH2 0x100 EXP DUP2 SLOAD DUP2 PUSH1 0xFF MUL NOT AND SWAP1 DUP4 ISZERO ISZERO MUL OR SWAP1 SSTORE POP PUSH1 0x1 PUSH1 0xC DUP4 PUSH1 0x40 MLOAD PUSH2 0xFD4 SWAP2 SWAP1 PUSH2 0x1A4C JUMP JUMPDEST SWAP1 DUP2 MSTORE PUSH1 0x20 ADD PUSH1 0x40 MLOAD DUP1 SWAP2 SUB SWAP1 KECCAK256 PUSH1 0x0 PUSH2 0x100 EXP DUP2 SLOAD DUP2 PUSH1 0xFF MUL NOT AND SWAP1 DUP4 ISZERO ISZERO MUL OR SWAP1 SSTORE POP POP POP POP POP JUMP JUMPDEST PUSH1 0xB DUP2 DUP1 MLOAD PUSH1 0x20 DUP2 ADD DUP3 ADD DUP1 MLOAD DUP5 DUP3 MSTORE PUSH1 0x20 DUP4 ADD PUSH1 0x20 DUP6 ADD KECCAK256 DUP2 DUP4 MSTORE DUP1 SWAP6 POP POP POP POP POP POP PUSH1 0x0 SWAP2 POP SLOAD SWAP1 PUSH2 0x100 EXP SWAP1 DIV PUSH1 0xFF AND DUP2 JUMP JUMPDEST PUSH1 0x3 PUSH1 0x1 ADD PUSH1 0x0 SWAP1 SLOAD SWAP1 PUSH2 0x100 EXP SWAP1 DIV PUSH20 0xFFFFFFFFFFFFFFFFFFFFFFFFFFFFFFFFFFFFFFFF AND PUSH20 0xFFFFFFFFFFFFFFFFFFFFFFFFFFFFFFFFFFFFFFFF AND CALLER PUSH20 0xFFFFFFFFFFFFFFFFFFFFFFFFFFFFFFFFFFFFFFFF AND EQ PUSH2 0x10C8 JUMPI PUSH1 0x40 MLOAD PUSH32 0x8C379A000000000000000000000000000000000000000000000000000000000 DUP2 MSTORE PUSH1 0x4 ADD PUSH2 0x10BF SWAP1 PUSH2 0x190D JUMP JUMPDEST PUSH1 0x40 MLOAD DUP1 SWAP2 SUB SWAP1 REVERT JUMPDEST PUSH1 0x1 PUSH1 0x2 PUSH1 0x1 PUSH2 0x100 EXP DUP2 SLOAD DUP2 PUSH1 0xFF MUL NOT AND SWAP1 DUP4 ISZERO ISZERO MUL OR SWAP1 SSTORE POP JUMP JUMPDEST PUSH1 0xC DUP2 DUP1 MLOAD PUSH1 0x20 DUP2 ADD DUP3 ADD DUP1 MLOAD DUP5 DUP3 MSTORE PUSH1 0x20 DUP4 ADD PUSH1 0x20 DUP6 ADD KECCAK256 DUP2 DUP4 MSTORE DUP1 SWAP6 POP POP POP POP POP POP PUSH1 0x0 SWAP2 POP SLOAD SWAP1 PUSH2 0x100 EXP SWAP1 DIV PUSH1 0xFF AND DUP2 JUMP JUMPDEST PUSH1 0x40 MLOAD DUP1 PUSH1 0x80 ADD PUSH1 0x40 MSTORE DUP1 PUSH1 0x60 DUP2 MSTORE PUSH1 0x20 ADD PUSH1 0x0 PUSH20 0xFFFFFFFFFFFFFFFFFFFFFFFFFFFFFFFFFFFFFFFF AND DUP2 MSTORE PUSH1 0x20 ADD PUSH1 0x60 DUP2 MSTORE PUSH1 0x20 ADD PUSH1 0x0 DUP2 MSTORE POP SWAP1 JUMP JUMPDEST DUP3 DUP1 SLOAD PUSH2 0x1165 SWAP1 PUSH2 0x1890 JUMP JUMPDEST SWAP1 PUSH1 0x0 MSTORE PUSH1 0x20 PUSH1 0x0 KECCAK256 SWAP1 PUSH1 0x1F ADD PUSH1 0x20 SWAP1 DIV DUP2 ADD SWAP3 DUP3 PUSH2 0x1187 JUMPI PUSH1 0x0 DUP6 SSTORE PUSH2 0x11CE JUMP JUMPDEST DUP3 PUSH1 0x1F LT PUSH2 0x11A0 JUMPI DUP1 MLOAD PUSH1 0xFF NOT AND DUP4 DUP1 ADD OR DUP6 SSTORE PUSH2 0x11CE JUMP JUMPDEST DUP3 DUP1 ADD PUSH1 0x1 ADD DUP6 SSTORE DUP3 ISZERO PUSH2 0x11CE JUMPI SWAP2 DUP3 ADD JUMPDEST DUP3 DUP2 GT ISZERO PUSH2 0x11CD JUMPI DUP3 MLOAD DUP3 SSTORE SWAP2 PUSH1 0x20 ADD SWAP2 SWAP1 PUSH1 0x1 ADD SWAP1 PUSH2 0x11B2 JUMP JUMPDEST JUMPDEST POP SWAP1 POP PUSH2 0x11DB SWAP2 SWAP1 PUSH2 0x1233 JUMP JUMPDEST POP SWAP1 JUMP JUMPDEST PUSH1 0x40 MLOAD DUP1 PUSH1 0x80 ADD PUSH1 0x40 MSTORE DUP1 PUSH1 0x0 PUSH20 0xFFFFFFFFFFFFFFFFFFFFFFFFFFFFFFFFFFFFFFFF AND DUP2 MSTORE PUSH1 0x20 ADD PUSH1 0x60 DUP2 MSTORE PUSH1 0x20 ADD PUSH1 0x60 DUP2 MSTORE PUSH1 0x20 ADD PUSH1 0x0 PUSH20 0xFFFFFFFFFFFFFFFFFFFFFFFFFFFFFFFFFFFFFFFF AND DUP2 MSTORE POP SWAP1 JUMP JUMPDEST JUMPDEST DUP1 DUP3 GT ISZERO PUSH2 0x124C JUMPI PUSH1 0x0 DUP2 PUSH1 0x0 SWAP1 SSTORE POP PUSH1 0x1 ADD PUSH2 0x1234 JUMP JUMPDEST POP SWAP1 JUMP JUMPDEST PUSH1 0x0 DUP2 SWAP1 POP SWAP2 SWAP1 POP JUMP JUMPDEST PUSH2 0x1263 DUP2 PUSH2 0x1250 JUMP JUMPDEST DUP3 MSTORE POP POP JUMP JUMPDEST PUSH1 0x0 PUSH1 0x20 DUP3 ADD SWAP1 POP PUSH2 0x127E PUSH1 0x0 DUP4 ADD DUP5 PUSH2 0x125A JUMP JUMPDEST SWAP3 SWAP2 POP POP JUMP JUMPDEST PUSH1 0x0 DUP2 MLOAD SWAP1 POP SWAP2 SWAP1 POP JUMP JUMPDEST PUSH1 0x0 DUP3 DUP3 MSTORE PUSH1 0x20 DUP3 ADD SWAP1 POP SWAP3 SWAP2 POP POP JUMP JUMPDEST PUSH1 0x0 JUMPDEST DUP4 DUP2 LT ISZERO PUSH2 0x12BE JUMPI DUP1 DUP3 ADD MLOAD DUP2 DUP5 ADD MSTORE PUSH1 0x20 DUP2 ADD SWAP1 POP PUSH2 0x12A3 JUMP JUMPDEST DUP4 DUP2 GT ISZERO PUSH2 0x12CD JUMPI PUSH1 0x0 DUP5 DUP5 ADD MSTORE JUMPDEST POP POP POP POP JUMP JUMPDEST PUSH1 0x0 PUSH1 0x1F NOT PUSH1 0x1F DUP4 ADD AND SWAP1 POP SWAP2 SWAP1 POP JUMP JUMPDEST PUSH1 0x0 PUSH2 0x12EF DUP3 PUSH2 0x1284 JUMP JUMPDEST PUSH2 0x12F9 DUP2 DUP6 PUSH2 0x128F JUMP JUMPDEST SWAP4 POP PUSH2 0x1309 DUP2 DUP6 PUSH1 0x20 DUP7 ADD PUSH2 0x12A0 JUMP JUMPDEST PUSH2 0x1312 DUP2 PUSH2 0x12D3 JUMP JUMPDEST DUP5 ADD SWAP2 POP POP SWAP3 SWAP2 POP POP JUMP JUMPDEST PUSH1 0x0 PUSH1 0x20 DUP3 ADD SWAP1 POP DUP2 DUP2 SUB PUSH1 0x0 DUP4 ADD MSTORE PUSH2 0x1337 DUP2 DUP5 PUSH2 0x12E4 JUMP JUMPDEST SWAP1 POP SWAP3 SWAP2 POP POP JUMP JUMPDEST PUSH1 0x0 PUSH1 0x40 MLOAD SWAP1 POP SWAP1 JUMP JUMPDEST PUSH1 0x0 DUP1 REVERT JUMPDEST PUSH1 0x0 DUP1 REVERT JUMPDEST PUSH2 0x135C DUP2 PUSH2 0x1250 JUMP JUMPDEST DUP2 EQ PUSH2 0x1367 JUMPI PUSH1 0x0 DUP1 REVERT JUMPDEST POP JUMP JUMPDEST PUSH1 0x0 DUP2 CALLDATALOAD SWAP1 POP PUSH2 0x1379 DUP2 PUSH2 0x1353 JUMP JUMPDEST SWAP3 SWAP2 POP POP JUMP JUMPDEST PUSH1 0x0 PUSH1 0x20 DUP3 DUP5 SUB SLT ISZERO PUSH2 0x1395 JUMPI PUSH2 0x1394 PUSH2 0x1349 JUMP JUMPDEST JUMPDEST PUSH1 0x0 PUSH2 0x13A3 DUP5 DUP3 DUP6 ADD PUSH2 0x136A JUMP JUMPDEST SWAP2 POP POP SWAP3 SWAP2 POP POP JUMP JUMPDEST PUSH1 0x0 PUSH20 0xFFFFFFFFFFFFFFFFFFFFFFFFFFFFFFFFFFFFFFFF DUP3 AND SWAP1 POP SWAP2 SWAP1 POP JUMP JUMPDEST PUSH1 0x0 PUSH2 0x13D7 DUP3 PUSH2 0x13AC JUMP JUMPDEST SWAP1 POP SWAP2 SWAP1 POP JUMP JUMPDEST PUSH2 0x13E7 DUP2 PUSH2 0x13CC JUMP JUMPDEST DUP3 MSTORE POP POP JUMP JUMPDEST PUSH1 0x0 PUSH1 0x80 DUP3 ADD SWAP1 POP DUP2 DUP2 SUB PUSH1 0x0 DUP4 ADD MSTORE PUSH2 0x1407 DUP2 DUP8 PUSH2 0x12E4 JUMP JUMPDEST SWAP1 POP PUSH2 0x1416 PUSH1 0x20 DUP4 ADD DUP7 PUSH2 0x13DE JUMP JUMPDEST DUP2 DUP2 SUB PUSH1 0x40 DUP4 ADD MSTORE PUSH2 0x1428 DUP2 DUP6 PUSH2 0x12E4 JUMP JUMPDEST SWAP1 POP PUSH2 0x1437 PUSH1 0x60 DUP4 ADD DUP5 PUSH2 0x125A JUMP JUMPDEST SWAP6 SWAP5 POP POP POP POP POP JUMP JUMPDEST PUSH1 0x0 DUP1 REVERT JUMPDEST PUSH1 0x0 DUP1 REVERT JUMPDEST PUSH32 0x4E487B7100000000000000000000000000000000000000000000000000000000 PUSH1 0x0 MSTORE PUSH1 0x41 PUSH1 0x4 MSTORE PUSH1 0x24 PUSH1 0x0 REVERT JUMPDEST PUSH2 0x1482 DUP3 PUSH2 0x12D3 JUMP JUMPDEST DUP2 ADD DUP2 DUP2 LT PUSH8 0xFFFFFFFFFFFFFFFF DUP3 GT OR ISZERO PUSH2 0x14A1 JUMPI PUSH2 0x14A0 PUSH2 0x144A JUMP JUMPDEST JUMPDEST DUP1 PUSH1 0x40 MSTORE POP POP POP JUMP JUMPDEST PUSH1 0x0 PUSH2 0x14B4 PUSH2 0x133F JUMP JUMPDEST SWAP1 POP PUSH2 0x14C0 DUP3 DUP3 PUSH2 0x1479 JUMP JUMPDEST SWAP2 SWAP1 POP JUMP JUMPDEST PUSH1 0x0 PUSH8 0xFFFFFFFFFFFFFFFF DUP3 GT ISZERO PUSH2 0x14E0 JUMPI PUSH2 0x14DF PUSH2 0x144A JUMP JUMPDEST JUMPDEST PUSH2 0x14E9 DUP3 PUSH2 0x12D3 JUMP JUMPDEST SWAP1 POP PUSH1 0x20 DUP2 ADD SWAP1 POP SWAP2 SWAP1 POP JUMP JUMPDEST DUP3 DUP2 DUP4 CALLDATACOPY PUSH1 0x0 DUP4 DUP4 ADD MSTORE POP POP POP JUMP JUMPDEST PUSH1 0x0 PUSH2 0x1518 PUSH2 0x1513 DUP5 PUSH2 0x14C5 JUMP JUMPDEST PUSH2 0x14AA JUMP JUMPDEST SWAP1 POP DUP3 DUP2 MSTORE PUSH1 0x20 DUP2 ADD DUP5 DUP5 DUP5 ADD GT ISZERO PUSH2 0x1534 JUMPI PUSH2 0x1533 PUSH2 0x1445 JUMP JUMPDEST JUMPDEST PUSH2 0x153F DUP5 DUP3 DUP6 PUSH2 0x14F6 JUMP JUMPDEST POP SWAP4 SWAP3 POP POP POP JUMP JUMPDEST PUSH1 0x0 DUP3 PUSH1 0x1F DUP4 ADD SLT PUSH2 0x155C JUMPI PUSH2 0x155B PUSH2 0x1440 JUMP JUMPDEST JUMPDEST DUP2 CALLDATALOAD PUSH2 0x156C DUP5 DUP3 PUSH1 0x20 DUP7 ADD PUSH2 0x1505 JUMP JUMPDEST SWAP2 POP POP SWAP3 SWAP2 POP POP JUMP JUMPDEST PUSH2 0x157E DUP2 PUSH2 0x13CC JUMP JUMPDEST DUP2 EQ PUSH2 0x1589 JUMPI PUSH1 0x0 DUP1 REVERT JUMPDEST POP JUMP JUMPDEST PUSH1 0x0 DUP2 CALLDATALOAD SWAP1 POP PUSH2 0x159B DUP2 PUSH2 0x1575 JUMP JUMPDEST SWAP3 SWAP2 POP POP JUMP JUMPDEST PUSH1 0x0 DUP1 PUSH1 0x0 PUSH1 0x60 DUP5 DUP7 SUB SLT ISZERO PUSH2 0x15BA JUMPI PUSH2 0x15B9 PUSH2 0x1349 JUMP JUMPDEST JUMPDEST PUSH1 0x0 DUP5 ADD CALLDATALOAD PUSH8 0xFFFFFFFFFFFFFFFF DUP2 GT ISZERO PUSH2 0x15D8 JUMPI PUSH2 0x15D7 PUSH2 0x134E JUMP JUMPDEST JUMPDEST PUSH2 0x15E4 DUP7 DUP3 DUP8 ADD PUSH2 0x1547 JUMP JUMPDEST SWAP4 POP POP PUSH1 0x20 PUSH2 0x15F5 DUP7 DUP3 DUP8 ADD PUSH2 0x158C JUMP JUMPDEST SWAP3 POP POP PUSH1 0x40 DUP5 ADD CALLDATALOAD PUSH8 0xFFFFFFFFFFFFFFFF DUP2 GT ISZERO PUSH2 0x1616 JUMPI PUSH2 0x1615 PUSH2 0x134E JUMP JUMPDEST JUMPDEST PUSH2 0x1622 DUP7 DUP3 DUP8 ADD PUSH2 0x1547 JUMP JUMPDEST SWAP2 POP POP SWAP3 POP SWAP3 POP SWAP3 JUMP JUMPDEST PUSH1 0x0 DUP2 MLOAD SWAP1 POP SWAP2 SWAP1 POP JUMP JUMPDEST PUSH1 0x0 DUP3 DUP3 MSTORE PUSH1 0x20 DUP3 ADD SWAP1 POP SWAP3 SWAP2 POP POP JUMP JUMPDEST PUSH1 0x0 DUP2 SWAP1 POP PUSH1 0x20 DUP3 ADD SWAP1 POP SWAP2 SWAP1 POP JUMP JUMPDEST PUSH1 0x0 DUP3 DUP3 MSTORE PUSH1 0x20 DUP3 ADD SWAP1 POP SWAP3 SWAP2 POP POP JUMP JUMPDEST PUSH1 0x0 PUSH2 0x1674 DUP3 PUSH2 0x1284 JUMP JUMPDEST PUSH2 0x167E DUP2 DUP6 PUSH2 0x1658 JUMP JUMPDEST SWAP4 POP PUSH2 0x168E DUP2 DUP6 PUSH1 0x20 DUP7 ADD PUSH2 0x12A0 JUMP JUMPDEST PUSH2 0x1697 DUP2 PUSH2 0x12D3 JUMP JUMPDEST DUP5 ADD SWAP2 POP POP SWAP3 SWAP2 POP POP JUMP JUMPDEST PUSH2 0x16AB DUP2 PUSH2 0x13CC JUMP JUMPDEST DUP3 MSTORE POP POP JUMP JUMPDEST PUSH2 0x16BA DUP2 PUSH2 0x1250 JUMP JUMPDEST DUP3 MSTORE POP POP JUMP JUMPDEST PUSH1 0x0 PUSH1 0x80 DUP4 ADD PUSH1 0x0 DUP4 ADD MLOAD DUP5 DUP3 SUB PUSH1 0x0 DUP7 ADD MSTORE PUSH2 0x16DD DUP3 DUP3 PUSH2 0x1669 JUMP JUMPDEST SWAP2 POP POP PUSH1 0x20 DUP4 ADD MLOAD PUSH2 0x16F2 PUSH1 0x20 DUP7 ADD DUP3 PUSH2 0x16A2 JUMP JUMPDEST POP PUSH1 0x40 DUP4 ADD MLOAD DUP5 DUP3 SUB PUSH1 0x40 DUP7 ADD MSTORE PUSH2 0x170A DUP3 DUP3 PUSH2 0x1669 JUMP JUMPDEST SWAP2 POP POP PUSH1 0x60 DUP4 ADD MLOAD PUSH2 0x171F PUSH1 0x60 DUP7 ADD DUP3 PUSH2 0x16B1 JUMP JUMPDEST POP DUP1 SWAP2 POP POP SWAP3 SWAP2 POP POP JUMP JUMPDEST PUSH1 0x0 PUSH2 0x1736 DUP4 DUP4 PUSH2 0x16C0 JUMP JUMPDEST SWAP1 POP SWAP3 SWAP2 POP POP JUMP JUMPDEST PUSH1 0x0 PUSH1 0x20 DUP3 ADD SWAP1 POP SWAP2 SWAP1 POP JUMP JUMPDEST PUSH1 0x0 PUSH2 0x1756 DUP3 PUSH2 0x162C JUMP JUMPDEST PUSH2 0x1760 DUP2 DUP6 PUSH2 0x1637 JUMP JUMPDEST SWAP4 POP DUP4 PUSH1 0x20 DUP3 MUL DUP6 ADD PUSH2 0x1772 DUP6 PUSH2 0x1648 JUMP JUMPDEST DUP1 PUSH1 0x0 JUMPDEST DUP6 DUP2 LT ISZERO PUSH2 0x17AE JUMPI DUP5 DUP5 SUB DUP10 MSTORE DUP2 MLOAD PUSH2 0x178F DUP6 DUP3 PUSH2 0x172A JUMP JUMPDEST SWAP5 POP PUSH2 0x179A DUP4 PUSH2 0x173E JUMP JUMPDEST SWAP3 POP PUSH1 0x20 DUP11 ADD SWAP10 POP POP PUSH1 0x1 DUP2 ADD SWAP1 POP PUSH2 0x1776 JUMP JUMPDEST POP DUP3 SWAP8 POP DUP8 SWAP6 POP POP POP POP POP POP SWAP3 SWAP2 POP POP JUMP JUMPDEST PUSH1 0x0 PUSH1 0x20 DUP3 ADD SWAP1 POP DUP2 DUP2 SUB PUSH1 0x0 DUP4 ADD MSTORE PUSH2 0x17DA DUP2 DUP5 PUSH2 0x174B JUMP JUMPDEST SWAP1 POP SWAP3 SWAP2 POP POP JUMP JUMPDEST PUSH1 0x0 DUP2 ISZERO ISZERO SWAP1 POP SWAP2 SWAP1 POP JUMP JUMPDEST PUSH2 0x17F7 DUP2 PUSH2 0x17E2 JUMP JUMPDEST DUP3 MSTORE POP POP JUMP JUMPDEST PUSH1 0x0 PUSH1 0x20 DUP3 ADD SWAP1 POP PUSH2 0x1812 PUSH1 0x0 DUP4 ADD DUP5 PUSH2 0x17EE JUMP JUMPDEST SWAP3 SWAP2 POP POP JUMP JUMPDEST PUSH1 0x0 PUSH1 0x20 DUP3 DUP5 SUB SLT ISZERO PUSH2 0x182E JUMPI PUSH2 0x182D PUSH2 0x1349 JUMP JUMPDEST JUMPDEST PUSH1 0x0 DUP3 ADD CALLDATALOAD PUSH8 0xFFFFFFFFFFFFFFFF DUP2 GT ISZERO PUSH2 0x184C JUMPI PUSH2 0x184B PUSH2 0x134E JUMP JUMPDEST JUMPDEST PUSH2 0x1858 DUP5 DUP3 DUP6 ADD PUSH2 0x1547 JUMP JUMPDEST SWAP2 POP POP SWAP3 SWAP2 POP POP JUMP JUMPDEST PUSH32 0x4E487B7100000000000000000000000000000000000000000000000000000000 PUSH1 0x0 MSTORE PUSH1 0x22 PUSH1 0x4 MSTORE PUSH1 0x24 PUSH1 0x0 REVERT JUMPDEST PUSH1 0x0 PUSH1 0x2 DUP3 DIV SWAP1 POP PUSH1 0x1 DUP3 AND DUP1 PUSH2 0x18A8 JUMPI PUSH1 0x7F DUP3 AND SWAP2 POP JUMPDEST PUSH1 0x20 DUP3 LT DUP2 SUB PUSH2 0x18BB JUMPI PUSH2 0x18BA PUSH2 0x1861 JUMP JUMPDEST JUMPDEST POP SWAP2 SWAP1 POP JUMP JUMPDEST PUSH32 0x4F6E6C79206D616E616765722063616E206368616E6765207468697321000000 PUSH1 0x0 DUP3 ADD MSTORE POP JUMP JUMPDEST PUSH1 0x0 PUSH2 0x18F7 PUSH1 0x1D DUP4 PUSH2 0x128F JUMP JUMPDEST SWAP2 POP PUSH2 0x1902 DUP3 PUSH2 0x18C1 JUMP JUMPDEST PUSH1 0x20 DUP3 ADD SWAP1 POP SWAP2 SWAP1 POP JUMP JUMPDEST PUSH1 0x0 PUSH1 0x20 DUP3 ADD SWAP1 POP DUP2 DUP2 SUB PUSH1 0x0 DUP4 ADD MSTORE PUSH2 0x1926 DUP2 PUSH2 0x18EA JUMP JUMPDEST SWAP1 POP SWAP2 SWAP1 POP JUMP JUMPDEST PUSH32 0x4E487B7100000000000000000000000000000000000000000000000000000000 PUSH1 0x0 MSTORE PUSH1 0x11 PUSH1 0x4 MSTORE PUSH1 0x24 PUSH1 0x0 REVERT JUMPDEST PUSH1 0x0 PUSH2 0x1967 DUP3 PUSH2 0x1250 JUMP JUMPDEST SWAP2 POP PUSH32 0xFFFFFFFFFFFFFFFFFFFFFFFFFFFFFFFFFFFFFFFFFFFFFFFFFFFFFFFFFFFFFFFF DUP3 SUB PUSH2 0x1999 JUMPI PUSH2 0x1998 PUSH2 0x192D JUMP JUMPDEST JUMPDEST PUSH1 0x1 DUP3 ADD SWAP1 POP SWAP2 SWAP1 POP JUMP JUMPDEST PUSH32 0x566F74696E67206E6F7420737461727465642059657421000000000000000000 PUSH1 0x0 DUP3 ADD MSTORE POP JUMP JUMPDEST PUSH1 0x0 PUSH2 0x19DA PUSH1 0x17 DUP4 PUSH2 0x128F JUMP JUMPDEST SWAP2 POP PUSH2 0x19E5 DUP3 PUSH2 0x19A4 JUMP JUMPDEST PUSH1 0x20 DUP3 ADD SWAP1 POP SWAP2 SWAP1 POP JUMP JUMPDEST PUSH1 0x0 PUSH1 0x20 DUP3 ADD SWAP1 POP DUP2 DUP2 SUB PUSH1 0x0 DUP4 ADD MSTORE PUSH2 0x1A09 DUP2 PUSH2 0x19CD JUMP JUMPDEST SWAP1 POP SWAP2 SWAP1 POP JUMP JUMPDEST PUSH1 0x0 DUP2 SWAP1 POP SWAP3 SWAP2 POP POP JUMP JUMPDEST PUSH1 0x0 PUSH2 0x1A26 DUP3 PUSH2 0x1284 JUMP JUMPDEST PUSH2 0x1A30 DUP2 DUP6 PUSH2 0x1A10 JUMP JUMPDEST SWAP4 POP PUSH2 0x1A40 DUP2 DUP6 PUSH1 0x20 DUP7 ADD PUSH2 0x12A0 JUMP JUMPDEST DUP1 DUP5 ADD SWAP2 POP POP SWAP3 SWAP2 POP POP JUMP JUMPDEST PUSH1 0x0 PUSH2 0x1A58 DUP3 DUP5 PUSH2 0x1A1B JUMP JUMPDEST SWAP2 POP DUP2 SWAP1 POP SWAP3 SWAP2 POP POP JUMP JUMPDEST PUSH32 0x596F75206861766520616C726561647920566F74656421000000000000000000 PUSH1 0x0 DUP3 ADD MSTORE POP JUMP JUMPDEST PUSH1 0x0 PUSH2 0x1A99 PUSH1 0x17 DUP4 PUSH2 0x128F JUMP JUMPDEST SWAP2 POP PUSH2 0x1AA4 DUP3 PUSH2 0x1A63 JUMP JUMPDEST PUSH1 0x20 DUP3 ADD SWAP1 POP SWAP2 SWAP1 POP JUMP JUMPDEST PUSH1 0x0 PUSH1 0x20 DUP3 ADD SWAP1 POP DUP2 DUP2 SUB PUSH1 0x0 DUP4 ADD MSTORE PUSH2 0x1AC8 DUP2 PUSH2 0x1A8C JUMP JUMPDEST SWAP1 POP SWAP2 SWAP1 POP JUMP JUMPDEST PUSH32 0x53656E64206174206C6561737420302E35302065746865722100000000000000 PUSH1 0x0 DUP3 ADD MSTORE POP JUMP JUMPDEST PUSH1 0x0 PUSH2 0x1B05 PUSH1 0x19 DUP4 PUSH2 0x128F JUMP JUMPDEST SWAP2 POP PUSH2 0x1B10 DUP3 PUSH2 0x1ACF JUMP JUMPDEST PUSH1 0x20 DUP3 ADD SWAP1 POP SWAP2 SWAP1 POP JUMP JUMPDEST PUSH1 0x0 PUSH1 0x20 DUP3 ADD SWAP1 POP DUP2 DUP2 SUB PUSH1 0x0 DUP4 ADD MSTORE PUSH2 0x1B34 DUP2 PUSH2 0x1AF8 JUMP JUMPDEST SWAP1 POP SWAP2 SWAP1 POP JUMP JUMPDEST PUSH32 0x4E487B7100000000000000000000000000000000000000000000000000000000 PUSH1 0x0 MSTORE PUSH1 0x32 PUSH1 0x4 MSTORE PUSH1 0x24 PUSH1 0x0 REVERT INVALID LOG2 PUSH5 0x6970667358 0x22 SLT KECCAK256 0xBA PUSH3 0xF1C47B 0x24 0x22 0x24 0xC8 PUSH23 0xFDA84461AC09FFFED6402C5A6C4397E1A16081EABCB664 PUSH20 0x6F6C634300080D00330000000000000000000000 "},"gasEstimates":{"creation":{"codeDepositCost":"1414400","executionCost":"infinite","totalCost":"infinite"},"external":{"addParticipant(string,address,string)":"infinite","ballotName()":"infinite","description()":"infinite","finishVoting()":"26703","getParticipants()":"infinite","manager()":"infinite","participants(uint256)":"infinite","startVoting()":"26655","totalNoOfVoters()":"2453","vote(string,address,string)":"infinite","votedPeoplesAadharId(string)":"infinite","votedPeoplesWalletId(string)":"infinite","votingFinished()":"2566","votingStarted()":"2538"}},"methodIdentifiers":{"addParticipant(string,address,string)":"4901d7ae","ballotName()":"1b26586c","description()":"7284e416","finishVoting()":"f9094303","getParticipants()":"5aa68ac0","manager()":"481c6a75","participants(uint256)":"35c1d349","startVoting()":"1ec6b60a","totalNoOfVoters()":"16d8cb70","vote(string,address,string)":"9c3bfcf6","votedPeoplesAadharId(string)":"b8a7a3ab","votedPeoplesWalletId(string)":"fb7e92e0","votingFinished()":"789d9e8a","votingStarted()":"83d948b7"}},"storageLayout":{"storage":[{"astId":50,"contract":"Ballot.sol:Ballot","label":"ballotName","offset":0,"slot":"0","type":"t_string_storage"},{"astId":52,"contract":"Ballot.sol:Ballot","label":"description","offset":0,"slot":"1","type":"t_string_storage"},{"astId":55,"contract":"Ballot.sol:Ballot","label":"votingStarted","offset":0,"slot":"2","type":"t_bool"},{"astId":58,"contract":"Ballot.sol:Ballot","label":"votingFinished","offset":1,"slot":"2","type":"t_bool"},{"astId":79,"contract":"Ballot.sol:Ballot","label":"manager","offset":0,"slot":"3","type":"t_struct(Person)67_storage"},{"astId":81,"contract":"Ballot.sol:Ballot","label":"numParticipants","offset":0,"slot":"7","type":"t_uint256"},{"astId":85,"contract":"Ballot.sol:Ballot","label":"participants","offset":0,"slot":"8","type":"t_array(t_struct(Person)67_storage)dyn_storage"},{"astId":87,"contract":"Ballot.sol:Ballot","label":"totalNoOfVoters","offset":0,"slot":"9","type":"t_uint256"},{"astId":91,"contract":"Ballot.sol:Ballot","label":"VotesMap","offset":0,"slot":"10","type":"t_array(t_struct(Vote)76_storage)dyn_storage"},{"astId":95,"contract":"Ballot.sol:Ballot","label":"votedPeoplesAadharId","offset":0,"slot":"11","type":"t_mapping(t_string_memory_ptr,t_bool)"},{"astId":99,"contract":"Ballot.sol:Ballot","label":"votedPeoplesWalletId","offset":0,"slot":"12","type":"t_mapping(t_string_memory_ptr,t_bool)"}],"types":{"t_address":{"encoding":"inplace","label":"address","numberOfBytes":"20"},"t_array(t_struct(Person)67_storage)dyn_storage":{"base":"t_struct(Person)67_storage","encoding":"dynamic_array","label":"struct Ballot.Person[]","numberOfBytes":"32"},"t_array(t_struct(Vote)76_storage)dyn_storage":{"base":"t_struct(Vote)76_storage","encoding":"dynamic_array","label":"struct Ballot.Vote[]","numberOfBytes":"32"},"t_bool":{"encoding":"inplace","label":"bool","numberOfBytes":"1"},"t_mapping(t_string_memory_ptr,t_bool)":{"encoding":"mapping","key":"t_string_memory_ptr","label":"mapping(string => bool)","numberOfBytes":"32","value":"t_bool"},"t_string_memory_ptr":{"encoding":"bytes","label":"string","numberOfBytes":"32"},"t_string_storage":{"encoding":"bytes","label":"string","numberOfBytes":"32"},"t_struct(Person)67_storage":{"encoding":"inplace","label":"struct Ballot.Person","members":[{"astId":60,"contract":"Ballot.sol:Ballot","label":"name","offset":0,"slot":"0","type":"t_string_storage"},{"astId":62,"contract":"Ballot.sol:Ballot","label":"id","offset":0,"slot":"1","type":"t_address"},{"astId":64,"contract":"Ballot.sol:Ballot","label":"image","offset":0,"slot":"2","type":"t_string_storage"},{"astId":66,"contract":"Ballot.sol:Ballot","label":"votes","offset":0,"slot":"3","type":"t_uint256"}],"numberOfBytes":"128"},"t_struct(Vote)76_storage":{"encoding":"inplace","label":"struct Ballot.Vote","members":[{"astId":69,"contract":"Ballot.sol:Ballot","label":"voterId","offset":0,"slot":"0","type":"t_address"},{"astId":71,"contract":"Ballot.sol:Ballot","label":"aadharId","offset":0,"slot":"1","type":"t_string_storage"},{"astId":73,"contract":"Ballot.sol:Ballot","label":"name","offset":0,"slot":"2","type":"t_string_storage"},{"astId":75,"contract":"Ballot.sol:Ballot","label":"votedTo","offset":0,"slot":"3","type":"t_address"}],"numberOfBytes":"128"},"t_uint256":{"encoding":"inplace","label":"uint256","numberOfBytes":"32"}}},"userdoc":{"kind":"user","methods":{},"version":1}}